:020000040800F2
:1000000000070020E5040008BD1500083D150008A4
:10001000951500083D15000869150008E70400085B
:10002000E7040008E7040008E7040008ED370008CB
:10003000E7040008E7040008E7040008E7040008F4
:10004000E7040008E7040008E7040008E7040008E4
:10005000E7040008E7040008193C0008453C0008D4
:10006000713C00089D3C0008C93C0008E7040008FA
:10007000E7040008E7040008E7040008E7040008B4
:10008000E7040008E7040008E704000875250008F5
:10009000E12500083526000889260008F53C0008FF
:1000A000E7040008E7040008E7040008E704000884
:1000B000693A0008E7040008E7040008E7040008BC
:1000C000E7040008E7040008E7040008E704000864
:1000D000E70400082D2A0008412A0008E704000868
:1000E0005D3D0008E7040008E7040008E704000895
:1000F000E7040008E7040008E7040008E704000834
:10010000E7040008E7040008E7040008E704000823
:10011000E7040008E7040008E7040008E704000813
:10012000E7040008E7040008E7040008E704000803
:10013000E7040008E7040008E7040008E7040008F3
:10014000E7040008E7040008E7040008E7040008E3
:10015000E7040008E7040008E7040008E7040008D3
:10016000E7040008E7040008E7040008E7040008C3
:10017000E7040008E7040008E7040008E7040008B3
:10018000E7040008E7040008E7040008E7040008A3
:10019000E7040008E7040008E7040008E704000893
:1001A000E7040008E7040008E7040008E704000883
:1001B000E7040008E7040008E7040008E704000873
:1001C000E7040008E7040008E7040008E704000863
:1001D000E7040008E7040008E7040008E704000853
:1001E00053B94AB9002908BF00281CBF4FF0FF319E
:1001F0004FF0FF3000F074B9ADF1080C6DE904CE9A
:1002000000F006F8DDF804E0DDE9022304B07047F1
:100210002DE9F047089D04468E46002B4DD18A42B9
:10022000944669D9B2FA82F252B101FA02F3C2F1EC
:10023000200120FA01F10CFA02FC41EA030E94407D
:100240004FEA1C48210CBEFBF8F61FFA8CF708FB9E
:1002500016E341EA034306FB07F199420AD91CEB76
:10026000030306F1FF3080F01F81994240F21C81A8
:10027000023E63445B1AA4B2B3FBF8F008FB1033F0
:1002800044EA034400FB07F7A7420AD91CEB040425
:1002900000F1FF3380F00A81A74240F207816444F5
:1002A000023840EA0640E41B00261DB1D44000237A
:1002B000C5E900433146BDE8F0878B4209D9002DDE
:1002C00000F0EF800026C5E9000130463146BDE868
:1002D000F087B3FA83F6002E4AD18B4202D38242D2
:1002E00000F2F980841A61EB030301209E46002D81
:1002F000E0D0C5E9004EDDE702B9FFDEB2FA82F2D6
:10030000002A40F09280A1EB0C014FEA1C471FFA33
:100310008CFE0126200CB1FBF7F307FB131140EA1A
:1003200001410EFB03F0884208D91CEB010103F1E7
:10033000FF3802D2884200F2CB804346091AA4B2A9
:10034000B1FBF7F007FB101144EA01440EFB00FE7D
:10035000A64508D91CEB040400F1FF3102D2A645E2
:1003600000F2BB800846A4EB0E0440EA03409CE781
:10037000C6F12007B34022FA07FC4CEA030C20FA2E
:1003800007F401FA06F31C43F9404FEA1C4900FA4E
:1003900006F3B1FBF9F8200C1FFA8CFE09FB1811CB
:1003A00040EA014108FB0EF0884202FA06F20BD93E
:1003B0001CEB010108F1FF3A80F08880884240F28E
:1003C0008580A8F102086144091AA4B2B1FBF9F0D2
:1003D00009FB101144EA014100FB0EFE8E4508D9CD
:1003E0001CEB010100F1FF346CD28E456AD9023852
:1003F000614440EA0840A0FB0294A1EB0E01A14237
:10040000C846A64656D353D05DB1B3EB080261EBA4
:100410000E0101FA07F722FA06F3F1401F43C5E97E
:10042000007100263146BDE8F087C2F12003D840B4
:100430000CFA02FC21FA03F3914001434FEA1C47F6
:100440001FFA8CFEB3FBF7F007FB10360B0C43EAE8
:10045000064300FB0EF69E4204FA02F408D91CEB98
:10046000030300F1FF382FD29E422DD90238634496
:100470009B1B89B2B3FBF7F607FB163341EA034136
:1004800006FB0EF38B4208D91CEB010106F1FF3885
:1004900016D28B4214D9023E6144C91A46EA00467C
:1004A00038E72E46284605E70646E3E61846F8E60E
:1004B0004B45A9D2B9EB020864EB0C0E0138A3E757
:1004C0004646EAE7204694E74046D1E7D0467BE738
:1004D000023B614432E7304609E76444023842E7B0
:1004E000704700BF02E000F000F8FEE772B63A483D
:1004F00080F30888394880F3098839484EF6085156
:10050000CEF20001086040F20000CCF200004EF68E
:100510003471CEF200010860BFF34F8FBFF36F8FCD
:1005200040F20000C0F2F0004EF68851CEF2000119
:100530000860BFF34F8FBFF36F8F4FF00000E1EE05
:10054000100A4EF63C71CEF200010860062080F3DE
:100550001488BFF36F8F03F0C9F903F0A5F903F016
:10056000EFF94FF055301F491B4A91423CBF41F80B
:10057000040BFAE71C49194A91423CBF41F8040BAD
:10058000FAE71A491A4A1B4B9A423EBF51F8040B2C
:1005900042F8040BF8E700201749184A91423CBF83
:1005A00041F8040BFAE703F083F903F017FA144C4F
:1005B000144DAC4203DA54F8041B8847F9E700F005
:1005C00041F8114C114DAC4203DA54F8041B884732
:1005D000F9E703F06BB900000007002000230020BA
:1005E000000000080001002000070020D0400008A3
:1005F000002300202423002028230020003C00208A
:10060000E0010008E0010008E0010008E001000846
:100610002DE9F04F2DED108AC1F80CD0C3689D462E
:10062000BDEC108ABDE8F08F002383F311882846C3
:10063000A047002002F0B0FDFEE702F035FD00DF2C
:10064000FEE700002DE9F04103F06EF8074603F0E5
:10065000B9F8054600283DD12B4B9F423AD00133D3
:100660009F423AD0294B27F0FF029A4239D1F8B283
:1006700000F052FAA84642F2107400F057FC08B19C
:100680000024A04600F04EFA064670B37CBB4646F6
:1006900035B11F4B9F4203D003F08CF8002426464F
:1006A000002003F04BF81B4B1B691B0722D40EB133
:1006B00000F032F800F098FC00F07EFE00F080FFC1
:1006C0000546CCB100F07CFF401BA04214D900F0DD
:1006D00023F8F3E7A8460024CFE704464FF00108CB
:1006E000CBE780464FF47A74C7E70446D0E74FF46F
:1006F0007A74CDE70024DDE700F028FD4FF47A702E
:1007000002F050FDDDE700BF010007B0000008B0B7
:10071000263A09B0000402401E4B1F4A10B51C4681
:100720001968013134D004339342F9D162681B4B0C
:100730009A422DD91A4B9B6803F1006303F580336D
:100740009A4225D203F00AF803F01CF8002000F0CA
:100750004DFE144B0220187000F084FE124B1A6CF0
:1007600000221A64196E1A66196E596C5A64596E11
:100770005A665B6E72B64FF0E0232021C3F8084D35
:10078000D4E9003281F311889D4683F3088810472D
:1007900010BD00BF0000010820000108FFFF000895
:1007A000002300202823002000380240094A136853
:1007B00049F2690099B21B0C00FB01331360064B30
:1007C000186844F2506182B2000C01FB020018600C
:1007D00080B27047202300201C23002010B5002188
:1007E0001022044600F05AFE034B03CB20606160E8
:1007F0001868A06010BD00BF107AFF1F2DE9F043FC
:10080000224DBBB000F0DCFEAB6840F2ED22C31A13
:10081000934232D906AFA8602B46282200213846E1
:1008200001F0DCFB05F10E0000F030FE002604466E
:100830005FFA80F905F10E08F3B2F100994501F174
:10084000280107D908EB06030822384601F0C6FB49
:100850000136F1E708230122CDE9023205340C4BC1
:100860000193A4B230230093CDE9047405A3D3E926
:100870000023297B074801F0C9F93BB0BDE8F083AC
:10088000AFF3008078F6339F93CACD8D703300208C
:100890007D3300204433002070B50D4614461E46BB
:1008A00001F04AF950B9022E10D1012C0ED112A339
:1008B000D3E90023C5E90023012007E0282C10D04C
:1008C00005D8012C09D0052C0FD0002070BD302C8C
:1008D000FBD10BA3D3E90023ECE70BA3D3E900235F
:1008E000E8E70BA3D3E90023E4E70BA3D3E9002354
:1008F000E0E700BFAFF30080401DA12026812A0B56
:1009000078F6339F93CACD8D9E6AC421818A46EEC4
:1009100026417272DF25D7B7F017304A39059E5647
:1009200013B504462346084620220021019001F019
:1009300055FB22790198032A234628BF032203F896
:10094000042F2021022201F049FB62790198072A35
:10095000234628BF072203F8052F2221032201F096
:100960003DFBA2790198072A234628BF072203F8F6
:10097000062F2521032201F031FB019804F1080321
:100980001022282101F02AFB382002B010BD0000FF
:100990002DE9F04FFFB01FAD0CAE40F2751280464E
:1009A0000F4620A80021296000F078FD4822002190
:1009B000304600F073FD00F003FE554B4FF47A72A1
:1009C000B0FBF2F0186093E80700012386E8070007
:1009D0000DF152003382FFF701FF4EF6031333840B
:1009E00006AB18464B4903F063FA162230642946D9
:1009F000304686F83C20FFF793FF10AB04460146D3
:100A00000822284601F0EAFA0822A1180DF1410354
:100A1000284601F0E3FA0DF14203082204F1100127
:100A2000284601F0DBFA11AB202204F11801284618
:100A300001F0D4FA12AB402204F13801284601F04B
:100A4000CDFA14AB082204F17801284601F0C6FA69
:100A50000DF15103082204F18001284601F0BEFA8D
:100A600004F1880A0DF1520904F5847B4B46514686
:100A7000082228460AF1080A01F0B0FAD34509F124
:100A80000109F3D119AB08225946284601F0A6FA0C
:100A900004F588744FF0000996F834304B450AD9B4
:100AA000B36B21464B440822284601F097FA0834DC
:100AB00009F10109F0E74FF0000996F83C304B4589
:100AC00004EBC90108D9336C08224B44284601F0D5
:100AD00085FA09F10109F0E700230393BB7E029335
:100AE000073107F119030193C1F3CF010123CDE9C8
:100AF00004510093F97E04A3D3E90023404601F09A
:100B000085F87FB0BDE8F08F9E6AC421818A46EEE9
:100B10002C230020C03E0008014B1870704700BF16
:100B200038230020F0B5334B1C7B85B034B1324BF9
:100B30000E221A810024204605B0F0BD2F4A10680D
:100B4000516802AB03C308232D492E480DEB030265
:100B500003F08CF9054630B9274B2B480A221A813D
:100B600000F0E8FCE6E70169B1F5E02F06D9224B79
:100B700026480B221A8100F0DDFCDCE7438B40F2B3
:100B8000E932934207D01C490C20088119462048BD
:100B900000F0D0FCCFE71F4A024402F11003994253
:100BA00004D2154B1C4810221A81E4E710398E1A22
:100BB0002046144900F008FD3246074605F11801A9
:100BC000204600F001FDAB689F4202D1EB689842DD
:100BD0000AD0094B0D221A810090D5E902123B463A
:100BE0000E4800F0A7FCA5E70D4800F0A3FC012487
:100BF000A1E700BF703300202C230020693F0008CC
:100C0000DCFF060000000108D83E0008E43E0008B2
:100C1000F63E00080800FFF7143F0008313F0008C7
:100C20005A3F00082DE9F04FADB006AF80460C46A4
:100C300000F082FF054600285AD1237E022B1BD1EB
:100C4000E38A012B18D100F0BBFC0646FFF7AEFD8E
:100C500003464FF4C870DFF8D092B3FBF0F206F50C
:100C6000167602FB103316FA83F3C9F80030E37EE0
:100C700033B9A84B00221A709C37BD46BDE8F08FEF
:100C8000A38AEEB2013BB34205F101050BD93B1D2E
:100C90001E44E90000960023082201F0F8012046D6
:100CA00001F060F8ECE707F11400FFF797FD32461A
:100CB00007F11401381D03F0C9F80028D9D10F2E0F
:100CC00008D8944B1E70D9F80030A3F51673C9F8F4
:100CD0000030D1E7FB1CF870014600930722034661
:100CE000204601F03FF8F978404600F01DFFC3E7C9
:100CF000E38A282B26D010D8012B1ED0052BBBD180
:100D0000BFF34F8F8449854BCA6802F4E0621343F6
:100D1000CB60BFF34F8F00BFFDE7302BACD1637EBC
:100D20007F4D01336A7BDBB29342E94603D1E27E19
:100D30002B7B9A4265D0CD469EE721464046FFF781
:100D400027FE99E7A38A013B9BB2C92B94D8744D27
:100D50002E7B26BB05F10C03009308223346314657
:100D6000204600F0FFFF731CF2B2D9001E46A38A92
:100D7000013B9A4205DA0E322A44009200230822EF
:100D8000EEE700230022C5E900230023AB6085F8CD
:100D9000D730C5F8D8302B7B0BB9E37E2B730025F9
:100DA00007F114093B1D082229464846C7E90155A9
:100DB000FD6001F013F93B7A05F1010AAB424FEAFD
:100DC000CA0608D9FB6808222B443146484601F080
:100DD00005F95546EFE7C6F3CF06E17ECDE9049667
:100DE00000230393A37E02931934282300930194D4
:100DF00046A3D3E90023404600F008FFFFF7FEFCBE
:100E00003AE74FF0000807F11403A7F81480102206
:100E1000009341460123204600F0A4FFA68A023E2B
:100E2000B6B2F31C9B109B000733DB08A9EBC3038E
:100E30009D460DF1180A1FFA88F34FEAC801B34224
:100E400001F110010AD20AEB0803009308220023E3
:100E5000204600F087FF08F10108ECE795F8D7007D
:100E600000F0CEFAD5F8D83004461BB995F8D70073
:100E700000F0D6FAD5F8D83033449C4204D295F825
:100E8000D700013000F0CCFA4FEA960B4FF0000883
:100E90001FFA88F18B45D5E9003209D90AEB8801A0
:100EA00003EB8800012200F001FB08F10108EFE7E5
:100EB000F31842F10002C5E90032D5F8D83095F8B0
:100EC000D70006EB0308C5F8D88000F099FA8045F2
:100ED00009D395F8D730D5F8D8000133001B85F831
:100EE000D730C5F8D800FF2E08D800232B7300F0A8
:100EF000A9FAFFF717FE08B1FFF70EFC2B68094AA5
:100F00009B0A013313810023AB6014E72641727200
:100F1000DF25D7B73D33002000ED00E00400FA05DF
:100F2000703300202C2300204033002030B54FF0D8
:100F30000054244B22689A4285B007D002F04CFC42
:100F40000446A8B90024204605B030BD1E4B627D82
:100F50001A701E48237D03731D49C9220E3000F00C
:100F60008BFA2046E022002100F098FA0124EAE7FB
:100F7000184A194D136C43F000731364AA6D174B94
:100F80009A42DFD12B6E013B7E2BDBD8144A07CA75
:100F900001AB83E807001846032100F02BFB6B6DC3
:100FA00083424FF00003CDD12A6D8A4201BFAB6569
:100FB000054B2A6E1A7003BF0A4BEA6D1A601C4675
:100FC000C1E700BF9AAD44C538230020703300202C
:100FD0001600002000380240006600405041A0B0DA
:100FE00058660040182300202DE9FF474B4C022390
:100FF0006371002302934A4BD3F800C0BCF57A7F9B
:1010000012D3484B484FB7FBFCF69C458CBF0A23D4
:101010001123581EB6FBF3F503FB1562C1B2002A7B
:101020003ED002280346F4D89DF80B303F49404893
:101030005A1E9DF80A30013B1B0443EA0253BDF8D7
:101040000820013A13434B6001F04EFD0023019349
:10105000384B394900933948394B4FF4805200F0EE
:101060003DFD384B197811B1344800F05DFD00F0BA
:10107000A7FA0546FFF79AFB4FF4C873B0FBF3F2EB
:1010800002FB130305F5167010FA83F02E4B18605F
:1010900002F098FB08B10F23238104B0BDE8F0876C
:1010A0006B1EB3F5806FBFD2C1EBC10E0EF103030F
:1010B0004FEAE309C3F3C703A1EB030809F1010AEF
:1010C0004FF47A705FFA88F609FB00005AFA88F844
:1010D000B0FBF8F0B0F5617F08D90EF1FF33C3F330
:1010E000C703C91ACEB2591E0F2914D8721E072A77
:1010F0008CBF00220122991901FB0551B7FBF1F7C2
:10110000BC4591D1002A8FD0ADF808508DF80A3037
:101110008DF80B6088E71346EDE700BF2C23002015
:10112000182300203F420F0040787D01102300204B
:1011300088340020990800083C2300204433002014
:10114000250C000838230020403300202DE9F04F03
:1011500091A7D7E900670FF24829D9E90089874D9F
:1011600093B0DFF844B2864C284600F0B3FD0DF191
:10117000300A079070B310220021504600F08EF91B
:10118000079B197B4FF0000261F303028DF83020BA
:10119000586899680EAA03C21B680D9A63F31C0273
:1011A0009DF830300D9243F020038DF8303000234D
:1011B00052461946584601F0A7FC079028B9284620
:1011C00000F08CFD079B2370CEE72378072B3CD8DB
:1011D0000133237018220021504600F05FF9DFF838
:1011E000C8B1684C002319465246584601F0B4FC79
:1011F000014670BB102208A800F050F9636983F41F
:101200008053636100F0DEF90B4612A9024611E932
:1012100003000DF1240C8CE803009DF83410C1F399
:10122000030089064CBF0E99BDF838C08DF82C001C
:1012300046BFC1F31C0C4CF00041CCF30A010891ED
:10124000284608A900F012FFCCE7284600F046FD2A
:10125000C0E7284600F070FC0446002848D1DFF8BB
:101260004CB100F0ADF9DBF80030984240D300F00B
:10127000A7F90790FFF79AFA079A8DF820400346DE
:101280004FF4C87002F51672B3FBF0F101FB103396
:1012900012FA83F3CBF80030DFF814B19BF800109A
:1012A00011B901238DF8203050460791FFF796FAC7
:1012B0000799C1F11004E4B2062C28BF0624224687
:1012C00051440DF1210000F0D7F808AB0393182327
:1012D000029301342C4B0193E4B201230093049454
:1012E0003B463246284600F029FC00238BF80030AC
:1012F00000F066F9254A264C1368C31AB3F57A7FC5
:1013000031D3106000F05EF902460B46284600F02B
:10131000EFFC284600F010FC28B3237BDFF894B0E4
:10132000002B14BF032302238BF8053000F048F98B
:101330004FF47A735146B0FBF3F0CBF800005846F7
:10134000FFF7EEFA182307300293124B0193C0F314
:10135000CF0040F25513CDE903A0009342464B461F
:10136000284600F0EBFB237B2BB1FFF747FA237BEA
:10137000002B7FF4F6AE13B0BDE8F08F44330020AD
:1013800055340020000402403C330020503400203B
:101390007033002054340020401DA12026812A0BE8
:1013A000F1C6A7C1D068080F883400204033002060
:1013B0003D3300202C23002070B502F055F8094E73
:1013C000094D3080002428683388834208D902F010
:1013D00045F82B6804440133B4F5803F2B60F2D309
:1013E00070BD00BF843400205834002002F000B9E2
:1013F00000F10060920000F5803002F083B8000038
:10140000054B1A68054B1B889B1A834202D910446E
:1014100002F024B8002070475834002084340020A3
:1014200038B5074D04462868204402F01FF828B953
:1014300028682044BDE8384002F030B838BD00BF0D
:1014400058340020064991F8243033B10023086A4B
:1014500081F824300822FFF7CBBF0120704700BF7E
:101460005C340020022802BF024B4FF080529A6188
:10147000704700BF0004024010B50023934203D020
:10148000CC5CC4540133F9E710BD000003460246AA
:10149000D01A12F9011B0029FAD170470244034601
:1014A000934202D003F8011BFAE770472DE9F84395
:1014B0001F4D144695F824200746884652BBDFF896
:1014C00070909CB395F824302BB92022FF21484618
:1014D0002F62FFF7E3FF95F82400C0F10802A24253
:1014E00028BF2246D6B24146920005EB8000FFF7A6
:1014F000C3FF95F82430A41B1E44F6B2082E1744EF
:101500009044E4B285F82460DBD1FFF79BFF00280C
:10151000D7D108E02B6A03EB82038342CFD0FFF7D9
:1015200091FF0028CBD10020BDE8F8830120FBE724
:101530005C3400200FB4002004B0704700B59BB0AD
:10154000EFF3098168226846FFF796FFEFF3058302
:10155000044B9A6BDA6A9A6A9A6A9A6A9A6A9A6ADF
:101560009B6AFEE700ED00E000B59BB0EFF3098158
:1015700068226846FFF780FFEFF30583044B9A6B00
:101580009A6A9A6A9A6A9A6A9A6A9B6AFEE700BF9E
:1015900000ED00E000B59BB0EFF3098168226846DA
:1015A000FFF76AFFEFF30583034B5A6B9A6A9A6A57
:1015B0009A6A9A6A9B6AFEE700ED00E0FEE7000087
:1015C00002F050B802F028B830B5094D0A449142F3
:1015D0000DD011F8013B5840082340F30004013BB3
:1015E0002C4013F0FF0384EA5000F6D1EFE730BD42
:1015F0002083B8EDF7B54FF0FF33DFF854C0DFF8C4
:1016000054E000EB81011A4688421CD050F8044B8C
:10161000019401AF042417F8015B82EA05620825F2
:10162000DB18164605F1FF355241002EBCBF83EA98
:101630000C0382EA0E0215F0FF05F1D1013C14F013
:10164000FF04E8D1E0E7D843D14303B0F0BD00BFC9
:101650009336EAA9EBE1F0422DE9F041C56915B9ED
:10166000C161BDE8F0814B6823F06047C3F38A464F
:101670004FEAD37EC3F3807816EA230638BF3E468E
:10168000AC462B465A68BEEBD27F22F060440AD0AB
:10169000002A18DAA40CB44217D19D420FD10D6074
:1016A000DEE71346EEE7A74207D102F08044C2F31B
:1016B000807242450BD054B1EFE708D2EDE7CCF889
:1016C00000100B60CDE7B44201D0B442E5D81A68EF
:1016D0009C46002AE5D11960C3E700002DE9F047D8
:1016E000089D01F007044FEAD508224405F00705DC
:1016F00000EBD1004FF47F49944201D1BDE8F0875F
:1017000004F0070705F0070A57453E4638BF56461E
:10171000C6F10806111B8E4228BF0E46E10808EBF1
:10172000D50E415C13F80EC0B94029FA06F721FA2C
:101730000AF1FFB28CEA010147FA0AF739408CEA54
:10174000010C03F80EC034443544D5E780EA01208B
:10175000082341F2210201B24000002980B203F1C6
:10176000FF33B8BF504013F0FF03F4D170470000BF
:1017700038B50C468D18A54200D138BD14F8011BB0
:10178000FFF7E4FFF7E7000002684AB1136803605F
:10179000C388018901339BB29942C38038BF03815A
:1017A0001046704770B588B0202204460D46684642
:1017B0000021FFF773FE20460495FFF7E5FF024680
:1017C00058B16B46054608AE1C4603CCB4422860AF
:1017D0006960234605F10805F6D1104608B070BDD2
:1017E000082817D909280CD00A280CD00B280CD0AF
:1017F0000C280CD00D280CD00E2814BF402030200F
:1018000070470C2070471020704714207047182034
:101810007047202070470000082817D90C280CD9E1
:1018200010280CD914280CD918280CD920280CD928
:1018300030288CBF0F200E207047092070470A20E7
:1018400070470B2070470C2070470D207047000038
:1018500010B54B6823B9CA8A63F30902CA8210BD66
:10186000C4681A681C60C360438A013B43824A60B3
:10187000EFE700002DE9F84F1D46CB8A0F46C3F372
:1018800009010629814692460B4630D00020AAB2B3
:1018900007F119049EB2052E1FFA80F80FD8904563
:1018A00003F1010306D3FB8A0A4462F30903FB82B6
:1018B00001201AE01AF80060E6540130EAE790458A
:1018C000F1D2A1F1060B1C237C68BBFBF3F203FBF6
:1018D00012BB1FFA8BF6002C45D14846FFF754FF88
:1018E000044638B978606FF00200BDE8F88F4FF019
:1018F0000008E6E7002606607860ADB24FF0000B06
:10190000454510D90AEB0803221D13F8011B915518
:10191000B1B208F101081B291FFA88F82BD0454500
:1019200006F10106F1D8FB8AC3F30902154465F3F9
:101930000903BCE7013292B21C462368002BF9D19F
:10194000AB1F0B441C21B3FBF1F301339BB29A4252
:10195000D3D2BBF1000FD0D14846FFF715FF20B915
:10196000C4F800B0BFE70122E7E7C0F800B05E4668
:1019700020600446C1E74545D5D94846FFF704FF36
:1019800008B92060AFE7C0F800B000262060044628
:10199000B6E700002DE9F04F2DED028B83B0CDE9C5
:1019A0000013BDF83C5007469146002A00F0928093
:1019B0002DB10E9B002B00F08D80072D32D807F142
:1019C0000C00FFF7E1FE044638B96FF00204204630
:1019D00003B0BDEC028BBDE8F08F14220021FFF7AD
:1019E0005DFD0E992A4604F10800FFF745FD681CCD
:1019F000C0B2FFF711FFFFF7F3FE207499F8003033
:101A0000013814FA80F003F01F0363F03F03037200
:101A1000009B43F00041616038462146FFF71CFE01
:101A20000124D4E700F10C034FF0000808EE103A4F
:101A30004FF0800A4646444618EE100AFFF7A4FE0F
:101A400083460028C1D014220021FFF727FDC6BB22
:101A5000019BABF8083002200E9B00F10802991997
:101A60005BFA82F20130C0B2082801D0AE422AD31C
:101A7000FFF7D2FEFFF7B4FE99F80020009B411E4D
:101A800002F01F0242EA4812AE4208BF4FF0400A7D
:101A90005BFA81F14AEA020A43F0004281F808A0A9
:101AA0008BF81000CBF8042059463846FFF7D4FDD8
:101AB0000134AE4224B288F001084FF0000ABBD1D5
:101AC00085E70020C8E711F801CB02F801CB013609
:101AD000B6B2C7E76FF0010479E70000F8B5154624
:101AE0000E462822002104461F46FFF7D7FC069B1E
:101AF0006360B5F5001F079BA76034BF6A094FF606
:101B0000FF72236204F10C0097B200239A4205D8B9
:101B10000023036027826382A382F8BD066001333D
:101B200030462036F2E7000003781BB94BB2002B99
:101B3000C8BF017070470000007870472DE9F74F6B
:101B4000DDF83C90BDF830500D9E9DF83840BDF852
:101B50004070804692469B46B9F1000F01D1002F9C
:101B600051D11F2C4FD898F80000B0B9072F47D893
:101B700035F0030347D13A4649464FF6FF70FFF769
:101B8000F7FD20F001002D02400445EA0464400CFA
:101B900044EA40244FF6FF7321E040EA0520072F76
:101BA00040EA0464F6D900254FF6FF73C5F1200022
:101BB000A5F120022AFA05F10BFA00F001432BFAF5
:101BC00002F211431846C9B2FFF7C0FD0835402D97
:101BD0000346EBD13A464946FFF7CAFD0346CDE935
:101BE0000097324621464046FFF7D4FE3378013352
:101BF000DBB21F2B88BF0023337003B0BDE8F08F2A
:101C00006FF00300F9E76FF00100F6E72DE9F04F00
:101C100085B09246DDF848800F9D9DF840209DF8E4
:101C20004490BDF84C7006469B46B8F1000F01D1B8
:101C3000002F48D11F2A46D83378002B46D00C02FB
:101C400044EA02649DF8381044EAC93444EA014485
:101C50001C43072F44F0800432D900234FF6FF7253
:101C6000C3F1200CA3F120002AFA03F10BFA0CFCBB
:101C700041EA0C012BFA00F00143C9B2104603936C
:101C8000FFF764FD039B0833402B0246E8D13A4638
:101C90004146FFF76DFD0346CDE900872A46214600
:101CA0003046FFF777FEB9F1010F06D12B780133EB
:101CB000DBB21F2B88BF00232B7005B0BDE8F08F6F
:101CC0004FF6FF73E8E76FF00100F6E76FF00300EF
:101CD000F3E70000C06900B104307047C3691A68B7
:101CE000C261C2681A60C360438A013B4382704785
:101CF0002DE9F041D0F81880194E14461D46414692
:101D0000002709B9BDE8F081D1E90223A21A65EBE9
:101D10000303964277EB03031ED283698B420DD1F6
:101D2000FFF796FD83691B688361C3680B60438A74
:101D3000C1608169013B43828846E2E7FFF788FD85
:101D40000B68C8F80030C3680B60438AC160013B70
:101D50004382D8F80010D4E788460968D1E700BF6D
:101D600080841E002DE9F04F8BB00D46DDF85090B9
:101D700014469B468046002800F01981B9F1000FF7
:101D800000F01581531E3F2B00F21181012A03D16F
:101D9000BBF1000F40F00B810023CDE90833B8F808
:101DA0001430B5EBC30F4FEAC30703D300200BB0C9
:101DB000BDE8F08F2B199F42D8F80C303ABF7F1B3B
:101DC000FFB227461BB9D8F81030002B7AD02F2D40
:101DD0004ED8C5F13006B7424FF000032CBFF6B223
:101DE0003E4600932946D8F8080008AB3246FFF774
:101DF00075FCA7EB060A35445FFA8AFAB8F8143086
:101E000003F10053063BDB000493D8F80C30039336
:101E10003021039B13B1BAF1000F2CD1D8F8100078
:101E200040B1BAF1000F05D0009608AB5246691ACE
:101E3000FFF754FC38B2002FB8D066070AD00AABBF
:101E400003EBD401624211F8083C02F0070213418F
:101E500001F8083C082C3CD9102C40F2B580202C0D
:101E600040F2B780BBF1000F00F09C80082334E003
:101E7000BA460026C2E7049BE02B28BFE023069366
:101E80000B44AB42059314D95A1B03980096924514
:101E900034BF5246D2B2691A08AB04300792FFF73A
:101EA0001DFC079A1644AAEB020A1544F6B25FFA23
:101EB0008AFA049B069A05999B1A0493039B1B6854
:101EC0000393A6E70093D8F8080008AB3A462946E2
:101ED000AEE7BBF1000F13D00123B4EBC30F6CD0FE
:101EE000082C12D89DF82030621E23FA02F2D50782
:101EF00006D54FF0FF3202FA04F423438DF8203068
:101F00009DF8203089F8003051E7102C12D8BDF828
:101F10002030621E23FA02F2D10706D54FF0FF32BD
:101F200002FA04F42343ADF82030BDF82030A9F8BC
:101F300000303CE7202C0FD80899631E21FA03F3E8
:101F4000DA0705D54FF0FF3202FA04F40C43089487
:101F5000089BC9F800302AE7402C2BD0DDE9086542
:101F6000611EC4F12102A4F1210326FA01F105FA50
:101F700002F225FA03F311431943CB0712D50122CC
:101F8000A4F12003C4F1200102FA03F322FA01F1C3
:101F9000A240524243EA010363EB430332432B4323
:101FA000CDE90823DDE90823C9E90023FFE66FF046
:101FB0000100FCE66FF00800F9E6082CA0D9102C0F
:101FC000B3D9202CEED8C3E7BBF1000FADD002236C
:101FD00083E7BBF1000FBBD004237EE730B5012AB5
:101FE000144638BF0124402C85B028BF402400256A
:101FF000012ACDE9025518D81B788DF808306307FF
:102000000AD004AB03EBD405624215F8083C02F099
:102010000702934005F8083C009103462246002140
:1020200002A8FFF75BFB05B030BD082AE4D9102AEF
:1020300003D81B88ADF80830E1E7202A8DBFD3E92B
:1020400000231B680293CDE90223D8E710B5CB68C3
:102050001BB98B600B618B8210BDC4681A681C6051
:10206000C360438A013B4382CA60F0E72DE9F04F29
:10207000D1F8008093B018F0800FCDE90323C8F3A6
:10208000C01219BFC8F3C03BC8F306264FF0020BBD
:102090001646B8F1000F04460D4680F2D18118F0C3
:1020A000C043059340F0CC810B7B002B00F0C8812E
:1020B000BBF1020F03D00178B14240F0C48108F0B7
:1020C0007F0106916AB3C8F3074A2B44069A93F836
:1020D0000390760646EA0B4646EA82465FEAD91343
:1020E00046EA0A06079300F0908000220023CDE91B
:1020F0000A23069B009367685B4652460AA920465E
:10210000B84700287ED0A7699FB9314604F10C007A
:10211000FFF748FB0746E0B96FF0020013B0BDE8D7
:10212000F08FC8F30F2A18F07F0F08BF0AF0030AD8
:10213000CBE73B699E420DD03F68002FF9D1314675
:1021400004F10C00FFF72EFB07460028E4D0A3693A
:102150003B60A761DDE90A2300264FF6FF70C6F158
:10216000200E22FA06F103FA0EFEA6F1200C23FA45
:102170000CFC41EA0E0141EA0C01C9B20836099291
:102180000893FFF7E3FA402EDDE90832E7D1B88281
:10219000FB7D09F01F06C3F384039B1BD7E90221D3
:1021A00098B2002BBCBF00F120031BB252EA010021
:1021B000C8F304680FD00398821A049860EB0101F9
:1021C000A74890424FF000028A4104D3079A002AA0
:1021D0005BD0012B23DDFA7D4FEA890302F0030275
:1021E00003F07C031343FB7539462046FFF730FBB1
:1021F000079BA3B9FB7DC3F38402013262F386031C
:10220000FB7504E06FF00B0088E7A76917B96FF062
:102210000C0083E73B699E42BAD03F68F6E719F0AD
:10222000400F32D0039BBB60049BFB601422002153
:102230000DA8FFF733F9039B0A93049B0B932B1D07
:102240000C932B7BADF83EA0013BDBB2ADF83C30EC
:10225000069B8DF8433094F824308DF840B083F01D
:1022600001038DF844308DF84160A3688DF84280F9
:102270000AA920469847FB7DC3F38403013303F08A
:102280001F039B02FB82002048E7FB7DC9F340123D
:10229000B2EBD31F40F0DA80C3F38403B34240F0C3
:1022A000D88007992B7B4FEA9912002934D0D207A6
:1022B00041D4032B40F2D080039BBB60049BFB60A6
:1022C0002B7BAE1D033BDBB23246394604F10C00DA
:1022D000FFF7D0FA00280DDA20463946FFF7B8FAA2
:1022E000FB7DC3F38403013303F01F039B02FB82D6
:1022F000032013E7AB883B832A7B033AB88AD2B228
:102300003146FFF735FAFB7DB882DA43C2F3C012DB
:1023100062F3C713FB75B6E76AB92E1D013BDBB24A
:102320003246394604F10C00FFF7A4FA0028D3DB4B
:102330002A7B013AE2E7F98AC1F30901013B052949
:10234000DAB259D8281D002307F11A0C9A4208D98D
:1023500010F801EB0CF801E0013101330629DBB282
:10236000F4D103990A9104990B91934207F11A0150
:102370000C9138BF043379680D9134BF55FA83F35B
:1023800000230E93FB8AADF83EA0C3F309031A4461
:10239000069B8DF8433094F82430ADF83C2083F050
:1023A00001038DF8443000238DF840B08DF8416072
:1023B0008DF842807B602A7BB88A013A291DFFF79D
:1023C000D7F93B8BB882834203D1A3680AA9204680
:1023D000984720460AA9FFF739FEFB7DB88AC3F368
:1023E0008403013303F01F039B02FB823B8B984263
:1023F00014BF1120002091E67B68002BB1D006208D
:1024000001E01C306346D3F800C0BCF1000FF8D1E6
:10241000091A081D05F1040C00EB030905989DF845
:10242000143001EB000EBEF11B0F9AD89A4298D9D6
:102430001CF8013B09F8013B059B01330593EDE7CF
:102440006FF009006AE66FF00A0067E66FF00D00B2
:1024500064E66FF00E0061E66FF00F005EE600BF0D
:1024600080841E00404BF0B51C6C404E44F000745C
:102470001C641D6E45F000751D661B6E3C4B9B6A0F
:10248000D3F80052354045F00105C3F80052D3F8A7
:102490000042344044EA002040F00100C3F800024A
:1024A000002952D00020C3F81C020546C3F80402DC
:1024B000C3F80C02C3F8140203EBC00401301C285B
:1024C000C4F84052C4F84452F6D100254FF0010C34
:1024D00096781488F70748BFD3F804720CFA04F012
:1024E00044BF0743C3F80472B70742BFD3F80C7266
:1024F0000743C3F80C72760742BFD3F81462064351
:10250000C3F8146203EBC4045668C4F840629668CA
:10251000C4F84462D3F81C4201352043A942C3F8F1
:102520001C0202F10C02D3D1D3F8002222F00102E6
:10253000C3F800220C4B1A6C22F000721A641A6E57
:1025400022F000721A661B6EF0BD0122C3F8401221
:10255000C3F84412C3F80412C3F81412C3F80C22CF
:10256000C3F81C22E0E700BF003802400000FFFF74
:1025700088340020184A916A08B58B688B6013F084
:10258000010104D013F00C0F18BF4FF48031D805AF
:1025900006D513F4406F14BF41F4003141F002013D
:1025A000D80306D513F4402F14BF41F4802141F025
:1025B0000401D3690BB108489847202383F311889D
:1025C0000648002100F016FE002383F31188BDE8C1
:1025D000084001F03FB900BF88340020903400204B
:1025E00038B5124CA36ADD68AA0712D05A6922F0E6
:1025F00002025A61A36913B10121204698472023A2
:1026000083F311880A48002100F0F4FD002383F3CE
:102610001188EB0606D5A36A1021D960236A0BB195
:1026200002489847BDE8384001F014B988340020CA
:102630009834002038B5124CA36A1D69AA0712D03D
:102640005A6922F010025A61A36913B1022120468F
:102650009847202383F311880A48002100F0CAFD1F
:10266000002383F31188EB0606D5A36A10211961B4
:10267000236A0BB102489847BDE8384001F0EAB838
:10268000883400209834002038B50F4CA36A5D6868
:102690005D602A070AD5042222701A6822F002021D
:1026A0001A60636A13B10021204698476B0706D56C
:1026B000A36A9969236A13B1034809049847BDE8DE
:1026C000384001F0C7B800BF8834002010B50E4C68
:1026D000204600F0F7F90D4BA3620B21132000F008
:1026E000D9F90B21142000F0D5F90B21152000F0A9
:1026F000D1F90B21162000F0CDF90022BDE81040E1
:1027000011460E20FFF7AEBE883400200064004062
:10271000114B984210B5044609D1104B1A6C42F087
:1027200000721A641A6E42F000721A661B6EA36A77
:1027300001221A60A36A5A68D20707D562685168F5
:102740001268D9611A60064A5A6110BD0121082039
:1027500000F046FCEEE700BF88340020003802405D
:102760005B87010003291AD8DFE801F0020A0F1481
:10277000836A9B6813F0E05F14BF0120002070475C
:10278000836A9868C0F380607047836A9868C0F372
:10279000C0607047836A9868C0F30070704700207B
:1027A0007047000010B5032925D8DFE801F00225A5
:1027B000292D836A9968C1F30161183103EB011374
:1027C000107884064CBF54689488C0F300114FEA17
:1027D000410148BF41EAC40100F00F004CBF41F085
:1027E000040141EA4451586041F001019068D26807
:1027F0009860DA60196010BD836A03F5C073DFE783
:10280000836A03F5C873DBE7836A03F5D073D7E700
:1028100001290AD002290FD081B9836ADA689207A8
:1028200001D1186903E001207047836AD86810F06D
:10283000030018BF01207047836AF2E70020704749
:1028400010B539B9836AD96889071BD11B699C0700
:1028500004D110BD012915D00229FAD1816AD1F81D
:10286000C031D1F8C441D1F8C8011061D1F8CC0110
:102870005061202008610869800717D1486940F03D
:10288000100012E0816AD1F8B031D1F8B441D1F82A
:10289000B8011061D1F8BC0150612020C860C8683F
:1028A000800703D1486940F002004861C3F340004B
:1028B000C3F38001000140EA4111107920F030009B
:1028C0000143117189064BBF91681189DB085B0DCB
:1028D0004CBF63F31C0163F30A01137948BF916095
:1028E00064F3030313714FEA14234FEA144458BFEF
:1028F000118113705480ACE7026843681143016092
:1029000003B1184770470000024AD36843F0C00380
:10291000D360704700100140024AD36843F0C003FF
:10292000D3607047004400402DE9F041D0F85C626C
:10293000F7683368DA0504469DB20DD5202383F38A
:1029400011884FF400710430FFF7D6FF6FF48073E5
:102950003360002383F31188202383F3118804F16B
:10296000040815F02F033AD183F31188380615D5E2
:10297000290613D5202383F3118804F1380000F0D1
:1029800023FA00284DDA0821201DFFF7B5FF4FF686
:102990007F733B40F360002383F311887A0616D5DA
:1029A0006B0614D5202383F31188D4E913239A42AC
:1029B0000AD1236C43B127F040073F041021201DAA
:1029C0003F0CFFF799FFF760002383F31188D4F8D9
:1029D0006422D3683BB3BDE8F041106918472B0768
:1029E00013D015F0080F0CBF00218021E80748BF65
:1029F00041F02001AA0748BF41F040016B0748BFE2
:102A000041F480714046FFF777FFAD06736805D546
:102A100094F860122046194000F078FA3568ADB29B
:102A20009FE77060B7E7BDE8F081000008B5034894
:102A3000FFF77AFFBDE8084000F00CBFB434002077
:102A400008B50348FFF770FFBDE8084000F002BF7B
:102A50001C37002010B5094C094A2046002100F01F
:102A600033FA084BC4F85C32074C084A0021204670
:102A700000F02AFA064BC4F85C3210BDB4340020D2
:102A800009290008001001401C37002019290008FE
:102A90000044004000F1604303F561430901C9B2FD
:102AA00083F80013012200F01F039A4043099B00A2
:102AB00003F1604303F56143C3F880211A60704756
:102AC000FFF704BE012300F10802C0E902220370EF
:102AD00000F110020023C0E90422C0E90633C0E976
:102AE000083343607047000010B52023044683F389
:102AF0001188022303704160FFF70AFE042323704C
:102B0000002383F3118810BD2DE9F0411F460446D0
:102B10000D461646202383F3118800F10808237818
:102B2000052B0DD029462046FFF71CFE40B120465C
:102B300032462946FFF736FE002080F3118808E070
:102B40003946404600F03AFB0028E8D0002383F3E2
:102B50001188BDE8F08100002DE9F0411F460446D0
:102B60000D461646202383F3118800F110082378C0
:102B7000052B0DD029462046FFF74AFE40B12046DE
:102B800032462946FFF75CFE002080F3118808E0FA
:102B90003946404600F012FB0028E8D0002383F3BA
:102BA0001188BDE8F0810000F8B515468268066915
:102BB000AA420B46816938BF8568761AB542044639
:102BC0000BD218462A46FEF757FCA3692B44A36193
:102BD000A3685B1BA3602846F8BD0CD91846324693
:102BE000FEF74AFCAF1BE1683A463044FEF744FC6E
:102BF000E3683B44EBE718462A46FEF73DFCE368F2
:102C0000E5E7000083689342F7B51546044638BFF0
:102C10008568D0E90460361AB5420BD22A46FEF721
:102C20002BFC63692B446361A36828465B1BA3608C
:102C300003B0F0BD0DD932460191FEF71DFC01999C
:102C4000E068AF1B3A463144FEF716FCE3683B44AC
:102C5000E9E72A46FEF710FCE368E4E710B50A440A
:102C60000024C361029B8460C0E90000C0E9051133
:102C7000C1600261036210BD08B5D0E9053293421C
:102C800001D1826882B98268013282605A1C426135
:102C90001970D0E904329A4224BFC368436100210D
:102CA00000F09CFA002008BD4FF0FF30FBE7000069
:102CB00070B5202304460E4683F31188A568A5B19C
:102CC000A368A269013BA360531CA3611578226924
:102CD000934224BFE368A361E3690BB120469847A0
:102CE000002383F31188284607E03146204600F090
:102CF00065FA0028E2DA85F3118870BD2DE9F74FF7
:102D000004460E4617469846D0F81C904FF0200A0D
:102D10008AF311884FF0000B154665B12A463146FB
:102D20002046FFF741FF034660B94146204600F0C8
:102D300045FA0028F1D0002383F31188781B03B0F3
:102D4000BDE8F08FB9F1000F03D001902046C847CD
:102D5000019B8BF31188ED1A1E448AF31188DCE77E
:102D6000C0E90511C160C3611144009B8260C0E9E4
:102D70000000016103627047F8B504460D4616462F
:102D8000202383F31188A768A7B1A368013BA36040
:102D900063695A1C62611D70D4E904329A4224BFEF
:102DA000E3686361E3690BB120469847002080F334
:102DB000118807E03146204600F000FA0028E2DAE8
:102DC00087F31188F8BD0000D0E905239A4210B5B9
:102DD00001D182687AB98268013282605A1C8261AC
:102DE0001C7803699A4224BFC3688361002100F004
:102DF000F5F9204610BD4FF0FF30FBE72DE9F74F06
:102E000004460E4617469846D0F81C904FF0200A0C
:102E10008AF311884FF0000B154665B12A463146FA
:102E20002046FFF7EFFE034660B94146204600F01A
:102E3000C5F90028F1D0002383F31188781B03B073
:102E4000BDE8F08FB9F1000F03D001902046C847CC
:102E5000019B8BF31188ED1A1E448AF31188DCE77D
:102E6000026843681143016003B1184770470000CE
:102E70001430FFF743BF00004FF0FF331430FFF76B
:102E80003DBF00003830FFF7B9BF00004FF0FF33FF
:102E90003830FFF7B3BF00001430FFF709BF000060
:102EA0004FF0FF311430FFF703BF00003830FFF759
:102EB00063BF00004FF0FF323830FFF75DBF000006
:102EC00000207047FFF7C6BD37B515460E4A0260B1
:102ED00000224260C0E902220122044602740B462D
:102EE000009000F15C014FF480721430FFF7B6FEE1
:102EF00000942B464FF4807204F5AE7104F1380053
:102F0000FFF72EFF03B030BD743F000838B5C3692A
:102F100004460D461BB904210844FFF7A1FF2946CA
:102F200004F11400FFF7A8FE002806DA201D4FF474
:102F30008061BDE83840FFF793BF38BD024B0022E7
:102F4000C3E900339A60704784390020002303747A
:102F50008268054B1B6899689142FBD25A680360EE
:102F600042601060586070478439002008B5202303
:102F700083F31188037C032B05D0042B0DD02BB9D0
:102F800083F3118808BD436900221A604FF0FF33B4
:102F90004361FFF7DBFF0023F2E7D0E90032136063
:102FA0005A60F3E7002303748268054B1B68996835
:102FB0009142FBD85A6803604260106058607047C5
:102FC00084390020054B19690874186802681A6072
:102FD0005360186101230374FDF71ABB8439002084
:102FE00030B54B1C0B4D87B0044610D02B690A4AF4
:102FF00001A800F01BF92046FFF7E4FF049B13B182
:1030000001A800F04FF92B69586907B030BDFFF7F0
:10301000D9FFF8E7843900206D2F000838B50C4D32
:1030200041612B6981689A689142044603D8BDE8E2
:103030003840FFF78BBF1846FFF7B4FF01232C6120
:10304000014623742046BDE83840FDF7E1BA00BFD1
:1030500084390020044B1A681B6990689B68984269
:1030600094BF0020012070478439002010B5084C1F
:10307000236820691A6822605460012223611A744F
:10308000FFF790FF01462069BDE81040FDF7C0BA88
:103090008439002008B5FFF7DDFF18B1BDE808400E
:1030A000FFF7E4BF08BD0000FFF7E0BFFEE7000048
:1030B00010B50C4CFFF742FF00F0AAF80A49802235
:1030C000204600F031F8012344F8180C037400F096
:1030D0009DFB002383F3118862B60448BDE81040CD
:1030E00000F042B8AC3900209C3F0008AC3F00081B
:1030F00000F012B9EFF3118020B9EFF3058320221D
:1031000082F311887047000010B530B9EFF30584E1
:10311000C4F3080414B180F3118810BDFFF7BAFF9F
:1031200084F31188F9E7000082600222028270476E
:103130008368A3F17C0243F80C2C026943F83C2C11
:10314000426943F8382C074A43F81C2CC26843F8FC
:10315000102C022203F8082C002203F8072CA3F1FC
:10316000180070472906000810B5202383F3118842
:10317000FFF7DEFF00210446FFF750FF002383F333
:103180001188204610BD0000024B1B6958610F20BA
:10319000FFF718BF84390020202383F31188FFF73D
:1031A000F3BF000008B50146202383F311880820EF
:1031B000FFF716FF002383F3118808BD49B1064BC2
:1031C00042681B6918605A60136043600420FFF76F
:1031D00007BF4FF0FF3070478439002003689842E2
:1031E00006D01A680260506059611846FFF7AEBEFB
:1031F0007047000038B504460D462068844200D16F
:1032000038BD036823605C604561FFF79FFEF4E70B
:10321000054B03F11402C3E905224FF0FF310022F0
:10322000C3E90712704700BF8439002070B51C4EF7
:10323000C0E9032305460C4600F06EFB334653F805
:10324000142F9A420DD13062C5E901242A600A2C5C
:103250002CBF00190A30C6E90555BDE8704000F0E2
:1032600049BB316A431AE31838BF1C469368A3422E
:1032700002D9081900F04CFB73699A6894420CD883
:103280005A68AC602B606A6015609A685D60121BBA
:103290009A604FF0FF33F36170BD1B68A41AECE72E
:1032A0008439002038B51B4C636998420DD0D0E9B1
:1032B000003213605A6000228168C2609A680A4432
:1032C0009A604FF0FF33E36138BD2246036842F84D
:1032D000143F002193425A60C16003D1BDE83840D9
:1032E00000F010BB9A688168256A0A449A6000F071
:1032F00013FB63699A68411B8A42E5D9AB181D1A12
:10330000092D206A98BF01F10A02BDE83840104437
:1033100000F0FEBA843900202DE9F041184C002756
:1033200004F11406656900F0F7FA236AAA68C11A65
:103330008A4215D813442362D5E9003213605A60DB
:103340006369D5F80C80EF60B34201D100F0DAFA7E
:1033500087F311882869C047202383F31188E1E7A8
:103360006169B14209D013441B1ABDE8F0410A2B30
:103370002CBFC0180A3000F0CBBABDE8F08100BF06
:103380008439002000207047FEE7000070470000ED
:103390004FF0FF3070470000BFF34F8F024AD368F1
:1033A000DB03FCD4704700BF003C024008B5094B6A
:1033B0001B7873B9FFF7F0FF074B1A69002ABFBFEC
:1033C000064A5A6002F188325A601A6822F4806212
:1033D0001A6008BD403B0020003C024023016745C5
:1033E00008B50B4B1B7893B9FFF7D6FF094B1A6949
:1033F00042F000421A611A6842F480521A601A6858
:1034000022F480521A601A6842F480621A6008BD81
:10341000403B0020003C02400728F0B516D80C4C79
:103420000C4923787BB90C4D0E4608234FF00062FF
:1034300055F8047B46F8042B013B13F0FF033A4494
:10344000F6D10123237051F82000F0BD0020FCE7E5
:10345000643B0020443B0020C43F0008014B53F86C
:1034600020007047C43F000808207047072810B5A7
:10347000044601D9002010BDFFF7CEFF064B53F8DC
:1034800024301844C21A0BB90120F4E71268013243
:10349000F0D1043BF6E700BFC43F0008072838B569
:1034A000044628D8FFF726FEFFF776FFFFF77EFFDA
:1034B000124AF323D360E300DBB243F4007343F01A
:1034C00002031361136943F48033136105462046F8
:1034D000FFF762FFFFF7A0FF094B53F8241000F03D
:1034E0003BF92846FFF77CFFFFF70EFE2046BDE8BC
:1034F0003840FFF7BBBF002038BD00BF003C024092
:10350000C43F000812F001032DE9F04105460E46C4
:1035100014464BD18118334A914261D8324B1B6813
:1035200013F001035CD0314FFFF7E4FDFFF73EFFDE
:10353000F323FB60FFF730FF314640F20128032CF4
:1035400018D824F00104294E0C446D1A40F20118D9
:10355000A142336905EB01072AD123F0010333614E
:10356000FFF73EFFFFF7D0FD0120BDE8F081043CEE
:103570000435E4E7AB07E4D13B6923F440733B61D6
:103580003B6943EA08033B6151F8046B2E60BFF3CB
:103590004F8FFFF701FF2B689E42E8D03B6923F075
:1035A00001033B61FFF71CFFFFF7AEFD0020DCE7E6
:1035B00023F440733361336943EA080333610B88B2
:1035C0003B80BFF34F8FFFF7E7FE3F8831F8023BA8
:1035D000BFB2BB42BCD0336923F001033361E1E7E2
:1035E0001846C2E70000080800380240003C0240CC
:1035F000084908B50B7828B11BB9FFF7D7FE01239E
:103600000B7008BD002BFCD0BDE808400870FFF728
:10361000E7BE00BF403B002070B582B0FFF76AFDF7
:103620000E4E054600F078F93268904237BF0C4ADA
:103630000B49516814682EBFD1E900410131516036
:103640000419034641F10001284601913360FFF758
:103650005BFD0199204602B070BD00BF683B0020B1
:10366000703B002070B582B0FFF744FD104E054658
:1036700000F052F93268904237BF0E4A0D49516846
:1036800014682EBFD1E9004101315160041941F1A4
:1036900000010346284601913360FFF735FD01998B
:1036A0004FF47A7200232046FCF79AFD02B070BDF9
:1036B000683B0020703B002010B50244064BD2B29C
:1036C000904200D110BD441C00B253F8200041F8D4
:1036D000040BE0B2F4E700BF502800400F4B30B5B8
:1036E0001C6F240407D41C6F44F400741C671C6F07
:1036F00044F400441C670A4C236843F4807323603D
:103700000244084BD2B2904200D130BD441C00B2FA
:1037100051F8045B43F82050E0B2F4E7003802406F
:10372000007000405028004007B5012201A9002088
:10373000FFF7C2FF019803B05DF804FB13B5044620
:10374000FFF7F2FFA04205D0012201A90020019459
:10375000FFF7C4FF02B010BD70470000074B45F2F1
:1037600055521A6002225A6040F6FF729A604CF677
:10377000CC421A60024B01221A70704700300040A0
:103780007C3B0020034B1B781BB1034B4AF6AA225B
:103790001A6070477C3B002000300040034B1A68E1
:1037A0001AB9034AD2F874281A607047783B00208F
:1037B00000300240024B4FF08072C3F8742870470B
:1037C0000030024008B5FFF7E9FF024B1868C0F36C
:1037D000407008BD783B002008B5FFF7DFFF024BC3
:1037E0001868C0F3007008BD783B0020EFF3098330
:1037F00005494A6B22F001024A63683383F3098862
:10380000002383F31188704700EF00E0202080F34D
:10381000118862B60C4B0D4AD96821F4E0610904A5
:10382000090C0A43DA60D3F8FC20094942F080729F
:10383000C3F8FC200A6842F001020A601022DA771D
:1038400083F82200704700BF00ED00E00003FA0596
:10385000001000E010B5202383F311880E4B5B6845
:1038600013F4006314D0F1EE103AEFF30984683CCE
:103870004FF08073E361094BDB6B236684F30988A7
:10388000FFF7E8FB10B1064BA36110BD054BFBE74A
:1038900083F31188F9E700BF00ED00E000EF00E0DE
:1038A0003B0600083E06000870470000FEE70000E7
:1038B0000A4B0B480B4A90420BD30B4BDA1C121AE3
:1038C000C11E22F003028B4238BF00220021FDF707
:1038D000E5BD53F8041B40F8041BECE7F440000876
:1038E000003C0020003C0020003C0020704700000D
:1038F00000F080B84FF08043002258631A61022222
:10390000DA6070474FF080430022DA6070470000B1
:103910004FF08043586370474FF08043586A7047B8
:103920004B6843608B688360CB68C3600B694361FD
:103930004B6903628B6943620B6803607047000048
:1039400008B5234B23481A6942F0FF021A611A692D
:1039500022F0FF021A611A691A6B42F0FF021A6321
:103960001A6D42F0FF021A651B4A1B6D1146FFF7E4
:10397000D7FF02F11C0100F58060FFF7D1FF02F1D3
:10398000380100F58060FFF7CBFF02F1540100F52C
:103990008060FFF7C5FF02F1700100F58060FFF75E
:1039A000BFFF02F18C0100F58060FFF7B9FF02F163
:1039B000A80100F58060FFF7B3FF02F1C40100F534
:1039C0008060FFF7ADFFBDE8084000F097B800BF8A
:1039D0000038024000000240E43F000808B500F053
:1039E00017FAFFF765FBBDE80840FFF7D7BE0000F8
:1039F00070470000104B1A6C42F001021A641A6EF4
:103A000042F001021A660D4A1B6E936843F00103EF
:103A100093604FF0804331229A624FF0FF32DA62B6
:103A200000229A615A63DA605A6001225A610821C1
:103A30001A601C20FFF72EB800380240002004E076
:103A40004FF0804208B51169D3680B40D9B2C94321
:103A50009B07116107D5202383F31188FFF748FBEB
:103A6000002383F3118808BD08B5FFF7E9FFBDE81F
:103A70000840FFF7EFBE00001E4B1A6962F0FF021C
:103A80001A611A69D2B21A614FF0FF301A695A6985
:103A9000586100215A6959615A691A6A62F0805264
:103AA0001A621A6A02F080521A621A6A5A6A5862D4
:103AB0005A6A59625A6A1A6C42F080521A641A6E33
:103AC00042F080521A661A6E0B4A106840F48070F9
:103AD0001060186F00F44070B0F5007F1EBF4FF407
:103AE000803018671967536823F40073536000F03F
:103AF0006FB900BF00380240007000403B4B3C4AA9
:103B00001A643C4A4FF4404111601A6842F00102C5
:103B10001A601A689007FCD59A6822F003029A602E
:103B2000324B9A6812F00C02FBD1196801F0F901CE
:103B300019609A601A6842F480321A601A68910318
:103B4000FCD55A6F42F001025A67284B5A6F920710
:103B5000FCD5294A5A601A6842F080721A60254AD8
:103B600053685804FCD5214B1A689101FCD5234AAF
:103B7000C3F884201A6842F080621A601A68120141
:103B8000FCD51F4A9A600322C3F88C204FF00062D4
:103B9000C3F894201B4B1A681B4B9A421B4B21D134
:103BA0001B4A11681B4A91421CD140F203121A6051
:103BB000164A136803F00F03032BFAD10B4B9A68D4
:103BC00042F002029A609A6802F00C02082AFAD1C6
:103BD0005A6C42F480425A645A6E42F480425A66E9
:103BE0005B6E704740F20372E1E700BF00380240AD
:103BF000000400100070004008194002103000243A
:103C000000948838002004E011640020003C024049
:103C100000ED00E041C20F41084A08B55169136840
:103C20000B4003F00103536123B1054A13680BB144
:103C300050689847BDE80840FFF70CBE003C0140C3
:103C4000803B0020084A08B5516913680B4003F017
:103C50000203536123B1054A93680BB1D0689847BA
:103C6000BDE80840FFF7F6BD003C0140803B002066
:103C7000084A08B5516913680B4003F00403536107
:103C800023B1054A13690BB150699847BDE8084054
:103C9000FFF7E0BD003C0140803B0020084A08B52A
:103CA000516913680B4003F00803536123B1054ABF
:103CB00093690BB1D0699847BDE80840FFF7CABDCA
:103CC000003C0140803B0020084A08B55169136858
:103CD0000B4003F01003536123B1054A136A0BB183
:103CE000506A9847BDE80840FFF7B4BD003C01406A
:103CF000803B0020174B10B55A691C68144004F42F
:103D000078725A61A30604D5134A936A0BB1D06A3C
:103D10009847600604D5104A136B0BB1506B984757
:103D2000210604D50C4A936B0BB1D06B9847E20582
:103D300004D5094A136C0BB1506C9847A30504D500
:103D4000054A936C0BB1D06C9847BDE81040FFF763
:103D500081BD00BF003C0140803B00201A4B10B5E4
:103D60005A691C68144004F47C425A61620504D507
:103D7000164A136D0BB1506D9847230504D5134AAD
:103D8000936D0BB1D06D9847E00404D50F4A136EC4
:103D90000BB1506E9847A10404D50C4A936E0BB139
:103DA000D06E9847620404D5084A136F0BB1506F68
:103DB0009847230404D5054A936F0BB1D06F9847F9
:103DC000BDE81040FFF746BD003C0140803B0020AD
:103DD000062108B50846FEF75DFE06210720FEF71E
:103DE00059FE06210820FEF755FE06210920FEF7A0
:103DF00051FE06210A20FEF74DFE06211720FEF790
:103E000049FEBDE8084006212820FEF743BE000019
:103E100008B5FFF731FE00F00BF8FEF751FEFFF793
:103E200051F8FFF7E5FDBDE80840FFF761BD000070
:103E30000023054A19460133102BC2E9001102F193
:103E40000802F8D1704700BF803B002010B501394F
:103E50000244904201D1002005E0037811F8014F9F
:103E6000A34201D0181B10BD0130F2E72DE9F0414B
:103E7000A3B1C91A17780144044603F1FF3C8C42F0
:103E8000204601D9002009E00578BD4204F1010473
:103E9000F5D10CEB0405D618A54201D1BDE8F0819F
:103EA00015F8018D16F801EDF045F5D0E7E70000B3
:103EB000034611F8012B03F8012B002AF9D17047B2
:103EC0006F72672E6172647570696C6F742E6375A2
:103ED00061765F67707300004E6F206170702073B1
:103EE00069670A00426164206677206C656E6774BA
:103EF000682025750A0042616420626F6172645F08
:103F000069642025752073686F756C642062652074
:103F100025750A00426164206677206465736372C8
:103F20006970746F72206C656E6774682025750AFD
:103F30000042616420617070204352432030782534
:103F40003038783A30782530387820307825303855
:103F5000783A3078253038780A00476F6F642066E9
:103F600069726D776172650A0040A2E4F16468913C
:103F700006000000000000008D2E0008792E0008C9
:103F8000B52E0008A12E0008AD2E0008992E0008BD
:103F9000852E0008712E0008C12E00086D61696E23
:103FA0000000000069646C6500000000A43F000888
:103FB000C8390020403B002001000000AD3000085F
:103FC0000000000000400000004000000040000031
:103FD000004000000000010000000200000002009C
:103FE00000000200A001102800000000AAAAAAAA4E
:103FF00050011024FFFF00000077000000000000C7
:1040000000A40A0100000000AAA6AAAA805000008D
:10401000DFEF0000000000778800000000000000D3
:1040200000000000AAAAAAAA00000000FFFF0000EA
:104030000000000000000000000000000000000080
:10404000AAAAAAAA00000000FFFF000000000000CA
:10405000000000000000000000000000AAAAAAAAB8
:1040600000000000FFFF0000000000000000000052
:104070000000000000000000AAAAAAAA0000000098
:10408000FFFF000000000000000000000000000032
:1040900000000000AAAAAAAA00000000FFFF00007A
:1040A0000000000000000000000000000000000010
:1040B0000A000000000000000300000000000000F3
:1040C000000000004CC1FF7F010000000000000064
:1040D000E9030000000000000000070000000000ED
:1040E000640000000000000040420F00FE2A0100B2
:0440F000D2040000F6
:00000001FF
