:020000040800F2
:1000000000060020B5050008ED3100086D3100083C
:10001000C53100086D31000899310008B7050008A6
:10002000B7050008B7050008B705000841400008FB
:10003000B7050008B7050008B7050008B7050008B0
:10004000B7050008B7050008B7050008B7050008A0
:10005000B7050008B7050008C16E0008ED6E00087E
:10006000196F0008456F0008716F0008B705000898
:10007000B7050008B7050008B7050008B705000870
:10008000B7050008B7050008B7050008B52D00083A
:10009000DD2D0008C92D0008F12D00089D6F000816
:1000A000B7050008B7050008B7050008B705000840
:1000B000B7050008B7050008B7050008B705000830
:1000C000B7050008B7050008B7050008B705000820
:1000D000B7050008B7050008B7050008B705000810
:1000E00001700008B7050008B7050008B70500084B
:1000F000B7050008B7050008B7050008B7050008F0
:10010000B7050008B705000889700008B7050008A2
:10011000B7050008B7050008B7050008B7050008CF
:10012000B7050008B7050008B7050008B7050008BF
:10013000B7050008B7050008B7050008B7050008AF
:10014000B7050008B7050008B7050008B70500089F
:10015000B7050008B7050008B7050008B70500088F
:10016000B7050008B7050008B7050008B70500087F
:10017000B7050008E9650008B7050008B7050008DD
:10018000B7050008B705000875700008B705000836
:10019000B7050008B7050008B7050008B70500084F
:1001A000B7050008B7050008B7050008B70500083F
:1001B000B7050008B7050008B7050008B70500082F
:1001C000B7050008B7050008B7050008B70500081F
:1001D000B7050008D5650008B7050008B705000891
:1001E000B7050008B7050008B7050008B7050008FF
:1001F000B7050008B7050008B7050008B7050008EF
:10020000B7050008B7050008B7050008B7050008DE
:10021000B7050008B7050008B7050008B7050008CE
:10022000B7050008B7050008B7050008B7050008BE
:10023000B7050008B7050008B7050008B7050008AE
:10024000B7050008B7050008B7050008B70500089E
:10025000B7050008B7050008B7050008B70500088E
:10026000B7050008B7050008B7050008B70500087E
:10027000B7050008B7050008B7050008B70500086E
:10028000B7050008B7050008B7050008B70500085E
:10029000B7050008B7050008B7050008B70500084E
:1002A000391A0008000000000000000000000000F3
:1002B00053B94AB9002908BF00281CBF4FF0FF31CD
:1002C0004FF0FF3000F074B9ADF1080C6DE904CEC9
:1002D00000F006F8DDF804E0DDE9022304B0704721
:1002E0002DE9F047089D04468E46002B4DD18A42E9
:1002F000944669D9B2FA82F252B101FA02F3C2F11C
:10030000200120FA01F10CFA02FC41EA030E9440AC
:100310004FEA1C48210CBEFBF8F61FFA8CF708FBCD
:1003200016E341EA034306FB07F199420AD91CEBA5
:10033000030306F1FF3080F01F81994240F21C81D7
:10034000023E63445B1AA4B2B3FBF8F008FB10331F
:1003500044EA034400FB07F7A7420AD91CEB040454
:1003600000F1FF3380F00A81A74240F20781644424
:10037000023840EA0640E41B00261DB1D4400023A9
:10038000C5E900433146BDE8F0878B4209D9002D0D
:1003900000F0EF800026C5E9000130463146BDE897
:1003A000F087B3FA83F6002E4AD18B4202D3824201
:1003B00000F2F980841A61EB030301209E46002DB0
:1003C000E0D0C5E9004EDDE702B9FFDEB2FA82F205
:1003D000002A40F09280A1EB0C014FEA1C471FFA63
:1003E0008CFE0126200CB1FBF7F307FB131140EA4A
:1003F00001410EFB03F0884208D91CEB010103F117
:10040000FF3802D2884200F2CB804346091AA4B2D8
:10041000B1FBF7F007FB101144EA01440EFB00FEAC
:10042000A64508D91CEB040400F1FF3102D2A64511
:1004300000F2BB800846A4EB0E0440EA03409CE7B0
:10044000C6F12007B34022FA07FC4CEA030C20FA5D
:1004500007F401FA06F31C43F9404FEA1C4900FA7D
:1004600006F3B1FBF9F8200C1FFA8CFE09FB1811FA
:1004700040EA014108FB0EF0884202FA06F20BD96D
:100480001CEB010108F1FF3A80F08880884240F2BD
:100490008580A8F102086144091AA4B2B1FBF9F001
:1004A00009FB101144EA014100FB0EFE8E4508D9FC
:1004B0001CEB010100F1FF346CD28E456AD9023881
:1004C000614440EA0840A0FB0294A1EB0E01A14266
:1004D000C846A64656D353D05DB1B3EB080261EBD4
:1004E0000E0101FA07F722FA06F3F1401F43C5E9AE
:1004F000007100263146BDE8F087C2F12003D840E4
:100500000CFA02FC21FA03F3914001434FEA1C4725
:100510001FFA8CFEB3FBF7F007FB10360B0C43EA17
:10052000064300FB0EF69E4204FA02F408D91CEBC7
:10053000030300F1FF382FD29E422DD902386344C5
:100540009B1B89B2B3FBF7F607FB163341EA034165
:1005500006FB0EF38B4208D91CEB010106F1FF38B4
:1005600016D28B4214D9023E6144C91A46EA0046AB
:1005700038E72E46284605E70646E3E61846F8E63D
:100580004B45A9D2B9EB020864EB0C0E0138A3E786
:100590004646EAE7204694E74046D1E7D0467BE767
:1005A000023B614432E7304609E76444023842E7DF
:1005B000704700BF02E000F000F8FEE772B63A486C
:1005C00080F30888394880F3098839484EF6085185
:1005D000CEF20001086040F20000CCF200004EF6BE
:1005E0003471CEF200010860BFF34F8FBFF36F8FFD
:1005F00040F20000C0F2F0004EF68851CEF2000149
:100600000860BFF34F8FBFF36F8F4FF00000E1EE34
:10061000100A4EF63C71CEF200010860062080F30D
:100620001488BFF36F8F05F0E7FA05F089FA06F03A
:100630000DFA4FF055301F491B4A91423CBF41F81B
:10064000040BFAE71C49194A91423CBF41F8040BDC
:10065000FAE71A491A4A1B4B9A423EBF51F8040B5B
:1006600042F8040BF8E700201749184A91423CBFB2
:1006700041F8040BFAE705F0A1FA06F05FFA144C12
:10068000144DAC4203DA54F8041B8847F9E700F034
:1006900041F8114C114DAC4203DA54F8041B884761
:1006A000F9E705F089BA00000006002000220020CA
:1006B00000000008000000200006002088770008E5
:1006C00000220020C8220020C82200202082002012
:1006D000A0020008A4020008A4020008A402000866
:1006E0002DE9F04F2DED108AC1F80CD0D0F80CD0C8
:1006F000BDEC108ABDE8F08F002383F311882846F3
:10070000A047002004F066FDFEE704F0D5FC00DF02
:10071000FEE70000F8B501F0CFFA30B1264B002219
:100720000E211A725A729972DA7205F08DF9074623
:1007300005F0FCF90546A0BB204B9F4231D00133A8
:100740009F4231D027F0FF021D4B9A422FD12E46F7
:1007500042F21074F8B200F09FFD00F0A7FF08B15C
:100760000024264600F09EFD08B90646044635B131
:10077000144B9F4203D0002405F0D0F926460020F8
:1007800005F06CF90EB100F065F801F019FB00F00E
:10079000B1FF01F0D7F9204600F012F900F05AF845
:1007A000F9E72E460024D8E704460126D5E7064699
:1007B00041F28834D1E700BF00220020010007B0D9
:1007C000000008B0263A09B008B501F087F9A0F199
:1007D00020035842584108BD07B541F212030221D7
:1007E00001A8ADF8043001F097F903B05DF804FBFF
:1007F000202310B583F311881248C3680BB104F0AD
:100800006FFD0023104A4FF47A710E4804F02CFD5E
:10081000002383F311880D4C236813B12368013B37
:100820002360636813B16368013B6360084B1B7806
:1008300033B9636823B9022001F044FA32236360BC
:1008400010BD00BFC8220020F1070008E4230020EB
:10085000DC220020F8B5534B534A1C46196801317D
:1008600000F09F8004339342F8D162684F4B9A4264
:1008700040F297804E4B9B6803F1006303F5003311
:100880009A4280F08E8005F01DF905F02FF90020C6
:1008900001F072F90220474B187001F011FA464B33
:1008A0000021D3F8E820C3F8E810D3F81021C3F8EA
:1008B0001011D3F81021D3F8EC20C3F8EC10D3F8C2
:1008C0001421C3F81411D3F81421D3F8F020C3F87D
:1008D000F010D3F81821C3F81811D3F81821D3F861
:1008E000802042F00062C3F88020D3F8802022F0FC
:1008F0000062C3F88020D3F88020D3F8802042F033
:100900000072C3F88020D3F8802022F00072C3F870
:100910008020D3F8803072B64FF0E023C3F8084D42
:10092000D4E90004BFF34F8FBFF36F8F234AC2F89F
:100930008410BFF34F8F536923F480335361BFF3A7
:100940004F8FD2F8803043F6E076C3F3C905C3F386
:100950004E335B0103EA060C29464CEA81770139E4
:10096000C2F87472F9D2203B13F1200FF2D1BFF319
:100970004F8FBFF36F8FBFF34F8FBFF36F8F5369ED
:1009800023F4003353610023C2F85032BFF34F8F7A
:10099000BFF36F8F202383F31188854680F3088887
:1009A0002047F8BD0000020820000208FFFF0108F0
:1009B00000220020DC2200200044025800ED00E06C
:1009C0002DE9F04F93B0AC4B2022FF2100900AA8F4
:1009D0009D6801F09FF9A94A1378A3B90121A8489D
:1009E0001170C360202383F31188C3680BB104F036
:1009F00077FC0023A34A4FF47A71A14804F034FC39
:100A0000002383F31188009B9F4A03B113600023E6
:100A10009E49009C98469B461E469A460B70536022
:100A2000012001F04DF924B1974B1B68002B00F019
:100A30001C82002001F052F80390039B002B01DA86
:100A400000F0A8FE039B002BEDDB012001F036F93E
:100A5000039B213B162BE3D801A252F823F000BFE1
:100A6000BD0A0008E50A0008790B0008210A000801
:100A7000210A0008210A00080D0C0008DF0D0008FB
:100A8000F90C00085B0D0008830D0008A90D000893
:100A9000210A0008BB0D0008210A00082D0E0008DD
:100AA0005D0B0008210A0008710E0008C90A000841
:100AB0005D0B0008210A00085B0D00080220FFF70B
:100AC00083FE002840F0FB81009B022105A8B8F1BD
:100AD000000F08BF1C4641F21233ADF8143001F08C
:100AE0001BF89DE74FF47A7000F0F8FF071EEBDB70
:100AF0000220FFF769FE0028E6D0013F052F00F233
:100B0000E081DFE807F0030A0D1013360523042106
:100B100005A8059301F000F817E004215648F9E70D
:100B200004215B48F6E704215A48F3E74FF01C091B
:100B3000484609F1040901F021F80421059005A8AF
:100B400000F0EAFFB9F12C0FF2D101204FF0000ABA
:100B500000FA07F747EA0B0B5FFA8BFB01F026F967
:100B600026B10BF00B030B2B08BF0024FFF734FE5C
:100B700056E704214848CDE7002EA5D00BF00B0323
:100B80000B2BA1D10220FFF71FFE074600289BD0A8
:100B900001203E4E00F0F0FF4FF0000802203070C0
:100BA00001F08EF85FFA88F9484600F0F5FF044638
:100BB00090B1484608F1010800F0FEFF0028F1D18D
:100BC000B846044641F21213022105A83E46ADF88C
:100BD000143000F0A1FF23E70123254602203370E3
:100BE00001F06CF8244B9B68AB4207D9284600F013
:100BF000C5FF013040F068810435F3E70025234B41
:100C0000B8463E461D70204B5D60A7E7002E3FF4BE
:100C10005BAF0BF00B030B2B7FF456AF02201B4B8B
:100C2000187001F04DF8322000F058FFB0F10009C3
:100C3000FFF64AAF19F003077FF446AF0E4A09EBFF
:100C40000503926893423FF63FAFB9F5807F3FF7C7
:100C50003BAF124BB945019322DD4FF47A7000F09F
:100C60003DFF0390039A002AFFF62EAF039A013747
:100C7000019B03F8012BEDE700220020E023002078
:100C8000C8220020F1070008E4230020DC22002015
:100C900004220020082200200C220020E022002054
:100CA000C820FFF791FD074600283FF40DAF1F2D28
:100CB00011D8C5F120020AAB25F0030084494A454A
:100CC000184428BF4A46019200F0FEFF019AFF2116
:100CD0007F4801F01FF84FEAA903C9F387027C4956
:100CE0002846019301F01EF8064600283FF46AAF3B
:100CF000019B05EB830531E70220FFF765FD002826
:100D00003FF4E2AE00F074FF00283FF4DDAE0027B0
:100D1000B946704B9B68BB4218D91F2F11D80A9B4C
:100D200001330ED027F0030312AA134453F8203CDA
:100D300005934846042205A9043702F065FA814666
:100D4000E7E7384600F01AFF0590F2E7CDF8149077
:100D5000042105A800F0E0FE00E70023642104A8B8
:100D6000049300F0CFFE00287FF4AEAE0220FFF720
:100D70002BFD00283FF4A8AE049800F02FFF05904B
:100D8000E6E70023642104A8049300F0BBFE0028DA
:100D90007FF49AAE0220FFF717FD00283FF494AECF
:100DA000049800F01DFFEAE70220FFF70DFD002880
:100DB0003FF48AAE00F02CFFE1E70220FFF704FDCC
:100DC00000283FF481AE05A9142000F027FF074654
:100DD0000421049004A800F09FFE3946B9E73220B0
:100DE00000F07CFE071EFFF66FAEBB077FF46CAE13
:100DF000384A07EB0A03926893423FF665AE022039
:100E0000FFF7E2FC00283FF45FAE27F003075744EA
:100E1000BA453FF4A3AE50460AF1040A00F0AEFE14
:100E20000421059005A800F077FEF1E74FF47A70F1
:100E3000FFF7CAFC00283FF447AE00F0D9FE0028B7
:100E400044D00A9B01330BD008220AA9002000F0ED
:100E500069FF00283AD02022FF210AA800F05AFF9B
:100E6000FFF7BAFC1C4804F0BBF913B0BDE8F08FE3
:100E7000002E3FF429AE0BF00B030B2B7FF424AEB6
:100E80000023642105A8059300F03CFE07460028D6
:100E90007FF41AAE0220FFF797FC814600283FF44A
:100EA00013AEFFF799FC41F2883004F099F90598E8
:100EB00000F0C0FF4E463C4600F078FFB0E5064625
:100EC0004CE64FF0000AFFE5B8467BE6374679E688
:100ED000E022002000220020A0860100094A49F2F9
:100EE0006900136899B21B0C00FB013344F2506196
:100EF0001360054B186882B2000C01FB02001860F9
:100F000080B27047142200201022002000211022FD
:100F100010B5044600F0FEFE034B03CB2060616079
:100F20001868A06010BD00BF00E8F11F2DE9F04374
:100F3000224DBBB002F062F940F2ED22AB68C31A59
:100F4000934232D906AF2B4628220021A8603846AA
:100F500002F032FE05F10E0000F0D4FE0026044639
:100F60005FFA80F905F10E08F3B2F100994501F13D
:100F7000280107D908EB060308223846013602F09B
:100F80001BFEF1E7082301220534297B0C48A4B29B
:100F9000CDE902320B4B01933023CDE90474009369
:100FA00004A3D3E9002302F01FFC3BB0BDE8F083AB
:100FB000AFF3008078F6339F93CACD8D905D00200B
:100FC000043400209D5D002070B50D4614461E4679
:100FD00002F0A0FB50B9022E10D1012C0ED112A3A9
:100FE000D3E900230120C5E9002307E0282C10D015
:100FF00005D8012C09D0052C0FD0002070BD302C55
:10100000FBD10BA3D3E90023ECE70BA3D3E9002327
:10101000E8E70BA3D3E90023E4E70BA3D3E900231C
:10102000E0E700BFAFF30080401DA12026812A0B1E
:1010300078F6339F93CACD8D9E6AC421818A46EE8D
:1010400026417272DF25D7B7F017304A39059E5610
:1010500013B504460846202200212346019002F0E1
:10106000ABFD227923460198032A4FF0200128BFC7
:10107000032203F8042F022202F09EFD6279234628
:101080000198072A4FF0220128BF072203F8052FF5
:10109000032202F091FDA27923460198072A4FF01E
:1010A000250128BF072203F8062F032202F084FD42
:1010B000019804F108031022282102F07DFD382058
:1010C00002B010BD2DE9F04FADF5017D0F460021B6
:1010D00040F275120EAE804622A8219100F01AFE51
:1010E00048220021304600F015FE21AD02F086F8BE
:1010F0004FF47A72554B0DF15A09B0FBF2F01860BB
:1011000093E80700012386E807000DF15A003382B7
:10111000FFF7FCFE47F605034D49338406AB18463E
:1011200006F0A2F81F2229463064304686F83C209B
:10113000FFF78EFF12AB044601460822284602F054
:101140003BFD08220DF149032846A11804F1880A45
:1011500002F032FD0DF14A03082204F11001284685
:1011600004F5847B02F028FD13AB202204F1180162
:10117000284602F021FD14AB402204F13801284634
:1011800002F01AFD16AB082204F17801284602F09D
:1011900013FD0DF15903082204F18001284602F0E5
:1011A0000BFD51460AF1080A4B460822284609F170
:1011B000010902F001FDD345F3D104F588744FF025
:1011C00000091BAB08225946284602F0F5FC96F8A8
:1011D00034304B450AD9B36B2146082228464B448C
:1011E000083409F1010902F0E7FCF0E74FF00009CB
:1011F00096F83C3004EBC9014B4508D9336C082202
:1012000028464B4409F1010902F0D6FCF0E700231F
:10121000073140460393C1F3CF01BB7E029307F130
:10122000190301930123CDE904510093F97E05A32D
:10123000D3E9002302F0D8FA0DF5017DBDE8F08F67
:10124000AFF300809E6AC421818A46EEEC23002021
:1012500098720008F8B50E4C02260E4FA4F5805384
:1012600043F8307C237E3BB965692DB1284601F0F7
:1012700041FE284605F062FF2046A4F5A55401F082
:1012800039FE012EA4F1100400D1F8BD0126E5E7D6
:1012900010590020C8730008014B1870704700BF38
:1012A000F8230020334BF0B51C7B85B034B1324BB2
:1012B0000E221A810024204605B0F0BD2F4A02AB51
:1012C0001068516803C308232D492E480DEB030213
:1012D00005F05CFF054630B9274B0A222A481A81DF
:1012E00001F090FDE6E70169B1F5F01F06D9224B48
:1012F0000B2226481A8101F085FDDCE7438BB3F50C
:10130000AF6F09D01C4A0C21214811814FF4AF6204
:10131000194601F077FDCEE71E4A024402F11003A0
:10132000994204D2144B10221B481A81E3E710396A
:1013300020468E1A134901F067FF05F11801074690
:101340003246204601F060FFAB689F4202D1EB6855
:1013500098420AD0084B0D221A813B4600900F4854
:10136000D5E9021201F04EFDA4E70D48012401F079
:1013700049FDA0E7905D0020EC23002049730008A0
:10138000DCFF1D0000000208B8720008C4720008EB
:10139000D67200080800FEF7F47200081173000806
:1013A0003A7300082DE9F04FADB080460C4606AF09
:1013B00002F0B0F90546002859D1237E022B1BD13B
:1013C000E38A012B18D101F019FF0646FFF786FDCD
:1013D00003464FF4C87006F51676DFF8CC92B3FBDF
:1013E000F0F202FB103316FA83F3C9F80030E37E03
:1013F00033B9A84B00221A709C37BD46BDE8F08F68
:10140000A38AEEB20135013BB3420BD93B1DE90083
:10141000082220461E4401F0F8010023009602F045
:101420008FFAEDE707F11400FFF770FD324607F180
:101430001401381D05F09AFE0028DAD10F2E08D8C5
:10144000944B1E70D9F80030A3F51673C9F800301C
:10145000D2E7FB1CF87001460722009303462046A2
:1014600002F06EFAF978404602F04CF9C4E7E38ADC
:10147000282B26D010D8012B1ED0052BBCD1BFF3B2
:101480004F8F8549854BCA6802F4E0621343CB60F5
:10149000BFF34F8F00BFFDE7302BADD1637EE94630
:1014A0007F4D01336A7BDBB2934203D1E27E2B7B1B
:1014B0009A4265D0CD469FE721464046FFF702FE9F
:1014C0009AE7A38A013B9BB2C92B95D8744D2E7B1A
:1014D00026BB05F10C030822314600933346204613
:1014E00002F02EFA731CF2B2D9001E46A38A013B09
:1014F0009A4205DA0E3200232A4400920822EEE7CF
:1015000000230022C5E900230023AB6085F8D73013
:10151000C5F8D8302B7B0BB9E37E2B73002507F180
:1015200014093B1D082229464846FD60C7E90155BC
:1015300002F042FB3B7A05F1010AAB424FEACA06D0
:1015400008D9FB680822314648462B44554602F02C
:1015500033FBEFE7C6F3CF060023E17E1934039394
:101560004046CDE9049663780194029328230093C2
:1015700046A3D3E9002302F037F9FFF7D7FC3BE796
:101580004FF0000807F1140310222046A7F814803A
:1015900041460093012302F0D3F9A68A023EB6B277
:1015A000F31C9B109B000733DB08A9EBC3039D468C
:1015B0000DF1180A1FFA88F34FEAC801B34201F18E
:1015C00010010AD20AEB08030822204608F101089C
:1015D0000093002302F0B4F9ECE795F8D70000F08F
:1015E000DBFAD5F8D83004461BB995F8D70000F0DF
:1015F000E3FAD5F8D83033449C4204D295F8D700AA
:10160000013000F0D9FA4FEA960B4FF000081FFAAC
:1016100088F18B45D5E9003209D90AEB880101220E
:1016200003EB880008F1010800F07CFBEFE7F318FA
:1016300095F8D70042F10002C5E90032D5F8D8305C
:1016400006EB0308C5F8D88000F0A6FA804509D358
:1016500095F8D730D5F8D8000133001B85F8D7307E
:10166000C5F8D800FF2E08D800232B7300F0C0FA6D
:10167000FFF718FE08B1FFF7EDF82B68094A9B0A3F
:10168000013313810023AB6014E700BF264172725F
:10169000DF25D7B7FD33002000ED00E00400FA0598
:1016A000905D0020EC2300200034002010B54FF0A6
:1016B00040540C4B22689A4212D1627D0A4B0B486F
:1016C0001A70C922237D0E30094900F8023C00F04F
:1016D000FBFAE0220021204600F01CFB012010BD97
:1016E0000020FCE79AAD44C5F8230020905D00205F
:1016F0001600003037B502231D4C1E4D0122204636
:101700001D496B71236804F580545B689847D4F8D1
:10171000B034012218495B6804F5966098470023AD
:1017200016494FF480520193154B16480093164BFF
:1017300001F0C2FF154B197811B1124801F0E2FF18
:1017400001F05CFD0446FFF7C9FB4FF4C873B0FB22
:10175000F3F202FB130304F5167010FA83F00C4B3E
:10176000186004F0E3F908B10F232B8103B030BDFA
:1017700030340020EC23002040420F00FC230020E6
:10178000C90F000804340020A5130008F823002026
:10179000003400202DE9F04F9C4D2DED028B93B0CD
:1017A000DFF890A29A4F284602F082F803460028FC
:1017B0003DD00024974E0E94A046ADF84440A1467B
:1017C000CDE90F44027B8DF844200FAA9968406848
:1017D00003C21B6843F000430E93336804F22C5499
:1017E000D3F810B001F00CFD10EB0A02CDF8009018
:1017F000304606F5A55641F100030EA9D84740F63C
:1018000058230028C8BF48F0010810369C42E4D194
:10181000B8F1000F05D0284602F04EF887F8009086
:10182000C1E73B78072B00F2E08001333B700023D7
:101830000DF12C084FF0010A0A93ADF834300B93E8
:10184000C8F804309FED6B8B0026724C3746236836
:101850004FF0000B0DF11D0207A920468DF81CA0CA
:101860008DF81DB08DED008BD3F808905B46C8470E
:101870009DF81C90B9F1000F1ED0102259460EA8F9
:1018800000F048FA236808AA0AA95F6920460DF10A
:101890001E03B8470FAB4F4698E8030083E80300E8
:1018A0009DF834300EA928468DF844300A9B0E93DB
:1018B000DDE9082302F0C8F906F22C5640F6582359
:1018C00004F5A5549E4204F11004C0D1002FBBD1F1
:1018D000284601F01FFF002840D14F4E01F08EFC3A
:1018E000336898423AD301F089FC0446FFF7F6FAD0
:1018F0004FF4C87304F516748DF82870B0FBF3F23A
:1019000002FB130314FA83F33360444E377817B99C
:1019100001238DF82830C7F110040EA8FFF7F6FA5E
:101920000EABE4B20DF12900D919062C28BF06240C
:101930002246013400F0C8F90AABE4B2284603930A
:10194000182304940293364B0193012300932BA395
:10195000D3E9002301F0E0FE0023337001F04EFCD8
:10196000304A314C1368C31AB3F57A7F30D3106014
:1019700001F046FC02460B46284601F0A7FF284628
:1019800001F0C8FE20B3237B0EAF284E002B14BFFE
:1019900003230223737101F031FC4FF47A7339464B
:1019A000B0FBF3F030603046FFF752FB18230730EE
:1019B00002931F4BC0F3CF00019340F25513CDE9C2
:1019C0000370009328460FA3D3E9002301F0A4FE7F
:1019D000237B2BB1FFF7AAFA237B002B7FF4E0AE29
:1019E00013B0BDEC028BBDE8F08F284601F064FF18
:1019F0001DE700BF0000000000000000401DA12006
:101A000026812A0BF1C6A7C1D068080F0434002034
:101A1000755E00203034002000340020FD330020AB
:101A2000FC330020705E0020905D0020EC2300203D
:101A3000745E002040420F0008B5064800F014FD17
:101A4000054800F011FD054A05490020BDE80840A1
:101A500005F06EBB30340020E0480020D05E00204E
:101A600055120008F7B50C46184E4FF47A7105462A
:101A700002FB01F396F90020501C0BD114482946B3
:101A800001930268176A2246B8478442019B03D13A
:101A9000002310E0002AF1D096F90020511C01D05B
:101AA000012A0DD10B4829460268166A2246B04722
:101AB000844205D10123084A0120137003B0F0BD10
:101AC0004FF4FA7003F08CFB0020F7E71822002097
:101AD000F8640020D45E0020BC5E0020002307B51F
:101AE000024601210DF107008DF80730FFF7BAFF1C
:101AF00020B19DF8070003B05DF804FB4FF0FF3004
:101B0000F9E700000A46042108B5FFF7ABFF80F0B3
:101B10000100C0B2404208BD074B0A4630B41978F4
:101B2000064B53F82140014623682046DD69044BEB
:101B3000AC4630BC604700BFBC5E0020707300083C
:101B4000A086010070B50A4E00240A4D03F0F6FD90
:101B5000308028683388834208D903F0EBFD2B6876
:101B600004440133B4F5003F2B60F2D370BD00BFD5
:101B7000BE5E0020785E002003F0BEBE00F1006073
:101B800000F500300068704700F10060920000F539
:101B9000003003F035BE0000054B1A68054B1B886A
:101BA0009B1A834202D9104403F0C4BD0020704741
:101BB000785E0020BE5E002038B5074D04462868D8
:101BC000204403F0BDFD28B928682044BDE8384012
:101BD00003F0C8BD38BD00BF785E0020002070470C
:101BE00000F1FF5000F58F10D0F80008704700009A
:101BF000064991F8243033B100230822086A81F89D
:101C00002430FFF7C1BF0120704700BF7C5E002079
:101C1000014B1868704700BF0010005C244BF0B502
:101C20001A680446234BC2F30B06120C1F8858682F
:101C3000BE4293F9085028D09F89BE4206D10120A8
:101C40000C2505FB0033586893F9085041F2010355
:101C50009A421CD041F203039A421AD042F2010385
:101C60009A4218D042F203039A4208BF5625621ED8
:101C70000B46441E0A4493420FD214F9016F581CBC
:101C80006EB1034600F8016CF5E70020D8E75A254D
:101C9000EDE75925EBE75825E9E7184605E02C2440
:101CA00082421C7001D9981C5D70401AF0BD00BFC3
:101CB0000010005C1C2200200020704770470000CC
:101CC0007047000070470000002310B5934203D016
:101CD000CC5CC4540133F9E710BD0000013810B5E5
:101CE00010F9013F3BB191F900409C4203D11AB178
:101CF0000131013AF4E71AB191F90020981A10BDA8
:101D00001046FCE703460246D01A12F9011B0029CF
:101D1000FAD1704702440346934202D003F8011BF4
:101D2000FAE770472DE9F8431F4D144607468846E9
:101D300095F8242052BBDFF870909CB395F82430BE
:101D40002BB92022FF2148462F62FFF7E3FF95F8C9
:101D500024004146C0F1080205EB8000A24228BFE2
:101D60002246D6B29200FFF7AFFF95F82430A41BAD
:101D700017441E449044E4B2F6B2082E85F824605D
:101D8000DBD1FFF735FF0028D7D108E02B6A03EB42
:101D900082038342CFD0FFF72BFF0028CBD1002056
:101DA000BDE8F8830120FBE77C5E0020024B1A7837
:101DB000024B1A70704700BFBC5E00201822002042
:101DC00038B5164C164D204602F000FD2946204637
:101DD00002F028FD2D681348D5F89020D2F8043879
:101DE00043F00203C2F8043803F0FAF90E4928461A
:101DF00002F026FED5F890200C48D2F804380C49A1
:101E0000A04223F00203C2F804384FF4E1330B6020
:101E100003D0BDE8384002F037BC38BDF86400207C
:101E20001075000840420F0018750008D45E0020AD
:101E3000A45E002038B50B4B04461A780A4B53F8C1
:101E400022500A4B9D420CD0094B00211822184603
:101E5000FFF760FF046001462846BDE8384002F005
:101E600013BC38BDBC5E002070730008F86400200D
:101E7000A45E0020202383F3118862B6704700001F
:101E8000002383F3118862B6704700000120704779
:101E9000704700007047000010B4134602681468D1
:101EA0000022A4465DF8044B6047000000F5805016
:101EB00090F859047047000000F5805090F85204E3
:101EC0007047000000F5805090F9580470470000FA
:101ED0004E20704700F5805208B5FFF7CBFFD2F8CF
:101EE0009834D2F894041844D2F890341844D2F8B4
:101EF00078341844D2F888341844D2F8843418441A
:101F0000FFF7BEFF08BD00002DE9F74F0C4600F5B6
:101F100080511F46054691F852349046BDF83090E6
:101F20009BB1D1F874340133C1F8743423689A003A
:101F300006D4237B082B0BD9627B0AB10F2B07D960
:101F4000D1F878340133C1F878344FF0FF300FE026
:101F5000FFF790FFEB6AD3F8C42012F4001A0AD0FE
:101F6000D1F87C3400200133C1F87C34FFF788FFBE
:101F700003B0BDE8F08F22684FF0480BD3F8C4607F
:101F8000002A6B6AC6F30446B4BF42F08042920452
:101F90001BFB063BCBF8002023685B004FEA06637F
:101FA00044BF42F00052CBF80020227B43EA0243B8
:101FB0007201CBF80430607B18B343F44013CBF8C4
:101FC0000430D1F8A4340133C1F8A434AB1803F5BC
:101FD0008353197B41F020011973207B019200F09B
:101FE0006DFF0330019A80105FFA8AF30AF1010A4B
:101FF00083420DDA04EB83010BEB8303496899609C
:10200000F2E7AB1803F58353197B60F34511E3E75F
:102010000121EB6A04F10C00B140C3F8D010AB18F9
:10202000214603F58253C3E9048705EB461303F504
:102030008253183351F804CB814243F804CBF9D1D1
:1020400009882A442846198041F26803D65002F5CF
:10205000805209F0030392F86C1043F0100321F052
:102060001F010B43214682F86C304246FFF708FF00
:102070003B46CDF8309003B0BDE8F04F00F0E4BE31
:102080002DE9F04700F58056044696F85254002D8D
:1020900040F00181037C032B40F092802B462846C0
:1020A0002F465FFA83FC944510DA01EBCC0E51F811
:1020B0003CC0BCF1000F04DBDEF804C0BCF1000F33
:1020C00002DB01370133ECE70130FBE7FFF7D2FE1B
:1020D000E36AF0B9D3F8800040F00200C3F8800052
:1020E0004E23E06A002F6ED1D0F8803043F0010318
:1020F000C0F88030694B6A4A1B6803F1805303F5CE
:102100002C539B009342A36240F2AF80654801F0DC
:102110006FF84D2842D8DFF884814FEA004EDFF88F
:102120008891D8F800C04EEA8C0EC3F884E00CF118
:10213000805303F52C539B00636100EB0C03D4F830
:102140002CC0C8F80030C0F14E03DCF8800040F02D
:102150003000CCF880004FF0000CD4F81480E64634
:102160005FFA8CF08242BCDD01EBC00A51F830000E
:10217000002810DBDAF804A0BAF1000F0BDA09EA44
:1021800000400AF07F0A40EA0A0040F0084048F8A0
:102190002E000EF1010E0CF1010CE1E79A6922F01C
:1021A00001029A6101F02AF80646E36A9B69D907A1
:1021B00004D501F023F8831BFA2BF6D9FFF760FE54
:1021C0002846BDE8F087B7EB530F3DD2DFF8CCE0EF
:1021D0004FEA074CDEF800304CEA830CC0F888C0A8
:1021E00003F1805003EB4703002700F52C50CEF895
:1021F0000030BC468000A061E06AD0F8803043F037
:102200000C03C0F88030D4F818E0FBB29A427FF794
:1022100071AF51F8330001EBC3080028D8F804303F
:1022200001DB002B0EDB20F0604023F0604340F028
:10223000005043F000434EF83C000EEBCC000CF194
:10224000010C43600137E0E7836923F001038361F8
:1022500000F0D4FF0646E36A9B69DA07AED500F0CA
:10226000CDFF831BFA2BF6D9A8E7E26A936923F026
:102270000103936100F0C2FF0746E36A9B69DB0735
:1022800005D500F0BBFFC31BFA2BF6D996E7012555
:1022900086F8525492E7002592E700BFCC5E0020FA
:1022A000FCB50040787300080000FF0713B500F587
:1022B00080540191606C00F053FE1F280AD920223F
:1022C0000199606C00F0C2FEA0F120035842584111
:1022D00002B010BD0020FBE700F5805008B5FFF705
:1022E000C9FD406C00F010FEBDE80840FFF7C8BD16
:1022F00000220260828142608260704700220023D7
:1023000010B5C0E90023002304460C3020F8043C3B
:10231000FFF7EEFF204610BD2DE9F047074688B0D5
:102320009A46884607F5805468469146FFF7A2FD15
:10233000FFF7E4FF606C00F0F9FD1F282DD9202283
:102340006946606C00F006FF202826D194F85234CC
:102350001BB303AD444605AB2E46083403CE9E4264
:1023600044F8080C44F8041C3546F5D13068414661
:1023700020603846B388A380DDE90023C9E9002343
:10238000BDF808304A46AAF80030FFF779FD5346F9
:1023900008B0BDE8F04700F045BD0020FFF770FD34
:1023A00008B0BDE8F08700002DE9F84F002306468D
:1023B00000F58154054688461034C0E90133274BA7
:1023C00046F8303B374638462037FFF797FFA7429D
:1023D000F9D105F580544FF4805305F5A3594FF01A
:1023E000000A26630026676405F5835709F1100982
:1023F0004FF0000B1037E663C4E90D36012384F873
:10240000403084F84830A7F11800203747E910AB76
:10241000FFF76EFF47F8286C4F45F4D1B8F1010F74
:1024200084F85884A4F85A64A4F85C64A4F85E6440
:1024300084F86064A4F86264A4F86464A4F8666430
:1024400084F8686402D9064800F0D2FE054B28469D
:1024500053F82830EB62BDE8F88F00BFC87300085E
:102460009C730008B8730008044B10B51978044633
:102470004A1C1A70FFF798FF204610BDC95E002065
:102480002DE9F04700295FD0304F3148B7FBF1F517
:1024900081428CBF0A201120431EB5FBF0FC00FBDB
:1024A0001C50DCB220B1022B1846F5D8002037E0D2
:1024B0000CF1FF35B5F5806F32D2C4EBC4094FF48F
:1024C0007A7009F103034FEAE308C3F3C70308F185
:1024D000010AA4EB030E08FB00085FFA8EF65AFA15
:1024E0008EFEB8FBFEFEBEF5617F1BDC1FFA8EF48C
:1024F000581C56FA80F00CFB00FCB7FBFCFC614555
:10250000D4D1013BDBB20F2BD0D8711E0020C9B251
:10251000072905D8107101201480558053719171DD
:10252000BDE8F08709F1FF334FEAE30EC3F3C703B9
:102530000EF10108E41A0EFB0000E6B258FA84F42A
:10254000B0FBF4F4A4B2D3E70846E9E700B4C4044E
:102550003F420F0038B540F27772C36A154CC3F89A
:10256000BC200722C36AC3F8C8202268C16A93004E
:1025700043F4C023C1F8A03002F1805302F16C0192
:10258000C56A03F52C53EA3289009B00226041F0B2
:10259000E061094AC361C5F8C01003F5D87103F5BD
:1025A0006A7341629342836202D9044800F020FEBC
:1025B00038BD00BFCC5E0020FCB500407873000839
:1025C0002DE9F04F00F58055994689B0044695F8FD
:1025D00058348A469046022B04D90027384609B061
:1025E000BDE8F08F9E4A52F8231009B942F8230043
:1025F0009C49C4F80CA00B7884F81090C3B9FFF77D
:1026000039FC994BD3F8EC2042F48072C3F8EC20EB
:10261000D3F8942042F48072C3F89420D3F8942025
:1026200022F48072C3F8942001230B70FFF728FC7A
:1026300095F851346BB9FFF71DFC8C4A95F8583466
:10264000D35CEBB1012B24D0012385F85134FFF783
:1026500017FCFFF70FFCE26A936923F01003936104
:1026600000F0CCFD0746E36A9E6916F0080617D015
:1026700000F0C4FDC31BFA2BF5D9FFF701FCACE752
:102680000221132001F04EFE0221152001F04AFE26
:10269000DAE70221142001F045FE02211620F5E7B9
:1026A0009A6942F001029A6100F0A8FD0746E36AC8
:1026B0009A69D00705D400F0A1FDC31BFA2BF6D907
:1026C000DBE79A69002704F5825B42F002020BF116
:1026D000100B9A61E36A5F65FFF7D2FB686C00F04C
:1026E00013FC202200216846FFF714FB02A8FFF725
:1026F000FFFD6A460BEB06030DF1180E0697944694
:102700000833BCE80300F44543F8080C43F8041C04
:102710006246F4D1DCF8000020361860B6F5806F10
:102720009CF804201A71DCD1002304F5A252514612
:1027300020461A3285F8503485F85334FFF7A0FE4E
:10274000074690B9E26A936923F00103936100F0B0
:1027500055FD0546E36A9B69D9077FF53EAF00F05A
:102760004DFD431BFA2BF5D937E795F85F6495F8D3
:102770005E243602C5F86CA4E36A46EA426695F820
:1027800060241643B5F85C2446EA0246DE61B8F1DF
:10279000000F29D004F5A352414620460232FFF72C
:1027A0006FFE90B9E26A936923F00103936100F030
:1027B00025FD0546E36A9B69DA077FF50EAF00F059
:1027C0001DFD431BFA2BF5D907E795F8683495F8FA
:1027D00067141B01C5F87084E26A43EA0123B5F867
:1027E000641443EA0143D360E36A00262046C3F839
:1027F000BC60FFF7AFFE85F859646FF04042E36AB2
:10280000B9F1030F1A651A4AE36A5A654FF00222BA
:10281000E36A9A654FF0FF32E36AC3F8E0204FF0B5
:102820000302E36ADA65E26A936943F440739361F1
:102830003FF4D4AEE26A936923F00103936100F0A0
:10284000DDFC0646E36A9B69DB0705D500F0D6FC94
:10285000831BFA2BF6D9C0E6012385F85234BDE676
:10286000C05E0020C85E002000440258B07300081B
:10287000550200022DE9F04F054689B09046994671
:10288000002741F2680A00F58056EB6AD3F8D83089
:10289000FB40D8074AD505EB47124FEA471B524485
:1028A0001379190742D4D6F880340133C6F880343E
:1028B00013799A0605EB0B0248BFD6F8A8345244A8
:1028C00044BF0133C6F8A834137943F008031371E9
:1028D000DB0723D596F8533403B305F582546846D5
:1028E000FFF70CFD03AB18345C4404F1080C2068BE
:1028F000083454F8041C1A46644503C21346F6D142
:102900002068694610602846A2889A800123ADF8A5
:1029100008302B68CDE900891B6C9847D6F85434F1
:1029200023B1D6F89C340133C6F89C340137202FEC
:10293000ABD109B0BDE8F08F2DE9F04F0F468DB057
:10294000044600F05DFC82468946002F5BD1E36AB5
:10295000D3F8A02012F4FE0F03D100200DB0BDE883
:10296000F08FD3F8A420920141BF04F58051D1F833
:1029700094240132C1F89424D3F8A4205606ECD054
:10298000D3F8A450E669C5F305254823E8464FF07F
:10299000000B03FB05664046FFF7AAFC32685100B6
:1029A0004ABF22F06043C2F38A4343F000439200DF
:1029B00048BF43F080430093736813F400131BBFB8
:1029C000012304F580528DF80D308DF80D301EBFB7
:1029D000D2F8AC340133C2F8AC34F38803F00F03FF
:1029E0008DF80C309DF80C0000F068FA5FFA8BF35C
:1029F000984225D9F2180CA90BF1010B127A0B445D
:102A000003F82C2CEEE7012FA7D1E36AD3F8B0200E
:102A100012F4FE0FA1D0D3F8B420950141BF04F504
:102A20008051D1F894240132C1F89424D3F8B42011
:102A3000500692D0D3F8B450266AC5F30525A4E712
:102A4000EFB9E36AC3F8A85004A807ADFFF756FC36
:102A500098E80F0007C52B800023204604A9ADF895
:102A60001830236804F580541B6CCDE904A99847FD
:102A700058B1D4F88C340133C4F88C346EE7012F8C
:102A8000E2D1E36AC3F8B850DEE7D4F8903401200D
:102A90000133C4F8903461E7F8B505460F4600F5F8
:102AA0008054012639462846FFF746FF10B184F8C6
:102AB0005364F7E7D4F8543423B1D4F89C34013389
:102AC000C4F89C34F8BD0000C36AF0B51A6C12F467
:102AD0007F0F2BD01B6C00F5805441F268054FF03E
:102AE000010CC4F8A0340023471900EB43125E0127
:102AF0002A44117911F0020F15D0490713D4B9599E
:102B0000C66A0CFA01F1D6F8CCE011EA0E0F0AD031
:102B1000C6F8D410117941F004011171D4F8882459
:102B20000132C4F888240133202BDED1F0BD00002F
:102B30002B4B70B51E561B5C012B30D8294D2A4AF1
:102B400055F8233052F8264013B349B3236D9A0544
:102B500010D54FF40073236500F052FB50EA0102D8
:102B60000B4602D0013861F10003024655F82600F9
:102B7000FFF780FE236D9B012CD54FF0007255F8B6
:102B80002630226503F58053012283F8592421E081
:102B900001232365102323654FF48053236570BD03
:102BA000236DDA0702D4236D5B0706D505230021C8
:102BB00055F826002365FFF76FFF236DD80602D472
:102BC000236D590606D55023012155F826002365AB
:102BD000FFF762FF55F82600BDE87040FFF774BFAD
:102BE000B4730008C05E0020B873000808B5FFF792
:102BF00041F9FFF769FFBDE80840FFF741B9000060
:102C0000C36AD3F8C00010F07C5005D0D3F8C400DC
:102C100080F40010C0F340507047000000F5805071
:102C200008B5FFF727F9406C00F080F9FFF728F9A5
:102C300043090CBF0120002008BD000000F58053AF
:102C400093F8592462B1C16A8A6922F001028A614B
:102C5000D3F898240132C3F89824002283F8592429
:102C6000704700002DE9F74300F582519846002592
:102C7000FFF700F9103141F2680E4FF0010900F53D
:102C8000805C00EB4514744423795E071CD4DB069A
:102C90001AD58E69C36A09FA06F6D3F8CC703E429B
:102CA00012D04F6801970F689742019F77EB080792
:102CB0000AD2C3F8D460237943F004032371DCF80B
:102CC00084340133CCF8843401352031202DD8D11F
:102CD00003B0BDE8F043FFF7D3B80000F8B51E46D7
:102CE00000230F46054613701446FFF797FF80F048
:102CF000010038701EB12846FFF782FF2070F8BD32
:102D00002DE9F04F994685B00B780E468046174660
:102D100001931378DDE90EBA029300F071FA33786B
:102D200004460D4613B93B78002B41D022462B4672
:102D30004046FFF797FFFFF759FFFFF77FFF4B462E
:102D40003A463146FFF7CAFF33782BB1019B1BB1DE
:102D5000012005B0BDE8F08F3B7813B1029B002B3A
:102D6000F6D108F5805303935C4575EB0A031FD237
:102D7000039BD3F85404D8B1BBEB04020368D968B1
:102D80006AEB050388474B463A4631464046FFF713
:102D9000A5FF337813B1019B002BD9D13B7813B138
:102DA000029B002BD4D100F02BFA04460D46DBE742
:102DB0000020CEE7002108B50846FFF7B9FEBDE8C0
:102DC000084001F075B9000008B501210020FFF7A7
:102DD000AFFEBDE8084001F06BB9000008B5002166
:102DE0000120FFF7A5FEBDE8084001F061B9000031
:102DF000012108B50846FFF79BFEBDE8084001F039
:102E000057B900000FB4002004B0704713B56C46EA
:102E1000031D84E8060094E8030083E80500012010
:102E200002B010BD73B58568019155B11B885B0771
:102E300007D4D0E90036DB6B9847019AC1B230461F
:102E4000A847012002B070BDF0B5866889B005467C
:102E50000C465EB1BDF838305B070AD4D0E90037C4
:102E6000DB6B98472246C1B23846B047012009B013
:102E7000F0BD0022002301F10806CDE90023002364
:102E80000A46ADF8083003AB1068083252F8041C4B
:102E90001C46B24203C42346F6D1106820609288D3
:102EA000A28000F0AFF90423ADF808302B68CDE91B
:102EB00000011B6C694628469847D7E7082817D9B0
:102EC00009280CD00A280CD00B280CD00C280CD0C8
:102ED0000D280CD00E2814BF4020302070470C2045
:102EE000704710207047142070471820704720202A
:102EF0007047000010B5037C044613B9006804F065
:102F00002DF9204610BD00000023BFF35B8FC36086
:102F1000BFF35B8FBFF35B8F8360BFF35B8F704743
:102F2000BFF35B8F0068BFF35B8F704770B50546DA
:102F30000C30FFF7F5FF044605F108063046FFF7B1
:102F4000EFFFA04206D96D683046FFF7E9FF254440
:102F5000281A70BD3046FFF7E3FF201AF9E700009A
:102F600070B505464068A0B105F10C0605F10800F2
:102F7000FFF7D6FF04463046FFF7D2FF844204F144
:102F8000FF34304694BF6D680025FFF7C9FF2C441D
:102F9000201A70BD38B50C460546FFF7C7FFA042A2
:102FA00010D305F10800FFF7BBFF04446868BFF3C6
:102FB0005B8FB4FBF0F100FB11440120AC60BFF368
:102FC0005B8F38BD0020FCE72DE9F0411446074631
:102FD0000D46FFF7C5FF844228BF0446D4B1B8466A
:102FE00058F80C6B4046FFF79BFF30442860404682
:102FF0007E68FFF795FF331A9C4203D801206C606E
:10300000BDE8F081A41B6B603B682044AB60E860C6
:103010000220F5E72046F3E738B50C460546FFF7F2
:103020009FFFA04210D305F10C00FFF779FF044485
:103030006868BFF35B8FB4FBF0F100FB1144012023
:10304000EC60BFF35B8F38BD0020FCE72DE9FF414A
:103050008846694607466C46FFF7B6FF002506B26C
:1030600004EBC606B4420AD0626808EB050120688A
:103070000834FEF729FE54F8043C1D44F2E72946C3
:103080003846FFF7C9FF284604B0BDE8F0810000CC
:10309000F8B505460C300F46FFF742FF05F108066C
:1030A00004463046FFF73CFFA042304688BF6C68BC
:1030B000FFF736FF201A386020B12C683046FFF742
:1030C0002FFF2044F8BD000073B5144606460D4698
:1030D000FFF72CFF8442019028BF0446DCB101A910
:1030E0003046FFF7D5FF019B33B93268C5E902339B
:1030F000C5E9002401200CE09C42286038BF0194FF
:10310000019884426860F5D93368241A0220AB60C4
:10311000EC6002B070BD2046FBE700002DE9FF41E6
:103120000F4669466C46FFF7CFFF00B2002604EB5E
:10313000C005AC4209D0D4F80480B81954F8081B73
:1031400042464644FEF7C0FDF3E7304604B0BDE812
:10315000F081000038B50546FFF7E0FF0446014660
:103160002846FFF717FF204638BD000000B59BB08A
:10317000EFF3098168226846FEF7A6FDEFF30583A9
:10318000044B9A6BDA6A9A6A9A6A9A6A9A6A9A6A93
:103190009B6AFEE700ED00E000B59BB0EFF309810C
:1031A00068226846FEF790FDEFF30583044B9A6BA7
:1031B0009A6A9A6A9A6A9A6A9A6A9B6AFEE700BF52
:1031C00000ED00E000B59BB0EFF30981682268468E
:1031D000FEF77AFDEFF30583034B5A6B9A6A9A6AFE
:1031E0009A6A9A6A9B6AFEE700ED00E0FEE700003B
:1031F0000FB408B5029801F083FFFEE702F0C4BBEC
:1032000002F09CBB02F09ABB30B50A44084D9142D3
:103210000DD011F8013B5840082340F30004013B56
:103220002C4013F0FF0384EA5000F6D1EFE730BDE5
:103230002083B8ED2DE9F041C56915B9C161BDE83C
:10324000F0814B68AC4623F06047C3F38A464FEAEF
:10325000D37EC3F3807816EA230638BF3E462B465A
:103260005A68BEEBD27F22F060440AD0002A18DAF6
:10327000A40CB44217D19D420FD10D60DEE7134676
:10328000EEE7A74207D102F08044C2F380724245C4
:103290000BD054B1EFE708D2EDE7CCF800100B608B
:1032A000CDE7B44201D0B442E5D81A689C46002A62
:1032B000E5D11960C3E700002DE9F047089D01F052
:1032C000070400EBD1004FF47F494FEAD5082244B0
:1032D00005F00705944201D1BDE8F08704F0070727
:1032E00005F0070A111B08EBD50E57453E4613F8AB
:1032F0000EC038BF5646C6F108068E4228BF0E469D
:10330000E108415C34443544B94029FA06F721FA12
:103310000AF1FFB28CEA010147FA0AF739408CEA58
:10332000010C03F80EC0D5E780EA0120082341F222
:10333000210201B2013B4000002980B2B8BF5040D9
:1033400013F0FF03F5D1704738B50C468D18A54230
:1033500000D138BD14F8011BFFF7E6FFF7E70000C6
:1033600002684AB1136801890360C38801339BB2C4
:103370009942C38038BF03811046704770B588B04A
:10338000044620220D4668460021FEF7C3FC204675
:103390000495FFF7E5FF024660B16B46054608AEAF
:1033A0001C46083503CCB44245F8080C45F8041C0B
:1033B0002346F5D1104608B070BD0000082817D983
:1033C00009280CD00A280CD00B280CD00C280CD0C3
:1033D0000D280CD00E2814BF4020302070470C2040
:1033E0007047102070471420704718207047202025
:1033F00070470000082817D90C280CD910280CD9C0
:1034000014280CD918280CD920280CD930288CBFA6
:103410000F200E207047092070470A2070470B20AC
:1034200070470C2070470D207047000010B54B68A6
:1034300023B9CA8A63F30902CA8210BDC4681A6834
:103440001C60C360438A013B43824A60EFE700008F
:103450002DE9F84F1D46CB8A0F468146C3F309017B
:10346000924606290B4630D00020AAB207F1190473
:103470009EB21FFA80F8052E0FD8904503F1010384
:1034800006D30A44FB8A62F309030120FB821AE097
:103490001AF800600130E654EAE79045F1D2A1F154
:1034A000060B1C237C68BBFBF3F203FB12BB1FFA69
:1034B0008BF6002C45D14846FFF752FF044638B939
:1034C00078606FF00200BDE8F88F4FF00008E6E783
:1034D000002606607860ADB24FF0000B454510D96C
:1034E0000AEB0803221D13F8011B08F1010891558E
:1034F000B1B21FFA88F81B292BD0454506F1010609
:10350000F1D8FB8AC3F30902154465F30903BCE74C
:1035100001321C4692B22368002BF9D1AB1F0B4439
:103520001C21B3FBF1F301339BB29A42D3D2BBF11E
:10353000000FD0D14846FFF713FF20B9C4F800B000
:10354000BFE70122E7E7C0F800B05E46206004460E
:10355000C1E74545D5D94846FFF702FF08B92060C5
:10356000AFE7C0F800B0002620600446B6E70000D0
:103570002DE9F04F2DED028B83B007469146BDF843
:103580003C50CDE90013002A00F092802DB10E9B33
:10359000002B00F08D80072D32D807F10C00FFF7CB
:1035A000DFFE044638B96FF00204204603B0BDECDC
:1035B000028BBDE8F08F14220021FEF7ABFB2A46F8
:1035C0000E9904F10800FEF77FFB681CC0B2FFF7FC
:1035D00011FFFFF7F3FE207499F80030013803F073
:1035E0001F0314FA80F063F03F0303723846009B18
:1035F00043F0004161602146FFF71CFE0124D4E73F
:103600004FF0000800F10C034FF0800A4646444694
:1036100008EE103A18EE100AFFF7A2FE83460028C3
:10362000C1D014220021FEF775FBC6BB019B02200E
:10363000ABF808300E9B00F1080299195BFA82F290
:103640000130C0B2082801D0AE422AD3FFF7D2FE23
:10365000AE4208BF4FF0400AFFF7B0FE99F80020D5
:10366000411E009B02F01F0201345BFA81F142EA25
:10367000481288F0010824B24AEA020A43F00042E4
:1036800081F808A059468BF810003846CBF8042082
:103690004FF0000AFFF7CEFDAE42BBD185E7002018
:1036A000C8E711F801CB013602F801CBB6B2C7E783
:1036B0006FF0010479E70000F8B515460E462822A0
:1036C000002104461F46FEF725FB069BB5F5001FAB
:1036D000A760636004F10C00079B34BF6A094FF6D2
:1036E000FF722362002397B29A4205D80023036039
:1036F00027826382A382F8BD0660013330462036FC
:10370000F2E7000003781BB94BB2002BC8BF017071
:1037100070470000007870472DE9F74FDDF83C90C6
:10372000804692469B46BDF830500D9E9DF838402D
:10373000BDF84070B9F1000F01D1002F51D11F2CFD
:103740004FD898F80000B0B9072F47D835F00303D9
:1037500047D13A4649464FF6FF702D02FFF7F4FD78
:1037600020F0010045EA04644004400C44EA40248F
:103770004FF6FF7321E040EA0520072F40EA04647A
:10378000F6D900254FF6FF73C5F12000A5F1200200
:103790002AFA05F108350BFA00F02BFA02F2014380
:1037A00018461143C9B2FFF7BFFD402D0346EBD1C8
:1037B0003A464946FFF7C8FD034632462146404691
:1037C000CDE90097FFF7D4FE33780133DBB21F2B2E
:1037D00088BF0023337003B0BDE8F08F6FF00300A3
:1037E000F9E76FF00100F6E72DE9F04F85B092465A
:1037F00006469B46DDF848800F9D9DF840209DF8C9
:103800004490BDF84C70B8F1000F01D1002F49D1A0
:103810001F2A47D83378002B47D00C029DF8381068
:10382000072F44EA026444EAC93444EA014444EA02
:10383000030444F0800432D900234FF6FF72C3F131
:10384000200CA3F120002AFA03F103930BFA0CFCDD
:103850002BFA00F041EA0C0101431046C9B2FFF710
:1038600063FD039B02460833402BE8D13A464146AC
:10387000FFF76AFD03462A4621463046CDE9008718
:10388000FFF776FEB9F1010F06D12B780133DBB2D9
:103890001F2B88BF00232B7005B0BDE8F08F4FF6BB
:1038A000FF73E8E76FF00100F6E76FF00300F3E75E
:1038B000C06900B104307047C3691A68C261C26848
:1038C0001A60C360438A013B438270472DE9F0418F
:1038D000D0F8188014461D46184E4146002709B9F5
:1038E000BDE8F081D1E90223A21A65EB03039642F9
:1038F00077EB03031ED283698B420DD1FFF796FD50
:1039000083691B688361C3680B60438AC160013BA4
:10391000816943828846E2E7FFF788FD0B68C8F8B3
:103920000030C3680B60438AC160013B4382D8F812
:103930000010D4E788460968D1E700BF80841E00E4
:103940002DE9F04F8BB00D4614469B46DDF85090A4
:103950008046002800F01881B9F1000F00F01481B2
:10396000531E3F2B00F21081012A03D1BBF1000F3F
:1039700040F00A810023CDE90833B8F81430B5EBE4
:10398000C30F4FEAC30703D300200BB0BDE8F08F8D
:103990002B199F42D8F80C3036BF7F1B2746FFB249
:1039A0001BB9D8F81030002B7AD02F2D4DD8C5F187
:1039B000300600232946B742009308ABD8F8080028
:1039C0002CBFF6B23E46A7EB060A354432465FFAF4
:1039D0008AFAFFF771FCB8F81430302103F1005374
:1039E000063BDB000493D8F80C300393039B13B120
:1039F000BAF1000F2CD1D8F8100040B1BAF1000F85
:103A000005D008AB5246691A0096FFF755FC38B24C
:103A1000002FB9D066070AD00AAB624203EBD4018B
:103A200002F0070211F8083C134101F8083C082C89
:103A30003DD9102C40F2B580202C40F2B780BBF16C
:103A4000000F00F09C80082335E0BA460026C2E74C
:103A5000049BE02B28BFE02306930B44AB42059365
:103A600015D95A1B0398691A0096924508AB00F1C4
:103A7000040034BF5246D2B20792FFF71DFC079AEA
:103A80001644AAEB020A1544F6B25FFA8AFA049BBE
:103A9000069A05999B1A0493039B1B680393A5E759
:103AA00000933A4608AB2946D8F80800ADE7BBF1C9
:103AB000000F13D00123B4EBC30F6BD0082C12D826
:103AC0009DF82030621E23FA02F2D50706D54FF08A
:103AD000FF3202FA04F423438DF820309DF82030A1
:103AE00089F8003051E7102C12D8BDF82030621E42
:103AF00023FA02F2D10706D54FF0FF3202FA04F49E
:103B00002343ADF82030BDF82030A9F800303CE761
:103B1000202C0FD80899631E21FA03F3DA0705D584
:103B20004FF0FF3202FA04F40C430894089BC9F8E2
:103B300000302AE7402C2AD0611EC4F12102A4F1F2
:103B40002103DDE9086526FA01F105FA02F225FAFA
:103B500003F311431943CB0711D50122A4F120032C
:103B6000C4F1200102FA03F322FA01F1A2400B434F
:103B7000524263EB430332432B43CDE90823DDE993
:103B80000823C9E9002300E76FF00100FDE66FF0AC
:103B90000800FAE6082CA1D9102CB4D9202CEED8B4
:103BA000C4E7BBF1000FAED0022384E7BBF1000FE6
:103BB000BCD004237FE70000012A30B5144638BF8B
:103BC000012485B00025402C28BF4024012ACDE9DE
:103BD000025518D81B788DF8083063070AD004AB5B
:103BE000624203EBD40502F0070215F8083C93404B
:103BF00005F8083C034600912246002102A8FFF781
:103C00005BFB05B030BD082AE4D9102A03D81B8815
:103C1000ADF80830E1E7202A95BF1B68D3E90023FF
:103C20000293CDE90223D8E710B5CB681BB98B60AE
:103C30000B618B8210BDC4681A681C60C360438A24
:103C4000013B4382CA60F0E72DE9F04FD1F80080D4
:103C500093B004460D4618F0800FCDE90323C8F356
:103C6000C01219BFC8F3C03BC8F306264FF0020BC1
:103C70001646B8F1000F80F2D18118F0C0430593C9
:103C800040F0CC810B7B002B00F0C881BBF1020F10
:103C900003D00178B14240F0C48108F07F01069161
:103CA0006AB3C8F3074A2B447606069A46EA0B46DF
:103CB00093F8039046EA82465FEAD91346EA0A0679
:103CC000079300F090800022002367680AA920462D
:103CD000CDE90A23069B524600935B46B84700286D
:103CE0007ED0A7699FB9314604F10C00FFF746FB6F
:103CF0000746E0B96FF0020013B0BDE8F08FC8F3DB
:103D00000F2A18F07F0F08BF0AF0030ACBE73B69C0
:103D10009E420DD03F68002FF9D1314604F10C00CE
:103D2000FFF72CFB07460028E4D0A3693B60A7619E
:103D300000264FF6FF70DDE90A23C6F1200E22FAB5
:103D400006F1A6F1200C083603FA0EFE099223FABA
:103D50000CFC089341EA0E0141EA0C01C9B2FFF7DD
:103D6000E3FA402EDDE90832E7D1B882FB7D09F0A5
:103D70001F06C8F30468C3F384039B1B98B2002B8F
:103D8000D7E90221BCBF00F120031BB252EA0100B7
:103D90000FD00398821A049860EB0101A748904263
:103DA0004FF000028A4104D3079A002A5BD0012B0E
:103DB00023DDFA7D4FEA89033946204602F00302EB
:103DC00003F07C031343FB75FFF730FB079BA3B99C
:103DD000FB7DC3F38402013262F38603FB7504E0CA
:103DE0006FF00B0088E7A76917B96FF00C0083E745
:103DF0003B699E42BAD03F68F6E719F0400F32D0D7
:103E0000039B142200210DA8BB60049BFB60FDF7FF
:103E100081FF039B0AA920460A93049BADF83EA0AC
:103E20000B932B1D8DF840B00C932B7B8DF84160CC
:103E3000013B8DF84280DBB2ADF83C30069B8DF83B
:103E4000433094F8243083F001038DF84430A368A4
:103E50009847FB7DC3F38403013303F01F039B02E8
:103E6000FB82002048E7FB7DC9F34012B2EBD31F71
:103E700040F0DA80C3F38403B34240F0D88007995E
:103E80004FEA99122B7B002934D0D20741D4032B5F
:103E900040F2D080039BAE1D394604F10C00BB609C
:103EA0003246049BFB602B7B033BDBB2FFF7D0FA6F
:103EB00000280DDA20463946FFF7B8FAFB7D0320CB
:103EC000C3F38403013303F01F039B02FB8213E758
:103ED000AB883B832A7B033AD2B2B88A3146FFF7DC
:103EE00033FAFB7DB882DA43C2F3C01262F3C71320
:103EF000FB75B6E76AB92E1D013B394604F10C008B
:103F0000DBB23246FFF7A4FA0028D3DB2A7B013A62
:103F1000E2E7F98A013BC1F30901DAB2052959D870
:103F2000281D002307F11A0C9A4208D910F801EB5A
:103F300001330CF801E00131DBB20629F4D1039919
:103F400093420A9138BF043304992CBF002355FAD9
:103F500083F30B9107F11A010C9179680E930D917F
:103F6000291DFB8AADF83EA0C3F309038DF840B0CC
:103F70008DF841601A44069B8DF842808DF84330DD
:103F800094F82430ADF83C2083F001038DF84430E0
:103F90000023B88A7B602A7B013AFFF7D5F93B8B77
:103FA000B882834203D1A3680AA9204698472046D5
:103FB0000AA9FFF739FEFB7DB88AC3F384030133F6
:103FC00003F01F039B02FB823B8B984214BF11201E
:103FD000002091E67B68002BB1D0062001E01C3068
:103FE0006346D3F800C0BCF1000FF8D1091A05F1FF
:103FF000040C081D00EB030905989DF8143001EB33
:10400000000EBEF11B0F9AD89A4298D91CF8013BBA
:1040100009F8013B059B01330593EDE76FF00900BB
:104020006AE66FF00A0067E66FF00D0064E66FF075
:104030000E0061E66FF00F005EE600BF80841E0098
:10404000EFF30983054968334A6B22F001024A63A2
:1040500083F30988002383F31188704700EF00E0A1
:10406000202080F3118862B60D4B0E4AD96821F4E6
:10407000E0610904090C0A430B49DA60D3F8FC201B
:1040800042F08072C3F8FC20084AC2F8B01F1168E1
:1040900041F0010111601022DA7783F822007047A5
:1040A00000ED00E00003FA0555CEACC5001000E0BD
:1040B000202310B583F311880E4B5B6813F4006363
:1040C00014D0F1EE103AEFF309844FF08073683C9E
:1040D000E361094BDB6B236684F3098800F0C2FFC0
:1040E00010B1064BA36110BD054BFBE783F31188AC
:1040F000F9E700BF00ED00E000EF00E00B0700086B
:104100000E070008026843681143016003B11847B5
:1041100070470000024A136843F0C0031360704701
:104120000078004013B50E4C204600F0A1FA04F1CF
:10413000140000234FF400720A49009400F062F961
:10414000094B4FF40072094904F13800009400F063
:10415000DBF9074A074BC4E9172302B010BD00BFC3
:10416000D45E0020405F002015410008406100201F
:104170000078004000E1F505037C30B5244C0029AF
:1041800018BF0C46012B11D1224B98420ED1224B65
:10419000D3F8E82042F08042C3F8E820D3F8102199
:1041A00042F08042C3F81021D3F810312268036E28
:1041B000C16D03EB52038466B3FBF2F3626815042E
:1041C00042BF23F0070503F0070343EA4503CB6032
:1041D000A36843F040034B60E36843F001038B6046
:1041E00042F4967343F001030B604FF0FF330B6210
:1041F000510505D512F0102205D0B2F1805F04D030
:1042000080F8643030BD7F23FAE73F23F8E700BF32
:104210000C740008D45E0020004402582DE9F047D9
:10422000C66D05463768F4692107346219D014F069
:10423000080118BF8021E20748BF41F02001A30711
:104240004FF0200348BF41F04001600748BF41F4F0
:10425000807183F31188281DFFF754FF002383F337
:104260001188E2050AD5202383F311884FF40071E9
:10427000281DFFF747FF002383F311884FF0200923
:104280004FF0000A14F0200838D13B0616D54FF045
:10429000200905F1380A200610D589F31188504607
:1042A00000F066F9002836DA0821281DFFF72AFFFA
:1042B00027F080033360002383F31188790614D537
:1042C000620612D5202383F31188D5E913239A427D
:1042D00008D12B6C33B127F040071021281DFFF7C0
:1042E00011FF3760002383F31188E30618D5AA6E07
:1042F0001369ABB15069BDE8F047184789F31188DD
:10430000736A284695F86410194000F0CBF98AF3D7
:104310001188F469B6E7B06288F31188F469BAE7E6
:10432000BDE8F087090100F16043012203F5614314
:10433000C9B283F8001300F01F039A4043099B00A1
:1043400003F1604303F56143C3F880211A607047AD
:10435000F8B51546826804460B46AA4200D2856825
:10436000A1692669761AB5420BD218462A46FDF78E
:10437000ABFCA3692B44A3612846A3685B1BA36025
:10438000F8BD0CD9AF1B18463246FDF79DFC3A46E6
:10439000E1683044FDF798FCE3683B44EBE71846DE
:1043A0002A46FDF791FCE368E5E700008368934245
:1043B000F7B50446154600D28568D4E90460361A7C
:1043C000B5420BD22A46FDF77FFC63692B4463613B
:1043D0002846A3685B1BA36003B0F0BD0DD932462D
:1043E000AF1B0191FDF770FC01993A46E06831443A
:1043F000FDF76AFCE3683B44E9E72A46FDF764FC05
:10440000E368E4E710B50A440024C361029B8460BA
:10441000C16002610362C0E90000C0E9051110BD7E
:1044200008B5D0E90532934201D1826882B9826829
:10443000013282605A1C426119700021D0E90432B5
:104440009A4224BFC368436100F0E6FE002008BD25
:104450004FF0FF30FBE7000070B5202304460E4606
:1044600083F31188A568A5B1A368A269013BA36085
:10447000531CA36115782269934224BFE368A361AA
:10448000E3690BB120469847002383F3118828463F
:1044900007E03146204600F0AFFE0028E2DA85F35F
:1044A000118870BD2DE9F74F04460E461746984611
:1044B000D0F81C904FF0200A8AF311884FF0000BBF
:1044C000154665B12A4631462046FFF741FF0346AF
:1044D00060B94146204600F08FFE0028F1D000234D
:1044E00083F31188781B03B0BDE8F08FB9F1000F9A
:1044F00003D001902046C847019B8BF31188ED1A29
:104500001E448AF31188DCE7C160C361009B8260AE
:104510000362C0E905111144C0E900000161704760
:10452000F8B504460D461646202383F31188A76884
:10453000A7B1A368013BA36063695A1C62611D7047
:10454000D4E904329A4224BFE3686361E3690BB1A2
:1045500020469847002080F3118807E03146204626
:1045600000F04AFE0028E2DA87F31188F8BD000067
:10457000D0E9052310B59A4201D182687AB98268E0
:104580000021013282605A1C82611C7803699A42C0
:1045900024BFC368836100F03FFE204610BD4FF08A
:1045A000FF30FBE72DE9F74F04460E4617469846C5
:1045B000D0F81C904FF0200A8AF311884FF0000BBE
:1045C000154665B12A4631462046FFF7EFFE034601
:1045D00060B94146204600F00FFE0028F1D00023CC
:1045E00083F31188781B03B0BDE8F08FB9F1000F99
:1045F00003D001902046C847019B8BF31188ED1A28
:104600001E448AF31188DCE70268436811430160A5
:1046100003B11847704700001430FFF743BF000094
:104620004FF0FF331430FFF73DBF00003830FFF785
:10463000B9BF00004FF0FF333830FFF7B3BF0000C1
:104640001430FFF709BF00004FF0FF311430FFF7BF
:1046500003BF00003830FFF763BF00004FF0FF32A8
:104660003830FFF75DBF000000207047FFF75ABDEC
:10467000044B036000234360C0E902330123037449
:10468000704700BF2474000810B52023044683F34C
:104690001188FFF771FD02232374002383F311882F
:1046A00010BD000038B5C36904460D461BB904218E
:1046B0000844FFF7A9FF294604F11400FFF7B0FEF4
:1046C000002806DA201D4FF48061BDE83840FFF76E
:1046D0009BBF38BD026843681143016003B11847AE
:1046E0007047000013B5406B00F58054D4F8A4382F
:1046F0001A681178042914D1017C022911D1197981
:10470000012312898B4013420BD101A94C3002F0D6
:104710009DF8D4F8A4480246019B2179206800F056
:10472000DFF902B010BD0000143002F01FB8000025
:104730004FF0FF33143002F019B800004C3002F093
:10474000F1B800004FF0FF334C3002F0EBB800003E
:10475000143001F0EDBF00004FF0FF31143001F0D4
:10476000E7BF00004C3002F0BDB800004FF0FF3250
:104770004C3002F0B7B800000020704710B500F5CB
:104780008054D4F8A4381A681178042917D1017C10
:10479000022914D15979012352898B4013420ED139
:1047A000143001F07FFF024648B1D4F8A4484FF41A
:1047B000407361792068BDE8104000F07FB910BDFA
:1047C000406BFFF7DBBF0000704700007FB5124B66
:1047D00001250426044603600023057400F18402C9
:1047E00043602946C0E902330C4B02901430019318
:1047F0004FF44073009601F031FF094B04F69442E8
:10480000294604F14C000294CDE900634FF4407353
:1048100001F0F8FF04B070BD4C740008C1470008F7
:10482000E54600080A68202383F311880B790B33CF
:1048300042F823004B79133342F823008B7913B1EC
:104840000B3342F8230000F58053C3F8A418022369
:104850000374002383F311887047000038B5037F89
:10486000044613B190F85430ABB90125201D022144
:10487000FFF730FF04F114006FF00101257700F01D
:10488000D7FC04F14C0084F854506FF00101BDE8EE
:10489000384000F0CDBC38BD10B5012104460430CD
:1048A000FFF718FF0023237784F8543010BD000071
:1048B00038B504460025143001F0E8FE04F14C0040
:1048C000257701F0B7FF201D84F854500121FFF730
:1048D00001FF2046BDE83840FFF750BF90F8803018
:1048E00003F06003202B06D190F881200023212AB9
:1048F00003D81F2A06D800207047222AFBD1C0E91E
:104900001D3303E0034A426707228267C367012021
:10491000704700BF3422002037B500F58055D5F828
:10492000A4381A68117804291AD1017C022917D1F8
:104930001979012312898B40134211D100F14C04E3
:10494000204602F037F858B101A9204601F07EFF59
:10495000D5F8A4480246019B2179206800F0C0F8F0
:1049600003B030BD01F10B03F0B550F8236085B002
:1049700004460D46FEB1202383F3118804EB85071E
:10498000301D0821FFF7A6FEFB6806F14C005B69AD
:104990001B681BB1019001F067FF019803A901F0AA
:1049A00055FF024648B1039B2946204600F098F87F
:1049B000002383F3118805B0F0BDFB685A691268C3
:1049C000002AF5D01B8A013B1340F1D104F180028B
:1049D000EAE70000133138B550F82140ECB120234C
:1049E00083F3118804F58053D3F8A428136852790F
:1049F00003EB8203DB689B695D6845B104216018A5
:104A0000FFF768FE294604F1140001F055FE204628
:104A1000FFF7B4FE002383F3118838BD7047000010
:104A200001F05EB901234022002110B5044600F8D0
:104A3000303BFDF76FF90023C4E9013310BD0000DE
:104A400010B52023044683F31188242241600021FD
:104A50000C30FDF75FF9204601F064F90223237062
:104A6000002383F3118810BD70B500EB8103054668
:104A700050690E461446DA6018B110220021FDF785
:104A800049F9A06918B110220021FDF743F9314618
:104A90002846BDE8704001F057BA00008368202224
:104AA000002103F0011310B5044683601030FDF7B8
:104AB00031F92046BDE8104001F0D2BAF0B401252A
:104AC00000EB810447898D40E4683D43A46945813A
:104AD00023600023A2606360F0BC01F0EFBA000025
:104AE000F0B4012500EB810407898D40E4683D4363
:104AF0006469058123600023A2606360F0BC01F05B
:104B000065BB000070B50223002504462422037013
:104B10002946C0F888500C3040F8045CFDF7FAF8DC
:104B2000204684F8705001F0A3F963681B6823B134
:104B300029462046BDE87040184770BD037880F8CC
:104B40008C300523037043681B6810B504460BB115
:104B5000042198470023A36010BD000090F88C202A
:104B6000436802701B680BB10521184770470000AD
:104B700070B590F87030044613B1002380F870309F
:104B800004F18002204601F08FFA63689B68B3B994
:104B900094F8803013F0600535D00021204601F0F4
:104BA00039FD0021204601F029FD63681B6813B11F
:104BB000062120469847062384F8703070BD2046B1
:104BC00098470028E4D0B4F88630A26F9A4288BF94
:104BD000A36794F98030A56F002B4FF0200380F27B
:104BE0000381002D00F0F280092284F8702083F305
:104BF000118800212046D4E91D23FFF771FF00230F
:104C000083F31188DAE794F8812003F07F0343EA05
:104C1000022340F20232934200F0C58021D8B3F55E
:104C2000807F48D00DD8012B3FD0022B00F093801D
:104C3000002BB2D104F1880262670222A267E36707
:104C4000C1E7B3F5817F00F09B80B3F5407FA4D12D
:104C500094F88230012BA0D1B4F8883043F00203DD
:104C600032E0B3F5006F4DD017D8B3F5A06F31D057
:104C7000A3F5C063012B90D86368204694F8822086
:104C80005E6894F88310B4F88430B047002884D06C
:104C9000436863670368A3671AE0B3F5106F36D003
:104CA00040F6024293427FF478AF5C4B6367022385
:104CB000A3670023C3E794F88230012B7FF46DAF24
:104CC000B4F8883023F00203A4F88830C4E91D55F5
:104CD000E56778E7B4F88030B3F5A06F0ED194F8AB
:104CE0008230204684F88A3001F020F963681B681E
:104CF00013B1012120469847032323700023C4E900
:104D00001D339CE704F18B0363670123C3E723781A
:104D1000042B10D1202383F311882046FFF7BEFE19
:104D200085F311880321636884F88B5021701B6818
:104D30000BB12046984794F88230002BDED084F8DF
:104D40008B300423237063681B68002BD6D00221AC
:104D500020469847D2E794F8843020461D0603F099
:104D60000F010AD501F092F9012804D002287FF43E
:104D700014AF2B4B9AE72B4B98E701F079F9F3E747
:104D800094F88230002B7FF408AF94F8843013F04D
:104D90000F01B3D01A06204602D501F053FCADE74F
:104DA00001F044FCAAE794F88230002B7FF4F5AEC2
:104DB00094F8843013F00F01A0D01B06204602D5D2
:104DC00001F028FC9AE701F019FC97E7142284F817
:104DD000702083F311882B462A4629462046FFF788
:104DE0006DFE85F31188E9E65DB1152284F8702027
:104DF00083F3118800212046D4E91D23FFF75EFECE
:104E0000FDE60B2284F8702083F311882B462A4696
:104E100029462046FFF764FEE3E700BF7C740008E4
:104E2000747400087874000838B590F8703004463F
:104E3000002B3ED0063BDAB20F2A34D80F2B32D8E3
:104E4000DFE803F03731310822323131313131318D
:104E500031313737856FB0F886309D4214D2C36840
:104E60001B8AB5FBF3F203FB12556DB9202383F3C4
:104E700011882B462A462946FFF732FE85F3118812
:104E80000A2384F870300EE0142384F87030202355
:104E900083F31188002320461A461946FFF70EFEB9
:104EA000002383F3118838BDC36F03B198470023F3
:104EB000E7E70021204601F0ADFB0021204601F08C
:104EC0009DFB63681B6813B10621204698470623A3
:104ED000D7E7000010B590F870300446142B29D0A5
:104EE00017D8062B05D001D81BB110BD093B022BEA
:104EF000FBD80021204601F08DFB0021204601F067
:104F00007DFB63681B6813B1062120469847062382
:104F100019E0152BE9D10B2380F87030202383F39F
:104F2000118800231A461946FFF7DAFD002383F3A0
:104F30001188DAE7C3689B695B68002BD5D1C36F22
:104F400003B19847002384F87030CEE7024B00226B
:104F5000C3E900339A6070474063002000238268F1
:104F60000374054B1B6899689142FBD25A68036031
:104F700042601060586070474063002008B52023ED
:104F800083F31188037C032B05D0042B0DD02BB9A0
:104F900083F3118808BD436900221A604FF0FF3384
:104FA0004361FFF7DBFF0023F2E7D0E90032136033
:104FB0005A60F3E7002382680374054B1B68996805
:104FC0009142FBD85A680360426010605860704795
:104FD00040630020054B1969087418680268536023
:104FE0001A60186101230374FBF77ABB4063002049
:104FF0004B1C30B5044687B00A4D10D02B6901A870
:10500000094A00F031F92046FFF7E4FF049B13B191
:1050100001A800F065F92B69586907B030BDFFF7AA
:10502000D9FFF8E7406300207D4F000838B50C4DEC
:10503000044641612B6981689A68914203D8BDE8B2
:105040003840FFF78BBF1846FFF7B4FF01232C61F0
:10505000014623742046BDE83840FBF741BB00BF42
:1050600040630020044B1A681B6990689B68984253
:1050700094BF0020012070474063002010B5084C09
:10508000236820691A6854602260012223611A741F
:10509000FFF790FF01462069BDE81040FBF720BBF9
:1050A0004063002008B5FFF7DDFF18B1BDE80840F8
:1050B000FFF7E4BF08BD0000FFF7E0BFFEE7000018
:1050C00010B50C4CFFF742FF00F0C0F880220A49EF
:1050D000204600F047F8012344F8180C0374FEF74B
:1050E000BFFF002383F3118862B60448BDE8104077
:1050F00000F058B8686300208074000890740008BD
:1051000008B572B6034B586200F00AFC00F0D8FCF8
:10511000FEE700BF4063002000F01CB9EFF31180F0
:1051200020B9EFF30583202282F311887047000035
:1051300010B530B9EFF30584C4F3080414B180F35B
:10514000118810BDFFF7AEFF84F31188F9E7000066
:10515000034A516853685B1A9842FBD8704700BFF6
:10516000001000E082600222028270478368A3F18F
:105170007C0243F80C2C026943F83C2C426943F84A
:10518000382C074A43F81C2CC268A3F1180043F8D6
:10519000102C022203F8082C002203F8072C704779
:1051A000F906000810B5202383F31188FFF7DEFF0E
:1051B00000210446FFF73AFF002383F311882046BD
:1051C00010BD0000024B1B6958610F20FFF702BFA2
:1051D00040630020202383F31188FFF7F3BF000012
:1051E00008B50146202383F311880820FFF700FF4C
:1051F000002383F3118808BD49B1064B42681B693F
:1052000018605A60136043600420FFF7F1BE4FF04E
:10521000FF307047406300200368984206D01A6848
:105220000260506018465961FFF798BE7047000051
:1052300038B504460D462068844200D138BD036865
:1052400023605C604561FFF789FEF4E7054B4FF092
:10525000FF3103F11402C3E905220022C3E907125A
:10526000704700BF4063002070B51C4E05460C46D9
:10527000C0E9032301F0D4FB334653F8142F9A42BC
:105280000DD130620A2C2CBF00190A302A60C5E902
:105290000124C6E90555BDE8704001F0ABBB316A99
:1052A000431AE31838BF1C469368A34202D9081971
:1052B00001F0B0FB73699A6894420CD85A68AC60EC
:1052C0002B606A6015609A685D60121B9A604FF0EF
:1052D000FF33F36170BDA41A1B68ECE74063002044
:1052E00038B51B4C636998420DD08168D0E9003213
:1052F00013605A600022C2609A680A449A604FF0B4
:10530000FF33E36138BD03682246002142F8143FB1
:1053100093425A60C16003D1BDE8384001F074BBCC
:105320009A688168256A0A449A6001F079FB63698A
:10533000411B9A688A42E5D9AB181D1A206A092DCB
:1053400098BF01F10A02BDE83840104401F062BB89
:10535000406300202DE9F041184C002704F11406A9
:10536000656901F05DFB236AAA68C11A8A4215D8F3
:105370001344D5F80C802362D5E9003213605A60DB
:105380006369EF60B34201D101F03EFB87F31188FE
:105390002869C047202383F31188E1E76169B1429E
:1053A00009D013441B1ABDE8F0410A2B2CBFC018CA
:1053B0000A3001F02FBBBDE8F08100BF4063002040
:1053C00000207047FEE70000704700004FF0FF30FC
:1053D0007047000002290CD0032904D00129074896
:1053E00018BF00207047032A05D8054800EBC2000B
:1053F0007047044870470020704700BF747500086C
:10540000442200202875000870B59AB00546084669
:10541000144601A900F0C2F801A8FCF773FC431C74
:105420000022C6B25B001046C5E900342370032396
:10543000023404F8013C01ABD1B202348E4201D8EF
:105440001AB070BD13F8011B013204F8010C04F806
:10545000021CF1E708B5202383F311880348FFF706
:105460005BFA002383F3118808BD00BFF8640020B5
:1054700090F8803003F01F02012A07D190F88120B4
:105480000B2A03D10023C0E91D3315E003F06003AC
:10549000202B08D1B0F884302BB990F88120212A34
:1054A00003D81F2A04D8FFF719BA222AEBD0FAE74B
:1054B000034A426707228267C3670120704700BF23
:1054C0003B22002007B5052917D8DFE801F019169F
:1054D00003191920202383F31188104A0121019018
:1054E000FFF7C2FA019802210D4AFFF7BDFA0D48F5
:1054F000FFF7DEF9002383F3118803B05DF804FBA6
:10550000202383F311880748FFF7A8F9F2E7202347
:1055100083F311880348FFF7BFF9EBE7C87400086D
:10552000EC740008F864002038B50C4D0C4C2A4689
:105530000C4904F10800FFF767FF05F1CA0204F106
:1055400010000949FFF760FF05F5CA7204F1180061
:105550000649BDE83840FFF757BF00BFD07D0020A7
:1055600044220020A8740008B2740008BD7400082A
:1055700070B5044608460D46FCF7C4FBC6B220468B
:10558000013403780BB9184670BD32462946FCF742
:10559000A5FB0028F3D10120F6E700002DE9F04734
:1055A00005460C46FCF7AEFB2C49C6B22846FFF771
:1055B000DFFF08B11036F6B229492846FFF7D8FFB9
:1055C00008B11036F6B2632E0BD8DFF89080DFF802
:1055D0009090244FDFF898A02E7846B92670BDE849
:1055E000F08729462046BDE8F04701F03DBE252E54
:1055F00030D1072241462846FCF770FB80B91A4B90
:10560000224603F1140153F8040B8B4242F8040BB9
:10561000F9D1198807359B78173411809370DBE72F
:10562000082249462846FCF759FB98B9A21C0F4BA3
:10563000197802320909C95D02F8041C13F8011B2C
:1056400001F00F015345C95D02F8031CF0D1183475
:105650000835C1E7013504F8016BBDE79475000812
:10566000BD740008B47500089C75000800E8F11FBF
:105670000CE8F11FBFF34F8F044B1A695107FCD19F
:10568000D3F810215207F8D1704700BF0020005214
:1056900008B50D4B1B78ABB9FFF7ECFF0B4BDA6885
:1056A000D10704D50A4A5A6002F188325A60D3F809
:1056B0000C21D20706D5064AC3F8042102F188322C
:1056C000C3F8042108BD00BF2E8000200020005236
:1056D0002301674508B5114B1B78F3B9104B1A69C4
:1056E000510703D5DA6842F04002DA60D3F810219E
:1056F000520705D5D3F80C2142F04002C3F80C2123
:10570000FFF7B8FF064BDA6842F00102DA60D3F81F
:105710000C2142F00102C3F80C2108BD2E800020AC
:10572000002000520F289ABF00F58060400400203E
:10573000704700004FF400307047000010207047A1
:105740000F2808B50BD8FFF7EDFF00F5003302680E
:10575000013204D104308342F9D1012008BD002078
:10576000FCE700000F2870B5054645D8FFF7D6FCCA
:10577000224CFFF77FFF0646FFF78AFF4FF0FF330B
:10578000072D6361C4F8143120D82361FFF772FF3D
:105790002B0243F02403E360E36843F08003E360FB
:1057A00023695A07FCD42846FFF764FF4FF4003101
:1057B000FFF7B8FF00F060F93046FFF78BFFFFF707
:1057C000B7FC2846BDE87040FFF7BABFC4F81031F7
:1057D000FFF750FFA5F108031B0243F02403C4F8B0
:1057E0000C31D4F80C3143F08003C4F80C31D4F8F8
:1057F00010315B07FBD4D6E7002070BD00200052BB
:105800002DE9F84F40EA020305460C461746D80634
:1058100002D00020BDE8F88F27F01F07DFF8D4B0D2
:10582000FFF736FF2744BC4203D10120FFF752FFA8
:10583000F0E720222946204601F098FC10B92035D7
:105840002034F0E72B4605F120021E68711CE0D1E0
:1058500004339A42F9D1FFF761FC05F17843234AFA
:10586000B3F5801F224B28BF9A4603F1040338BFCB
:105870009046A2F1080228BF9846A3F108033ABF58
:105880009146DA469946FFF7F5FEC8F80060A5EBA9
:10589000040CD9F8002004F11C0142F00202C9F8FE
:1058A0000020221FDAF8006016F00506FAD152F83F
:1058B000043F8A424CF80230F4D1BFF34F8FFFF718
:1058C000D9FE4FF0FF32C8F80020D9F8002022F0AE
:1058D0000202C9F80020FFF72BFC202221462846AF
:1058E00001F044FC0028AAD030469FE71420005263
:1058F000102100521020005210B5084C237828B116
:105900001BB9FFF7C5FE0123237010BD002BFCD08F
:105910002070BDE81040FFF7DDBE00BF2E800020E4
:1059200038B5054D00240334696855F80C0B00F0B8
:10593000B5F8122CF7D138BDC875000870B5104EF7
:1059400082B0FFF7EBFB054601F06AF832680346C8
:105950009042336037BF0B4A0A495168146836BF1A
:105960000131D1E9004151600419284641F100019B
:105970000191FFF7DDFB2046019902B070BD00BF29
:10598000308000203880002070B5124E82B0FFF7C2
:10599000C5FB054601F044F8326803469042336087
:1059A00037BF0D4A0C495168146836BF0131D1E93F
:1059B000004151600419284641F100010191FFF7AF
:1059C000B7FB4FF47A72002320460199FAF770FC76
:1059D00002B070BD30800020388000200244074BA8
:1059E000D2B210B5904200D110BD441C00B253F8A1
:1059F000200041F8040BE0B2F4E700BF504000582B
:105A00000E4B30B51C6F240405D41C6F1C671C6F33
:105A100044F400441C670A4C02442368D2B243F4A5
:105A200080732360074B904200D130BD441C51F875
:105A3000045B00B243F82050E0B2F4E7004402589F
:105A4000004802585040005807B5012201A9002023
:105A5000FFF7C4FF019803B05DF804FB13B50446DB
:105A6000FFF7F2FFA04205D0012201A90020019416
:105A7000FFF7C6FF02B010BD0144BFF34F8F064BC6
:105A8000884204D3BFF34F8FBFF36F8F7047C3F8C3
:105A90005C022030F4E700BF00ED00E00144BFF3FA
:105AA0004F8F064B884204D3BFF34F8FBFF36F8FE6
:105AB0007047C3F870022030F4E700BF00ED00E04B
:105AC00070470000074B45F255521A6002225A6097
:105AD00040F6FF729A604CF6CC421A600122024BEB
:105AE0001A7070470048005844800020034B1B7810
:105AF0001BB1034B4AF6AA221A607047448000206B
:105B000000480058034B1A681AB9034AD2F8D02447
:105B10001A6070474080002000400258024B4FF44A
:105B20008032C3F8D02470470040025808B5FFF710
:105B3000E9FF024B1868C0F3806008BD4080002078
:105B400070B5BFF34F8FBFF36F8F1A4A0021C2F8B1
:105B50005012BFF34F8FBFF36F8F536943F400337D
:105B60005361BFF34F8FBFF36F8FC2F88410BFF341
:105B70004F8FD2F8803043F6E074C3F3C900C3F30B
:105B80004E335B0103EA0406014646EA817501399A
:105B9000C2F86052F9D2203B13F1200FF2D1BFF3CB
:105BA0004F8F536943F480335361BFF34F8FBFF37B
:105BB0006F8F70BD00ED00E0FEE700000A4B0B4860
:105BC0000B4A90420BD30B4BC11EDA1C121A22F067
:105BD00003028B4238BF00220021FCF79BB853F828
:105BE000041B40F8041BECE75078000820820020DA
:105BF00020820020208200207047000070B5D0E98C
:105C0000244300224FF0FF359E6804EB42135101FC
:105C1000D3F80009002805DAD3F8000940F08040E5
:105C2000C3F80009D3F8000B002805DAD3F8000BFD
:105C300040F08040C3F8000B013263189642C3F86D
:105C40000859C3F8085BE0D24FF00113C4F81C38C0
:105C500070BD000000EB8103D3F80CC02DE9F043C8
:105C6000DCF814204E1CD0F89050D2F800E005EB80
:105C7000063605EB4118506870450AD30122D5F865
:105C8000343802FA01F123EA0101C5F83418BDE8FD
:105C9000F083AEEB0003BCF81040A34228BF2346BC
:105CA000D8F81849A4B2B3EB840FF0D89468A4F1E3
:105CB000040959F8047F3760A4EB09071F44042F37
:105CC000F7D81C44034494605360D4E7890141F041
:105CD0002001016103699B06FCD41220FFF738BA4A
:105CE00010B50A4C2046FEF79DFE094BC4F89030D3
:105CF000084BC4F89430084C2046FEF793FE074B3F
:105D0000C4F89030064BC4F8943010BD4880002091
:105D10000000084034760008E480002000000440C1
:105D20004076000870B503780546012B5DD1494BDC
:105D3000D0F89040984259D1474B0E216520D3F8B6
:105D4000D82042F00062C3F8D820D3F8002142F0F6
:105D50000062C3F80021D3F80021D3F8802042F07C
:105D60000062C3F88020D3F8802022F00062C3F8DC
:105D70008020D3F88030FEF7D5FA384BE360384BFB
:105D8000C4F800380023D5F89060C4F8003EC02362
:105D900023604FF40413A3633369002BFCDA01235F
:105DA0000C203361FFF7D4F93369DB07FCD41220F0
:105DB000FFF7CEF93369002BFCDA00262846A660EF
:105DC000FFF71CFF6B68C4F81068DB68C4F8146840
:105DD000C4F81C68002B3AD1224BA3614FF0FF336B
:105DE0006361A36843F00103A36070BD1E4B98423A
:105DF000C8D1194B0E214D20D3F8D82042F00072A3
:105E0000C3F8D820D3F8002142F00072C3F8002173
:105E1000D3F80021D3F8802042F00072C3F880202C
:105E2000D3F8802022F00072C3F88020D3F88020BD
:105E3000D3F8D82022F08062C3F8D820D3F800210C
:105E400022F08062C3F80021D3F8003193E7074BBA
:105E5000C3E700BF488000200044025840140040BF
:105E600003002002003C30C0E4800020083C30C029
:105E7000F8B5D0F89040054600214FF00066204666
:105E8000FFF724FFD5F8941000234FF001128F681C
:105E90004FF0FF30C4F83438C4F81C2804EB431228
:105EA00001339F42C2F80069C2F8006BC2F80809CA
:105EB000C2F8080BF2D20B68D5F89020C5F89830DC
:105EC000636210231361166916F01006FBD11220CD
:105ED000FFF73EF9D4F8003823F4FE63C4F8003825
:105EE000A36943F4402343F01003A3610923C4F8DA
:105EF0001038C4F814380B4BEB604FF0C043C4F8B3
:105F0000103B094BC4F8003BC4F81069C4F80039D1
:105F1000D5F8983003F1100243F48013C5F89820A7
:105F2000A362F8BD1076000840800010D0F89020E1
:105F300090F88A10D2F8003823F4FE6343EA011384
:105F4000C2F80038704700002DE9F84300EB8103E8
:105F5000D0F890500C468046DA680FFA81F9480173
:105F6000166806F00306731E022B05EB41134FF073
:105F7000000194BFB604384EC3F8101B4FF0010166
:105F800004F1100398BF06F1805601FA03F39169FA
:105F900098BF06F5004600293AD0578A04F1580107
:105FA000374349016F50D5F81C180B430021C5F841
:105FB0001C382B180127C3F81019A7405369611E1C
:105FC0009BB3138A928B9B08012A88BF5343D8F84E
:105FD0009820981842EA034301F140022146C8F88C
:105FE0009800284605EB82025360FFF76FFE08EB2E
:105FF0008900C3681B8A43EA845348341E43640102
:106000002E51D5F81C381F43C5F81C78BDE8F8831D
:1060100005EB4917D7F8001B21F40041C7F8001B16
:10602000D5F81C1821EA0303C0E704F13F030B4A2B
:106030002846214605EB83035A60FFF747FE05EB30
:106040004910D0F8003923F40043C0F80039D5F8DE
:106050001C3823EA0707D7E700800010000400027D
:10606000D0F894201268C0F89820FFF7C7BD000050
:106070005831D0F8903049015B5813F4004004D0F7
:1060800013F4001F0CBF0220012070474831D0F8E4
:10609000903049015B5813F4004004D013F4001F02
:1060A0000CBF02200120704700EB8101CB68196A08
:1060B0000B6813604B6853607047000000EB81036E
:1060C00030B5DD68AA691368D36019B9402B84BF65
:1060D000402313606B8A1468D0F890201C4402EBB4
:1060E0004110013C09B2B4FBF3F46343033323F0E2
:1060F000030343EAC44343F0C043C0F8103B2B689A
:1061000003F00303012B0ED1D2F8083802EB411043
:1061100013F4807FD0F8003B14BF43F0805343F06A
:106120000053C0F8003B02EB4112D2F8003B43F0B1
:106130000443C2F8003B30BD2DE9F041D0F8906037
:1061400005460C4606EB4113D3F8087B3A07C3F823
:10615000087B08D5D6F814381B0704D500EB81035B
:10616000DB685B689847FA071FD5D6F81438DB0759
:106170001BD505EB8403D968CCB98B69488A5A686A
:10618000B2FBF0F600FB16228AB91868DA68904272
:106190000DD2121AC3E90024202383F3118821466B
:1061A0002846FFF78BFF84F31188BDE8F0810123B7
:1061B00003FA04F26B8923EA02036B81CB68002B9C
:1061C000F3D021462846BDE8F041184700EB810393
:1061D0004A0170B5DD68D0F890306C692668E660D9
:1061E00056BB1A444FF40020C2F810092A6802F086
:1061F0000302012A0AB20ED1D3F8080803EB4214B5
:1062000010F4807FD4F8000914BF40F0805040F0B3
:106210000050C4F8000903EB4212D2F8000940F024
:106220000440C2F800090122D3F8340802FA01F14F
:106230000143C3F8341870BD19B9402E84BF402003
:10624000206020681A442E8A8419013CB4FBF6F4BD
:1062500040EAC44040F00050C6E700002DE9F0419C
:10626000D0F8906004460D4606EB4113D3F8087948
:10627000C3F80879FB071CD5D6F81038DA0718D50B
:1062800000EB8103D3F80CC0DCF81430D3F800E045
:10629000DA6896451BD2A2EB0E024FF000081A6096
:1062A000C3F80480202383F31188FFF78FFF88F35E
:1062B00011883B0618D50123D6F83428AB40134289
:1062C00012D029462046BDE8F041FFF7C3BC0123A8
:1062D00003FA01F2038923EA02030381DCF80830A0
:1062E000002BE6D09847E4E7BDE8F0812DE9F84FB0
:1062F000D0F8905004466E69AB691E4016F4805881
:106300006E6103D0BDE8F84FFEF7FCBB002E12DA39
:10631000D5F8003E9F0705D0D5F8003E23F00303D3
:10632000C5F8003ED5F80438204623F00103C5F82F
:106330000438FEF713FC300505D52046FFF75EFC58
:106340002046FEF7FBFBB1040CD5D5F8083813F056
:10635000060FEB6823F470530CBF43F4105343F45F
:10636000A053EB60320704D56368DB680BB12046AD
:106370009847F30200F1BA80B70226D5D4F890907E
:1063800000274FF0010A09EB4712D2F8003B03F453
:106390004023B3F5802F11D1D2F8003B002B0DDA4A
:1063A00062890AFA07F322EA0303638104EB870395
:1063B000DB68DB6813B13946204698470137D4F8CB
:1063C0009430FFB29B689F42DDD9F00619D5D4F80E
:1063D0009000026AC2F30A1702F00F0302F4F012EF
:1063E000B2F5802F00F0CC80B2F5402F09D104EB3C
:1063F0008303002200F58050DB681B6A974240F05F
:10640000B2803003D5F8185835D5E90303D50021FB
:106410002046FFF791FEAA0303D501212046FFF78E
:106420008BFE6B0303D502212046FFF785FE2F0369
:1064300003D503212046FFF77FFEE80203D50421A0
:106440002046FFF779FEA90203D505212046FFF774
:1064500073FE6A0203D506212046FFF76DFE2B026C
:1064600003D507212046FFF767FEEF0103D508217A
:106470002046FFF761FE700340F1A980E90703D5CC
:1064800000212046FFF7EAFEAA0703D50121204696
:10649000FFF7E4FE6B0703D502212046FFF7DEFE7F
:1064A0002F0703D503212046FFF7D8FEEE0603D5BC
:1064B00004212046FFF7D2FEA80603D50521204679
:1064C000FFF7CCFE690603D506212046FFF7C6FE7E
:1064D0002A0603D507212046FFF7C0FEEB0576D537
:1064E00020460821BDE8F84FFFF7B8BED4F89090D9
:1064F00000274FF0010AD4F894305FFA87FB9B68BD
:106500009B453FF639AF09EB4B13D3F8002902F452
:106510004022B2F5802F24D1D3F80029002A20DAB6
:10652000D3F8002942F09042C3F80029D3F800299B
:10653000002AFBDB5946D4F89000FFF7C7FB2289FD
:106540000AFA0BF322EA0303238104EB8B03DB68D3
:106550009B6813B159462046984759462046FFF795
:1065600079FB0137C7E7910701D1D0F80080072AEE
:1065700002F101029CBF03F8018B4FEA18283DE7A6
:1065800004EB830300F58050DA68D2F818C0DCF819
:106590000820DCE9001CA1EB0C0C00218F4208D183
:1065A000DB689B699A683A449A605A683A445A6030
:1065B00027E711F0030F01D1D0F800808C4501F1DD
:1065C000010184BF02F8018B4FEA1828E6E7BDE815
:1065D000F88F000008B50348FFF788FEBDE80840C3
:1065E000FDF766BD4880002008B50348FFF77EFE32
:1065F000BDE80840FDF75CBDE4800020D0F8903095
:1066000003EB4111D1F8003B43F40013C1F8003B08
:1066100070470000D0F8903003EB4111D1F80039F9
:1066200043F40013C1F8003970470000D0F89030EF
:1066300003EB4111D1F8003B23F40013C1F8003BF8
:1066400070470000D0F8903003EB4111D1F80039C9
:1066500023F40013C1F800397047000030B504334B
:10666000039C0172002104FB0325C160C0E90653AD
:10667000049B0363059BC0E90000C0E90422C0E954
:106680000842C0E90A11436330BD00000022416A9C
:10669000C260C0E90411C0E90A226FF00101FEF7EF
:1066A000C7BD0000D0E90432934201D1C2680AB9E3
:1066B000181D704700207047036919600021C268E7
:1066C0000132C260C269134482699342036124BFEC
:1066D000436A0361FEF7A0BD38B504460D46E36882
:1066E0003BB162690020131D1268A3621344E36288
:1066F00007E0237A33B929462046FEF77DFD0028BE
:10670000EDDA38BD6FF00100FBE70000C368C26935
:10671000013BC3604369134482699342436124BFD0
:10672000436A436100238362036B03B118477047D8
:1067300070B52023044683F31188866A3EB9FFF7BB
:10674000CBFF054618B186F31188284670BDA36AB1
:10675000E26A13F8015B9342A36202D32046FFF77B
:10676000D5FF002383F31188EFE700002DE9F84FF0
:1067700004460E46174698464FF0200989F31188C3
:106780000025AA46D4F828B0BBF1000F09D1414634
:106790002046FFF7A1FF20B18BF311882846BDE802
:1067A000F88FD4E90A12A7EB050B521A934528BFBC
:1067B0009346BBF1400F1BD9334601F1400251F81B
:1067C000040B914243F8040BF9D1A36A40364035DB
:1067D0004033A362D4E90A239A4202D32046FFF74A
:1067E00095FF8AF31188BD42D8D289F31188C9E791
:1067F00030465A46FBF768FAA36A5E445D445B4440
:10680000A362E7E710B5029C0433017204FB032185
:10681000C460C0E906130023C0E90A33039B036385
:10682000049BC0E90000C0E90422C0E908424363B8
:1068300010BD0000026A6FF00101C260426AC0E947
:1068400004220022C0E90A22FEF7F2BCD0E90423A8
:106850009A4201D1C26822B9184650F8043B0B6035
:106860007047002070470000C3680021C2690133EF
:10687000C3604369134482699342436124BF436AFE
:106880004361FEF7C9BC000038B504460D46E36815
:106890003BB1236900201A1DA262E2691344E3623E
:1068A00007E0237A33B929462046FEF7A5FC0028E5
:1068B000EDDA38BD6FF00100FBE7000003691960F5
:1068C000C268013AC260C26913448269934203619B
:1068D00024BF436A036100238362036B03B118473B
:1068E0007047000070B520230D460446114683F31F
:1068F0001188866A2EB9FFF7C7FF10B186F3118899
:1069000070BDA36A1D70A36AE26A01339342A36259
:1069100004D3E16920460439FFF7D0FF002080F35B
:106920001188EDE72DE9F84F04460D46904699464B
:106930004FF0200A8AF311880026B346A76A4FB9A0
:1069400049462046FFF7A0FF20B187F31188304663
:10695000BDE8F88FD4E90A073A1AA8EB0607974270
:1069600028BF1746402F1BD905F1400355F8042BCB
:106970009D4240F8042BF9D1A36A40364033A3620C
:10698000D4E90A239A4204D3E16920460439FFF787
:1069900095FF8BF311884645D9D28AF31188CDE74C
:1069A00029463A46FBF790F9A36A3D443E443B44EE
:1069B000A362E5E7D0E904239A4217D1C3689BB1EB
:1069C000836A8BB1043B9B1A0ED01360C368013BF2
:1069D000C360C3691A4483699A42026124BF436A4F
:1069E0000361002383620123184670470023FBE7FD
:1069F00000F0CEB8034B002258631A610222DA601D
:106A0000704700BF000C0040014B0022DA60704765
:106A1000000C0040014B5863704700BF000C004061
:106A2000014B586A704700BF000C00404B68436040
:106A30008B688360CB68C3600B6943614B690362F9
:106A40008B6943620B6803607047000008B5364BE2
:106A500040F2FF713548D3F888200A43C3F88820F4
:106A6000D3F8882022F4FF6222F00702C3F88820BE
:106A7000D3F88820D3F8E0200A43C3F8E020D3F805
:106A800008210A43C3F80821294AD3F808311146DE
:106A9000FFF7CCFF00F5806002F11C01FFF7C6FF95
:106AA00000F5806002F13801FFF7C0FF00F580605B
:106AB00002F15401FFF7BAFF00F5806002F17001A6
:106AC000FFF7B4FF00F5806002F18C01FFF7AEFF25
:106AD00000F5806002F1A801FFF7A8FF00F58060D3
:106AE00002F1C401FFF7A2FF00F5806002F1E001AE
:106AF000FFF79CFF00F5806002F1FC01FFF796FFB5
:106B000002F58C7100F58060FFF790FF00F0F4F85B
:106B1000084B0522C3F898204FF06052C3F89C2020
:106B2000054AC3F8A02008BD0044025800000258DE
:106B30004C76000800ED00E01F00080308B500F0E7
:106B4000D7FAFEF7BDFA0F4BD3F8DC2042F0400233
:106B5000C3F8DC20D3F8042122F04002C3F804215A
:106B6000D3F80431084B1A6842F008021A601A6818
:106B700042F004021A60FEF7C5FFBDE80840FEF7C8
:106B8000D3BC00BF00440258001802487047000000
:106B9000114BD3F8E82042F00802C3F8E820D3F8FC
:106BA000102142F00802C3F810210C4AD3F810312A
:106BB000D36B43F00803D363C722094B9A624FF0AB
:106BC000FF32DA6200229A615A63DA605A60012267
:106BD0005A611A60704700BF004402580010005C00
:106BE000000C0040094A08B51169D3680B40D9B2BE
:106BF0009B076FEA0101116107D5202383F31188F8
:106C0000FEF78AFA002383F3118808BD000C0040C8
:106C1000384B4FF0FF31D3F88020C3F88010D3F801
:106C200080200022C3F88020D3F88000D3F88400AD
:106C3000C3F88410D3F88400C3F88420D3F8840008
:106C4000D86F40F0FF4040F4FF0040F43F5040F068
:106C50003F00D867D86F20F0FF4020F4FF0020F4F9
:106C60003F5020F03F00D867D86FD3F888006FEA14
:106C700040506FEA5050C3F88800D3F88800C0F342
:106C80000A00C3F88800D3F88800D3F89000C3F84E
:106C90009010D3F89000C3F89020D3F89000D3F868
:106CA0009400C3F89410D3F89400C3F89420D3F858
:106CB0009400D3F89800C3F89810D3F89800C3F85C
:106CC0009820D3F89800D3F88C00C3F88C10D3F830
:106CD0008C00C3F88C20D3F88C00D3F89C00C3F848
:106CE0009C10D3F89C10C3F89C20D3F89C3000F083
:106CF000D3B900BF00440258614B0122C3F80821F8
:106D0000604BD3F8F42042F00202C3F8F420D3F829
:106D10001C2142F00202C3F81C210222D3F81C31CC
:106D2000594BDA605A689104FCD5584A1A6001221E
:106D30009A60574ADA6000221A614FF440429A6121
:106D4000514B9A699204FCD51A6842F480721A6019
:106D50004C4B1A6F12F4407F04D04FF480321A6704
:106D600000221A671A6842F001021A60454B1A683D
:106D70005007FCD500221A611A6912F03802FBD1C3
:106D8000012119604FF0804159605A67414ADA6227
:106D9000414A1A611A6842F480321A60394B1A6803
:106DA0009103FCD51A6842F480521A601A68920462
:106DB000FCD53A4A3A499A6200225A631963394922
:106DC000DA6399635A64384A1A64384ADA621A688C
:106DD00042F0A8521A602B4B1A6802F02852B2F106
:106DE000285FF9D148229A614FF48862DA61402223
:106DF0001A622F4ADA644FF080521A652D4A5A659A
:106E00002D4A9A6532232D4A1360136803F00F034D
:106E1000022BFAD11B4B1A6942F003021A611A695C
:106E200002F03802182AFAD1D3F8DC2042F00052DE
:106E3000C3F8DC20D3F8042142F00052C3F8042147
:106E4000D3F80421D3F8DC2042F08042C3F8DC20E0
:106E5000D3F8042142F08042C3F80421D3F804217E
:106E6000D3F8DC2042F00042C3F8DC20D3F8042140
:106E700042F00042C3F80421D3F80431704700BF48
:106E800000800051004402580048025800C000F041
:106E9000020000010000FF0100889008322060001D
:106EA000630209011D02040047040508FD0BFF01F0
:106EB000200000200010E00000010100002000522E
:106EC0004FF0B04208B5D2F8883003F00103C2F8A1
:106ED000883023B1044A13680BB150689847BDE865
:106EE0000840FDF7E5B800BF988100204FF0B042A0
:106EF00008B5D2F8883003F00203C2F8883023B115
:106F0000044A93680BB1D0689847BDE80840FDF784
:106F1000CFB800BF988100204FF0B04208B5D2F83A
:106F2000883003F00403C2F8883023B1044A13699F
:106F30000BB150699847BDE80840FDF7B9B800BFEC
:106F4000988100204FF0B04208B5D2F8883003F0A5
:106F50000803C2F8883023B1044A93690BB1D069A1
:106F60009847BDE80840FDF7A3B800BF988100200E
:106F70004FF0B04208B5D2F8883003F01003C2F8E1
:106F8000883023B1044A136A0BB1506A9847BDE8B0
:106F90000840FDF78DB800BF988100204FF0B04346
:106FA00010B5D3F8884004F47872C3F88820A3069B
:106FB00004D5124A936A0BB1D06A9847600604D58B
:106FC0000E4A136B0BB1506B9847210604D50B4A40
:106FD000936B0BB1D06B9847E20504D5074A136C4D
:106FE0000BB1506C9847A30504D5044A936C0BB1C0
:106FF000D06C9847BDE81040FDF75AB89881002042
:107000004FF0B04310B5D3F8884004F47C42C3F885
:107010008820620504D5164A136D0BB1506D984750
:10702000230504D5124A936D0BB1D06D9847E00447
:1070300004D50F4A136E0BB1506E9847A10404D5C6
:107040000B4A936E0BB1D06E9847620404D5084A80
:10705000136F0BB1506F9847230404D5044A936F04
:107060000BB1D06F9847BDE81040FDF721B800BFC5
:107070009881002008B50348FDF7D0F8BDE8084026
:10708000FDF716B8D45E002008B5FFF7ABFDBDE8EC
:107090000840FDF70DB80000062108B50846FDF7C9
:1070A00041F906210720FDF73DF906210820FDF7EB
:1070B00039F906210920FDF735F906210A20FDF7E7
:1070C00031F906211720FDF72DF906212820FDF7BB
:1070D00029F909217A20FDF725F907213220FDF74A
:1070E00021F90C215220BDE80840FDF71BB9000032
:1070F00008B5FFF78DFD00F00DF8FDF7B7FAFDF7C5
:107100008FFCFDF761FBFFF741FDBDE80840FFF78D
:107110006FBC00000023054A19460133102BC2E959
:10712000001102F10802F8D1704700BF98810020D9
:107130000B460146184600F003B8000000F00EB8F8
:1071400010B5054C13462CB10A4601460220AFF398
:10715000008010BD2046FCE700000000024B014605
:10716000186800F035B800BF6422002010B501395E
:107170000244904201D1002005E0037811F8014F4C
:10718000A34201D0181B10BD0130F2E72DE9F041F8
:10719000A3B1C91A17780144044603F1FF3C8C429D
:1071A000204601D9002009E00578BD4204F1010420
:1071B000F5D10CEB0405D618A54201D1BDE8F0814C
:1071C00015F8018D16F801EDF045F5D0E7E7000060
:1071D00037B5002944D051F8043C0190002BA1F1AF
:1071E0000404B8BFE41800F047F81E4A0198136879
:1071F00033B96360146003B0BDE8304000F042B8BA
:10720000A34208D9256861198B4201BF19685B68E0
:1072100049192160EDE71A465B680BB1A342FAD920
:1072200011685518A5420BD1246821445418A34273
:107230001160E0D11C685B68536021441160DAE79B
:1072400002D90C230360D6E7256861198B4204BF7D
:1072500019685B68636004BF491921605460CAE71C
:1072600003B030BD18820020034611F8012B03F84B
:10727000012B002AF9D17047014800F009B800BF7E
:107280001C820020014800F005B800BF1C820020CD
:1072900070470000704700006F72672E617264755E
:1072A00070696C6F742E437562654F72616E6765AD
:1072B0002D706572697068004E6F20617070207368
:1072C00069670A00426164206677206C656E6774A6
:1072D000682025750A0042616420626F6172645FF4
:1072E00069642025752073686F756C642062652061
:1072F00025750A00426164206677206465736372B5
:107300006970746F72206C656E6774682025750AE9
:107310000042616420617070204352432030782520
:107320003038783A30782530387820307825303841
:10733000783A3078253038780A00476F6F642066D5
:1073400069726D776172650A0040A2E4F164689128
:107350000600000053544D333248373F3F3F00533F
:10736000544D3332483734332F3735330000000063
:10737000F8640020D45E002043414E4644496661D3
:1073800063653A204D6573736167652052414D20F6
:107390004F766572666C6F77210000004261642051
:1073A00043414E496661636520696E6465782E00CD
:1073B000000100000001FF0000A0004000A4004008
:1073C0000000000000000000C1250008991E000810
:1073D000012D00088D1E0008091F00081923000850
:1073E00081200008D11E0008D51E0008911E00084B
:1073F000AD1E0008951E0008D9220008B91E00081D
:107400000D2E0008C51E0008AD22000800960000E1
:10741000000000000000000000000000000000006C
:10742000000000000000000035460008214600086A
:107430005D460008494600085546000841460008D8
:107440002D460008194600086946000800000000A3
:1074500045470008314700086D47000859470008B4
:1074600065470008514700083D47000829470008C4
:107470007947000800000000010000000000000043
:107480006D61696E0000000069646C6500000000B9
:107490008874000880630020F86400200100000068
:1074A000BD500008000000004172647550696C6FA7
:1074B000740025424F415244252D424C002553452E
:1074C0005249414C2500000002000000000000006D
:1074D00065490008D549000840004000A07D002013
:1074E000B07D00200200000000000000030000004A
:1074F000000000001D4A000800000000100000000D
:10750000C07D00200000000001000000000000001D
:107510004880002001010200C5540008D55300082E
:1075200071540008555400084300000030750008ED
:1075300009024300020100C03209040000010202F6
:1075400001000524001001052401000104240202A9
:107550000524060001070582030800FF0904010055
:10756000020A000000070501024000000705810231
:1075700040000000120000007C750008120110019C
:1075800002000040091241570002010203010000FD
:107590000403090425424F415244250043756265A6
:1075A0004F72616E67652D7065726970682D6865D0
:1075B00061767900303132333435363738394142EB
:1075C0004344454600000000000000200000020087
:1075D0000200000000010030000000000000000078
:1075E0000000002400000800040000000004000067
:1075F00000FC0000020000000000043000800000D9
:107600000000000000000038000001000100000040
:1076100000000000714B0008294E0008D54E0008FC
:107620004000400080810020808100200100000097
:107630009081002080000000400100000800000050
:107640000001000000040000080000000000802A83
:1076500000000000AAAAAAAA00000024FFFF000060
:107660000000000000A00A0000210002000000004D
:10767000AAAAAAAA00000000FFFF0000000000095B
:10768000000009001400005400000000AAAAAAAAE1
:1076900014000054FFFF0000000000000000000084
:1076A0000A40100000000000AAAA8AAA00401000A8
:1076B000FFFF0000990000000000000000810200B0
:1076C00000000000AAAAAAAA00410100FFFF0000D2
:1076D0000000007007000000000000000000000033
:1076E000AAAAAAAA00000000FFFF000000000000F4
:1076F000000000000000000000000000AAAAAAAAE2
:1077000000000000FFFF000000000000000000007B
:107710000000000000000000AAAAAAAA00000000C1
:10772000FFFF00000000000000000000000000005B
:1077300000000000AAAAAAAA00000000FFFF0000A3
:107740000000000000000000000000000000000039
:10775000AAAAAAAA00000000FFFF00000000000083
:10776000000000000000000000000000AAAAAAAA71
:1077700000000000FFFF000000000000000000000B
:10778000608BFF7F01000000780500000000000012
:1077900000001E0000000000FE2A0100D2040000CC
:1077A000FF00000000000000547300083F000000CC
:1077B000500400005F7300083F00000000960000C6
:1077C000000008009600000000080000040000000F
:1077D000907500080000000000000000000000009C
:1077E00000000000000000000000000068220020EF
:1077F0000000000000000000000000000000000089
:107800000000000000000000000000000000000078
:107810000000000000000000000000000000000068
:107820000000000000000000000000000000000058
:107830000000000000000000000000000000000048
:107840000000000000000000000000000000000038
:00000001FF
