:020000040800F2
:100000000009002069040008C114000865140008F4
:10001000A514000865140008851400086B04000886
:100020006B0400086B0400086B0400087D350008B1
:100030006B0400086B0400086B040008113A000808
:100040006B0400086B0400086B0400086B040008D4
:100050006B0400086B0400083D370008693700088E
:1000600095370008C1370008ED3700086B04000819
:100070006B0400086B0400086B0400086B040008A4
:100080006B0400086B0400086B040008712400086E
:10009000DD240008312500088525000819380008EE
:1000A0006B0400086B0400086B0400086B04000874
:1000B0006B0400086B0400086B0400086B04000864
:1000C0006B0400086B0400086B0400086B04000854
:1000D0006B04000825290008392900086B04000872
:1000E000813800086B0400086B0400086B040008EA
:1000F0006B0400086B0400086B0400086B04000824
:100100006B0400086B0400086B0400086B04000813
:100110006B0400086B0400086B0400086B04000803
:100120006B0400086B0400086B0400086B040008F3
:100130006B0400086B0400086B0400086B040008E3
:100140006B0400086B0400086B0400086B040008D3
:100150006B0400086B0400086B0400086B040008C3
:1001600053B94AB9002908BF00281CBF4FF0FF311E
:100170004FF0FF3000F076B9ADF1080C6DE904CE18
:1001800000F006F8DDF804E0DDE9022304B0704772
:100190002DE9F047089E0D4604468846002B4DD1B8
:1001A0008A42944668D9B2FA82F252B101FA02F355
:1001B000C2F1200120FA01F10CFA02FC41EA030825
:1001C00094404FEA1C41B8FBF1F71FFA8CFE01FB8B
:1001D000178807FB0EF0230C43EA084398420AD91C
:1001E0001CEB030307F1FF3580F01E81984240F2BB
:1001F0001B81023F63441B1AB3FBF1F001FB103378
:1002000000FB0EFEA4B244EA0344A6450AD91CEB47
:10021000040400F1FF3380F00981A64540F2068115
:10022000644402380021A4EB0E0440EA07401EB1EA
:100230000023D440C6E90043BDE8F0878B4208D9CB
:10024000002E00F0EE800021C6E900050846BDE85A
:10025000F087B3FA83F100294AD1AB4202D382423C
:1002600000F2FC80841A65EB030301209846002EFF
:10027000E2D0C6E90048DFE702B9FFDEB2FA82F257
:10028000002A40F09180A1EB0C0001214FEA1C47AD
:100290001FFA8CFEB0FBF7F307FB1300250C45EAB1
:1002A00000450EFB03F0A84208D91CEB050503F13D
:1002B000FF3802D2A84200F2CE8043462D1AB5FB89
:1002C000F7F007FB10550EFB00FEA4B244EA05440C
:1002D000A64508D91CEB040400F1FF3502D2A6455F
:1002E00000F2B6802846A4EB0E0440EA03409EE7E5
:1002F000C1F120078B4022FA07FC4CEA030C25FAD7
:1003000007FA4FEA1C49BAFBF9F820FA07F309FB90
:1003100018AA8D401FFA8CFE1D4300FA01F308FB5A
:100320000EF02C0C44EA0A44A04202FA01F20BD966
:100330001CEB040408F1FF3A80F08880A04240F2F0
:100340008580A8F102086444241AB4FBF9F009FB83
:10035000104400FB0EFEADB245EA0444A64508D9A0
:100360001CEB040400F1FF356CD2A6456AD90238B3
:10037000644440EA0840A0FB0295A4EB0E04AC42A2
:10038000C846AE4656D353D0002E69D0B3EB080210
:1003900064EB0E0422FA01F304FA07F71F43CC4082
:1003A000C6E90074002147E70CFA02FCC2F1200103
:1003B00025FA01F34FEA1C4720FA01F195400D435D
:1003C000B3FBF7F107FB11331FFA8CFE280C40EA50
:1003D000034001FB0EF3834204FA02F408D91CEB3C
:1003E000000001F1FF382FD283422DD90239604439
:1003F000C01AB0FBF7F307FB1300ADB245EA0045A6
:1004000003FB0EF0A84208D91CEB050503F1FF38E9
:1004100016D2A84214D9023B6544281A43EA014186
:1004200038E73146304607E72F46E4E61846F9E656
:100430004B45A9D2B9EB020865EB0C0E0138A3E7D6
:100440004346EAE7284694E74146D1E7D0467BE7B2
:100450006444023847E7023B65442FE7084606E755
:100460003146E9E6704700BF02E000F000F8FEE721
:1004700072B6284880F30888274880F309882748FF
:100480004EF60851CEF200010860022080F3148875
:10049000BFF36F8F03F0E4F803F0C0F803F0E2F865
:1004A0004FF055301E491B4A91423CBF41F8040BA6
:1004B000FAE71C49184A91423CBF41F8040BFAE79D
:1004C00019491A4A1A4B9A423EBF51F8040B42F896
:1004D000040BF8E700201749174A91423CBF41F846
:1004E000040BFAE703F09EF803F0BEF8134C144D2A
:1004F000AC4203DA54F8041B8847F9E700F03CF8F3
:10050000104C114DAC4203DA54F8041B8847F9E74C
:1005100003F086B800090020001100200000000848
:100520000001002000090020E83B00080011002025
:100530002411002028110020A025002060010008BF
:100540006001000860010008600100082DE9F04F1B
:10055000C1F80CD0C3689D46BDE8F08F002383F33B
:1005600011882846A047002002F09CFDFEE702F01B
:1005700021FD00DFFEE700002DE9F04102F09CFFC5
:10058000074602F0E7FF054600283ED12B4B9F426D
:100590003BD001339F423BD0294B27F0FF029A42C8
:1005A0003AD1F8B200F052FAA84642F2107400F0C4
:1005B00057FC08B10024A04600F04EFA064678B376
:1005C00084BB464635B11F4B9F4203D0002402F046
:1005D000B9FF2646002002F079FF1B4B9B6813F001
:1005E000400322D00EB100F031F800F097FC00F08B
:1005F00077FE00F067FF0546CCB100F063FF401BBB
:10060000A04214D900F022F8F3E7A8460024CEE770
:1006100004464FF00108CAE780464FF47A74C6E7F3
:100620000446CFE74FF47A74CCE71C46DDE700F0D0
:1006300025FD012002F03CFDDEE700BF010007B010
:10064000000008B0263A09B0000C014038B51D4A38
:100650001D4B1968013134D004339342F9D11B4C3E
:10066000194DD4F80424AA422BD3194B9B6803F1EB
:10067000006303F5C8439A4223D202F037FF02F029
:1006800049FF002000F046FE0220124B187000F0D7
:100690007DFE114BDA690022DA61D96999699A61A4
:1006A0009B6972B64FF0E023C3F8085DD4F80034BC
:1006B000D4F80424202181F311889D4683F308880F
:1006C000104738BD2064000800640008006000087E
:1006D00000110020281100200010024049F269009A
:1006E000084A136899B21B0C00FB013344F25061B5
:1006F0001360054B186882B2000C01FB0200186001
:1007000080B27047201100201C11002010B5044653
:100710000021102200F056FE034B03CB20606160E5
:100720001868A06010BD00BFE8F7FF1F2DE9F04377
:10073000BBB000F0C7FE40F2ED22204DAB68C31AFB
:10074000934232D906AF2B4628220021A8603846B2
:1007500001F0C2FB05F10E0000F02CFE002604465D
:100760005FFA80F905F10E08F3B2F100994501F145
:10077000280107D908EB06030822384601F0ACFB34
:100780000136F1E708230122CDE902320C4B053492
:1007900001933023A4B20093CDE9047405A3D3E9F7
:1007A0000023297B074801F0ADF93BB0BDE8F08399
:1007B000AFF3008078F6339F93CACD8D702100206F
:1007C0007D2100204421002070B50D4614461E46B0
:1007D00001F02EF950B9022E10D1012C0ED112A326
:1007E000D3E900230120C5E9002307E0282C10D01D
:1007F00005D8012C09D0052C0FD0002070BD302C5D
:10080000FBD10BA3D3E90023ECE70BA3D3E900232F
:10081000E8E70BA3D3E90023E4E70BA3D3E9002324
:10082000E0E700BFAFF30080401DA12026812A0B26
:1008300078F6339F93CACD8D9E6AC421818A46EE95
:1008400026417272DF25D7B7F017304A39059E5618
:1008500038B50D460446034620222846002101F003
:100860003BFB22792346032A28BF0322284603F8AC
:10087000042F2021022201F02FFB62792346072A50
:1008800028BF0722284603F8052F2221032201F062
:1008900023FBA2792346072A28BF0722284603F80C
:1008A000062F2521032201F017FB284610222821BC
:1008B00004F1080301F010FB382038BD2DE9F04F9A
:1008C0000024ADF5037D10AE40F2751280460F4650
:1008D00024A82146239400F075FD21464822304685
:1008E00000F070FD00F0EEFD4FF47A72B0FBF2F014
:1008F000544B23AD186093E80700012386E80700F6
:100900000DF162003382FFF701FF4EF603033384DB
:1009100007AB18464C4903F0B3F82322294630644C
:10092000304686F83C20FFF793FF08220446014634
:1009300014AB284601F0D0FA08222846A1180DF180
:10094000510301F0C9FA082228460DF1520304F1BF
:10095000100101F0C1FA2022284615AB04F118015C
:1009600001F0BAFA4022284616AB04F1380101F032
:10097000B3FA0822284618AB04F1780101F0ACFA6A
:10098000082228460DF1610304F1800101F0A4FA68
:1009900004F1880A0DF1620904F5847B4B46514647
:1009A000082228460AF1080A01F096FAD34509F10F
:1009B0000109F3D10822594628461DAB01F08CFAF3
:1009C0004FF0000904F5887496F834304B450AD985
:1009D000B36B21464B440822284601F07DFA0834C7
:1009E00009F10109F0E74FF0000996F83C3004EBFB
:1009F000C9014B4508D9336C08224B44284601F005
:100A00006BFA09F10109F0E700230393BB7E07317C
:100A1000029307F1190301930123C1F3CF01CDE93B
:100A200004510093404605A3D3E90023F97E01F069
:100A300069F80DF5037DBDE8F08F00BF9E6AC42103
:100A4000818A46EE2C110020903A0008014B187064
:100A5000704700BF38110020F0B5334B85B01C7BC8
:100A600034B10E22314B1A810024204605B0F0BD6E
:100A70002F4A02AB1068516803C308232D492E4842
:100A80000DEB030202F0DCFF054630B90A22274BCA
:100A90002A481A8100F0E2FCE6E70169B1F5CE3F91
:100AA00006D90B22214B26481A8100F0D7FCDCE73F
:100AB000438BB3F57A7F09D00C211C4A2148118160
:100AC0004FF47A72194600F0C9FCCEE71E4A024480
:100AD00002F11003994204D21022144B1B481A81D0
:100AE000E3E710398E1A2046134900F0EFFC074661
:100AF0003246204605F1180100F0E8FCAB689F4241
:100B000002D1EB6898420AD00D22084B1A8100905E
:100B10003B46D5E902120E4800F0A0FCA4E70D48C0
:100B200000F09CFC0124A0E7702100202C11002083
:100B3000453B0008DC9B010000640008B43A000853
:100B4000C03A0008D23A0008089CFFF7F03A0008C3
:100B50000D3B0008363B00082DE9F04FADB006AF65
:100B600080460C4600F064FF0546002859D1237EDC
:100B7000022B1AD1E38A012B17D100F0A3FC064601
:100B8000FFF7ACFD4FF4C873B0FBF3F202FB1300A8
:100B9000DFF8B49206F5167680B2E37E0644C9F813
:100BA000006033B90022A94B1A709C37BD46BDE8DE
:100BB000F08FA38AEEB2013BB34205F101050BD9D8
:100BC0003B1D1E44E900002308222046009601F048
:100BD000F80101F043F8ECE707F11400FFF796FD88
:100BE000324607F11401381D02F01AFF03460028AF
:100BF000D8D10F2E08D8954B1E70D9F80030A3F528
:100C00001673C9F80030D0E7FA1CF870014600925C
:100C10002046072201F022F84046F97800F000FF54
:100C2000C3E7E38A282B26D010D8012B1ED0052B32
:100C3000BBD1BFF34F8F8649864BCA6802F4E0628E
:100C40001343CB60BFF34F8F00BFFDE7302BACD118
:100C5000637E814D01336A7BDBB29342E94603D167
:100C6000E27E2B7B9A4265D0CD469EE721464046E8
:100C7000FFF724FE99E7A38A013B9BB2C92B94D8C6
:100C8000754D2E7B26BB05F10C03009308223346DD
:100C90003146204600F0E2FF731CF2B2D9001E4636
:100CA000A38A013B9A4205DA0E322A4400920023BD
:100CB0000822EEE700230022C5E900230023AB60F1
:100CC00085F8D730C5F8D8302B7B0BB9E37E2B7372
:100CD000002507F114060822294630463B1DC7E9C6
:100CE0000155FD6001F0F8F83B7A05F10109AB42CE
:100CF0004FEAC90107D9FB6808222B44304601F0AE
:100D0000EBF84D46F0E70023C1F3CF01E07ECDE9DB
:100D100004610393A37E19340293282301460093B0
:100D2000404647A3D3E90023019400F0EBFEFFF710
:100D3000FDFC3AE74FF0000807F11403A7F8148010
:100D40001022009341460123204600F087FFA68A27
:100D5000023EB6B2F31C9B109B000733DB08A9EBE5
:100D6000C3039D460DF1180A1FFA88F34FEAC80124
:100D7000B34201F110010AD20AEB080300930822E2
:100D80000023204600F06AFF08F10108ECE795F81F
:100D9000D70000F0C9FAD5F8D83004461BB995F849
:100DA000D70000F0D1FAD5F8D83033449C4204D2B1
:100DB00095F8D700013000F0C7FA4FF000084FEA6D
:100DC000960B1FFA88F18B45D5E9003209D90AEB59
:100DD000880103EB8800012200F0FCFA08F1010809
:100DE000EFE7F31842F10002C5E90032D5F8D83038
:100DF00095F8D70006EB0308C5F8D88000F094FA00
:100E0000804509D395F8D730D5F8D8000133001BB9
:100E100085F8D730C5F8D800FF2E08D800232B73EB
:100E200000F0A4FAFFF718FE08B1FFF70FFC2B68DB
:100E30000A4A9B0A013313810023AB6014E700BF09
:100E400026417272DF25D7B7402100203D210020C6
:100E500000ED00E00400FA05702100202C110020B4
:100E600030B54FF00054244B226885B09A4207D029
:100E700002F07AFB0446A8B90024204605B030BD34
:100E8000627D1E4B1E481A70237DC92203731D49C3
:100E90000E3000F085FA2046E022002100F092FAA0
:100EA0000124EAE7184A194DD36943F00073D3616E
:100EB000AA6D174B9A42DFD12B6E013B7E2BDBD8FC
:100EC000144A01AB07CA83E807001846032100F063
:100ED00013FB6B6D83424FF00003CDD12A6D8A4224
:100EE00003BFAB652A6E054B1C4601BF1A70EA6D45
:100EF000094B1A60C1E700BF9AAD44C53811002004
:100F00007021002016000020001002400066004002
:100F10005041A0B0586600401811002002232DE96E
:100F2000F0434A4C85B0637100230293484BD3F8D9
:100F300000C0BCF57A7F12D3464F474BB7FBFCF598
:100F40009C458CBF0A231123B5FBF3F603FB165215
:100F5000591EC8B2002A3ED002290B46F4D89DF88B
:100F60000B303E495A1E9DF80A303D48013B1B0498
:100F700043EA0253BDF80820013A13434B6001F0E5
:100F800037FD00230193374B374900934FF48052CC
:100F9000364B374800F01CFD364B197811B13448F8
:100FA00000F03EFD00F08EFA0546FFF797FB4FF488
:100FB000C873B0FBF3F202FB130305F516709BB286
:100FC00018442D4B186002F0C5FA08B10F23238195
:100FD00005B0BDE8F083731EB3F5806FBFD24FF448
:100FE0007A75C0EBC00E0EF103034FEAE30909FB6B
:100FF0000555C3F3C703C11AC9B209F101088844F2
:10100000B5FBF8F5B5F5617F08D90EF1FF33C3F3F1
:10101000C703C11A581E0F28C9B214D84A1E072A7E
:101020008CBF00220122581800FB0660B7FBF0F7C6
:10103000BC4594D1002A92D0ADF808608DF80A30F2
:101040008DF80B108BE71346EDE700BF2C11002045
:1010500018110020005125023F420F0010110020FE
:1010600088220020C90700083C110020590B000805
:101070004421002038110020402100202DE9F04FAC
:1010800093A7D7E900670FF25029D9E90089854D68
:1010900093B0DFF814B2854C284600F097FD0DF1AF
:1010A000300A079070B310220021504600F08AF9F0
:1010B0004FF00002079B197B61F303028DF830208B
:1010C000586899680EAA03C21B680D9A584663F3C4
:1010D0001C029DF830300D9243F020038DF8303023
:1010E00000235246194601F093FC079028B9284680
:1010F00000F070FD079B2370CEE72378072B3CD8C8
:101100000133237018220021504600F05BF9DFF80C
:1011100098B1674C002352461946584601F0A0FC8E
:10112000014670BB102208A800F04CF9E36883F078
:101130001003E36000F0C8F90DF1240C0B4612A96E
:10114000024611E903008CE803009DF83410C1F356
:101150000300890649BF0E99BDF83810C1F31C0180
:1011600041F0004158BFC1F30A018DF82C000891ED
:10117000284608A900F0F8FECCE7284600F02AFD32
:10118000C0E7284600F054FC8346002844D100F014
:1011900099F9484B1A6890423ED300F093F90446FF
:1011A000FFF79CFA4FF4C872B0FBF2F101FB12009A
:1011B0008DF820B0DFF800B13E4B04F5167480B214
:1011C0009BF8001004441C6011B901238DF82030F5
:1011D00050460791FFF79AFA07990DF12100C1F1E6
:1011E0001004E4B2062C28BF06245144224600F025
:1011F000D7F808AB039318230293304B01340193C3
:101200000123E4B2009332463B462846049400F0A2
:1012100011FC00238BF8003000F054F9284A294CC7
:101220001368C31AB3F57A7F31D3106000F04CF91C
:1012300002460B46284600F0D7FC284600F0F8FB93
:1012400028B3237BDFF880B0002B14BF03230223D5
:101250008BF8053000F036F94FF47A73B0FBF3F0F9
:101260005146CBF800005846FFF7F2FA18230293D4
:10127000164B0730019340F25513C0F3CF00CDE970
:1012800003A0009342464B46284600F0D3FB237B45
:101290002BB1FFF74BFA237B002B7FF4FAAE13B090
:1012A000BDE8F08F44210020882200205522002034
:1012B00000080140402100203D2100203C21002069
:1012C00050220020702100202C11002054220020E8
:1012D000401DA12026812A0BF1C6A7C1D068080FA6
:1012E00070B501F0BFFF0024084E094D308028681A
:1012F0003388834208D901F0B1FF2B6804440133DD
:10130000B4F5C84F2B60F2D370BD00BF842200201B
:101310005822002002F044B800F10060920000F56D
:10132000C84001F0DFBF0000054B1A68054B1B8861
:101330009B1A834202D9104401F090BF00207047ED
:10134000582200208422002038B50446064D286823
:10135000204401F089FF28B928682044BDE83840BE
:1013600001F094BF38BD00BF58220020064991F813
:10137000243033B100230822086A81F82430FFF7B3
:10138000CBBF0120704700BF5C220020022802BFB3
:101390004FF48012014B1A61704700BF00080140F2
:1013A000002310B5934203D0CC5CC4540133F9E759
:1013B00010BD000003460246D01A12F9011B002995
:1013C000FAD1704703460244934202D003F8011B4E
:1013D000FAE770472DE9F8431F4D144695F824208D
:1013E0000746884652BBDFF870909CB395F82430CE
:1013F0002BB92022FF2148462F62FFF7E3FF95F823
:1014000024004146C0F10802A24228BF224605EB53
:101410008000D6B29200FFF7C3FF95F82430A41BDA
:101420001E44F6B2082E17449044E4B285F82460B6
:10143000DBD1FFF79BFF0028D7D108E02B6A03EB35
:1014400082038342CFD0FFF791FF0028CBD1002049
:10145000BDE8F8830120FBE75C2200200FB40020E8
:1014600004B07047EFF30983EFF30583044B9A6BE5
:10147000DA6A9A6A9A6A9A6A9A6A9A6A9B6AFEE72A
:1014800000ED00E0EFF30983EFF30583044B9A6B63
:101490009A6A9A6A9A6A9A6A9A6A9B6AFEE700BF8F
:1014A00000ED00E0EFF30983EFF30583034B5A6B84
:1014B0009A6A9A6A9A6A9A6A9B6AFEE700ED00E065
:1014C000FEE7000001F0A6BF01F07EBF30B5094D78
:1014D0000A4491420DD011F8013B5840082340F3D3
:1014E0000004013B2C4013F0FF0384EA5000F6D1C6
:1014F000EFE730BD2083B8ED4FF0FF33F7B500EBD9
:1015000081061946DFF848C0DFF848E0B0421BD03A
:1015100050F8042B01AF0192042217F8014B81EA25
:10152000046108240D46DB184941013C002DBCBF75
:1015300083EA0C0381EA0E0114F0FF04F2D1013AB0
:1015400012F0FF02E9D1E1E7D843C94303B0F0BD8F
:101550009336EAA9EBE1F0422DE9F041C56915B9EE
:10156000C161BDE8F0814B68AC4623F06047C3F32E
:101570008A4616EA230638BF3E464FEAD37EC3F3B7
:1015800080782B465A68BEEBD27F22F060440AD0A6
:10159000002A18DAA40CB44217D19D420FD10D6075
:1015A000DEE71346EEE7A74207D102F08044C2F31C
:1015B000807242450BD054B1EFE708D2EDE7CCF88A
:1015C00000100B60CDE7B44201D0B442E5D81A68F0
:1015D0009C46002AE5D11960C3E700002DE9F047D9
:1015E0004FF47F49089D01F007044FEAD5082244D3
:1015F00005F0070500EBD100944201D1BDE8F0876A
:1016000004F0070705F0070A57453E4638BF56461F
:10161000111BC6F108068E4228BF0E46E108415C48
:1016200008EBD50E13F80EC0B94029FA06F721FAD7
:101630000AF1FFB28CEA010147FA0AF739408CEA55
:10164000010C03F80EC034443544D5E7082341F2B9
:10165000210280EA012001B24000002980B203F19A
:10166000FF33B8BF504013F0FF03F4D170470000C0
:1016700038B50C468D18A54200D138BD14F8011BB1
:10168000FFF7E4FFF7E700000346006848B102688F
:1016900019891A60DA88013292B29142DA8038BF31
:1016A0001A81704770B504460D4688B0202200218B
:1016B0006846FFF787FE20460495FFF7E5FF0246E0
:1016C00058B16B46054608AE1C4603CCB4422860B0
:1016D0006960234605F10805F6D1104608B070BDD3
:1016E000082817D909280CD00A280CD00B280CD0B0
:1016F0000C280CD00D280CD00E2814BF4020302010
:1017000070470C2070471020704714207047182035
:101710007047202070470000082817D90C280CD9E2
:1017200010280CD914280CD918280CD920280CD929
:1017300030288CBF0F200E207047092070470A20E8
:1017400070470B2070470C2070470D207047000039
:1017500010B54B6823B9CA8A63F30902CA8210BD67
:10176000C4681A681C60C360438A013B43824A60B4
:10177000EFE700002DE9F84F1D46CB8A0F46C3F373
:1017800009010629814692460B4630D00020AAB2B4
:1017900007F119049EB2052E1FFA80F80FD8904564
:1017A00003F1010306D3FB8A0A4462F30903012013
:1017B000FB821AE01AF800600130E654EAE790452F
:1017C000F1D21C23A1F1060BBBFBF3F203FB12BB0E
:1017D0007C681FFA8BF6002C45D14846FFF754FF72
:1017E000044638B978606FF00200BDE8F88F4FF01A
:1017F0000008E6E70026066078604FF0000BADB207
:10180000454510D90AEB0803221D13F8011B08F106
:1018100001089155B1B21B291FFA88F82BD0454514
:1018200006F10106F1D8FB8AC3F30902154465F3FA
:101830000903BCE71C46013292B22368002BF9D1A0
:10184000AB1F0B441C21B3FBF1F301339BB29A4253
:10185000D3D2BBF1000FD0D14846FFF715FF20B916
:10186000C4F800B0BFE70122E7E7C0F800B05E4669
:1018700020600446C1E74545D5D94846FFF704FF37
:1018800008B92060AFE7C0F800B000262060044629
:10189000B6E700002DE9F04F85B007469146CDE947
:1018A0000113BDF83C50002A00F08F802DB10E9B33
:1018B000002B00F08A80072D30D807F10C00FFF7CD
:1018C000E3FE044628B96FF00204204605B0BDE8E7
:1018D000F08F14220021FFF775FD2A460E9904F1BE
:1018E0000800FFF75DFD681CC0B2FFF715FFFFF7AA
:1018F000F7FE207499F80020431E9BB202F01F02ED
:10190000234462F03F021A72019B384643F00041C3
:1019100061602146FFF720FE0124D6E74FF0000862
:101920004FF0800A4646444600F10C0303930398A7
:10193000FFF7AAFE83460028C5D014220021FFF736
:1019400041FD002E38D10220029BABF808300E9BDF
:1019500000F10802D2B299195A440130C0B20828E5
:1019600001D0AE422AD3FFF7D7FEFFF7B9FEAE4251
:1019700008BF4FF0400A99F80020019B411E02F079
:101980001F0242EA4812C9B24AEA020A594443F025
:10199000004281F808A08BF8100059463846CBF871
:1019A0000420FFF7D9FD0134AE424FF0000A24B203
:1019B00088F00108BBD188E70020C8E711F801CB07
:1019C000013602F801CBB6B2C7E76FF001047CE73D
:1019D000F8B5044615460E46282200211F46FFF79B
:1019E000F1FC069BB5F5001F6360079B28BF4FF60F
:1019F000FF7223624FF0000338BF6A09A76004F149
:101A00000C0097B29A4205D80023036027826382B4
:101A1000A382F8BD0660013330462036F2E70000AD
:101A200003781BB94BB2002BC8BF01707047000090
:101A3000007870472DE9F74FDDF83C9080469246DC
:101A40009B46BDF830500D9E9DF83840BDF8407063
:101A5000B9F1000F01D1002F51D11F2C4FD898F8A8
:101A60000000B0B9072F47D835F0030347D13A46F5
:101A700049464FF6FF70FFF7FBFD20F001002D02F5
:101A8000400445EA0464400C44EA40244FF6FF73E6
:101A900021E040EA0520072F40EA0464F6D900253A
:101AA0004FF6FF73C5F12000A5F120022AFA05F1D7
:101AB0000BFA00F001432BFA02F211431846C9B2A7
:101AC000FFF7C4FD0835402D0346EBD13A464946A1
:101AD000FFF7CEFD0346324621464046CDE900974A
:101AE000FFF7D8FE33780133DBB21F2B88BF00230A
:101AF000337003B0BDE8F08F6FF00300F9E76FF0CB
:101B00000100F6E72DE9F04F85B0DDF848809246F8
:101B100006469B460F9D9DF840209DF84490BDF8D9
:101B20004C70B8F1000F01D1002F48D11F2A46D8C0
:101B30003378002B46D00C0244EA02649DF838103A
:101B400044EAC93444EA01441C43072F44F08004AA
:101B500032D900234FF6FF72C3F1200CA3F120000D
:101B60002AFA03F10BFA0CFC41EA0C012BFA00F003
:101B70000143C9B210460393FFF768FD039B024679
:101B80000833402BE8D13A464146FFF771FD034642
:101B90002A4621463046CDE90087FFF77BFEB9F1A2
:101BA000010F06D12B780133DBB21F2B88BF002336
:101BB0002B7005B0BDE8F08F4FF6FF73E8E76FF0CC
:101BC0000100F6E76FF00300F3E70000C06900B121
:101BD00004307047C3691A68C261C2681A60C36082
:101BE000438A013B438270472DE9F041D0F81880C9
:101BF00014461D4641460027174E09B9BDE8F0813D
:101C0000D1E90223A21A65EB0303964277EB0303A3
:101C10001ED283698B420DD1FFF79AFD83691B6841
:101C20008361C3680B60438AC1608169013B884658
:101C30004382E2E7FFF78CFD0B68C8F80030C36809
:101C40000B60438AC160013B4382D8F80010D4E79F
:101C500088460968D1E700BF80841E002DE9F04F57
:101C60008BB00D4614469B468046DDF85090002808
:101C700000F01A81B9F1000F00F01681531E3F2BBE
:101C800000F21281012A03D1BBF1000F40F00C8158
:101C90000023CDE90833B8F81430B5EBC30F4FEA91
:101CA000C30703D300200BB0BDE8F08F2B199F4270
:101CB000D8F80C3036BF7F1B2746FFB21BB9D8F8C7
:101CC0001030002B7BD02F2D4ED8C5F13006B742F7
:101CD0004FF0000334BF3E46F6B200932946324629
:101CE000D8F8080008ABFFF779FCA7EB060A3544E3
:101CF0005FFA8AFA3021B8F8143003F10053063B3A
:101D0000DB000493D8F80C300393039B13B1BAF1B2
:101D1000000F2CD1D8F8100040B1BAF1000F05D057
:101D20005246009608AB691AFFF758FC38B2002FEC
:101D3000B8D066070AD00AAB03EBD40111F8083C0F
:101D4000624202F00702134101F8083C082C3DD919
:101D5000102C40F2B680202C40F2B880BBF1000F6E
:101D600000F09D80082335E0BA460026C2E7049BB8
:101D7000E02B28BFE02306930B44AB42059315D913
:101D80005A1B924538BF5246039828BFD2B20096DC
:101D9000691A08AB04300792FFF720FC079A164433
:101DA000AAEB020A1544F6B25FFA8AFA049B069A75
:101DB00005999B1A0493039B1B680393A5E7009363
:101DC0003A462946D8F8080008ABADE7BBF1000F4A
:101DD00013D00123B4EBC30F6CD0082C12D89DF89C
:101DE0002030621E23FA02F2D50706D54FF0FF32EB
:101DF00002FA04F423438DF820309DF8203089F84E
:101E0000003050E7102C12D8BDF82030621E23FAA3
:101E100002F2D10706D54FF0FF3202FA04F4234351
:101E2000ADF82030BDF82030A9F800303BE7202C79
:101E30000FD80899631E21FA03F3DA0705D54FF08E
:101E4000FF3202FA04F40C430894089BC9F80030EE
:101E500029E7402C2BD0DDE90865611EC4F1210281
:101E6000A4F1210326FA01F105FA02F225FA03F39F
:101E700011431943CB0712D50122A4F12003C4F169
:101E8000200102FA03F322FA01F1A240524243EA8E
:101E9000010363EB430332432B43CDE90823DDE920
:101EA0000823C9E90023FEE66FF00100FBE66FF0AE
:101EB0000800F8E6082CA0D9102CB3D9202CEED8B5
:101EC000C3E7BBF1000FADD0022383E7BBF1000FE6
:101ED000BBD004237EE70000012A30B5144638BF8A
:101EE00001220025402A28BF402285B0012CCDE9DF
:101EF000025517D81B788DF8083053070AD004AB69
:101F000003EBD20515F8083C544204F00704A34043
:101F100005F8083C0346009102A80021FFF75EFB8C
:101F200005B030BD082CE5D9102C03D81B88ADF8BE
:101F30000830E2E7202C02D81B680293DDE7D3E9E2
:101F40000045CDE90245D8E710B5CB681BB98B60D9
:101F50000B618B8210BDC4681A681C60C360438A21
:101F6000013B4382CA60F0E72DE9F04FD1F80080D1
:101F700093B018F0800FCDE90323C8F3C01207BF58
:101F80004FF0020B1646C8F3C03BC8F30626B8F163
:101F9000000F04460D4680F2D48118F0C04305932B
:101FA00040F0CF810B7B002B00F0CB81BBF1020F07
:101FB00003D00178B14240F0C78108F07F0107915A
:101FC0007AB3C8F3074A2B4493F80390760646EA9F
:101FD0000B4608F07F0246EA82465FEAD91346EADA
:101FE0000A06069300F0918000220023CDE90A231F
:101FF00008F07F03009352465B46204667680AA9B3
:10200000B84700287ED0A7699FB9314604F10C007B
:10201000FFF748FB0746E0B96FF0020013B0BDE8D8
:10202000F08FC8F30F2A18F07F0F08BF0AF0030AD9
:10203000C9E73B699E420DD03F68002FF9D1314678
:1020400004F10C00FFF72EFB07460028E4D0A3693B
:102050003B60A7610026DDE90A234FF6FF70C6F159
:10206000200E22FA06F103FA0EFEA6F1200C23FA46
:102070000CFC41EA0E0141EA0C01C9B20836099292
:102080000893FFF7E3FADDE90832402EE7D1B88282
:10209000FB7D09F01F06C3F384039B1B98B2002B42
:1020A000BCBF00F120031BB2D7E9022152EA0100B4
:1020B000C8F304680FD00398821A049860EB0101FA
:1020C000A74890424FF000028A4104D3069A002AA2
:1020D0005BD0012B23DDFA7D4FEA890302F0030276
:1020E00003F07C031343FB7539462046FFF730FBB2
:1020F000069BA3B9FB7DC3F38402013262F386031E
:10210000FB7504E06FF00B0088E7A76917B96FF063
:102110000C0083E73B699E42BAD03F68F6E719F0AE
:10212000400F32D0039B1422BB60049B0021FB6054
:102130000DA8FFF747F9039B20460A93049BADF8CF
:102140003EA00B932B1D0C932B7B8DF840B0013BD5
:10215000DBB2ADF83C30079B8DF841608DF8433021
:1021600094F824308DF8428083F001038DF84430D8
:102170000AA9A3689847FB7DC3F38403013303F0E6
:102180001F039B02FB82002048E7FB7DC9F340123E
:10219000B2EBD31F40F0DB80C3F38403B34240F0C3
:1021A000D98006992B7B4FEA9912002934D0D207A7
:1021B00041D4032B40F2D180039BAE1DBB60049B36
:1021C0003246FB602B7B3946033BDBB204F10C004B
:1021D000FFF7D0FA00280DDA20463946FFF7B8FAA3
:1021E000FB7D0320C3F38403013303F01F039B0231
:1021F000FB8213E7AB883B832A7B033AB88AD2B2CF
:102200003146FFF735FAFB7DB882DA43C2F3C012DC
:1022100062F3C713FB75B6E76AB92E1D013B324660
:102220003946DBB204F10C00FFF7A4FA0028D3DB37
:102230002A7B013AE2E7F98A013BC1F3090105294A
:10224000DAB25BD80023281D07F11A0C9A4208D98C
:1022500010F801EB01330CF801E001310629DBB283
:10226000F4D1934228BF0023039938BF04330A9165
:10227000049938BFDBB20B9107F11A010C91796810
:1022800038BF5B190D910E93FB8AADF83EA0C3F3E6
:1022900009031A44079BADF83C208DF8433094F8AD
:1022A00024308DF840B083F001038DF844300023D2
:1022B0008DF841608DF842807B602A7BB88A013AB4
:1022C000291DFFF7D5F93B8BB882834203D1204605
:1022D000A3680AA9984720460AA9FFF735FEFB7DA7
:1022E000B88AC3F38403013303F01F039B02FB820C
:1022F0003B8B984214BF112000208FE67B68002B97
:10230000AFD0062001E063461C30D3F800C0BCF11A
:10231000000FF8D1091A081D05F1040C1844DDF866
:1023200014E09DF814308E44BEF11B0F99D89A42E8
:1023300097D91CF8013B00F8013B059B013305933D
:10234000EDE76FF0090069E66FF00A0066E66FF0EE
:102350000D0063E66FF00E0060E66FF00F005DE6C3
:1023600080841E00F0B53F4D3F4FEB6943F0007392
:10237000EB61EB693D4B9B6AD3F800623E4046F04F
:102380000106C3F80062D3F800423C4044EA00244E
:1023900044F00104C3F80042002955D0002006464D
:1023A000C3F81C02C3F80402C3F80C02C3F81402F9
:1023B00003EBC00401300E28C4F84062C4F8446244
:1023C000F6D100274FF0010C9678148816F0010F13
:1023D00018BFD3F804E20CFA04F01CBF40EA0E0E5A
:1023E000C3F804E216F0020F18BFD3F80CE203EBB7
:1023F000C4041CBF40EA0E0EC3F80CE2760748BFC7
:10240000D3F8146207F1010744BF0643C3F814620E
:102410005668B942C4F84062966802F10C02C4F8EA
:102420004462D3F81C4240EA0400C3F81C02CBD13A
:10243000D3F8002222F00102C3F80022EB6923F056
:102440000073EB61EB69F0BD0122C3F84012C3F8E1
:102450004412C3F80412C3F81412C3F80C22C3F8D0
:102460001C22E5E7001002400000FFFF8822002048
:10247000184A08B5916A8B688B6013F0010104D08B
:1024800013F00C0F18BF4FF48031D80506D513F4A4
:10249000406F14BF41F4003141F00201D80306D56A
:1024A00013F4402F14BF41F4802141F00401D3699B
:1024B0000BB108489847202383F311880021064870
:1024C00000F01EFE002383F31188BDE8084001F0F0
:1024D00083B800BF882200209022002038B5124C1B
:1024E000A36ADD68AA0712D05A6922F002025A6173
:1024F000A36913B1012120469847202383F3118853
:1025000000210A4800F0FCFD002383F31188EB064C
:1025100006D51021A36AD960236A0BB102489847F7
:10252000BDE8384001F058B88822002098220020E9
:1025300038B5124CA36A1D69AA0712D05A6922F055
:1025400010025A61A36913B1022120469847202343
:1025500083F3118800210A4800F0D2FD002383F3A1
:102560001188EB0606D51021A36A1961236A0BB105
:1025700002489847BDE8384001F02EB88822002074
:102580009822002038B50F4CA36A5D682A075D6069
:102590000AD5042222701A6822F002021A60636AC5
:1025A00013B10021204698476B0706D5A36A9969A5
:1025B000236A13B1034809049847BDE8384001F085
:1025C0000BB800BF8822002010B50E4C204600F04A
:1025D000FDF90D4B0B211320A36200F0D7F90B215D
:1025E000142000F0D3F90B21152000F0CFF90B21B6
:1025F000162000F0CBF9BDE8104000220E20114655
:10260000FFF7B0BE88220020006400400F4B10B5D9
:102610009842044605D10E4BDA6942F00072DA6145
:10262000DB690122A36A1A60A36A5A68D20707D538
:10263000626851681268D9611A60064A5A6110BD11
:102640000121082000F052FCEEE700BF88220020A4
:10265000001002405B87010003291AD8DFE801F06F
:10266000020A0F14836A9B6813F0E05F14BF012015
:1026700000207047836A9868C0F380607047836A5F
:102680009868C0F3C0607047836A9868C0F30070B0
:10269000704700207047000010B5032927D8DFE8F5
:1026A00001F002272B2F836A9968C1F30161183169
:1026B00003EB01131078840648BF5468C0F300117F
:1026C00058BF94884FEA410148BF41EAC40100F075
:1026D0000F00586048BF41F00401906858BF41EABC
:1026E0004451D26841F001019860DA60196010BD70
:1026F000836A03F5C073DDE7836A03F5C873D9E71E
:10270000836A03F5D073D5E701290AD002290FD0D7
:1027100081B9836ADA68920701D1186903E0012060
:102720007047836AD86810F0030018BF0120704713
:10273000836AF2E70020704710B539B9836AD96817
:1027400089071BD11B699C0704D110BD012915D035
:102750000229FAD1816AD1F8C031D1F8C441D1F847
:10276000C8011061D1F8CC015061202008610869CE
:10277000800717D1486940F0100012E0816AD1F853
:10278000B031D1F8B441D1F8B8011061D1F8BC0131
:1027900050612020C860C868800703D1486940F0B4
:1027A00002004861C3F34000C3F38001000140EA26
:1027B0004111107920F030000143117189064BBF9F
:1027C00091681189DB085B0D4CBF63F31C0163F357
:1027D0000A01137948BF916064F3030313714FEA50
:1027E00014234FEA144458BF118113705480ACE78E
:1027F000026843680A43026003B11847704700004B
:10280000024AD36843F0C003D360704700380140E8
:10281000024AD36843F0C003D360704700440040CD
:102820002DE9F041D0F89C600446F7683368DA057A
:102830009DB20DD5202383F311884FF4007104302D
:10284000FFF7D6FF6FF480733360002383F31188A2
:10285000202383F3118804F1040815F02F033AD1E3
:1028600083F31188380615D5290613D5202383F361
:10287000118804F1380000F02FFA00284DDA082101
:10288000201DFFF7B5FF4FF67F733B40F360002339
:1028900083F311887A0616D56B0614D5202383F3AB
:1028A0001188D4E913239A420AD1236C43B127F04B
:1028B00040073F041021201D3F0CFFF799FFF760F0
:1028C000002383F31188D4F8A420D3683BB3BDE878
:1028D000F041106918472B0713D015F0080F0CBFF3
:1028E00000218021E80748BF41F02001AA0748BF26
:1028F00041F040016B07404648BF41F48071FFF74B
:1029000077FFAD06736805D594F8A01020461940EE
:1029100000F082FA3568ADB29FE77060B7E7BDE8B6
:10292000F081000008B50348FFF77AFFBDE80840D2
:1029300000F052BEB422002008B50348FFF770FF34
:10294000BDE8084000F048BE5C23002010B5094CEB
:1029500000212046084A00F03FFA084B0021C4F845
:102960009C30074C074A204600F036FA064BC4F864
:102970009C3010BDB422002001280008003801401E
:102980005C230020112800080044004001220901B6
:1029900000F1604303F56143C9B283F8001300F00E
:1029A0001F039A4043099B0003F1604303F5614311
:1029B000C3F880211A607047090100F16040C9B274
:1029C00000F56D4001767047FFF7FEBD01230370EF
:1029D000002300F10802C0E9022200F11002C0E960
:1029E0000422C0E90633C0E90833436070470000A1
:1029F00010B52023044683F311880223416003703D
:102A0000FFF704FE04232370002383F3118810BD15
:102A10002DE9F0411F4604460D461646202383F358
:102A2000118800F108082378052B0DD0294620468F
:102A3000FFF712FE40B1204632462946FFF72CFE32
:102A4000002080F3118808E03946404600F03CFB46
:102A50000028E8D0002383F31188BDE8F08100004E
:102A60002DE9F0411F4604460D461646202383F308
:102A7000118800F110082378052B0DD02946204637
:102A8000FFF742FE40B1204632462946FFF754FE8A
:102A9000002080F3118808E03946404600F014FB1E
:102AA0000028E8D0002383F31188BDE8F0810000FE
:102AB000F8B5154682680B46AA428169066938BF97
:102AC0008568761AB54204460BD218462A46FEF7A8
:102AD00067FCA3692B44A361A36828465B1BA36022
:102AE000F8BD0CD918463246FEF75AFCAF1B3A46E1
:102AF000E1683044FEF754FCE3683B44EBE71846DA
:102B00002A46FEF74DFCE368E5E700002DE9F041B9
:102B1000154683680446934238BF8568D0E904703F
:102B20003F1ABD420E460BD22A46FEF739FC6369B6
:102B30002B446361A36828465B1BA360BDE8F0815A
:102B40000CD93A46A5EB0708FEF72AFC4246E06896
:102B5000F119FEF725FCE3684344EAE72A46FEF74D
:102B60001FFCE368E5E7000010B50024C361029B89
:102B7000C0E90511C1601144C0E900008460016131
:102B8000036210BD08B5D0E90532934201D18268D5
:102B900092B98268013282605A1C42611970D0E990
:102BA00004329A4228BFC3684FF0000128BF436136
:102BB00000F09AFA002008BD4FF0FF30FBE700005C
:102BC00070B5202304460D4683F31188A668A6B18C
:102BD000A368A269013BA360531CA3611578226915
:102BE000934224BFE368A361E3690BB12046984791
:102BF000002383F31188284607E02946204600F089
:102C000063FA0028E2DA86F3118870BD2DE9F74FE8
:102C100004460E4617469846D0F81C904FF0200AFE
:102C20008AF311884FF0000B154665B12A463146EC
:102C30002046FFF73DFF034660B94146204600F0BD
:102C400043FA0028F1D0002383F31188781B03B0E6
:102C5000BDE8F08FB9F1000F03D001902046C847BE
:102C6000019B8BF31188ED1A1E448AF31188DCE76F
:102C7000C361009BC0E90511C1601144C0E90000B7
:102C80008260016103627047F8B504460D4616463E
:102C9000202383F31188A768A7B1A368013BA36031
:102CA00063695A1C62611D70D4E904329A4224BFE0
:102CB000E3686361E3690BB120469847002080F325
:102CC000118807E03146204600F0FEF90028E2DADC
:102CD00087F31188F8BD0000D0E905239A4210B5AA
:102CE00001D182687AB982680021013282605A1C5F
:102CF00082611C7803699A4224BFC368836100F033
:102D0000F3F9204610BD4FF0FF30FBE72DE9F74FF8
:102D100004460E4617469846D0F81C904FF0200AFD
:102D20008AF311884FF0000B154665B12A463146EB
:102D30002046FFF7EBFE034660B94146204600F00F
:102D4000C3F90028F1D0002383F31188781B03B066
:102D5000BDE8F08FB9F1000F03D001902046C847BD
:102D6000019B8BF31188ED1A1E448AF31188DCE76E
:102D7000026843680A43026003B1184770470000C5
:102D80001430FFF743BF00004FF0FF331430FFF75C
:102D90003DBF00003830FFF7B9BF00004FF0FF33F0
:102DA0003830FFF7B3BF00001430FFF709BF000051
:102DB0004FF0FF311430FFF703BF00003830FFF74A
:102DC00063BF00004FF0FF323830FFF75DBF0000F7
:102DD00000207047FFF7BABD37B515460D4A0446C7
:102DE000026000224260C0E9022201220B46027406
:102DF00000F15C01009020221430FFF7B5FE2B4655
:102E00002022009404F17C0104F13800FFF730FF28
:102E100003B030BD503B000838B5C36904460D46C9
:102E20001BB904210844FFF7A3FF294604F114004D
:102E3000FFF7A8FE002806DA201D4FF48061BDE8E8
:102E40003840FFF795BF38BD0022024BC3E900337D
:102E50009A60704704240020002382680374054BA5
:102E60001B6899689142FBD25A6803604260106007
:102E7000586070470424002008B5202383F311888C
:102E8000037C032B05D0042B0DD02BB983F31188C1
:102E900008BD002243691A604FF0FF334361FFF71A
:102EA000DBFF0023F2E7D0E9003213605A60F3E75A
:102EB000002382680374054B1B6899689142FBD814
:102EC0005A68036042601060586070470424002014
:102ED000054B196908741868026853601A60186114
:102EE00001230374FDF732BB0424002030B54B1CD2
:102EF00004460B4D87B010D02B690A4A01A800F098
:102F00001BF92046FFF7E4FF049B13B101A800F072
:102F10002FF92B69586907B030BDFFF7D9FFF8E7E3
:102F200004240020792E000838B50C4D41612B692E
:102F300081689A680446914203D8BDE83840FFF79B
:102F40008BBF1846FFF7B4FF01232C6101462374A1
:102F50002046BDE83840FDF7F9BA00BF0424002040
:102F6000044B1A681B6990689B68984294BF0020C4
:102F7000012070470424002010B5084C2368206904
:102F80001A6854602260012223611A74FFF790FFCF
:102F900001462069BDE81040FDF7D8BA042400209E
:102FA00008B5FFF7DDFF18B1BDE80840FFF7E4BF43
:102FB00008BD0000FFF7E0BFFEE7000010B50C4CB5
:102FC000FFF742FF00F0AAF880220A49204600F0ED
:102FD00031F8012344F8180C037400F0D9FA0023E7
:102FE00083F3118862B6BDE81040034800F042B890
:102FF0002C240020783B0008883B000800F0CAB869
:10300000EFF3118020B9EFF30583202282F31188BA
:103010007047000010B530B9EFF30584C4F308041D
:1030200014B180F3118810BDFFF7BAFF84F3118843
:10303000F9E7000082600222028270478368A3F1F0
:103040003C0243F80C2C026943F83C2C426943F8DB
:10305000382C074A43F81C2CC268A3F1180043F827
:10306000102C022203F8082C002203F8072C7047CA
:103070005D05000810B5202383F31188FFF7DEFFFC
:1030800000210446FFF750FF002383F311882046F8
:1030900010BD0000024B1B6958610F20FFF718BFDD
:1030A00004240020202383F31188FFF7F3BF0000DE
:1030B00008B50146202383F311880820FFF716FF87
:1030C000002383F3118808BD49B1064B42681B6990
:1030D00018605A60136043600420FFF707BF4FF089
:1030E000FF3070470424002003460068834205D067
:1030F00002681A6053604161FFF7AEBE704700007E
:1031000038B504460D462068844200D138BD0368B6
:1031100023605C604561FFF79FFEF4E7054B03F118
:103120001402C3E905224FF0FF32DA6100221A626D
:10313000704700BF0424002010B5C0E903230B4AE8
:10314000136A53699C68A1420CD85C688160036073
:103150004460206058609868411A99604FF0FF33CE
:10316000D36110BD1B68091BECE700BF04240020DD
:10317000036881689A680A449A60426813605A60DA
:1031800000234FF0FF32C360014BDA61704700BF8C
:103190000424002038B50F4C2246236A01332362F1
:1031A00052F8143F934206D020259A68013A9A605B
:1031B00063699A6802B138BDD3E9001001604860C4
:1031C000D968DA6082F311881869884785F3118815
:1031D000EEE700BF0424002000207047FEE7000057
:1031E000704700004FF0FF3070470000BFF34F8F73
:1031F000024AD368DB07FCD4704700BF00200240BE
:1032000008B5074B1B7853B9FFF7F0FF054B1A6958
:10321000120641BF044A5A6002F188325A6008BD62
:1032200008250020002002402301674508B5054B12
:103230001B7833B9FFF7DAFF034A136943F08003C1
:10324000136108BD08250020002002407F289ABF96
:1032500000F5003080020020704700004FF48060CD
:1032600070470000802070477F2808B50BD8FFF713
:10327000EDFF00F580630268013204D1043083421F
:10328000F9D1012008BD0020FCE700007F2838B5F7
:10329000044623D8FFF7B4FEFFF7A8FFFFF7B0FFFF
:1032A000F3220F4B0546DA60022220461A61FFF72F
:1032B000CDFF58611A694FF4806142F040021A61F3
:1032C000FFF794FF00F010F92846FFF7AFFFFFF774
:1032D000A1FE2046BDE83840FFF7C6BF002038BD3C
:1032E000002002402DE9F047044612F001000E468E
:1032F000154606D040F2BD22234B1A600020BDE8DF
:10330000F087224BA2189A4204D940F2C2221E4BE7
:103310001A60F4E7FFF774FE4FF0010AFFF770FF41
:10332000FFF764FFDFF868903146A61B012D884641
:1033300006EB010705D8FFF779FFFFF76BFE0120C9
:10334000DDE7B8F80030C9F810A03B800024FFF793
:103350004DFFC9F810403B8831F8022B9BB29A42CE
:103360000FD040F2D922084B1A600A4B1F600A4B5B
:103370001D600A4BC3F80080FFF758FFFFF74AFEB5
:10338000BCE7023DD2E700BF042500200000020890
:1033900000200240F824002000250020FC2400200A
:1033A000084908B50B7828B11BB9FFF729FF01239D
:1033B0000B7008BD002BFCD0BDE808400870FFF77B
:1033C00035BF00BF0825002070B5FFF719FE4FF488
:1033D0007A710D4B0D4E1B6A326801FB03F3934269
:1033E00037BF0B4A0A495168156836BF4C1CD1E9F2
:1033F000005454605D1944F100043360FFF70AFE85
:103400002846214670BD00BF042400200C25002062
:103410001025002070B5FFF7F3FD4FF47A710F4BC4
:103420000F4E1B6A326801FB03F3934237BF0D4A0C
:103430000C49516815683ABF4C1C5460D1E90054DE
:103440005D1944F100043360FFF7E4FD4FF47A7234
:10345000002328462146FCF783FE70BD042400208B
:103460000C2500201025002010B5094C013AD2B2DD
:10347000FF2A00D110BD500854F82030013054F814
:1034800020009BB243EA004341F8043BEEE700BF53
:10349000046C004010B50748013AD2B2FF2A00D1AF
:1034A00010BD0C88530840F823404C88013340F885
:1034B0002340F1E7046C004007B50122002001A978
:1034C000FFF7D2FF019803B05DF804FB13B5044683
:1034D000FFF7F2FFA04205D00122002001A90194CC
:1034E000FFF7D8FF02B010BD7047000045F25552FB
:1034F000064B1A6002225A6040F6FF729A604CF640
:10350000CC421A600122024B1A7070470030004012
:103510001C250020034B1B781BB14AF6AA22024B44
:103520001A6070471C25002000300040044B1A68C8
:103530002AB902F1804202F50432526A1A607047D9
:10354000182500204FF08072014B5A62704700BF6F
:103550000010024008B5FFF7E9FF024B1868C0F3FE
:10356000407008BD1825002008B5FFF7DFFF024BAB
:103570001868C0F3007008BD18250020EFF3098318
:10358000203383F30988002383F3118870470000F8
:10359000202080F3118862B60C4B0D4AD96821F4C3
:1035A000E0610904090C0A43DA60D3F8FC200949F8
:1035B00042F08072C3F8FC200A6842F001020A60FF
:1035C0001022DA7783F82200704700BF00ED00E098
:1035D0000003FA05001000E0202310B583F31188E2
:1035E0000B4B5B6813F400630FD0EFF309844FF0CB
:1035F0008073203CE36184F30988FFF7B1FC10B1CC
:10360000044BA36110BD044BFBE783F31188F9E77A
:1036100000ED00E06F05000872050008704700002B
:10362000FEE700000A4B0B480B4A90420BD30B4BB2
:10363000C11EDA1C121A22F003028B4238BF00228C
:103640000021FDF7BFBE53F8041B40F8041BECE754
:103650000C3C0008A0250020A0250020A02500206B
:103660007047000000F030B808B500F063F9FFF7CC
:10367000A5FCBDE80840FFF759BF000070470000F7
:103680004FF0FF310E4B1A6919611A6900221A6155
:103690001869D868D960D968DA60DA68DA6942F0FE
:1036A0008052DA61DA69DA6942F00062DA61054A69
:1036B000DB69136843F48073136000F01BB900BF2B
:1036C0000010024000700040194B1A6842F00102DD
:1036D0001A601A689007FCD51A6802F0F9021A609D
:1036E00000225A605A6812F00C0FFBD11A6842F49B
:1036F00080321A601A689103FCD55A6842F4E812C5
:103700005A601A6842F080721A601A689201FCD5F9
:103710001221084A5A60084A11605A6842F00202AF
:103720005A605A6802F00C02082AFAD1704700BFAA
:103730000010024000641D0000200240084A08B545
:10374000516913680B4003F00103536123B1054A2B
:1037500013680BB150689847BDE80840FFF73CBFBD
:103760000004014020250020084A08B5516913686B
:103770000B4003F00203536123B1054A93680BB178
:10378000D0689847BDE80840FFF726BF0004014015
:1037900020250020084A08B5516913680B4003F042
:1037A0000403536123B1054A13690BB1506998476B
:1037B000BDE80840FFF710BF0004014020250020AD
:1037C000084A08B5516913680B4003F008035361B8
:1037D00023B1054A93690BB1D0699847BDE8084009
:1037E000FFF7FABE0004014020250020084A08B572
:1037F000516913680B4003F01003536123B1054A6C
:10380000136A0BB1506A9847BDE80840FFF7E4BE61
:103810000004014020250020174B10B55A691C6890
:10382000144004F478725A61A30604D5134A936ACB
:103830000BB1D06A9847600604D5104A136B0BB1E0
:10384000506B9847210604D50C4A936B0BB1D06B93
:103850009847E20504D5094A136C0BB1506C9847A0
:10386000A30504D5054A936C0BB1D06C9847BDE80D
:103870001040FFF7B1BE00BF00040140202500202A
:103880001A4B10B55A691C68144004F47C425A6102
:10389000620504D5164A136D0BB1506D9847230588
:1038A00004D5134A936D0BB1D06D9847E00404D54D
:1038B0000F4A136E0BB1506E9847A10404D50C4A01
:1038C000936E0BB1D06E9847620404D5084A136F0B
:1038D0000BB1506F9847230404D5054A936F0BB181
:1038E000D06F9847BDE81040FFF776BE0004014056
:1038F00020250020062108B50846FFF747F80621D5
:103900000720FFF743F806210820FFF73FF80621BC
:103910000920FFF73BF806210A20FFF737F80621B8
:103920001720FFF733F8BDE8084006212820FFF7ED
:103930002DB8000008B5FFF7A3FE064800F00EF80A
:10394000FFF742F8FFF746FAFFF798FEBDE8084098
:1039500000F002B8A03B000800F042B8002319466E
:103960001C4A0133102BC2E9001102F10802F8D100
:10397000194B9A6942F07D029A619B690268174B64
:10398000DA6082685A6042681A60C26803F5806330
:10399000DA6042695A6002691A608269C3F80C24CD
:1039A000026AC3F80424C269C3F80024426AC3F857
:1039B0000C28C26AC3F80428826AC3F80028026B84
:1039C000C3F80C2C826BC3F8042C426BC3F8002C98
:1039D000704700BF20250020001002400008014071
:1039E0004FF0E023044A08215A6100229A6107221D
:1039F0000B201A61FEF7E0BF3F19010008B5202334
:103A000083F31188FFF7FAFA002383F3118808BDC6
:103A100008B5FFF7F3FFBDE80840FFF7DDBD000084
:103A200010B501390244904201D1002005E003782D
:103A300011F8014FA34201D0181B10BD0130F2E76D
:103A40002DE9F0419BB10446C91A1778014403F1EE
:103A5000FF3C8C42204601D9002008E00578013463
:103A6000BD42F6D10CEB0405D618A54201D1BDE844
:103A7000F08115F8018D16F801EDF045F5D0E8E775
:103A8000034611F8012B03F8012B002AF9D17047E6
:103A90006F72672E6172647570696C6F742E6170DD
:103AA0005F7065726970685F72616E676566696E86
:103AB000646572004E6F20617070207369670A0040
:103AC000426164206677206C656E67746820257596
:103AD0000A0042616420626F6172645F696420253C
:103AE000752073686F756C642062652025750A0007
:103AF0004261642066772064657363726970746FD5
:103B000072206C656E6774682025750A00426164D6
:103B10002061707020435243203078253038783A45
:103B2000307825303878203078253038783A307839
:103B3000253038780A00476F6F64206669726D77A8
:103B40006172650A0040A2E4F16468910600000019
:103B5000000000009D2D0008892D0008C52D0008DB
:103B6000B12D0008BD2D0008A92D0008952D0008D5
:103B7000812D0008D12D00086D61696E00000000E4
:103B800069646C6500000000803B00084824002048
:103B9000F824002001000000B92F000800000000F8
:103BA0000C1E0000447B4144B4574944010000000E
:103BB00042444444444444440000000044444444D7
:103BC00044444444000000004444444444444444C5
:103BD000000000004444444444444444B4C5FF7FCE
:103BE0000100000000000000E803000000000000E9
:103BF000009C0100000000006400000000000000C4
:0C3C000040420F00FE2A0100D204000028
:00000001FF
