:020000040800F2
:1000000000090020A5040008E1140008611400089C
:10001000B9140008611400088D140008A704000832
:10002000A7040008A7040008A704000881350008F9
:10003000A7040008A7040008A7040008B93A0008AC
:10004000A7040008A7040008A7040008A7040008E4
:10005000A7040008A7040008513800087D380008EC
:10006000A9380008D538000801390008A70400089D
:10007000A7040008A7040008A7040008A7040008B4
:10008000A7040008A7040008A70400082924000802
:1000900095240008E92400083D2500082D390008B2
:1000A000A7040008A7040008A7040008A704000884
:1000B000A7040008A7040008A7040008A704000874
:1000C000A7040008A7040008A7040008A704000864
:1000D000A70400088129000895290008A704000842
:1000E00095390008A7040008A7040008A704000821
:1000F000A7040008A7040008A7040008A704000834
:10010000A7040008A7040008A7040008A704000823
:10011000A7040008A7040008A7040008A704000813
:10012000A7040008A7040008A7040008A704000803
:10013000A7040008A7040008A7040008A7040008F3
:10014000A7040008A7040008A7040008A7040008E3
:10015000A7040008A7040008A7040008A7040008D3
:10016000A7040008A7040008A7040008A7040008C3
:10017000A7040008A7040008A7040008A7040008B3
:10018000A7040008A7040008A7040008A7040008A3
:10019000A7040008A7040008A7040008A704000893
:1001A00053B94AB9002908BF00281CBF4FF0FF31DE
:1001B0004FF0FF3000F074B9ADF1080C6DE904CEDA
:1001C00000F006F8DDF804E0DDE9022304B0704732
:1001D0002DE9F047089D04468E46002B4DD18A42FA
:1001E000944669D9B2FA82F252B101FA02F3C2F12D
:1001F000200120FA01F10CFA02FC41EA030E9440BE
:100200004FEA1C48210CBEFBF8F61FFA8CF708FBDE
:1002100016E341EA034306FB07F199420AD91CEBB6
:10022000030306F1FF3080F01F81994240F21C81E8
:10023000023E63445B1AA4B2B3FBF8F008FB103330
:1002400044EA034400FB07F7A7420AD91CEB040465
:1002500000F1FF3380F00A81A74240F20781644435
:10026000023840EA0640E41B00261DB1D4400023BA
:10027000C5E900433146BDE8F0878B4209D9002D1E
:1002800000F0EF800026C5E9000130463146BDE8A8
:10029000F087B3FA83F6002E4AD18B4202D3824212
:1002A00000F2F980841A61EB030301209E46002DC1
:1002B000E0D0C5E9004EDDE702B9FFDEB2FA82F216
:1002C000002A40F09280A1EB0C014FEA1C471FFA74
:1002D0008CFE0126200CB1FBF7F307FB131140EA5B
:1002E00001410EFB03F0884208D91CEB010103F128
:1002F000FF3802D2884200F2CB804346091AA4B2EA
:10030000B1FBF7F007FB101144EA01440EFB00FEBD
:10031000A64508D91CEB040400F1FF3102D2A64522
:1003200000F2BB800846A4EB0E0440EA03409CE7C1
:10033000C6F12007B34022FA07FC4CEA030C20FA6E
:1003400007F401FA06F31C43F9404FEA1C4900FA8E
:1003500006F3B1FBF9F8200C1FFA8CFE09FB18110B
:1003600040EA014108FB0EF0884202FA06F20BD97E
:100370001CEB010108F1FF3A80F08880884240F2CE
:100380008580A8F102086144091AA4B2B1FBF9F012
:1003900009FB101144EA014100FB0EFE8E4508D90D
:1003A0001CEB010100F1FF346CD28E456AD9023892
:1003B000614440EA0840A0FB0294A1EB0E01A14277
:1003C000C846A64656D353D05DB1B3EB080261EBE5
:1003D0000E0101FA07F722FA06F3F1401F43C5E9BF
:1003E000007100263146BDE8F087C2F12003D840F5
:1003F0000CFA02FC21FA03F3914001434FEA1C4737
:100400001FFA8CFEB3FBF7F007FB10360B0C43EA28
:10041000064300FB0EF69E4204FA02F408D91CEBD8
:10042000030300F1FF382FD29E422DD902386344D6
:100430009B1B89B2B3FBF7F607FB163341EA034176
:1004400006FB0EF38B4208D91CEB010106F1FF38C5
:1004500016D28B4214D9023E6144C91A46EA0046BC
:1004600038E72E46284605E70646E3E61846F8E64E
:100470004B45A9D2B9EB020864EB0C0E0138A3E797
:100480004646EAE7204694E74046D1E7D0467BE778
:10049000023B614432E7304609E76444023842E7F0
:1004A000704700BF02E000F000F8FEE772B63A487D
:1004B00080F30888394880F3098839484EF6085196
:1004C000CEF20001086040F20000CCF200004EF6CF
:1004D0003471CEF200010860BFF34F8FBFF36F8F0E
:1004E00040F20000C0F2F0004EF68851CEF200015A
:1004F0000860BFF34F8FBFF36F8F4FF00000E1EE46
:10050000100A4EF63C71CEF200010860062080F31E
:100510001488BFF36F8F03F0B3F803F08FF803F084
:10052000C1F84FF055301F491B4A91423CBF41F87A
:10053000040BFAE71C49194A91423CBF41F8040BED
:10054000FAE71A491A4A1B4B9A423EBF51F8040B6C
:1005500042F8040BF8E700201749184A91423CBFC3
:1005600041F8040BFAE703F06DF803F0D7F8144CE8
:10057000144DAC4203DA54F8041B8847F9E700F045
:1005800041F8114C114DAC4203DA54F8041B884772
:10059000F9E703F055B80000000900200011002021
:1005A000000000080001002000090020F83C0008BD
:1005B00000110020201100202011002028260020FA
:1005C000A0010008A0010008A0010008A001000887
:1005D0002DE9F04F2DED108AC1F80CD0C3689D466F
:1005E000BDEC108ABDE8F08F002383F31188284604
:1005F000A047002002F04CFDFEE702F0D1FC00DF36
:10060000FEE700002DE9F04102F062FF074602F02C
:10061000ADFF054600283ED12B4B9F423BD0013316
:100620009F423BD0294B27F0FF029A423AD1F8B2C1
:1006300000F054FAA84642F2107400F059FC08B1D8
:100640000024A04600F050FA064678B384BB464624
:1006500035B11F4B9F4203D002F080FF0024264695
:10066000002002F03FFF1B4B1B6913F0400322D018
:100670000EB100F031F800F05FFC00F031FE00F048
:1006800031FF0546CCB100F02DFF401BA04214D92C
:1006900000F022F8F3E7A8460024CEE704464FF026
:1006A0000108CAE780464FF47A74C6E70446CFE7EC
:1006B0004FF47A74CCE71C46DDE700F0DDFC012046
:1006C00002F0ECFCDEE700BF010007B0000008B05C
:1006D000263A09B00004004838B51D4A1D4B196878
:1006E000013134D004339342F9D11B4C194DD4F865
:1006F0000428AA422BD3194B9B6803F1006303F52E
:10070000D0439A4223D202F0FDFE02F00FFF0020F8
:1007100000F000FE124B0220187000F037FE114B63
:10072000DA690022DA61D96999699A619B6972B6BE
:100730004FF0E0232021C3F8085DD4F80038D4F846
:10074000042881F311889D4683F30888104738BD3B
:100750002068000800680008006000080011002000
:100760002011002000100240094A136849F2690074
:1007700099B21B0C00FB01331360064B186844F25E
:10078000506182B2000C01FB0200186080B2704719
:100790001C1100201811002010B500211022044661
:1007A00000F00EFE034B03CB206061601868A06070
:1007B00010BD00BFACF7FF1F2DE9F043224DBBB0C9
:1007C00000F090FEAB6840F2ED22C31A934232D99A
:1007D00006AFA8602B4628220021384601F05EFBB8
:1007E00005F10E0000F0E4FD002604465FFA80F9F2
:1007F00005F10E08F3B2F100994501F1280107D97E
:1008000008EB06030822384601F048FB0136F1E701
:1008100008230122CDE9023205340C4B0193A4B226
:1008200030230093CDE9047405A3D3E90023297B89
:10083000074801F04BF93BB0BDE8F083AFF300800F
:1008400078F6339F93CACD8D682100207521002052
:100850003C21002070B50D4614461E4601F0CCF830
:1008600050B9022E10D1012C0ED112A3D3E90023CE
:10087000C5E90023012007E0282C10D005D8012C61
:1008800009D0052C0FD0002070BD302CFBD10BA35C
:10089000D3E90023ECE70BA3D3E90023E8E70BA39C
:1008A000D3E90023E4E70BA3D3E90023E0E700BF8B
:1008B000AFF30080401DA12026812A0B78F6339FDC
:1008C00093CACD8D9E6AC421818A46EE26417272FA
:1008D000DF25D7B7F017304A39059E5613B50446C1
:1008E0002346084620220021019001F0D7FA227900
:1008F0000198032A234628BF032203F8042F20214E
:10090000022201F0CBFA62790198072A234628BF18
:10091000072203F8052F2221032201F0BFFAA27952
:100920000198072A234628BF072203F8062F25210E
:10093000032201F0B3FA019804F1080310222821E0
:1009400001F0ACFA382002B010BD00002DE9F04FE4
:10095000ADF5017D21AD0EAE40F2751280460F4619
:1009600022A80021296000F02BFD482200213046FA
:1009700000F026FD00F0B6FD564B4FF47A72B0FB46
:10098000F2F0186093E80700012386E807000DF1F4
:100990005A003382FFF700FF4EF60343338407AB60
:1009A00018464D4903F0C2F81B22306429463046F0
:1009B00086F83C20FFF792FF12AB0446014608225E
:1009C000284601F06BFA0822A1180DF149032846C8
:1009D00001F064FA0DF14A03082204F110012846DF
:1009E00001F05CFA13AB202204F11801284601F053
:1009F00055FA14AB402204F13801284601F04EFAB2
:100A000016AB082204F17801284601F047FA0DF1EF
:100A10005903082204F18001284601F03FFA04F14D
:100A2000880A0DF15A0904F5847B4B465146082289
:100A300028460AF1080A01F031FAD34509F1010903
:100A4000F3D11BAB08225946284601F027FA04F5DA
:100A500088744FF0000996F834304B450AD9B36BCF
:100A600021464B440822284601F018FA083409F1BF
:100A70000109F0E74FF0000996F83C304B4504EBD4
:100A8000C90108D9336C08224B44284601F006FA04
:100A900009F10109F0E700230393BB7E02930731BC
:100AA00007F119030193C1F3CF010123CDE90451EB
:100AB0000093F97E05A3D3E90023404601F006F830
:100AC0000DF5017DBDE8F08FAFF300809E6AC42173
:100AD000818A46EE241100203C3B0008014B18702F
:100AE000704700BF30110020F0B5334B1C7B85B040
:100AF00034B1324B0E221A810024204605B0F0BDDD
:100B00002F4A1068516802AB03C308232D492E48B1
:100B10000DEB030202F0E8FF054630B9274B2B48E6
:100B20000A221A8100F098FCE6E70169B1F5663FF8
:100B300006D9224B26480B221A8100F08DFCDCE7F7
:100B4000438BB3F57B7F09D01C4A22480C211181CD
:100B50004FF47B72194600F07FFCCEE71E4A024438
:100B600002F11003994204D2144B1C4810221A813E
:100B7000E3E710398E1A2046134900F0B7FC3246DD
:100B8000074605F11801204600F0B0FCAB689F4213
:100B900002D1EB6898420AD0084B0D221A810090CE
:100BA000D5E902123B460E4800F056FCA4E70D487A
:100BB00000F052FC0124A0E768210020241100204D
:100BC000E93B0008DC97030000680008583B000878
:100BD000643B0008763B00080898FFF7943B000848
:100BE000B13B0008DA3B00082DE9F04FADB006AF8D
:100BF00080460C4600F000FF054600285AD1237EAF
:100C0000022B1BD1E38A012B18D100F06BFC0646A6
:100C1000FFF7AAFD03464FF4C870DFF8D092B3FB8C
:100C2000F0F206F5167602FB103316FA83F3C9F8D4
:100C30000030E37E33B9A84B00221A709C37BD46C2
:100C4000BDE8F08FA38AEEB2013BB34205F1010586
:100C50000BD93B1D1E44E90000960023082201F039
:100C6000F801204600F0DEFFECE707F11400FFF783
:100C700093FD324607F11401381D02F025FF0028CC
:100C8000D9D10F2E08D8944B1E70D9F80030A3F597
:100C90001673C9F80030D1E7FB1CF87001460093C9
:100CA00007220346204600F0BDFFF978404600F0D9
:100CB0009BFEC3E7E38A282B26D010D8012B1ED039
:100CC000052BBBD1BFF34F8F8449854BCA6802F413
:100CD000E0621343CB60BFF34F8F00BFFDE7302BC3
:100CE000ACD1637E7F4D01336A7BDBB29342E94630
:100CF00003D1E27E2B7B9A4265D0CD469EE721460A
:100D00004046FFF723FE99E7A38A013B9BB2C92B1C
:100D100094D8744D2E7B26BB05F10C03009308225A
:100D200033463146204600F07DFF731CF2B2D900F5
:100D30001E46A38A013B9A4205DA0E322A440092EB
:100D400000230822EEE700230022C5E90023002348
:100D5000AB6085F8D730C5F8D8302B7B0BB9E37E74
:100D60002B73002507F114093B1D0822294648462C
:100D7000C7E90155FD6001F091F83B7A05F1010AE0
:100D8000AB424FEACA0608D9FB6808222B44314619
:100D9000484601F083F85546EFE7C6F3CF06E17EFB
:100DA000CDE9049600230393A37E029319342823EC
:100DB0000093019446A3D3E90023404600F086FE49
:100DC000FFF7FAFC3AE74FF0000807F11403A7F821
:100DD00014801022009341460123204600F022FF98
:100DE000A68A023EB6B2F31C9B109B000733DB08B9
:100DF000A9EBC3039D460DF1180A1FFA88F34FEAC9
:100E0000C801B34201F110010AD20AEB08030093B2
:100E100008220023204600F005FF08F10108ECE756
:100E200095F8D70000F080FAD5F8D83004461BB901
:100E300095F8D70000F088FAD5F8D83033449C42B2
:100E400004D295F8D700013000F07EFA4FEA960BF5
:100E50004FF000081FFA88F18B45D5E9003209D917
:100E60000AEB880103EB8800012200F0B1FA08F1D7
:100E70000108EFE7F31842F10002C5E90032D5F8A6
:100E8000D83095F8D70006EB0308C5F8D88000F0F5
:100E90004BFA804509D395F8D730D5F8D8000133FF
:100EA000001B85F8D730C5F8D800FF2E08D80023DE
:100EB0002B7300F05BFAFFF717FE08B1FFF70CFC8D
:100EC0002B68094A9B0A013313810023AB6014E7A6
:100ED00026417272DF25D7B73521002000ED00E0F2
:100EE0000400FA0568210020241100203821002088
:100EF00010B54FF000540C4B22689A4211D10B4BA5
:100F0000627D1A700A48237D03730A49C9220E3094
:100F100000F044FAE0220021204600F051FA0120BE
:100F200010BD0020FCE700BF9AAD44C53011002081
:100F300068210020160000202DE9FF41434C0223C8
:100F400063710023029324250A23581EB5FBF3F690
:100F50007343D3F12402C1B23ED002280346F4D138
:100F60009DF80B303A493B485A1E9DF80A30013B28
:100F70001B0443EA0253BDF80820013A13434B60B7
:100F800001F044FD00230193334B3449009334486E
:100F9000344B4FF4805200F001FD334B197811B1FE
:100FA0002F4800F021FD00F09DFA0546FFF7DCFB1D
:100FB0004FF4C873B0FBF3F202FB130305F5167090
:100FC00010FA83F0294B186002F0D0FA08B10F2311
:100FD000238104B0BDE8F081C1EBC107FB1C4FEADF
:100FE000E30EC3F3C703A1EB030C0EF101084FF4AA
:100FF0007A705FFA8CF50EFB000058FA8CFCB0FB9F
:10100000FCF0B0F5617F07D97B1EC3F3C703C91A93
:10101000CDB2591E0F2916D86A1E072A8CBF00228E
:101020000122591901FB06601149B1FBF0F1114889
:10103000814295D1002A93D0ADF808608DF80A302E
:101040008DF80B508CE71346EBE700BF241100200E
:1010500010110020802200205508000834110020C3
:101060003C210020E90B000830110020382100202D
:101070000051250240420F002DE9F04F90A7D7E91B
:1010800000670FF24429D9E90089874D93B0DFF852
:1010900040B2864C284600F07DFD0DF1300A0790E5
:1010A00070B310220021504600F08AF9079B197B8B
:1010B0004FF0000261F303028DF830205868996800
:1010C0000EAA03C21B680D9A63F31C029DF8303010
:1010D0000D9243F020038DF830300023524619461C
:1010E000584601F0A3FC079028B9284600F056FDA9
:1010F000079B2370CEE72378072B3CD8013323705E
:1011000018220021504600F05BF9DFF8C4B100233B
:1011100019465246584601F0B1FC014678BB1022F0
:1011200008A800F04DF94FF0904209AC536983F0E4
:101130001003536100F0D8F90B4612A9024611E9D9
:10114000030084E803009DF83410C1F3030089060E
:101150004CBF0E9CBDF838408DF82C0046BFC4F340
:101160001C0444F00044C4F30A0408A92846089467
:1011700000F0DCFECBE7284600F010FDC0E7284673
:1011800000F03AFC0446002848D1DFF848B100F0EE
:10119000A9F9DBF80030984240D300F0A3F907909A
:1011A000FFF7E2FA079A8DF8204003464FF4C87023
:1011B00002F51672B3FBF0F101FB103312FA83F360
:1011C000CBF80030DFF810B19BF8001011B9012303
:1011D0008DF8203050460791FFF7DEFA0799C1F1EC
:1011E0001004E4B2062C28BF0624224651440DF117
:1011F000210000F0D3F808AB0393182302930134C5
:101200002B4B0193E4B20123009304943B463246F6
:10121000284600F0F3FB00238BF8003000F062F961
:10122000244A254C1368C31AB3F57A7F31D3106072
:1012300000F05AF902460B46284600F0B9FC284651
:1012400000F0DAFB28B3237BDFF890B0002B14BF4B
:10125000032302238BF8053000F044F94FF47A732E
:101260005146B0FBF3F0CBF800005846FFF736FBD1
:10127000182307300293114B0193C0F3CF0040F2C3
:101280005513CDE903A0009342464B46284600F093
:10129000B5FB237B2BB1FFF78FFA237B002B7FF469
:1012A000F6AE13B0BDE8F08F3C2100204D220020A7
:1012B0003421002048220020682100204C220020F8
:1012C000401DA12026812A0BF1C6A7C1D068080FB6
:1012D0008022002038210020352100202411002008
:1012E00070B501F0B5FF094E094D30800024286823
:1012F0003388834208D901F0A7FF2B6804440133E7
:10130000B4F5D04F2B60F2D370BD00BF7C2200201B
:101310005022002002F03AB800F10060920000F57F
:10132000D04001F0D5BF0000054B1A68054B1B8863
:101330009B1A834202D9104401F086BF00207047F7
:10134000502200207C22002038B5074D0446286832
:10135000204401F07FFF28B928682044BDE83840C8
:1013600001F08ABF38BD00BF50220020064991F825
:10137000243033B10023086A81F824300822FFF7B3
:10138000CBBF0120704700BF54220020022802BFBB
:101390004FF090434FF480129A61704710B50023CC
:1013A000934203D0CC5CC4540133F9E710BD000074
:1013B00003460246D01A12F9011B0029FAD17047E0
:1013C00002440346934202D003F8011BFAE7704738
:1013D0002DE9F8431F4D144695F82420074688460A
:1013E00052BBDFF870909CB395F824302BB92022C3
:1013F000FF2148462F62FFF7E3FF95F82400C0F174
:101400000802A24228BF2246D6B24146920005EB0E
:101410008000FFF7C3FF95F82430A41B1E44F6B2EA
:10142000082E17449044E4B285F82460DBD1FFF71E
:101430009DFF0028D7D108E02B6A03EB820383428B
:10144000CFD0FFF793FF0028CBD10020BDE8F88371
:101450000120FBE7542200200FB4002004B07047A5
:1014600000B59BB0EFF3098168226846FFF796FF4D
:10147000EFF30583044B9A6BDA6A9A6A9A6A9A6A5E
:101480009A6A9A6A9B6AFEE700ED00E000B59BB09D
:10149000EFF3098168226846FFF780FFEFF30583C9
:1014A000044B9A6B9A6A9A6A9A6A9A6A9A6A9B6ACF
:1014B000FEE700BF00ED00E000B59BB0EFF309814F
:1014C00068226846FFF76AFFEFF30583034B5A6B08
:1014D0009A6A9A6A9A6A9A6A9B6AFEE700ED00E045
:1014E000FEE7000001F08EBF01F064BF30B5094D8A
:1014F0000A4491420DD011F8013B5840082340F3B3
:101500000004013B2C4013F0FF0384EA5000F6D1A5
:10151000EFE730BD2083B8ED2DE9F041C56915B97D
:10152000C161BDE8F0814B6823F06047C3F38A4690
:101530004FEAD37EC3F3807816EA230638BF3E46CF
:10154000AC462B465A68BEEBD27F22F060440AD0EC
:10155000002A18DAA40CB44217D19D420FD10D60B5
:10156000DEE71346EEE7A74207D102F08044C2F35C
:10157000807242450BD054B1EFE708D2EDE7CCF8CA
:1015800000100B60CDE7B44201D0B442E5D81A6830
:101590009C46002AE5D11960C3E700002DE9F04719
:1015A000089D01F007044FEAD508224405F007051D
:1015B00000EBD1004FF47F49944201D1BDE8F087A0
:1015C00004F0070705F0070A57453E4638BF564660
:1015D000C6F10806111B8E4228BF0E46E10808EB33
:1015E000D50E415C13F80EC0B94029FA06F721FA6E
:1015F0000AF1FFB28CEA010147FA0AF739408CEA96
:10160000010C03F80EC034443544D5E780EA0120CC
:10161000082341F2210201B24000002980B203F107
:10162000FF33B8BF504013F0FF03F4D17047000000
:1016300038B50C468D18A54200D138BD14F8011BF1
:10164000FFF7E4FFF7E7000002684AB113680360A0
:10165000C388018901339BB29942C38038BF03819B
:101660001046704770B588B0202204460D46684683
:101670000021FFF7A5FE20460495FFF7E5FF02468F
:1016800058B16B46054608AE1C4603CCB4422860F0
:101690006960234605F10805F6D1104608B070BD13
:1016A000082817D909280CD00A280CD00B280CD0F0
:1016B0000C280CD00D280CD00E2814BF4020302050
:1016C00070470C2070471020704714207047182076
:1016D0007047202070470000082817D90C280CD923
:1016E00010280CD914280CD918280CD920280CD96A
:1016F00030288CBF0F200E207047092070470A2029
:1017000070470B2070470C2070470D207047000079
:1017100010B54B6823B9CA8A63F30902CA8210BDA7
:10172000C4681A681C60C360438A013B43824A60F4
:10173000EFE700002DE9F84F1D46CB8A0F46C3F3B3
:1017400009010629814692460B4630D00020AAB2F4
:1017500007F119049EB2052E1FFA80F80FD89045A4
:1017600003F1010306D3FB8A0A4462F30903FB82F7
:1017700001201AE01AF80060E6540130EAE79045CB
:10178000F1D2A1F1060B1C237C68BBFBF3F203FB37
:1017900012BB1FFA8BF6002C45D14846FFF754FFC9
:1017A000044638B978606FF00200BDE8F88F4FF05A
:1017B0000008E6E7002606607860ADB24FF0000B47
:1017C000454510D90AEB0803221D13F8011B91555A
:1017D000B1B208F101081B291FFA88F82BD0454542
:1017E00006F10106F1D8FB8AC3F30902154465F33B
:1017F0000903BCE7013292B21C462368002BF9D1E1
:10180000AB1F0B441C21B3FBF1F301339BB29A4293
:10181000D3D2BBF1000FD0D14846FFF715FF20B956
:10182000C4F800B0BFE70122E7E7C0F800B05E46A9
:1018300020600446C1E74545D5D94846FFF704FF77
:1018400008B92060AFE7C0F800B000262060044669
:10185000B6E700002DE9F04F2DED028B83B0CDE906
:101860000013BDF83C5007469146002A00F09280D4
:101870002DB10E9B002B00F08D80072D32D807F183
:101880000C00FFF7E1FE044638B96FF00204204671
:1018900003B0BDEC028BBDE8F08F14220021FFF7EE
:1018A0008FFD0E992A4604F10800FFF777FD681CAA
:1018B000C0B2FFF711FFFFF7F3FE207499F8003074
:1018C000013814FA80F003F01F0363F03F03037242
:1018D000009B43F00041616038462146FFF71CFE43
:1018E0000124D4E700F10C034FF0000808EE103A91
:1018F0004FF0800A4646444618EE100AFFF7A4FE51
:1019000083460028C1D014220021FFF759FDC6BB31
:10191000019BABF8083002200E9B00F108029919D8
:101920005BFA82F20130C0B2082801D0AE422AD35D
:10193000FFF7D2FEFFF7B4FE99F80020009B411E8E
:1019400002F01F0242EA4812AE4208BF4FF0400ABE
:101950005BFA81F14AEA020A43F0004281F808A0EA
:101960008BF81000CBF8042059463846FFF7D4FD19
:101970000134AE4224B288F001084FF0000ABBD116
:1019800085E70020C8E711F801CB02F801CB01364A
:10199000B6B2C7E76FF0010479E70000F8B5154665
:1019A0000E462822002104461F46FFF709FD069B2C
:1019B0006360B5F5001F079BA76034BF6A094FF647
:1019C000FF72236204F10C0097B200239A4205D8FB
:1019D0000023036027826382A382F8BD066001337F
:1019E00030462036F2E7000003781BB94BB2002BDB
:1019F000C8BF017070470000007870472DE9F74FAD
:101A0000DDF83C90BDF830500D9E9DF83840BDF893
:101A10004070804692469B46B9F1000F01D1002FDD
:101A200051D11F2C4FD898F80000B0B9072F47D8D4
:101A300035F0030347D13A4649464FF6FF70FFF7AA
:101A4000F7FD20F001002D02400445EA0464400C3B
:101A500044EA40244FF6FF7321E040EA0520072FB7
:101A600040EA0464F6D900254FF6FF73C5F1200063
:101A7000A5F120022AFA05F10BFA00F001432BFA36
:101A800002F211431846C9B2FFF7C0FD0835402DD8
:101A90000346EBD13A464946FFF7CAFD0346CDE976
:101AA0000097324621464046FFF7D4FE3378013393
:101AB000DBB21F2B88BF0023337003B0BDE8F08F6B
:101AC0006FF00300F9E76FF00100F6E72DE9F04F42
:101AD00085B09246DDF848800F9D9DF840209DF826
:101AE0004490BDF84C7006469B46B8F1000F01D1FA
:101AF000002F48D11F2A46D83378002B46D00C023D
:101B000044EA02649DF8381044EAC93444EA0144C6
:101B10001C43072F44F0800432D900234FF6FF7294
:101B2000C3F1200CA3F120002AFA03F10BFA0CFCFC
:101B300041EA0C012BFA00F00143C9B210460393AD
:101B4000FFF764FD039B0833402B0246E8D13A4679
:101B50004146FFF76DFD0346CDE900872A46214641
:101B60003046FFF777FEB9F1010F06D12B7801332C
:101B7000DBB21F2B88BF00232B7005B0BDE8F08FB0
:101B80004FF6FF73E8E76FF00100F6E76FF0030030
:101B9000F3E70000C06900B104307047C3691A68F8
:101BA000C261C2681A60C360438A013B43827047C6
:101BB0002DE9F041D0F81880194E14461D464146D3
:101BC000002709B9BDE8F081D1E90223A21A65EB2B
:101BD0000303964277EB03031ED283698B420DD138
:101BE000FFF796FD83691B688361C3680B60438AB6
:101BF000C1608169013B43828846E2E7FFF788FDC7
:101C00000B68C8F80030C3680B60438AC160013BB1
:101C10004382D8F80010D4E788460968D1E700BFAE
:101C200080841E002DE9F04F8BB00D46DDF85090FA
:101C300014469B468046002800F01981B9F1000F38
:101C400000F01581531E3F2B00F21181012A03D1B0
:101C5000BBF1000F40F00B810023CDE90833B8F849
:101C60001430B5EBC30F4FEAC30703D300200BB00A
:101C7000BDE8F08F2B199F42D8F80C303ABF7F1B7C
:101C8000FFB227461BB9D8F81030002B7AD02F2D81
:101C90004ED8C5F13006B7424FF000032CBFF6B264
:101CA0003E4600932946D8F8080008AB3246FFF7B5
:101CB00075FCA7EB060A35445FFA8AFAB8F81430C7
:101CC00003F10053063BDB000493D8F80C30039378
:101CD0003021039B13B1BAF1000F2CD1D8F81000BA
:101CE00040B1BAF1000F05D0009608AB5246691A10
:101CF000FFF754FC38B2002FB8D066070AD00AAB01
:101D000003EBD401624211F8083C02F007021341D0
:101D100001F8083C082C3CD9102C40F2B580202C4E
:101D200040F2B780BBF1000F00F09C80082334E044
:101D3000BA460026C2E7049BE02B28BFE0230693A7
:101D40000B44AB42059314D95A1B03980096924555
:101D500034BF5246D2B2691A08AB04300792FFF77B
:101D60001DFC079A1644AAEB020A1544F6B25FFA64
:101D70008AFA049B069A05999B1A0493039B1B6895
:101D80000393A6E70093D8F8080008AB3A46294623
:101D9000AEE7BBF1000F13D00123B4EBC30F6CD03F
:101DA000082C12D89DF82030621E23FA02F2D507C3
:101DB00006D54FF0FF3202FA04F423438DF82030A9
:101DC0009DF8203089F8003051E7102C12D8BDF86A
:101DD0002030621E23FA02F2D10706D54FF0FF32FF
:101DE00002FA04F42343ADF82030BDF82030A9F8FE
:101DF00000303CE7202C0FD80899631E21FA03F32A
:101E0000DA0705D54FF0FF3202FA04F40C430894C8
:101E1000089BC9F800302AE7402C2BD0DDE9086583
:101E2000611EC4F12102A4F1210326FA01F105FA91
:101E300002F225FA03F311431943CB0712D501220D
:101E4000A4F12003C4F1200102FA03F322FA01F104
:101E5000A240524243EA010363EB430332432B4364
:101E6000CDE90823DDE90823C9E90023FFE66FF087
:101E70000100FCE66FF00800F9E6082CA0D9102C50
:101E8000B3D9202CEED8C3E7BBF1000FADD00223AD
:101E900083E7BBF1000FBBD004237EE730B5012AF6
:101EA000144638BF0124402C85B028BF40240025AB
:101EB000012ACDE9025518D81B788DF80830630740
:101EC0000AD004AB03EBD405624215F8083C02F0DB
:101ED0000702934005F8083C009103462246002182
:101EE00002A8FFF75BFB05B030BD082AE4D9102A31
:101EF00003D81B88ADF80830E1E7202A8DBFD3E96D
:101F000000231B680293CDE90223D8E710B5CB6804
:101F10001BB98B600B618B8210BDC4681A681C6092
:101F2000C360438A013B4382CA60F0E72DE9F04F6A
:101F3000D1F8008093B018F0800FCDE90323C8F3E7
:101F4000C01219BFC8F3C03BC8F306264FF0020BFE
:101F50001646B8F1000F04460D4680F2D18118F004
:101F6000C043059340F0CC810B7B002B00F0C8816F
:101F7000BBF1020F03D00178B14240F0C48108F0F8
:101F80007F0106916AB3C8F3074A2B44069A93F877
:101F90000390760646EA0B4646EA82465FEAD91384
:101FA00046EA0A06079300F0908000220023CDE95C
:101FB0000A23069B009367685B4652460AA920469F
:101FC000B84700287ED0A7699FB9314604F10C00BC
:101FD000FFF748FB0746E0B96FF0020013B0BDE819
:101FE000F08FC8F30F2A18F07F0F08BF0AF0030A1A
:101FF000CBE73B699E420DD03F68002FF9D13146B7
:1020000004F10C00FFF72EFB07460028E4D0A3697B
:102010003B60A761DDE90A2300264FF6FF70C6F199
:10202000200E22FA06F103FA0EFEA6F1200C23FA86
:102030000CFC41EA0E0141EA0C01C9B208360992D2
:102040000893FFF7E3FA402EDDE90832E7D1B882C2
:10205000FB7D09F01F06C3F384039B1BD7E9022114
:1020600098B2002BBCBF00F120031BB252EA010062
:10207000C8F304680FD00398821A049860EB01013A
:10208000A74890424FF000028A4104D3079A002AE1
:102090005BD0012B23DDFA7D4FEA890302F00302B6
:1020A00003F07C031343FB7539462046FFF730FBF2
:1020B000079BA3B9FB7DC3F38402013262F386035D
:1020C000FB7504E06FF00B0088E7A76917B96FF0A4
:1020D0000C0083E73B699E42BAD03F68F6E719F0EF
:1020E000400F32D0039BBB60049BFB601422002195
:1020F0000DA8FFF765F9039B0A93049B0B932B1D17
:102100000C932B7BADF83EA0013BDBB2ADF83C302D
:10211000069B8DF8433094F824308DF840B083F05E
:1021200001038DF844308DF84160A3688DF842803A
:102130000AA920469847FB7DC3F38403013303F0CB
:102140001F039B02FB82002048E7FB7DC9F340127E
:10215000B2EBD31F40F0DA80C3F38403B34240F004
:10216000D88007992B7B4FEA9912002934D0D207E7
:1021700041D4032B40F2D080039BBB60049BFB60E7
:102180002B7BAE1D033BDBB23246394604F10C001B
:10219000FFF7D0FA00280DDA20463946FFF7B8FAE3
:1021A000FB7DC3F38403013303F01F039B02FB8217
:1021B000032013E7AB883B832A7B033AB88AD2B269
:1021C0003146FFF735FAFB7DB882DA43C2F3C0121D
:1021D00062F3C713FB75B6E76AB92E1D013BDBB28C
:1021E0003246394604F10C00FFF7A4FA0028D3DB8D
:1021F0002A7B013AE2E7F98AC1F30901013B05298B
:10220000DAB259D8281D002307F11A0C9A4208D9CE
:1022100010F801EB0CF801E0013101330629DBB2C3
:10222000F4D103990A9104990B91934207F11A0191
:102230000C9138BF043379680D9134BF55FA83F39C
:1022400000230E93FB8AADF83EA0C3F309031A44A2
:10225000069B8DF8433094F82430ADF83C2083F091
:1022600001038DF8443000238DF840B08DF84160B3
:102270008DF842807B602A7BB88A013A291DFFF7DE
:10228000D7F93B8BB882834203D1A3680AA92046C1
:10229000984720460AA9FFF739FEFB7DB88AC3F3A9
:1022A0008403013303F01F039B02FB823B8B9842A4
:1022B00014BF1120002091E67B68002BB1D00620CE
:1022C00001E01C306346D3F800C0BCF1000FF8D128
:1022D000091A081D05F1040C00EB030905989DF887
:1022E000143001EB000EBEF11B0F9AD89A4298D918
:1022F0001CF8013B09F8013B059B01330593EDE711
:102300006FF009006AE66FF00A0067E66FF00D00F3
:1023100064E66FF00E0061E66FF00F005EE600BF4E
:1023200080841E00F0B53D4D3D4FEB6943F00073D6
:10233000EB61EB693B4B9B6AD3F800623E4046F091
:102340000106C3F80062D3F800423C4044EA002092
:1023500040F00100C3F80002002951D00020C3F86A
:102360001C020646C3F80402C3F80C02C3F81402A8
:1023700003EBC00401300E28C4F84062C4F8446284
:10238000F6D100274FF0010C9678148816F0010F53
:1023900018BFD3F804E20CFA04F01CBF40EA0E0E9A
:1023A000C3F804E216F0020F1EBFD3F80CE240EAB5
:1023B0000E0EC3F80CE2760742BFD3F81462064350
:1023C000C3F8146203EBC4045668C4F8406296680C
:1023D000C4F84462D3F81C4201372043B942C3F821
:1023E0001C0202F10C02CFD1D3F8002222F001022C
:1023F000C3F80022EB6923F00073EB61EB69F0BDD9
:102400000122C3F84012C3F84412C3F80412C3F8FF
:102410001412C3F80C22C3F81C22E5E70010024096
:102420000000FFFF80220020184A916A08B58B68DF
:102430008B6013F0010104D013F00C0F18BF4FF4A0
:102440008031D80506D513F4406F14BF41F4003134
:1024500041F00201D80306D513F4402F14BF41F414
:10246000802141F00401D3690BB10848984720232B
:1024700083F311880648002100F038FE002383F31F
:102480001188BDE8084001F0AFB800BF80220020ED
:102490008822002038B5124CA36ADD68AA0712D042
:1024A0005A6922F002025A61A36913B10121204640
:1024B0009847202383F311880A48002100F016FE74
:1024C000002383F31188EB0606D5A36A1021D96097
:1024D000236A0BB102489847BDE8384001F084B840
:1024E000802200209022002038B5124CA36A1D697A
:1024F000AA0712D05A6922F010025A61A36913B1D7
:10250000022120469847202383F311880A4800219E
:1025100000F0ECFD002383F31188EB0606D5A36AD7
:1025200010211961236A0BB102489847BDE8384071
:1025300001F05AB8802200209022002038B50F4CBC
:10254000A36A5D685D602A070AD5042222701A68B2
:1025500022F002021A60636A13B1002120469847F4
:102560006B0706D5A36A9969236A13B10348090466
:102570009847BDE8384001F037B800BF80220020FE
:1025800010B50E4C204600F02FFA0D4BA3620B2124
:10259000132000F009FA0B21142000F005FA0B219A
:1025A000152000F001FA0B21162000F0FDF90022A1
:1025B000BDE8104011460E20FFF7B4BE8022002077
:1025C000006400400F4B984210B5044605D10E4BF5
:1025D000DA6942F00072DA61DB69A36A01221A60EB
:1025E000A36A5A68D20707D5626851681268D96130
:1025F0001A60064A5A6110BD0121082000F06CFCE7
:10260000EEE700BF80220020001002405B8701003F
:1026100003291AD8DFE801F0020A0F14836A9B68C5
:1026200013F0E05F14BF012000207047836A9868B0
:10263000C0F380607047836A9868C0F3C0607047D9
:10264000836A9868C0F300707047002070470000EC
:1026500010B5032925D8DFE801F00225292D836A6A
:102660009968C1F30161183103EB011310788406F6
:102670004CBF54689488C0F300114FEA410148BF31
:1026800041EAC40100F00F004CBF41F0040141EAEF
:102690004451586041F001019068D2689860DA6056
:1026A000196010BD836A03F5C073DFE7836A03F521
:1026B000C873DBE7836A03F5D073D7E701290AD033
:1026C00002290FD081B9836ADA68920701D11869AB
:1026D00003E001207047836AD86810F0030018BF38
:1026E00001207047836AF2E70020704710B539B9BE
:1026F000836AD96889071BD11B699C0704D110BD67
:10270000012915D00229FAD1816AD1F8C031D1F856
:10271000C441D1F8C8011061D1F8CC01506120202A
:1027200008610869800717D1486940F0100012E07D
:10273000816AD1F8B031D1F8B441D1F8B801106153
:10274000D1F8BC0150612020C860C868800703D15F
:10275000486940F002004861C3F34000C3F38001C0
:10276000000140EA4111107920F03000014311715D
:1027700089064BBF91681189DB085B0D4CBF63F381
:102780001C0163F30A01137948BF916064F30303EA
:1027900013714FEA14234FEA144458BF1181137088
:1027A0005480ACE7026843681143016003B11847E5
:1027B00070470000024A136843F0C003136070477B
:1027C00000380140024A136843F0C00313607047A9
:1027D0000044004037B51D4C1D4D204600F006FB5F
:1027E000009404F114001B490023202200F0C8F9D2
:1027F0002022009404F13800174B184900F042FAE7
:10280000174BC4E91735174C0C21252000F0CCF8E4
:10281000204600F0EBFA04F1140013490094002361
:10282000202200F0ADF904F13800104B104900945B
:10283000202200F027FA0F4B0C212620C4E917357F
:1028400003B0BDE8304000F0AFB800BFAC220020BC
:102850000051250284230020B5270008C42300204E
:102860000038014018230020A4230020C5270008B9
:10287000E4230020004400402DE9F047C66D37688E
:10288000F46934622107054618D014F0080118BF16
:102890008021E20748BF41F02001A30748BF41F073
:1028A0004001600748BF41F48071202383F3118801
:1028B000281DFFF777FF002383F31188E2050AD56F
:1028C000202383F311884FF40071281DFFF76AFF5E
:1028D000002383F311884FF020094FF0000A14F011
:1028E000200838D13B0616D54FF0200905F1380AEB
:1028F000200610D589F31188504600F0F7F900281A
:1029000036DA0821281DFFF74DFF27F080033360DA
:10291000002383F31188790614D5620612D520238B
:1029200083F31188D5E913239A4208D12B6C33B174
:102930001021281D27F04007FFF734FF37600023E0
:1029400083F31188E30619D5AA6E1369B3B1BDE804
:10295000F0475069184789F31188B38C95F86410D3
:102960002846194000F04EFA8AF31188F469B6E758
:1029700080B2308588F31188F469B9E7BDE8F08743
:1029800008B50348FFF778FFBDE8084000F02CBE0B
:10299000AC22002008B50348FFF76EFFBDE80840F1
:1029A00000F022BE1823002000F1604303F56143CC
:1029B0000901C9B283F80013012200F01F039A40F5
:1029C00043099B0003F1604303F56143C3F8802191
:1029D0001A60704700F16040090100F56D40C9B20E
:1029E00001767047FFF7CCBD012300F10802C0E972
:1029F0000222037000F110020023C0E90422C0E9A2
:102A00000633C0E9083343607047000010B5202347
:102A1000044683F31188022303704160FFF7D2FD5F
:102A200004232370002383F3118810BD2DE9F041A6
:102A30001F4604460D461646202383F3118800F1F5
:102A400008082378052B0DD029462046FFF7E0FD26
:102A500040B1204632462946FFF7FAFD002080F3B8
:102A6000118808E03946404600F024FB0028E8D0F1
:102A7000002383F31188BDE8F08100002DE9F041C7
:102A80001F4604460D461646202383F3118800F1A5
:102A900010082378052B0DD029462046FFF70EFE9F
:102AA00040B1204632462946FFF720FE002080F341
:102AB000118808E03946404600F0FCFA0028E8D0CA
:102AC000002383F31188BDE8F0810000F8B51546B6
:102AD00082680669AA420B46816938BF8568761A02
:102AE000B54204460BD218462A46FEF757FCA369A6
:102AF0002B44A361A3685B1BA3602846F8BD0CD9D7
:102B000018463246FEF74AFCAF1BE1683A463044AD
:102B1000FEF744FCE3683B44EBE718462A46FEF721
:102B20003DFCE368E5E7000083689342F7B515468E
:102B3000044638BF8568D0E90460361AB5420BD226
:102B40002A46FEF72BFC63692B446361A368284681
:102B50005B1BA36003B0F0BD0DD932460191FEF7B7
:102B60001DFC0199E068AF1B3A463144FEF716FCA4
:102B7000E3683B44E9E72A46FEF710FCE368E4E734
:102B800010B50A440024C361029B8460C0E90000C0
:102B9000C0E90511C1600261036210BD08B5D0E94A
:102BA0000532934201D1826882B982680132826023
:102BB0005A1C42611970D0E904329A4224BFC3689A
:102BC0004361002100F086FA002008BD4FF0FF307D
:102BD000FBE7000070B5202304460E4683F31188FE
:102BE000A568A5B1A368A269013BA360531CA361BA
:102BF00015782269934224BFE368A361E3690BB1AE
:102C000020469847002383F31188284607E0314681
:102C1000204600F04FFA0028E2DA85F3118870BDF3
:102C20002DE9F74F04460E4617469846D0F81C90FB
:102C30004FF0200A8AF311884FF0000B154665B15A
:102C40002A4631462046FFF741FF034660B9414618
:102C5000204600F02FFA0028F1D0002383F31188DA
:102C6000781B03B0BDE8F08FB9F1000F03D00190DD
:102C70002046C847019B8BF31188ED1A1E448AF346
:102C80001188DCE7C0E90511C160C3611144009BF4
:102C90008260C0E90000016103627047F8B5044634
:102CA0000D461646202383F31188A768A7B1A368B1
:102CB000013BA36063695A1C62611D70D4E9043250
:102CC0009A4224BFE3686361E3690BB120469847E9
:102CD000002080F3118807E03146204600F0EAF931
:102CE0000028E2DA87F31188F8BD0000D0E9052357
:102CF0009A4210B501D182687AB982680132826045
:102D00005A1C82611C7803699A4224BFC36883619C
:102D1000002100F0DFF9204610BD4FF0FF30FBE747
:102D20002DE9F74F04460E4617469846D0F81C90FA
:102D30004FF0200A8AF311884FF0000B154665B159
:102D40002A4631462046FFF7EFFE034660B941466A
:102D5000204600F0AFF90028F1D0002383F311885A
:102D6000781B03B0BDE8F08FB9F1000F03D00190DC
:102D70002046C847019B8BF31188ED1A1E448AF345
:102D80001188DCE7026843681143016003B118470A
:102D9000704700001430FFF743BF00004FF0FF33CF
:102DA0001430FFF73DBF00003830FFF7B9BF000017
:102DB0004FF0FF333830FFF7B3BF00001430FFF798
:102DC00009BF00004FF0FF311430FFF703BF0000D0
:102DD0003830FFF763BF00004FF0FF323830FFF7A5
:102DE0005DBF000000207047FFF7F4BC044B036098
:102DF0000023C0E90233436001230374704700BF1E
:102E0000F43B000838B5C36904460D461BB90421DC
:102E10000844FFF7B7FF294604F11400FFF7BEFE90
:102E2000002806DA201D4FF48061BDE83840FFF726
:102E3000A9BF38BD024B0022C3E900339A60704736
:102E400004240020002303748268054B1B689968E2
:102E50009142FBD25A68036042601060586070472C
:102E60000424002008B5202383F31188037C032B5E
:102E700005D0042B0DD02BB983F3118808BD43690D
:102E800000221A604FF0FF334361FFF7DBFF00239E
:102E9000F2E7D0E9003213605A60F3E700230374CD
:102EA0008268054B1B6899689142FBD85A68036099
:102EB000426010605860704704240020054B196977
:102EC0000874186802681A6053601861012303745B
:102ED000FDF77EBB0424002030B54B1C0B4D87B0A2
:102EE000044610D02B690A4A01A800F01BF92046BD
:102EF000FFF7E4FF049B13B101A800F02FF92B6941
:102F0000586907B030BDFFF7D9FFF8E70424002067
:102F1000652E000838B50C4D41612B6981689A68AF
:102F20009142044603D8BDE83840FFF78BBF1846EE
:102F3000FFF7B4FF01232C61014623742046BDE84E
:102F40003840FDF745BB00BF04240020044B1A683D
:102F50001B6990689B68984294BF002001207047CD
:102F60000424002010B5084C236820691A682260E8
:102F70005460012223611A74FFF790FF0146206913
:102F8000BDE81040FDF724BB0424002008B5FFF77E
:102F9000DDFF18B1BDE80840FFF7E4BF08BD000041
:102FA000FFF7E0BFFEE7000010B50C4CFFF742FF53
:102FB00000F0AAF80A498022204600F031F80123E7
:102FC00044F8180C037400F0EBFA002383F3118823
:102FD00062B60448BDE8104000F042B82C2400203E
:102FE0001C3C00082C3C000800F0CAB8EFF311802C
:102FF00020B9EFF30583202282F311887047000087
:1030000010B530B9EFF30584C4F3080414B180F3AC
:10301000118810BDFFF7BAFF84F31188F9E70000AB
:1030200082600222028270478368A3F17C0243F827
:103030000C2C026943F83C2C426943F8382C074AAF
:1030400043F81C2CC26843F8102C022203F8082C09
:10305000002203F8072CA3F118007047E9050008C7
:1030600010B5202383F31188FFF7DEFF002104460B
:10307000FFF750FF002383F31188204610BD0000A6
:10308000024B1B6958610F20FFF718BF0424002072
:10309000202383F31188FFF7F3BF000008B5014632
:1030A000202383F311880820FFF716FF002383F302
:1030B000118808BD49B1064B42681B6918605A6007
:1030C000136043600420FFF707BF4FF0FF307047E5
:1030D000042400200368984206D01A6802605060F9
:1030E00059611846FFF7AEBE7047000038B5044678
:1030F0000D462068844200D138BD036823605C60BF
:103100004561FFF79FFEF4E7054B03F11402C3E9A5
:1031100005224FF0FF32DA6100221A62704700BFC9
:103120000424002010B5C0E903230B4A136A536935
:103130009C68A1420CD85C68816003604460206098
:1031400058609868411A99604FF0FF33D36110BD01
:103150001B68091BECE700BF04240020036881689A
:103160009A680A449A60426813605A600023C360F8
:10317000024B4FF0FF32DA61704700BF0424002099
:1031800038B50F4C236A22460133236252F8143FAC
:10319000934206D09A68013A9A60202563699A683A
:1031A00002B138BDD3E9001001604860D968DA6027
:1031B00082F311881869884785F31188EEE700BF0C
:1031C0000424002000207047FEE700007047000044
:1031D0004FF0FF3070470000BFF34F8F024AD368B3
:1031E000DB07FCD4704700BF0020024008B5074B46
:1031F0001B7853B9FFF7F0FF054B1A69120641BF60
:10320000044A5A6002F188325A6008BD90250020B5
:10321000002002402301674508B5054B1B7833B9F0
:10322000FFF7DAFF034A136943F08003136108BD17
:1032300090250020002002407F289ABF00F58030B2
:10324000C0020020704700004FF40060704700008B
:10325000802070477F2808B50BD8FFF7EDFF00F5F9
:1032600000630268013204D104308342F9D10120A5
:1032700008BD0020FCE700007F2838B5044623D8AD
:10328000FFF7B4FEFFF7A8FFFFF7B0FF0F4BF322E5
:10329000DA6002221A6105462046FFF7CDFF586129
:1032A0001A6942F040021A614FF40061FFF794FF7F
:1032B00000F026F92846FFF7AFFFFFF7A1FE2046F2
:1032C000BDE83840FFF7C6BF002038BD00200240EF
:1032D00012F001032DE9F04704460E46154606D0CC
:1032E000244B40F2BD221A600020BDE8F08781180F
:1032F000214A914204D91F4A40F2C2211160F3E7EA
:10330000FFF774FEFFF772FFFFF766FFDFF87890B4
:1033100031464FF0010AA61B012D06EB0107884636
:1033200005D8FFF779FFFFF76BFE0120DDE7B8F85E
:103330000030C9F810A03B800024FFF74DFFC9F80A
:1033400010403B8831F8022B9BB29A420FD0094BB8
:1033500040F2D9221A60094B1F60094B1D60094BCE
:10336000C3F80080FFF758FFFFF74AFEBCE7023DB5
:10337000D2E700BF8C250020000004088025002033
:10338000882500208425002000200240084908B537
:103390000B7828B11BB9FFF729FF01230B7008BD7B
:1033A000002BFCD0BDE808400870FFF735BF00BF18
:1033B0009025002030B583B0FFF718FE0E4B0F4D5F
:1033C0001B6A2A684FF47A7101FB03F3934237BFFB
:1033D0000B4A0B49516814682B602EBFD1E900419C
:1033E000013151601C1941F100010191FFF708FE04
:1033F0000199204603B030BD04240020942500200C
:103400009825002030B583B0FFF7F0FD114B124D29
:103410001B6A2A684FF47A7101FB03F3934237BFAA
:103420000E4A0E49516814682B602EBFD1E9004145
:10343000013151601C1941F100010191FFF7E0FDDC
:1034400001994FF47A7200232046FCF7A9FE03B0DD
:1034500030BD00BF042400209425002098250020C2
:1034600010B50244064BD2B2904200D110BD441CAC
:1034700000B253F8200041F8040BE0B2F4E700BFBB
:10348000502800400F4B30B51C6A240407D41C6A36
:1034900044F440741C621C6A44F400441C620A4CEC
:1034A000236843F4807323600244084BD2B29042F5
:1034B00000D130BD441C00B251F8045B43F82050E9
:1034C000E0B2F4E7001002400070004050280040D5
:1034D00007B5012201A90020FFF7C2FF019803B040
:1034E0005DF804FB13B50446FFF7F2FFA04205D0D8
:1034F000012201A900200194FFF7C4FF02B010BD12
:1035000070470000074B45F255521A6002225A607C
:1035100040F6FF729A604CF6CC421A60024B0122D0
:103520001A70704700300040A4250020034B1B7820
:103530001BB1034B4AF6AA221A607047A42500204B
:1035400000300040044B1A682AB902F1804202F5AB
:103550000432526A1A607047A0250020024B4FF0D7
:1035600080725A62704700BF0010024008B5FFF732
:10357000E9FF024B1868C0F3407008BDA025002089
:10358000EFF3098305494A6B22F001024A6368336D
:1035900083F30988002383F31188704700EF00E06C
:1035A000202080F3118862B60C4B0D4AD96821F4B3
:1035B000E0610904090C0A43DA60D3F8FC200949E8
:1035C00042F08072C3F8FC200A6842F001020A60EF
:1035D0001022DA7783F82200704700BF00ED00E088
:1035E0000003FA05001000E010B5202383F31188D2
:1035F0000E4B5B6813F4006314D0F1EE103AEFF356
:103600000984683C4FF08073E361094BDB6B2366F0
:1036100084F30988FFF79AFC10B1064BA36110BD33
:10362000054BFBE783F31188F9E700BF00ED00E0ED
:1036300000EF00E0FB050008FE05000870470000F1
:10364000FEE700000A4B0B480B4A90420BD30B4B92
:10365000DA1C121AC11E22F003028B4238BF00226C
:103660000021FDF7ADBE53F8041B40F8041BECE746
:10367000183D0008282600202826002028260020A3
:10368000704700004B6843608B688360CB68C36001
:103690000B6943614B6903628B6943620B6803608A
:1036A0007047000008B51B4B9A6A42F4FC029A620C
:1036B0009A6A22F4FC029A629A6A5A6942F4FC02FB
:1036C0005A61154A5B6911464FF09040FFF7DAFFE7
:1036D00002F11C0100F58060FFF7D4FF02F1380110
:1036E00000F58060FFF7CEFF02F1540100F5806025
:1036F000FFF7C8FF02F1700100F58060FFF7C2FF1D
:1037000002F18C0100F58060FFF7BCFFBDE80840C6
:1037100000F05AB800100240443C000808B500F020
:1037200093F9FFF741FCBDE80840FFF70BBF00002D
:103730007047000010B5214CA36A63F4FC03A36238
:10374000A36A03F4FC03A3624FF0FF32A36A236968
:1037500022612369002323612169E168E260E26854
:10376000E360E268E269164942F08052E261E26990
:103770000A6842F480720A60226A02F44072B2F56A
:10378000407F1EBF4FF4803222622362236A1B04F3
:1037900007D4236A43F440732362236A43F400434B
:1037A000236200F031F9A369064A43F00103A361E3
:1037B000A369136843F02003136010BD001002409A
:1037C00000700040000001401E4B1A6842F00102E8
:1037D0001A601A689007FCD55A6822F003025A60F2
:1037E0005A6812F00C02FBD1196801F0F901196056
:1037F0005A601A6842F480321A601A689103FCD544
:10380000114A5A604FF40452DA6230221A631A687D
:1038100042F080721A601A689201FCD50B4912229C
:103820000A600A6802F00702022AFAD15A6842F0D6
:1038300002025A605A6802F00C02082AFAD11A6B86
:103840001A6370470010024000241D00002002404F
:10385000084A08B5516913680B4003F0010353612E
:1038600023B1054A13680BB150689847BDE808407A
:10387000FFF7BABE00040140A8250020084A08B599
:10388000516913680B4003F00203536123B1054AE9
:1038900093680BB1D0689847BDE80840FFF7A4BE15
:1038A00000040140A8250020084A08B551691368A2
:1038B0000B4003F00403536123B1054A13690BB1B4
:1038C00050699847BDE80840FFF78EBE00040140EC
:1038D000A8250020084A08B5516913680B4003F079
:1038E0000803536123B1054A93690BB1D069984726
:1038F000BDE80840FFF778BE00040140A82500207D
:10390000084A08B5516913680B4003F0100353616E
:1039100023B1054A136A0BB1506A9847BDE80840C5
:10392000FFF762BE00040140A8250020174B10B528
:103930005A691C68144004F478725A61A30604D5CD
:10394000134A936A0BB1D06A9847600604D5104AAF
:10395000136B0BB1506B9847210604D50C4A936B3F
:103960000BB1D06B9847E20504D5094A136C0BB133
:10397000506C9847A30504D5054A936C0BB1D06CE5
:103980009847BDE81040FFF72FBE00BF000401407C
:10399000A82500201A4B10B55A691C68144004F47D
:1039A0007C425A61620504D5164A136D0BB1506D05
:1039B0009847230504D5134A936D0BB1D06D9847F2
:1039C000E00404D50F4A136E0BB1506E9847A10462
:1039D00004D50C4A936E0BB1D06E9847620404D59F
:1039E000084A136F0BB1506F9847230404D5054A5A
:1039F000936F0BB1D06F9847BDE81040FFF7F4BD4F
:103A000000040140A8250020062108B50846FEF75D
:103A1000CBFF06210720FEF7C7FF06210820FEF78F
:103A2000C3FF06210920FEF7BFFF06210A20FEF78B
:103A3000BBFF06211720FEF7B7FFBDE808400621AF
:103A40002820FEF7B1BF000008B5FFF773FE00F0B5
:103A50000DF8FEF7C7FFFFF7C7F9FFF769FEBDE8EE
:103A6000084000F001B8000000F00EB80023054A3D
:103A700019460133102BC2E9001102F10802F8D1F6
:103A8000704700BFA82500204FF0E023044A5A6188
:103A900000229A6107221A6108210B20FEF79ABFC3
:103AA0003F19010008B5202383F31188FFF79CFA22
:103AB000002383F3118808BD08B5FFF7F3FFBDE8C5
:103AC0000840FFF791BD000010B501390244904253
:103AD00001D1002005E0037811F8014FA34201D085
:103AE000181B10BD0130F2E72DE9F041A3B1C91A4E
:103AF00017780144044603F1FF3C8C42204601D96B
:103B0000002009E00578BD4204F10104F5D10CEB79
:103B10000405D618A54201D1BDE8F08115F8018D44
:103B200016F801EDF045F5D0E7E70000034611F87F
:103B3000012B03F8012B002AF9D170476F72672E11
:103B40006172647570696C6F742E61705F706572FC
:103B50006970685F677073004E6F206170702073CA
:103B600069670A00426164206677206C656E67743D
:103B7000682025750A0042616420626F6172645F8B
:103B800069642025752073686F756C6420626520F8
:103B900025750A004261642066772064657363724C
:103BA0006970746F72206C656E6774682025750A81
:103BB00000426164206170702043524320307825B8
:103BC0003038783A307825303878203078253038D9
:103BD000783A3078253038780A00476F6F6420666D
:103BE00069726D776172650A0040A2E4F1646891C0
:103BF0000600000000000000B12D00089D2D000807
:103C0000D92D0008C52D0008D12D0008BD2D0008B4
:103C1000A92D0008952D0008E52D00086D61696E3D
:103C20000000000069646C6500000000243C00088E
:103C3000482400208025002001000000A52F000856
:103C400000000000A001A82A00000000FAAABEAAF5
:103C500050001424EFFF0000007700007097090067
:103C60000100000000000000AAAAAAAA01000000AA
:103C7000FFFF000000000000000000000000000046
:103C800000000000AAAAAAAA00000000FFFF00008E
:103C90000000000000000000000000000000000024
:103CA000AAAAAAAA00000000FFFF0000000000006E
:103CB000000000000000000000000000AAAAAAAA5C
:103CC00000000000FFFF00000000000000000000F6
:103CD0000000000000000000AAAAAAAA000000003C
:103CE000FFFF00000000000000000000E4C4FF7FB0
:103CF0000100000000000000EC03000000000000D4
:103D000000980300000000006400000000000000B4
:083D1000FE2A0100D2040000AC
:00000001FF
