:020000040800F2
:1000000000070020E5040008E11B0008611B000850
:10001000B91B0008611B00088D1B0008E7040008DD
:10002000E7040008E7040008E70400082547000883
:10003000E7040008E7040008E7040008E7040008F4
:10004000E7040008E7040008E7040008E7040008E4
:10005000E7040008E7040008C1570008ED5700084E
:10006000195800084558000871580008E7040008AE
:10007000E7040008E7040008E7040008E7040008B4
:10008000E7040008E7040008E7040008E52E00087C
:10009000512F0008A52F0008F92F00089D580008CF
:1000A000E7040008E7040008E7040008E704000884
:1000B00035560008E7040008E7040008E7040008D4
:1000C000E7040008E7040008E7040008E704000864
:1000D000E7040008E7040008E7040008E704000854
:1000E00005590008E7040008E7040008E7040008D1
:1000F000E7040008E7040008E7040008E704000834
:10010000E7040008E7040008E7040008E704000823
:10011000E7040008E7040008E7040008E704000813
:10012000E7040008E7040008E7040008E704000803
:10013000E7040008E7040008E7040008E7040008F3
:10014000E7040008E7040008E70400085D4E000823
:10015000E7040008E7040008E7040008E7040008D3
:10016000E7040008E7040008E7040008E7040008C3
:10017000E7040008E7040008E7040008E7040008B3
:10018000E7040008E7040008E7040008E7040008A3
:10019000E7040008E7040008E7040008E704000893
:1001A000E7040008E7040008E7040008E704000883
:1001B000E7040008E7040008E7040008E704000873
:1001C000E7040008E7040008E7040008E704000863
:1001D000E7040008E7040008E7040008E704000853
:1001E00053B94AB9002908BF00281CBF4FF0FF319E
:1001F0004FF0FF3000F074B9ADF1080C6DE904CE9A
:1002000000F006F8DDF804E0DDE9022304B07047F1
:100210002DE9F047089D04468E46002B4DD18A42B9
:10022000944669D9B2FA82F252B101FA02F3C2F1EC
:10023000200120FA01F10CFA02FC41EA030E94407D
:100240004FEA1C48210CBEFBF8F61FFA8CF708FB9E
:1002500016E341EA034306FB07F199420AD91CEB76
:10026000030306F1FF3080F01F81994240F21C81A8
:10027000023E63445B1AA4B2B3FBF8F008FB1033F0
:1002800044EA034400FB07F7A7420AD91CEB040425
:1002900000F1FF3380F00A81A74240F207816444F5
:1002A000023840EA0640E41B00261DB1D44000237A
:1002B000C5E900433146BDE8F0878B4209D9002DDE
:1002C00000F0EF800026C5E9000130463146BDE868
:1002D000F087B3FA83F6002E4AD18B4202D38242D2
:1002E00000F2F980841A61EB030301209E46002D81
:1002F000E0D0C5E9004EDDE702B9FFDEB2FA82F2D6
:10030000002A40F09280A1EB0C014FEA1C471FFA33
:100310008CFE0126200CB1FBF7F307FB131140EA1A
:1003200001410EFB03F0884208D91CEB010103F1E7
:10033000FF3802D2884200F2CB804346091AA4B2A9
:10034000B1FBF7F007FB101144EA01440EFB00FE7D
:10035000A64508D91CEB040400F1FF3102D2A645E2
:1003600000F2BB800846A4EB0E0440EA03409CE781
:10037000C6F12007B34022FA07FC4CEA030C20FA2E
:1003800007F401FA06F31C43F9404FEA1C4900FA4E
:1003900006F3B1FBF9F8200C1FFA8CFE09FB1811CB
:1003A00040EA014108FB0EF0884202FA06F20BD93E
:1003B0001CEB010108F1FF3A80F08880884240F28E
:1003C0008580A8F102086144091AA4B2B1FBF9F0D2
:1003D00009FB101144EA014100FB0EFE8E4508D9CD
:1003E0001CEB010100F1FF346CD28E456AD9023852
:1003F000614440EA0840A0FB0294A1EB0E01A14237
:10040000C846A64656D353D05DB1B3EB080261EBA4
:100410000E0101FA07F722FA06F3F1401F43C5E97E
:10042000007100263146BDE8F087C2F12003D840B4
:100430000CFA02FC21FA03F3914001434FEA1C47F6
:100440001FFA8CFEB3FBF7F007FB10360B0C43EAE8
:10045000064300FB0EF69E4204FA02F408D91CEB98
:10046000030300F1FF382FD29E422DD90238634496
:100470009B1B89B2B3FBF7F607FB163341EA034136
:1004800006FB0EF38B4208D91CEB010106F1FF3885
:1004900016D28B4214D9023E6144C91A46EA00467C
:1004A00038E72E46284605E70646E3E61846F8E60E
:1004B0004B45A9D2B9EB020864EB0C0E0138A3E757
:1004C0004646EAE7204694E74046D1E7D0467BE738
:1004D000023B614432E7304609E76444023842E7B0
:1004E000704700BF02E000F000F8FEE772B63A483D
:1004F00080F30888394880F3098839484EF6085156
:10050000CEF20001086040F20000CCF200004EF68E
:100510003471CEF200010860BFF34F8FBFF36F8FCD
:1005200040F20000C0F2F0004EF68851CEF2000119
:100530000860BFF34F8FBFF36F8F4FF00000E1EE05
:10054000100A4EF63C71CEF200010860062080F3DE
:100550001488BFF36F8F04F065F904F041F904F0DB
:10056000CDFF4FF055301F491B4A91423CBF41F827
:10057000040BFAE71C49194A91423CBF41F8040BAD
:10058000FAE71A491A4A1B4B9A423EBF51F8040B2C
:1005900042F8040BF8E700201749184A91423CBF83
:1005A00041F8040BFAE704F01FF904F0FBFF144CC8
:1005B000144DAC4203DA54F8041B8847F9E700F005
:1005C00041F8114C114DAC4203DA54F8041B884732
:1005D000F9E704F007B9000000070020002300201D
:1005E000000000080001002000070020D85D00087E
:1005F00000230020542300205823002028400020FE
:10060000E0010008E0010008E0010008E001000846
:100610002DE9F04F2DED108AC1F80CD0C3689D462E
:10062000BDEC108ABDE8F08F002383F311882846C3
:10063000A047002003F000FCFEE703F07BFB00DF97
:10064000FEE70000F8B504F00BF8074604F056F892
:100650000546B8BB204B9F4234D001339F4234D073
:100660001E4B27F0FF029A4232D1F8B200F03AFE58
:100670002E4642F2107400F03BFE08B100242646DC
:1006800001F0F6FB20B1032000F07CF800242646A0
:1006900035B1134B9F4203D004F028F800242646BE
:1006A000002003F0E7FF0EB100F082F801F02EFA0F
:1006B00000F07CFE01F0B8F8204600F0DFF800F012
:1006C00077F8F9E72E460024D5E704460126D2E75D
:1006D000064641F28834CEE7010007B0000008B0BA
:1006E000263A09B008B501F071F8A0F1200358428C
:1006F000584108BD07B541F21203022101A8ADF827
:10070000043001F081F803B05DF804FB38B5202314
:1007100083F311881748C3680BB103F013FC164A22
:10072000144800234FF47A7103F0D0FB002383F3C5
:100730001188124C236813B12368013B236063685E
:1007400013B16368013B63600D4D2B7833B9636867
:100750007BB9022001F054F9322363602B78032B1C
:1007600007D163682BB9022001F04AF94FF47A737C
:10077000636038BD582300200D0700087424002052
:100780006C230020084B187003280CD8DFE800F019
:1007900008050208022001F029B9022001F01CB965
:1007A000024B00225A6070476C2300207424002002
:1007B00010B501F05DFB30B1294B03221A70294BB3
:1007C00000225A6010BD284B284A1C461968013186
:1007D000F8D004339342F9D16268254B9A42F1D99B
:1007E000244B9B6803F1006303F580339A42E9D2FE
:1007F00003F050FF03F062FF002001F02FF8022009
:10080000FFF7C0FF1C4B1A6C00221A64196E1A669F
:10081000196E596C5A64596E5A665A6E5A6942F08A
:1008200080025A615A6922F080025A615A691A6933
:1008300042F000521A611A6922F000521A611B69D3
:1008400072B64FF0E0232021C3F8084DD4E90032FE
:1008500081F311889D4683F308881047B2E700BFF3
:100860006C230020742400200000010820000108EF
:10087000FFFF000800230020003802402DE9F04F60
:1008800093B0AC4B00902022FF210AA89D6801F094
:10089000E7F8A94A1378A3B9A8480121C3601170E9
:1008A000202383F31188C3680BB103F04BFBA44AE8
:1008B000A24800234FF47A7103F008FB002383F36E
:1008C0001188009B13B19F4B009A1A609E4A009CAE
:1008D0001378032B1EBF002313709A4A4FF0000AAF
:1008E00018BF5360D3465646D146012001F07EF82A
:1008F00024B1944B1B68002B00F01582002000F0FF
:1009000065FF0390039B002B01DA00F003FE039BBD
:10091000002BEDDB012001F05FF8039B213B162B40
:10092000E3D801A252F823F085090008AD090008B8
:10093000410A0008EB080008EB080008EB08000873
:10094000CB0A00089B0C0008B50B0008170C000828
:100950003F0C0008650C0008EB080008770C000845
:10096000EB080008E90C0008250A0008EB0800085D
:100970002D0D000891090008250A0008EB08000861
:10098000170C00080220FFF7ADFE002840F0F581AB
:10099000009B0221BAF1000F08BF1C4605A841F2D6
:1009A0001233ADF8143000F02FFF9EE74FF47A7049
:1009B00000F00CFF071EEBDB0220FFF793FE002880
:1009C000E6D0013F052F00F2DA81DFE807F0030AE5
:1009D0000D10133605230593042105A800F014FF1C
:1009E00017E054480421F9E758480421F6E758482D
:1009F0000421F3E74FF01C08404600F031FF08F1F6
:100A000004080590042105A800F0FEFEB8F12C0FA3
:100A1000F2D1012000FA07F747EA0B0B5FFA8BFBD4
:100A20004FF0000901F068F826B10BF00B030B2B17
:100A300008BF0024FFF75EFE57E746480421CDE7D4
:100A4000002EA5D00BF00B030B2BA1D10220FFF73A
:100A500049FE074600289BD0012000F0FFFE02203F
:100A6000FFF790FE00265FFA86F8404600F006FF8A
:100A7000044690B10021404600F010FF01360028E6
:100A8000F1D1BA46044641F21213022105A8ADF88D
:100A900014303E4600F0B8FE27E70120FFF772FE53
:100AA0002546244B9B68AB4207D9284600F0D8FE68
:100AB000013040F067810435F3E7234B00251D70BA
:100AC000204BBA465D603E46ACE7002E3FF460AF77
:100AD0000BF00B030B2B7FF45BAF0220FFF752FEF2
:100AE000322000F073FEB0F10008FFF651AF18F0AD
:100AF00003077FF44DAF0F4A926808EB050393425A
:100B00003FF646AFB8F5807F3FF742AF124B0193F7
:100B1000B84523DD4FF47A7000F058FE0390039A35
:100B2000002AFFF635AF019B039A03F8012B01372A
:100B3000EDE700BF00230020702400205823002090
:100B40000D070008742400206C23002004230020DB
:100B5000082300200C23002070230020C820FFF76A
:100B6000C1FD074600283FF413AF1F2D11D8C5F172
:100B7000200242450AAB25F0030028BF42468349C4
:100B80000192184400F046FF019A8048FF2100F0CE
:100B900067FF4FEAA8037D490193C8F387022846FF
:100BA00000F066FF064600283FF46DAF019B05EBA1
:100BB000830537E70220FFF795FD00283FF4E8AEF4
:100BC00000F098FE00283FF4E3AE0027B846704BD3
:100BD0009B68BB4218D91F2F11D80A9B01330ED036
:100BE00027F0030312AA134453F8203C0593404610
:100BF000042205A901F0F4F804378046E7E73846F7
:100C000000F02EFE0590F2E7CDF81480042105A82F
:100C100000F0FAFD06E70023642104A8049300F025
:100C2000E9FD00287FF4B4AE0220FFF75BFD002849
:100C30003FF4AEAE049800F045FE0590E6E70023D1
:100C4000642104A8049300F0D5FD00287FF4A0AE31
:100C50000220FFF747FD00283FF49AAE049800F009
:100C600041FEEAE70220FFF73DFD00283FF490AE89
:100C700000F050FEE1E70220FFF734FD00283FF4CA
:100C800087AE05A9142000F04BFE0421074604900E
:100C900004A800F0B9FD3946B9E7322000F096FD0E
:100CA000071EFFF675AEBB077FF472AE384A926836
:100CB00007EB090393423FF66BAE0220FFF712FDEC
:100CC00000283FF465AE27F003074F44B9453FF4D1
:100CD000A9AE484600F0C4FD0421059005A800F027
:100CE00093FD09F10409F1E74FF47A70FFF7FAFC7C
:100CF00000283FF44DAE00F0FDFD002844D00A9BD3
:100D000001330BD008220AA9002000F0B1FE002810
:100D10003AD02022FF210AA800F0A2FEFFF7EAFC49
:100D20001C4803F08FF813B0BDE8F08F002E3FF49D
:100D30002FAE0BF00B030B2B7FF42AAE00236421A4
:100D400005A8059300F056FD074600287FF420AE65
:100D50000220FFF7C7FC804600283FF419AEFFF7DA
:100D6000C9FC41F2883003F06DF8059800F0F6FEFA
:100D7000464600F0C1FE3C46B7E5064652E64FF057
:100D8000000905E6BA467EE637467CE67023002079
:100D900000230020A0860100094A136849F2690077
:100DA00099B21B0C00FB01331360064B186844F228
:100DB000506182B2000C01FB0200186080B27047E3
:100DC000202300201C23002010B5002110220446FF
:100DD00000F046FE034B03CB206061601868A06002
:100DE00010BD00BF107AFF1F2DE9F041ADF5507D19
:100DF0000DF13C086EAC40F2751207460D4610A886
:100E00000021C8F8001000F02BFE4FF4C47200213E
:100E1000204600F025FE00F0E5FE254B4FF47A72E7
:100E2000B0FBF2F0186093E80700012384E80700A4
:100E30000DF5ED702382FFF7C7FF4FF203631D49E5
:100E4000238406A804F00AFE202384F832310DF230
:100E5000EB2606AB0DF1380C1A4603CA624530602A
:100E60007160134606F10806F6D14146012220467C
:100E700000F0BCFE00230393AB7E029305F119033F
:100E8000019380B20123CDE904800093E97E06A39B
:100E9000D3E90023384601F043FB0DF5507DBDE852
:100EA000F08100BFAFF300809E6AC421818A46EEC4
:100EB0007C2400206C5A00082DE9F043224DBBB081
:100EC00000F090FEAB6840F2ED22C31A934232D993
:100ED00006AFA8602B4628220021384601F008FD05
:100EE00005F10E0000F0B4FD002604465FFA80F91B
:100EF00005F10E08F3B2F100994501F1280107D977
:100F000008EB06030822384601F0F2FC0136F1E74F
:100F100008230122CDE9023205340C4B0193A4B21F
:100F200030230093CDE9047405A3D3E90023297B82
:100F3000074801F0F5FA3BB0BDE8F083AFF300805D
:100F400078F6339F93CACD8DC0340020CD34002075
:100F500094340020F0B58B8A013B9BB2C92BC9B0F9
:100F600006460C4647D8274D2F7B27BB05F10C03BF
:100F7000009308223B463946204601F07DFB7B1C4E
:100F8000FAB2D9001F46A38A013B9A4205DA0E3213
:100F90002A44009200230822EEE700230022C5E93C
:100FA00000230023AB6085F8D730C5F8D8302B7B01
:100FB0000BB9E37E2B738122002106AD27A800F038
:100FC0004FFD0122294627A800F0DEFE00230393EF
:100FD000A37E029304F1190380B201932823CDE983
:100FE0000450E17E0093304604A3D3E9002301F0CE
:100FF00097FAFFF761FF49B0F0BD00BF264172725A
:10100000DF25D7B7C034002070B50D4614461E4604
:1010100001F01CFA50B9022E10D1012C0ED112A3EE
:10102000D3E90023C5E90023012007E0282C10D0D4
:1010300005D8012C09D0052C0FD0002070BD302C14
:10104000FBD10BA3D3E90023ECE70BA3D3E90023E7
:10105000E8E70BA3D3E90023E4E70BA3D3E90023DC
:10106000E0E700BFAFF30080401DA12026812A0BDE
:1010700078F6339F93CACD8D9E6AC421818A46EE4D
:1010800026417272DF25D7B7F017304A39059E56D0
:101090002DE9F04F8DB002AF80460D4601F0D6F934
:1010A000044600285CD12B7E022B1BD1EB8A012B3E
:1010B00018D100F097FD0646FFF76EFE03464FF489
:1010C000C870DFF81C92B3FBF0F206F5167602FB4F
:1010D000103316FA83F3C9F80030EB7E33B97B4B3B
:1010E00000221A702C37BD46BDE8F08FAB8AE6B2FD
:1010F000013BB34204F101040CD907F108031E447B
:10110000E10000960023082201F0F801284601F0D2
:10111000B3FAEBE707F11800FFF756FE324607F186
:10112000180107F1080004F067FC0028D7D10F2E42
:1011300008D8664B1E70D9F80030A3F51673C9F8AD
:101140000030CFE7FB1DF8710146009307220346EC
:10115000284601F091FAF979404601F06FF9C1E7AC
:10116000EB8A282B26D010D8012B1ED0052BB9D105
:10117000BFF34F8F5649574BCA6802F4E0621343DE
:10118000CB60BFF34F8F00BFFDE7302BAAD16B7E42
:10119000514C0133627BDBB29342E94603D1EA7ED4
:1011A000237B9A420BD0CD469CE729464046FFF769
:1011B0001BFE97E729464046FFF7CCFE92E74FF02B
:1011C000000807F11803A7F8188010220093414681
:1011D0000123284601F050FAAE8A023EB6B2F31C53
:1011E0009B109B000733DB08A9EBC3039D460DF161
:1011F000080A1FFA88F34FEAC8019E4201F1100164
:101200000AD90AEB0803009308220023284601F0BC
:1012100033FA08F10108ECE794F8D70000F02EFB50
:10122000D4F8D810054619B994F8D70000F036FB69
:10123000D4F8D83033449D4205D294F8D700002129
:10124000013000F02BFB4FEA960B4FF000081FFA1D
:1012500088F18B45D4E9003209D90AEB880103EB08
:101260008800012200F004FC08F10108EFE7F31800
:1012700042F10002C4E90032D4F8D83094F8D70023
:1012800006EB0308C4F8D88000F0F8FA804509D3CB
:1012900094F8D730D4F8D8000133401B84F8D73005
:1012A000C4F8D800FF2E0D4D09D80023237300F099
:1012B00021FB00F0DDFD288108B9FFF779FA2368EA
:1012C0009B0A01332B810023A3606CE78D3400203F
:1012D00000ED00E00400FA05C03400207C2400206A
:1012E00090340020014B1870704700BF8824002004
:1012F00030B54FF00054244B22689A4285B007D095
:1013000003F006FA0446A8B90024204605B030BD13
:101310001E4B627D1A701E48237D03731D49C9222E
:101320000E3000F077FB2046E022002100F098FB11
:101330000124EAE7184A194D136C43F00073136453
:10134000AA6D174B9A42DFD12B6E013B7E2BDBD867
:10135000144A07CA01AB83E807001846032100F0CE
:1013600055FD6B6D83424FF00003CDD12A6D8A424B
:1013700001BFAB65054B2A6E1A7003BF0A4BEA6DBD
:101380001A601C46C1E700BF9AAD44C588240020FE
:10139000C0340020160000200038024000660040E3
:1013A0005041A0B058660040182300202DE9FF47A7
:1013B0004C4C00F05DFD02236371002302934A4B05
:1013C0002081D3F800C0BCF57A7F12D3474B484F39
:1013D000B7FBFCF69C458CBF0A231123581EB6FBB5
:1013E000F3F503FB1562C1B2002A3ED00228034682
:1013F000F4D89DF80B303F493F485A1E9DF80A30FB
:10140000013B1B0443EA0253BDF80820013A134391
:101410004B6001F053FF00230193384B3849009390
:101420003848394B4FF4805200F0E2FF374B1978BF
:1014300011B1344801F002F800F0D4FB0546FFF783
:10144000ABFC4FF4C873B0FBF3F202FB130305F5DA
:10145000167010FA83F02E4B186003F04FF908B1A4
:101460000F23238104B0BDE8F0876B1EB3F5806FB6
:10147000BFD2C1EBC10E0EF103034FEAE309C3F380
:10148000C703A1EB030809F1010A4FF47A705FFA70
:1014900088F609FB00005AFA88F8B0FBF8F0B0F5BE
:1014A000617F08D90EF1FF33C3F3C703C91ACEB267
:1014B000591E0F2914D8721E072A8CBF0022012240
:1014C000991901FB0551B7FBF1F7BC4591D1002AF1
:1014D0008FD0ADF808508DF80A308DF80B6088E792
:1014E0001346EDE77C240020182300203F420F0024
:1014F00080DE800210230020D8350020091000086B
:101500008C240020943400209110000888240020AE
:10151000903400202DE9F04F91A7D7E900670FF232
:101520004829D9E90089874D93B0DFF844B2864C49
:10153000284601F059F80DF1300A079070B31022D7
:101540000021504600F08CFA079B197B4FF00002F7
:1015500061F303028DF83020586899680EAA03C21F
:101560001B680D9A63F31C029DF830300D9243F016
:1015700020038DF83030002352461946584601F0BA
:10158000ADFE079028B9284601F032F8079B23707A
:10159000CEE72378072B3CD8013323701822002193
:1015A000504600F05DFADFF8C8B1684C00231946D8
:1015B0005246584601F0BAFE014670BB102208A8F8
:1015C00000F04EFA636983F48043636100F00CFB22
:1015D0000B4612A9024611E903000DF1240C8CE818
:1015E00003009DF83410C1F3030089064CBF0E9927
:1015F000BDF838C08DF82C0046BFC1F31C0C4CF070
:101600000041CCF30A010891284608A901F0B8F975
:10161000CCE7284600F0ECFFC0E7284600F016FFB4
:101620000446002848D1DFF84CB100F0DBFADBF8C3
:101630000030984240D300F0D5FA0790FFF7ACFB9A
:10164000079A8DF8204003464FF4C87002F51672D1
:10165000B3FBF0F101FB103312FA83F3CBF8003047
:10166000DFF814B19BF8001011B901238DF8203078
:1016700050460791FFF7A8FB0799C1F11004E4B2A7
:10168000062C28BF0624224651440DF1210000F00B
:10169000C1F908AB03931823029301342C4B019337
:1016A000E4B20123009304943B463246284600F0FE
:1016B000CFFE00238BF8003000F094FA254A264C28
:1016C0001368C31AB3F57A7F30D3106000F08CFA38
:1016D00002460B46284600F095FF284600F0B6FE6D
:1016E00020B3237BDFF894B0002B14BF0323022325
:1016F0008BF8053000F076FA4FF47A730122B0FBD4
:10170000F3F05146CBF80000584600F015FB1823C3
:101710000293124B019380B240F25513CDE903A01E
:10172000009342464B46284600F092FE237B2BB1A5
:10173000FFF7C2FB237B002B7FF4F7AE13B0BDE8AD
:10174000F08F00BF94340020A53500200000024037
:101750008C340020A0350020C0340020A4350020A7
:10176000401DA12026812A0BF1C6A7C1D068080F11
:10177000D8350020903400208D3400207C240020B7
:1017800070B50F4B1B780133DBB2012B0C4611D81F
:101790000C4D29684FF47A730E6AA2FB033201469E
:1017A00022462846B047844204D1074B00221A70D3
:1017B000012070BD4FF4FA7002F044FB0020F8E7FE
:1017C00024230020C0370020D435002007B5002393
:1017D000024601210DF107008DF80730FFF7D0FF19
:1017E00020B19DF8070003B05DF804FB4FF0FF3017
:1017F000F9E700000A4608B50421FFF7C1FF80F0B1
:101800000100C0B2404208BD30B4054C2368DD6918
:10181000044B0A46AC460146204630BC604700BF38
:10182000C0370020A086010070B502F0BBFD094E54
:10183000094D3080002428683388834208D902F09B
:10184000ABFD2B6804440133B4F5803F2B60F2D329
:1018500070BD00BFD6350020A835002002F064BE60
:1018600000F1006000F580300068704700F1006012
:10187000920000F5803002F0E3BD0000054B1A68CD
:10188000054B1B889B1A834202D9104402F084BD89
:1018900000207047A8350020D635002038B5084D07
:1018A000044629B128682044BDE8384002F094BDC0
:1018B0002868204402F078FD0028F3D038BD00BF2E
:1018C000A835002010F003030AD1B0F5047F05D23B
:1018D00000F10050A0F51040D0F8003818467047CD
:1018E0000023FBE700F10050A0F51040D0F8100AEB
:1018F00070470000064991F8243033B10023086A8C
:1019000081F824300822FFF7B1BF0120704700BFE3
:10191000AC350020014B1868704700BF002004E080
:1019200070B52A4B1B68C3F30B0204461B0C62B153
:1019300040F21340824230D040F2194082422ED011
:1019400040F2214082422CD10322214D0C2000FB89
:101950000252556842F20102934224D0B3F5805FEF
:1019600023D041F20102934221D041F2030293427B
:101970001FD041F20702934214BF3F233123013CA1
:101980000C44013D0A46A24215D215F9016F501CC4
:101990009EB100F8016C0246F5E70122D5E702226C
:1019A000D3E70C4DD6E73323E9E74123E7E75A2392
:1019B000E5E75923E3E7104605E02C25844215703E
:1019C00001D9901C5370401A70BD00BF002004E084
:1019D000BC5A0008905A0008022802BF024B4FF080
:1019E00080429A61704700BF00000240022802BF97
:1019F000024B4FF480429A61704700BF00000240E2
:101A0000022801BF024A536983F48043536170473F
:101A10000000024010B50023934203D0CC5CC454B4
:101A20000133F9E710BD000010B5013810F9013F8E
:101A30003BB191F900409C4203D11AB10131013A06
:101A4000F4E71AB191F90020981A10BD1046FCE78E
:101A500003460246D01A12F9011B0029FAD1704739
:101A600002440346934202D003F8011BFAE7704791
:101A70002DE9F8431F4D144695F824200746884663
:101A800052BBDFF870909CB395F824302BB920221C
:101A9000FF2148462F62FFF7E3FF95F82400C0F1CD
:101AA0000802A24228BF2246D6B24146920005EB68
:101AB0008000FFF7AFFF95F82430A41B1E44F6B258
:101AC000082E17449044E4B285F82460DBD1FFF778
:101AD00011FF0028D7D108E02B6A03EB8203834271
:101AE000CFD0FFF707FF0028CBD10020BDE8F88357
:101AF0000120FBE7AC350020024B1A78024B1A702C
:101B0000704700BFD43500202423002010B50F4CAF
:101B10000F4801F0ADFC21460D4801F0D5FC2468CA
:101B20000C48626DD2F8043843F00203C2F804385E
:101B300002F088F90849204601F0CCFD626DD2F828
:101B4000043823F00203C2F8043810BDC45B000857
:101B5000C037002040420F00CC5B000870470000F7
:101B600000B59BB0EFF3098168226846FFF752FF8A
:101B7000EFF30583044B9A6BDA6A9A6A9A6A9A6A57
:101B80009A6A9A6A9B6AFEE700ED00E000B59BB096
:101B9000EFF3098168226846FFF73CFFEFF3058306
:101BA000044B9A6B9A6A9A6A9A6A9A6A9A6A9B6AC8
:101BB000FEE700BF00ED00E000B59BB0EFF3098148
:101BC00068226846FFF726FFEFF30583034B5A6B45
:101BD0009A6A9A6A9A6A9A6A9B6AFEE700ED00E03E
:101BE000FEE7000002F0DABC02F0B2BC2DE9F047DB
:101BF0000D46044600219046284640F27912FFF730
:101C00002FFF234620220021284600F071FE231DCD
:101C100002222021284600F06BFE631D03222221B0
:101C2000284600F065FEA31D03222521284600F06A
:101C30005FFE04F1080310222821284600F058FE18
:101C400004F1100308223821284600F051FE04F167
:101C5000110308224021284600F04AFE04F1120335
:101C600008224821284600F043FE04F114032022F4
:101C70005021284600F03CFE04F118034022702158
:101C8000284600F035FE04F120030822B021284642
:101C900000F02EFE04F121030822B821284600F0AE
:101CA00027FE04F12207C0263B463146082228467B
:101CB000083600F01DFEB6F5A07F07F10107F3D14D
:101CC00004F1320308223146284600F011FE0027B5
:101CD00004F1330A94F832304FEAC7099F4209F5FC
:101CE000A47615D3B8F1000F08D1314604F59973E5
:101CF0000722284600F0FCFD09F24F16274694F80B
:101D000032213B1B93420CD3F01DC008BDE8F08785
:101D10000AEB070308223146284600F0E9FD0137A7
:101D2000D8E707F2331331460822284600F0E0FDD9
:101D300008360137E3E7000013B5044608460021E2
:101D400001602346C0F803102022019000F0D0FD6E
:101D50000198231D0222202100F0CAFD0198631D75
:101D60000322222100F0C4FD0198A31D0322252196
:101D700000F0BEFD019804F108031022282100F0B4
:101D8000B7FD072002B010BDF8B50E460546144653
:101D9000002181223046FFF763FE2B4608220021F6
:101DA000304600F0A5FD7CB96B1C072208213046A7
:101DB00000F09EFD0F2401236A785F1C013B9342D3
:101DC00004D3E01DC008F8BD0824F4E7EB19214650
:101DD0000822304600F08CFD08343B46ECE700005A
:101DE00030B5094D0A4491420DD011F8013B5840DD
:101DF000082340F30004013B2C4013F0FF0384EA66
:101E00005000F6D1EFE730BD2083B8EDF7B54FF0C5
:101E1000FF33DFF854C0DFF854E000EB81011A46CD
:101E200088421CD050F8044B019401AF042417F8E9
:101E3000015B82EA05620825DB18164605F1FF35CD
:101E40005241002EBCBF83EA0C0382EA0E0215F059
:101E5000FF05F1D1013C14F0FF04E8D1E0E7D843DD
:101E6000D14303B0F0BD00BF9336EAA9EBE1F042E5
:101E700073B5384A106851686B4603C36A463649E1
:101E80003648082303F0C8FD044670B9344A106888
:101E900051686B4603C36A4632493048082303F051
:101EA000BBFD044630BB0A2022E00369B3F5702F66
:101EB000ECD8418B40F2F6329142E7D12A4A0244F3
:101EC00002F110018B42E1D3103B244900209D1AFE
:101ED000FFF786FF2A46064604F118010020FFF7A7
:101EE0007FFFA3689E42D1D1E3689842CED1002003
:101EF00002B070BD0369B3F5702F22D8B0F8661038
:101F000040F2F63291421ED1174A024402F15C01BE
:101F10008B421AD35C3B114900209D1AFFF760FFEA
:101F20002A46064604F164010020FFF759FFA26823
:101F3000964203460BD1E068834214BF0D20002077
:101F4000D6E70B20D4E70C20D2E71020D0E70D20F5
:101F5000CEE700BFEC5A0008DCFF0E0000000108CD
:101F6000F55A000890FF0E000800FFF72DE9F04138
:101F7000C56915B9C161BDE8F0814B6823F06047C0
:101F8000C3F38A464FEAD37EC3F3807816EA23066A
:101F900038BF3E46AC462B465A68BEEBD27F22F095
:101FA00060440AD0002A18DAA40CB44217D19D422A
:101FB0000FD10D60DEE71346EEE7A74207D102F02E
:101FC0008044C2F3807242450BD054B1EFE708D28F
:101FD000EDE7CCF800100B60CDE7B44201D0B4427D
:101FE000E5D81A689C46002AE5D11960C3E70000CD
:101FF0002DE9F047089D01F007044FEAD508224477
:1020000005F0070500EBD1004FF47F49944201D160
:10201000BDE8F08704F0070705F0070A57453E467C
:1020200038BF5646C6F10806111B8E4228BF0E4621
:10203000E10808EBD50E415C13F80EC0B94029FA4F
:1020400006F721FA0AF1FFB28CEA010147FA0AF712
:1020500039408CEA010C03F80EC034443544D5E70E
:1020600080EA0120082341F2210201B24000002948
:1020700080B203F1FF33B8BF504013F0FF03F4D137
:102080007047000038B50C468D18A54200D138BD08
:1020900014F8011BFFF7E4FFF7E7000002684AB1FC
:1020A00013680360C388018901339BB29942C380DE
:1020B00038BF03811046704770B588B020220446AF
:1020C0000D4668460021FFF7CBFC20460495FFF73C
:1020D000E5FF024658B16B46054608AE1C4603CCE8
:1020E000B44228606960234605F10805F6D1104620
:1020F00008B070BD082817D909280CD00A280CD0C0
:102100000B280CD00C280CD00D280CD00E2814BF96
:102110004020302070470C2070471020704714205A
:10212000704718207047202070470000082817D9F2
:102130000C280CD910280CD914280CD918280CD923
:1021400020280CD930288CBF0F200E207047092082
:1021500070470A2070470B2070470C2070470D20F5
:102160007047000010B54B6823B9CA8A63F30902AF
:10217000CA8210BDC4681A681C60C360438A013BF0
:1021800043824A60EFE700002DE9F84F1D46CB8AF5
:102190000F46C3F309010529814692460B4630D00C
:1021A0000020AAB207F11A049EB2042E1FFA80F88A
:1021B0000FD8904503F1010306D3FB8A0A4462F36A
:1021C0000903FB8201201AE01AF80060E65401308E
:1021D000EAE79045F1D2A1F1050B1C237C68BBFB1B
:1021E000F3F203FB12BB1FFA8BF6002C45D14846D5
:1021F000FFF754FF044638B978606FF00200BDE87D
:10220000F88F4FF00008E6E7002606607860ADB270
:102210004FF0000B454510D90AEB0803221D13F8B7
:10222000011B9155B1B208F101081B291FFA88F86A
:102230002BD0454506F10106F1D8FB8AC3F309020C
:10224000154465F30903BCE7013292B21C462368CA
:10225000002BF9D16B1F0B441C21B3FBF1F30133AD
:102260009BB29A42D3D2BBF1000FD0D14846FFF7C0
:1022700015FF20B9C4F800B0BFE70122E7E7C0F8B6
:1022800000B05E4620600446C1E74545D5D94846C2
:10229000FFF704FF08B92060AFE7C0F800B00026E0
:1022A00020600446B6E700002DE9F04F2DED028BCB
:1022B00083B0CDE90013BDF83C5007469146002A93
:1022C00000F092802DB10E9B002B00F08D80072D29
:1022D00032D807F10C00FFF7E1FE044638B96FF081
:1022E0000204204603B0BDEC028BBDE8F08F14223F
:1022F0000021FFF7B5FB0E992A4604F10800FFF70D
:1023000089FB681CC0B2FFF711FFFFF7F3FE2074D2
:1023100099F80030013814FA80F003F01F0363F0DD
:102320003F030372009B43F0004161603846214641
:10233000FFF71CFE0124D4E700F10C034FF0000866
:1023400008EE103A4FF0800A4646444618EE100A4E
:10235000FFF7A4FE83460028C1D014220021FFF716
:102360007FFBC6BB019BABF8083002200E9B00F13F
:10237000080299195BFA82F20130C0B2082801D034
:10238000AE422AD3FFF7D2FEFFF7B4FE99F8002041
:10239000009B411E02F01F0242EA4812AE4208BFF3
:1023A0004FF0400A5BFA81F14AEA020A43F0004228
:1023B00081F808A08BF81000CBF804205946384665
:1023C000FFF7D4FD0134AE4224B288F001084FF08B
:1023D000000ABBD185E70020C8E711F801CB02F85D
:1023E00001CB0136B6B2C7E76FF0010479E7000010
:1023F000F8B515460E462822002104461F46FFF771
:102400002FFB069B6360B5F5001F079BA76034BFD9
:102410006A094FF6FF72236204F10C0097B20023A1
:102420009A4205D80023036027826382A382F8BD05
:102430000660013330462036F2E7000003781BB90E
:102440004BB2002BC8BF0170704700000078704786
:102450002DE9F74FDDF83C90BDF830500D9E9DF80A
:102460003840BDF84070804692469B46B9F1000F57
:1024700001D1002F51D11F2C4FD898F80000B0B9CE
:10248000072F47D835F0030347D13A4649464FF660
:10249000FF70FFF7F7FD20F001002D02400445EA30
:1024A0000464400C44EA40244FF6FF7321E040EA04
:1024B0000520072F40EA0464F6D900254FF6FF7384
:1024C000C5F12000A5F120022AFA05F10BFA00F06F
:1024D00001432BFA02F211431846C9B2FFF7C0FDBF
:1024E0000835402D0346EBD13A464946FFF7CAFD71
:1024F0000346CDE90097324621464046FFF7D4FE19
:1025000033780133DBB21F2B88BF0023337003B055
:10251000BDE8F08F6FF00300F9E76FF00100F6E718
:102520002DE9F04F85B09246DDF848800F9D9DF86B
:1025300040209DF84490BDF84C7006469B46B8F18B
:10254000000F01D1002F48D11F2A46D83378002B25
:1025500046D00C0244EA02649DF8381044EAC934BB
:1025600044EA01441C43072F44F0800432D900237D
:102570004FF6FF72C3F1200CA3F120002AFA03F1F9
:102580000BFA0CFC41EA0C012BFA00F00143C9B232
:1025900010460393FFF764FD039B0833402B02466C
:1025A000E8D13A464146FFF76DFD0346CDE9008785
:1025B0002A4621463046FFF777FEB9F1010F06D1D2
:1025C0002B780133DBB21F2B88BF00232B7005B0A3
:1025D000BDE8F08F4FF6FF73E8E76FF00100F6E714
:1025E0006FF00300F3E70000C06900B104307047EA
:1025F000C3691A68C261C2681A60C360438A013B3A
:10260000438270472DE9F041D0F81880194E1446E6
:102610001D464146002709B9BDE8F081D1E90223F2
:10262000A21A65EB0303964277EB03031ED283697C
:102630008B420DD1FFF796FD83691B688361C368E8
:102640000B60438AC1608169013B43828846E2E7AF
:10265000FFF788FD0B68C8F80030C3680B60438A39
:10266000C160013B4382D8F80010D4E7884609686E
:10267000D1E700BF80841E002DE9F04F8BB00D46DE
:10268000DDF8509014469B468046002800F01981E2
:10269000B9F1000F00F01581531E3F2B00F211819C
:1026A000012A03D1BBF1000F40F00B810023CDE9DB
:1026B0000833B8F81430B5EBC30F4FEAC30703D3A0
:1026C00000200BB0BDE8F08F2B199F42D8F80C30DA
:1026D0003ABF7F1BFFB227461BB9D8F81030002B3A
:1026E0007AD0272D4ED8C5F12806B7424FF0000307
:1026F0002CBFF6B23E4600932946D8F8080008AB36
:102700003246FFF775FCA7EB060A35445FFA8AFAF2
:10271000B8F8143003F10053053BDB000493D8F8FC
:102720000C3003932821039B13B1BAF1000F2CD175
:10273000D8F8100040B1BAF1000F05D0009608ABF0
:102740005246691AFFF754FC38B2002FB8D066071A
:102750000AD00AAB03EBD401624211F8083C02F044
:102760000702134101F8083C082C3CD9102C40F218
:10277000B580202C40F2B780BBF1000F00F09C80A8
:10278000082334E0BA460026C2E7049BE02B28BFAA
:10279000E02306930B44AB42059314D95A1B0398CC
:1027A0000096924534BF5246D2B2691A08AB043043
:1027B0000792FFF71DFC079A1644AAEB020A15447C
:1027C000F6B25FFA8AFA049B069A05999B1A04935B
:1027D000039B1B680393A6E70093D8F8080008AB97
:1027E0003A462946AEE7BBF1000F13D00123B4EB04
:1027F000C30F6CD0082C12D89DF82030621E23FA2B
:1028000002F2D50706D54FF0FF3202FA04F4234353
:102810008DF820309DF8203089F8003051E7102CD9
:1028200012D8BDF82030621E23FA02F2D10706D575
:102830004FF0FF3202FA04F42343ADF82030BDF824
:102840002030A9F800303CE7202C0FD80899631EEF
:1028500021FA03F3DA0705D54FF0FF3202FA04F448
:102860000C430894089BC9F800302AE7402C2BD071
:10287000DDE90865611EC4F12102A4F1210326FAF5
:1028800001F105FA02F225FA03F311431943CB07CC
:1028900012D50122A4F12003C4F1200102FA03F3AE
:1028A00022FA01F1A240524243EA010363EB4303DF
:1028B00032432B43CDE90823DDE90823C9E900238E
:1028C000FFE66FF00100FCE66FF00800F9E6082C67
:1028D000A0D9102CB3D9202CEED8C3E7BBF1000F40
:1028E000ADD0022383E7BBF1000FBBD004237EE70A
:1028F00030B5012A144638BF0124402C85B028BFCA
:1029000040240025012ACDE9025518D81B788DF8FE
:10291000083063070AD004AB03EBD405624215F814
:10292000083C02F00702934005F8083C009103467A
:102930002246002102A8FFF75BFB05B030BD082A44
:10294000E4D9102A03D81B88ADF80830E1E7202A23
:102950008DBFD3E900231B680293CDE90223D8E79A
:1029600010B5CB681BB98B600B618B8210BDC4683E
:102970001A681C60C360438A013B4382CA60F0E767
:102980002DE9F04F95B0CDE904230B6804460D46C0
:102990001806C3F3C01147BFC3F3C03BC3F30626F9
:1029A0004FF0020B0E46002B80F2018213F0C0495B
:1029B00040F0FD812A7B002A00F0F981BBF1020F73
:1029C00003D02078B04240F0F581C3F30460089052
:1029D00003F07F00069069B3C3F3074A2A44069BBD
:1029E00092F80380760646EA0B4646EA83460022C2
:1029F0000023CDE90A235FEAD81346EA0A060393C7
:102A00006CD0069B009367685B4652460AA9204635
:102A1000B847002800F0D181A76997B9314604F181
:102A20000C00FFF749FB0746D8B96FF0020015B05C
:102A3000BDE8F08FC3F30F2A590608BF0AF0030A56
:102A4000CCE73B699E420DD03F68002FF9D131465B
:102A500004F10C00FFF730FB07460028E5D0A3691E
:102A60003B60A761FE7D08F01F03C6F38406F01AE1
:102A70001FFA80FC0028B8BF0CF120000793A3EBDD
:102A800006031FFA83FCD7E90221B8BF00B2002B6E
:102A90000993BEBF0CF120031BB2099352EA010354
:102AA00033D0049EDFF8D0C2B21A059E66EB010156
:102AB0000026944576EB010327D395F80DE097F8AF
:102AC0001AC0E64514D1039B002B76D001281CDCEC
:102AD000A848904276EB010314D336E0A76917B9F2
:102AE0006FF00C00A3E73B699E42BBD03F68F6E75E
:102AF000A048904276EB010301D3002097E7039BA7
:102B0000002BFAD0099B0F2B18DCFA7D4FEA8803C3
:102B100002F0030203F07C031343FB7539462046A1
:102B2000FFF720FB6B7BBB76039B3BB9FB7DC3F3BD
:102B30008402013262F38603FB75D1E76A7BBB7EB8
:102B40009A42DAD1039B002B37D04FEA9813022B1D
:102B500033D0049BBB60059BFB60142200210FA8AF
:102B6000FEF77EFF049B0C93059B0D932B1D0E938C
:102B70002B7BADF846A0013BDBB2ADF84430079BA0
:102B80008DF84930089B8DF84A30069B8DF84B3004
:102B900094F824308DF848B083F001038DF84C3060
:102BA0000CA9A36820469847FB7DC3F38403013337
:102BB00003F01F039B02FB829FE7FB7DC8F34012DB
:102BC000B2EBD31F40F0FC80079AC3F38403934217
:102BD00040F0F98003992B7B4FEA981200294ED0E0
:102BE000D2075ED4032B40F2F180049BBB60059BAF
:102BF000FB602B7BAE1D033BDBB23246394604F152
:102C00000C00FFF7C1FA00280DDA20463946FFF71D
:102C1000A9FAFB7DC3F38403013303F01F039B0276
:102C2000FB82032003E7DDE90A84AB883B834FF690
:102C3000FF73C9F12000A9F1200228FA09F104FA72
:102C400000F0014324FA02F211431846C9B2FFF71B
:102C500007FA09F10809B9F1400F0346E9D1B88232
:102C60002A7B033AD2B23146FFF70CFAFB7DB882D9
:102C7000DA43C2F3C01262F3C713FB753DE782B9B2
:102C80002E1D013BDBB23246394604F10C00FFF742
:102C90007BFA0028B9DB2A7BB88A013AD2B23146E6
:102CA000E2E7F98AC1F30901013B0429DAB25BD8F2
:102CB000281D002307F11B069A4208D910F801CB02
:102CC00006F801C0013101330529DBB2F4D10499C2
:102CD0000C9105990D91934207F11B010E9138BF9C
:102CE000043379680F9134BF55FA83F300231093AE
:102CF000FB8AADF846A0C3F309031A44079B8DF87D
:102D00004930089B8DF84A30069B8DF84B3094F87B
:102D10002430ADF8442083F001038DF84C300023BB
:102D20008DF848B07B602A7BB88A013A291DFFF7ED
:102D3000A9F93B8BB882834203D1A3680CA9204632
:102D4000984720460CA9FFF70BFEFB7DB88AC3F31A
:102D50008403013303F01F039B02FB823B8B9842E9
:102D600014BF1120002062E67B68002BAFD0052045
:102D700006E000BF40420F0080841E001C30334636
:102D80001E68002EFAD1091A081D2E1D184401EBE9
:102D9000090CBCF11B0F5FFA89F398D89A4296D9B7
:102DA00016F8013B00F8013B09F10109EFE76FF06C
:102DB00009003CE66FF00A0039E66FF00B0036E6DA
:102DC0006FF00D0033E66FF00E0030E66FF00F008D
:102DD0002DE600BF404BF0B51C6C404E44F0007433
:102DE0001C641D6E45F000751D661B6E3C4B9B6A96
:102DF000D3F80052354045F00105C3F80052D3F82E
:102E00000042344044EA002040F00100C3F80002D0
:102E1000002952D00020C3F81C020546C3F8040262
:102E2000C3F80C02C3F8140203EBC00401301C28E1
:102E3000C4F84052C4F84452F6D100254FF0010CBA
:102E400096781488F70748BFD3F804720CFA04F098
:102E500044BF0743C3F80472B70742BFD3F80C72EC
:102E60000743C3F80C72760742BFD3F814620643D7
:102E7000C3F8146203EBC4045668C4F84062966851
:102E8000C4F84462D3F81C4201352043A942C3F878
:102E90001C0202F10C02D3D1D3F8002222F001026D
:102EA000C3F800220C4B1A6C22F000721A641A6EDE
:102EB00022F000721A661B6EF0BD0122C3F84012A8
:102EC000C3F84412C3F80412C3F81412C3F80C2256
:102ED000C3F81C22E0E700BF003802400000FFFFFB
:102EE000D8350020184A916A08B58B688B6013F0BA
:102EF000010104D013F00C0F18BF4FF48031D80536
:102F000006D513F4406F14BF41F4003141F00201C3
:102F1000D80306D513F4402F14BF41F4802141F0AB
:102F20000401D3690BB108489847202383F3118823
:102F30000648002100F0AEFF002383F31188BDE8AE
:102F4000084001F023BC00BFD8350020E035002048
:102F500038B5124CA36ADD68AA0712D05A6922F06C
:102F600002025A61A36913B1012120469847202328
:102F700083F311880A48002100F08CFF002383F3BB
:102F80001188EB0606D5A36A1021D960236A0BB11C
:102F900002489847BDE8384001F0F8BBD83500201A
:102FA000E835002038B5124CA36A1D69AA0712D073
:102FB0005A6922F010025A61A36913B10221204616
:102FC0009847202383F311880A48002100F062FF0C
:102FD000002383F31188EB0606D5A36A102119613B
:102FE000236A0BB102489847BDE8384001F0CEBBD8
:102FF000D8350020E835002038B50F4CA36A5D684D
:103000005D602A070AD5042222701A6822F00202A3
:103010001A60636A13B10021204698476B0706D5F2
:10302000A36A9969236A13B1034809049847BDE864
:10303000384001F0ABBB00BFD835002010B50E4CB6
:10304000204600F029F90D4BA3620B21132000F05C
:103050000BF90B21142000F007F90B21152000F0CB
:1030600003F90B21162000F0FFF80022BDE8104004
:1030700011460E20FFF7AEBED83500200064004098
:10308000114B984210B5044609D1104B1A6C42F00E
:1030900000721A641A6E42F000721A661B6EA36AFE
:1030A00001221A60A36A5A68D20707D5626851687C
:1030B0001268D9611A60064A5A6110BD01210820C0
:1030C00000F0D4FDEEE700BFD83500200038024004
:1030D0005B87010003291AD8DFE801F0020A0F1408
:1030E000836A9B6813F0E05F14BF012000207047E3
:1030F000836A9868C0F380607047836A9868C0F3F9
:10310000C0607047836A9868C0F300707047002001
:103110007047000010B5032925D8DFE801F002252B
:10312000292D836A9968C1F30161183103EB0113FA
:10313000107884064CBF54689488C0F300114FEA9D
:10314000410148BF41EAC40100F00F004CBF41F00B
:10315000040141EA4451586041F001019068D2688D
:103160009860DA60196010BD836A03F5C073DFE709
:10317000836A03F5C873DBE7836A03F5D073D7E787
:1031800001290AD002290FD081B9836ADA6892072F
:1031900001D1186903E001207047836AD86810F0F4
:1031A000030018BF01207047836AF2E700207047D0
:1031B00010B539B9836AD96889071BD11B699C0787
:1031C00004D110BD012915D00229FAD1816AD1F8A4
:1031D000C031D1F8C441D1F8C8011061D1F8CC0197
:1031E0005061202008610869800717D1486940F0C4
:1031F000100012E0816AD1F8B031D1F8B441D1F8B1
:10320000B8011061D1F8BC0150612020C860C868C5
:10321000800703D1486940F002004861C3F34000D1
:10322000C3F38001000140EA4111107920F0300021
:103230000143117189064BBF91681189DB085B0D51
:103240004CBF63F31C0163F30A01137948BF91601B
:1032500064F3030313714FEA14234FEA144458BF75
:10326000118113705480ACE700F1604303F56143B2
:103270000901C9B283F80013012200F01F039A402C
:1032800043099B0003F1604303F56143C3F88021C8
:103290001A607047FFF7D2BE012300F10802C0E9AF
:1032A0000222037000F110020023C0E90422C0E9E9
:1032B0000633C0E9083343607047000010B520238F
:1032C000044683F31188022303704160FFF7D8FEA0
:1032D00004232370002383F3118810BD2DE9F041EE
:1032E0001F4604460D461646202383F3118800F13D
:1032F00008082378052B0DD029462046FFF7EAFE63
:1033000040B1204632462946FFF704FF002080F3F3
:10331000118808E03946404600F0A0FD0028E8D0BA
:10332000002383F31188BDE8F08100002DE9F0410E
:103330001F4604460D461646202383F3118800F1EC
:1033400010082378052B0DD029462046FFF718FFDB
:1033500040B1204632462946FFF72AFF002080F37D
:10336000118808E03946404600F078FD0028E8D092
:10337000002383F31188BDE8F081000002684368F0
:103380001143016003B118477047000013B5446B47
:10339000D4F894341A681178042915D1217C0229B3
:1033A00012D11979128901238B4013420CD101A942
:1033B00004F14C0001F0A8FFD4F89444019B21795A
:1033C0000246206800F0CEF902B010BD143001F0C2
:1033D0002BBF00004FF0FF33143001F025BF000079
:1033E0004C3001F0FDBF00004FF0FF334C3001F0D6
:1033F000F7BF0000143001F0F9BE00004FF0FF31BC
:10340000143001F0F3BE00004C3001F0C9BF0000E1
:103410004FF0FF324C3001F0C3BF00000020704776
:1034200010B5D0F894341A6811780429044617D1DD
:10343000017C022914D15979528901238B4013420E
:103440000ED1143001F08CFE024648B1D4F89444F9
:103450004FF4807361792068BDE8104000F070B9C6
:1034600010BD0000406BFFF7DBBF0000704700009D
:103470007FB5124B036000234360C0E9023301258E
:1034800002260F4B057404460290019300F184025A
:10349000294600964FF48073143001F03DFE094B2D
:1034A0000294CDE9006304F523724FF4807329463A
:1034B00004F14C0001F004FF04B070BD005B000893
:1034C000653400088D3300080B68202282F31188D0
:1034D0000A7903EB820290614A79093243F82200AB
:1034E0008A7912B103EB8203986102230374C0F856
:1034F0009414002383F311887047000038B5037FCC
:10350000044613B190F85430ABB9201D01250221B7
:10351000FFF734FF04F1140025776FF0010100F08C
:10352000B9FC84F8545004F14C006FF00101BDE87F
:10353000384000F0AFBC38BD10B50121044604305E
:10354000FFF71CFF0023237784F8543010BD0000E0
:1035500038B504460025143001F0F6FD04F14C00A6
:10356000257701F0C5FE201D84F854500121FFF796
:1035700005FF2046BDE83840FFF752BF90F84430C1
:1035800003F06003202B07D190F84520212A4FF04B
:10359000000303D81F2A06D800207047222AFBD137
:1035A000C0E90E3303E0034A82630722C263036467
:1035B000012070472523002037B5D0F894341A68CD
:1035C0001178042904461AD1017C022917D11979EE
:1035D000128901238B40134211D100F14C0528467A
:1035E00001F046FF58B101A9284601F08DFED4F83C
:1035F0009444019B21790246206800F0B3F803B09F
:1036000030BD0000F0B500EB810385B09E69044633
:103610000D46FEB1202383F3118804EB8507301D8E
:103620000821FFF7ABFEFB685B691B6806F14C00E5
:103630001BB1019001F076FE019803A901F064FE30
:10364000024648B1039B2946204600F08BF8002330
:1036500083F3118805B0F0BDFB685A691268002A2F
:10366000F5D01B8A013B1340F1D104F14402EAE793
:10367000093138B550F82140DCB1202383F311889B
:10368000D4F894241368527903EB8203DB689B69B6
:103690005D6845B104216018FFF770FE294604F10A
:1036A000140001F067FD2046FFF7BAFE002383F304
:1036B000118838BD7047000001F02AB9012303705A
:1036C0000023C0E90133C36183620362C3624362C2
:1036D0000363704738B50446202383F3118800251F
:1036E000C0E90355C0E90555416001F021F9022305
:1036F000237085F3118838BD70B500EB8103054652
:103700005069DA600E46144618B110220021FEF707
:10371000A7F9A06918B110220021FEF7A1F93146DE
:103720002846BDE8704001F0CDB90000826802F083
:10373000011282600022C0E90422826101F04EBAC7
:10374000F0B400EB81044789E4680125A4698D4049
:103750003D43458123600023A2606360F0BC01F01B
:1037600069BA0000F0B400EB81040789E468012520
:1037700064698D403D43058123600023A26063603E
:10378000F0BC01F0E3BA000070B502230025044646
:103790000370C0E90255C0E90455C564856180F82D
:1037A000345001F02BF963681B6823B12946204689
:1037B000BDE87040184770BD037880F8503005238D
:1037C000037043681B6810B504460BB10421984789
:1037D0000023A36010BD000090F8502043680270E1
:1037E0001B680BB1052118477047000070B590F8B1
:1037F0003430044613B1002380F8343004F144021D
:10380000204601F00DFA63689B68B3B994F8443020
:1038100013F0600535D00021204601F05FFC002147
:10382000204601F051FC63681B6813B10621204655
:103830009847062384F8343070BD20469847002806
:10384000E4D0B4F84A30E26B9A4288BFE36394F95B
:103850004430E56B002B4FF0200380F20381002DF4
:1038600000F0F280092284F8342083F311880021CB
:10387000D4E90E232046FFF775FF002383F3118858
:10388000DAE794F8452003F07F0343EA022340F28D
:103890000232934200F0C58021D8B3F5807F48D032
:1038A0000DD8012B3FD0022B00F09380002BB2D11A
:1038B00004F14C02A2630222E2632364C1E7B3F580
:1038C000817F00F09B80B3F5407FA4D194F846300F
:1038D000012BA0D1B4F84C3043F0020332E0B3F531
:1038E000006F4DD017D8B3F5A06F31D0A3F5C063EA
:1038F000012B90D8636894F846205E6894F84710CE
:10390000B4F848302046B047002884D04368A36309
:103910000368E3631AE0B3F5106F36D040F6024255
:1039200093427FF478AF5C4BA3630223E3630023ED
:10393000C3E794F84630012B7FF46DAFB4F84C30F8
:1039400023F00203C4E90E55A4F84C30256478E74F
:10395000B4F84430B3F5A06F0ED194F8463084F833
:103960004E30204601F0A2F863681B6813B10121B4
:1039700020469847032323700023C4E90E339CE7B5
:1039800004F14F03A3630123C3E72378042B10D171
:10399000202383F311882046FFF7C8FE85F31188A2
:1039A0000321636884F84F5021701B680BB12046D7
:1039B000984794F84630002BDED084F84F3004232B
:1039C000237063681B68002BD6D0022120469847DD
:1039D000D2E794F848301D0603F00F0120460AD5BF
:1039E00001F010F9012804D002287FF414AF2B4B0A
:1039F0009AE72B4B98E701F0F7F8F3E794F8463095
:103A0000002B7FF408AF94F8483013F00F01B3D0C7
:103A10001A06204602D501F075FBADE701F068FB00
:103A2000AAE794F84630002B7FF4F5AE94F84830BE
:103A300013F00F01A0D01B06204602D501F04EFB6B
:103A40009AE701F041FB97E7142284F8342083F3CE
:103A500011882B462A4629462046FFF771FE85F33A
:103A60001188E9E65DB1152284F8342083F31188CA
:103A70000021D4E90E232046FFF762FEFDE60B226B
:103A800084F8342083F311882B462A4629462046A1
:103A9000FFF768FEE3E700BF305B0008285B000823
:103AA0002C5B000838B590F834300446002B3ED02B
:103AB000063BDAB20F2A34D80F2B32D8DFE803F0F6
:103AC000373131082232313131313131313137370B
:103AD000C56BB0F84A309D4214D2C3681B8AB5FB4F
:103AE000F3F203FB12556DB9202383F311882B46A3
:103AF0002A462946FFF736FE85F311880A2384F803
:103B000034300EE0142384F83430202383F31188FA
:103B100000231A4619462046FFF712FE002383F3BE
:103B2000118838BD036C03B198470023E7E70021F3
:103B3000204601F0D3FA0021204601F0C5FA63685F
:103B40001B6813B10621204698470623D7E70000DB
:103B500010B590F83430142B044629D017D8062B12
:103B600005D001D81BB110BD093B022BFBD80021A9
:103B7000204601F0B3FA0021204601F0A5FA63685F
:103B80001B6813B1062120469847062319E0152B20
:103B9000E9D10B2380F83430202383F311880023EC
:103BA0001A461946FFF7DEFD002383F31188DAE792
:103BB000C3689B695B68002BD5D1036C03B1984740
:103BC000002384F83430CEE7024B0022C3E90033EF
:103BD0009A60704704360020002303748268054B06
:103BE0001B6899689142FBD25A680360426010607A
:103BF000586070470436002008B5202383F31188ED
:103C0000037C032B05D0042B0DD02BB983F3118833
:103C100008BD436900221A604FF0FF334361FFF78C
:103C2000DBFF0023F2E7D0E9003213605A60F3E7CC
:103C3000002303748268054B1B6899689142FBD886
:103C40005A68036042601060586070470436002074
:103C5000054B19690874186802681A605360186186
:103C600001230374FCF7D4BC0436002030B54B1C90
:103C70000B4D87B0044610D02B690A4A01A800F00A
:103C800025F92046FFF7E4FF049B13B101A800F0DB
:103C900059F92B69586907B030BDFFF7D9FFF8E72C
:103CA00004360020F93B000838B50C4D41612B6902
:103CB00081689A689142044603D8BDE83840FFF70E
:103CC0008BBF1846FFF7B4FF01232C610146237414
:103CD0002046BDE83840FCF79BBC00BF04360020FE
:103CE000044B1A681B6990689B68984294BF002037
:103CF000012070470436002010B5084C2368206965
:103D00001A6822605460012223611A74FFF790FF41
:103D100001462069BDE81040FCF77ABC043600205B
:103D200008B5FFF7DDFF18B1BDE80840FFF7E4BFB5
:103D300008BD0000FFF7E0BFFEE7000010B50C4C27
:103D4000FFF742FF00F0B4F80A498022204600F055
:103D50003BF8012344F8180C037400F0F3FC002333
:103D600083F3118862B60448BDE8104000F04CB8F7
:103D70002C360020345B0008445B000800F01CB9BE
:103D8000EFF3118020B9EFF30583202282F311882D
:103D90007047000010B530B9EFF30584C4F3080490
:103DA00014B180F3118810BDFFF7BAFF84F31188B6
:103DB000F9E70000034A516853685B1A9842FBD840
:103DC000704700BF001000E082600222028270474C
:103DD0008368A3F17C0243F80C2C026943F83C2C65
:103DE000426943F8382C074A43F81C2CC26843F850
:103DF000102C022203F8082C002203F8072CA3F150
:103E0000180070472906000810B5202383F3118895
:103E1000FFF7DEFF00210446FFF746FF002383F390
:103E20001188204610BD0000024B1B6958610F200D
:103E3000FFF70EBF04360020202383F31188FFF71D
:103E4000F3BF000008B50146202383F31188082042
:103E5000FFF70CFF002383F3118808BD49B1064B1F
:103E600042681B6918605A60136043600420FFF7C2
:103E7000FDBE4FF0FF3070470436002003689842C3
:103E800006D01A680260506059611846FFF7A4BE58
:103E90007047000038B504460D462068844200D1C2
:103EA00038BD036823605C604561FFF795FEF4E769
:103EB000054B03F11402C3E905224FF0FF31002244
:103EC000C3E90712704700BF0436002070B51C4ECE
:103ED000C0E9032305460C4601F0FCFA334653F8CB
:103EE000142F9A420DD13062C5E901242A600A2CB0
:103EF0002CBF00190A30C6E90555BDE8704001F035
:103F0000D7BA316A431AE31838BF1C469368A342F4
:103F100002D9081901F0DAFA73699A6894420CD848
:103F20005A68AC602B606A6015609A685D60121B0D
:103F30009A604FF0FF33F36170BD1B68A41AECE781
:103F40000436002038B51B4C636998420DD0D0E987
:103F5000003213605A6000228168C2609A680A4485
:103F60009A604FF0FF33E36138BD2246036842F8A0
:103F7000143F002193425A60C16003D1BDE838402C
:103F800001F09EBA9A688168256A0A449A6001F035
:103F9000A1FA63699A68411B8A42E5D9AB181D1AD8
:103FA000092D206A98BF01F10A02BDE8384010448B
:103FB00001F08CBA043600202DE9F041184C00279E
:103FC00004F11406656901F085FA236AAA68C11A2A
:103FD0008A4215D813442362D5E9003213605A602F
:103FE0006369D5F80C80EF60B34201D101F068FA43
:103FF00087F311882869C047202383F31188E1E7FC
:104000006169B14209D013441B1ABDE8F0410A2B83
:104010002CBFC0180A3001F059BABDE8F08100BFCA
:104020000436002000207047FEE7000070470000C3
:104030004FF0FF307047000002290CD0032904D054
:104040000129074818BF00207047032A05D80548F2
:1040500000EBC2007047044870470020704700BF63
:10406000285C000834230020DC5B000870B59AB09F
:104070000546084601A9144600F0C2F801A8FDF75C
:10408000E7FC431C5B00C5E90034002223700323D6
:104090006370C6B201AB02341046D1B28E4204F155
:1040A000020401D81AB070BD13F8011B04F8021CF9
:1040B00004F8010C0132F0E708B5202383F31188DE
:1040C0000348FFF779FA002383F3118808BD00BF86
:1040D000C037002090F8443003F01F02012A07D1B6
:1040E00090F845200B2A03D10023C0E90E3315E0D8
:1040F00003F06003202B08D1B0F848302BB990F8BA
:104100004520212A03D81F2A04D8FFF737BA222ACC
:10411000EBD0FAE7034A82630722C26303640120FB
:10412000704700BF2C23002007B5052917D8DFE80A
:1041300001F0191603191920202383F31188104A5E
:1041400001900121FFF7D8FA01980E4A0221FFF7EA
:10415000D3FA0D48FFF7FCF9002383F3118803B06D
:104160005DF804FB202383F311880748FFF7C6F9A5
:10417000F2E7202383F311880348FFF7DDF9EBE72B
:104180007C5B0008A05B0008C037002038B50C4DF0
:104190000C4C0D492A4604F10800FFF767FF05F1B2
:1041A000CA0204F110000949FFF760FF05F5CA7261
:1041B00004F118000649BDE83840FFF757BF00BFBB
:1041C000883C0020342300205C5B0008665B00080C
:1041D000715B000870B5044608460D46FDF738FCD3
:1041E000C6B22046013403780BB9184670BD32467A
:1041F0002946FDF719FC0028F3D10120F6E700005D
:104200002DE9F04705460C46FDF722FC2B49C6B2C6
:104210002846FFF7DFFF08B10B36F6B228492846DB
:10422000FFF7D8FF08B11036F6B2632E0BD8DFF8CF
:104230008C80DFF88C90234FDFF894A02E7846B95D
:104240002670BDE8F08729462046BDE8F04701F01A
:1042500005BC252E2ED1072241462846FDF7E4FB5A
:1042600070B9194B224603F1100153F8040B42F8C0
:10427000040B8B42F9D11B88138007351234DDE71C
:10428000082249462846FDF7CFFB98B90F4BA21CE0
:10429000197809090232C95D02F8041C13F8011BE0
:1042A00001F00F015345C95D02F8031CF0D1183429
:1042B0000835C3E704F8016B0135BFE7485C000827
:1042C000715B0008635C0008505C0008107AFF1FF7
:1042D0001C7AFF1FBFF34F8F024AD368DB03FCD465
:1042E000704700BF003C024008B5094B1B7873B90A
:1042F000FFF7F0FF074B1A69002ABFBF064A5A6052
:1043000002F188325A601A6822F480621A6008BD8D
:10431000E63E0020003C02402301674508B50B4BF8
:104320001B7893B9FFF7D6FF094B1A6942F0004298
:104330001A611A6842F480521A601A6822F4805294
:104340001A601A6842F480621A6008BDE63E0020D6
:10435000003C02400B28F0B516D80C4C0C492378D1
:104360007BB90C4D0E460C234FF0006255F8047BD0
:1043700046F8042B013B13F0FF033A44F6D1012326
:10438000237051F82000F0BD0020FCE7183F00200A
:10439000E83E0020745C0008014B53F82000704791
:1043A000745C00080C2070470B2810B5044601D936
:1043B000002010BDFFF7CEFF064B53F82430184401
:1043C000C21A0BB90120F4E712680132F0D1043BA4
:1043D000F6E700BF745C00080B2838B5044628D8FF
:1043E000FFF7CEFCFFF776FFFFF77EFF124AF323BD
:1043F000D360E300DBB243F4007343F002031361C4
:10440000136943F48033136105462046FFF762FFCA
:10441000FFF7A0FF094B53F8241000F039F92846A4
:10442000FFF77CFFFFF7B6FC2046BDE83840FFF7FA
:10443000BBBF002038BD00BF003C0240745C0008D8
:1044400012F001032DE9F04105460E4614464BD10A
:104450008218B2F1016F61D8314B1B6813F0010370
:104460005CD0304FFFF78CFCFFF73EFFF323FB607F
:10447000FFF730FF314640F20128032C18D824F012
:104480000104284E0C446D1A40F20118A142336910
:1044900005EB01072AD123F001033361FFF73EFF4B
:1044A000FFF778FC0120BDE8F081043C0435E4E727
:1044B000AB07E4D13B6923F440733B613B6943EABA
:1044C00008033B6151F8046B2E60BFF34F8FFFF779
:1044D00001FF2B689E42E8D03B6923F001033B615A
:1044E000FFF71CFFFFF756FC0020DCE723F44073C6
:1044F0003361336943EA080333610B883B80BFF3C0
:104500004F8FFFF7E7FE3F8831F8023BBFB2BB4257
:10451000BCD0336923F001033361E1E71846C2E7F9
:1045200000380240003C0240084908B50B7828B129
:104530001BB9FFF7D9FE01230B7008BD002BFCD07F
:10454000BDE808400870FFF7E9BE00BFE63E002066
:1045500070B582B0FFF714FC0E4E054600F0BAFFAE
:104560003268904237BF0C4A0B49516814682EBF1D
:10457000D1E90041013151600419034641F10001C4
:10458000284601913360FFF705FC0199204602B0EF
:1045900070BD00BF1C3F0020203F002070B582B0DE
:1045A000FFF7EEFB104E054600F094FF3268904294
:1045B00037BF0E4A0D49516814682EBFD1E900413A
:1045C00001315160041941F100010346284601916F
:1045D0003360FFF7DFFB01994FF47A720023204626
:1045E000FBF7FEFD02B070BD1C3F0020203F002005
:1045F00010B50244064BD2B2904200D110BD441C0B
:1046000000B253F8200041F8040BE0B2F4E700BF19
:10461000502800400F4B30B51C6F240407D41C6F8A
:1046200044F400741C671C6F44F400441C670A4C7B
:10463000236843F4807323600244084BD2B2904253
:1046400000D130BD441C00B251F8045B43F8205047
:10465000E0B2F4E70038024000700040502800400B
:1046600007B5012201A90020FFF7C2FF019803B09E
:104670005DF804FB13B50446FFF7F2FFA04205D036
:10468000012201A900200194FFF7C4FF02B010BD70
:1046900070470000074B45F255521A6002225A60DB
:1046A00040F6FF729A604CF6CC421A60024B01222F
:1046B0001A707047003000402C3F0020034B1B78DD
:1046C0001BB1034B4AF6AA221A6070472C3F002008
:1046D00000300040034B1A681AB9034AD2F8742814
:1046E0001A607047283F002000300240024B4FF014
:1046F0008072C3F8742870470030024008B5FFF795
:10470000E9FF024B1868C0F3407008BD283F002045
:1047100008B5FFF7DFFF024B1868C0F3007008BD53
:10472000283F0020EFF3098305494A6B22F001027C
:104730004A63683383F30988002383F31188704741
:1047400000EF00E0202080F3118862B60C4B0D4A88
:10475000D96821F4E0610904090C0A43DA60D3F84E
:10476000FC20094942F08072C3F8FC200A6842F03C
:1047700001020A601022DA7783F82200704700BF36
:1047800000ED00E00003FA05001000E010B5202362
:1047900083F311880E4B5B6813F4006314D0F1EEC1
:1047A000103AEFF30984683C4FF08073E361094BE2
:1047B000DB6B236684F30988FFF792FA10B1064B8E
:1047C000A36110BD054BFBE783F31188F9E700BF38
:1047D00000ED00E000EF00E03B0600083E060008A8
:1047E00070470000FEE700000A4B0B480B4A90425E
:1047F0000BD30B4BDA1C121AC11E22F003028B42A0
:1048000038BF00220021FDF72BB953F8041B40F8F4
:10481000041BECE72C5E0008284000202840002004
:10482000284000207047000070B5D0E915439E680D
:1048300000224FF0FF3504EB42135101D3F8000979
:104840000028BEBFD3F8000940F08040C3F800093B
:10485000D3F8000B0028BEBFD3F8000B40F0804017
:10486000C3F8000B013263189642C3F80859C3F825
:10487000085BE0D24FF00113C4F81C3870BD000093
:104880001D4B03EB80022DE9F043D2F80CC05D6DA7
:10489000DCF81420461CD2F800E005EB063605EBE8
:1048A0004018516871450AD3D5F83438012202FA0C
:1048B00000F023EA0000C5F83408BDE8F083BCF836
:1048C0001040AEEB0103A34228BF2346D8F8184995
:1048D000A4B2B3EB840FF0D89468A4F1040959F89A
:1048E000047F3760A4EB09071F44042FF7D81C444A
:1048F0000B4494605360D4E7303F0020890141F0BD
:104900002001016103699B06FCD41220FFF752BA13
:1049100010B5054C2046FEF7D1FE4FF0A04363656D
:10492000024BA36510BD00BF303F0020C85C0008EB
:1049300070B50378012B054650D12A4B446D98423F
:104940001BD1294B5A6B42F080025A635A6D42F0D8
:1049500080025A655A6D5A6942F080025A615A695A
:1049600022F080025A610E2143205B69FEF77CFC35
:104970001E4BE3601E4BC4F800380023C4F8003E11
:10498000C02323606E6D4FF40413A3633369002BBF
:10499000FCDA012333610C20FFF70CFA3369DB07E3
:1049A000FCD41220FFF706FA3369002BFCDA00264C
:1049B000A6602846FFF738FF6B68C4F81068DB680C
:1049C000C4F81468C4F81C684BB90A4BA3614FF0D3
:1049D000FF336361A36843F00103A36070BD064B1E
:1049E000F4E700BF303F0020003802404014004090
:1049F00003002002003C30C0083C30C0F8B5446DD4
:104A0000054600212046FFF779FFA96D00234FF0EE
:104A100001128F68C4F834384FF00066C4F81C28BF
:104A20004FF0FF3004EB431201339F42C2F800699C
:104A3000C2F8006BC2F80809C2F8080BF2D20B6882
:104A40006A6DEB65636210231361166916F0100638
:104A5000FBD11220FFF7AEF9D4F8003823F4FE633F
:104A6000C4F80038A36943F4402343F01003A36162
:104A70000923C4F81038C4F814380A4BEB604FF01F
:104A8000C043C4F8103B084BC4F8003BC4F810699D
:104A9000C4F80039EB6D03F1100243F48013EA65AA
:104AA000A362F8BDA45C000840800010426D90F83D
:104AB0004E10D2F8003823F4FE6343EA0113C2F823
:104AC000003870472DE9F84300EB8103456DDA6843
:104AD000166806F00306731E022B05EB41130C4605
:104AE00080460FFA81F94FEA41104FF00001C3F8F8
:104AF000101B4FF0010104F1100398BFB60401FA36
:104B000003F391698EBF334E06F1805606F50046D9
:104B100000293AD0578A04F15801490137436F50B0
:104B2000D5F81C180B43C5F81C382B180021C3F806
:104B3000101953690127611EA7409BB3138A928BFA
:104B40009B08012A88BF5343D8F85C20981842EA92
:104B5000034301F1400205EB8202C8F85C002146E4
:104B600053602846FFF7CAFE08EB8900C3681B8A1A
:104B700043EA8453483464011E432E51D5F81C384F
:104B80001F43C5F81C78BDE8F88305EB4917D7F833
:104B9000001B21F40041C7F8001BD5F81C1821EABE
:104BA0000303C0E704F13F0305EB83030A4A5A609D
:104BB00028462146FFF7A2FE05EB4910D0F8003940
:104BC00023F40043C0F80039D5F81C3823EA07075E
:104BD000D7E700BF0080001000040002826D126859
:104BE000C265FFF721BE00005831436D49015B5893
:104BF00013F4004004D013F4001F0CBF0220012066
:104C0000704700004831436D49015B5813F4004080
:104C100004D013F4001F0CBF0220012070470000D5
:104C200000EB8101CB68196A0B6813604B68536015
:104C30007047000000EB810330B5DD68AA69136896
:104C4000D36019B9402B84BF402313606B8A14686A
:104C5000426D1C44013CB4FBF3F46343033323F083
:104C6000030302EB411043EAC44343F0C043C0F8DE
:104C7000103B2B6803F00303012B09B20ED1D2F8CD
:104C8000083802EB411013F4807FD0F8003B14BFCA
:104C900043F0805343F00053C0F8003B02EB411255
:104CA000D2F8003B43F00443C2F8003B30BD0000A3
:104CB0002DE9F041244D6E6D06EB40130446D3F808
:104CC000087BC3F8087B38070AD5D6F814381907CB
:104CD00006D505EB84032146DB6828465B689847C8
:104CE000FA071FD5D6F81438DB071BD505EB84036C
:104CF000D968CCB98B69488A5A68B2FBF0F600FBD8
:104D000016228AB91868DA6890420DD2121AC3E9DD
:104D10000024202383F311880B482146FFF78AFFE4
:104D200084F31188BDE8F081012303FA04F26B8952
:104D300023EA02036B81CB68002BF3D021460248A3
:104D4000BDE8F041184700BF303F002000EB810371
:104D500070B5DD68436D6C692668E6604A0156BB34
:104D60001A444FF40020C2F810092A6802F0030226
:104D7000012A0AB20ED1D3F8080803EB421410F44A
:104D8000807FD4F8000914BF40F0805040F00050FC
:104D9000C4F8000903EB4212D2F8000940F00440C5
:104DA000C2F80009D3F83408012202FA01F10143E4
:104DB000C3F8341870BD19B9402E84BF402020605C
:104DC00020682E8A8419013CB4FBF6F440EAC44002
:104DD00040F000501A44C6E7F8B504461E48456D39
:104DE00005EB4413D3F80869C3F80869F10717D530
:104DF000D5F81038DA0713D500EB8403D9684B696E
:104E00001F68DA68974218D2D21B00271A605F60C9
:104E1000202383F311882146FFF798FF87F3118839
:104E2000330617D5D5F834280123A340134211D0F7
:104E30002046BDE8F840FFF723BD012303FA04F242
:104E4000038923EA020303818B68002BE8D0214603
:104E50009847E5E7F8BD00BF303F00202DE9F74F48
:104E6000984C666D7569B3691D4015F4805875617D
:104E700007D02046FEF788FC03B0BDE8F04FFFF7EF
:104E800085BC002D12DAD6F8003E8E489F071EBF63
:104E9000D6F8003E23F00303C6F8003ED6F80438E7
:104EA00023F00103C6F80438FEF796FC280505D563
:104EB0008448FFF7B9FC8348FEF77EFCA9040CD5B3
:104EC000D6F8083813F0060FF36823F470530CBFBC
:104ED00043F4105343F4A053F3602A0704D56368E6
:104EE000DB680BB177489847EB0274D4AF0227D543
:104EF000D4F85490DFF8CCB100274FF0010A09EB49
:104F00004712D2F8003B03F44023B3F5802F11D1B0
:104F1000D2F8003B002B0DDA62890AFA07F322EA85
:104F20000303638104EB8703DB68DB6813B1394655
:104F300058469847A36D01379B68FFB29F42DED960
:104F4000E80617D5676D3A6AC2F30A1002F00F033C
:104F500002F4F012B2F5802F00F08880B2F5402FF5
:104F600008D104EB83030022DB681B6A07F5805736
:104F700090426DD12903D6F8184813D5E20302D523
:104F80000020FFF795FEA30302D50120FFF790FE56
:104F9000670302D50220FFF78BFE260302D503200C
:104FA000FFF786FE6D037FF567AFE00702D50020AF
:104FB000FFF712FFA10702D50120FFF70DFF6207DF
:104FC00002D50220FFF708FF23077FF555AF032026
:104FD000FFF702FF50E7636DDFF8E8B001930027A9
:104FE0004FF0010AA36D9B685FFA87F999453FF678
:104FF0007DAF019B03EB4913D3F8002902F4402253
:10500000B2F5802F22D1D3F80029002A1EDAD3F876
:10501000002942F09042C3F80029D3F80029002A61
:10502000FBDB606D4946FFF769FC22890AFA09F348
:1050300022EA0303238104EB8903DB689B6813B135
:105040004946584698474846FFF71AFC0137C9E7D2
:10505000910708BFD7F80080072A98BF03F8018B93
:1050600002F1010298BF4FEA182881E7023304EBEE
:10507000830207F580575268D2F818C0DCF8082080
:10508000DCE9001CA1EB0C0C002188420AD104EBE6
:10509000830463689B699A6802449A605A68024470
:1050A0005A6067E711F0030F08BFD7F800808C45FE
:1050B00088BF02F8018B01F1010188BF4FEA18286F
:1050C000E3E700BF303F0020436D03EB4111D1F80F
:1050D000003B43F40013C1F8003B7047436D03EB02
:1050E0004111D1F8003943F40013C1F80039704779
:1050F000436D03EB4111D1F8003B23F40013C1F8D9
:10510000003B7047436D03EB4111D1F8003923F4A4
:105110000013C1F80039704730B5039C01720433A5
:1051200004FB0325C0E90653049B03630021059B90
:10513000C160C0E90000C0E90422C0E90842C0E93A
:105140000A11436330BD0000416A0022C0E9041126
:10515000C0E90A22C2606FF00101FEF79BBE0000A9
:10516000D0E90432934201D1C2680AB9181D7047D0
:105170000020704703691960C2680132C260C269C9
:10518000134482690361934224BF436A036100218F
:10519000FEF774BE38B504460D46E3683BB162695C
:1051A000131D1268A3621344E362002007E0237A10
:1051B00033B929462046FEF751FE0028EDDA38BD06
:1051C0006FF00100FBE70000C368C269013BC360E8
:1051D0004369134482694361934224BF436A436134
:1051E00000238362036B03B11847704770B5202317
:1051F000044683F31188866A3EB9FFF7CBFF054664
:1052000018B186F31188284670BDA36AE26A13F8C4
:10521000015BA362934202D32046FFF7D5FF002330
:1052200083F31188EFE700002DE9F84F04460E469E
:10523000174698464FF0200989F311880025AA46A1
:10524000D4F828B0BBF1000F09D141462046FFF742
:10525000A1FF20B18BF311882846BDE8F88FD4E96F
:105260000A12A7EB050B521A934528BF9346BBF1D0
:10527000400F1BD9334601F1400251F8040B43F8AB
:10528000040B9142F9D1A36A40334036A362403502
:10529000D4E90A239A4202D32046FFF795FF8AF306
:1052A0001188BD42D8D289F31188C9E730465A46E1
:1052B000FCF7B0FBA36A5B445E44A3625D44E7E78E
:1052C00010B5029C0172043304FB0321C0E90613EC
:1052D0000023C0E90A33039B0363049BC460C0E955
:1052E0000000C0E90422C0E90842436310BD000089
:1052F000026AC260426AC0E904220022C0E90A22AE
:105300006FF00101FEF7C6BDD0E904239A4201D136
:10531000C26822B9184650F8043B0B607047002061
:1053200070470000C368C2690133C3604369134416
:1053300082694361934224BF436A43610021FEF7BF
:105340009DBD000038B504460D46E3683BB12369B6
:105350001A1DA262E2691344E362002007E0237A87
:1053600033B929462046FEF779FD0028EDDA38BD2D
:105370006FF00100FBE7000003691960C268013AA1
:10538000C260C269134482690361934224BF436AC5
:10539000036100238362036B03B118477047000069
:1053A00070B520230D460446114683F31188866AA2
:1053B0002EB9FFF7C7FF10B186F3118870BDA36A3D
:1053C0001D70A36AE26A01339342A36204D3E169C8
:1053D00020460439FFF7D0FF002080F31188EDE765
:1053E0002DE9F84F04460D46904699464FF0200AA5
:1053F0008AF311880026B346A76A4FB9494620466A
:10540000FFF7A0FF20B187F311883046BDE8F88F81
:10541000D4E90A073A1AA8EB0607974228BF1746AD
:10542000402F1BD905F1400355F8042B40F8042BFD
:105430009D42F9D1A36A4033A3624036D4E90A23DE
:105440009A4204D3E16920460439FFF795FF8BF3B4
:1054500011884645D9D28AF31188CDE729463A46C4
:10546000FCF7D8FAA36A3B443D44A3623E44E5E717
:10547000D0E904239A4217D1C3689BB1836A8BB1E8
:10548000043B9B1A0ED01360C368013BC360C36921
:105490001A44836902619A4224BF436A036100236C
:1054A00083620123184670470023FBE700F088B8A9
:1054B0004FF08043002258631A610222DA6070477D
:1054C0004FF080430022DA60704700004FF08043C5
:1054D000586370474FF08043586A70474B68436089
:1054E0008B688360CB68C3600B6943614B6903625F
:1054F0008B6943620B6803607047000008B5264B58
:1055000026481A6940F2FF110A431A611A6922F407
:10551000FF7222F001021A611A691A6B0A431A63B8
:105520001A6D0A431A651E4A1B6D1146FFF7D6FF16
:1055300002F11C0100F58060FFF7D0FF02F1380195
:1055400000F58060FFF7CAFF02F1540100F58060AA
:10555000FFF7C4FF02F1700100F58060FFF7BEFFA6
:1055600002F18C0100F58060FFF7B8FF02F1A8019D
:1055700000F58060FFF7B2FF02F1C40100F5806022
:10558000FFF7ACFF02F1E00100F58060FFF7A6FF36
:10559000BDE8084000F09AB8003802400000024020
:1055A000D45C000808B500F007FAFEF7C7FBFFF768
:1055B00091F8BDE80840FEF7E9BD00007047000023
:1055C000104B1A6C42F001021A641A6E42F001028A
:1055D0001A660D4A1B6E936843F0010393604FF007
:1055E000804353229A624FF0FF32DA6200229A61BE
:1055F0005A63DA605A6001225A6108211A601C203D
:10560000FDF732BE00380240002004E04FF0804237
:1056100008B51169D3680B40D9B2C9439B07116122
:1056200007D5202383F31188FEF7A8FB002383F31B
:10563000118808BD08B5FFF7E9FFBDE80840FFF78E
:10564000A5B800001F4B1A696FEAC2526FEAD25226
:105650001A611A69C2F308021A614FF0FF301A6921
:105660005A69586100215A6959615A691A6A62F087
:1056700080521A621A6A02F080521A621A6A5A6AD0
:1056800058625A6A59625A6A1A6C42F080521A6415
:105690001A6E42F080521A661A6E0B4A106840F475
:1056A00080701060186F00F44070B0F5007F1EBF6E
:1056B0004FF4803018671967536823F40073536000
:1056C00000F05AB90038024000700040334B4FF0F0
:1056D00080521A64324A4FF4404111601A6842F015
:1056E00001021A601A689107FCD59A6822F0030239
:1056F0009A602A4B9A6812F00C02FBD1196801F0EB
:10570000F90119609A601A6842F480321A601A68C6
:105710009203FCD55A6F42F001025A671F4B5A6F31
:105720009007FCD51F4A5A601A6842F080721A60CE
:105730001B4A53685904FCD5184B1A689201FCD5D2
:10574000194A9A60194B1A68194B9A42194B21D180
:10575000194A1168194A91421CD140F205121A6087
:10576000144A136803F00F03052BFAD10B4B9A6808
:1057700042F002029A609A6802F00C02082AFAD1FA
:105780005A6C42F480425A645A6E42F480425A661D
:105790005B6E704740F20572E1E700BF00380240DF
:1057A000007000400854400700948838002004E04E
:1057B00011640020003C024000ED00E041C20F41B6
:1057C000084A08B5516913680B4003F0010353619F
:1057D00023B1054A13680BB150689847BDE80840EB
:1057E000FEF7D4BF003C0140A83F0020084A08B59E
:1057F000516913680B4003F00203536123B1054A5A
:1058000093680BB1D0689847BDE80840FEF7BEBF6B
:10581000003C0140A83F0020084A08B551691368C0
:105820000B4003F00403536123B1054A13690BB124
:1058300050699847BDE80840FEF7A8BF003C01400A
:10584000A83F0020084A08B5516913680B4003F0CF
:105850000803536123B1054A93690BB1D069984796
:10586000BDE80840FEF792BF003C0140A83F002081
:10587000084A08B5516913680B4003F010035361DF
:1058800023B1054A136A0BB1506A9847BDE8084036
:10589000FEF77CBF003C0140A83F0020174B10B52D
:1058A0005A691C68144004F478725A61A30604D53E
:1058B000134A936A0BB1D06A9847600604D5104A20
:1058C000136B0BB1506B9847210604D50C4A936BB0
:1058D0000BB1D06B9847E20504D5094A136C0BB1A4
:1058E000506C9847A30504D5054A936C0BB1D06C56
:1058F0009847BDE81040FEF749BF00BF003C01409B
:10590000A83F00201A4B10B55A691C68144004F4D3
:105910007C425A61620504D5164A136D0BB1506D75
:105920009847230504D5134A936D0BB1D06D984762
:10593000E00404D50F4A136E0BB1506E9847A104D2
:1059400004D50C4A936E0BB1D06E9847620404D50F
:10595000084A136F0BB1506F9847230404D5054ACA
:10596000936F0BB1D06F9847BDE81040FEF70EBFA4
:10597000003C0140A83F0020062108B50846FDF77D
:1059800073FC06210720FDF76FFC06210820FDF7B8
:105990006BFC06210920FDF767FC06210A20FDF7B4
:1059A00063FC06211720FDF75FFCBDE808400621D7
:1059B0002820FDF759BC000008B5FFF743FE00F0B2
:1059C0000DF8FDF767FCFDF777FEFDF74FFDFFF7DC
:1059D000F5FDBDE80840FFF769BD00000023054A5A
:1059E00019460133102BC2E9001102F10802F8D167
:1059F000704700BFA83F002010B501390244904213
:105A000001D1002005E0037811F8014FA34201D035
:105A1000181B10BD0130F2E72DE9F041A3B1C91AFE
:105A200017780144044603F1FF3C8C42204601D91B
:105A3000002009E00578BD4204F10104F5D10CEB2A
:105A40000405D618A54201D1BDE8F08115F8018DF5
:105A500016F801EDF045F5D0E7E70000034611F830
:105A6000012B03F8012B002AF9D170476F72672EC2
:105A70006172647570696C6F742E663430355F4D79
:105A80006174656B41697273706565640000000044
:105A900053544D3332463F3F3F00000053544D3383
:105AA00032463430780053544D3332463432780025
:105AB00053544D33324634343658580000000000F9
:105AC000905A00083F000000130400009C5A000890
:105AD0003F00000019040000A65A00083F00000023
:105AE00021040000B05A00083F00000040A2E4F189
:105AF000646891060041A3E5F26569920700000021
:105B000000000000E9330008D53300081134000814
:105B1000FD33000809340008F5330008E1330008BC
:105B2000CD3300081D340008000000000100000013
:105B3000000000006D61696E0000000069646C6522
:105B4000000000003C5B000848360020C037002001
:105B500001000000393D000800000000417264753A
:105B600050696C6F740025424F415244252D424CC0
:105B7000002553455249414C250000000200000019
:105B800000000000053600087136000840004000A3
:105B9000583C0020683C002002000000000000008B
:105BA0000300000000000000B536000800000000FF
:105BB00010000000783C0020000000000100000000
:105BC00000000000303F00200101020029410008D0
:105BD00039400008D5400008B940000843000000E3
:105BE000E45B000809024300020100C0320904001E
:105BF000000102020100052400100105240100013A
:105C0000042402020524060001070582030800FFA0
:105C100009040100020A000000070501024000001B
:105C2000070581024000000012000000305C0008FF
:105C30001201100102000040091241570002010246
:105C4000030100000403090425424F41524425008A
:105C5000663430352D4D6174656B416972737065C2
:105C60006564003031323334353637383941424398
:105C70004445460000400000004000000040000095
:105C800000400000000001000000020000000200CF
:105C900000000200000002000000020000000200FC
:105CA0000000020000000000ED370008A53A0008DF
:105CB000513B000840004000903F0020903F0020F2
:105CC00001000000A03F0020800000004001000013
:105CD00003000000AA01A81200000000AAAAAAAAB4
:105CE00055011400FFBF00008877000070A70A006C
:105CF00000000A0100000000AAAAAAAA00000001F0
:105D0000FFFF000000000000990000000000A01646
:105D100000000000AAAAAAA600005011FFDF0000A0
:105D200000000000007708002000000000000000D4
:105D3000AAAAAAAA10000000FFFF000000080000A5
:105D4000000000000000000000000000AAAAAAAAAB
:105D500000000000FFFF0000000000000000000045
:105D60000000000000000000AAAAAAAA000000008B
:105D7000FFFF000000000000000000000000000025
:105D800000000000AAAAAAAA00000000FFFF00006D
:105D90000000000000000000000000000000000003
:105DA0000A000000000000000300000000000000E6
:105DB00000000000000000000000000000000000E3
:105DC00000000000000000000000000000000000D3
:105DD00040A4FF7F01000000F60300000000000067
:105DE00000000F0000000000640000000000000040
:105DF00040420F00FE2A0100D2040000FF0096007E
:105E000000000008009600000000080004000000E8
:105E1000445C0008000000000000000000000000DA
:0C5E200000000000000000000000000076
:00000001FF
