:020000040800F2
:1000000000070020F50400080D2C00088D2B0008C7
:10001000E52B00088D2B0008B92B0008F704000819
:10002000F7040008F7040008F7040008C53A0008C0
:10003000F7040008F7040008F7040008F7040008B4
:10004000F7040008F7040008F7040008F7040008A4
:10005000F7040008F7040008A94D0008D54D000872
:10006000014E00082D4E0008594E0008F704000804
:10007000F7040008F7040008F7040008F704000874
:10008000F7040008F7040008F7040008A527000893
:10009000B5270008C9270008F7040008854E0008A6
:1000A000F7040008F7040008F7040008F704000844
:1000B000F94B0008F7040008F7040008F7040008EB
:1000C000F7040008F7040008F7040008F704000824
:1000D000F7040008F7040008A93B0008F70400082B
:1000E000ED4E0008F7040008F7040008F7040008C4
:1000F000F7040008F7040008F7040008F7040008F4
:10010000F7040008F7040008F7040008F7040008E3
:10011000F7040008F7040008F7040008F7040008D3
:10012000F7040008F7040008F7040008F7040008C3
:10013000F7040008F7040008F7040008DD270008AA
:10014000ED27000801280008F7040008F70400085C
:10015000F7040008F7040008F7040008F704000893
:10016000F7040008F7040008F7040008F704000883
:10017000F7040008F7040008F7040008F704000873
:10018000F7040008F7040008F7040008F704000863
:10019000F7040008F7040008F7040008F704000853
:1001A000F7040008F7040008F7040008F704000843
:1001B000F7040008F7040008F7040008F704000833
:1001C000F7040008F7040008F7040008F704000823
:1001D000F7040008F7040008F7040008F704000813
:1001E00009190008000000000000000000000000E5
:1001F00053B94AB9002908BF00281CBF4FF0FF318E
:100200004FF0FF3000F074B9ADF1080C6DE904CE89
:1002100000F006F8DDF804E0DDE9022304B07047E1
:100220002DE9F047089D04468E46002B4DD18A42A9
:10023000944669D9B2FA82F252B101FA02F3C2F1DC
:10024000200120FA01F10CFA02FC41EA030E94406D
:100250004FEA1C48210CBEFBF8F61FFA8CF708FB8E
:1002600016E341EA034306FB07F199420AD91CEB66
:10027000030306F1FF3080F01F81994240F21C8198
:10028000023E63445B1AA4B2B3FBF8F008FB1033E0
:1002900044EA034400FB07F7A7420AD91CEB040415
:1002A00000F1FF3380F00A81A74240F207816444E5
:1002B000023840EA0640E41B00261DB1D44000236A
:1002C000C5E900433146BDE8F0878B4209D9002DCE
:1002D00000F0EF800026C5E9000130463146BDE858
:1002E000F087B3FA83F6002E4AD18B4202D38242C2
:1002F00000F2F980841A61EB030301209E46002D71
:10030000E0D0C5E9004EDDE702B9FFDEB2FA82F2C5
:10031000002A40F09280A1EB0C014FEA1C471FFA23
:100320008CFE0126200CB1FBF7F307FB131140EA0A
:1003300001410EFB03F0884208D91CEB010103F1D7
:10034000FF3802D2884200F2CB804346091AA4B299
:10035000B1FBF7F007FB101144EA01440EFB00FE6D
:10036000A64508D91CEB040400F1FF3102D2A645D2
:1003700000F2BB800846A4EB0E0440EA03409CE771
:10038000C6F12007B34022FA07FC4CEA030C20FA1E
:1003900007F401FA06F31C43F9404FEA1C4900FA3E
:1003A00006F3B1FBF9F8200C1FFA8CFE09FB1811BB
:1003B00040EA014108FB0EF0884202FA06F20BD92E
:1003C0001CEB010108F1FF3A80F08880884240F27E
:1003D0008580A8F102086144091AA4B2B1FBF9F0C2
:1003E00009FB101144EA014100FB0EFE8E4508D9BD
:1003F0001CEB010100F1FF346CD28E456AD9023842
:10040000614440EA0840A0FB0294A1EB0E01A14226
:10041000C846A64656D353D05DB1B3EB080261EB94
:100420000E0101FA07F722FA06F3F1401F43C5E96E
:10043000007100263146BDE8F087C2F12003D840A4
:100440000CFA02FC21FA03F3914001434FEA1C47E6
:100450001FFA8CFEB3FBF7F007FB10360B0C43EAD8
:10046000064300FB0EF69E4204FA02F408D91CEB88
:10047000030300F1FF382FD29E422DD90238634486
:100480009B1B89B2B3FBF7F607FB163341EA034126
:1004900006FB0EF38B4208D91CEB010106F1FF3875
:1004A00016D28B4214D9023E6144C91A46EA00466C
:1004B00038E72E46284605E70646E3E61846F8E6FE
:1004C0004B45A9D2B9EB020864EB0C0E0138A3E747
:1004D0004646EAE7204694E74046D1E7D0467BE728
:1004E000023B614432E7304609E76444023842E7A0
:1004F000704700BF02E000F000F8FEE772B63A482D
:1005000080F30888394880F3098839484EF6085145
:10051000CEF20001086040F20000CCF200004EF67E
:100520003471CEF200010860BFF34F8FBFF36F8FBD
:1005300040F20000C0F2F0004EF68851CEF2000109
:100540000860BFF34F8FBFF36F8F4FF00000E1EEF5
:10055000100A4EF63C71CEF200010860062080F3CE
:100560001488BFF36F8F04F089FA04F065FA04F081
:10057000AFFA4FF055301F491B4A91423CBF41F83A
:10058000040BFAE71C49194A91423CBF41F8040B9D
:10059000FAE71A491A4A1B4B9A423EBF51F8040B1C
:1005A00042F8040BF8E700201749184A91423CBF73
:1005B00041F8040BFAE704F043FA04F0D7FA144CBC
:1005C000144DAC4203DA54F8041B8847F9E700F0F5
:1005D00041F8114C114DAC4203DA54F8041B884722
:1005E000F9E704F02BBA00000007002000230020E8
:1005F000000000080001002000070020F05500085E
:10060000002300208423002088230020C45C0020D5
:10061000E0010008E4010008E4010008E40100082A
:100620002DE9F04F2DED108AC1F80CD0C3689D461E
:10063000BDEC108ABDE8F08F002383F311882846B3
:10064000A047002003F0CCFEFEE703F045FE00DFEC
:10065000FEE70000F8B504F089F9074604F0D8F980
:100660000546A0BB1F4B9F4231D001339F4231D082
:100670001D4B27F0FF029A422FD1F8B200F032FD55
:100680002E4642F2107400F037FF08B100242646CF
:1006900000F02EFD08B90646044635B1134B9F42C3
:1006A00003D004F0ADF900242646002004F068F9D8
:1006B0000EB100F063F801F0EDFA00F07BFF01F0FD
:1006C0008DF9204600F0A4F800F058F8F9E72E461E
:1006D0000024D8E704460126D5E7064640F6C414B0
:1006E000D1E700BF010007B0000008B0263A09B00A
:1006F00008B501F045F9A0F120035842584108BD62
:1007000007B541F21203022101A8ADF8043001F04F
:1007100055F903B05DF804FB10B5202383F311886D
:100720001248C3680BB103F0D3FE114A0F480023EF
:100730004FF47A7103F090FE002383F311880D4C7F
:10074000236813B12368013B2360636813B16368B6
:10075000013B6360084B1B7833B9636823B90220FF
:1007600001F026FA3223636010BD00BF8823002009
:1007700019070008A42400209C2300201E4B1F4AB8
:1007800010B51C461968013134D004339342F9D1B5
:1007900062681B4B9A422DD91A4B9B6803F1006388
:1007A00003F580339A4225D204F0FEF804F010F9E4
:1007B000002001F02DF9144B0220187001F0EEF921
:1007C000124B1A6C00221A64196E1A66196E596C53
:1007D0005A64596E5A665B6E72B64FF0E023202160
:1007E000C3F8084DD4E9003281F311889D4683F3A4
:1007F0000888104710BD00BF000001082000010854
:10080000FFFF0008002300209C2300200038024046
:100810002DE9F04F93B0AC4B00902022FF210AA8A5
:100820009D6801F0E1F9A94A1378A3B9A84801210C
:10083000C3601170202383F31188C3680BB103F0E8
:1008400047FEA44AA24800234FF47A7103F004FE45
:10085000002383F31188009B9F4A03B113609F49D3
:10086000009C00230B70536098469B461E469A4698
:10087000012001F093F924B1974B1B68002B00F085
:100880001C82002001F07CF80390039B002B01DA0E
:1008900000F0DEFE039B002BEDDB012001F074F97C
:1008A000039B213B162BE3D801A252F823F000BF93
:1008B0000D09000835090008C90900087108000879
:1008C00071080008710800085D0A00082F0C000874
:1008D000490B0008AB0B0008D30B0008F90B00080C
:1008E000710800080B0C0008710800087D0C000856
:1008F000AD09000871080008C10C000819090008BA
:10090000AD09000871080008AB0B00080220FFF7D2
:10091000EFFE002840F0FB81009B0221B8F1000FA0
:1009200008BF1C4605A841F21233ADF8143001F09F
:1009300045F89DE74FF47A7001F022F8071EEBDBD3
:100940000220FFF7D5FE0028E6D0013F052F00F278
:10095000E081DFE807F0030A0D1013360523059345
:10096000042105A801F02AF817E057480421F9E707
:100970005B480421F6E75B480421F3E74FF01C09CC
:10098000484601F047F809F104090590042105A83B
:1009900001F014F8B9F12C0FF2D1012000FA07F799
:1009A00047EA0B0B5FFA8BFB4FF0000A01F068F986
:1009B00026B10BF00B030B2B08BF0024FFF7A0FEA2
:1009C00056E749480421CDE7002EA5D00BF00B03D4
:1009D0000B2BA1D10220FFF78BFE074600289BD0EE
:1009E00001203E4E01F014F80220307001F0D6F8DC
:1009F0004FF000085FFA88F9484601F019F80446FC
:100A000090B1484601F024F808F101080028F1D11E
:100A1000B846044641F21213022105A8ADF814307D
:100A20003E4600F0CBFF23E701230220337001F0A4
:100A3000ABF82546244B9B68AB4207D9284600F00B
:100A4000E9FF013040F068810435F3E7234B0025CE
:100A50001D70214BB8465D603E46A7E7002E3FF46F
:100A60005BAF0BF00B030B2B7FF456AF1B4B02203D
:100A7000187001F093F8322000F082FFB0F1000905
:100A8000FFF64AAF19F003077FF446AF0E4A9268AB
:100A900009EB050393423FF63FAFB9F5807F3FF77F
:100AA0003BAF124B0193B94522DD4FF47A7000F051
:100AB00067FF0390039A002AFFF62EAF019B039A6B
:100AC00003F8012B0137EDE700230020A0240020CC
:100AD0008823002019070008A42400209C2300205C
:100AE00004230020082300200C230020A023002042
:100AF000C820FFF7FDFD074600283FF40DAF1F2D6E
:100B000011D8C5F120024A450AAB25F0030028BFE1
:100B10004A4683490192184401F054F8019A8048EA
:100B2000FF2101F061F84FEAA9037D490193C9F360
:100B30008702284601F060F8064600283FF46AAFB5
:100B4000019B05EB830531E70220FFF7D1FD00286B
:100B50003FF4E2AE00F0A6FF00283FF4DDAE002730
:100B6000B946704B9B68BB4218D91F2F11D80A9BFE
:100B700001330ED027F0030312AA134453F8203C8C
:100B800005934846042205A902F04EF80437814631
:100B9000E7E7384600F03EFF0590F2E7CDF8149005
:100BA000042105A800F00AFF00E70023642104A83F
:100BB000049300F0F9FE00287FF4AEAE0220FFF7A8
:100BC00097FD00283FF4A8AE049800F053FF05906D
:100BD000E6E70023642104A8049300F0E5FE002862
:100BE0007FF49AAE0220FFF783FD00283FF494AE15
:100BF000049800F04FFFEAE70220FFF779FD002894
:100C00003FF48AAE00F05EFFE1E70220FFF770FDDF
:100C100000283FF481AE05A9142000F059FF0421FB
:100C20000746049004A800F0C9FE3946B9E732200F
:100C300000F0A6FE071EFFF66FAEBB077FF46CAE9A
:100C4000384A926807EB0A0393423FF665AE0220EA
:100C5000FFF74EFD00283FF45FAE27F0030757442F
:100C6000BA453FF4A3AE504600F0D4FE04210590EF
:100C700005A800F0A3FE0AF1040AF1E74FF47A7028
:100C8000FFF736FD00283FF447AE00F00BFF0028C9
:100C900044D00A9B01330BD008220AA9002000F09F
:100CA000ABFF00283AD02022FF210AA800F09CFFC9
:100CB000FFF726FD1C4803F099FB13B0BDE8F08F49
:100CC000002E3FF429AE0BF00B030B2B7FF424AE68
:100CD0000023642105A8059300F066FE074600285E
:100CE0007FF41AAE0220FFF703FD814600283FF48F
:100CF00013AEFFF705FD41F2883003F077FB05984E
:100D000000F0D4FF4E4600F0BBFF3C46B0E506467F
:100D10004CE64FF0000AFFE5B8467BE6374679E639
:100D2000A023002000230020A0860100094A1368A8
:100D300049F2690099B21B0C00FB01331360064BAA
:100D4000186844F2506182B2000C01FB0200186086
:100D500080B27047182300201423002010B5002112
:100D60001022044600F040FF034B03CB206061607B
:100D70001868A06010BD00BF107AFF1F2DE9F04376
:100D8000224DBBB001F04AFFAB6840F2ED22C31A1E
:100D9000934232D906AFA8602B462822002138465C
:100DA00002F04CFC05F10E0000F016FF0026044690
:100DB0005FFA80F905F10E08F3B2F100994501F1EF
:100DC000280107D908EB06030822384602F036FC52
:100DD0000136F1E708230122CDE9023205340C4B3C
:100DE0000193A4B230230093CDE9047405A3D3E9A1
:100DF0000023297B074802F039FA3BB0BDE8F083B5
:100E0000AFF3008078F6339F93CACD8D90560020C3
:100E10009D560020C434002070B50D4614461E4671
:100E200002F0BAF950B9022E10D1012C0ED112A342
:100E3000D3E90023C5E90023012007E0282C10D0C6
:100E400005D8012C09D0052C0FD0002070BD302C06
:100E5000FBD10BA3D3E90023ECE70BA3D3E90023D9
:100E6000E8E70BA3D3E90023E4E70BA3D3E90023CE
:100E7000E0E700BFAFF30080401DA12026812A0BD0
:100E800078F6339F93CACD8D9E6AC421818A46EE3F
:100E900026417272DF25D7B7F017304A39059E56C2
:100EA00013B504462346084620220021019002F093
:100EB000C5FB22790198032A234628BF032203F8A1
:100EC000042F2021022202F0B9FB62790198072A3F
:100ED000234628BF072203F8052F2221032202F010
:100EE000ADFBA2790198072A234628BF072203F801
:100EF000062F2521032202F0A1FB019804F108032B
:100F00001022282102F09AFB382002B010BD000008
:100F10002DE9F04FADF5017D21AD0EAE40F2751219
:100F200080460F4622A80021296000F05DFE48227D
:100F30000021304600F058FE01F070FE564B4FF491
:100F40007A72B0FBF2F0186093E80700012386E89C
:100F500007000DF15A003382FFF700FF40F604331B
:100F6000338407AB18464D4904F0AAF918223064BF
:100F70002946304686F83C20FFF792FF12AB044624
:100F800001460822284602F059FB0822A1180DF15B
:100F90004903284602F052FB0DF14A03082204F1EE
:100FA0001001284602F04AFB13AB202204F118017D
:100FB000284602F043FB14AB402204F138012846D6
:100FC00002F03CFB16AB082204F17801284602F03F
:100FD00035FB0DF15903082204F18001284602F087
:100FE0002DFB04F1880A0DF15A0904F5847B4B4668
:100FF0005146082228460AF1080A02F01FFBD34591
:1010000009F10109F3D11BAB08225946284602F029
:1010100015FB04F588744FF0000996F834304B4501
:101020000AD9B36B21464B440822284602F006FB3E
:10103000083409F10109F0E74FF0000996F83C3057
:101040004B4504EBC90108D9336C08224B442846B0
:1010500002F0F4FA09F10109F0E700230393BB7EE3
:101060000293073107F119030193C1F3CF01012363
:10107000CDE904510093F97E05A3D3E9002340464E
:1010800002F0F4F80DF5017DBDE8F08FAFF30080BC
:101090009E6AC421818A46EEAC240020F0520008EA
:1010A000F8B50E4C0E4F0226A4F5805343F8487C49
:1010B000237E3BB965692DB1284601F02DFC2846F9
:1010C00003F090FF204601F027FCA4F58654012E82
:1010D000A4F1100400D1F8BD0126E5E70856002070
:1010E0003C540008014B1870704700BFB824002022
:1010F000F0B5334B1C7B85B034B1324B0E221A81D4
:101100000024204605B0F0BD2F4A1068516802AB9C
:1011100003C308232D492E480DEB030203F0B4FF4F
:10112000054630B9274B2B480A221A8101F072FB81
:10113000E6E70169B1F5E02F06D9224B26480B22DC
:101140001A8101F067FBDCE7438B40F20B429342CC
:1011500007D01C490C2008811946204801F05AFB91
:10116000CFE71F4A024402F11003994204D2154B03
:101170001C4810221A81E4E710398E1A20461449BF
:1011800001F052FD3246074605F11801204601F0F4
:101190004BFDAB689F4202D1EB6898420AD0094BE5
:1011A0000D221A810090D5E902123B460E4801F04B
:1011B00031FBA5E70D4801F02DFB0124A1E700BF9D
:1011C00090560020AC2400209D530008DCFF060050
:1011D000000001080C530008185300082A530008A7
:1011E0000800FFF748530008655300088E530008B5
:1011F0002DE9F04FADB006AF80460C4601F0CCFFB4
:10120000054600285AD1237E022B1BD1E38A012BED
:1012100018D101F003FD0646FFF788FD03464FF4A1
:10122000C870DFF8D092B3FBF0F206F5167602FB39
:10123000103316FA83F3C9F80030E37E33B9A84BB4
:1012400000221A709C37BD46BDE8F08FA38AEEB22B
:10125000013BB34205F101050BD93B1D1E44E900DA
:1012600000960023082201F0F801204602F0AAF8B7
:10127000ECE707F11400FFF771FD324607F11401A6
:10128000381D03F0F1FE0028D9D10F2E08D8944B59
:101290001E70D9F80030A3F51673C9F80030D1E7F5
:1012A000FB1CF8700146009307220346204602F01B
:1012B00089F8F978404601F067FFC3E7E38A282BF5
:1012C00026D010D8012B1ED0052BBBD1BFF34F8FDA
:1012D0008449854BCA6802F4E0621343CB60BFF3D4
:1012E0004F8F00BFFDE7302BACD1637E7F4D0133C4
:1012F0006A7BDBB29342E94603D1E27E2B7B9A42C2
:1013000065D0CD469EE721464046FFF701FE99E7AE
:10131000A38A013B9BB2C92B94D8744D2E7B26BB6C
:1013200005F10C030093082233463146204602F0B3
:1013300049F8731CF2B2D9001E46A38A013B9A42B7
:1013400005DA0E322A44009200230822EEE7002339
:101350000022C5E900230023AB6085F8D730C5F82B
:10136000D8302B7B0BB9E37E2B73002507F11409D2
:101370003B1D082229464846C7E90155FD6002F099
:101380005DF93B7A05F1010AAB424FEACA0608D97A
:10139000FB6808222B443146484602F04FF9554677
:1013A000EFE7C6F3CF06E17ECDE904960023039371
:1013B000A37E0293193428230093019446A3D3E912
:1013C0000023404601F052FFFFF7D8FC3AE74FF008
:1013D000000807F11403A7F8148010220093414677
:1013E0000123204601F0EEFFA68A023EB6B2F31CAE
:1013F0009B109B000733DB08A9EBC3039D460DF14F
:10140000180A1FFA88F34FEAC801B34201F110012C
:101410000AD20AEB0803009308220023204601F0B9
:10142000D1FF08F10108ECE795F8D70000F000FBC8
:10143000D5F8D83004461BB995F8D70000F008FB62
:10144000D5F8D83033449C4204D295F8D700013007
:1014500000F0FEFA4FEA960B4FF000081FFA88F1F1
:101460008B45D5E9003209D90AEB880103EB8800E6
:10147000012200F0C1FB08F10108EFE7F31842F187
:101480000002C5E90032D5F8D83095F8D70006EB50
:101490000308C5F8D88000F0CBFA804509D395F849
:1014A000D730D5F8D8000133001B85F8D730C5F800
:1014B000D800FF2E08D800232B7300F0F3FAFFF7B3
:1014C00017FE08B1FFF75AF92B68094A9B0A013346
:1014D00013810023AB6014E726417272DF25D7B772
:1014E000BD34002000ED00E00400FA059056002015
:1014F000AC240020C034002030B54FF00054244B01
:1015000022689A4285B007D003F08CFA0446A8B945
:101510000024204605B030BD1E4B627D1A701E4867
:10152000237D03731D49C9220E3000F04BFB20467A
:10153000E022002100F058FB0124EAE7184A194D87
:10154000136C43F000731364AA6D174B9A42DFD1FA
:101550002B6E013B7E2BDBD8144A07CA01AB83E814
:1015600007001846032101F075FB6B6D83424FF0B5
:101570000003CDD12A6D8A4201BFAB65054B2A6EAF
:101580001A7003BF0A4BEA6D1A601C46C1E700BF20
:101590009AAD44C5B82400209056002016000020C3
:1015A00000380240006600405041A0B0586600403C
:1015B0001023002037B51C4C1C4D21681C48022309
:1015C00001226B7100F0DAFF1A48216850F8D03F11
:1015D00001225B68984700230193174B174900933A
:1015E0001748184B4FF4805201F0A8FD164B19789C
:1015F00011B1134801F0C8FD01F010FB0446FFF7DC
:1016000095FB4FF4C873B0FBF3F202FB130304F530
:10161000167010FA83F00D4B186003F0F9F908B159
:101620000F232B8103B030BD10230020AC240020F9
:10163000F0340020F0440020190E0008BC240020E3
:10164000C4340020F1110008B8240020C034002068
:101650002DE9F04F2DED028BDFF8A4B293B0DFF847
:101660008092DFF8A0A2484601F064FE03460028FD
:101670003ED00024CDE90F440E94ADF84440027BE7
:101680008DF8442099684068934D0FAA03C21B68E7
:1016900043F000430E932746A0462B681B691E4665
:1016A00001F0BEFA10EB0A0241F100032846CDF822
:1016B00000800EA9B04704F2344440F668030028C5
:1016C000C8BF47F0010705F586559C4205F1100596
:1016D000E3D137B1484601F031FE804B83F80080FA
:1016E000C1E77E4A1378072B00F2E58001331370BF
:1016F0000BAF9FED738B00230A93ADF834300B933F
:101700007B600025744CDFF8D8912E4601238DF8BC
:101710001C3023688DED008B4FF0000AD3F8088051
:101720008DF81DA053460DF11D0207A92046C047A4
:101730009DF81C80B8F1000F24D0DBF8143083F43E
:101740000043CBF81430102251460EA800F04CFA9A
:10175000236808AA5E690AA90DF11E032046B04756
:1017600097E803000FAB83E803009DF834308DF851
:1017700044300A9B0E930EA9DDE90823484601F088
:10178000A5FF464605F2344540F6680304F5865445
:101790009D4204F11004B9D1002EB2D1504801F09D
:1017A000FBFC002840D14F4D01F038FA2B689842DD
:1017B0003AD301F033FA0446FFF7B8FA4FF4C8738E
:1017C00004F51674B0FBF3F202FB130314FA83F36F
:1017D0002B60454D8DF828602E7816B901238DF8C1
:1017E0002830C6F11004E4B20EA8FFF7B7FA062CB1
:1017F00028BF06240EAB224699190DF1290000F0EE
:10180000E1F90AAB0393182302930134374B019398
:10181000E4B201230093324804942BA3D3E90023BC
:1018200001F0BCFC00232B7001F0F8F9304A314C78
:101830001368C31AB3F57A7F30D3106001F0F0F962
:1018400002460B46264801F083FD254801F0A4FC22
:1018500020B3237B284D002B14BF032302236B717D
:1018600001F0DCF90EAE4FF47A733146B0FBF3F0C1
:1018700028602846FFF714FB1823073002931F4BFC
:101880000193C0F3CF0040F25513CDE903600093FC
:1018900013480FA3D3E9002301F080FC237B2BB175
:1018A000FFF76CFA237B002B7FF4D9AE13B0BDECAD
:1018B000028BBDE8F08F0A4801F040FD18E700BF39
:1018C0000000000000000000401DA12026812A0B1E
:1018D000F1C6A7C1D068080FF0340020755700206A
:1018E000C4340020C0340020BD340020BC340020AB
:1018F0007057002090560020AC2400207457002020
:101900000004024040420F0008B5064800F0ACFB5E
:10191000054800F0A9FBBDE80840044A044900203E
:1019200003F05ABBF0340020C0450020C857002007
:10193000A110000870B50F4B1B780133DBB2012BEF
:101940000C4611D80C4D29684FF47A730E6AA2FB2D
:101950000332014622462846B047844204D1074B51
:1019600000221A70012070BD4FF4FA7002F03EFDA3
:101970000020F8E71C230020CC570020B857002097
:1019800007B50023024601210DF107008DF807304D
:10199000FFF7D0FF20B19DF8070003B05DF804FB0E
:1019A0004FF0FF30F9E700000A4608B50421FFF7C1
:1019B000C1FF80F00100C0B2404208BD30B4054C08
:1019C0002368DD69044B0A46AC460146204630BC1C
:1019D000604700BFCC570020A086010070B502F020
:1019E0005FFE094E094D3080002428683388834209
:1019F00008D902F04FFE2B6804440133B4F5803F50
:101A00002B60F2D370BD00BFBA570020785700207A
:101A100002F00ABF00F1006000F5803000687047F6
:101A200000F10060920000F5803002F087BE0000F7
:101A3000054B1A68054B1B889B1A834202D9104438
:101A400002F028BE0020704778570020BA570020C7
:101A500038B5074D04462868204402F023FE28B913
:101A600028682044BDE8384002F034BE38BD00BFCD
:101A70007857002010F003030AD1B0F5047F05D297
:101A800000F10050A0F51040D0F80038184670471B
:101A90000023FBE700F10050A0F51040D0F8100A39
:101AA00070470000064991F8243033B10023086ADA
:101AB00081F824300822FFF7B3BF0120704700BF30
:101AC0007C570020014B1868704700BF002004E0DD
:101AD00070B52A4B1B68C3F30B0204461B0C62B1A2
:101AE00040F21340824230D040F2194082422ED060
:101AF00040F2214082422CD10322214D0C2000FBD8
:101B00000252556842F20102934224D0B3F5805F3D
:101B100023D041F20102934221D041F203029342C9
:101B20001FD041F20702934214BF3F233123013CEF
:101B30000C44013D0A46A24215D215F9016F501C12
:101B40009EB100F8016C0246F5E70122D5E70222BA
:101B5000D3E70C4DD6E73323E9E74123E7E75A23E0
:101B6000E5E75923E3E7104605E02C25844215708C
:101B700001D9901C5370401A70BD00BF002004E0D2
:101B8000D4530008A8530008022802BF024B4FF0AC
:101B900000429A61704700BF00040240022802BF61
:101BA000024B4FF400429A61704700BF00040240AC
:101BB000022801BF024A536983F40043536170470E
:101BC0000004024010B50023934203D0CC5CC454FF
:101BD0000133F9E710BD000003460246D01A12F99E
:101BE000011B0029FAD1704702440346934202D0F8
:101BF00003F8011BFAE770472DE9F8431F4D14461F
:101C000095F824200746884652BBDFF870909CB3B5
:101C100095F824302BB92022FF2148462F62FFF788
:101C2000E3FF95F82400C0F10802A24228BF224633
:101C3000D6B24146920005EB8000FFF7C3FF95F84E
:101C40002430A41B1E44F6B2082E17449044E4B27C
:101C500085F82460DBD1FFF725FF0028D7D108E005
:101C60002B6A03EB82038342CFD0FFF71BFF0028D0
:101C7000CBD10020BDE8F8830120FBE77C57002092
:101C8000024B1A78024B1A70704700BFB8570020F9
:101C90001C230020034904484FF461430B6002F009
:101CA0003FBA00BFA4570020CC570020074B10B507
:101CB0000021044614221846FFF796FF04600146EF
:101CC000BDE81040024802F02BBA00BFA457002024
:101CD000CC570020202383F3118862B670470000A0
:101CE000002383F3118862B67047000010B40268C5
:101CF00054681A4623465DF8044B18470120704784
:101D000000207047002070477047000070470000B7
:101D1000002070470E20704700F5805090F8C800F2
:101D2000C0F340007047000000F5805090F9C900F2
:101D3000704700002DE9F0410C68BDF8187014F0F0
:101D400000541E466FD10B7B082B6CD8FFF7C2FFE7
:101D50004569AB685B010CD4AB681B0108D4AC6867
:101D600014F080545DD1FFF7BBFF2046BDE8F08141
:101D700001240B6804F1180C002BB8BFDB004FEAFC
:101D80000C1CB4BF43F004035B0545F80C300B6832
:101D90000FFA84FC13F0804F18BF05EB0C1E05EB07
:101DA0000C1C1EBFDEF8803143F00203CEF88031F8
:101DB0000B7BCCF8843105EB04158B68C5F88C31AE
:101DC0004B68C5F88831DCF8803143F00103CCF86A
:101DD000803100EB441541F268031D4403EB4413CA
:101DE0000344C5E9002608330D4601F10C0C55F8F3
:101DF00004EB43F804EB6545F9D184342D881D804C
:101E000000EB441407F00303257925F00B052B4361
:101E10002371FFF765FF06973346BDE8F04100F0F8
:101E20001BBD0224A5E74FF0FF309FE713B500F577
:101E300080540191E06D00F0A5FD1F280AD9019999
:101E4000E06D202200F014FEA0F12003584258411A
:101E500002B010BD0020FBE708B500F58050FFF789
:101E600039FFC06D00F062FDBDE80840FFF738BFE4
:101E700000220260828142608260704710B50022B9
:101E80000023C0E900230023044603810C30FFF740
:101E9000EFFF204610BD0000F0B5054600F580506C
:101EA0000C4690F8C83013F0040FC3F3800108BF4C
:101EB000114661F3820304F1840680F8C83005EB13
:101EC000461389B01B79D8072ED57AB319072DD4BC
:101ED0006846FFF7D3FF05EB441303F5835303F183
:101EE000180703AA103318685968144603C4083346
:101EF000BB422246F7D1186820609B88A380DDE9A9
:101F00000E23CDE900230123ADF808302B68694684
:101F10001B6C2846984705EB46152B791A075CBFC2
:101F200043F008032B7101E0002AF4D109B0F0BDA1
:101F30002DE9F047074688B007F5805468469A4671
:101F40008846FFF7C7FE9146FFF798FFE06D00F067
:101F5000FFFC1F2829D9E06D2022694600F00AFE07
:101F6000202822D103AD444605AB2E4603CE9E4227
:101F700020606160354604F10804F6D130682060C5
:101F8000B388A380DDE90023C9E90023BDF8083048
:101F9000AAF80030FFF7A4FE4A46534641463846A9
:101FA00008B0BDE8F04700F045BCFFF799FE0020FF
:101FB00008B0BDE8F08700002DE9F84F0023C0E924
:101FC0000133264B044640F8183B0F46FFF750FFFD
:101FD00004F12800FFF752FF04F1480804F5825588
:101FE0004646083530462036FFF748FFAE42F9D165
:101FF00004F580554FF480534FF00009C5E91339BB
:10200000C5F848800123EE6504F5875804F5845629
:10201000C5F8549085F8583085F86030083608F1D6
:1020200008084FF0000A4FF0000B46E908ABA6F194
:102030001800FFF71DFF203646F8289C4645F4D1CE
:10204000012F85F8C97002D9054800F0E1FD054B64
:1020500053F8273063612046BDE8F88F3C540008F0
:10206000045400082054000810B5044B19780446A5
:102070004A1C1A70FFF7A0FF204610BDC45700206D
:102080002DE9F047002950D0294B2A4FB7FBF1F535
:1020900099428CBF0A231123581EB5FBF3FC03FBA6
:1020A0001C53C4B22BB102280346F5D80020BDE86A
:1020B000F0870CF1FF36B6F5806FF7D2C4EBC40E93
:1020C0000EF103034FEAE309C3F3C703A4EB0308CC
:1020D00009F1010A4FF47A755FFA88F009FB05559A
:1020E0005AFA88F8B5FBF8F5B5F5617FC1BF0EF176
:1020F000FF33C3F3C703E01AC0B25C1C50FA84F488
:102100000CFB04F4B7FBF4F4A142CFD1013BDBB2EA
:102110000F2BCBD80138C0B20728C7D800211071C7
:1021200016809170D3700120C1E70846BFE700BF59
:102130003F420F0040787D0170B505460E464FF4D2
:102140007A746B695B6803F00103B34207D04FF404
:102150007A7002F04BF9013CF3D1204670BD0120AA
:10216000FCE7000030B54269936913F0700F16D098
:1021700000230B4C936103F1840200EB42121179AE
:102180004D0709D5890707D5416954F823508D605B
:10219000117941F0040111710133032BEBD130BDF2
:1021A0002854000873B51D46436916469A68D2073D
:1021B000044609D59A6801219960C2F34002CDE92D
:1021C00000650021FFF768FE63699A68D1050BD5A9
:1021D0009A684FF480719960C2F34022CDE900659E
:1021E00001212046FFF758FE63699A68D2030BD598
:1021F0009A684FF480319960C2F34042CDE900659E
:1022000002212046FFF748FE204602B0BDE870409C
:10221000FFF7A8BF0C4B10B51C561B5C012B11D847
:1022200000F0FEFC50EA0103024602D0421E61F1BA
:102230000001064B53F8240020B1BDE810400B46C6
:10224000FFF7B0BF10BD00BF1C540008BC570020F2
:10225000F8B50446466900296CD106F10C073868C8
:1022600080076AD006EB01153868D5F8B00110F088
:10227000040FD5F8B0011ABFC00840F00040400D6F
:10228000A061D5F8B0C11CF0020F1CBF40F0804027
:10229000A061D5F8B40106EB011100F00F0084F83D
:1022A0002400D1F8B8012077D1F8B801000A60778E
:1022B000D1F8B801000CA077D1F8B801000EE07792
:1022C000D1F8BC0184F82000D1F8BC01000A84F8E0
:1022D0002100D1F8BC01000C84F82200D1F8BC1117
:1022E000090E84F823103821396004F1340004F118
:1022F000180104F1240551F8046B40F8046BA9425D
:10230000F9D109880180C4E90A23214600232386E4
:1023100051F8283B20461B6C984704F58052204614
:1023200092F8C83043F0040382F8C830BDE8F840A2
:10233000FFF718BF06F1100791E7F8BD0D4B70B518
:102340001D561B5C012B0C4612D800F069FC02469E
:102350000B4652EA030102D0013A63F10003064939
:1023600051F8250020B12146BDE87040FFF770BF4D
:1023700070BD00BF1C540008BC570020F8B500F524
:1023800083511E46FFF7A6FCDFF844C00831002445
:1023900004F1840500EB45152B795F070ED4DB06AD
:1023A0000CD5D1E900739742B34107D243695CF879
:1023B00024709F602B7943F004032B710134032CAC
:1023C00001F12001E4D1BDE8F840FFF789BC00BF6E
:1023D0002854000808B5FFF77DFCFFF7C3FEBDE8F1
:1023E0000840FFF77DBC0000F8B5436905469868D2
:1023F00000F0E050B0F1E05F0F461FD0E8B1FFF70A
:1024000069FC05F583541034002606F1840305EBBE
:1024100043131B791A0706D50136032E04F1200455
:10242000F3D1012007E05B07F6D42146384600F0DF
:102430004DFA0028F0D1FFF753FCF8BD0120FCE76E
:1024400000F5805008B5FFF745FCC06D00F080FA3C
:10245000FFF746FC43090CBF0120002008BD000027
:10246000F8B51D46002313700F4606461446FFF7C5
:10247000E7FF80F00100387025B129463046FFF7AC
:10248000B3FF2070F8BD00002DE9B8410C46154699
:102490001F46804600F0C4FB0B462178024609B96E
:1024A000287850B14046FFF769FFFFF793FF3B469E
:1024B0002A462146FFF7D4FF0120BDE8B88100007D
:1024C00038B500F58054FFF705FC2A4D94F8C93063
:1024D000EB5CDBB1012B27D0FFF702FC94F8C8308E
:1024E000DB0746D4002944D0FFF7F4FB94F8C93049
:1024F000EB5C33B3012B31D094F8C83043F00103C7
:1025000084F8C830BDE83840FFF7EABB1A4B1A6CB4
:1025100042F000721A641A6A42F000721A621A6A71
:1025200022F000721A62D7E7134B1A6C42F08062F5
:102530001A641A6A42F080621A621A6A22F0806291
:10254000F0E70221132001F023FC0221142001F006
:102550001FFC0221152001F01BFCCDE702213F20CA
:1025600001F016FC0221402001F012FC0221412062
:10257000F1E738BD18540008003802402DE9F04753
:1025800000F5805588B095F8C930022B044688467E
:10259000164600F20381824F57F823200AB947F804
:1025A0002300D7F800A0C4F80C802674BAF1000FFD
:1025B00009D141F2D00002F017FD51468146FFF7E4
:1025C000FBFCC7F8009095F8C930012B5DD00121C4
:1025D0002046FFF775FFFFF77DFB6269136823F064
:1025E000020313606269136843F0010313606369B7
:1025F00000275F6101212046FFF772FBFFF79CFD7A
:10260000002800F08480E86D00F090F904F583590B
:10261000BA4609F10809202200216846FFF7E4FACA
:1026200002A8FFF725FCCDF818A06A4609EB0703BE
:102630000DF1180E9446BCE80300F445186059608B
:10264000624603F10803F5D1DCF80000186020377A
:102650009CF804201A71602FDDD195F8C8306FF313
:102660008203002785F8C8306A4641462046ADF807
:102670000070ADF802708DF80470FFF701FD63691A
:10268000C0B94FF400421A6011E0386803685B6B10
:102690009847014600289AD13868FFF711FF38683B
:1026A000036832465B684146984700288FD108B0DE
:1026B000BDE8F08761221A609DF802309DF8032082
:1026C0001B06120402F4702203F040731343BDF89A
:1026D0000020C2F3090213439DF804201205022EC4
:1026E00002F4E0020CBF4FF0004100211343626985
:1026F0000B43D361636913225A616269136823F043
:102700000103136039462046FFF716FD08B96369D7
:10271000B7E795F8C930002B39D16169D1F80022AB
:1027200042F00102C1F800226169D1F8002222F4CE
:102730007C5222F00E02C1F800226169D1F8002219
:1027400042F46062C1F800226269C2F81432626920
:10275000C2F8043262696FF07841C2F80C12626903
:10276000C2F840326269C2F844326269C2F8B032DB
:102770006269C2F8B432636944F20102C3F81C22F0
:102780006269D2F8003223F00103C2F8003295F8F2
:10279000C83043F0020385F8C83088E7002086E798
:1027A000BC57002008B50020FFF734FDBDE8084005
:1027B00001F0BCB908B500210846FFF7BFFDBDE830
:1027C000084001F0B3B9000008B501210020FFF76F
:1027D000B5FDBDE8084001F0A9B9000008B5012029
:1027E000FFF718FDBDE8084001F0A0B908B50021C9
:1027F0000120FFF7A3FDBDE8084001F097B90000F4
:1028000008B501210846FFF799FDBDE8084001F031
:102810008DB900000FB4002004B0704713B56C46AA
:1028200084E80600031D94E8030083E80500012006
:1028300002B010BD73B58568019155B11B885B0767
:1028400007D4D0E90036DB6B9847019AC1B2304615
:10285000A847012002B070BDF0B5866889B0054672
:102860000C465EB1BDF838305B070AD4D0E90037BA
:10287000DB6B98472246C1B23846B047012009B009
:10288000F0BD00220023CDE900230023ADF808307D
:102890000A4603AB01F10806106851681C4603C4E0
:1028A0000832B2422346F7D1106820609288A28095
:1028B00000F0B8F90423ADF808302B68CDE9000129
:1028C0001B6C694628469847D8E7000030B5036876
:1028D0000968DD0FB5EBD17F23F0604421F0604241
:1028E0004FEAD1700BD0002BB8BFA40C0029B8BFA1
:1028F000920C944202D034BF0120002030BD94429B
:1029000005D1C1F38070C3F380738342F6D1944242
:102910002CBF00200120F1E710B5037C044613B959
:10292000006802F099FB204610BD00000023BFF3B1
:102930005B8FC360BFF35B8FBFF35B8F8360BFF3BD
:102940005B8F7047BFF35B8F0068BFF35B8F70478F
:1029500070B505460C30FFF7F5FF05F10806044693
:102960003046FFF7EFFFA04206D930466D68FFF70B
:10297000E9FF2544281A70BD3046FFF7E3FF201A0F
:10298000F9E7000070B50546406898B105F1080008
:10299000FFF7D8FF05F10C0604463046FFF7D2FFDB
:1029A0008442304694BF6D680025FFF7CBFF013CA1
:1029B0002C44201A70BD000038B50C460546FFF7C0
:1029C000C7FFA04210D305F10800FFF7BBFF044486
:1029D0006868B4FBF0F100FB1144BFF35B8F01208A
:1029E000AC60BFF35B8F38BD0020FCE72DE9F04100
:1029F000144607460D46FFF7C5FF844228BF04462C
:102A0000D4B1B84658F80C6B4046FFF79BFF3044F2
:102A1000286040467E68FFF795FF331A9C4203D832
:102A20006C600120BDE8F0816B60A41B3B68AB606B
:102A30002044E8600220F5E72046F3E738B50C466D
:102A40000546FFF79FFFA04210D305F10C00FFF7EA
:102A500079FF04446868B4FBF0F100FB1144BFF354
:102A60005B8F0120EC60BFF35B8F38BD0020FCE77B
:102A70002DE9FF41884669460746FFF7B7FF6C46D8
:102A800006B204EBC6060025B44209D0626820688D
:102A900008EB0501FFF796F8636808341D44F3E777
:102AA00029463846FFF7CAFF284604B0BDE8F08142
:102AB000F8B505460C300F46FFF744FF05F1080650
:102AC00004463046FFF73EFFA042304688BF6C68A0
:102AD000FFF738FF201A386020B130462C68FFF726
:102AE00031FF2044F8BD000073B5144606460D467C
:102AF000FFF72EFF844228BF04460190DCB101A9F4
:102B00003046FFF7D5FF019B33B93268C5E9023380
:102B1000C5E9002401200CE09C4238BF01942860E4
:102B2000019868608442F5D93368AB60241AEC6080
:102B3000022002B070BD2046FBE700002DE9FF41F6
:102B40000F466946FFF7D0FF6C4600B204EBC005A4
:102B50000026AC4209D0D4F8048054F8081BB819F8
:102B60004246FFF72FF84644F3E7304604B0BDE88D
:102B7000F081000038B50546FFF7E0FF0446014646
:102B80002846FFF719FF204638BD000000B59BB06E
:102B9000EFF3098168226846FFF714F8EFF3058325
:102BA000044B9A6BDA6A9A6A9A6A9A6A9A6A9A6A79
:102BB0009B6AFEE700ED00E000B59BB0EFF30981F2
:102BC00068226846FEF7FEFFEFF30583044B9A6B1D
:102BD0009A6A9A6A9A6A9A6A9A6A9B6AFEE700BF38
:102BE00000ED00E000B59BB0EFF309816822684674
:102BF000FEF7E8FFEFF30583034B5A6B9A6A9A6A74
:102C00009A6A9A6A9B6AFEE700ED00E0FEE7000020
:102C10000FB408B5029801F083FBFEE701F044BE53
:102C200001F01CBE01F01ABE30B5094D0A449142B4
:102C30000DD011F8013B5840082340F30004013B3C
:102C40002C4013F0FF0384EA5000F6D1EFE730BDCB
:102C50002083B8EDF7B54FF0FF33DFF854C0DFF84D
:102C600054E000EB81011A4688421CD050F8044B16
:102C7000019401AF042417F8015B82EA056208257C
:102C8000DB18164605F1FF355241002EBCBF83EA22
:102C90000C0382EA0E0215F0FF05F1D1013C14F09D
:102CA000FF04E8D1E0E7D843D14303B0F0BD00BF53
:102CB0009336EAA9EBE1F0422DE9F041C56915B977
:102CC000C161BDE8F0814B6823F06047C3F38A46D9
:102CD0004FEAD37EC3F3807816EA230638BF3E4618
:102CE000AC462B465A68BEEBD27F22F060440AD035
:102CF000002A18DAA40CB44217D19D420FD10D60FE
:102D0000DEE71346EEE7A74207D102F08044C2F3A4
:102D1000807242450BD054B1EFE708D2EDE7CCF812
:102D200000100B60CDE7B44201D0B442E5D81A6878
:102D30009C46002AE5D11960C3E700002DE9F04761
:102D4000089D01F007044FEAD508224405F0070565
:102D500000EBD1004FF47F49944201D1BDE8F087E8
:102D600004F0070705F0070A57453E4638BF5646A8
:102D7000C6F10806111B8E4228BF0E46E10808EB7B
:102D8000D50E415C13F80EC0B94029FA06F721FAB6
:102D90000AF1FFB28CEA010147FA0AF739408CEADE
:102DA000010C03F80EC034443544D5E780EA012015
:102DB000082341F2210201B24000002980B203F150
:102DC000FF33B8BF504013F0FF03F4D17047000049
:102DD00038B50C468D18A54200D138BD14F8011B3A
:102DE000FFF7E4FFF7E7000002684AB113680360E9
:102DF000C388018901339BB29942C38038BF0381E4
:102E00001046704770B588B0202204460D466846CB
:102E10000021FEF7E9FE20460495FFF7E5FF024694
:102E200058B16B46054608AE1C4603CCB442286038
:102E30006960234605F10805F6D1104608B070BD5B
:102E4000082817D909280CD00A280CD00B280CD038
:102E50000C280CD00D280CD00E2814BF4020302098
:102E600070470C20704710207047142070471820BE
:102E70007047202070470000082817D90C280CD96B
:102E800010280CD914280CD918280CD920280CD9B2
:102E900030288CBF0F200E207047092070470A2071
:102EA00070470B2070470C2070470D2070470000C2
:102EB00010B54B6823B9CA8A63F30902CA8210BDF0
:102EC000C4681A681C60C360438A013B43824A603D
:102ED000EFE700002DE9F84F1D46CB8A0F46C3F3FC
:102EE00009010629814692460B4630D00020AAB23D
:102EF00007F119049EB2052E1FFA80F80FD89045ED
:102F000003F1010306D3FB8A0A4462F30903FB823F
:102F100001201AE01AF80060E6540130EAE7904513
:102F2000F1D2A1F1060B1C237C68BBFBF3F203FB7F
:102F300012BB1FFA8BF6002C45D14846FFF754FF11
:102F4000044638B978606FF00200BDE8F88F4FF0A2
:102F50000008E6E7002606607860ADB24FF0000B8F
:102F6000454510D90AEB0803221D13F8011B9155A2
:102F7000B1B208F101081B291FFA88F82BD045458A
:102F800006F10106F1D8FB8AC3F30902154465F383
:102F90000903BCE7013292B21C462368002BF9D129
:102FA000AB1F0B441C21B3FBF1F301339BB29A42DC
:102FB000D3D2BBF1000FD0D14846FFF715FF20B99F
:102FC000C4F800B0BFE70122E7E7C0F800B05E46F2
:102FD00020600446C1E74545D5D94846FFF704FFC0
:102FE00008B92060AFE7C0F800B0002620600446B2
:102FF000B6E700002DE9F04F2DED028B83B0CDE94F
:103000000013BDF83C5007469146002A00F092801C
:103010002DB10E9B002B00F08D80072D32D807F1CB
:103020000C00FFF7E1FE044638B96FF002042046B9
:1030300003B0BDEC028BBDE8F08F14220021FEF737
:10304000D3FD0E992A4604F10800FEF7BBFD681C6B
:10305000C0B2FFF711FFFFF7F3FE207499F80030BC
:10306000013814FA80F003F01F0363F03F0303728A
:10307000009B43F00041616038462146FFF71CFE8B
:103080000124D4E700F10C034FF0000808EE103AD9
:103090004FF0800A4646444618EE100AFFF7A4FE99
:1030A00083460028C1D014220021FEF79DFDC6BB37
:1030B000019BABF8083002200E9B00F10802991921
:1030C0005BFA82F20130C0B2082801D0AE422AD3A6
:1030D000FFF7D2FEFFF7B4FE99F80020009B411ED7
:1030E00002F01F0242EA4812AE4208BF4FF0400A07
:1030F0005BFA81F14AEA020A43F0004281F808A033
:103100008BF81000CBF8042059463846FFF7D4FD61
:103110000134AE4224B288F001084FF0000ABBD15E
:1031200085E70020C8E711F801CB02F801CB013692
:10313000B6B2C7E76FF0010479E70000F8B51546AD
:103140000E462822002104461F46FEF74DFD069B31
:103150006360B5F5001F079BA76034BF6A094FF68F
:10316000FF72236204F10C0097B200239A4205D843
:103170000023036027826382A382F8BD06600133C7
:1031800030462036F2E7000003781BB94BB2002B23
:10319000C8BF017070470000007870472DE9F74FF5
:1031A000DDF83C90BDF830500D9E9DF83840BDF8DC
:1031B0004070804692469B46B9F1000F01D1002F26
:1031C00051D11F2C4FD898F80000B0B9072F47D81D
:1031D00035F0030347D13A4649464FF6FF70FFF7F3
:1031E000F7FD20F001002D02400445EA0464400C84
:1031F00044EA40244FF6FF7321E040EA0520072F00
:1032000040EA0464F6D900254FF6FF73C5F12000AB
:10321000A5F120022AFA05F10BFA00F001432BFA7E
:1032200002F211431846C9B2FFF7C0FD0835402D20
:103230000346EBD13A464946FFF7CAFD0346CDE9BE
:103240000097324621464046FFF7D4FE33780133DB
:10325000DBB21F2B88BF0023337003B0BDE8F08FB3
:103260006FF00300F9E76FF00100F6E72DE9F04F8A
:1032700085B09246DDF848800F9D9DF840209DF86E
:103280004490BDF84C7006469B46B8F1000F01D142
:10329000002F48D11F2A46D83378002B46D00C0285
:1032A00044EA02649DF8381044EAC93444EA01440F
:1032B0001C43072F44F0800432D900234FF6FF72DD
:1032C000C3F1200CA3F120002AFA03F10BFA0CFC45
:1032D00041EA0C012BFA00F00143C9B210460393F6
:1032E000FFF764FD039B0833402B0246E8D13A46C2
:1032F0004146FFF76DFD0346CDE900872A4621468A
:103300003046FFF777FEB9F1010F06D12B78013374
:10331000DBB21F2B88BF00232B7005B0BDE8F08FF8
:103320004FF6FF73E8E76FF00100F6E76FF0030078
:10333000F3E70000C06900B104307047C3691A6840
:10334000C261C2681A60C360438A013B438270470E
:103350002DE9F041D0F81880194E14461D4641461B
:10336000002709B9BDE8F081D1E90223A21A65EB73
:103370000303964277EB03031ED283698B420DD180
:10338000FFF796FD83691B688361C3680B60438AFE
:10339000C1608169013B43828846E2E7FFF788FD0F
:1033A0000B68C8F80030C3680B60438AC160013BFA
:1033B0004382D8F80010D4E788460968D1E700BFF7
:1033C00080841E002DE9F04F8BB00D46DDF8509043
:1033D00014469B468046002800F01981B9F1000F81
:1033E00000F01581531E3F2B00F21181012A03D1F9
:1033F000BBF1000F40F00B810023CDE90833B8F892
:103400001430B5EBC30F4FEAC30703D300200BB052
:10341000BDE8F08F2B199F42D8F80C303ABF7F1BC4
:10342000FFB227461BB9D8F81030002B7AD02F2DC9
:103430004ED8C5F13006B7424FF000032CBFF6B2AC
:103440003E4600932946D8F8080008AB3246FFF7FD
:1034500075FCA7EB060A35445FFA8AFAB8F814300F
:1034600003F10053063BDB000493D8F80C300393C0
:103470003021039B13B1BAF1000F2CD1D8F8100002
:1034800040B1BAF1000F05D0009608AB5246691A58
:10349000FFF754FC38B2002FB8D066070AD00AAB49
:1034A00003EBD401624211F8083C02F00702134119
:1034B00001F8083C082C3CD9102C40F2B580202C97
:1034C00040F2B780BBF1000F00F09C80082334E08D
:1034D000BA460026C2E7049BE02B28BFE0230693F0
:1034E0000B44AB42059314D95A1B0398009692459E
:1034F00034BF5246D2B2691A08AB04300792FFF7C4
:103500001DFC079A1644AAEB020A1544F6B25FFAAC
:103510008AFA049B069A05999B1A0493039B1B68DD
:103520000393A6E70093D8F8080008AB3A4629466B
:10353000AEE7BBF1000F13D00123B4EBC30F6CD087
:10354000082C12D89DF82030621E23FA02F2D5070B
:1035500006D54FF0FF3202FA04F423438DF82030F1
:103560009DF8203089F8003051E7102C12D8BDF8B2
:103570002030621E23FA02F2D10706D54FF0FF3247
:1035800002FA04F42343ADF82030BDF82030A9F846
:1035900000303CE7202C0FD80899631E21FA03F372
:1035A000DA0705D54FF0FF3202FA04F40C43089411
:1035B000089BC9F800302AE7402C2BD0DDE90865CC
:1035C000611EC4F12102A4F1210326FA01F105FADA
:1035D00002F225FA03F311431943CB0712D5012256
:1035E000A4F12003C4F1200102FA03F322FA01F14D
:1035F000A240524243EA010363EB430332432B43AD
:10360000CDE90823DDE90823C9E90023FFE66FF0CF
:103610000100FCE66FF00800F9E6082CA0D9102C98
:10362000B3D9202CEED8C3E7BBF1000FADD00223F5
:1036300083E7BBF1000FBBD004237EE730B5012A3E
:10364000144638BF0124402C85B028BF40240025F3
:10365000012ACDE9025518D81B788DF80830630788
:103660000AD004AB03EBD405624215F8083C02F023
:103670000702934005F8083C0091034622460021CA
:1036800002A8FFF75BFB05B030BD082AE4D9102A79
:1036900003D81B88ADF80830E1E7202A8DBFD3E9B5
:1036A00000231B680293CDE90223D8E710B5CB684D
:1036B0001BB98B600B618B8210BDC4681A681C60DB
:1036C000C360438A013B4382CA60F0E72DE9F04FB3
:1036D000D1F8008093B018F0800FCDE90323C8F330
:1036E000C01219BFC8F3C03BC8F306264FF0020B47
:1036F0001646B8F1000F04460D4680F2D18118F04D
:10370000C043059340F0CC810B7B002B00F0C881B7
:10371000BBF1020F03D00178B14240F0C48108F040
:103720007F0106916AB3C8F3074A2B44069A93F8BF
:103730000390760646EA0B4646EA82465FEAD913CC
:1037400046EA0A06079300F0908000220023CDE9A4
:103750000A23069B009367685B4652460AA92046E7
:10376000B84700287ED0A7699FB9314604F10C0004
:10377000FFF748FB0746E0B96FF0020013B0BDE861
:10378000F08FC8F30F2A18F07F0F08BF0AF0030A62
:10379000CBE73B699E420DD03F68002FF9D13146FF
:1037A00004F10C00FFF72EFB07460028E4D0A369C4
:1037B0003B60A761DDE90A2300264FF6FF70C6F1E2
:1037C000200E22FA06F103FA0EFEA6F1200C23FACF
:1037D0000CFC41EA0E0141EA0C01C9B2083609921B
:1037E0000893FFF7E3FA402EDDE90832E7D1B8820B
:1037F000FB7D09F01F06C3F384039B1BD7E902215D
:1038000098B2002BBCBF00F120031BB252EA0100AA
:10381000C8F304680FD00398821A049860EB010182
:10382000A74890424FF000028A4104D3079A002A29
:103830005BD0012B23DDFA7D4FEA890302F00302FE
:1038400003F07C031343FB7539462046FFF730FB3A
:10385000079BA3B9FB7DC3F38402013262F38603A5
:10386000FB7504E06FF00B0088E7A76917B96FF0EC
:103870000C0083E73B699E42BAD03F68F6E719F037
:10388000400F32D0039BBB60049BFB6014220021DD
:103890000DA8FEF7A9F9039B0A93049B0B932B1D1C
:1038A0000C932B7BADF83EA0013BDBB2ADF83C3076
:1038B000069B8DF8433094F824308DF840B083F0A7
:1038C00001038DF844308DF84160A3688DF8428083
:1038D0000AA920469847FB7DC3F38403013303F014
:1038E0001F039B02FB82002048E7FB7DC9F34012C7
:1038F000B2EBD31F40F0DA80C3F38403B34240F04D
:10390000D88007992B7B4FEA9912002934D0D2072F
:1039100041D4032B40F2D080039BBB60049BFB602F
:103920002B7BAE1D033BDBB23246394604F10C0063
:10393000FFF7D0FA00280DDA20463946FFF7B8FA2B
:10394000FB7DC3F38403013303F01F039B02FB825F
:10395000032013E7AB883B832A7B033AB88AD2B2B1
:103960003146FFF735FAFB7DB882DA43C2F3C01265
:1039700062F3C713FB75B6E76AB92E1D013BDBB2D4
:103980003246394604F10C00FFF7A4FA0028D3DBD5
:103990002A7B013AE2E7F98AC1F30901013B0529D3
:1039A000DAB259D8281D002307F11A0C9A4208D917
:1039B00010F801EB0CF801E0013101330629DBB20C
:1039C000F4D103990A9104990B91934207F11A01DA
:1039D0000C9138BF043379680D9134BF55FA83F3E5
:1039E00000230E93FB8AADF83EA0C3F309031A44EB
:1039F000069B8DF8433094F82430ADF83C2083F0DA
:103A000001038DF8443000238DF840B08DF84160FB
:103A10008DF842807B602A7BB88A013A291DFFF726
:103A2000D7F93B8BB882834203D1A3680AA9204609
:103A3000984720460AA9FFF739FEFB7DB88AC3F3F1
:103A40008403013303F01F039B02FB823B8B9842EC
:103A500014BF1120002091E67B68002BB1D0062016
:103A600001E01C306346D3F800C0BCF1000FF8D170
:103A7000091A081D05F1040C00EB030905989DF8CF
:103A8000143001EB000EBEF11B0F9AD89A4298D960
:103A90001CF8013B09F8013B059B01330593EDE759
:103AA0006FF009006AE66FF00A0067E66FF00D003C
:103AB00064E66FF00E0061E66FF00F005EE600BF97
:103AC00080841E00EFF3098305494A6B22F001024E
:103AD0004A63683383F30988002383F311887047AE
:103AE00000EF00E0202080F3118862B60C4B0D4AF5
:103AF000D96821F4E0610904090C0A43DA60D3F8BB
:103B0000FC20094942F08072C3F8FC200A6842F0A8
:103B100001020A601022DA7783F82200704700BFA2
:103B200000ED00E00003FA05001000E010B52023CE
:103B300083F311880E4B5B6813F4006314D0F1EE2D
:103B4000103AEFF30984683C4FF08073E361094B4E
:103B5000DB6B236684F3098800F094FB10B1064BFD
:103B6000A36110BD054BFBE783F31188F9E700BFA4
:103B700000ED00E000EF00E04B0600084E060008F4
:103B8000024AD36843F0C003D3607047004400404A
:103B9000044B5A6810439A6858600AB1181D1047C0
:103BA000704700BFCC5700202DE9F0413C4ED6F8BD
:103BB0005C52EF682B68DA059CB20CD5202383F3A6
:103BC00011884FF40070FFF7E3FF6FF480732B60F0
:103BD000002383F31188202383F31188DFF8C0804A
:103BE00014F02F0339D183F31188380613D5210639
:103BF00011D5202383F311882A4800F0EFF900281B
:103C00004CDA0820FFF7C4FF4FF67F733B40EB60B0
:103C1000002383F311887A0615D5630613D5202374
:103C200083F31188D6E913239A4209D1336C3BB14F
:103C300027F040073F0410203F0CFFF7A9FFEF607B
:103C4000002383F31188D6F86422D3680BB110697E
:103C50009847BDE8F041FFF769BF230712D014F081
:103C6000080F0CBF00208020E10748BF40F0200073
:103C7000A20748BF40F04000630748BF40F480708F
:103C8000FFF786FFA4066B6805D596F860124046DC
:103C9000194000F053FA2C68A4B2A1E76860B7E7B6
:103CA000CC5700200458002010B5054C054A0021CF
:103CB000204600F013FA044BC4F85C3210BD00BF7C
:103CC000CC570020813B00080044004038B52A4C06
:103CD000037C002918BF0C46012B0546C0F864423E
:103CE00010D1264B98420DD1254B1A6C42F400326C
:103CF0001A641A6E42F400321A660B2126201B6EDB
:103D000000F046F8D5F85C221E4923688A424FEA43
:103D1000530003D001F580618A422AD11A49014437
:103D2000B4F90400B1FBF3F30028BEBF23F0070091
:103D300003F0070343EA4003A1889360E38843F05C
:103D400040031361238943F00103536141F4045399
:103D500043F02C03D36001F4A05100231360B1F5AC
:103D6000806F136853680CBF7F23FF2385F8603290
:103D700038BD0649D3E700BF80540008CC57002067
:103D8000003802400010014080F0FA0240787D01C6
:103D900000F1604303F561430901C9B283F80013E0
:103DA000012200F01F039A4043099B0003F1604386
:103DB00003F56143C3F880211A607047F8B51546D2
:103DC00082680669AA420B46816938BF8568761AFF
:103DD000B54204460BD218462A46FDF7F3FEA36906
:103DE0002B44A361A3685B1BA3602846F8BD0CD9D4
:103DF00018463246FDF7E6FEAF1BE1683A4630440E
:103E0000FDF7E0FEE3683B44EBE718462A46FDF782
:103E1000D9FEE368E5E7000083689342F7B51546ED
:103E2000044638BF8568D0E90460361AB5420BD223
:103E30002A46FDF7C7FE63692B446361A3682846E1
:103E40005B1BA36003B0F0BD0DD932460191FDF7B5
:103E5000B9FE0199E068AF1B3A463144FDF7B2FE66
:103E6000E3683B44E9E72A46FDF7ACFEE368E4E794
:103E700010B50A440024C361029B8460C0E90000BD
:103E8000C0E90511C1600261036210BD08B5D0E947
:103E90000532934201D1826882B982680132826020
:103EA0005A1C42611970D0E904329A4224BFC36897
:103EB0004361002100F0B6FA002008BD4FF0FF304A
:103EC000FBE7000070B5202304460E4683F31188FB
:103ED000A568A5B1A368A269013BA360531CA361B7
:103EE00015782269934224BFE368A361E3690BB1AB
:103EF00020469847002383F31188284607E031467F
:103F0000204600F07FFA0028E2DA85F3118870BDC0
:103F10002DE9F74F04460E4617469846D0F81C90F8
:103F20004FF0200A8AF311884FF0000B154665B157
:103F30002A4631462046FFF741FF034660B9414615
:103F4000204600F05FFA0028F1D0002383F31188A7
:103F5000781B03B0BDE8F08FB9F1000F03D00190DA
:103F60002046C847019B8BF31188ED1A1E448AF343
:103F70001188DCE7C0E90511C160C3611144009BF1
:103F80008260C0E90000016103627047F8B5044631
:103F90000D461646202383F31188A768A7B1A368AE
:103FA000013BA36063695A1C62611D70D4E904324D
:103FB0009A4224BFE3686361E3690BB120469847E6
:103FC000002080F3118807E03146204600F01AFAFD
:103FD0000028E2DA87F31188F8BD0000D0E9052354
:103FE0009A4210B501D182687AB982680132826042
:103FF0005A1C82611C7803699A4224BFC36883619A
:10400000002100F00FFA204610BD4FF0FF30FBE713
:104010002DE9F74F04460E4617469846D0F81C90F7
:104020004FF0200A8AF311884FF0000B154665B156
:104030002A4631462046FFF7EFFE034660B9414667
:10404000204600F0DFF90028F1D0002383F3118827
:10405000781B03B0BDE8F08FB9F1000F03D00190D9
:104060002046C847019B8BF31188ED1A1E448AF342
:104070001188DCE7026843681143016003B1184707
:10408000704700001430FFF743BF00004FF0FF33CC
:104090001430FFF73DBF00003830FFF7B9BF000014
:1040A0004FF0FF333830FFF7B3BF00001430FFF795
:1040B00009BF00004FF0FF311430FFF703BF0000CD
:1040C0003830FFF763BF00004FF0FF323830FFF7A2
:1040D0005DBF000000207047FFF7E6BD37B515460D
:1040E0000E4A026000224260C0E902220122044618
:1040F00002740B46009000F15C014FF480721430A2
:10410000FFF7B6FE00942B464FF4807204F5AE71B3
:1041100004F13800FFF72EFF03B030BD94540008BF
:1041200010B52023044683F31188FFF7CFFD022347
:104130002374002383F3118810BD000038B5C369D0
:1041400004460D461BB904210844FFF793FF294696
:1041500004F11400FFF79AFE002806DA201D4FF440
:104160008061BDE83840FFF785BF38BD024B0022B3
:10417000C3E900339A607047345A00200023037467
:104180008268054B1B6899689142FBD25A680360AC
:104190004260106058607047345A002008B52023F0
:1041A00083F31188037C032B05D0042B0DD02BB98E
:1041B00083F3118808BD436900221A604FF0FF3372
:1041C0004361FFF7DBFF0023F2E7D0E90032136021
:1041D0005A60F3E7002303748268054B1B689968F3
:1041E0009142FBD85A680360426010605860704783
:1041F000345A0020054B19690874186802681A605F
:104200005360186101230374FCF70ABA345A002082
:1042100030B54B1C0B4D87B0044610D02B690A4AB1
:1042200001A800F019F92046FFF7E4FF049B13B141
:1042300001A800F04DF92B69586907B030BDFFF7B0
:10424000D9FFF8E7345A00209D41000838B50C4DDD
:1042500041612B6981689A689142044603D8BDE8A0
:104260003840FFF78BBF1846FFF7B4FF01232C61DE
:10427000014623742046BDE83840FCF7D1B900BFA1
:10428000345A0020044B1A681B6990689B68984256
:1042900094BF002001207047345A002010B5084C0C
:1042A000236820691A6822605460012223611A740D
:1042B000FFF790FF01462069BDE81040FCF7B0B958
:1042C000345A002008B5FFF7DDFF18B1BDE80840FB
:1042D000FFF7E4BF08BD0000FFF7E0BFFEE7000006
:1042E00010B50C4CFFF742FF00F0A8F80A498022F5
:1042F000204600F03DF8012344F8180C0374FFF742
:10430000F1FB002383F3118862B60448BDE8104036
:1043100000F04EB85C5A0020BC540008CC54000891
:1043200008B572B6034B586200F092FA00F03AFBFF
:10433000FEE700BF345A002000F004B9EFF311800B
:1043400020B9EFF30583202282F311887047000023
:1043500010B530B9EFF30584C4F3080414B180F349
:10436000118810BDFFF7AEFF84F31188F9E7000054
:1043700082600222028270478368A3F17C0243F8C4
:104380000C2C026943F83C2C426943F8382C074A4C
:1043900043F81C2CC26843F8102C022203F8082CA6
:1043A000002203F8072CA3F1180070473906000813
:1043B00010B5202383F31188FFF7DEFF00210446A8
:1043C000FFF744FF002383F31188204610BD00004F
:1043D000024B1B6958610F20FFF70CBF345A0020B5
:1043E000202383F31188FFF7F3BF000008B50146CF
:1043F000202383F311880820FFF70AFF002383F3AB
:10440000118808BD49B1064B42681B6918605A60A3
:10441000136043600420FFF7FBBE4FF0FF3070478E
:10442000345A00200368984206D01A68026050602F
:1044300059611846FFF7A2BE70470000054B03F113
:104440001402C3E905224FF0FF310022C3E907122D
:10445000704700BF345A002070B51C4EC0E90323DA
:1044600005460C4600F020FB334653F8142F9A42C1
:104470000DD13062C5E901242A600A2C2CBF001935
:104480000A30C6E90555BDE8704000F0FBBA316A54
:10449000431AE31838BF1C469368A34202D908198F
:1044A00000F0FEFA73699A6894420CD85A68AC60BE
:1044B0002B606A6015609A685D60121B9A604FF00D
:1044C000FF33F36170BD1B68A41AECE7345A002077
:1044D00038B51B4C636998420DD0D0E900321360A7
:1044E0005A6000228168C2609A680A449A604FF05C
:1044F000FF33E36138BD2246036842F8143F0021D0
:1045000093425A60C16003D1BDE8384000F0C2BA9E
:104510009A688168256A0A449A6000F0C5FA63695E
:104520009A68411B8A42E5D9AB181D1A092D206AE9
:1045300098BF01F10A02BDE83840104400F0B0BA5B
:10454000345A00202DE9F041184C002704F11406DC
:10455000656900F0A9FA236AAA68C11A8A4215D8C7
:1045600013442362D5E9003213605A606369D5F8B9
:104570000C80EF60B34201D100F08CFA87F3118810
:104580002869C047202383F31188E1E76169B142BC
:1045900009D013441B1ABDE8F0410A2B2CBFC018E8
:1045A0000A3000F07DBABDE8F08100BF345A002027
:1045B0000C2303604FF0FF3070470000002070476D
:1045C000FEE70000704700004FF0FF30704700002A
:1045D000BFF34F8F024AD368DB03FCD4704700BFA0
:1045E000003C024008B5094B1B7873B9FFF7F0FF98
:1045F000074B1A69002ABFBF064A5A6002F1883287
:104600005A601A6822F480621A6008BDF05B0020CC
:10461000003C02402301674508B50B4B1B7893B95A
:10462000FFF7D6FF094B1A6942F000421A611A6877
:1046300042F480521A601A6822F480521A601A6892
:1046400042F480621A6008BDF05B0020003C02402A
:104650000728F0B516D80C4C0C4923787BB90C4DC3
:104660000E4608234FF0006255F8047B46F8042BF1
:10467000013B13F0FF033A44F6D10123237051F8B4
:104680002000F0BD0020FCE7145C0020F45B00205B
:10469000E4540008014B53F820007047E45400082C
:1046A00008207047072810B5044601D9002010BD26
:1046B000FFF7CEFF064B53F824301844C21A0BB94B
:1046C0000120F4E712680132F0D1043BF6E700BFA5
:1046D000E4540008072838B5044628D8FFF72EFE12
:1046E000FFF776FFFFF77EFF124AF323D360E30064
:1046F000DBB243F4007343F002031361136943F424
:104700008033136105462046FFF762FFFFF7A0FFE5
:10471000094B53F8241000F041F92846FFF77CFFBD
:10472000FFF716FE2046BDE83840FFF7BBBF00206C
:1047300038BD00BF003C0240E454000812F0010301
:104740002DE9F04105460E4614464BD18118334AF7
:10475000914261D8324B1B6813F001035CD0314F9A
:10476000FFF7ECFDFFF73EFFF323FB60FFF730FFA1
:10477000314640F20128032C18D824F00104294EB8
:104780000C446D1A40F20118A142336905EB010790
:104790002AD123F001033361FFF73EFFFFF7D8FD75
:1047A0000120BDE8F081043C0435E4E7AB07E4D127
:1047B0003B6923F440733B613B6943EA08033B6177
:1047C00051F8046B2E60BFF34F8FFFF701FF2B688A
:1047D0009E42E8D03B6923F001033B61FFF71CFFD9
:1047E000FFF7B6FD0020DCE723F440733361336943
:1047F00043EA080333610B883B80BFF34F8FFFF719
:10480000E7FE3F8831F8023BBFB2BB42BCD0336900
:1048100023F001033361E1E71846C2E7000008080E
:1048200000380240003C0240084908B50B7828B126
:104830001BB9FFF7D7FE01230B7008BD002BFCD07E
:10484000BDE808400870FFF7E7BE00BFF05B00203E
:104850004FF480214FF0005000F0A2B870B582B044
:10486000FFF76CFD0E4E054600F01EF932689042CF
:1048700037BF0C4A0B49516814682EBFD1E900417B
:10488000013151600419034641F1000128460191AC
:104890003360FFF75DFD0199204602B070BD00BF97
:1048A000185C0020205C002070B582B0FFF746FD48
:1048B000104E054600F0F8F83268904237BF0E4AB5
:1048C0000D49516814682EBFD1E900410131516092
:1048D000041941F100010346284601913360FFF7B6
:1048E00037FD01994FF47A7200232046FBF780FCD4
:1048F00002B070BD185C0020205C002010B502449E
:10490000064BD2B2904200D110BD441C00B253F805
:10491000200041F8040BE0B2F4E700BF502800404B
:104920000F4B30B51C6F240407D41C6F44F4007483
:104930001C671C6F44F400441C670A4C236843F452
:10494000807323600244084BD2B2904200D130BD44
:10495000441C00B251F8045B43F82050E0B2F4E785
:1049600000380240007000405028004007B5012286
:1049700001A90020FFF7C2FF019803B05DF804FB16
:1049800013B50446FFF7F2FFA04205D0012201A9AA
:1049900000200194FFF7C4FF02B010BD7047000073
:1049A0007047000070470000074B45F255521A60EF
:1049B00002225A6040F6FF729A604CF6CC421A60AE
:1049C000024B01221A707047003000402C5C00201E
:1049D000034B1B781BB1034B4AF6AA221A6070479F
:1049E0002C5C002000300040034B1A681AB9034ABF
:1049F000D2F874281A607047285C0020003002400A
:104A0000024B4FF08072C3F87428704700300240A8
:104A100008B5FFF7E9FF024B1868C0F3407008BD06
:104A2000285C002008B5FFF7DFFF024B1868C0F3D1
:104A3000007008BD285C002070470000FEE7000001
:104A40000A4B0B480B4A90420BD30B4BDA1C121A41
:104A5000C11E22F003028B4238BF00220021FDF765
:104A6000C3B853F8041B40F8041BECE77456000865
:104A7000C45C0020C45C0020C45C002070470000BF
:104A800000F080B84FF08043002258631A61022280
:104A9000DA6070474FF080430022DA607047000010
:104AA0004FF08043586370474FF08043586A704717
:104AB0004B6843608B688360CB68C3600B6943615C
:104AC0004B6903628B6943620B68036070470000A7
:104AD00008B5234B23481A6942F0FF021A611A698C
:104AE00022F0FF021A611A691A6B42F0FF021A6380
:104AF0001A6D42F0FF021A651B4A1B6D1146FFF743
:104B0000D7FF02F11C0100F58060FFF7D1FF02F131
:104B1000380100F58060FFF7CBFF02F1540100F58A
:104B20008060FFF7C5FF02F1700100F58060FFF7BC
:104B3000BFFF02F18C0100F58060FFF7B9FF02F1C1
:104B4000A80100F58060FFF7B3FF02F1C40100F592
:104B50008060FFF7ADFFBDE8084000F097B800BFE8
:104B600000380240000002400455000808B500F07B
:104B700017FAFFF7B5FBBDE80840FFF735BF0000A7
:104B800070470000104B1A6C42F001021A641A6E52
:104B900042F001021A660D4A1B6E936843F001034E
:104BA00093604FF0804331229A624FF0FF32DA6215
:104BB00000229A615A63DA605A6001225A61082120
:104BC0001A601C20FFF7E4B800380240002004E01F
:104BD0004FF0804208B51169D3680B40D9B2C94380
:104BE0009B07116107D5202383F31188FFF7A4FBEE
:104BF000002383F3118808BD08B5FFF7E9FFBDE87E
:104C00000840FEF793BF00001E4B1A6962F0FF02D6
:104C10001A611A69D2B21A614FF0FF301A695A69E3
:104C2000586100215A6959615A691A6A62F08052C2
:104C30001A621A6A02F080521A621A6A5A6A586232
:104C40005A6A59625A6A1A6C42F080521A641A6E91
:104C500042F080521A661A6E0B4A106840F4807057
:104C60001060186F00F44070B0F5007F1EBF4FF465
:104C7000803018671967536823F40073536000F09D
:104C80006FB900BF00380240007000403B4B3C4A07
:104C90001A643C4A4FF4404111601A6842F0010224
:104CA0001A601A689007FCD59A6822F003029A608D
:104CB000324B9A6812F00C02FBD1196801F0F9012D
:104CC00019609A601A6842F480321A601A68910377
:104CD000FCD55A6F42F001025A67284B5A6F92076F
:104CE000FCD5294A5A601A6842F080721A60254A37
:104CF00053685804FCD5214B1A689101FCD5234A0E
:104D0000C3F884201A6842F080621A601A6812019F
:104D1000FCD51F4A9A600322C3F88C204FF0006232
:104D2000C3F894201B4B1A681B4B9A421B4B21D192
:104D30001B4A11681B4A91421CD140F203121A60AF
:104D4000164A136803F00F03032BFAD10B4B9A6832
:104D500042F002029A609A6802F00C02082AFAD124
:104D60005A6C42F480425A645A6E42F480425A6647
:104D70005B6E704740F20372E1E700BF003802400B
:104D80000004001000700040081940021030002498
:104D900000948838002004E011640020003C0240A8
:104DA00000ED00E041C20F41084A08B5516913689F
:104DB0000B4003F00103536123B1054A13680BB1A3
:104DC00050689847BDE80840FEF7B0BE003C01407F
:104DD000305C0020084A08B5516913680B4003F0A5
:104DE0000203536123B1054A93680BB1D068984719
:104DF000BDE80840FEF79ABE003C0140305C002050
:104E0000084A08B5516913680B4003F00403536165
:104E100023B1054A13690BB150699847BDE80840B2
:104E2000FEF784BE003C0140305C0020084A08B513
:104E3000516913680B4003F00803536123B1054A1D
:104E400093690BB1D0699847BDE80840FEF76EBE84
:104E5000003C0140305C0020084A08B551691368E5
:104E60000B4003F01003536123B1054A136A0BB1E1
:104E7000506A9847BDE80840FEF758BE003C014024
:104E8000305C0020174B10B55A691C68144004F4BC
:104E900078725A61A30604D5134A936A0BB1D06A9B
:104EA0009847600604D5104A136B0BB1506B9847B6
:104EB000210604D50C4A936B0BB1D06B9847E205E1
:104EC00004D5094A136C0BB1506C9847A30504D55F
:104ED000054A936C0BB1D06C9847BDE81040FEF7C3
:104EE00025BE00BF003C0140305C00201A4B10B5CD
:104EF0005A691C68144004F47C425A61620504D566
:104F0000164A136D0BB1506D9847230504D5134A0B
:104F1000936D0BB1D06D9847E00404D50F4A136E22
:104F20000BB1506E9847A10404D50C4A936E0BB197
:104F3000D06E9847620404D5084A136F0BB1506FC6
:104F40009847230404D5054A936F0BB1D06F984757
:104F5000BDE81040FEF7EABD003C0140305C002097
:104F6000062108B50846FEF713FF06210720FEF7C5
:104F70000FFF06210820FEF70BFF06210920FEF790
:104F800007FF06210A20FEF703FF06211720FEF780
:104F9000FFFEBDE8084006212820FEF7F9BE00000C
:104FA00008B5FFF731FE00F009F8FFF795F8FFF7B5
:104FB000E7FDBDE80840FFF763BD00000023054A98
:104FC00019460133102BC2E9001102F10802F8D191
:104FD000704700BF305C00200B460146184600F0C9
:104FE00025B8000000F038B8012838BF012010B5FE
:104FF0000446204600F028F830B900F007F808B958
:1050000000F00CF88047F4E710BD0000024B186870
:10501000BFF35B8F704700BFB05C002008B506206F
:1050200000F032F90120FFF7CBFA000010B5054C73
:1050300013462CB10A4601460220AFF3008010BD92
:105040002046FCE700000000024B0146186800F013
:1050500089B800BF20230020024B0146186800F0E9
:1050600035B800BF2023002010B50139024490421A
:1050700001D1002005E0037811F8014FA34201D0CF
:10508000181B10BD0130F2E72DE9F041A3B1C91A98
:1050900017780144044603F1FF3C8C42204601D9B5
:1050A000002009E00578BD4204F10104F5D10CEBC4
:1050B0000405D618A54201D1BDE8F08115F8018D8F
:1050C00016F801EDF045F5D0E7E7000037B5002907
:1050D00044D051F8043C0190002BA1F10404B8BF66
:1050E000E41800F0F5F81E4A0198136833B96360BC
:1050F000146003B0BDE8304000F0F0B8A34208D916
:10510000256861198B4201BF19685B6849192160E4
:10511000EDE71A465B680BB1A342FAD9116855183E
:10512000A5420BD1246821445418A3421160E0D158
:105130001C685B68536021441160DAE702D90C23D4
:105140000360D6E7256861198B4204BF19685B6864
:10515000636004BF491921605460CAE703B030BDE1
:10516000B45C0020F8B5CD1C25F0030508350C2DE6
:1051700038BF0C25002D064601DBA94203D90C23BC
:1051800033600020F8BD00F0A3F821490A681446F6
:105190009CB9204F3B6823B92146304600F03CF8CB
:1051A00038602946304600F037F8431C23D10C23E1
:1051B0003360304600F092F8E3E723685B1B17D4B6
:1051C0000B2B03D923601C44256004E06368A242D2
:1051D0000CBF0B605360304600F080F804F10B0008
:1051E000231D20F00700C21ACCD01B1AA350C9E718
:1051F00022466468CCE7C41C24F00304A042E3D038
:10520000211A304600F008F80130DDD1CFE700BFA9
:10521000B45C0020B85C002038B5064D002304467D
:1052200008462B60FFF7C4F9431C02D12B6803B179
:10523000236038BDBC5C00201F2938B504460D46EC
:1052400004D9162303604FF0FF3038BD426C12B111
:1052500052F821304BB9204600F030F82A4601467A
:105260002046BDE8384000F017B8012B0AD0591C81
:1052700003D1162303600120E7E7002442F825400C
:10528000284698470020E0E7024B01461868FFF7E0
:10529000D3BF00BF2023002038B5074D00230446AC
:1052A000084611462B60FFF78FF9431C02D12B688B
:1052B00003B1236038BD00BFBC5C0020FFF77EB99E
:1052C000034611F8012B03F8012B002AF9D170478E
:1052D000014800F009B800BFC05C0020014800F0A0
:1052E00005B800BFC05C0020704700007047000098
:1052F0006F72672E6172647570696C6F742E486F7F
:105300006C7962726F475053000000004E6F20614D
:105310007070207369670A00426164206677206CB0
:10532000656E6774682025750A0042616420626FAB
:105330006172645F69642025752073686F756C64A1
:105340002062652025750A0042616420667720642A
:10535000657363726970746F72206C656E677468D0
:105360002025750A00426164206170702043524319
:10537000203078253038783A307825303878203029
:1053800078253038783A3078253038780A00476FF9
:105390006F64206669726D776172650A0040A2E4ED
:1053A000F16468910600000053544D3332463F3F8C
:1053B0003F00000053544D3332463430780053548C
:1053C0004D3332463432780053544D333246343400
:1053D0003658580000000000A85300083F000000A5
:1053E00013040000B45300083F000000190400003B
:1053F000BE5300083F00000021040000C85300080D
:105400003F0000004261642043414E49666163658C
:1054100020696E6465782E00000100000001FF0025
:105420000064004000680040800000000080000030
:10543000000080000000000000000000ED1C0008DB
:105440007D25000889240008FD1C0008351D000882
:10545000311F0008011D0008151D0008051D00086A
:10546000091D0008111D00080D1D0008591E000827
:10547000191D00081D280008291D00082D1E000800
:105480000096000000000000000000000000000086
:105490000000000000000000A14000088D4000084E
:1054A000C9400008B5400008C1400008AD400008F0
:1054B0009940000885400008D54000086D61696E7C
:1054C0000000000069646C6500000000C45400081E
:1054D000785A0020F05B002001000000DD42000847
:1054E00000000000004000000040000000400000FC
:1054F0000040000000000100000002000000020067
:1055000000000200A001812A00000000AAA9AAAAA6
:1055100050000124EFFF0000007700000090090018
:105520001000004A000000009AAAAAAA0000000089
:10553000FBFF0000000000000000990000000000D8
:1055400000000000AAAAAAAA00000000FFFF0000B5
:10555000000000000000000000000000000000004B
:10556000AAAAAAAA00000000FFFF00000000000095
:10557000000000000000000000000000AAAAAAAA83
:1055800000000000FFFF000000000000000000001D
:105590000000000000000000AAAAAAAA0000000063
:1055A000FFFF0000000000000000000000000000FD
:1055B00000000000AAAAAAAA00000000FFFF000045
:1055C00000000000000000000000000000000000DB
:1055D0000A000000000000000300000000000000BE
:1055E000000000003CACFF7F010000000000000054
:1055F0000B04000000000000000007000000000095
:1056000040420F00FE2A0100D2040000FF0000000B
:105610002423002000000000000000000000000023
:10562000000000000000000000000000000000007A
:10563000000000000000000000000000000000006A
:10564000000000000000000000000000000000005A
:10565000000000000000000000000000000000004A
:10566000000000000000000000000000000000003A
:045670000000000036
:00000001FF
