:020000040800F2
:1000000000090020B5040008E5290008652900085A
:10001000BD2900086529000891290008B7040008D7
:10002000B7040008B7040008B7040008393800080E
:10003000B7040008B7040008B7040008B7040008B4
:10004000B7040008B7040008B7040008B7040008A4
:10005000B7040008B7040008714B0008994B00086A
:10006000C14B0008E94B0008114C0008B704000818
:10007000B7040008B7040008B7040008B704000874
:10008000B7040008B7040008B7040008A125000859
:10009000CD250008DD250008B7040008394C00080C
:1000A000B7040008B7040008B7040008B704000844
:1000B000494D0008B7040008B7040008B704000859
:1000C000B7040008B7040008B7040008B704000824
:1000D000B70400080D4D0008214D0008354D0008FB
:1000E0009D4C0008B7040008B7040008B7040008D6
:1000F000B7040008B7040008B7040008B7040008F4
:10010000B7040008B7040008B7040008B7040008E3
:10011000B7040008B7040008B7040008B7040008D3
:10012000B7040008B7040008B7040008B7040008C3
:10013000B7040008B7040008B7040008B7040008B3
:10014000B7040008B7040008B7040008B7040008A3
:10015000B7040008B7040008B7040008B704000893
:10016000B7040008B7040008B7040008B704000883
:10017000B7040008B7040008B7040008B704000873
:10018000B7040008B7040008B7040008B704000863
:10019000B7040008B7040008B7040008B704000853
:1001A000051800080000000000000000000000002A
:1001B00053B94AB9002908BF00281CBF4FF0FF31CE
:1001C0004FF0FF3000F074B9ADF1080C6DE904CECA
:1001D00000F006F8DDF804E0DDE9022304B0704722
:1001E0002DE9F047089D04468E46002B4DD18A42EA
:1001F000944669D9B2FA82F252B101FA02F3C2F11D
:10020000200120FA01F10CFA02FC41EA030E9440AD
:100210004FEA1C48210CBEFBF8F61FFA8CF708FBCE
:1002200016E341EA034306FB07F199420AD91CEBA6
:10023000030306F1FF3080F01F81994240F21C81D8
:10024000023E63445B1AA4B2B3FBF8F008FB103320
:1002500044EA034400FB07F7A7420AD91CEB040455
:1002600000F1FF3380F00A81A74240F20781644425
:10027000023840EA0640E41B00261DB1D4400023AA
:10028000C5E900433146BDE8F0878B4209D9002D0E
:1002900000F0EF800026C5E9000130463146BDE898
:1002A000F087B3FA83F6002E4AD18B4202D3824202
:1002B00000F2F980841A61EB030301209E46002DB1
:1002C000E0D0C5E9004EDDE702B9FFDEB2FA82F206
:1002D000002A40F09280A1EB0C014FEA1C471FFA64
:1002E0008CFE0126200CB1FBF7F307FB131140EA4B
:1002F00001410EFB03F0884208D91CEB010103F118
:10030000FF3802D2884200F2CB804346091AA4B2D9
:10031000B1FBF7F007FB101144EA01440EFB00FEAD
:10032000A64508D91CEB040400F1FF3102D2A64512
:1003300000F2BB800846A4EB0E0440EA03409CE7B1
:10034000C6F12007B34022FA07FC4CEA030C20FA5E
:1003500007F401FA06F31C43F9404FEA1C4900FA7E
:1003600006F3B1FBF9F8200C1FFA8CFE09FB1811FB
:1003700040EA014108FB0EF0884202FA06F20BD96E
:100380001CEB010108F1FF3A80F08880884240F2BE
:100390008580A8F102086144091AA4B2B1FBF9F002
:1003A00009FB101144EA014100FB0EFE8E4508D9FD
:1003B0001CEB010100F1FF346CD28E456AD9023882
:1003C000614440EA0840A0FB0294A1EB0E01A14267
:1003D000C846A64656D353D05DB1B3EB080261EBD5
:1003E0000E0101FA07F722FA06F3F1401F43C5E9AF
:1003F000007100263146BDE8F087C2F12003D840E5
:100400000CFA02FC21FA03F3914001434FEA1C4726
:100410001FFA8CFEB3FBF7F007FB10360B0C43EA18
:10042000064300FB0EF69E4204FA02F408D91CEBC8
:10043000030300F1FF382FD29E422DD902386344C6
:100440009B1B89B2B3FBF7F607FB163341EA034166
:1004500006FB0EF38B4208D91CEB010106F1FF38B5
:1004600016D28B4214D9023E6144C91A46EA0046AC
:1004700038E72E46284605E70646E3E61846F8E63E
:100480004B45A9D2B9EB020864EB0C0E0138A3E787
:100490004646EAE7204694E74046D1E7D0467BE768
:1004A000023B614432E7304609E76444023842E7E0
:1004B000704700BF02E000F000F8FEE772B63A486D
:1004C00080F30888394880F3098839484EF6085186
:1004D000CEF20001086040F20000CCF200004EF6BF
:1004E0003471CEF200010860BFF34F8FBFF36F8FFE
:1004F00040F20000C0F2F0004EF68851CEF200014A
:100500000860BFF34F8FBFF36F8F4FF00000E1EE35
:10051000100A4EF63C71CEF200010860062080F30E
:100520001488BFF36F8F04F09DF904F079F904F09B
:10053000B3F94FF055301F491B4A91423CBF41F877
:10054000040BFAE71C49194A91423CBF41F8040BDD
:10055000FAE71A491A4A1B4B9A423EBF51F8040B5C
:1005600042F8040BF8E700201749184A91423CBFB3
:1005700041F8040BFAE704F057F904F0E5F9144CDC
:10058000144DAC4203DA54F8041B8847F9E700F035
:1005900041F8114C114DAC4203DA54F8041B884762
:1005A000F9E704F03FB90000000900200011002025
:1005B000000000080001002000090020B8520008D7
:1005C000001100208C110020901100203C390020E7
:1005D000A0010008A4010008A4010008A40100086B
:1005E0002DE9F04F2DED108AC1F80CD0C3689D465F
:1005F000BDEC108ABDE8F08F002383F311882846F4
:10060000A047002003F004FEFEE703F07DFD00DFBD
:10061000FEE70000F8B504F0A5F8074604F0F6F888
:100620000546A0BB1F4B9F4231D001339F4231D0C2
:100630001D4B27F0FF029A422FD1F8B200F030FD97
:100640002E4642F2107400F035FF08B10024264611
:1006500000F02CFD08B90646044635B1134B9F4205
:1006600003D004F0CBF800242646002004F084F8E0
:100670000EB100F063F801F051FA00F03FFF01F015
:100680003DF9204600F0A8F800F058F8F9E72E46AA
:100690000024D8E704460126D5E706464FF47A74CD
:1006A000D1E700BF010007B0000008B0263A09B04A
:1006B00008B501F0EFF8A0F120035842584108BDF9
:1006C00007B541F21203022101A8ADF8043001F090
:1006D000FFF803B05DF804FB10B5202383F3118805
:1006E0001248C3680BB103F00BFE114A0F480023F8
:1006F0004FF47A7103F0C8FD002383F311880D4C89
:10070000236813B12368013B2360636813B16368F6
:10071000013B6360084B1B7833B9636823B902203F
:1007200001F08AF93223636010BD00BF90110020F0
:10073000D9060008AC120020A4110020214B224A47
:1007400010B51C46196801313BD004339342F9D1EE
:100750006268A24235D31D4B9B6803F1006303F529
:1007600020439A422DD204F01BF804F02DF800200B
:1007700001F0DEF8164B0220187001F055F9154B08
:100780009A6D00229A65996F9A67996FD96DDA65AB
:10079000D96FDA67D96F196E1A66D3F88010C3F86B
:1007A0008020D3F8803072B64FF0E0232021C3F8C8
:1007B000084DD4E9003281F311889D4683F30888FF
:1007C000104710BD00A0000820A000080011002064
:1007D000A4110020001002402DE9F04F93B0AC4B63
:1007E00000902022FF210AA89D6801F041F9A94A42
:1007F0001378A3B9A8480121C3601170202383F3A3
:100800001188C3680BB103F07BFDA44AA248002302
:100810004FF47A7103F038FD002383F31188009BB5
:100820009F4A03B113609F49009C00230B705360E3
:1008300098469B461E469A46012001F0F5F824B1E1
:10084000974B1B68002B00F01C82002001F022F85F
:100850000390039B002B01DA00F094FE039B002B16
:10086000EDDB012001F0D6F8039B213B162BE3D8EA
:1008700001A252F823F000BFD5080008FD080008C7
:1008800091090008390800083908000839080008EB
:10089000250A0008F70B0008110B0008730B00086D
:1008A0009B0B0008C10B000839080008D30B000897
:1008B00039080008450C00087509000839080008C7
:1008C000890C0008E10800087509000839080008CB
:1008D000730B00080220FFF7EBFE002840F0FB81BD
:1008E000009B0221B8F1000F08BF1C4605A841F289
:1008F0001233ADF8143000F0EBFF9DE74FF47A703F
:1009000000F0C8FF071EEBDB0220FFF7D1FE002836
:10091000E6D0013F052F00F2E081DFE807F0030A8F
:100920000D10133605230593042105A800F0D0FF10
:1009300017E057480421F9E75B480421F6E75B48D4
:100940000421F3E74FF01C09484600F0F3FF09F1DA
:1009500004090590042105A800F0BAFFB9F12C0F95
:10096000F2D1012000FA07F747EA0B0B5FFA8BFB85
:100970004FF0000A01F0C8F826B10BF00B030B2B67
:1009800008BF0024FFF79CFE56E749480421CDE745
:10099000002EA5D00BF00B030B2BA1D10220FFF7EB
:1009A00087FE074600289BD001203E4E00F0C0FF86
:1009B0000220307001F038F84FF000085FFA88F933
:1009C000484600F0C5FF044690B1484600F0D0FF0D
:1009D00008F101080028F1D1B846044641F212138B
:1009E000022105A8ADF814303E4600F071FF23E760
:1009F00001230220337001F00DF82546244B9B683B
:100A0000AB4207D9284600F095FF013040F06881DD
:100A10000435F3E7234B00251D70214BB8465D607C
:100A20003E46A7E7002E3FF45BAF0BF00B030B2B0A
:100A30007FF456AF1B4B0220187000F0F5FF3220F8
:100A400000F028FFB0F10009FFF64AAF19F00307E4
:100A50007FF446AF0E4A926809EB050393423FF6D6
:100A60003FAFB9F5807F3FF73BAF124B0193B945DC
:100A700022DD4FF47A7000F00DFF0390039A002AF4
:100A8000FFF62EAF019B039A03F8012B0137EDE728
:100A900000110020A812002090110020D9060008A3
:100AA000AC120020A4110020041100200811002025
:100AB0000C110020A8110020C820FFF7F9FD0746FF
:100AC00000283FF40DAF1F2D11D8C5F120024A4573
:100AD0000AAB25F0030028BF4A4683490192184417
:100AE00000F0B4FF019A8048FF2100F0C1FF4FEAF7
:100AF000A9037D490193C9F38702284600F0C0FF8E
:100B0000064600283FF46AAF019B05EB830531E7F9
:100B10000220FFF7CDFD00283FF4E2AE00F044FFD5
:100B200000283FF4DDAE0027B946704B9B68BB42FE
:100B300018D91F2F11D80A9B01330ED027F00303B9
:100B400012AA134453F8203C05934846042205A9F1
:100B500001F056FF04378146E7E7384600F0EAFE29
:100B60000590F2E7CDF81490042105A800F0B0FE3E
:100B700000E70023642104A8049300F09FFE0028EE
:100B80007FF4AEAE0220FFF793FD00283FF4A8AE3D
:100B9000049800F0FFFE0590E6E70023642104A816
:100BA000049300F08BFE00287FF49AAE0220FFF73A
:100BB0007FFD00283FF494AE049800F0EDFEEAE7D4
:100BC0000220FFF775FD00283FF48AAE00F0FCFE1E
:100BD000E1E70220FFF76CFD00283FF481AE05A994
:100BE000142000F0F7FE04210746049004A800F04A
:100BF0006FFE3946B9E7322000F04CFE071EFFF6C3
:100C00006FAEBB077FF46CAE384A926807EB0A03FD
:100C100093423FF665AE0220FFF74AFD00283FF4FD
:100C20005FAE27F003075744BA453FF4A3AE5046E2
:100C300000F080FE0421059005A800F049FE0AF1AD
:100C4000040AF1E74FF47A70FFF732FD00283FF411
:100C500047AE00F0A9FE002844D00A9B01330BD018
:100C600008220AA9002000F00BFF00283AD0202219
:100C7000FF210AA800F0FCFEFFF722FD1C4803F04C
:100C8000CDFA13B0BDE8F08F002E3FF429AE0BF083
:100C90000B030B2B7FF424AE0023642105A80593DE
:100CA00000F00CFE074600287FF41AAE0220FFF782
:100CB000FFFC814600283FF413AEFFF701FD41F22F
:100CC000883003F0ABFA059800F042FF4E4600F082
:100CD0001BFF3C46B0E506464CE64FF0000AFFE538
:100CE000B8467BE6374679E6A811002000110020BF
:100CF000A0860100094A136849F2690099B21B0CE9
:100D000000FB01331360064B186844F2506182B255
:100D1000000C01FB0200186080B270471411002023
:100D20001011002010B500211022044600F0A0FE92
:100D3000034B03CB206061601868A06010BD00BF4A
:100D40009075FF1F2DE9F043224DBBB001F052FE1C
:100D5000AB6840F2ED22C31A934232D906AFA860C5
:100D60002B4628220021384602F022FB05F10E0016
:100D700000F076FE002604465FFA80F905F10E08C1
:100D8000F3B2F100994501F1280107D908EB0603F8
:100D90000822384602F00CFB0136F1E70823012255
:100DA000CDE9023205340C4B0193A4B230230093F9
:100DB000CDE9047405A3D3E90023297B074802F099
:100DC0000FF93BB0BDE8F083AFF3008078F6339FB6
:100DD00093CACD8DC8330020D5330020CC2200200B
:100DE00070B50D4614461E4602F090F850B9022E1A
:100DF00010D1012C0ED112A3D3E90023C5E90023A1
:100E0000012007E0282C10D005D8012C09D0052C92
:100E10000FD0002070BD302CFBD10BA3D3E90023F1
:100E2000ECE70BA3D3E90023E8E70BA3D3E9002306
:100E3000E4E70BA3D3E90023E0E700BFAFF30080B2
:100E4000401DA12026812A0B78F6339F93CACD8DB1
:100E50009E6AC421818A46EE26417272DF25D7B789
:100E6000F017304A39059E5613B504462346084606
:100E700020220021019002F09BFA22790198032A96
:100E8000234628BF032203F8042F2021022202F068
:100E90008FFA62790198072A234628BF072203F8B0
:100EA000052F2221032202F083FAA2790198072A52
:100EB000234628BF072203F8062F2521032202F02C
:100EC00077FA019804F108031022282102F070FA41
:100ED000382002B010BD00002DE9F04FADF5017DC6
:100EE00021AD0EAE40F2751280460F4622A80021B9
:100EF000296000F0BDFD48220021304600F0B8FD19
:100F000001F078FD564B4FF47A72B0FBF2F01860A6
:100F100093E80700012386E807000DF15A003382A9
:100F2000FFF700FF42F20463338406AB18464D49D5
:100F300004F0D2F81E2230642946304686F83C2060
:100F4000FFF792FF12AB044601460822284602F042
:100F50002FFA0822A1180DF14903284602F028FAB9
:100F60000DF14A03082204F11001284602F020FA8C
:100F700013AB202204F11801284602F019FA14AB31
:100F8000402204F13801284602F012FA16AB08227A
:100F900004F17801284602F00BFA0DF159030822FA
:100FA00004F18001284602F003FA04F1880A0DF1E9
:100FB0005A0904F5847B4B465146082228460AF11B
:100FC000080A02F0F5F9D34509F10109F3D11BAB89
:100FD00008225946284602F0EBF904F588744FF0D0
:100FE000000996F834304B450AD9B36B21464B447F
:100FF0000822284602F0DCF9083409F10109F0E77B
:101000004FF0000996F83C304B4504EBC90108D974
:10101000336C08224B44284602F0CAF909F1010951
:10102000F0E700230393BB7E0293073107F1190316
:101030000193C1F3CF010123CDE904510093F97E5F
:1010400005A3D3E90023404601F0CAFF0DF5017D59
:10105000BDE8F08FAFF300809E6AC421818A46EE1E
:10106000B41200200851000810B50A4B0A4A1A6051
:1010700003F5805393F860203AB9DC6D2CB120461B
:1010800001F036FB204603F0B9FEBDE810400348EE
:1010900001F02EBBF822002004520008403300204B
:1010A000014B1870704700BFC0120020F0B5334BE1
:1010B0001C7B85B034B1324B0E221A8100242046AD
:1010C00005B0F0BD2F4A1068516802AB03C3082376
:1010D0002D492E480DEB030203F0E2FE054630B920
:1010E000274B2B480A221A8101F080FAE6E70169B2
:1010F000B1F5583F06D9224B26480B221A8101F040
:1011000075FADCE7438B40F22642934207D01C4934
:101110000C2008811946204801F068FACFE71F4AE1
:10112000024402F11003994204D2154B1C481022CC
:101130001A81E4E710398E1A2046144901F060FC48
:101140003246074605F11801204601F059FCAB680C
:101150009F4202D1EB6898420AD0094B0D221A81B6
:101160000090D5E902123B460E4801F03FFAA5E790
:101170000D4801F03BFA0124A1E700BFC83300206D
:10118000B4120020B9510008DC5F030000A0000881
:101190002851000834510008465100080860FFF744
:1011A0006451000881510008AA5100082DE9F04F50
:1011B000ADB006AF80460C4601F0A8FE05460028FB
:1011C0005AD1237E022B1BD1E38A012B18D101F0C7
:1011D00011FC0646FFF78EFD03464FF4C870DFF89A
:1011E000D092B3FBF0F206F5167602FB103316FA36
:1011F00083F3C9F80030E37E33B9A84B00221A709C
:101200009C37BD46BDE8F08FA38AEEB2013BB342E6
:1012100005F101050BD93B1D1E44E9000096002392
:10122000082201F0F801204601F086FFECE707F103
:101230001400FFF777FD324607F11401381D03F063
:101240001FFE0028D9D10F2E08D8944B1E70D9F854
:101250000030A3F51673C9F80030D1E7FB1CF87015
:101260000146009307220346204601F065FFF97806
:10127000404601F043FEC3E7E38A282B26D010D86E
:10128000012B1ED0052BBBD1BFF34F8F8449854B5B
:10129000CA6802F4E0621343CB60BFF34F8F00BF14
:1012A000FDE7302BACD1637E7F4D01336A7BDBB22F
:1012B0009342E94603D1E27E2B7B9A4265D0CD462C
:1012C0009EE721464046FFF707FE99E7A38A013BC8
:1012D0009BB2C92B94D8744D2E7B26BB05F10C0311
:1012E0000093082233463146204601F025FF731C47
:1012F000F2B2D9001E46A38A013B9A4205DA0E32A9
:101300002A44009200230822EEE700230022C5E9C8
:1013100000230023AB6085F8D730C5F8D8302B7B8D
:101320000BB9E37E2B73002507F114093B1D08223E
:1013300029464846C7E90155FD6002F039F83B7A75
:1013400005F1010AAB424FEACA0608D9FB68082238
:101350002B443146484602F02BF85546EFE7C6F3DA
:10136000CF06E17ECDE9049600230393A37E02938A
:10137000193428230093019446A3D3E9002340465F
:1013800001F02EFEFFF7DEFC3AE74FF0000807F110
:101390001403A7F81480102200934146012320462D
:1013A00001F0CAFEA68A023EB6B2F31C9B109B0057
:1013B0000733DB08A9EBC3039D460DF1180A1FFA9A
:1013C00088F34FEAC801B34201F110010AD20AEBD7
:1013D0000803009308220023204601F0ADFE08F127
:1013E0000108ECE795F8D70000F0B2FAD5F8D8304C
:1013F00004461BB995F8D70000F0BAFAD5F8D830F2
:1014000033449C4204D295F8D700013000F0B0FA82
:101410004FEA960B4FF000081FFA88F18B45D5E98B
:10142000003209D90AEB880103EB8800012200F0A1
:1014300027FB08F10108EFE7F31842F10002C5E9C4
:101440000032D5F8D83095F8D70006EB0308C5F878
:10145000D88000F07DFA804509D395F8D730D5F8CB
:10146000D8000133001B85F8D730C5F8D800FF2E0F
:1014700008D800232B7300F097FAFFF717FE08B186
:10148000FFF75CF92B68094A9B0A0133138100239B
:10149000AB6014E726417272DF25D7B7C522002062
:1014A00000ED00E00400FA05C8330020B41200206B
:1014B000C822002010B54FF000540C4B22689A420D
:1014C00011D10B4B627D1A700A48237D03730A49C0
:1014D000C9220E3000F0BAFAE0220021204600F0C6
:1014E000C7FA012010BD0020FCE700BF9AAD44C53B
:1014F000C0120020C83300201600002037B5184D58
:1015000018491948022301226B7100F03DFF0023A6
:101510000193164B164900931648174B4FF480520F
:1015200001F0C6FC154B197811B1124801F0E6FC28
:1015300001F060FA0446FFF7DDFB4FF4C873B0FB1F
:10154000F3F202FB130304F5167010FA83F00C4B50
:10155000186003F05BF908B10F232B8103B030BD95
:10156000B412002040420F00F8220020E10D0008D4
:10157000C4120020CC220020AD110008C0120020AF
:10158000C82200202DE9F04F2DED028B0FF26429C7
:10159000D9E900898D4C93B08D4E8E4F204601F0D5
:1015A00083FD034660B30025CDE90F550E95ADF8D8
:1015B0004450027B8DF8442099684068DFF83CA2D3
:1015C0000FAA03C21B6843F000430E9301F014FA04
:1015D000821941F1000300950EA9384600F002FB84
:1015E000A84205DD204601F063FD8AF80050D5E7EA
:1015F0009AF80030072B00F2B68001338AF80030E9
:101600000BAE9FED6E8B0023724FDFF8F4A10A93AF
:10161000ADF834300B9373604FF0000B5B468DEDEB
:10162000008B01250DF11D0207A938468DF81C50CD
:101630008DF81DB000F058FE9DF81C30002B40F0D6
:101640009680204601F062FC0646002845D1624F94
:1016500001F0D0F93B6898423FD301F0CBF98246C4
:10166000FFF748FB4FF4C8730AF5167AB0FBF3F2A4
:1016700002FB13031AFA83F33B60584F97F800B04C
:10168000CBF1100ABBF1000F14BF33462B465FFAB3
:101690008AFA0EA88DF82830FFF744FBBAF1060F3E
:1016A00028BF4FF0060A0EAB03EB0B0152460DF1BB
:1016B000290000F0CBF90AAB0393182302930AF137
:1016C0000102474BD2B2CDE90053049220463DA31C
:1016D000D3E9002301F01CFC3E7001F08BF9414A74
:1016E000414D1368C31AB3F57A7F2FD3106001F010
:1016F00083F902460B46204601F0E4FC204601F047
:1017000005FC18B32B7B394E002B14BF0323022397
:10171000737101F06FF90EAF4FF47A733946B0FB75
:10172000F3F030603046FFF79FFB18230730029339
:101730002F4B0193C0F3CF0040F25513CDE9037056
:10174000009342464B46204601F0E2FB2B7B2BB137
:10175000FFF7F8FA2B7B002B7FF41EAF13B0BDEC24
:10176000028BBDE8F08F204601F0A2FC48E7DAF8D2
:10177000143083F00803CAF81430594610220EA81A
:1017800000F076F90DF11E0308AA0AA9384600F008
:1017900027FB96E803000FAB83E803009DF8343085
:1017A0008DF844300A9B0E930EA9DDE908232046EC
:1017B00001F046FE30E700BFAFF3008000000000FC
:1017C00000000000401DA12026812A0BCC22002011
:1017D00040420F00F8220020C8220020C52200202D
:1017E000C4220020A8340020C8330020B4120020F6
:1017F000AC340020F1C6A7C1D068080FAD3400207A
:101800000004004808B5054800F084FBBDE8084026
:10181000034A0449002003F0EBBA00BFF82200207D
:1018200000350020691000082DE9F84F4FF47A7355
:10183000DFF85880DFF8589006460D4602FB03F7A4
:10184000002498F900305A1C5FFA84FA01D0A342B0
:1018500010D159F8240003682A46D3F820B0314645
:101860003B46D847854205D1074B012083F800A0AD
:10187000BDE8F88F0134032CE3D14FF4FA7002F085
:10188000CDFC0020F4E700BFF43400201811002044
:10189000D051000807B50023024601210DF10700D1
:1018A0008DF80730FFF7C0FF20B19DF8070003B0A7
:1018B0005DF804FB4FF0FF30F9E700000A4608B579
:1018C0000421FFF7B1FF80F00100C0B2404208BD23
:1018D00030B4074B0A461978064B53F82140236869
:1018E000DD69054B0146AC46204630BC604700BF71
:1018F000F4340020D0510008A086010070B502F039
:10190000CBFD094E094D308000242868338883427E
:1019100008D902F0BDFD2B6804440133B4F5204F13
:101920002B60F2D370BD00BFF6340020B03400202D
:1019300002F072BE00F1006000F5204000687047C0
:1019400000F10060920000F5204002F0E9BD0000C7
:10195000054B1A68054B1B889B1A834202D9104419
:1019600002F096BD00207047B0340020F63400200D
:1019700038B5074D04462868204402F08FFD28B989
:1019800028682044BDE8384002F09ABD38BD00BF49
:10199000B03400200020704700F10050A0F5104046
:1019A000D0F8900570470000064991F8243033B113
:1019B0000023086A81F824300822FFF7C1BF012004
:1019C000704700BFB4340020014B1868704700BF57
:1019D000002004E070B50E4B5C6893F90860421E6D
:1019E0000A44013C0B46934207D214F9015F581C8C
:1019F0002DB100F8015C0346F5E7184605E02C24FC
:101A000082421C7001D9981C5E70401A70BD00BFE4
:101A10001C110020022802BF024B4FF400229A61E1
:101A2000704700BF00040048022802BF014B082293
:101A30009A61704700040048022801BF024A5369B6
:101A400083F00803536170470004004810B5002379
:101A5000934203D0CC5CC4540133F9E710BD0000BD
:101A600003460246D01A12F9011B0029FAD1704729
:101A700002440346934202D003F8011BFAE7704781
:101A80002DE9F8431F4D144695F824200746884653
:101A900052BBDFF870909CB395F824302BB920220C
:101AA000FF2148462F62FFF7E3FF95F82400C0F1BD
:101AB0000802A24228BF2246D6B24146920005EB58
:101AC0008000FFF7C3FF95F82430A41B1E44F6B234
:101AD000082E17449044E4B285F82460DBD1FFF768
:101AE00063FF0028D7D108E02B6A03EB820383420F
:101AF000CFD0FFF759FF0028CBD10020BDE8F883F5
:101B00000120FBE7B4340020024B1A78024B1A7014
:101B1000704700BFF43400201811002008B50849B0
:101B200008484FF461430B6002F012FA044906487A
:101B300002F00EFABDE808400149044802F008BA74
:101B4000DC3400200435002070350020DC35002016
:101B5000094B10B51822044600211846FFF788FFEC
:101B6000064A074B127804600146BDE8104053F85E
:101B7000220002F0EDB900BFDC340020F434002074
:101B8000D0510008202383F3118862B6704700000B
:101B9000002383F3118862B67047000010B4026816
:101BA00054681A4623465DF8044B184701207047D5
:101BB0000020704700207047704700007047000009
:101BC000002070470E20704700F5805090F8C80044
:101BD000C0F340007047000000F5805090F9C90044
:101BE000704700002DE9F0410C68BDF8187014F042
:101BF00000541E466FD10B7B082B6CD8FFF7C2FF39
:101C00004569AB685B010CD4AB681B0108D4AC68B8
:101C100014F080545DD1FFF7BBFF2046BDE8F08192
:101C200001240B6804F1180C002BB8BFDB004FEA4D
:101C30000C1CB4BF43F004035B0545F80C300B6883
:101C40000FFA84FC13F0804F18BF05EB0C1E05EB58
:101C50000C1C1EBFDEF8803143F00203CEF8803149
:101C60000B7BCCF8843105EB04158B68C5F88C31FF
:101C70004B68C5F88831DCF8803143F00103CCF8BB
:101C8000803100EB441541F268031D4403EB44131B
:101C90000344C5E9002608330D4601F10C0C55F844
:101CA00004EB43F804EB6545F9D184342D881D809D
:101CB00000EB441407F00303257925F00B052B43B3
:101CC0002371FFF765FF06973346BDE8F04100F04A
:101CD000AFBC0224A5E74FF0FF309FE713B500F536
:101CE00080540191E06D00F039FD1F280AD9019957
:101CF000E06D202200F0A8FDA0F1200358425841D9
:101D000002B010BD0020FBE708B500F58050FFF7DA
:101D100039FFC06D00F0F6FCBDE80840FFF738BFA2
:101D200000220260828142608260704710B500220A
:101D30000023C0E900230023044603810C30FFF791
:101D4000EFFF204610BD0000F0B5054600F58050BD
:101D50000C4690F8C83013F0040FC3F3800108BF9D
:101D6000114661F3820304F1840680F8C83005EB64
:101D7000461389B01B79D8072ED57AB319072DD40D
:101D80006846FFF7D3FF05EB441303F5835303F1D4
:101D9000180703AA103318685968144603C4083397
:101DA000BB422246F7D1186820609B88A380DDE9FA
:101DB0000E23CDE900230123ADF808302B686946D6
:101DC0001B6C2846984705EB46152B791A075CBF14
:101DD00043F008032B7101E0002AF4D109B0F0BDF3
:101DE0002DE9F047074688B007F5805468469A46C3
:101DF0008846FFF7C7FE9146FFF798FFE06D00F0B9
:101E000093FC1F2829D9E06D2022694600F09EFD31
:101E1000202822D103AD444605AB2E4603CE9E4278
:101E200020606160354604F10804F6D13068206016
:101E3000B388A380DDE90023C9E90023BDF8083099
:101E4000AAF80030FFF7A4FE4A46534641463846FA
:101E500008B0BDE8F04700F0D9BBFFF799FE0020BD
:101E600008B0BDE8F08700002DE9F84F0023C0E975
:101E70000133254B044640F8183B0F46FFF750FF4F
:101E800004F12800FFF752FF04F1480804F58255D9
:101E90004646083530462036FFF748FFAE42F9D1B6
:101EA00004F580554FF480534FF00009C5E913390C
:101EB000C5F848800123EE6504F5875804F584567B
:101EC000C5F8549085F8583085F86030083608F128
:101ED00008084FF0000A4FF0000B46E908ABA6F1E6
:101EE0001800FFF71DFF203646F8289C4645F4D120
:101EF00085F8C97017B1054800F076FD044B6361A1
:101F00002046BDE8F88F00BF04520008DC510008ED
:101F10000064004010B5044B197804464A1C1A703E
:101F2000FFF7A2FF204610BDFC3400202DE9F0474A
:101F3000002950D0294B2A4FB7FBF1F599428CBFAD
:101F40000A231123581EB5FBF3FC03FB1C53C4B238
:101F50002BB102280346F5D80020BDE8F0870CF12C
:101F6000FF36B6F5806FF7D2C4EBC40E0EF1030353
:101F70004FEAE309C3F3C703A4EB030809F1010A1D
:101F80004FF47A755FFA88F009FB05555AFA88F81C
:101F9000B5FBF8F5B5F5617FC1BF0EF1FF33C3F3B3
:101FA000C703E01AC0B25C1C50FA84F40CFB04F4C2
:101FB000B7FBF4F4A142CFD1013BDBB20F2BCBD85E
:101FC0000138C0B20728C7D800211071168091705F
:101FD000D3700120C1E70846BFE700BF3F420F00B2
:101FE00000B4C40470B505460E464FF47A746B69AC
:101FF0005B6803F00103B34207D04FF47A7002F03C
:102000000DF9013CF3D1204670BD0120FCE7000032
:1020100030B54269936913F0700F16D000230B4C52
:10202000936103F1840200EB421211794D0709D547
:10203000890707D5416954F823508D60117941F023
:10204000040111710133032BEBD130BDF0510008B5
:1020500073B51D46436916469A68D207044609D5EA
:102060009A6801219960C2F34002CDE90065002120
:10207000FFF76AFE63699A68D1050BD59A684FF439
:1020800080719960C2F34022CDE9006501212046AC
:10209000FFF75AFE63699A68D2030BD59A684FF42A
:1020A00080319960C2F34042CDE9006502212046AB
:1020B000FFF74AFE204602B0BDE87040FFF7A8BF18
:1020C000F8B50446466900296CD106F10C0738685A
:1020D00080076AD006EB01153868D5F8B00110F01A
:1020E000040FD5F8B0011ABFC00840F00040400D01
:1020F000A061D5F8B0C11CF0020F1CBF40F08040B9
:10210000A061D5F8B40106EB011100F00F0084F8CE
:102110002400D1F8B8012077D1F8B801000A60771F
:10212000D1F8B801000CA077D1F8B801000EE07723
:10213000D1F8BC0184F82000D1F8BC01000A84F871
:102140002100D1F8BC01000C84F82200D1F8BC11A8
:10215000090E84F823103821396004F1340004F1A9
:10216000180104F1240551F8046B40F8046BA942EE
:10217000F9D109880180C4E90A2321460023238676
:1021800051F8283B20461B6C984704F580522046A6
:1021900092F8C83043F0040382F8C830BDE8F84034
:1021A000FFF736BF06F1100791E7F8BD10B50446FA
:1021B00000F022FC02460B4652EA030102D0013A2B
:1021C00063F100030449086820B12146BDE81040CE
:1021D000FFF776BF10BD00BFF8340020F8B500F55A
:1021E00083511E46FFF7CEFCDFF844C008310024BF
:1021F00004F1840500EB45152B795F070ED4DB064F
:102200000CD5D1E900739742B34107D243695CF81A
:1022100024709F602B7943F004032B710134032C4D
:1022200001F12001E4D1BDE8F840FFF7B1BC00BFE7
:10223000F051000808B5FFF7A5FCFFF7E9FEBDE87F
:102240000840FFF7A5BC0000F8B54369054698684B
:1022500000F0E050B0F1E05F0F461FD0E8B1FFF7AB
:1022600091FC05F583541034002606F1840305EB38
:1022700043131B791A0706D50136032E04F12004F7
:10228000F3D1012007E05B07F6D42146384600F081
:1022900009FA0028F0D1FFF77BFCF8BD0120FCE72C
:1022A00000F5805008B5FFF76DFCC06D00F03CFAFA
:1022B000FFF76EFC43090CBF0120002008BD0000A1
:1022C000F8B51D46002313700F4606461446FFF767
:1022D000E7FF80F00100387025B129463046FFF74E
:1022E000B3FF2070F8BD00002DE9B8410C4615463B
:1022F0001F46804600F080FB0B462178024609B954
:10230000287850B14046FFF769FFFFF793FF3B463F
:102310002A462146FFF7D4FF0120BDE8B88100001E
:1023200010B5FFF72FFC174B9A6D42F000729A65BB
:102330009A6B42F000729A639A6B00F5805422F017
:1023400000729A63FFF724FC94F8C830DB0718D4B6
:10235000B9B102211320FFF715FC01F047FC02215F
:10236000142001F043FC0221152001F03FFC94F8F9
:10237000C83043F0010384F8C830BDE81040FFF7CF
:1023800007BC10BD001002402DE9F04700F5805554
:1023900088B095F8C930012B04468846164600F2ED
:1023A000FB807E4F57F823200AB947F82300D7F85F
:1023B00000A0C4F80C802674BAF1000F09D141F2D4
:1023C000D00002F01DFD51468146FFF74DFDC7F8D4
:1023D000009095F8C930012B5DD001212046FFF710
:1023E0009FFFFFF7CFFB6269136823F002031360BE
:1023F0006269136843F001031360636900275F613A
:1024000001212046FFF7C4FBFFF7ECFD002800F098
:102410008480E86D00F076F904F58359BA4609F135
:102420000809202200216846FFF722FB02A8FFF7D7
:1024300077FCCDF818A06A4609EB07030DF1180EDA
:102440009446BCE80300F44518605960624603F105
:102450000803F5D1DCF80000186020379CF8042050
:102460001A71602FDDD195F8C8306FF38203002711
:1024700085F8C8306A4641462046ADF80070ADF890
:1024800002708DF80470FFF751FD6369C0B94FF415
:1024900000421A6011E0386803685B6B9847014698
:1024A00000289AD13868FFF73BFF38680368324646
:1024B0005B684146984700288FD108B0BDE8F08797
:1024C00061221A609DF802309DF803201B06120459
:1024D00002F4702203F040731343BDF80020C2F3EE
:1024E000090213439DF804201205022E02F4E002B3
:1024F0000CBF4FF000410021134362690B43D361CD
:10250000636913225A616269136823F0010313603F
:1025100039462046FFF766FD08B96369B7E795F8C5
:10252000C93093BB6169D1F8002242F00102C1F8C1
:1025300000226169D1F8002222F47C5222F00E02BE
:10254000C1F800226169D1F8002242F46062C1F84A
:1025500000226269C2F814326269C2F80432626908
:1025600041F6FF71C2F80C126269C2F8403262692A
:10257000C2F8443263690122C3F81C226269D2F8AE
:10258000003223F00103C2F8003295F8C83043F05E
:10259000020385F8C83090E700208EE7F834002069
:1025A00008B500F029FA50EA0103024602D0421EA3
:1025B00061F10001044B186810B10B46FFF748FDAC
:1025C000BDE8084001F06CB9F834002008B50020DF
:1025D000FFF7ECFDBDE8084001F062B908B5012045
:1025E000FFF7E4FDBDE8084001F05AB90FB4002040
:1025F00004B0704713B56C4684E80600031D94E8E8
:10260000030083E80500012002B010BD73B58568A2
:10261000019155B11B885B0707D4D0E90036DB6B0D
:102620009847019AC1B23046A847012002B070BD58
:10263000F0B5866889B005460C465EB1BDF8383005
:102640005B070AD4D0E90037DB6B98472246C1B25A
:102650003846B047012009B0F0BD00220023CDE983
:1026600000230023ADF808300A4603AB01F1080649
:10267000106851681C4603C40832B2422346F7D1A1
:10268000106820609288A28000F0B8F90423ADF8A9
:1026900008302B68CDE900011B6C69462846984735
:1026A000D8E7000030B503680968DD0FB5EBD17FCE
:1026B00023F0604421F060424FEAD1700BD0002B30
:1026C000B8BFA40C0029B8BF920C944202D034BF0A
:1026D0000120002030BD944205D1C1F38070C3F3C6
:1026E00080738342F6D194422CBF00200120F1E791
:1026F00010B5037C044613B9006802F0B9FB20460C
:1027000010BD00000023BFF35B8FC360BFF35B8F7E
:10271000BFF35B8F8360BFF35B8F7047BFF35B8F4B
:102720000068BFF35B8F704770B505460C30FFF74C
:10273000F5FF05F1080604463046FFF7EFFFA0421B
:1027400006D930466D68FFF7E9FF2544281A70BDA9
:102750003046FFF7E3FF201AF9E7000070B50546A1
:10276000406898B105F10800FFF7D8FF05F10C06A5
:1027700004463046FFF7D2FF8442304694BF6D686E
:102780000025FFF7CBFF013C2C44201A70BD000050
:1027900038B50C460546FFF7C7FFA04210D305F138
:1027A0000800FFF7BBFF04446868B4FBF0F100FBCE
:1027B0001144BFF35B8F0120AC60BFF35B8F38BD6A
:1027C0000020FCE72DE9F041144607460D46FFF7CF
:1027D000C5FF844228BF0446D4B1B84658F80C6BF4
:1027E0004046FFF79BFF3044286040467E68FFF775
:1027F00095FF331A9C4203D86C600120BDE8F0813C
:102800006B60A41B3B68AB602044E8600220F5E7E6
:102810002046F3E738B50C460546FFF79FFFA04278
:1028200010D305F10C00FFF779FF04446868B4FB8E
:10283000F0F100FB1144BFF35B8F0120EC60BFF3AC
:102840005B8F38BD0020FCE72DE9FF4188466946D3
:102850000746FFF7B7FF6C4606B204EBC606002535
:10286000B44209D06268206808EB0501FFF7EEF872
:10287000636808341D44F3E729463846FFF7CAFF6A
:10288000284604B0BDE8F081F8B505460C300F4687
:10289000FFF744FF05F1080604463046FFF73EFF08
:1028A000A042304688BF6C68FFF738FF201A3860B6
:1028B00020B130462C68FFF731FF2044F8BD0000FE
:1028C00073B5144606460D46FFF72EFF844228BF17
:1028D00004460190DCB101A93046FFF7D5FF019B0A
:1028E00033B93268C5E90233C5E9002401200CE0A0
:1028F0009C4238BF01942860019868608442F5D9F1
:102900003368AB60241AEC60022002B070BD204630
:10291000FBE700002DE9FF410F466946FFF7D0FFB6
:102920006C4600B204EBC0050026AC4209D0D4F8D6
:10293000048054F8081BB8194246FFF787F846444C
:10294000F3E7304604B0BDE8F081000038B5054635
:10295000FFF7E0FF044601462846FFF719FF20462F
:1029600038BD000000B59BB0EFF3098168226846CE
:10297000FFF76CF8EFF30583044B9A6BDA6A9A6AF7
:102980009A6A9A6A9A6A9A6A9B6AFEE700ED00E080
:1029900000B59BB0EFF3098168226846FFF756F84F
:1029A000EFF30583044B9A6B9A6A9A6A9A6A9A6A59
:1029B0009A6A9B6AFEE700BF00ED00E000B59BB09D
:1029C000EFF3098168226846FFF740F8EFF30583CB
:1029D000034B5A6B9A6A9A6A9A6A9A6A9B6AFEE7EA
:1029E00000ED00E0FEE700000FB408B5029801F02A
:1029F000AFFBFEE701F050BE01F028BE01F026BE9D
:102A000030B5094D0A4491420DD011F8013B5840B0
:102A1000082340F30004013B2C4013F0FF0384EA39
:102A20005000F6D1EFE730BD2083B8ED2DE9F0413D
:102A3000C56915B9C161BDE8F0814B6823F06047F5
:102A4000C3F38A464FEAD37EC3F3807816EA23069F
:102A500038BF3E46AC462B465A68BEEBD27F22F0CA
:102A600060440AD0002A18DAA40CB44217D19D425F
:102A70000FD10D60DEE71346EEE7A74207D102F063
:102A80008044C2F3807242450BD054B1EFE708D2C4
:102A9000EDE7CCF800100B60CDE7B44201D0B442B2
:102AA000E5D81A689C46002AE5D11960C3E7000002
:102AB0002DE9F047089D01F007044FEAD5082244AC
:102AC00005F0070500EBD1004FF47F49944201D196
:102AD000BDE8F08704F0070705F0070A57453E46B2
:102AE00038BF5646C6F10806111B8E4228BF0E4657
:102AF000E10808EBD50E415C13F80EC0B94029FA85
:102B000006F721FA0AF1FFB28CEA010147FA0AF747
:102B100039408CEA010C03F80EC034443544D5E743
:102B200080EA0120082341F2210201B2400000297D
:102B300080B203F1FF33B8BF504013F0FF03F4D16C
:102B40007047000038B50C468D18A54200D138BD3D
:102B500014F8011BFFF7E4FFF7E7000002684AB131
:102B600013680360C388018901339BB29942C38013
:102B700038BF03811046704770B588B020220446E4
:102B80000D4668460021FEF773FF20460495FFF7C7
:102B9000E5FF024658B16B46054608AE1C4603CC1D
:102BA000B44228606960234605F10805F6D1104655
:102BB00008B070BD082817D909280CD00A280CD0F5
:102BC0000B280CD00C280CD00D280CD00E2814BFCC
:102BD0004020302070470C20704710207047142090
:102BE000704718207047202070470000082817D928
:102BF0000C280CD910280CD914280CD918280CD959
:102C000020280CD930288CBF0F200E2070470920B7
:102C100070470A2070470B2070470C2070470D202A
:102C20007047000010B54B6823B9CA8A63F30902E4
:102C3000CA8210BDC4681A681C60C360438A013B25
:102C400043824A60EFE700002DE9F84F1D46CB8A2A
:102C50000F46C3F309010629814692460B4630D040
:102C60000020AAB207F119049EB2052E1FFA80F8BF
:102C70000FD8904503F1010306D3FB8A0A4462F39F
:102C80000903FB8201201AE01AF80060E6540130C3
:102C9000EAE79045F1D2A1F1060B1C237C68BBFB4F
:102CA000F3F203FB12BB1FFA8BF6002C45D148460A
:102CB000FFF754FF044638B978606FF00200BDE8B2
:102CC000F88F4FF00008E6E7002606607860ADB2A6
:102CD0004FF0000B454510D90AEB0803221D13F8ED
:102CE000011B9155B1B208F101081B291FFA88F8A0
:102CF0002BD0454506F10106F1D8FB8AC3F3090242
:102D0000154465F30903BCE7013292B21C462368FF
:102D1000002BF9D1AB1F0B441C21B3FBF1F30133A2
:102D20009BB29A42D3D2BBF1000FD0D14846FFF7F5
:102D300015FF20B9C4F800B0BFE70122E7E7C0F8EB
:102D400000B05E4620600446C1E74545D5D94846F7
:102D5000FFF704FF08B92060AFE7C0F800B0002615
:102D600020600446B6E700002DE9F04F2DED028B00
:102D700083B0CDE90013BDF83C5007469146002AC8
:102D800000F092802DB10E9B002B00F08D80072D5E
:102D900032D807F10C00FFF7E1FE044638B96FF0B6
:102DA0000204204603B0BDEC028BBDE8F08F142274
:102DB0000021FEF75DFE0E992A4604F10800FEF799
:102DC00045FE681CC0B2FFF711FFFFF7F3FE207449
:102DD00099F80030013814FA80F003F01F0363F013
:102DE0003F030372009B43F0004161603846214677
:102DF000FFF71CFE0124D4E700F10C034FF000089C
:102E000008EE103A4FF0800A4646444618EE100A83
:102E1000FFF7A4FE83460028C1D014220021FEF74C
:102E200027FEC6BB019BABF8083002200E9B00F1C9
:102E3000080299195BFA82F20130C0B2082801D069
:102E4000AE422AD3FFF7D2FEFFF7B4FE99F8002076
:102E5000009B411E02F01F0242EA4812AE4208BF28
:102E60004FF0400A5BFA81F14AEA020A43F000425D
:102E700081F808A08BF81000CBF80420594638469A
:102E8000FFF7D4FD0134AE4224B288F001084FF0C0
:102E9000000ABBD185E70020C8E711F801CB02F892
:102EA00001CB0136B6B2C7E76FF0010479E7000045
:102EB000F8B515460E462822002104461F46FEF7A7
:102EC000D7FD069B6360B5F5001F079BA76034BF65
:102ED0006A094FF6FF72236204F10C0097B20023D7
:102EE0009A4205D80023036027826382A382F8BD3B
:102EF0000660013330462036F2E7000003781BB944
:102F00004BB2002BC8BF01707047000000787047BB
:102F10002DE9F74FDDF83C90BDF830500D9E9DF83F
:102F20003840BDF84070804692469B46B9F1000F8C
:102F300001D1002F51D11F2C4FD898F80000B0B903
:102F4000072F47D835F0030347D13A4649464FF695
:102F5000FF70FFF7F7FD20F001002D02400445EA65
:102F60000464400C44EA40244FF6FF7321E040EA39
:102F70000520072F40EA0464F6D900254FF6FF73B9
:102F8000C5F12000A5F120022AFA05F10BFA00F0A4
:102F900001432BFA02F211431846C9B2FFF7C0FDF4
:102FA0000835402D0346EBD13A464946FFF7CAFDA6
:102FB0000346CDE90097324621464046FFF7D4FE4E
:102FC00033780133DBB21F2B88BF0023337003B08B
:102FD000BDE8F08F6FF00300F9E76FF00100F6E74E
:102FE0002DE9F04F85B09246DDF848800F9D9DF8A1
:102FF00040209DF84490BDF84C7006469B46B8F1C1
:10300000000F01D1002F48D11F2A46D83378002B5A
:1030100046D00C0244EA02649DF8381044EAC934F0
:1030200044EA01441C43072F44F0800432D90023B2
:103030004FF6FF72C3F1200CA3F120002AFA03F12E
:103040000BFA0CFC41EA0C012BFA00F00143C9B267
:1030500010460393FFF764FD039B0833402B0246A1
:10306000E8D13A464146FFF76DFD0346CDE90087BA
:103070002A4621463046FFF777FEB9F1010F06D107
:103080002B780133DBB21F2B88BF00232B7005B0D8
:10309000BDE8F08F4FF6FF73E8E76FF00100F6E749
:1030A0006FF00300F3E70000C06900B1043070471F
:1030B000C3691A68C261C2681A60C360438A013B6F
:1030C000438270472DE9F041D0F81880194E14461C
:1030D0001D464146002709B9BDE8F081D1E9022328
:1030E000A21A65EB0303964277EB03031ED28369B2
:1030F0008B420DD1FFF796FD83691B688361C3681E
:103100000B60438AC1608169013B43828846E2E7E4
:10311000FFF788FD0B68C8F80030C3680B60438A6E
:10312000C160013B4382D8F80010D4E788460968A3
:10313000D1E700BF80841E002DE9F04F8BB00D4613
:10314000DDF8509014469B468046002800F0198117
:10315000B9F1000F00F01581531E3F2B00F21181D1
:10316000012A03D1BBF1000F40F00B810023CDE910
:103170000833B8F81430B5EBC30F4FEAC30703D3D5
:1031800000200BB0BDE8F08F2B199F42D8F80C300F
:103190003ABF7F1BFFB227461BB9D8F81030002B6F
:1031A0007AD02F2D4ED8C5F13006B7424FF000032C
:1031B0002CBFF6B23E4600932946D8F8080008AB6B
:1031C0003246FFF775FCA7EB060A35445FFA8AFA28
:1031D000B8F8143003F10053063BDB000493D8F831
:1031E0000C3003933021039B13B1BAF1000F2CD1A3
:1031F000D8F8100040B1BAF1000F05D0009608AB26
:103200005246691AFFF754FC38B2002FB8D066074F
:103210000AD00AAB03EBD401624211F8083C02F079
:103220000702134101F8083C082C3CD9102C40F24D
:10323000B580202C40F2B780BBF1000F00F09C80DD
:10324000082334E0BA460026C2E7049BE02B28BFDF
:10325000E02306930B44AB42059314D95A1B039801
:103260000096924534BF5246D2B2691A08AB043078
:103270000792FFF71DFC079A1644AAEB020A1544B1
:10328000F6B25FFA8AFA049B069A05999B1A049390
:10329000039B1B680393A6E70093D8F8080008ABCC
:1032A0003A462946AEE7BBF1000F13D00123B4EB39
:1032B000C30F6CD0082C12D89DF82030621E23FA60
:1032C00002F2D50706D54FF0FF3202FA04F4234389
:1032D0008DF820309DF8203089F8003051E7102C0F
:1032E00012D8BDF82030621E23FA02F2D10706D5AB
:1032F0004FF0FF3202FA04F42343ADF82030BDF85A
:103300002030A9F800303CE7202C0FD80899631E24
:1033100021FA03F3DA0705D54FF0FF3202FA04F47D
:103320000C430894089BC9F800302AE7402C2BD0A6
:10333000DDE90865611EC4F12102A4F1210326FA2A
:1033400001F105FA02F225FA03F311431943CB0701
:1033500012D50122A4F12003C4F1200102FA03F3E3
:1033600022FA01F1A240524243EA010363EB430314
:1033700032432B43CDE90823DDE90823C9E90023C3
:10338000FFE66FF00100FCE66FF00800F9E6082C9C
:10339000A0D9102CB3D9202CEED8C3E7BBF1000F75
:1033A000ADD0022383E7BBF1000FBBD004237EE73F
:1033B00030B5012A144638BF0124402C85B028BFFF
:1033C00040240025012ACDE9025518D81B788DF834
:1033D000083063070AD004AB03EBD405624215F84A
:1033E000083C02F00702934005F8083C00910346B0
:1033F0002246002102A8FFF75BFB05B030BD082A7A
:10340000E4D9102A03D81B88ADF80830E1E7202A58
:103410008DBFD3E900231B680293CDE90223D8E7CF
:1034200010B5CB681BB98B600B618B8210BDC46873
:103430001A681C60C360438A013B4382CA60F0E79C
:103440002DE9F04FD1F8008093B018F0800FCDE94E
:103450000323C8F3C01219BFC8F3C03BC8F3062644
:103460004FF0020B1646B8F1000F04460D4680F2ED
:10347000D18118F0C043059340F0CC810B7B002B29
:1034800000F0C881BBF1020F03D00178B14240F0D7
:10349000C48108F07F0106916AB3C8F3074A2B4440
:1034A000069A93F80390760646EA0B4646EA824669
:1034B0005FEAD91346EA0A06079300F090800022DB
:1034C0000023CDE90A23069B009367685B465246BA
:1034D0000AA92046B84700287ED0A7699FB931467F
:1034E00004F10C00FFF748FB0746E0B96FF002005B
:1034F00013B0BDE8F08FC8F30F2A18F07F0F08BF94
:103500000AF0030ACBE73B699E420DD03F68002FCB
:10351000F9D1314604F10C00FFF72EFB07460028D5
:10352000E4D0A3693B60A761DDE90A2300264FF6DA
:10353000FF70C6F1200E22FA06F103FA0EFEA6F184
:10354000200C23FA0CFC41EA0E0141EA0C01C9B23D
:10355000083609920893FFF7E3FA402EDDE90832B6
:10356000E7D1B882FB7D09F01F06C3F384039B1BE0
:10357000D7E9022198B2002BBCBF00F120031BB297
:1035800052EA0100C8F304680FD00398821A049825
:1035900060EB0101A74890424FF000028A4104D33A
:1035A000079A002A5BD0012B23DDFA7D4FEA8903BD
:1035B00002F0030203F07C031343FB7539462046F7
:1035C000FFF730FB079BA3B9FB7DC3F384020132F5
:1035D00062F38603FB7504E06FF00B0088E7A769D0
:1035E00017B96FF00C0083E73B699E42BAD03F6881
:1035F000F6E719F0400F32D0039BBB60049BFB60E1
:10360000142200210DA8FEF733FA039B0A93049BB2
:103610000B932B1D0C932B7BADF83EA0013BDBB233
:10362000ADF83C30069B8DF8433094F824308DF88B
:1036300040B083F001038DF844308DF84160A368F9
:103640008DF842800AA920469847FB7DC3F3840386
:10365000013303F01F039B02FB82002048E7FB7D40
:10366000C9F34012B2EBD31F40F0DA80C3F38403F6
:10367000B34240F0D88007992B7B4FEA991200297A
:1036800034D0D20741D4032B40F2D080039BBB60DF
:10369000049BFB602B7BAE1D033BDBB232463946FD
:1036A00004F10C00FFF7D0FA00280DDA2046394665
:1036B000FFF7B8FAFB7DC3F38403013303F01F0364
:1036C0009B02FB82032013E7AB883B832A7B033AF0
:1036D000B88AD2B23146FFF735FAFB7DB882DA43B9
:1036E000C2F3C01262F3C713FB75B6E76AB92E1DA9
:1036F000013BDBB23246394604F10C00FFF7A4FA75
:103700000028D3DB2A7B013AE2E7F98AC1F30901F9
:10371000013B0529DAB259D8281D002307F11A0CFC
:103720009A4208D910F801EB0CF801E0013101339D
:103730000629DBB2F4D103990A9104990B919342C3
:1037400007F11A010C9138BF043379680D9134BF29
:1037500055FA83F300230E93FB8AADF83EA0C3F322
:1037600009031A44069B8DF8433094F82430ADF8D1
:103770003C2083F001038DF8443000238DF840B0E5
:103780008DF841608DF842807B602A7BB88A013ACF
:10379000291DFFF7D7F93B8BB882834203D1A36879
:1037A0000AA92046984720460AA9FFF739FEFB7D63
:1037B000B88AC3F38403013303F01F039B02FB8227
:1037C0003B8B984214BF1120002091E67B68002BB0
:1037D000B1D0062001E01C306346D3F800C0BCF134
:1037E000000FF8D1091A081D05F1040C00EB0309BC
:1037F00005989DF8143001EB000EBEF11B0F9AD80E
:103800009A4298D91CF8013B09F8013B059B01330A
:103810000593EDE76FF009006AE66FF00A0067E6CE
:103820006FF00D0064E66FF00E0061E66FF00F00C0
:103830005EE600BF80841E00EFF3098305494A6BF2
:1038400022F001024A63683383F30988002383F37B
:103850001188704700EF00E0202080F3118862B6E5
:103860000C4B0D4AD96821F4E0610904090C0A43A4
:10387000DA60D3F8FC20094942F08072C3F8FC20DA
:103880000A6842F001020A601022DA7783F8220007
:10389000704700BF00ED00E00003FA05001000E0F3
:1038A00010B5202383F311880E4B5B6813F400637B
:1038B00014D0F1EE103AEFF30984683C4FF08073B6
:1038C000E361094BDB6B236684F3098800F0F2FBAC
:1038D00010B1064BA36110BD054BFBE783F31188C4
:1038E000F9E700BF00ED00E000EF00E00B06000884
:1038F0000E060008026843681143016003B11847CF
:1039000070470000024A136843F0C0031360704719
:1039100000380140024A136843F0C0031360704747
:1039200000440040024A136843F0C003136070472C
:103930000048004037B5244C244D204600F0FCFAE6
:10394000009404F1140022490023202200F0BEF963
:1039500020490094202204F138001F4B00F038FA6F
:103960001E4BC4E917351E4C204600F0E5FA0094C2
:1039700004F114001B490023202200F0A7F91A4982
:103980000094202204F13800184B00F021FA184B63
:10399000C4E91735174C204600F0CEFA04F11400A4
:1039A000154900940023202200F090F9134B14498C
:1039B0000094202204F1380000F00AFA114BC4E907
:1039C000173503B030BD00BF0435002000B4C40477
:1039D00048360020A836002005390008003801408C
:1039E0007035002068360020C836002015390008E0
:1039F00000440040DC3500208836002025390008CE
:103A0000E83600200048004030B5037C304C0029E7
:103A100018BF0C46012B0FD12E4B984239D12E4B9B
:103A20001A6E42F480421A66D3F8802042F4804233
:103A3000C3F88020D3F880302268036EC16D84669D
:103A400003EB5203B3FBF2F36268150442BF23F0A9
:103A5000070503F0070343EA4503CB60A36843F07F
:103A600040034B60E36843F001038B6042F49673BC
:103A700043F001030B604FF0FF330B62510505D596
:103A800012F010221FD0B2F1805F1ED080F8643097
:103A900030BD124B98420BD0114B9842CCD10E4BFB
:103AA0009A6D42F480229A659A6F42F4802207E070
:103AB000094B9A6D42F400329A659A6F42F40032D3
:103AC0009A679B6FB8E77F23E0E73F23DEE700BFFD
:103AD00048520008043500200010024070350020D4
:103AE000DC3500202DE9F047C66D3768F469346293
:103AF0002107054618D014F0080118BF8021E207FD
:103B000048BF41F02001A30748BF41F040016007D2
:103B100048BF41F48071202383F31188281DFFF7EB
:103B2000E9FE002383F31188E2050AD5202383F3FD
:103B300011884FF40071281DFFF7DCFE002383F38A
:103B400011884FF020094FF0000A14F0200838D1F6
:103B50003B0616D54FF0200905F1380A200610D58E
:103B600089F31188504600F067F9002836DA0821F9
:103B7000281DFFF7BFFE27F080033360002383F387
:103B80001188790614D5620612D5202383F3118893
:103B9000D5E913239A4208D12B6C33B11021281D8B
:103BA00027F04007FFF7A6FE3760002383F3118854
:103BB000E30619D5AA6E1369B3B1BDE8F0475069A1
:103BC000184789F31188B38C95F86410284619407A
:103BD00000F0CCF98AF31188F469B6E780B2308539
:103BE00088F31188F469B9E7BDE8F08700F1604314
:103BF00003F561430901C9B283F80013012200F003
:103C00001F039A4043099B0003F1604303F561439E
:103C1000C3F880211A607047F8B5154682680669B6
:103C2000AA420B46816938BF8568761AB5420446B8
:103C30000BD218462A46FDF709FFA3692B44A3615E
:103C4000A3685B1BA3602846F8BD0CD91846324612
:103C5000FDF7FCFEAF1BE1683A463044FDF7F6FE87
:103C6000E3683B44EBE718462A46FDF7EFFEE368BE
:103C7000E5E7000083689342F7B51546044638BF70
:103C80008568D0E90460361AB5420BD22A46FDF7A2
:103C9000DDFE63692B446361A36828465B1BA36058
:103CA00003B0F0BD0DD932460191FDF7CFFE019969
:103CB000E068AF1B3A463144FDF7C8FEE3683B4479
:103CC000E9E72A46FDF7C2FEE368E4E710B50A44D7
:103CD0000024C361029B8460C0E90000C0E90511B3
:103CE000C1600261036210BD08B5D0E9053293429C
:103CF00001D1826882B98268013282605A1C4261B5
:103D00001970D0E904329A4224BFC368436100218C
:103D100000F0A0FA002008BD4FF0FF30FBE70000E4
:103D200070B5202304460E4683F31188A568A5B11B
:103D3000A368A269013BA360531CA36115782269A3
:103D4000934224BFE368A361E3690BB1204698471F
:103D5000002383F31188284607E03146204600F00F
:103D600069FA0028E2DA85F3118870BD2DE9F74F72
:103D700004460E4617469846D0F81C904FF0200A8D
:103D80008AF311884FF0000B154665B12A4631467B
:103D90002046FFF741FF034660B94146204600F048
:103DA00049FA0028F1D0002383F31188781B03B06F
:103DB000BDE8F08FB9F1000F03D001902046C8474D
:103DC000019B8BF31188ED1A1E448AF31188DCE7FE
:103DD000C0E90511C160C3611144009B8260C0E964
:103DE0000000016103627047F8B504460D461646AF
:103DF000202383F31188A768A7B1A368013BA360C0
:103E000063695A1C62611D70D4E904329A4224BF6E
:103E1000E3686361E3690BB120469847002080F3B3
:103E2000118807E03146204600F004FA0028E2DA63
:103E300087F31188F8BD0000D0E905239A4210B538
:103E400001D182687AB98268013282605A1C82612B
:103E50001C7803699A4224BFC3688361002100F083
:103E6000F9F9204610BD4FF0FF30FBE72DE9F74F81
:103E700004460E4617469846D0F81C904FF0200A8C
:103E80008AF311884FF0000B154665B12A4631467A
:103E90002046FFF7EFFE034660B94146204600F09A
:103EA000C9F90028F1D0002383F31188781B03B0EF
:103EB000BDE8F08FB9F1000F03D001902046C8474C
:103EC000019B8BF31188ED1A1E448AF31188DCE7FD
:103ED000026843681143016003B11847704700004E
:103EE0001430FFF743BF00004FF0FF331430FFF7EB
:103EF0003DBF00003830FFF7B9BF00004FF0FF337F
:103F00003830FFF7B3BF00001430FFF709BF0000DF
:103F10004FF0FF311430FFF703BF00003830FFF7D8
:103F200063BF00004FF0FF323830FFF75DBF000085
:103F300000207047FFF7FEBC044B03600023C0E97C
:103F40000233436001230374704700BF60520008CE
:103F500010B52023044683F31188FFF755FD022393
:103F60002374002383F3118810BD000038B5C369A2
:103F700004460D461BB904210844FFF7A9FF294652
:103F800004F11400FFF7B0FE002806DA201D4FF4FC
:103F90008061BDE83840FFF79BBF38BD024B00226F
:103FA000C3E900339A607047083700200023037488
:103FB0008268054B1B6899689142FBD25A6803607E
:103FC00042601060586070470837002008B5202311
:103FD00083F31188037C032B05D0042B0DD02BB960
:103FE00083F3118808BD436900221A604FF0FF3344
:103FF0004361FFF7DBFF0023F2E7D0E900321360F3
:104000005A60F3E7002303748268054B1B689968C4
:104010009142FBD85A680360426010605860704754
:1040200008370020054B19690874186802681A607F
:104030005360186101230374FCF7D2BA08370020DB
:1040400030B54B1C0B4D87B0044610D02B690A4A83
:1040500001A800F019F92046FFF7E4FF049B13B113
:1040600001A800F04DF92B69586907B030BDFFF782
:10407000D9FFF8E708370020CD3F000838B50C4DD0
:1040800041612B6981689A689142044603D8BDE872
:104090003840FFF78BBF1846FFF7B4FF01232C61B0
:1040A000014623742046BDE83840FCF799BA00BFAA
:1040B00008370020044B1A681B6990689B68984277
:1040C00094BF0020012070470837002010B5084C2D
:1040D000236820691A6822605460012223611A74DF
:1040E000FFF790FF01462069BDE81040FCF778BA61
:1040F0000837002008B5FFF7DDFF18B1BDE808401C
:10410000FFF7E4BF08BD0000FFF7E0BFFEE70000D7
:1041100010B50C4CFFF742FF00F0A8F80A498022C6
:10412000204600F03DF8012344F8180C0374FFF713
:1041300093FB002383F3118862B60448BDE8104066
:1041400000F04EB83037002088520008985200081E
:1041500008B572B6034B586200F072FA00F01EFB0D
:10416000FEE700BF0837002000F004B9EFF311802C
:1041700020B9EFF30583202282F3118870470000F5
:1041800010B530B9EFF30584C4F3080414B180F31B
:10419000118810BDFFF7AEFF84F31188F9E7000026
:1041A00082600222028270478368A3F17C0243F896
:1041B0000C2C026943F83C2C426943F8382C074A1E
:1041C00043F81C2CC26843F8102C022203F8082C78
:1041D000002203F8072CA3F118007047F905000826
:1041E00010B5202383F31188FFF7DEFF002104467A
:1041F000FFF744FF002383F31188204610BD000021
:10420000024B1B6958610F20FFF70CBF08370020D5
:10421000202383F31188FFF7F3BF000008B50146A0
:10422000202383F311880820FFF70AFF002383F37C
:10423000118808BD49B1064B42681B6918605A6075
:10424000136043600420FFF7FBBE4FF0FF30704760
:10425000083700200368984206D01A680260506050
:1042600059611846FFF7A2BE70470000054B03F1E5
:104270001402C3E905224FF0FF310022C3E90712FF
:10428000704700BF0837002070B51C4EC0E90323FB
:1042900005460C4600F0FCFA334653F8142F9A42B8
:1042A0000DD13062C5E901242A600A2C2CBF001907
:1042B0000A30C6E90555BDE8704000F0D7BA316A4A
:1042C000431AE31838BF1C469368A34202D9081961
:1042D00000F0DAFA73699A6894420CD85A68AC60B4
:1042E0002B606A6015609A685D60121B9A604FF0DF
:1042F000FF33F36170BD1B68A41AECE70837002098
:1043000038B51B4C636998420DD0D0E90032136078
:104310005A6000228168C2609A680A449A604FF02D
:10432000FF33E36138BD2246036842F8143F0021A1
:1043300093425A60C16003D1BDE8384000F09EBA94
:104340009A688168256A0A449A6000F0A1FA636954
:104350009A68411B8A42E5D9AB181D1A092D206ABB
:1043600098BF01F10A02BDE83840104400F08CBA51
:10437000083700202DE9F041184C002704F11406FD
:10438000656900F085FA236AAA68C11A8A4215D8BD
:1043900013442362D5E9003213605A606369D5F88B
:1043A0000C80EF60B34201D100F068FA87F3118806
:1043B0002869C047202383F31188E1E76169B1428E
:1043C00009D013441B1ABDE8F0410A2B2CBFC018BA
:1043D0000A3000F059BABDE8F08100BF083700206C
:1043E0000C2303604FF0FF3070470000002070473F
:1043F000FEE70000704700004FF0FF3070470000FC
:10440000BFF34F8F024A1369DB03FCD4704700BF30
:104410000020024008B5094B1B7873B9FFF7F0FF85
:10442000074B5A69002ABFBF064A9A6002F18832D8
:104430009A601A6822F480621A6008BD90380020E1
:10444000002002402301674508B50B4B1B7893B948
:10445000FFF7D6FF094B5A6942F000425A611A68C9
:1044600042F480521A601A6822F480521A601A6864
:1044700042F480621A6008BD90380020002002409B
:104480007F289ABF00F58030C002002070470000EE
:104490004FF4006070470000802070477F2808B507
:1044A0000BD8FFF7EDFF00F500630268013204D17D
:1044B00004308342F9D1012008BD0020FCE7000050
:1044C0007F2838B5044626D8FFF750FEFFF798FF3F
:1044D000FFF7A0FF114BF3221A6102225A615A69B9
:1044E00042EAC4025A615A6942F480325A6105466E
:1044F0002046FFF785FF4FF40061FFF7C1FF00F092
:1045000049F92846FFF7A0FFFFF73AFE2046BDE82D
:104510003840FFF7C3BF002038BD00BF0020024075
:1045200040EA020313F007032DE9F04705460C4665
:10453000164606D0324B40F2FB221A600020BDE83E
:10454000F08781182F4A91420CD92D4A4FF44071BF
:104550001160F3E72B1D1B686268934208D1083E87
:1045600008350834072E19D92A6823689A42F1D0F1
:10457000FFF7FCFDFFF74EFFFFF742FF04F10801D4
:10458000214C4FF001084FF00009012EA1F108075E
:1045900008D8FFF759FFFFF7F3FD01E0002EE7D140
:1045A0000120CCE7C4F81480AA4651F8083C4AF828
:1045B000043B51F8043C6B60FFF722FFC4F81490F1
:1045C0002A6851F8083C9A420ED00D4B40F2263230
:1045D0001A600E4B1D600E4B1E600E4B1F60FFF7E6
:1045E00033FFFFF7CDFDA9E7DAF800A051F8043C4E
:1045F0009A4501F10801E8D1083E0835C5E700BF3A
:104600008C38002000000408002002408038002080
:104610008838002084380020084908B50B7828B174
:104620001BB9FFF7F7FE01230B7008BD002BFCD070
:10463000BDE808400870FFF707BF00BF90380020B2
:104640004FF480314FF0005000F0A6B870B582B042
:10465000FFF78CFD0E4E054600F01AF932689042C5
:1046600037BF0C4A0B49516814682EBFD1E900418D
:10467000013151600419034641F1000128460191BE
:104680003360FFF77DFD0199204602B070BD00BF89
:10469000943800209838002070B582B0FFF766FD8E
:1046A000104E054600F0F4F83268904237BF0E4ACB
:1046B0000D49516814682EBFD1E9004101315160A4
:1046C000041941F100010346284601913360FFF7C8
:1046D00057FD01994FF47A7200232046FBF768FDDD
:1046E00002B070BD943800209838002010B5024404
:1046F000064BD2B2904200D110BD441C00B253F818
:10470000200041F8040BE0B2F4E700BF502800405D
:10471000114B30B5D3F89040240409D4D3F890401D
:10472000C3F89040D3F8904044F40044C3F890405C
:104730000A4C236843F4807323600244084BD2B2CE
:10474000904200D130BD441C00B251F8045B43F8E4
:104750002050E0B2F4E700BF0010024000700040BB
:104760005028004007B5012201A90020FFF7BEFF35
:10477000019803B05DF804FB13B50446FFF7F2FFA0
:10478000A04205D0012201A900200194FFF7C0FF3B
:1047900002B010BD70470000704700007047000075
:1047A000074B45F255521A6002225A6040F6FF72DA
:1047B0009A604CF6CC421A60024B01221A70704784
:1047C00000300040A4380020034B1B781BB1034B82
:1047D0004AF6AA221A607047A43800200030004030
:1047E000054B1A6832B902F1804202F50432D2F860
:1047F00094201A60704700BFA0380020024B4FF48D
:104800000002C3F8942070470010024008B5FFF77B
:10481000E7FF024B1868C0F3407008BDA0380020C5
:1048200070470000FEE700000A4B0B480B4A90421D
:104830000BD30B4BDA1C121AC11E22F003028B425F
:1048400038BF00220021FDF713B953F8041B40F8CC
:10485000041BECE7445300083C3900203C3900209D
:104860003C3900207047000000F07AB84FF08043D8
:10487000002258631A610222DA6070474FF08043C9
:104880000022DA60704700004FF0804358637047A1
:104890004FF08043586A7047264B2748DA6A42F047
:1048A000070210B4DA62DA6A22F00702DA62DA6A20
:1048B000DA6C42F00702DA64DA6E42F00702DA6676
:1048C0004FF09042DB6E4FF0AA31002353604FF45B
:1048D000EE449160D0604FF6FF7050611462174C47
:1048E00053621460164CC2F80434C2F80814C2F8BB
:1048F0000C444FF6F774C2F814444FF0EE44C2F87B
:10490000204447F29974C2F824440E4CC2F8004483
:10491000C2F80438C2F80818C2F80C38C2F81408F3
:10492000C2F82038C2F82438C2F800385DF8044BC9
:1049300000F09CB80010024050010024A0010028A3
:104940001050500050A0AA0008B500F035FAFFF74B
:10495000DFFBBDE80840FFF743BF000070470000E1
:104960000F4B9A6D42F001029A659A6F42F0010274
:104970009A670C4A9B6F936843F0010393604FF072
:1049800080434F229A624FF0FF32DA6200229A612E
:104990005A63DA605A6001225A611A60704700BF98
:1049A00000100240002004E04FF0804208B5116979
:1049B000D3680B40D9B2C9439B07116107D52023A7
:1049C00083F31188FFF7D0FB002383F3118808BD20
:1049D00008B5244B4FF0FF319A6A99629A6A002217
:1049E0009A62986AD86A60F00700D862D86A00F0C4
:1049F0000700D862D86A186B1963186B1A63186BB2
:104A0000986B60F080509863986B00F080509863CA
:104A1000986BD86BD963D86BDA63D86B186C196450
:104A2000196C1A64196C996D41F080519965996FF0
:104A300041F080519967996FD3F8901011F4407F3D
:104A40001EBF4FF48031C3F89010C3F89020D3F804
:104A50009020C3F8902000F07FF9034B00225A60A9
:104A600008BD00BF0010024000700040394B3A4AB8
:104A70009A6501221A601A689007FCD500229A6094
:104A80009A6812F00C0FFBD1344A4FF40071116098
:104A900051694905FCD41A6842F480321A601A68D8
:104AA0009203FCD52D490A6842F480720A602C4AB0
:104AB0004FF4E06111601A6842F060021A601A68EF
:104AC00042F008021A601A689007FCD59A6812F042
:104AD0000C0FFBD1D3F8942042F4C062C3F89420A9
:104AE000204ADA601A6842F080721A601A689101EE
:104AF000FCD51D4A1A611A6842F080621A601A6871
:104B00001201FCD500229A601549184AC3F8882082
:104B10000A6822F0070242F004020A600A6802F002
:104B20000702042AFAD19A6842F003029A609A684E
:104B300002F00C020C2AFAD11A6E42F001021A6637
:104B4000D3F8802042F00102C3F88020D3F88030EF
:104B5000704700BF001002400004001000700040C9
:104B60000020024003140001000C100055550134D0
:104B7000074A08B5536903F00103536123B1054A9D
:104B800013680BB150689847BDE80840FEF788BE2F
:104B900000040140A8380020074A08B5536903F013
:104BA0000203536123B1054A93680BB1D06898475B
:104BB000BDE80840FEF774BE00040140A83800209C
:104BC000074A08B5536903F00403536123B1054A4A
:104BD00013690BB150699847BDE80840FEF760BE05
:104BE00000040140A8380020074A08B5536903F0C3
:104BF0000803536123B1054A93690BB1D069984703
:104C0000BDE80840FEF74CBE00040140A838002073
:104C1000074A08B5536903F01003536123B1054AED
:104C2000136A0BB1506A9847BDE80840FEF738BEDA
:104C300000040140A8380020164B10B55C6904F44C
:104C400078725A61A30604D5134A936A0BB1D06AED
:104C50009847600604D5104A136B0BB1506B984708
:104C6000210604D50C4A936B0BB1D06B9847E20533
:104C700004D5094A136C0BB1506C9847A30504D5B1
:104C8000054A936C0BB1D06C9847BDE81040FEF715
:104C900007BE00BF00040140A8380020194B10B522
:104CA0005C6904F47C425A61620504D5164A136DAE
:104CB0000BB1506D9847230504D5134A936D0BB182
:104CC000D06D9847E00404D50F4A136E0BB1506EB7
:104CD0009847A10404D50C4A936E0BB1D06E984747
:104CE000620404D5084A136F0BB1506F9847230430
:104CF00004D5054A936F0BB1D06F9847BDE81040BB
:104D0000FEF7CEBD00040140A838002008B50348D6
:104D1000FEF7E8FEBDE80840FEF7C2BD04350020FE
:104D200008B50348FEF7DEFEBDE80840FEF7B8BD53
:104D30007035002008B50348FEF7D4FEBDE80840F2
:104D4000FEF7AEBDDC35002008B5FFF72DFEBDE84F
:104D50000840FEF7A5BD0000062108B50846FEF78D
:104D600045FF06210720FEF741FF06210820FEF738
:104D70003DFF06210920FEF739FF06210A20FEF734
:104D800035FF06211720FEF731FF06212820FEF708
:104D90002DFF07211C20FEF729FF0C212520FEF7FF
:104DA00025FF0C212620FEF721FFBDE808400C213D
:104DB0002720FEF71BBF000008B5FFF709FE00F033
:104DC00009F8FFF7B7F8FFF7C9FDBDE80840FFF79E
:104DD0004BBD00000023054A19460133102BC2E9E0
:104DE000001102F10802F8D1704700BFA838002076
:104DF0000B460146184600F025B8000000F038B810
:104E0000012838BF012010B50446204600F028F8DC
:104E100030B900F007F808B900F00CF88047F4E763
:104E200010BD0000024B1868BFF35B8F704700BFD6
:104E30002839002008B5062000F032F90120FFF7DC
:104E4000D7FA000010B5054C13462CB10A460146AE
:104E50000220AFF3008010BD2046FCE700000000F8
:104E6000024B0146186800F089B800BF28110020E5
:104E7000024B0146186800F035B800BF2811002029
:104E800010B501390244904201D1002005E00378B9
:104E900011F8014FA34201D0181B10BD0130F2E7F9
:104EA0002DE9F041A3B1C91A17780144044603F172
:104EB000FF3C8C42204601D9002009E00578BD4224
:104EC00004F10104F5D10CEB0405D618A54201D17B
:104ED000BDE8F08115F8018D16F801EDF045F5D02B
:104EE000E7E7000037B5002944D051F8043C0190B1
:104EF000002BA1F10404B8BFE41800F0F5F81E4A35
:104F00000198136833B96360146003B0BDE83040A2
:104F100000F0F0B8A34208D9256861198B4201BF9F
:104F200019685B6849192160EDE71A465B680BB1A7
:104F3000A342FAD911685518A5420BD1246821441F
:104F40005418A3421160E0D11C685B68536021448F
:104F50001160DAE702D90C230360D6E725686119EE
:104F60008B4204BF19685B68636004BF4919216004
:104F70005460CAE703B030BD2C390020F8B5CD1C11
:104F800025F0030508350C2D38BF0C25002D0646ED
:104F900001DBA94203D90C2333600020F8BD00F0E7
:104FA000A3F821490A6814469CB9204F3B6823B9ED
:104FB0002146304600F03CF838602946304600F083
:104FC00037F8431C23D10C233360304600F092F8AD
:104FD000E3E723685B1B17D40B2B03D923601C4426
:104FE000256004E06368A2420CBF0B60536030464A
:104FF00000F080F804F10B00231D20F00700C21A16
:10500000CCD01B1AA350C9E722466468CCE7C41C65
:1050100024F00304A042E3D0211A304600F008F83F
:105020000130DDD1CFE700BF2C390020303900201E
:1050300038B5064D0023044608462B60FFF7D0F92B
:10504000431C02D12B6803B1236038BD34390020E2
:105050001F2938B504460D4604D9162303604FF0C6
:10506000FF3038BD426C12B152F821304BB92046A6
:1050700000F030F82A4601462046BDE8384000F0EE
:1050800017B8012B0AD0591C03D116230360012045
:10509000E7E7002442F82540284698470020E0E74B
:1050A000024B01461868FFF7D3BF00BF281100204C
:1050B00038B5074D00230446084611462B60FFF71C
:1050C0009BF9431C02D12B6803B1236038BD00BF9C
:1050D00034390020FFF78AB9034611F8012B03F891
:1050E000012B002AF9D17047014800F009B800BF30
:1050F00038390020014800F005B800BF38390020D9
:1051000070470000704700006F72672E617264750F
:1051100070696C6F742E4D6174656B4C3433312D36
:1051200050657269706800004E6F20617070207366
:1051300069670A00426164206677206C656E677457
:10514000682025750A0042616420626F6172645FA5
:1051500069642025752073686F756C642062652012
:1051600025750A0042616420667720646573637266
:105170006970746F72206C656E6774682025750A9B
:1051800000426164206170702043524320307825D2
:105190003038783A307825303878203078253038F3
:1051A000783A3078253038780A00476F6F64206687
:1051B00069726D776172650A0040A2E4F1646891DA
:1051C0000600000053544D33324C343F3F00000082
:1051D0000435002070350020DC3500204261642059
:1051E00043414E496661636520696E6465782E00AF
:1051F000800000000080000000008000000000002F
:10520000000000009D1B000889230008E922000817
:10521000AD1B0008E51B0008E11D0008B11B0008DC
:10522000C51B0008B51B0008B91B0008C11B0008FE
:10523000BD1B0008091D0008C91B0008F525000852
:10524000D91B0008DD1C00080096000000000000CB
:10525000000000000000000000000000000000004E
:1052600000000000FD3E0008E93E0008253F000860
:10527000113F00081D3F0008093F0008F53E0008E7
:10528000E13E0008313F00086D61696E00000000DA
:1052900069646C65000000009052000848370020E7
:1052A00080380020010000000D41000800000000CF
:1052B00030AFFF7F01000000260400000000000066
:1052C0000060030000000000FE2A0100D20400007C
:1052D000FF00000000000000C45100083F00000073
:1052E0002C11002000000000000000000000000061
:1052F00000000000000000000000000000000000AE
:10530000000000000000000000000000000000009D
:10531000000000000000000000000000000000008D
:10532000000000000000000000000000000000007D
:10533000000000000000000000000000000000006D
:045340000000000069
:00000001FF
