:020000040800F2
:1000000000070020F5040008292C0008A92B00088F
:10001000012C0008A92B0008D52B0008F7040008C4
:10002000F7040008F7040008F70400087D3A000808
:10003000F7040008F7040008F7040008F7040008B4
:10004000F7040008F7040008F7040008F7040008A4
:10005000F7040008F7040008AD4C0008D54C000870
:10006000FD4C0008254D00084D4D0008F704000820
:10007000F7040008F7040008F7040008F704000874
:10008000F7040008F7040008F7040008F704000864
:10009000F70400082528000835280008754D0008D9
:1000A000F7040008F7040008F7040008F704000844
:1000B0005D4E0008F7040008F7040008F704000884
:1000C000F7040008F7040008F7040008F704000824
:1000D000F7040008494E0008F7040008F704000878
:1000E000D94D0008F7040008F7040008F7040008D9
:1000F000F7040008F7040008F7040008F7040008F4
:10010000F7040008F7040008F7040008F7040008E3
:10011000F7040008F7040008F7040008F7040008D3
:10012000F7040008F7040008F7040008F7040008C3
:10013000F7040008F7040008F7040008F7040008B3
:10014000F7040008F7040008F7040008F7040008A3
:10015000F7040008F7040008F7040008F704000893
:10016000F7040008F7040008F7040008F704000883
:10017000F7040008F7040008F7040008F704000873
:10018000F7040008F7040008F7040008F704000863
:10019000F7040008F7040008F7040008F704000853
:1001A000F7040008F7040008F7040008F704000843
:1001B000F7040008F7040008F7040008F704000833
:1001C000F7040008F7040008F7040008F704000823
:1001D000F7040008F7040008F7040008F704000813
:1001E000611800080000000000000000000000008E
:1001F00053B94AB9002908BF00281CBF4FF0FF318E
:100200004FF0FF3000F074B9ADF1080C6DE904CE89
:1002100000F006F8DDF804E0DDE9022304B07047E1
:100220002DE9F047089D04468E46002B4DD18A42A9
:10023000944669D9B2FA82F252B101FA02F3C2F1DC
:10024000200120FA01F10CFA02FC41EA030E94406D
:100250004FEA1C48210CBEFBF8F61FFA8CF708FB8E
:1002600016E341EA034306FB07F199420AD91CEB66
:10027000030306F1FF3080F01F81994240F21C8198
:10028000023E63445B1AA4B2B3FBF8F008FB1033E0
:1002900044EA034400FB07F7A7420AD91CEB040415
:1002A00000F1FF3380F00A81A74240F207816444E5
:1002B000023840EA0640E41B00261DB1D44000236A
:1002C000C5E900433146BDE8F0878B4209D9002DCE
:1002D00000F0EF800026C5E9000130463146BDE858
:1002E000F087B3FA83F6002E4AD18B4202D38242C2
:1002F00000F2F980841A61EB030301209E46002D71
:10030000E0D0C5E9004EDDE702B9FFDEB2FA82F2C5
:10031000002A40F09280A1EB0C014FEA1C471FFA23
:100320008CFE0126200CB1FBF7F307FB131140EA0A
:1003300001410EFB03F0884208D91CEB010103F1D7
:10034000FF3802D2884200F2CB804346091AA4B299
:10035000B1FBF7F007FB101144EA01440EFB00FE6D
:10036000A64508D91CEB040400F1FF3102D2A645D2
:1003700000F2BB800846A4EB0E0440EA03409CE771
:10038000C6F12007B34022FA07FC4CEA030C20FA1E
:1003900007F401FA06F31C43F9404FEA1C4900FA3E
:1003A00006F3B1FBF9F8200C1FFA8CFE09FB1811BB
:1003B00040EA014108FB0EF0884202FA06F20BD92E
:1003C0001CEB010108F1FF3A80F08880884240F27E
:1003D0008580A8F102086144091AA4B2B1FBF9F0C2
:1003E00009FB101144EA014100FB0EFE8E4508D9BD
:1003F0001CEB010100F1FF346CD28E456AD9023842
:10040000614440EA0840A0FB0294A1EB0E01A14226
:10041000C846A64656D353D05DB1B3EB080261EB94
:100420000E0101FA07F722FA06F3F1401F43C5E96E
:10043000007100263146BDE8F087C2F12003D840A4
:100440000CFA02FC21FA03F3914001434FEA1C47E6
:100450001FFA8CFEB3FBF7F007FB10360B0C43EAD8
:10046000064300FB0EF69E4204FA02F408D91CEB88
:10047000030300F1FF382FD29E422DD90238634486
:100480009B1B89B2B3FBF7F607FB163341EA034126
:1004900006FB0EF38B4208D91CEB010106F1FF3875
:1004A00016D28B4214D9023E6144C91A46EA00466C
:1004B00038E72E46284605E70646E3E61846F8E6FE
:1004C0004B45A9D2B9EB020864EB0C0E0138A3E747
:1004D0004646EAE7204694E74046D1E7D0467BE728
:1004E000023B614432E7304609E76444023842E7A0
:1004F000704700BF02E000F000F8FEE772B63A482D
:1005000080F30888394880F3098839484EF6085145
:10051000CEF20001086040F20000CCF200004EF67E
:100520003471CEF200010860BFF34F8FBFF36F8FBD
:1005300040F20000C0F2F0004EF68851CEF2000109
:100540000860BFF34F8FBFF36F8F4FF00000E1EEF5
:10055000100A4EF63C71CEF200010860062080F3CE
:100560001488BFF36F8F04F033FA04F00FFA04F02D
:1005700059FA4FF055301F491B4A91423CBF41F890
:10058000040BFAE71C49194A91423CBF41F8040B9D
:10059000FAE71A491A4A1B4B9A423EBF51F8040B1C
:1005A00042F8040BF8E700201749184A91423CBF73
:1005B00041F8040BFAE704F0EDF904F079FA144C71
:1005C000144DAC4203DA54F8041B8847F9E700F0F5
:1005D00041F8114C114DAC4203DA54F8041B884722
:1005E000F9E704F0D5B9000000070020002300203F
:1005F000000000080001002000070020B852000899
:10060000002300208C23002090230020B84F0020DE
:10061000E0010008E4010008E4010008E40100082A
:100620002DE9F04F2DED108AC1F80CD0C3689D461E
:10063000BDEC108ABDE8F08F002383F311882846B3
:10064000A047002003F098FEFEE703F011FE00DF54
:10065000FEE70000F8B504F03BF9074604F08CF91A
:100660000546A0BB1F4B9F4231D001339F4231D082
:100670001D4B27F0FF029A422FD1F8B200F036FD51
:100680002E4642F2107400F03BFF08B100242646CB
:1006900000F032FD08B90646044635B1134B9F42BF
:1006A00003D004F061F900242646002004F01AF972
:1006B0000EB100F063F801F049FA00F045FF01F0D7
:1006C00035F9204600F0AEF800F058F8F9E72E466C
:1006D0000024D8E704460126D5E706464FF47A748D
:1006E000D1E700BF010007B0000008B0263A09B00A
:1006F00008B501F0EDF8A0F120035842584108BDBB
:1007000007B541F21203022101A8ADF8043001F04F
:10071000FDF803B05DF804FB10B5202383F31188C6
:100720001248C3680BB103F09FFE114A0F48002323
:100730004FF47A7103F05CFE002383F311880D4CB3
:10074000236813B12368013B2360636813B16368B6
:10075000013B6360084B1B7833B9636823B90220FF
:1007600001F082F93223636010BD00BF90230020A6
:1007700019070008AC240020A423002038B5234A20
:10078000234B1968013140D004339342F9D1214CF5
:100790001F4DD4F80428AA4237D31F4B9B6803F19E
:1007A000006303F5F0439A422FD204F0AFF804F04F
:1007B000C1F8002001F0D4F8184B0220187001F0A5
:1007C0004BF9174B9A6D00229A65996F9A67996F4A
:1007D000D96DDA65D96FDA67D96F196E1A66D3F8F1
:1007E0008010C3F88020D3F8803072B64FF0E02339
:1007F0002021C3F8085DD4F80038D4F8042881F328
:1008000011889D4683F30888104738BD207800087A
:10081000007800080070000800230020A4230020B6
:10082000001002402DE9F04F93B0AC4B0090202215
:10083000FF210AA89D6801F033F9A94A1378A3B9EA
:10084000A8480121C3601170202383F31188C36875
:100850000BB103F009FEA44AA24800234FF47A71B9
:1008600003F0C6FD002383F31188009B9F4A03B168
:1008700013609F49009C00230B70536098469B4671
:100880001E469A46012001F0E7F824B1974B1B68F9
:10089000002B00F01C82002001F01AF80390039B4B
:1008A000002B01DA00F096FE039B002BEDDB01200C
:1008B00001F0CAF8039B213B162BE3D801A252F8A2
:1008C00023F000BF2109000849090008DD090008DC
:1008D000850800088508000885080008710A0008D6
:1008E000430C00085D0B0008BF0B0008E70B000875
:1008F0000D0C0008850800081F0C0008850800087A
:10090000910C0008C109000885080008D50C0008F2
:100910002D090008C109000885080008BF0B000860
:100920000220FFF7E5FE002840F0FB81009B02213A
:10093000B8F1000F08BF1C4605A841F21233ADF80C
:10094000143000F0E3FF9DE74FF47A7000F0C0FF31
:10095000071EEBDB0220FFF7CBFE0028E6D0013FAD
:10096000052F00F2E081DFE807F0030A0D101336CF
:1009700005230593042105A800F0C8FF17E0574898
:100980000421F9E75B480421F6E75B480421F3E71B
:100990004FF01C09484600F0E5FF09F104090590F5
:1009A000042105A800F0B2FFB9F12C0FF2D101200B
:1009B00000FA07F747EA0B0B5FFA8BFB4FF0000AD0
:1009C00001F0BAF826B10BF00B030B2B08BF002483
:1009D000FFF796FE56E749480421CDE7002EA5D043
:1009E0000BF00B030B2BA1D10220FFF781FE074672
:1009F00000289BD001203E4E00F0B2FF0220307054
:100A000001F02AF84FF000085FFA88F9484600F034
:100A1000B9FF044690B1484600F0C4FF08F1010850
:100A20000028F1D1B846044641F21213022105A86C
:100A3000ADF814303E4600F069FF23E701230220A1
:100A4000337001F001F82546244B9B68AB4207D96F
:100A5000284600F087FF013040F068810435F3E755
:100A6000234B00251D70214BB8465D603E46A7E72D
:100A7000002E3FF45BAF0BF00B030B2B7FF456AF54
:100A80001B4B0220187000F0E7FF322000F020FF1F
:100A9000B0F10009FFF64AAF19F003077FF446AF43
:100AA0000E4A926809EB050393423FF63FAFB9F552
:100AB000807F3FF73BAF124B0193B94522DD4FF4E6
:100AC0007A7000F005FF0390039A002AFFF62EAF1C
:100AD000019B039A03F8012B0137EDE70023002067
:100AE000A82400209023002019070008AC2400202F
:100AF000A423002004230020082300200C2300202E
:100B0000A8230020C820FFF7F3FD074600283FF484
:100B10000DAF1F2D11D8C5F120024A450AAB25F0B3
:100B2000030028BF4A4683490192184400F0A6FFFB
:100B3000019A8048FF2100F0B3FF4FEAA9037D49E5
:100B40000193C9F38702284600F0B2FF0646002849
:100B50003FF46AAF019B05EB830531E70220FFF705
:100B6000C7FD00283FF4E2AE00F038FF00283FF454
:100B7000DDAE0027B946704B9B68BB4218D91F2FCA
:100B800011D80A9B01330ED027F0030312AA134495
:100B900053F8203C05934846042205A902F052F878
:100BA00004378146E7E7384600F0DCFE0590F2E7BF
:100BB000CDF81490042105A800F0A8FE00E700235A
:100BC000642104A8049300F097FE00287FF4AEAEE1
:100BD0000220FFF78DFD00283FF4A8AE049800F036
:100BE000F3FE0590E6E70023642104A8049300F0D7
:100BF00083FE00287FF49AAE0220FFF779FD0028DB
:100C00003FF494AE049800F0E1FEEAE70220FFF71B
:100C10006FFD00283FF48AAE00F0F0FEE1E702200D
:100C2000FFF766FD00283FF481AE05A9142000F00F
:100C3000EBFE04210746049004A800F067FE394645
:100C4000B9E7322000F044FE071EFFF66FAEBB0787
:100C50007FF46CAE384A926807EB0A0393423FF682
:100C600065AE0220FFF744FD00283FF45FAE27F099
:100C700003075744BA453FF4A3AE504600F072FE56
:100C80000421059005A800F041FE0AF1040AF1E7ED
:100C90004FF47A70FFF72CFD00283FF447AE00F0C8
:100CA0009DFE002844D00A9B01330BD008220AA9DC
:100CB000002000F0FDFE00283AD02022FF210AA8E3
:100CC00000F0EEFEFFF71CFD1C4803F05BFB13B0C9
:100CD000BDE8F08F002E3FF429AE0BF00B030B2B79
:100CE0007FF424AE0023642105A8059300F004FEE0
:100CF000074600287FF41AAE0220FFF7F9FC814670
:100D000000283FF413AEFFF7FBFC41F2883003F0FC
:100D100039FB059800F026FF4E4600F00DFF3C46DB
:100D2000B0E506464CE64FF0000AFFE5B8467BE624
:100D3000374679E6A823002000230020A086010082
:100D4000094A136849F2690099B21B0C00FB013390
:100D50001360064B186844F2506182B2000C01FB2C
:100D60000200186080B27047142300201023002076
:100D700010B500211022044600F092FE034B03CB75
:100D8000206061601868A06010BD00BF9075FF1FF3
:100D90002DE9F043224DBBB001F04EFFAB6840F2AD
:100DA000ED22C31A934232D906AFA8602B462822FF
:100DB0000021384602F01EFC05F10E0000F068FE2E
:100DC000002604465FFA80F905F10E08F3B2F1003F
:100DD000994501F1280107D908EB06030822384696
:100DE00002F008FC0136F1E708230122CDE90232C6
:100DF00005340C4B0193A4B230230093CDE9047465
:100E000005A3D3E90023297B074802F00BFA3BB086
:100E1000BDE8F083AFF3008078F6339F93CACD8DA1
:100E2000A8490020B5490020CC34002070B50D46FB
:100E300014461E4602F08CF950B9022E10D1012C36
:100E40000ED112A3D3E90023C5E90023012007E056
:100E5000282C10D005D8012C09D0052C0FD000204B
:100E600070BD302CFBD10BA3D3E90023ECE70BA31F
:100E7000D3E90023E8E70BA3D3E90023E4E70BA3BE
:100E8000D3E90023E0E700BFAFF30080401DA120BD
:100E900026812A0B78F6339F93CACD8D9E6AC42192
:100EA000818A46EE26417272DF25D7B7F017304AA5
:100EB00039059E5613B504462346084620220021D4
:100EC000019002F097FB22790198032A234628BF5C
:100ED000032203F8042F2021022202F08BFB627907
:100EE0000198072A234628BF072203F8052F22214D
:100EF000032202F07FFBA2790198072A234628BF2C
:100F0000072203F8062F2521032202F073FB019824
:100F100004F108031022282102F06CFB382002B0F3
:100F200010BD00002DE9F04FADF5017D21AD0EAEF5
:100F300040F2751280460F4622A80021296000F079
:100F4000AFFD48220021304600F0AAFD01F074FEFA
:100F5000564B4FF47A72B0FBF2F0186093E807003A
:100F6000012386E807000DF15A003382FFF700FFE6
:100F700041F20413338407AB18464D4904F056F888
:100F8000182230642946304686F83C20FFF792FF4D
:100F900012AB044601460822284602F02BFB082229
:100FA000A1180DF14903284602F024FB0DF14A0374
:100FB000082204F11001284602F01CFB13AB20228A
:100FC00004F11801284602F015FB14AB402204F18D
:100FD0003801284602F00EFB16AB082204F1780116
:100FE000284602F007FB0DF15903082204F18001A5
:100FF000284602F0FFFA04F1880A0DF15A0904F5B7
:10100000847B4B465146082228460AF1080A02F022
:10101000F1FAD34509F10109F3D11BAB0822594676
:10102000284602F0E7FA04F588744FF0000996F8B4
:1010300034304B450AD9B36B21464B44082228462D
:1010400002F0D8FA083409F10109F0E74FF000097D
:1010500096F83C304B4504EBC90108D9336C0822A3
:101060004B44284602F0C6FA09F10109F0E70023D3
:101070000393BB7E0293073107F119030193C1F378
:10108000CF010123CDE904510093F97E05A3D3E9F3
:101090000023404602F0C6F80DF5017DBDE8F08F53
:1010A000AFF300809E6AC421818A46EEB4240020FA
:1010B0005C50000810B50A4B0A4A1A6003F58053C9
:1010C00093F848203AB95C6C2CB1204601F032FC10
:1010D000204603F015FFBDE81040034801F02ABC8C
:1010E000F83400203C51000828450020014B1870BE
:1010F000704700BFC0240020F0B5334B1C7B85B087
:1011000034B1324B0E221A810024204605B0F0BDC6
:101110002F4A1068516802AB03C308232D492E489B
:101120000DEB030203F014FF054630B9274B2B48A3
:101130000A221A8101F086FBE6E70169B1F5623FF8
:1011400006D9224B26480B221A8101F07BFBDCE7F3
:10115000438B40F21142934207D01C490C20088176
:101160001946204801F06EFBCFE71F4A024402F106
:101170001003994204D2154B1C4810221A81E4E74F
:1011800010398E1A2046144901F05CFD324607469C
:1011900005F11801204601F055FDAB689F4202D1D0
:1011A000EB6898420AD0094B0D221A810090D5E9CC
:1011B00002123B460E4801F045FBA5E70D4801F041
:1011C00041FB0124A1E700BFA8490020B42400206E
:1011D00009510008DC8703000078000878500008F7
:1011E00084500008965000080888FFF7B4500008A3
:1011F000D1500008FA5000082DE9F04FADB006AF0D
:1012000080460C4601F0A4FF054600285AD1237EF3
:10121000022B1BD1E38A012B18D101F00DFD0646EC
:10122000FFF78EFD03464FF4C870DFF8D092B3FB92
:10123000F0F206F5167602FB103316FA83F3C9F8BE
:101240000030E37E33B9A84B00221A709C37BD46AC
:10125000BDE8F08FA38AEEB2013BB34205F1010570
:101260000BD93B1D1E44E90000960023082201F023
:10127000F801204602F082F8ECE707F11400FFF7CE
:1012800077FD324607F11401381D03F051FE0028A6
:10129000D9D10F2E08D8944B1E70D9F80030A3F581
:1012A0001673C9F80030D1E7FB1CF87001460093B3
:1012B00007220346204602F061F8F978404601F023
:1012C0003FFFC3E7E38A282B26D010D8012B1ED07E
:1012D000052BBBD1BFF34F8F8449854BCA6802F4FD
:1012E000E0621343CB60BFF34F8F00BFFDE7302BAD
:1012F000ACD1637E7F4D01336A7BDBB29342E9461A
:1013000003D1E27E2B7B9A4265D0CD469EE72146F3
:101310004046FFF707FE99E7A38A013B9BB2C92B22
:1013200094D8744D2E7B26BB05F10C030093082244
:1013300033463146204602F021F8731CF2B2D90040
:101340001E46A38A013B9A4205DA0E322A440092D5
:1013500000230822EEE700230022C5E90023002332
:10136000AB6085F8D730C5F8D8302B7B0BB9E37E5E
:101370002B73002507F114093B1D08222946484616
:10138000C7E90155FD6002F035F93B7A05F1010A24
:10139000AB424FEACA0608D9FB6808222B44314603
:1013A000484602F027F95546EFE7C6F3CF06E17E3F
:1013B000CDE9049600230393A37E029319342823D6
:1013C0000093019446A3D3E90023404601F02AFF8D
:1013D000FFF7DEFC3AE74FF0000807F11403A7F827
:1013E00014801022009341460123204601F0C6FFDD
:1013F000A68A023EB6B2F31C9B109B000733DB08A3
:10140000A9EBC3039D460DF1180A1FFA88F34FEAB2
:10141000C801B34201F110010AD20AEB080300939C
:1014200008220023204601F0A9FF08F10108ECE79B
:1014300095F8D70000F0A6FAD5F8D83004461BB9C5
:1014400095F8D70000F0AEFAD5F8D83033449C4276
:1014500004D295F8D700013000F0A4FA4FEA960BB9
:101460004FF000081FFA88F18B45D5E9003209D901
:101470000AEB880103EB8800012200F019FB08F158
:101480000108EFE7F31842F10002C5E90032D5F890
:10149000D83095F8D70006EB0308C5F8D88000F0DF
:1014A00071FA804509D395F8D730D5F8D8000133C3
:1014B000001B85F8D730C5F8D800FF2E08D80023C8
:1014C0002B7300F08BFAFFF717FE08B1FFF756F900
:1014D0002B68094A9B0A013313810023AB6014E790
:1014E00026417272DF25D7B7C534002000ED00E039
:1014F0000400FA05A8490020B4240020C8340020C4
:1015000010B54FF000540C4B22689A4211D10B4B8E
:10151000627D1A700A48237D03730A49C9220E307E
:1015200000F0ACFAE0220021204600F0B9FA0120D8
:1015300010BD0020FCE700BF9AAD44C5C0240020C8
:10154000A84900201600002037B5194D19491A483E
:1015500002236B710022012300F0A6FD00230193FA
:10156000164B174900931748174B4FF4805201F060
:10157000C1FD164B197811B1124801F0E1FD01F0DF
:101580005BFB0446FFF7DCFB4FF4C873B0FBF3F2E0
:1015900002FB130304F5167010FA83F00C4B18606D
:1015A00003F0EAF908B10F232B8103B030BD00BF6F
:1015B000B424002040420F00F83400202D0E000813
:1015C000C4240020CC340020F9110008C0240020DD
:1015D000C83400202DE9F04F2DED028B97A7D7E9F5
:1015E00000670FF26029D9E900898E4C95B0DFF8C9
:1015F0005CA2DFF85CB2204601F078FE034650B3EF
:101600000025CDE911551095ADF84C50027B8DF8B1
:101610004C209968406811AA03C21B6843F000433C
:10162000109301F00BFB10EB0A0241F1000300954F
:1016300010A9584600F0F4FAA8427B4A05DD20467E
:1016400001F058FE784A1570D5E71378072B00F2A1
:10165000BA80013313700DAD9FED708B0023DFF85E
:10166000F0B10C93ADF83C300D936B6000230DF19D
:1016700025028DED008B4FF0010A09A958468DF81F
:1016800025308DF824A001F073F89DF82420002364
:10169000002A40F09C80204601F05AFD05460028B3
:1016A00047D1DFF8B0B101F0C7FADBF8003098425B
:1016B0003FD301F0C1FA0790FFF742FB079A4FF4BE
:1016C000C87302F51672B0FBF3F101FB130312FAB3
:1016D00083F3CBF80030DFF880B19BF8001007915E
:1016E000002914BF2B46534610A88DF83030FFF761
:1016F0003FFB0799C1F11002D2B2062A10AB28BFF6
:10170000062219440DF13100079200F0B7F9079A4B
:101710000CAB0393182302930132444BD2B2CDE9B0
:1017200000A304923B463246204601F013FD8BF89D
:10173000005001F081FA3E4A3E4D1368C31AB3F5DA
:101740007A7F33D3106001F079FA02460B462046C7
:1017500001F0DAFD204601F0FBFC38B32B7BDFF80B
:10176000FCA0002B14BF032302238AF8053001F0EC
:1017700063FA0DF1400B4FF47A735946B0FBF3F066
:10178000CAF800005046FFF795FB18230730029374
:10179000294B0193C0F3CF0040F25513CDE903B0BC
:1017A000009342464B46204601F0D4FC2B7B2BB1E4
:1017B000FFF7EEFA2B7B002B7FF419AF15B0BDECD1
:1017C000028BBDE8F08F204601F094FD43E74FF017
:1017D000904110A84A6982F010024A61194610220D
:1017E00000F05EF90DF126030AAA0CA9584600F094
:1017F00025FB95E8030011AB83E803009DF83C301E
:101800008DF84C300C9B109310A9DDE90A2320467B
:1018100001F038FF2AE700BFAFF3008000000000AE
:1018200000000000CC3400208D4A0020C434002089
:10183000884A0020A84900208C4A0020401DA12091
:1018400026812A0BF1C6A7C1D068080F40420F00BD
:10185000F8340020C8340020C5340020B42400200F
:1018600008B5054800F08EFBBDE80840034A04496E
:10187000002003F03FBB00BFF8340020E04A002006
:10188000B510000870B50F4B1B780133DBB2012B8C
:101890000C4611D80C4D29684FF47A730E6AA2FBDE
:1018A0000332014622462846B047844204D1074B02
:1018B00000221A70012070BD4FF4FA7002F062FD30
:1018C0000020F8E718230020E44A0020D44A002032
:1018D00007B50023024601210DF107008DF80730FE
:1018E000FFF7D0FF20B19DF8070003B05DF804FBBF
:1018F0004FF0FF30F9E700000A4608B50421FFF772
:10190000C1FF80F00100C0B2404208BD30B4054CB8
:101910002368DD69044B0A46AC460146204630BCCC
:10192000604700BFE44A0020A086010070B502F0C5
:1019300061FE094E094D30800024286833888342B7
:1019400008D902F053FE2B6804440133B4F5F04F7C
:101950002B60F2D370BD00BFD64A0020904A002011
:1019600002F008BF00F1006000F5E040D0F8000888
:101970007047000000F10060920000F5F04002F0B6
:101980007DBE0000054B1A68054B1B889B1A8342DD
:1019900002D9104402F02ABE00207047904A00206D
:1019A000D64A002038B5074D04462868204402F086
:1019B00023FE28B928682044BDE8384002F02EBE36
:1019C00038BD00BF904A00200020704700F1005051
:1019D000A0F51040D0F8900570470000064991F836
:1019E000243033B10023086A81F824300822FFF73D
:1019F000C1BF0120704700BF944A0020014B186806
:101A0000704700BF002004E070B50E4B5C6893F98E
:101A10000860421E0A44013C0B46934207D214F967
:101A2000015F581C2DB100F8015C0346F5E718462C
:101A300005E02C2482421C7001D9981C5E70401A6B
:101A400070BD00BF1C230020022802BF4FF090434E
:101A500010229A6170470000022802BF4FF09043A5
:101A60004FF480129A617047022801BF4FF09042F4
:101A7000536983F0100353617047000010B50023D1
:101A8000934203D0CC5CC4540133F9E710BD00008D
:101A900003460246D01A12F9011B0029FAD17047F9
:101AA00002440346934202D003F8011BFAE7704751
:101AB0002DE9F8431F4D144695F824200746884623
:101AC00052BBDFF870909CB395F824302BB92022DC
:101AD000FF2148462F62FFF7E3FF95F82400C0F18D
:101AE0000802A24228BF2246D6B24146920005EB28
:101AF0008000FFF7C3FF95F82430A41B1E44F6B204
:101B0000082E17449044E4B285F82460DBD1FFF737
:101B100065FF0028D7D108E02B6A03EB82038342DC
:101B2000CFD0FFF75BFF0028CBD10020BDE8F883C2
:101B30000120FBE7944A0020024B1A78024B1A70EE
:101B4000704700BFD44A00201823002003490448EE
:101B50004FF4E1330B6002F0AFBA00BFBC4A002083
:101B6000E44A0020074B10B500210446182218460D
:101B7000FFF796FF04600146BDE81040024802F0FE
:101B80009BBA00BFBC4A0020E44A0020202383F314
:101B9000118862B670470000002383F3118862B693
:101BA0007047000001207047704700007047000038
:101BB00010B41346026814680022A4465DF8044B72
:101BC0006047000000F5805090F85904704700000D
:101BD00000F5805090F852047047000000F58050E6
:101BE00090F95804704700005020704700F580526B
:101BF00008B5FFF7CBFFD2F89834D2F89404184414
:101C0000D2F890341844D2F878341844D2F8883492
:101C10001844D2F884341844FFF7BEFF08BD000012
:101C20002DE9F74F0C4600F580511F4691F85234CC
:101C3000BDF83090054690469BB1D1F8743401331D
:101C4000C1F8743423689A0006D4237B082B0BD97F
:101C5000627B0AB10F2B07D9D1F878340133C1F870
:101C600078344FF0FF300FE0FFF790FFEB6AD3F8C6
:101C7000C42012F4001A0AD0D1F87C340133C1F820
:101C80007C34FFF789FF002003B0BDE8F08FD3F864
:101C9000C46022686B6AC6F301464FF0480B002A05
:101CA0001BFB063BB4BF42F080429204CBF80020FD
:101CB00023685B0044BF42F00052CBF80020227B37
:101CC000330643EA0243CBF80430607B720118B359
:101CD00043F44013CBF80430D1F8A4340133C1F8F5
:101CE000A434AB1803F58353197B41F02001197319
:101CF000207B019200F002FE019A033080105FFA0F
:101D00008AF383420AF1010A0DDA04EB83010BEB3B
:101D1000830349689960F2E7AB1803F58353197B95
:101D200060F34511E3E7EB6A0121B140C3F8CC1041
:101D3000AB1803F58253C3E9048705EB461303F59B
:101D400082532146183304F10C0051F804CB43F8B8
:101D500004CB8142F9D1098819802A4441F26803F1
:101D60002846D65002F5805209F0030392F86C1011
:101D700043F0100321F01F010B4382F86C30FFF792
:101D80000BFF42463B462146CDF8309003B0BDE8FC
:101D9000F04F00F079BD000038B5C26A936923F0B6
:101DA00001039361044600F047FF0546E36A9B691F
:101DB000DB0706D500F040FF431BFA2BF6D90020C5
:101DC00004E004F58054012084F8520438BD00007A
:101DD00013B500F580540191606C00F0E1FD1F28FF
:101DE0000AD90199606C202200F050FEA0F1200376
:101DF0005842584102B010BD0020FBE708B500F57D
:101E00008050FFF7C3FE406C00F09EFDBDE8084027
:101E1000FFF7C2BE0022026082814260826070478A
:101E200010B500220023C0E90023002304460381EB
:101E30000C30FFF7EFFF204610BD00002DE9F04702
:101E4000074688B007F5805468469A468846FFF7EB
:101E50009DFE9146FFF7E4FF606C00F087FD1F28B0
:101E60002CD9606C2022694600F092FE202825D1F2
:101E700094F8523413B303AD444605AB2E4603CE5B
:101E80009E4220606160354604F10804F6D1306856
:101E90002060B388A380DDE90023C9E90023BDF8F1
:101EA0000830AAF80030FFF777FE4A46534641460D
:101EB000384608B0BDE8F04700F0D4BCFFF76CFE30
:101EC000002008B0BDE8F0872DE9F84F0023064652
:101ED000C0E90133284B46F8303B00F581540546F4
:101EE00088463746103438462037FFF799FFA74217
:101EF000F9D105F580544FF4805326630026C4E9D8
:101F00000D366764012305F5835705F5A359E6638C
:101F100084F8403084F84830103709F110094FF048
:101F2000000A4FF0000B47E908ABA7F11800FFF7D4
:101F300071FF203747F8286C4F45F4D184F8588456
:101F4000A4F85A64A4F85C64A4F85E6484F860643D
:101F5000A4F86264A4F86464A4F8666484F868640D
:101F6000B8F1000F02D0054800F060FE044BEB62B0
:101F70002846BDE8F88F00BF3C51000820510008FA
:101F80000064004010B5044B197804464A1C1A70CE
:101F9000FFF79AFF204610BDDD4A00202DE9F043EF
:101FA00000295FD03048314BB3FBF1F381428CBF45
:101FB0000A201120451EB3FBF0F700FB1730ECB2EE
:101FC00020B1022D2846F5D8002037E07D1EB5F55A
:101FD000806F33D2C4EBC40808F103034FEAE30E69
:101FE000C3F3C703A4EB030C0EF101094FF47A709D
:101FF0005FFA8CF60EFB000E59FA8CFCBEFBFCFC63
:10200000BCF5617F1CDC1FFA8CF4581C56FA80F07A
:1020100047431648B0FBF7F7B942D5D1013BDBB2D5
:102020000F2BD1D8711EC9B207294FF0000005D877
:10203000107114805580537191710120BDE8F083B7
:1020400008F1FF334FEAE30CC3F3C703E41A0CF1C2
:10205000010EE6B20CFB00005EFA84F4B0FBF4F46F
:10206000A4B2D2E70846E9E73F420F0000127A0027
:102070000B4B10B54FF45472044600211846FFF77D
:102080000FFD084BA3614033E361D8332362F03383
:102090006362E36A60610022C3F8C02010BD00BF24
:1020A00000A4004070A400402DE9F04F00F58055D9
:1020B000994695F85834012B89B004468A469046D3
:1020C00004D90027384609B0BDE8F08F904A52F88D
:1020D000231009B942F823008E49C4F80CA00B78EC
:1020E00084F8109093B9FFF751FD8B4B9A6D42F035
:1020F00000729A659A6B42F000729A639A6B22F0B2
:1021000000729A6301230B70FFF746FD95F8513476
:1021100073B902211520FFF739FD01F01BFE0221E2
:10212000162001F017FE012385F85134FFF734FD26
:10213000FFF72CFDE26A936923F01003936100F02E
:102140007BFD0746E36A9E6916F0080607D000F09B
:1021500073FDC31BFA2BF5D9FFF71EFDB1E79A6992
:1021600042F001029A6100F067FD0746E36A9A694E
:10217000D00705D400F060FDC31BFA2BF6D9EBE7BE
:102180009A6942F002029A61E36A00275F65FFF7ED
:1021900003FD686C00F0D8FB04F5825B0BF1100BBB
:1021A000202200216846FFF77BFC02A8FFF732FEE1
:1021B00006976A460BEB06030DF1180E9446BCE831
:1021C0000300F44518605960624603F10803F5D135
:1021D000DCF80000186020369CF804201A71B6F56F
:1021E000806FDDD1002304F5A25285F8503485F8C4
:1021F00053341A3251462046FFF7D0FE074690B9B5
:10220000E26A936923F00103936100F015FD05462E
:10221000E36A9B69D9077FF554AF00F00DFD431BBE
:10222000FA2BF5D94DE795F85F6495F85E24C5F86B
:102230006CA4360246EA426695F86024E36A1643C7
:10224000B5F85C2446EA0246DE61B8F1000F29D0F9
:1022500004F5A352023241462046FFF79FFE90B993
:10226000E26A936923F00103936100F0E5FC0546FF
:10227000E36A9B69DA077FF524AF00F0DDFC431BBE
:10228000FA2BF5D91DE795F8683495F86714C5F869
:1022900070841B0143EA0123B5F86414E26A43EA3F
:1022A0000143D3602046FFF7E3FE002385F859344D
:1022B000E36A6FF040421A65E36A184A5A65E36AB6
:1022C00044229A65E36A0722C3F8DC20E36A03220A
:1022D000DA65E26A9369B9F1030F43F440739361DD
:1022E0003FF4F0AEE26A936923F00103936100F0DA
:1022F000A3FC0646E36A9B69DB0705D500F09CFC5E
:10230000831BFA2BF6D9DCE6012385F85234D9E693
:10231000D84A0020DC4A0020001002409B00080040
:102320002DE9F04F054689B090469946002741F2C5
:10233000680A00F58056EB6AD3F8D430FB40D80722
:102340004AD505EB471252444FEA471B1379190748
:1023500042D4D6F880340133C6F8803413799A0613
:1023600048BFD6F8A83405EB0B0248BF01335244EE
:1023700048BFC6F8A834137943F008031371DB078C
:1023800022D596F85334FBB105F5825418346846CB
:102390005C44FFF745FD03AB04F1080C206861685D
:1023A0001A4603C2083464451346F7D1206810600A
:1023B000A2889A800123ADF808302B68CDE9008906
:1023C0001B6C694628469847D6F8543423B1D6F892
:1023D0009C340133C6F89C340137202FABD109B0AF
:1023E000BDE8F08F2DE9F04F8DB004460F4600F0A8
:1023F00025FC82468946002F56D1E36AD3F8902007
:10240000920141BF04F58051D1F894240132C1F802
:102410009424D3F89020160703D100200DB0BDE816
:10242000F08FD3F89050E669C5F30125482303FBEC
:102430000566E8464046FFF7EDFC326851004ABFAA
:1024400022F06043C2F38A4343F00043920048BF46
:1024500043F080430093736813F400131FBF04F527
:10246000805201238DF80D30D2F8AC340EBF8DF8B8
:102470000D300133C2F8AC34F38803F00F038DF84C
:102480000C304FF0000B9DF80C0000F037FA5FFAAB
:102490008BF3984220D9F2180CA90B44127A03F856
:1024A0002C2C0BF1010BEEE7012FB6D1E36AD3F828
:1024B0009820950141BF04F58051D1F89424013250
:1024C000C1F89424D3F898201007A6D0D3F89850D8
:1024D000266AC5F30125A9E7EFB9E36AC3F894506A
:1024E00004A8FFF79DFC98E80F0007AD07C52B80F7
:1024F0000023ADF8183023682046CDE904A91B6CF1
:1025000004A9984704F5805458B1D4F88C340133A9
:10251000C4F88C3482E7012F04BFE36AC3F89C50EF
:10252000DEE7D4F890340133C4F89034012075E725
:10253000F8B505460F4600F5805401263946284671
:10254000FFF750FF10B184F85364F7E7D4F8543420
:1025500023B1D4F89C340133C4F89C34F8BD000096
:10256000F0B5C36A1A6C12F47F0F2BD000F58054BB
:102570001B6CC4F8A03441F26805002347194FF0E2
:10258000010C00EB43122A445E01117911F0020F95
:1025900015D0490713D4B959C66AD6F8C8E00CFA61
:1025A00001F111EA0E0F0AD0C6F8D010117941F0EE
:1025B00004011171D4F888240132C4F8882401334D
:1025C000202BDED1F0BD000010B5254C254B226834
:1025D00002B338B31A6D12060ED580221A6500F0C8
:1025E0002DFB50EA01020B4602D0013861F10003D5
:1025F00002462068FFF794FE1A4A136D1B032AD582
:1026000023684FF4002103F580531165012283F8FC
:10261000592420E001221A6508221A654FF48062CD
:102620001A6510BD196DC80702D4196D890705D543
:102630000321196510460021FFF77AFF094B1A6D37
:10264000100702D41A6DD10605D518221A65206824
:102650000121FFF76DFF2068BDE81040FFF780BF44
:10266000D84A00200064004008B5FFF78FFAFFF752
:1026700077FFBDE80840FFF78FBA0000C36AD3F8C0
:10268000C40080F40010C0F34050704700F5805043
:1026900008B5FFF77BFA406C00F068F9FFF77CFAA9
:1026A00043090CBF0120002008BD000000F5805345
:1026B00093F8592462B1C16A8A6922F001028A61E1
:1026C000D3F898240132C3F89824002283F85924BF
:1026D000704700002DE9F74300F58251984610310C
:1026E000FFF754FA002541F2680E4FF0010900F59A
:1026F000805C00EB4514744423795E071CD4DB0630
:102700001AD5C36A8E69D3F8C87009FA06F63E4234
:1027100012D04F6801970F689742019F77EB080727
:102720000AD2C3F8D060237943F004032371DCF8A4
:1027300084340133CCF884340135202D01F120019B
:10274000D7D103B0BDE8F043FFF726BAF8B51E466F
:10275000002313700F4605461446FFF797FF80F0DD
:10276000010038701EB12846FFF788FF2070F8BDC1
:102770002DE9F04F85B099460B7801930E461378FA
:102780000293DDE90EBA8046174600F057FA337817
:1027900004460D4613B93B78002B41D022462B4608
:1027A0004046FFF797FFFFF75FFFFFF77FFF4B46BE
:1027B0003A463146FFF7CAFF33782BB1019B1BB174
:1027C000012005B0BDE8F08F3B7813B1029B002BD0
:1027D000F6D108F5805303935C4575EB0A031FD2CD
:1027E000039BD3F85404D8B10368BBEB0402D96847
:1027F0006AEB050388474B463A4631464046FFF7A9
:10280000A5FF337813B1019B002BD9D13B7813B1CD
:10281000029B002BD4D100F011FA04460D46DBE7F1
:102820000020CEE708B50020FFF7CEFEBDE8084047
:1028300001F058B908B50120FFF7C6FEBDE8084011
:1028400001F050B90FB4002004B0704713B56C46C6
:1028500084E80600031D94E8030083E805000120D6
:1028600002B010BD73B58568019155B11B885B0737
:1028700007D4D0E90036DB6B9847019AC1B23046E5
:10288000A847012002B070BDF0B5866889B0054642
:102890000C465EB1BDF838305B070AD4D0E900378A
:1028A000DB6B98472246C1B23846B047012009B0D9
:1028B000F0BD00220023CDE900230023ADF808304D
:1028C0000A4603AB01F10806106851681C4603C4B0
:1028D0000832B2422346F7D1106820609288A28065
:1028E00000F0AEF90423ADF808302B68CDE9000103
:1028F0001B6C694628469847D8E70000082817D976
:1029000009280CD00A280CD00B280CD00C280CD08D
:102910000D280CD00E2814BF4020302070470C200A
:1029200070471020704714207047182070472020EF
:102930007047000010B5037C044613B9006802F02C
:10294000EFFA204610BD00000023BFF35B8FC36089
:10295000BFF35B8FBFF35B8F8360BFF35B8F704709
:10296000BFF35B8F0068BFF35B8F704770B50546A0
:102970000C30FFF7F5FF05F1080604463046FFF777
:10298000EFFFA04206D930466D68FFF7E9FF254406
:10299000281A70BD3046FFF7E3FF201AF9E7000060
:1029A00070B50546406898B105F10800FFF7D8FFFB
:1029B00005F10C0604463046FFF7D2FF844230464C
:1029C00094BF6D680025FFF7CBFF013C2C44201A13
:1029D00070BD000038B50C460546FFF7C7FFA042A2
:1029E00010D305F10800FFF7BBFF04446868B4FB8F
:1029F000F0F100FB1144BFF35B8F0120AC60BFF32B
:102A00005B8F38BD0020FCE72DE9F04114460746F6
:102A10000D46FFF7C5FF844228BF0446D4B1B8462F
:102A200058F80C6B4046FFF79BFF30442860404647
:102A30007E68FFF795FF331A9C4203D86C60012033
:102A4000BDE8F0816B60A41B3B68AB602044E8608C
:102A50000220F5E72046F3E738B50C460546FFF7B8
:102A60009FFFA04210D305F10C00FFF779FF04444B
:102A70006868B4FBF0F100FB1144BFF35B8F0120E9
:102A8000EC60BFF35B8F38BD0020FCE72DE9FF4110
:102A9000884669460746FFF7B7FF6C4606B204EB67
:102AA000C6060025B44209D06268206808EB05011B
:102AB000FEF7E4FF636808341D44F3E7294638460F
:102AC000FFF7CAFF284604B0BDE8F081F8B5054617
:102AD0000C300F46FFF744FF05F108060446304668
:102AE000FFF73EFFA042304688BF6C68FFF738FF13
:102AF000201A386020B130462C68FFF731FF20449F
:102B0000F8BD000073B5144606460D46FFF72EFFCC
:102B1000844228BF04460190DCB101A93046FFF78A
:102B2000D5FF019B33B93268C5E90233C5E90024FA
:102B300001200CE09C4238BF019428600198686035
:102B40008442F5D93368AB60241AEC60022002B0ED
:102B500070BD2046FBE700002DE9FF410F466946A6
:102B6000FFF7D0FF6C4600B204EBC0050026AC4274
:102B700009D0D4F8048054F8081BB8194246FEF76F
:102B80007DFF4644F3E7304604B0BDE8F081000025
:102B900038B50546FFF7E0FF044601462846FFF733
:102BA00019FF204638BD000000B59BB0EFF3098146
:102BB00068226846FEF762FFEFF30583044B9A6BC9
:102BC000DA6A9A6A9A6A9A6A9A6A9A6A9B6AFEE7C3
:102BD00000ED00E000B59BB0EFF309816822684684
:102BE000FEF74CFFEFF30583044B9A6B9A6A9A6ADF
:102BF0009A6A9A6A9A6A9B6AFEE700BF00ED00E053
:102C000000B59BB0EFF3098168226846FEF736FFF6
:102C1000EFF30583034B5A6B9A6A9A6A9A6A9A6A27
:102C20009B6AFEE700ED00E0FEE700000FB408B588
:102C3000029801F041FBFEE701F0E6BD01F0BEBDE8
:102C400001F0BCBD30B5094D0A4491420DD011F8D8
:102C5000013B5840082340F30004013B2C4013F093
:102C6000FF0384EA5000F6D1EFE730BD2083B8EDD2
:102C70002DE9F041C56915B9C161BDE8F0814B6826
:102C800023F06047C3F38A464FEAD37EC3F38078CC
:102C900016EA230638BF3E46AC462B465A68BEEBC2
:102CA000D27F22F060440AD0002A18DAA40CB44281
:102CB00017D19D420FD10D60DEE71346EEE7A74224
:102CC00007D102F08044C2F3807242450BD054B168
:102CD000EFE708D2EDE7CCF800100B60CDE7B44287
:102CE00001D0B442E5D81A689C46002AE5D11960A3
:102CF000C3E700002DE9F047089D01F007044FEA03
:102D0000D508224405F0070500EBD1004FF47F49B8
:102D1000944201D1BDE8F08704F0070705F0070AE7
:102D200057453E4638BF5646C6F10806111B8E422F
:102D300028BF0E46E10808EBD50E415C13F80EC023
:102D4000B94029FA06F721FA0AF1FFB28CEA01012B
:102D500047FA0AF739408CEA010C03F80EC03444F4
:102D60003544D5E780EA0120082341F2210201B26F
:102D70004000002980B203F1FF33B8BF504013F088
:102D8000FF03F4D17047000038B50C468D18A542FA
:102D900000D138BD14F8011BFFF7E4FFF7E700008E
:102DA00002684AB113680360C388018901339BB28A
:102DB0009942C38038BF03811046704770B588B010
:102DC000202204460D4668460021FEF769FE204693
:102DD0000495FFF7E5FF024658B16B46054608AE7D
:102DE0001C4603CCB44228606960234605F10805FF
:102DF000F6D1104608B070BD082817D909280CD0A4
:102E00000A280CD00B280CD00C280CD00D280CD084
:102E10000E2814BF4020302070470C20704710202F
:102E2000704714207047182070472020704700001A
:102E3000082817D90C280CD910280CD914280CD91B
:102E400018280CD920280CD930288CBF0F200E2030
:102E50007047092070470A2070470B2070470C20EC
:102E600070470D207047000010B54B6823B9CA8A1F
:102E700063F30902CA8210BDC4681A681C60C3608B
:102E8000438A013B43824A60EFE700002DE9F84F97
:102E90001D46CB8A0F46C3F3090106298146924697
:102EA0000B4630D00020AAB207F119049EB2052EBD
:102EB0001FFA80F80FD8904503F1010306D3FB8A6F
:102EC0000A4462F30903FB8201201AE01AF8006049
:102ED000E6540130EAE79045F1D2A1F1060B1C233C
:102EE0007C68BBFBF3F203FB12BB1FFA8BF6002CD2
:102EF00045D14846FFF754FF044638B978606FF073
:102F00000200BDE8F88F4FF00008E6E700260660F3
:102F10007860ADB24FF0000B454510D90AEB0803BD
:102F2000221D13F8011B9155B1B208F101081B29AC
:102F30001FFA88F82BD0454506F10106F1D8FB8A27
:102F4000C3F30902154465F30903BCE7013292B2E9
:102F50001C462368002BF9D1AB1F0B441C21B3FB8B
:102F6000F1F301339BB29A42D3D2BBF1000FD0D11F
:102F70004846FFF715FF20B9C4F800B0BFE70122AB
:102F8000E7E7C0F800B05E4620600446C1E745456B
:102F9000D5D94846FFF704FF08B92060AFE7C0F86D
:102FA00000B0002620600446B6E700002DE9F04F8F
:102FB0002DED028B83B0CDE90013BDF83C500746E0
:102FC0009146002A00F092802DB10E9B002B00F05C
:102FD0008D80072D32D807F10C00FFF7E1FE044683
:102FE00038B96FF00204204603B0BDEC028BBDE897
:102FF000F08F14220021FEF753FD0E992A4604F1AA
:103000000800FEF73BFD681CC0B2FFF711FFFFF799
:10301000F3FE207499F80030013814FA80F003F0C0
:103020001F0363F03F030372009B43F000416160A4
:1030300038462146FFF71CFE0124D4E700F10C03BB
:103040004FF0000808EE103A4FF0800A464644461A
:1030500018EE100AFFF7A4FE83460028C1D0142200
:103060000021FEF71DFDC6BB019BABF80830022016
:103070000E9B00F1080299195BFA82F20130C0B28E
:10308000082801D0AE422AD3FFF7D2FEFFF7B4FEE4
:1030900099F80020009B411E02F01F0242EA4812EC
:1030A000AE4208BF4FF0400A5BFA81F14AEA020AD9
:1030B00043F0004281F808A08BF81000CBF8042000
:1030C00059463846FFF7D4FD0134AE4224B288F0A9
:1030D00001084FF0000ABBD185E70020C8E711F8CE
:1030E00001CB02F801CB0136B6B2C7E76FF001049D
:1030F00079E70000F8B515460E462822002104465F
:103100001F46FEF7CDFC069B6360B5F5001F079BCD
:10311000A76034BF6A094FF6FF72236204F10C0006
:1031200097B200239A4205D8002303602782638266
:10313000A382F8BD0660013330462036F2E7000076
:1031400003781BB94BB2002BC8BF01707047000059
:10315000007870472DE9F74FDDF83C90BDF830500E
:103160000D9E9DF83840BDF84070804692469B46C3
:10317000B9F1000F01D1002F51D11F2C4FD898F871
:103180000000B0B9072F47D835F0030347D13A46BE
:1031900049464FF6FF70FFF7F7FD20F001002D02C2
:1031A000400445EA0464400C44EA40244FF6FF73AF
:1031B00021E040EA0520072F40EA0464F6D9002503
:1031C0004FF6FF73C5F12000A5F120022AFA05F1A0
:1031D0000BFA00F001432BFA02F211431846C9B270
:1031E000FFF7C0FD0835402D0346EBD13A4649466E
:1031F000FFF7CAFD0346CDE9009732462146404617
:10320000FFF7D4FE33780133DBB21F2B88BF0023D6
:10321000337003B0BDE8F08F6FF00300F9E76FF093
:103220000100F6E72DE9F04F85B09246DDF84880C1
:103230000F9D9DF840209DF84490BDF84C700646C7
:103240009B46B8F1000F01D1002F48D11F2A46D864
:103250003378002B46D00C0244EA02649DF8381003
:1032600044EAC93444EA01441C43072F44F0800473
:1032700032D900234FF6FF72C3F1200CA3F12000D6
:103280002AFA03F10BFA0CFC41EA0C012BFA00F0CC
:103290000143C9B210460393FFF764FD039B083353
:1032A000402B0246E8D13A464146FFF76DFD034602
:1032B000CDE900872A4621463046FFF777FEB9F16F
:1032C000010F06D12B780133DBB21F2B88BF0023FF
:1032D0002B7005B0BDE8F08F4FF6FF73E8E76FF095
:1032E0000100F6E76FF00300F3E70000C06900B1EA
:1032F00004307047C3691A68C261C2681A60C3604B
:10330000438A013B438270472DE9F041D0F8188091
:10331000194E14461D464146002709B9BDE8F08103
:10332000D1E90223A21A65EB0303964277EB03036C
:103330001ED283698B420DD1FFF796FD83691B680E
:103340008361C3680B60438AC1608169013B43822A
:103350008846E2E7FFF788FD0B68C8F80030C368CD
:103360000B60438AC160013B4382D8F80010D4E768
:1033700088460968D1E700BF80841E002DE9F04F20
:103380008BB00D46DDF8509014469B4680460028D1
:1033900000F01981B9F1000F00F01581531E3F2B89
:1033A00000F21181012A03D1BBF1000F40F00B8123
:1033B0000023CDE90833B8F81430B5EBC30F4FEA5A
:1033C000C30703D300200BB0BDE8F08F2B199F4239
:1033D000D8F80C303ABF7F1BFFB227461BB9D8F88C
:1033E0001030002B7AD02F2D4ED8C5F13006B742C1
:1033F0004FF000032CBFF6B23E4600932946D8F8A2
:10340000080008AB3246FFF775FCA7EB060A354407
:103410005FFA8AFAB8F8143003F10053063BDB0078
:103420000493D8F80C3003933021039B13B1BAF105
:10343000000F2CD1D8F8100040B1BAF1000F05D020
:10344000009608AB5246691AFFF754FC38B2002FB9
:10345000B8D066070AD00AAB03EBD401624211F878
:10346000083C02F00702134101F8083C082C3CD943
:10347000102C40F2B580202C40F2B780BBF1000F39
:1034800000F09C80082334E0BA460026C2E7049B83
:10349000E02B28BFE02306930B44AB42059314D9DD
:1034A0005A1B03980096924534BF5246D2B2691A0D
:1034B00008AB04300792FFF71DFC079A1644AAEBED
:1034C000020A1544F6B25FFA8AFA049B069A059935
:1034D0009B1A0493039B1B680393A6E70093D8F8F9
:1034E000080008AB3A462946AEE7BBF1000F13D0FF
:1034F0000123B4EBC30F6CD0082C12D89DF82030F8
:10350000621E23FA02F2D50706D54FF0FF3202FA07
:1035100004F423438DF820309DF8203089F80030E2
:1035200051E7102C12D8BDF82030621E23FA02F2A7
:10353000D10706D54FF0FF3202FA04F42343ADF869
:103540002030BDF82030A9F800303CE7202C0FD8FF
:103550000899631E21FA03F3DA0705D54FF0FF320D
:1035600002FA04F40C430894089BC9F800302AE7D7
:10357000402C2BD0DDE90865611EC4F12102A4F1C5
:10358000210326FA01F105FA02F225FA03F31143A9
:103590001943CB0712D50122A4F12003C4F1200165
:1035A00002FA03F322FA01F1A240524243EA010374
:1035B00063EB430332432B43CDE90823DDE90823C2
:1035C000C9E90023FFE66FF00100FCE66FF0080098
:1035D000F9E6082CA0D9102CB3D9202CEED8C3E7DB
:1035E000BBF1000FADD0022383E7BBF1000FBBD0CE
:1035F00004237EE730B5012A144638BF0124402C4D
:1036000085B028BF40240025012ACDE9025518D8ED
:103610001B788DF8083063070AD004AB03EBD405A0
:10362000624215F8083C02F00702934005F8083C96
:10363000009103462246002102A8FFF75BFB05B07C
:1036400030BD082AE4D9102A03D81B88ADF8083009
:10365000E1E7202A8DBFD3E900231B680293CDE95F
:103660000223D8E710B5CB681BB98B600B618B8246
:1036700010BDC4681A681C60C360438A013B438262
:10368000CA60F0E72DE9F04FD1F8008093B018F050
:10369000800FCDE90323C8F3C01219BFC8F3C03BA4
:1036A000C8F306264FF0020B1646B8F1000F044689
:1036B0000D4680F2D18118F0C043059340F0CC81D3
:1036C0000B7B002B00F0C881BBF1020F03D0017807
:1036D000B14240F0C48108F07F0106916AB3C8F39B
:1036E000074A2B44069A93F80390760646EA0B465F
:1036F00046EA82465FEAD91346EA0A06079300F0D3
:10370000908000220023CDE90A23069B009367687E
:103710005B4652460AA92046B84700287ED0A769D2
:103720009FB9314604F10C00FFF748FB0746E0B9AA
:103730006FF0020013B0BDE8F08FC8F30F2A18F045
:103740007F0F08BF0AF0030ACBE73B699E420DD00A
:103750003F68002FF9D1314604F10C00FFF72EFB32
:1037600007460028E4D0A3693B60A761DDE90A238E
:1037700000264FF6FF70C6F1200E22FA06F103FA7A
:103780000EFEA6F1200C23FA0CFC41EA0E0141EAE0
:103790000C01C9B2083609920893FFF7E3FA402EEC
:1037A000DDE90832E7D1B882FB7D09F01F06C3F3DB
:1037B00084039B1BD7E9022198B2002BBCBF00F108
:1037C00020031BB252EA0100C8F304680FD003982B
:1037D000821A049860EB0101A74890424FF0000262
:1037E0008A4104D3079A002A5BD0012B23DDFA7D9E
:1037F0004FEA890302F0030203F07C031343FB75D5
:1038000039462046FFF730FB079BA3B9FB7DC3F386
:103810008402013262F38603FB7504E06FF00B0053
:1038200088E7A76917B96FF00C0083E73B699E42F0
:10383000BAD03F68F6E719F0400F32D0039BBB6067
:10384000049BFB60142200210DA8FEF729F9039BBD
:103850000A93049B0B932B1D0C932B7BADF83EA07E
:10386000013BDBB2ADF83C30069B8DF8433094F859
:1038700024308DF840B083F001038DF844308DF88A
:103880004160A3688DF842800AA920469847FB7DD5
:10389000C3F38403013303F01F039B02FB82002068
:1038A00048E7FB7DC9F34012B2EBD31F40F0DA804A
:1038B000C3F38403B34240F0D88007992B7B4FEACF
:1038C0009912002934D0D20741D4032B40F2D08082
:1038D000039BBB60049BFB602B7BAE1D033BDBB2F9
:1038E0003246394604F10C00FFF7D0FA00280DDA11
:1038F00020463946FFF7B8FAFB7DC3F38403013352
:1039000003F01F039B02FB82032013E7AB883B837A
:103910002A7B033AB88AD2B23146FFF735FAFB7DEB
:10392000B882DA43C2F3C01262F3C713FB75B6E77D
:103930006AB92E1D013BDBB23246394604F10C0058
:10394000FFF7A4FA0028D3DB2A7B013AE2E7F98AE1
:10395000C1F30901013B0529DAB259D8281D00231A
:1039600007F11A0C9A4208D910F801EB0CF801E0A3
:10397000013101330629DBB2F4D103990A9104998C
:103980000B91934207F11A010C9138BF0433796807
:103990000D9134BF55FA83F300230E93FB8AADF8E3
:1039A0003EA0C3F309031A44069B8DF8433094F8F4
:1039B0002430ADF83C2083F001038DF8443000231F
:1039C0008DF840B08DF841608DF842807B602A7B95
:1039D000B88A013A291DFFF7D7F93B8BB882834299
:1039E00003D1A3680AA92046984720460AA9FFF7F1
:1039F00039FEFB7DB88AC3F38403013303F01F0350
:103A00009B02FB823B8B984214BF1120002091E661
:103A10007B68002BB1D0062001E01C306346D3F850
:103A200000C0BCF1000FF8D1091A081D05F1040C03
:103A300000EB030905989DF8143001EB000EBEF170
:103A40001B0F9AD89A4298D91CF8013B09F8013B00
:103A5000059B01330593EDE76FF009006AE66FF00F
:103A60000A0067E66FF00D0064E66FF00E0061E695
:103A70006FF00F005EE600BF80841E00EFF3098345
:103A800005494A6B22F001024A63683383F30988CF
:103A9000002383F31188704700EF00E0202080F3BB
:103AA000118862B60C4B0D4AD96821F4E061090413
:103AB000090C0A43DA60D3F8FC20094942F080720D
:103AC000C3F8FC200A6842F001020A601022DA778B
:103AD00083F82200704700BF00ED00E00003FA0504
:103AE000001000E010B5202383F311880E4B5B68B3
:103AF00013F4006314D0F1EE103AEFF30984683C3C
:103B00004FF08073E361094BDB6B236684F3098814
:103B100000F084FB10B1064BA36110BD054BFBE721
:103B200083F31188F9E700BF00ED00E000EF00E04B
:103B30004B0600084E060008026843681143016006
:103B400003B1184770470000024A136843F0C003EE
:103B5000136070470038014013B50E4C204600F04A
:103B60009FFA04F114000C49009400234FF4807272
:103B700000F060F9094B0A4900944FF4807204F197
:103B8000380000F0D9F9074A074BC4E9172302B0FF
:103B900010BD00BFE44A0020504B0020493B000804
:103BA000504C002000380140007A030A30B5037CF5
:103BB000234C002918BF0C46012B0FD1214B9842F2
:103BC0000CD1214B1A6E42F480421A66D3F8802041
:103BD00042F48042C3F88020D3F880302268036E1C
:103BE000C16D846603EB5203B3FBF2F36268150404
:103BF00042BF23F0070503F0070343EA4503CB6008
:103C0000A36843F040034B60E36843F001038B601B
:103C100042F4967343F001030B604FF0FF330B62E5
:103C2000510505D512F0102205D0B2F1805F04D005
:103C300080F8643030BD7F23FAE73F23F8E700BF08
:103C400080510008E44A0020001002402DE9F047AE
:103C5000C66D3768F46934622107054618D014F040
:103C6000080118BF8021E20748BF41F02001A307E7
:103C700048BF41F04001600748BF41F480712023F4
:103C800083F31188281DFFF757FF002383F3118862
:103C9000E2050AD5202383F311884FF40071281D13
:103CA000FFF74AFF002383F311884FF020094FF0FC
:103CB000000A14F0200838D13B0616D54FF0200931
:103CC00005F1380A200610D589F31188504600F016
:103CD00067F9002836DA0821281DFFF72DFF27F0A5
:103CE00080033360002383F31188790614D56206BC
:103CF00012D5202383F31188D5E913239A4208D1E2
:103D00002B6C33B11021281D27F04007FFF714FF5B
:103D10003760002383F31188E30618D5AA6E136970
:103D2000ABB1BDE8F0475069184789F31188736A51
:103D300095F864102846194000F0CCF98AF31188F0
:103D4000F469B6E7B06288F31188F469BAE7BDE8B0
:103D5000F087000000F1604303F561430901C9B237
:103D600083F80013012200F01F039A4043099B00CF
:103D700003F1604303F56143C3F880211A60704783
:103D8000F8B5154682680669AA420B46816938BFB4
:103D90008568761AB54204460BD218462A46FDF7C6
:103DA0006DFEA3692B44A361A3685B1BA360284637
:103DB000F8BD0CD918463246FDF760FEAF1BE1682E
:103DC0003A463044FDF75AFEE3683B44EBE71846B9
:103DD0002A46FDF753FEE368E5E700008368934257
:103DE000F7B51546044638BF8568D0E90460361A31
:103DF000B5420BD22A46FDF741FE63692B4463614D
:103E0000A36828465B1BA36003B0F0BD0DD9324602
:103E10000191FDF733FE0199E068AF1B3A4631444A
:103E2000FDF72CFEE3683B44E9E72A46FDF726FE52
:103E3000E368E4E710B50A440024C361029B846090
:103E4000C0E90000C0E90511C1600261036210BD54
:103E500008B5D0E90532934201D1826882B98268FF
:103E6000013282605A1C42611970D0E904329A42D0
:103E700024BFC3684361002100F0A0FA002008BD00
:103E80004FF0FF30FBE7000070B5202304460E46DC
:103E900083F31188A568A5B1A368A269013BA3605B
:103EA000531CA36115782269934224BFE368A36180
:103EB000E3690BB120469847002383F31188284615
:103EC00007E03146204600F069FA0028E2DA85F37F
:103ED000118870BD2DE9F74F04460E4617469846E7
:103EE000D0F81C904FF0200A8AF311884FF0000B95
:103EF000154665B12A4631462046FFF741FF034685
:103F000060B94146204600F049FA0028F1D000236C
:103F100083F31188781B03B0BDE8F08FB9F1000F6F
:103F200003D001902046C847019B8BF31188ED1AFE
:103F30001E448AF31188DCE7C0E90511C160C36142
:103F40001144009B8260C0E9000001610362704778
:103F5000F8B504460D461646202383F31188A7685A
:103F6000A7B1A368013BA36063695A1C62611D701D
:103F7000D4E904329A4224BFE3686361E3690BB178
:103F800020469847002080F3118807E031462046FC
:103F900000F004FA0028E2DA87F31188F8BD000087
:103FA000D0E905239A4210B501D182687AB98268B6
:103FB000013282605A1C82611C7803699A4224BFD4
:103FC000C3688361002100F0F9F9204610BD4FF06D
:103FD000FF30FBE72DE9F74F04460E46174698469B
:103FE000D0F81C904FF0200A8AF311884FF0000B94
:103FF000154665B12A4631462046FFF7EFFE0346D7
:1040000060B94146204600F0C9F90028F1D00023EC
:1040100083F31188781B03B0BDE8F08FB9F1000F6E
:1040200003D001902046C847019B8BF31188ED1AFD
:104030001E448AF31188DCE702684368114301607B
:1040400003B11847704700001430FFF743BF00006A
:104050004FF0FF331430FFF73DBF00003830FFF75B
:10406000B9BF00004FF0FF333830FFF7B3BF000097
:104070001430FFF709BF00004FF0FF311430FFF795
:1040800003BF00003830FFF763BF00004FF0FF327E
:104090003830FFF75DBF000000207047FFF75CBDC0
:1040A000044B03600023C0E902334360012303741F
:1040B000704700BF9851000810B52023044683F3D1
:1040C0001188FFF773FD02232374002383F3118803
:1040D00010BD000038B5C36904460D461BB9042164
:1040E0000844FFF7A9FF294604F11400FFF7B0FECA
:1040F000002806DA201D4FF48061BDE83840FFF744
:104100009BBF38BD024B0022C3E900339A60704761
:10411000504D0020002303748268054B1B6899688A
:104120009142FBD25A680360426010605860704749
:10413000504D002008B5202383F31188037C032B06
:1041400005D0042B0DD02BB983F3118808BD43692A
:1041500000221A604FF0FF334361FFF7DBFF0023BB
:10416000F2E7D0E9003213605A60F3E700230374EA
:104170008268054B1B6899689142FBD85A680360B6
:104180004260106058607047504D0020054B19691F
:104190000874186802681A60536018610123037478
:1041A000FCF73EBA504D002030B54B1C0B4D87B08C
:1041B000044610D02B690A4A01A800F019F92046DC
:1041C000FFF7E4FF049B13B101A800F04DF92B6940
:1041D000586907B030BDFFF7D9FFF8E7504D002010
:1041E0003541000838B50C4D41612B6981689A68EA
:1041F0009142044603D8BDE83840FFF78BBF18460C
:10420000FFF7B4FF01232C61014623742046BDE86B
:104210003840FCF705BA00BF504D0020044B1A6827
:104220001B6990689B68984294BF002001207047EA
:10423000504D002010B5084C236820691A68226090
:104240005460012223611A74FFF790FF0146206930
:10425000BDE81040FCF7E4B9504D002008B5FFF769
:10426000DDFF18B1BDE80840FFF7E4BF08BD00005E
:10427000FFF7E0BFFEE7000010B50C4CFFF742FF70
:1042800000F0A8F80A498022204600F03DF80123FA
:1042900044F8180C0374FFF701FC002383F3118822
:1042A00062B60448BDE8104000F04EB8784D0020DA
:1042B000C0510008D051000808B572B6034B5862CF
:1042C00000F06CFA00F020FBFEE700BF504D00202C
:1042D00000F004B9EFF3118020B9EFF30583202239
:1042E00082F311887047000010B530B9EFF30584F0
:1042F000C4F3080414B180F3118810BDFFF7AEFFBA
:1043000084F31188F9E7000082600222028270477C
:104310008368A3F17C0243F80C2C026943F83C2C1F
:10432000426943F8382C074A43F81C2CC26843F80A
:10433000102C022203F8082C002203F8072CA3F10A
:10434000180070473906000810B5202383F3118840
:10435000FFF7DEFF00210446FFF744FF002383F34D
:104360001188204610BD0000024B1B6958610F20C8
:10437000FFF70CBF504D0020202383F31188FFF777
:10438000F3BF000008B50146202383F311880820FD
:10439000FFF70AFF002383F3118808BD49B1064BDC
:1043A00042681B6918605A60136043600420FFF77D
:1043B000FBBE4FF0FF307047504D0020036898421D
:1043C00006D01A680260506059611846FFF7A2BE15
:1043D00070470000054B03F11402C3E905224FF0BA
:1043E000FF310022C3E90712704700BF504D002083
:1043F00070B51C4EC0E9032305460C4600F0FEFADA
:10440000334653F8142F9A420DD13062C5E9012486
:104410002A600A2C2CBF00190A30C6E90555BDE8F0
:10442000704000F0D9BA316A431AE31838BF1C460D
:104430009368A34202D9081900F0DCFA73699A68FC
:1044400094420CD85A68AC602B606A6015609A6818
:104450005D60121B9A604FF0FF33F36170BD1B6803
:10446000A41AECE7504D002038B51B4C6369984204
:104470000DD0D0E9003213605A6000228168C2601A
:104480009A680A449A604FF0FF33E36138BD2246D0
:10449000036842F8143F002193425A60C16003D17F
:1044A000BDE8384000F0A0BA9A688168256A0A44DD
:1044B0009A6000F0A3FA63699A68411B8A42E5D9C1
:1044C000AB181D1A092D206A98BF01F10A02BDE838
:1044D0003840104400F08EBA504D00202DE9F041D4
:1044E000184C002704F11406656900F087FA236A66
:1044F000AA68C11A8A4215D813442362D5E900324A
:1045000013605A606369D5F80C80EF60B34201D143
:1045100000F06AFA87F311882869C047202383F3E3
:104520001188E1E76169B14209D013441B1ABDE863
:10453000F0410A2B2CBFC0180A3000F05BBABDE86E
:10454000F08100BF504D002000207047FEE70000C2
:10455000704700004FF0FF3070470000BFF34F8FEF
:10456000024A1369DB03FCD4704700BF00200240FD
:1045700008B5094B1B7873B9FFF7F0FF074B5A6971
:10458000002ABFBF064A9A6002F188329A601A6810
:1045900022F480621A6008BD184F002000200240FB
:1045A0002301674508B50B4B1B7893B9FFF7D6FF7E
:1045B000094B5A6942F000425A611A6842F480522B
:1045C0001A601A6822F480521A601A6842F48062F3
:1045D0001A6008BD184F0020002002407F289ABFB3
:1045E00000F58030C0020020704700004FF40060EA
:1045F00070470000802070477F2808B50BD8FFF770
:10460000EDFF00F500630268013204D104308342FB
:10461000F9D1012008BD0020FCE700007F2838B553
:10462000044626D8FFF756FEFFF798FFFFF7A0FFD6
:10463000114BF3221A6102225A615A6942EAC402FA
:104640005A615A6942F480325A6105462046FFF7A2
:1046500085FF4FF40061FFF7C1FF00F051F92846D4
:10466000FFF7A0FFFFF740FE2046BDE83840FFF708
:10467000C3BF002038BD00BF0020024040EA020353
:1046800013F007032DE9F04705460C46164606D001
:10469000324B40F2FB221A600020BDE8F0878118FF
:1046A0002F4A91420CD92D4A4FF440711160F3E723
:1046B0002B1D1B686268934208D1083E08350834F8
:1046C000072E19D92A6823689A42F1D0FFF702FE13
:1046D000FFF74EFFFFF742FF04F10801214C4FF0B6
:1046E00001084FF00009012EA1F1080708D8FFF7D3
:1046F00059FFFFF7F9FD01E0002EE7D10120CCE7DB
:10470000C4F81480AA4651F8083C4AF8043B51F812
:10471000043C6B60FFF722FFC4F814902A6851F83C
:10472000083C9A420ED00D4B40F226321A600E4BD6
:104730001D600E4B1E600E4B1F60FFF733FFFFF72F
:10474000D3FDA9E7DAF800A051F8043C9A4501F13D
:104750000801E8D1083E0835C5E700BF144F002026
:104760000000040800200240084F0020104F0020E5
:104770000C4F0020084908B50B7828B11BB9FFF78A
:10478000F7FE01230B7008BD002BFCD0BDE80840EC
:104790000870FFF707BF00BF184F002008B54FF49F
:1047A000C0314FF0005000F0ADF8BDE808404FF4C4
:1047B00080414FF0805000F0A5B8000070B582B085
:1047C000FFF788FD0E4E054600F018F9326890425A
:1047D00037BF0C4A0B49516814682EBFD1E900411C
:1047E000013151600419034641F10001284601914D
:1047F0003360FFF779FD0199204602B070BD00BF1C
:104800001C4F0020204F002070B582B0FFF762FDE2
:10481000104E054600F0F2F83268904237BF0E4A5B
:104820000D49516814682EBFD1E900410131516032
:10483000041941F100010346284601913360FFF756
:1048400053FD01994FF47A7200232046FBF7D0FC08
:1048500002B070BD1C4F0020204F00200244D2B295
:10486000904200D17047431C800000F1804000F569
:104870001450006841F8040BD8B2F1E7124B10B5A0
:10488000D3F89040240409D4D3F89040C3F8904062
:10489000D3F8904044F40044C3F890400B4C236894
:1048A000024443F480732360D2B2904200D110BD21
:1048B000431C800000F1804000F5145051F8044B77
:1048C0000460D8B2F1E700BF001002400070004061
:1048D00007B5012201A90020FFF7C0FF019803B02E
:1048E0005DF804FB13B50446FFF7F2FFA04205D0C4
:1048F000012201A900200194FFF7C0FF02B010BD02
:10490000704700007047000070470000074B45F2F9
:1049100055521A6002225A6040F6FF729A604CF6B5
:10492000CC421A60024B01221A70704700300040DE
:104930002C4F0020034B1B781BB1034B4AF6AA22D5
:104940001A6070472C4F002000300040054B1A6859
:1049500032B902F1804202F50432D2F894201A6092
:10496000704700BF284F0020024B4FF40002C3F8ED
:10497000942070470010024008B5FFF7E7FF024B94
:104980001868C0F3407008BD284F00207047000031
:10499000FEE700000A4B0B480B4A90420BD30B4B2F
:1049A000DA1C121AC11E22F003028B4238BF002209
:1049B0000021FDF775B853F8041B40F8041BECE721
:1049C00044530008B84F0020B84F0020B84F0020D3
:1049D0007047000000F078B84FF080430022586321
:1049E0001A610222DA6070474FF080430022DA60D9
:1049F000704700004FF08043586370474FF080438A
:104A0000586A70474B6843608B688360CB68C360AB
:104A10000B6943614B6903628B6943620B680360F6
:104A20007047000008B5204BDA6A42F07F02DA6274
:104A3000DA6A22F07F02DA62DA6ADA6C42F07F0226
:104A4000DA64DA6E42F07F02DA66184ADB6E1146EB
:104A50004FF09040FFF7D6FF02F11C0100F5806097
:104A6000FFF7D0FF02F1380100F58060FFF7CAFFC1
:104A700002F1540100F58060FFF7C4FF02F17001FC
:104A800000F58060FFF7BEFF02F18C0100F5806049
:104A9000FFF7B8FF02F1A80100F58060FFF7B2FF51
:104AA000BDE8084000F064B800100240E85100087A
:104AB00008B500F003FAFFF7DFFBBDE80840FFF799
:104AC00045BF0000704700000F4B9A6D42F0010295
:104AD0009A659A6F42F001029A670C4A9B6F93683D
:104AE00043F0010393604FF08043A7229A624FF096
:104AF000FF32DA6200229A615A63DA605A60012258
:104B00005A611A60704700BF00100240002004E0A4
:104B10004FF0804208B51169D3680B40D9B2C94340
:104B20009B07116107D5202383F31188FFF7D0FB82
:104B3000002383F3118808BD08B50B4BD3F89020F0
:104B400012F4407F1FBF4FF48032C3F89020002240
:104B5000C3F89020D3F89020C3F8902000F086F995
:104B6000024B00225A6008BD001002400070004055
:104B7000484B4FF0FF319A6A99629A6A00229A6212
:104B8000986AD86A60F07F00D862D86A00F07F0027
:104B9000D862D86A186B1963186B1A63186B986B14
:104BA0009963986B9A63986BD86BD963D86BDA6307
:104BB000D86B186C1964196C1A641A6C9A6D42F0EF
:104BC00080529A659A6F22F080529A679A6F324AA1
:104BD0004FF400711160516911F48061FBD14FF401
:104BE0000040516090604FF48070D160C2F8800046
:104BF000116251629162D162116351639163D16319
:104C0000116451649164D16411655165D3F89820A1
:104C100042F00102C3F89820D3F898209007FBD502
:104C20001A6842F480321A601A689103FCD51A4956
:104C30000A6842F480720A60184ADA601A6842F020
:104C400080721A601A689201FCD5002214499A6099
:104C5000C3F888101349C3F89C20134A0A600A68F5
:104C600002F00F02042AFAD19A6842F003029A6015
:104C70009A6802F00C020C2AFAD11A6E42F0010274
:104C80001A66D3F8802042F00102C3F88020D3F8DE
:104C9000803070470010024000700040032A61011C
:104CA000550100500020024004070400074A08B5DF
:104CB000536903F00103536123B1054A13680BB133
:104CC00050689847BDE80840FEF70CBF000401405B
:104CD000304F0020074A08B5536903F002035361BF
:104CE00023B1054A93680BB1D0689847BDE80840E6
:104CF000FEF7F8BE00040140304F0020074A08B517
:104D0000536903F00403536123B1054A13690BB1DE
:104D100050699847BDE80840FEF7E4BE0004014032
:104D2000304F0020074A08B5536903F00803536168
:104D300023B1054A93690BB1D0699847BDE8084093
:104D4000FEF7D0BE00040140304F0020074A08B5EE
:104D5000536903F01003536123B1054A136A0BB181
:104D6000506A9847BDE80840FEF7BCBE0004014009
:104D7000304F0020164B10B55C6904F478725A610C
:104D8000A30604D5134A936A0BB1D06A984760060C
:104D900004D5104A136B0BB1506B9847210604D50C
:104DA0000C4A936B0BB1D06B9847E20504D5094AC6
:104DB000136C0BB1506C9847A30504D5054A936C4E
:104DC0000BB1D06C9847BDE81040FEF78BBE00BF1A
:104DD00000040140304F0020194B10B55C6904F409
:104DE0007C425A61620504D5164A136D0BB1506DB1
:104DF0009847230504D5134A936D0BB1D06D98479E
:104E0000E00404D50F4A136E0BB1506E9847A1040D
:104E100004D50C4A936E0BB1D06E9847620404D54A
:104E2000084A136F0BB1506F9847230404D5054A05
:104E3000936F0BB1D06F9847BDE81040FEF752BE9C
:104E400000040140304F002008B50348FEF7FEFE85
:104E5000BDE80840FEF746BEE44A002008B5FFF76B
:104E600057FEBDE80840FEF73DBE0000062108B52C
:104E70000846FEF76FFF06210720FEF76BFF0621AD
:104E80000820FEF767FF06210920FEF763FF0621D1
:104E90000A20FEF75FFF06211720FEF75BFF0621C1
:104EA0002820FEF757FF07211C20FEF753FFBDE81F
:104EB00008400C212520FEF74DBF000008B5FFF784
:104EC0003BFE00F009F8FFF7E9F8FFF7FBFDBDE84E
:104ED0000840FFF77FBD00000023054A1946013353
:104EE000102BC2E9001102F10802F8D1704700BF8F
:104EF000304F00200B460146184600F003B8000072
:104F000000F00EB810B5054C13462CB10A46014608
:104F10000220AFF3008010BD2046FCE70000000037
:104F2000024B0146186800F035B800BF2823002066
:104F300010B501390244904201D1002005E0037808
:104F400011F8014FA34201D0181B10BD0130F2E748
:104F50002DE9F041A3B1C91A17780144044603F1C1
:104F6000FF3C8C42204601D9002009E00578BD4273
:104F700004F10104F5D10CEB0405D618A54201D1CA
:104F8000BDE8F08115F8018D16F801EDF045F5D07A
:104F9000E7E7000037B5002944D051F8043C019000
:104FA000002BA1F10404B8BFE41800F047F81E4A32
:104FB0000198136833B96360146003B0BDE83040F2
:104FC00000F042B8A34208D9256861198B4201BF9D
:104FD00019685B6849192160EDE71A465B680BB1F7
:104FE000A342FAD911685518A5420BD1246821446F
:104FF0005418A3421160E0D11C685B6853602144DF
:105000001160DAE702D90C230360D6E7256861193D
:105010008B4204BF19685B68636004BF4919216053
:105020005460CAE703B030BDB04F0020034611F80A
:10503000012B03F8012B002AF9D17047014800F039
:1050400009B800BFB44F0020014800F005B800BF08
:10505000B44F002070470000704700006F72672E49
:105060006172647570696C6F742E6D526F2D4D3165
:1050700030303935000000004E6F206170702073B1
:1050800069670A00426164206677206C656E677408
:10509000682025750A0042616420626F6172645F56
:1050A00069642025752073686F756C6420626520C3
:1050B00025750A0042616420667720646573637217
:1050C0006970746F72206C656E6774682025750A4C
:1050D0000042616420617070204352432030782583
:1050E0003038783A307825303878203078253038A4
:1050F000783A3078253038780A00476F6F64206638
:1051000069726D776172650A0040A2E4F16468918A
:105110000600000053544D333247343F3F00000037
:105120004261642043414E496661636520696E6453
:1051300065782E000000000000000000A920000893
:10514000B11B000871270008A51B0008211C0008DE
:105150003D1E0008991D0008E91B0008ED1B000812
:10516000A91B0008C51B0008AD1B0008FD1D000899
:10517000D11B00084D280008DD1B0008D11D0008C8
:105180000096000000000000000000000000000089
:105190000000000000000000000000006540000862
:1051A000514000088D400008794000088540000803
:1051B000714000085D40000849400008994000081F
:1051C0006D61696E0000000069646C65000000009C
:1051D000C8510008904D0020084F00200100000039
:1051E00075420008000000000001A82A000000002D
:1051F000AAAABEAA00001424EFFF000000000000CD
:10520000709709000000000000000000AAAAAAAAE6
:1052100000000000FFFF0000000000000000000090
:105220000000000000000000AAAAAAAA00000000D6
:10523000FFFF000000000000000000000000000070
:1052400000000000AAAAAAAA00000000FFFF0000B8
:10525000000000000000000000000000000000004E
:10526000AAAAAAAA00000000FFFF00000000000098
:10527000000000000000000000000000AAAAAAAA86
:1052800000000000FFFF0000000000000000000020
:105290000000000000000000AAAAAAAA0000000066
:1052A000FFFF0000000000000000000074AFFF7F5F
:1052B00001000000000000001104000000000000D8
:1052C0000088030000000000FE2A0100D204000054
:1052D000FF00000000000000145100083F00000023
:1052E0002C2300200000000000000000000000004F
:1052F00000000000000000000000000000000000AE
:10530000000000000000000000000000000000009D
:10531000000000000000000000000000000000008D
:10532000000000000000000000000000000000007D
:10533000000000000000000000000000000000006D
:045340000000000069
:00000001FF
