:020000040800F2
:1000000000060020E1010008490D0008C90C0008A5
:10001000210D0008C90C0008F50C0008E3010008D8
:10002000E3010008E3010008E3010008711A000879
:10003000E3010008E3010008E3010008E301000810
:10004000E3010008E3010008E3010008E301000800
:10005000E3010008E30100084D1E0008751E0008BA
:100060009D1E0008C51E0008ED1E0008E3010008E3
:10007000E3010008E3010008E3010008E3010008D0
:10008000E3010008E3010008E3010008E3010008C0
:10009000E3010008E3010008E3010008151F000860
:1000A000E3010008E3010008E3010008E3010008A0
:1000B000FD1F0008E3010008E3010008E301000858
:1000C000E3010008E3010008E3010008E301000880
:1000D000E3010008E91F0008E3010008E30100084C
:1000E000791F0008E3010008E3010008E3010008AC
:1000F000E3010008E3010008E3010008E301000850
:10010000E3010008E3010008E3010008E30100083F
:10011000E3010008E3010008E3010008E30100082F
:10012000E3010008E3010008E3010008E30100081F
:10013000E3010008E3010008E3010008E30100080F
:10014000E3010008E3010008E3010008E3010008FF
:10015000E3010008E3010008E3010008E3010008EF
:10016000E3010008E3010008E3010008E3010008DF
:10017000E3010008E3010008E3010008E3010008CF
:10018000E3010008E3010008E3010008E3010008BF
:10019000E3010008E3010008E3010008E3010008AF
:1001A000E3010008E3010008E3010008E30100089F
:1001B000E3010008E3010008E3010008E30100088F
:1001C000E3010008E3010008E3010008E30100087F
:1001D000E3010008E3010008E3010008E30100086F
:1001E00002E000F000F8FEE772B63A4880F30888B3
:1001F000394880F3098839484EF60851CEF200019B
:10020000086040F20000CCF200004EF63471CEF2ED
:1002100000010860BFF34F8FBFF36F8F40F2000003
:10022000C0F2F0004EF68851CEF200010860BFF334
:100230004F8FBFF36F8F4FF00000E1EE100A4EF6C4
:100240003C71CEF200010860062080F31488BFF3F1
:100250006F8F01F08DFC01F069FC01F0B3FC4FF0F1
:1002600055301F491B4A91423CBF41F8040BFAE745
:100270001C49194A91423CBF41F8040BFAE71A495C
:100280001A4A1B4B9A423EBF51F8040B42F8040B2A
:10029000F8E700201749184A91423CBF41F8040B87
:1002A000FAE701F047FC01F0D3FC144C144DAC42CA
:1002B00003DA54F8041B8847F9E700F041F8114CC1
:1002C000114DAC4203DA54F8041B8847F9E701F0FA
:1002D0002FBC0000000600200022002000000008C3
:1002E0000000002000060020F82100080022002065
:1002F000202200202022002008280020E001000801
:10030000E0010008E0010008E00100082DE9F04FDD
:100310002DED108AC1F80CD0C3689D46BDEC108A43
:10032000BDE8F08F002383F311882846A047002002
:1003300001F020F9FEE701F0A5F800DFFEE700007C
:1003400038B501F063FB054601F088FB0446D0B9DF
:100350000F4B9D4219D001339D420DBF00254FF434
:100360007A7504460124002001F05AFB0CB100F01C
:1003700057F800F089FC00F07FFB284600F0A0F859
:1003800000F04EF8F9E70025EDE70546EBE700BF82
:10039000010007B008B500F041FBA0F1200358426E
:1003A000584108BD07B541F21203022101A8ADF87A
:1003B000043000F051FB03B05DF804FB10B52023BE
:1003C00083F311881248C3680BB101F04BF9114A4D
:1003D0000F4800234FF47A7101F008F9002383F3EA
:1003E00011880D4C236813B12368013B23606368B7
:1003F00013B16368013B6360084B1B7833B96368D2
:1004000023B9022000F0D6FB3223636010BD00BF89
:1004100020220020BD0300083C23002034220020BD
:1004200038B5214A214B196801313CD0043393423D
:10043000F9D11F4C1D4DD4F80428AA4233D31D4BCB
:100440009B6803F1006303F5F0439A422BD200202E
:1004500000F02CFB184B0220187000F0A3FB174B88
:100460009A6D00229A65996F9A67996FD96DDA65CE
:10047000D96FDA67D96F196E1A66D3F88010C3F88E
:100480008020D3F8803072B64FF0E0232021C3F8EB
:10049000085DD4F80038D4F8042881F311889D460B
:1004A00083F30888104738BD2078000800780008DA
:1004B00000700008002200203422002000100240BA
:1004C0002DE9F04F93B0A94B00902022FF210AA8FC
:1004D0009D6800F083FBA64A1378A3B9A5480121C3
:1004E000C3601170202383F31188C3680BB101F03E
:1004F000B9F8A14A9F4800234FF47A7101F076F8C9
:10050000002383F31188009B9C4A03B113609C492C
:10051000009C00230B70536098469B461E469A46EB
:10052000012000F03FFB24B1944B1B68002B00F02E
:100530001682002000F072FA0390039B002BF2DB7E
:10054000012000F027FB039B213B162BE8D801A2DA
:1005500052F823F0B1050008D90500086D0600081F
:1005600021050008210500082105000801070008F1
:10057000D3080008ED0700084F08000877080008B6
:100580009D08000821050008AF08000821050008A3
:100590002109000851060008210500086509000826
:1005A000BD05000851060008210500084F08000895
:1005B0000220FFF7EFFE002840F0FB81009B0221A4
:1005C000B8F1000F08BF1C4605A841F21233ADF880
:1005D000143000F041FAA3E74FF47A7000F01EFAED
:1005E000071EEBDB0220FFF7D5FE0028E6D0013F17
:1005F000052F00F2E081DFE807F0030A0D10133643
:1006000005230593042105A800F026FA17E05748B2
:100610000421F9E75B480421F6E75B480421F3E78E
:100620004FF01C09484600F043FA09F1040905900F
:10063000042105A800F010FAB9F12C0FF2D1012025
:1006400000FA07F747EA0B0B5FFA8BFB4FF0000A43
:1006500000F010FB26B10BF00B030B2B08BF00249E
:10066000FFF7A0FE5CE749480421CDE7002EA5D0A6
:100670000BF00B030B2BA1D10220FFF78BFE0746DB
:1006800000289BD001203E4E00F010FA022030706E
:1006900000F088FA4FF000085FFA88F9484600F049
:1006A00017FA044690B1484600F022FA08F1010812
:1006B0000028F1D1B846044641F21213022105A8E0
:1006C000ADF814303E4600F0C7F929E701230220B7
:1006D000337000F05FFA2546244B9B68AB4207D984
:1006E000284600F0E5F9013040F068810435F3E771
:1006F000234B00251D70214BB8465D603E46A7E7A1
:10070000002E3FF45BAF0BF00B030B2B7FF456AFC7
:100710001B4B0220187000F045FA322000F07EF9E1
:10072000B0F10009FFF64AAF19F003077FF446AFB6
:100730000E4A926809EB050393423FF63FAFB9F5C5
:10074000807F3FF73BAF124B0193B94522DD4FF459
:100750007A7000F063F90390039A002AFFF62EAF37
:10076000019B039A03F8012B0137EDE700220020DB
:100770003823002020220020BD0300083C23002055
:100780003422002004220020082200200C22002015
:1007900038220020C820FFF7FDFD074600283FF45F
:1007A0000DAF1F2D11D8C5F120024A450AAB25F027
:1007B000030028BF4A4683490192184400F004FA16
:1007C000019A8048FF2100F009FA4FEAA9037D4908
:1007D0000193C9F38702284600F008FA064600286C
:1007E0003FF46AAF019B05EB830531E70220FFF779
:1007F000D1FD00283FF4E2AE00F096F900283FF466
:10080000DDAE0027B946704B9B68BB4218D91F2F3D
:1008100011D80A9B01330ED027F0030312AA134408
:1008200053F8203C05934846042205A900F08EFAAF
:1008300004378146E7E7384600F03AF90590F2E7D9
:10084000CDF81490042105A800F006F900E7002374
:10085000642104A8049300F0F5F800287FF4AEAEFC
:100860000220FFF797FD00283FF4A8AE049800F09F
:1008700051F90590E6E70023642104A8049300F0F1
:10088000E1F800287FF49AAE0220FFF783FD0028EC
:100890003FF494AE049800F03FF9EAE70220FFF736
:1008A00079FD00283FF48AAE00F04EF9E1E702201E
:1008B000FFF770FD00283FF481AE05A9142000F079
:1008C00049F904210746049004A800F0C5F8394608
:1008D000B9E7322000F0A2F8071EFFF66FAEBB07A3
:1008E0007FF46CAE384A926807EB0A0393423FF6F6
:1008F00065AE0220FFF74EFD00283FF45FAE27F003
:1009000003075744BA453FF4A3AE504600F0D0F871
:100910000421059005A800F09FF80AF1040AF1E708
:100920004FF47A70FFF736FD00283FF447AE00F031
:10093000FBF8002844D00A9B01330BD008220AA9F7
:10094000002000F053F900283AD02022FF210AA805
:1009500000F044F9FFF726FD1C4800F011FE13B02B
:10096000BDE8F08F002E3FF429AE0BF00B030B2BEC
:100970007FF424AE0023642105A8059300F062F8FB
:10098000074600287FF41AAE0220FFF703FD8146D8
:1009900000283FF413AEFFF705FD41F2883000F068
:1009A000EFFD059800F07CF94E4600F063F93C46F7
:1009B000B6E506464CE64FF0000AFFE5B8467BE692
:1009C000374679E63822002000220020A086010068
:1009D00070B50F4B1B780133DBB2012B0C4611D8DD
:1009E0000C4D29684FF47A730E6AA2FB033201465C
:1009F00022462846B047844204D1074B00221A7091
:100A0000012070BD4FF4FA7000F0BAFD0020F8E745
:100A1000102200208C2300208823002007B500230B
:100A2000024601210DF107008DF80730FFF7D0FFD6
:100A300020B19DF8070003B05DF804FB4FF0FF30D4
:100A4000F9E700000A4608B50421FFF7C1FF80F06E
:100A50000100C0B2404208BD30B4054C2368DD69D6
:100A6000044B0A46AC460146204630BC604700BFF6
:100A70008C230020A086010070B500F0B9FE094E5D
:100A8000094D3080002428683388834208D900F05B
:100A9000ABFE2B6804440133B4F5F04F2B60F2D366
:100AA00070BD00BF8A2300204423002000F060BFF7
:100AB00000F1006000F5E040D0F800087047000049
:100AC00000F10060920000F5F04000F0D5BE00009B
:100AD000054B1A68054B1B889B1A834202D91044A8
:100AE00000F082BE00207047442300208A230020AB
:100AF00038B5074D04462868204400F07BFE28B92D
:100B000028682044BDE8384000F086BE38BD00BFEC
:100B1000442300200020704700F10050A0F5104051
:100B2000D0F8900570470000064991F8243033B1A1
:100B30000023086A81F824300822FFF7C1BF012092
:100B4000704700BF48230020014B1868704700BF62
:100B5000002004E070B50E4B5C6893F90860421EFB
:100B60000A44013C0B46934207D214F9015F581C1A
:100B70002DB100F8015C0346F5E7184605E02C248A
:100B800082421C7001D9981C5E70401A70BD00BF73
:100B900014220020022802BF4FF0904320229A61C5
:100BA00070470000022802BF4FF090434FF400123C
:100BB0009A617047022801BF4FF09042536983F059
:100BC000200353617047000010B50023934203D007
:100BD000CC5CC4540133F9E710BD00000244034665
:100BE000934202D003F8011BFAE770472DE9F8435E
:100BF0001F4D144695F824200746884652BBDFF85F
:100C000070909CB395F824302BB92022FF214846E0
:100C10002F62FFF7E3FF95F82400C0F10802A2421B
:100C200028BF2246D6B24146920005EB8000FFF76E
:100C3000CBFF95F82430A41B1E44F6B2082E1744AF
:100C40009044E4B285F82460DBD1FFF76DFF002803
:100C5000D7D108E02B6A03EB82038342CFD0FFF7A2
:100C600063FF0028CBD10020BDE8F8830120FBE71B
:100C700048230020024B1A78024B1A70704700BFBD
:100C80008823002010220020034904484FF4E13358
:100C90000B6000F01BBB00BF702300208C230020E2
:100CA000074B10B50021044618221846FFF796FF9F
:100CB00004600146BDE81040024800F007BB00BFD9
:100CC000702300208C23002000B59BB0EFF3098136
:100CD00068226846FFF778FFEFF30583044B9A6BB1
:100CE000DA6A9A6A9A6A9A6A9A6A9A6A9B6AFEE7C2
:100CF00000ED00E000B59BB0EFF309816822684683
:100D0000FFF762FFEFF30583044B9A6B9A6A9A6AC6
:100D10009A6A9A6A9A6A9B6AFEE700BF00ED00E051
:100D200000B59BB0EFF3098168226846FFF74CFFDE
:100D3000EFF30583034B5A6B9A6A9A6A9A6A9A6A26
:100D40009B6AFEE700ED00E0FEE7000030B5094DCC
:100D50000A4491420DD011F8013B5840082340F35A
:100D60000004013B2C4013F0FF0384EA5000F6D14D
:100D7000EFE730BD2083B8ED02684368114301609E
:100D800003B1184770470000024A136843F0C003DC
:100D9000136070470038014013B50E4C204600F038
:100DA00089FA04F114000C49009400234FF4807276
:100DB00000F04AF9094B0A4900944FF4807204F19B
:100DC000380000F0C3F9074A074BC4E9172302B003
:100DD00010BD00BF8C230020F8230020890D0008DF
:100DE000F824002000380140007A030A30B5037C63
:100DF000234C002918BF0C46012B0FD1214B9842E0
:100E00000CD1214B1A6E42F480421A66D3F880202E
:100E100042F48042C3F88020D3F880302268036E09
:100E2000C16D846603EB5203B3FBF2F362681504F1
:100E300042BF23F0070503F0070343EA4503CB60F5
:100E4000A36843F040034B60E36843F001038B6009
:100E500042F4967343F001030B604FF0FF330B62D3
:100E6000510505D512F0102205D0B2F1805F04D0F3
:100E700080F8643030BD7F23FAE73F23F8E700BFF6
:100E8000CC2000088C230020001002402DE9F04700
:100E9000C66D3768F46934622107054618D014F02E
:100EA000080118BF8021E20748BF41F02001A307D5
:100EB00048BF41F04001600748BF41F480712023E2
:100EC00083F31188281DFFF757FF002383F3118850
:100ED000E2050AD5202383F311884FF40071281D01
:100EE000FFF74AFF002383F311884FF020094FF0EA
:100EF000000A14F0200838D13B0616D54FF020091F
:100F000005F1380A200610D589F31188504600F003
:100F100051F9002836DA0821281DFFF72DFF27F0A8
:100F200080033360002383F31188790614D56206A9
:100F300012D5202383F31188D5E913239A4208D1CF
:100F40002B6C33B11021281D27F04007FFF714FF49
:100F50003760002383F31188E30618D5AA6E13695E
:100F6000ABB1BDE8F0475069184789F31188736A3F
:100F700095F864102846194000F0B6F98AF31188F4
:100F8000F469B6E7B06288F31188F469BAE7BDE89E
:100F9000F0870000F8B5154682680669AA420B463C
:100FA000816938BF8568761AB54204460BD2184667
:100FB0002A46FFF709FEA3692B44A361A3685B1BC4
:100FC000A3602846F8BD0CD918463246FFF7FCFD51
:100FD000AF1BE1683A463044FFF7F6FDE3683B4457
:100FE000EBE718462A46FFF7EFFDE368E5E7000068
:100FF00083689342F7B51546044638BF8568D0E943
:101000000460361AB5420BD22A46FFF7DDFD63694C
:101010002B446361A36828465B1BA36003B0F0BD4B
:101020000DD932460191FFF7CFFD0199E068AF1B62
:101030003A463144FFF7C8FDE3683B44E9E72A46F6
:10104000FFF7C2FDE368E4E710B50A440024C3617A
:10105000029B8460C0E90000C0E90511C160026123
:10106000036210BD08B5D0E90532934201D1826810
:1010700082B98268013282605A1C42611970D0E9DB
:1010800004329A4224BFC3684361002100F094FAFD
:10109000002008BD4FF0FF30FBE7000070B52023B3
:1010A00004460E4683F31188A568A5B1A368A2691A
:1010B000013BA360531CA36115782269934224BFAE
:1010C000E368A361E3690BB120469847002383F3EB
:1010D0001188284607E03146204600F05DFA0028D6
:1010E000E2DA85F3118870BD2DE9F74F04460E460C
:1010F00017469846D0F81C904FF0200A8AF31188C2
:101100004FF0000B154665B12A4631462046FFF7E1
:1011100041FF034660B94146204600F03DFA0028F1
:10112000F1D0002383F31188781B03B0BDE8F08F62
:10113000B9F1000F03D001902046C847019B8BF303
:101140001188ED1A1E448AF31188DCE7C0E9051105
:10115000C160C3611144009B8260C0E9000001616D
:1011600003627047F8B504460D461646202383F304
:101170001188A768A7B1A368013BA36063695A1CE3
:1011800062611D70D4E904329A4224BFE36863614E
:10119000E3690BB120469847002080F3118807E0EF
:1011A0003146204600F0F8F90028E2DA87F311888A
:1011B000F8BD0000D0E905239A4210B501D182683C
:1011C0007AB98268013282605A1C82611C78036994
:1011D0009A4224BFC3688361002100F0EDF92046E4
:1011E00010BD4FF0FF30FBE72DE9F74F04460E46E8
:1011F00017469846D0F81C904FF0200A8AF31188C1
:101200004FF0000B154665B12A4631462046FFF7E0
:10121000EFFE034660B94146204600F0BDF90028C4
:10122000F1D0002383F31188781B03B0BDE8F08F61
:10123000B9F1000F03D001902046C847019B8BF302
:101240001188ED1A1E448AF31188DCE702684368AE
:101250001143016003B11847704700001430FFF7D5
:1012600043BF00004FF0FF331430FFF73DBF0000D5
:101270003830FFF7B9BF00004FF0FF333830FFF7C9
:10128000B3BF00001430FFF709BF00004FF0FF317B
:101290001430FFF703BF00003830FFF763BF0000D2
:1012A0004FF0FF323830FFF75DBF0000002070477D
:1012B000FFF772BD044B03600023C0E902334360B3
:1012C00001230374704700BFE420000810B52023F9
:1012D000044683F31188FFF789FD0223237400235A
:1012E00083F3118810BD000038B5C36904460D466C
:1012F0001BB904210844FFF7A9FF294604F1140093
:10130000FFF7B0FE002806DA201D4FF48061BDE82B
:101310003840FFF79BBF38BD024B0022C3E90033C2
:101320009A607047F8250020002303748268054BFB
:101330001B6899689142FBD25A6803604260106052
:1013400058607047F825002008B5202383F31188E2
:10135000037C032B05D0042B0DD02BB983F311880C
:1013600008BD436900221A604FF0FF334361FFF765
:10137000DBFF0023F2E7D0E9003213605A60F3E7A5
:10138000002303748268054B1B6899689142FBD85F
:101390005A6803604260106058607047F82500206A
:1013A000054B19690874186802681A60536018615F
:1013B00001230374FEF7AABFF825002030B54B1CAB
:1013C0000B4D87B0044610D02B690A4A01A800F0E3
:1013D0000DF92046FFF7E4FF049B13B101A800F0CC
:1013E00041F92B69586907B030BDFFF7D9FFF8E71D
:1013F000F82500204913000838B50C4D41612B69D0
:1014000081689A689142044603D8BDE83840FFF7E6
:101410008BBF1846FFF7B4FF01232C6101462374EC
:101420002046BDE83840FEF771BF00BFF825002018
:10143000044B1A681B6990689B68984294BF00200F
:1014400001207047F825002010B5084C236820695A
:101450001A6822605460012223611A74FFF790FF1A
:1014600001462069BDE81040FEF750BFF825002076
:1014700008B5FFF7DDFF18B1BDE80840FFF7E4BF8E
:1014800008BD0000FFF7E0BFFEE7000010B50C4C00
:10149000FFF742FF00F09CF80A498022204600F046
:1014A00031F8012344F8180C037400F0F1FA00231A
:1014B00083F3118862B60448BDE8104000F042B8DA
:1014C000202600200C2100081C21000800F004B98F
:1014D000EFF3118020B9EFF30583202282F3118806
:1014E0007047000010B530B9EFF30584C4F3080469
:1014F00014B180F3118810BDFFF7BAFF84F311888F
:10150000F9E7000082600222028270478368A3F13B
:101510007C0243F80C2C026943F83C2C426943F8E6
:10152000382C074A43F81C2CC26843F8102C0222BE
:1015300003F8082C002203F8072CA3F118007047C9
:101540002503000810B5202383F31188FFF7DEFF81
:1015500000210446FFF750FF002383F31188204643
:1015600010BD0000024B1B6958610F20FFF718BF28
:10157000F8250020202383F31188FFF7F3BF000034
:1015800008B50146202383F311880820FFF716FFD2
:10159000002383F3118808BD49B1064B42681B69DB
:1015A00018605A60136043600420FFF707BF4FF0D4
:1015B000FF307047F82500200368984206D01A686B
:1015C0000260506059611846FFF7AEBE70470000D8
:1015D000054B03F11402C3E905224FF0FF3100224D
:1015E000C3E90712704700BFF825002070B51C4EF4
:1015F000C0E9032305460C4600F0D0FA334653F801
:10160000142F9A420DD13062C5E901242A600A2CB8
:101610002CBF00190A30C6E90555BDE8704000F03E
:10162000ABBA316A431AE31838BF1C469368A34229
:1016300002D9081900F0AEFA73699A6894420CD87E
:101640005A68AC602B606A6015609A685D60121B16
:101650009A604FF0FF33F36170BD1B68A41AECE78A
:10166000F825002038B51B4C636998420DD0D0E9AD
:10167000003213605A6000228168C2609A680A448E
:101680009A604FF0FF33E36138BD2246036842F8A9
:10169000143F002193425A60C16003D1BDE8384035
:1016A00000F072BA9A688168256A0A449A6000F06C
:1016B00075FA63699A68411B8A42E5D9AB181D1A0D
:1016C000092D206A98BF01F10A02BDE83840104494
:1016D00000F060BAF82500202DE9F041184C0027F1
:1016E00004F11406656900F059FA236AAA68C11A60
:1016F0008A4215D813442362D5E9003213605A6038
:101700006369D5F80C80EF60B34201D100F03CFA78
:1017100087F311882869C047202383F31188E1E704
:101720006169B14209D013441B1ABDE8F0410A2B8C
:101730002CBFC0180A3000F02DBABDE8F08100BF00
:10174000F825002000207047FEE7000070470000E9
:101750004FF0FF3070470000BFF34F8F024A13690C
:10176000DB03FCD4704700BF0020024008B5094BE2
:101770001B7873B9FFF7F0FF074B5A69002ABFBF08
:10178000064A9A6002F188329A601A6822F48062EE
:101790001A6008BD80270020002002402301674511
:1017A00008B50B4B1B7893B9FFF7D6FF094B5A6965
:1017B00042F000425A611A6842F480521A601A6874
:1017C00022F480521A601A6842F480621A6008BDDE
:1017D00080270020002002407F289ABF00F580303B
:1017E000C0020020704700004FF400607047000006
:1017F000802070477F2808B50BD8FFF7EDFF00F574
:1018000000630268013204D104308342F9D101201F
:1018100008BD0020FCE700007F2838B5044626D824
:10182000FFF756FEFFF798FFFFF7A0FF114BF322DB
:101830001A6102225A615A6942EAC4025A615A691B
:1018400042F480325A6105462046FFF785FF4FF487
:101850000061FFF7C1FF00F0F1F82846FFF7A0FF95
:10186000FFF740FE2046BDE83840FFF7C3BF002029
:1018700038BD00BF0020024040EA020313F0070316
:101880002DE9F04705460C46164606D0324B40F28D
:10189000FB221A600020BDE8F08781182F4A914290
:1018A0000CD92D4A4FF440711160F3E72B1D1B68D2
:1018B0006268934208D1083E08350834072E19D9CA
:1018C0002A6823689A42F1D0FFF702FEFFF74EFF25
:1018D000FFF742FF04F10801214C4FF001084FF0DF
:1018E0000009012EA1F1080708D8FFF759FFFFF7FB
:1018F000F9FD01E0002EE7D10120CCE7C4F8148007
:10190000AA4651F8083C4AF8043B51F8043C6B6085
:10191000FFF722FFC4F814902A6851F8083C9A4255
:101920000ED00D4B40F226321A600E4B1D600E4B4E
:101930001E600E4B1F60FFF733FFFFF7D3FDA9E7D3
:10194000DAF800A051F8043C9A4501F10801E8D109
:10195000083E0835C5E700BF7C27002000000408CA
:1019600000200240702700207827002074270020E4
:10197000084908B50B7828B11BB9FFF7F7FE01231A
:101980000B7008BD002BFCD0BDE808400870FFF7C5
:1019900007BF00BF802700200244D2B2904200D18E
:1019A0007047431C800000F1804000F5145000682F
:1019B00041F8040BD8B2F1E7124B10B5D3F89040C0
:1019C000240409D4D3F89040C3F89040D3F8904051
:1019D00044F40044C3F890400B4C2368024443F4A1
:1019E00080732360D2B2904200D110BD431C8000AE
:1019F00000F1804000F5145051F8044B0460D8B257
:101A0000F1E700BF001002400070004007B501225E
:101A100001A90020FFF7C0FF019803B05DF804FBA7
:101A200013B50446FFF7F2FFA04205D0012201A939
:101A300000200194FFF7C0FF02B010BD7047000006
:101A4000054B1A6832B902F1804202F50432D2F82D
:101A500094201A60704700BF8427002008B5FFF764
:101A6000EFFF024B1868C0F3407008BD84270020C8
:101A7000EFF3098305494A6B22F001024A63683398
:101A800083F30988002383F31188704700EF00E097
:101A9000202080F3118862B60C4B0D4AD96821F4DE
:101AA000E0610904090C0A43DA60D3F8FC20094913
:101AB00042F08072C3F8FC200A6842F001020A601A
:101AC0001022DA7783F82200704700BF00ED00E0B3
:101AD0000003FA05001000E010B5202383F31188FD
:101AE0000E4B5B6813F4006314D0F1EE103AEFF381
:101AF0000984683C4FF08073E361094BDB6B23661C
:101B000084F30988FFF794FC10B1064BA36110BD64
:101B1000054BFBE783F31188F9E700BF00ED00E018
:101B200000EF00E0370300083A03000870470000A8
:101B3000FEE700000A4B0B480B4A90420BD30B4BBD
:101B4000DA1C121AC11E22F003028B4238BF002297
:101B50000021FFF743B853F8041B40F8041BECE7DF
:101B60001822000808280020082800200828002043
:101B70007047000000F078B84FF0804300225863AF
:101B80001A610222DA6070474FF080430022DA6067
:101B9000704700004FF08043586370474FF0804318
:101BA000586A70474B6843608B688360CB68C3603A
:101BB0000B6943614B6903628B6943620B68036085
:101BC0007047000008B5204BDA6A42F07F02DA6203
:101BD000DA6A22F07F02DA62DA6ADA6C42F07F02B5
:101BE000DA64DA6E42F07F02DA66184ADB6E11467A
:101BF0004FF09040FFF7D6FF02F11C0100F5806026
:101C0000FFF7D0FF02F1380100F58060FFF7CAFF4F
:101C100002F1540100F58060FFF7C4FF02F170018A
:101C200000F58060FFF7BEFF02F18C0100F58060D7
:101C3000FFF7B8FF02F1A80100F58060FFF7B2FFDF
:101C4000BDE8084000F064B80010024034210008EC
:101C500008B500F019FAFFF719FCBDE80840FFF7D6
:101C6000EFBE0000704700000F4B9A6D42F001027A
:101C70009A659A6F42F001029A670C4A9B6F9368CB
:101C800043F0010393604FF08043A7229A624FF024
:101C9000FF32DA6200229A615A63DA605A600122E6
:101CA0005A611A60704700BF00100240002004E033
:101CB0004FF0804208B51169D3680B40D9B2C943CF
:101CC0009B07116107D5202383F31188FFF7FEFBE3
:101CD000002383F3118808BD08B50B4BD3F890207F
:101CE00012F4407F1FBF4FF48032C3F890200022CF
:101CF000C3F89020D3F89020C3F8902000F086F924
:101D0000024B00225A6008BD0010024000700040E3
:101D1000484B4FF0FF319A6A99629A6A00229A62A0
:101D2000986AD86A60F07F00D862D86A00F07F00B5
:101D3000D862D86A186B1963186B1A63186B986BA2
:101D40009963986B9A63986BD86BD963D86BDA6395
:101D5000D86B186C1964196C1A641A6C9A6D42F07D
:101D600080529A659A6F22F080529A679A6F324A2F
:101D70004FF400711160516911F48061FBD14FF48F
:101D80000040516090604FF48070D160C2F88000D4
:101D9000116251629162D162116351639163D163A7
:101DA000116451649164D16411655165D3F8982030
:101DB00042F00102C3F89820D3F898209007FBD591
:101DC0001A6842F480321A601A689103FCD51A49E5
:101DD0000A6842F480720A60184ADA601A6842F0AF
:101DE00080721A601A689201FCD5002214499A6028
:101DF000C3F888101349C3F89C20134A0A600A6884
:101E000002F00F02042AFAD19A6842F003029A60A3
:101E10009A6802F00C020C2AFAD11A6E42F0010202
:101E20001A66D3F8802042F00102C3F88020D3F86C
:101E3000803070470010024000700040232A61018A
:101E4000550100500020024004070400074A08B56D
:101E5000536903F00103536123B1054A13680BB1C1
:101E600050689847BDE80840FFF736BE00040140BF
:101E700088270020074A08B5536903F0020353611D
:101E800023B1054A93680BB1D0689847BDE8084074
:101E9000FFF722BE0004014088270020074A08B54A
:101EA000536903F00403536123B1054A13690BB16D
:101EB00050699847BDE80840FFF70EBE0004014096
:101EC00088270020074A08B5536903F008035361C7
:101ED00023B1054A93690BB1D0699847BDE8084022
:101EE000FFF7FABD0004014088270020074A08B523
:101EF000536903F01003536123B1054A136A0BB110
:101F0000506A9847BDE80840FFF7E6BD000401406D
:101F100088270020164B10B55C6904F478725A616A
:101F2000A30604D5134A936A0BB1D06A984760069A
:101F300004D5104A136B0BB1506B9847210604D59A
:101F40000C4A936B0BB1D06B9847E20504D5094A54
:101F5000136C0BB1506C9847A30504D5054A936CDC
:101F60000BB1D06C9847BDE81040FFF7B5BD00BF7E
:101F70000004014088270020194B10B55C6904F467
:101F80007C425A61620504D5164A136D0BB1506D3F
:101F90009847230504D5134A936D0BB1D06D98472C
:101FA000E00404D50F4A136E0BB1506E9847A1049C
:101FB00004D50C4A936E0BB1D06E9847620404D5D9
:101FC000084A136F0BB1506F9847230404D5054A94
:101FD000936F0BB1D06F9847BDE81040FFF77CBD01
:101FE000000401408827002008B50348FEF74EFF93
:101FF000BDE80840FFF770BD8C23002008B5FFF74F
:1020000057FEBDE80840FFF767BD0000062108B590
:10201000084600F023F80621072000F01FF80621EB
:10202000082000F01BF80621092000F017F806210F
:102030000A2000F013F80621172000F00FF80621FF
:10204000282000F00BF807211C2000F007F8BDE85D
:1020500008400C21252000F001B8000000F1604389
:1020600003F561430901C9B283F80013012200F0AE
:102070001F039A4043099B0003F1604303F561434A
:10208000C3F880211A60704708B5FFF725FE00F0FD
:1020900009F8FFF70DF9FFF7E5FDBDE80840FFF788
:1020A00069BD00000023054A19460133102BC2E91F
:1020B000001102F10802F8D1704700BF8827002004
:1020C00053544D333247343F3F0000000096000028
:1020D0000000000000000000000000000000000000
:1020E00000000000000000007912000865120008DE
:1020F000A11200088D12000899120008851200082C
:10210000711200085D120008AD1200086D61696E61
:102110000000000069646C650000000014210008E4
:1021200038260020702700200100000089140008D4
:10213000000000000004282800000000AAAABEAA8F
:1021400000001424DFFF0000000000007007000002
:102150000000000000000000AAAAAAAA00000000D7
:10216000FFFF000000000000000000000000000071
:1021700000000000AAAAAAAA00000000FFFF0000B9
:10218000000000000000000000000000000000004F
:10219000AAAAAAAA00000000FFFF00000000000099
:1021A000000000000000000000000000AAAAAAAA87
:1021B00000000000FFFF0000000000000000000021
:1021C0000000000000000000AAAAAAAA0000000067
:1021D000FFFF000000000000000000000000000001
:1021E00000000000AAAAAAAA00000000FFFF000049
:1021F00000000000000000001004000000000000CB
:102200000088030000000000FF0000000000000044
:08221000C02000083F0000009F
:00000001FF
