:020000040800F2
:1000000000070020F5040008652C0008E52B000817
:100010003D2C0008E52B0008112C0008F70400080F
:10002000F7040008F7040008F70400081D3B000867
:10003000F7040008F7040008F7040008F7040008B4
:10004000F7040008F7040008F7040008F7040008A4
:10005000F7040008F7040008AD650008D96500083A
:1000600005660008316600085D660008F7040008B0
:10007000F7040008F7040008F7040008F704000874
:10008000F7040008F7040008F70400082128000816
:100090004D2800085D280008F7040008896600085C
:1000A000F7040008F7040008F7040008F704000844
:1000B0001D640008F7040008F7040008F7040008AE
:1000C000F7040008F7040008F7040008F704000824
:1000D000F7040008F7040008013C0008F7040008D2
:1000E000F1660008F7040008F7040008F7040008A8
:1000F000F7040008F7040008F7040008F7040008F4
:10010000F7040008F7040008F7040008F7040008E3
:10011000F7040008F7040008F7040008F7040008D3
:10012000F7040008F7040008F7040008F7040008C3
:10013000F7040008F7040008F7040008F7040008B3
:10014000F7040008F7040008F7040008455C0008FD
:10015000F7040008F7040008F7040008F704000893
:10016000F7040008F7040008F7040008F704000883
:10017000F7040008F7040008F7040008F704000873
:10018000F7040008F7040008F7040008F704000863
:10019000F7040008F7040008F7040008F704000853
:1001A000F7040008F7040008F7040008F704000843
:1001B000F7040008F7040008F7040008F704000833
:1001C000F7040008F7040008F7040008F704000823
:1001D000F7040008F7040008F7040008F704000813
:1001E00001190008000000000000000000000000ED
:1001F00053B94AB9002908BF00281CBF4FF0FF318E
:100200004FF0FF3000F074B9ADF1080C6DE904CE89
:1002100000F006F8DDF804E0DDE9022304B07047E1
:100220002DE9F047089D04468E46002B4DD18A42A9
:10023000944669D9B2FA82F252B101FA02F3C2F1DC
:10024000200120FA01F10CFA02FC41EA030E94406D
:100250004FEA1C48210CBEFBF8F61FFA8CF708FB8E
:1002600016E341EA034306FB07F199420AD91CEB66
:10027000030306F1FF3080F01F81994240F21C8198
:10028000023E63445B1AA4B2B3FBF8F008FB1033E0
:1002900044EA034400FB07F7A7420AD91CEB040415
:1002A00000F1FF3380F00A81A74240F207816444E5
:1002B000023840EA0640E41B00261DB1D44000236A
:1002C000C5E900433146BDE8F0878B4209D9002DCE
:1002D00000F0EF800026C5E9000130463146BDE858
:1002E000F087B3FA83F6002E4AD18B4202D38242C2
:1002F00000F2F980841A61EB030301209E46002D71
:10030000E0D0C5E9004EDDE702B9FFDEB2FA82F2C5
:10031000002A40F09280A1EB0C014FEA1C471FFA23
:100320008CFE0126200CB1FBF7F307FB131140EA0A
:1003300001410EFB03F0884208D91CEB010103F1D7
:10034000FF3802D2884200F2CB804346091AA4B299
:10035000B1FBF7F007FB101144EA01440EFB00FE6D
:10036000A64508D91CEB040400F1FF3102D2A645D2
:1003700000F2BB800846A4EB0E0440EA03409CE771
:10038000C6F12007B34022FA07FC4CEA030C20FA1E
:1003900007F401FA06F31C43F9404FEA1C4900FA3E
:1003A00006F3B1FBF9F8200C1FFA8CFE09FB1811BB
:1003B00040EA014108FB0EF0884202FA06F20BD92E
:1003C0001CEB010108F1FF3A80F08880884240F27E
:1003D0008580A8F102086144091AA4B2B1FBF9F0C2
:1003E00009FB101144EA014100FB0EFE8E4508D9BD
:1003F0001CEB010100F1FF346CD28E456AD9023842
:10040000614440EA0840A0FB0294A1EB0E01A14226
:10041000C846A64656D353D05DB1B3EB080261EB94
:100420000E0101FA07F722FA06F3F1401F43C5E96E
:10043000007100263146BDE8F087C2F12003D840A4
:100440000CFA02FC21FA03F3914001434FEA1C47E6
:100450001FFA8CFEB3FBF7F007FB10360B0C43EAD8
:10046000064300FB0EF69E4204FA02F408D91CEB88
:10047000030300F1FF382FD29E422DD90238634486
:100480009B1B89B2B3FBF7F607FB163341EA034126
:1004900006FB0EF38B4208D91CEB010106F1FF3875
:1004A00016D28B4214D9023E6144C91A46EA00466C
:1004B00038E72E46284605E70646E3E61846F8E6FE
:1004C0004B45A9D2B9EB020864EB0C0E0138A3E747
:1004D0004646EAE7204694E74046D1E7D0467BE728
:1004E000023B614432E7304609E76444023842E7A0
:1004F000704700BF02E000F000F8FEE772B63A482D
:1005000080F30888394880F3098839484EF6085145
:10051000CEF20001086040F20000CCF200004EF67E
:100520003471CEF200010860BFF34F8FBFF36F8FBD
:1005300040F20000C0F2F0004EF68851CEF2000109
:100540000860BFF34F8FBFF36F8F4FF00000E1EEF5
:10055000100A4EF63C71CEF200010860062080F3CE
:100560001488BFF36F8F05F051F805F02DF805F0F2
:10057000B9FE4FF055301F491B4A91423CBF41F82C
:10058000040BFAE71C49194A91423CBF41F8040B9D
:10059000FAE71A491A4A1B4B9A423EBF51F8040B1C
:1005A00042F8040BF8E700201749184A91423CBF73
:1005B00041F8040BFAE705F00BF805F0E7FE144CE0
:1005C000144DAC4203DA54F8041B8847F9E700F0F5
:1005D00041F8114C114DAC4203DA54F8041B884722
:1005E000F9E704F0F3BF000000070020002300201B
:1005F000000000080001002000070020D06F000864
:1006000000230020B0230020B0230020EC53002062
:10061000E0010008E4010008E4010008E40100082A
:100620002DE9F04F2DED108AC1F80CD0C3689D461E
:10063000BDEC108ABDE8F08F002383F311882846B3
:10064000A047002004F028FBFEE704F097FA00DF43
:10065000FEE70000F8B501F0ABFA30B1294B0022FB
:100660000F211A725A729972DA7204F047FF074624
:1006700004F096FF0546C8BB234B9F4236D001339A
:100680009F4236D0214B27F0FF029A4234D1F8B274
:1006900000F048FD2E4642F2107400F04DFF08B104
:1006A0000024264600F044FD08B90646044635B14C
:1006B000174B9F4203D004F06BFF00242646002016
:1006C00004F026FF134B1B6913F4807318D00EB18E
:1006D00000F068F801F042FB00F08CFF01F092F9A5
:1006E000204600F0BBF800F05DF8F9E72E46002444
:1006F000D3E704460126D0E7064641F28834CCE72A
:100700001C46E7E700230020010007B0000008B006
:10071000263A09B00004024008B501F03FF9A0F103
:1007200020035842584108BD07B541F21203022187
:1007300001A8ADF8043001F04FF903B05DF804FBF7
:1007400010B5202383F311881248C3680BB104F05D
:1007500029FB114A0F4800234FF47A7104F0E6FA9E
:10076000002383F311880D4C236813B12368013BE8
:100770002360636813B16368013B6360084B1B78B7
:1007800033B9636823B9022001F05AFA3223636057
:1007900010BD00BFB023002041070008CC2400207A
:1007A000C4230020274B284A10B51C461968013184
:1007B00046D004339342F9D16268244B9A423FD920
:1007C000234B9B6803F1006303F580339A4237D2D1
:1007D00004F0B2FE04F0C4FE002001F02DF91D4B20
:1007E0000220187001F01CFA1B4B1A6C00221A64CC
:1007F000196E1A66196E596C5A64596E5A665A6E99
:100800005A6942F080025A615A6922F080025A61A4
:100810005A691A6942F000521A611A6922F00052AC
:100820001A611B6972B64FF0E0232021C3F8084D0E
:10083000D4E9003281F311889D4683F3088810477C
:1008400010BD00BF0000010820000108FFFF0008E4
:1008500000230020C4230020003802402DE9F04F7F
:1008600093B0AC4B00902022FF210AA89D6801F0B4
:100870001FFAA94A1378A3B9A8480121C3601170CF
:10088000202383F31188C3680BB104F08BFAA44AC8
:10089000A24800234FF47A7104F048FA002383F34E
:1008A0001188009B9F4A03B113609F49009C00235D
:1008B0000B70536098469B461E469A46012001F0F5
:1008C000AFF924B1974B1B68002B00F01C8200206D
:1008D00001F064F80390039B002B01DA00F0D0FED6
:1008E000039B002BEDDB012001F08CF9039B213BE6
:1008F000162BE3D801A252F823F000BF59090008D3
:1009000081090008150A0008BD080008BD08000894
:10091000BD080008A90A00087B0C0008950B000818
:10092000F70B00081F0C0008450C0008BD08000864
:10093000570C0008BD080008C90C0008F909000898
:10094000BD0800080D0D000865090008F909000838
:10095000BD080008F70B00080220FFF7DDFE0028A5
:1009600040F0FB81009B0221B8F1000F08BF1C463C
:1009700005A841F21233ADF8143001F02DF89DE7CF
:100980004FF47A7001F00AF8071EEBDB0220FFF744
:10099000C3FE0028E6D0013F052F00F2E081DFE82A
:1009A00007F0030A0D10133605230593042105A84B
:1009B00001F012F817E057480421F9E75B480421D9
:1009C000F6E75B480421F3E74FF01C09484601F0C5
:1009D00035F809F104090590042105A800F0FCFF91
:1009E000B9F12C0FF2D1012000FA07F747EA0B0BFF
:1009F0005FFA8BFB4FF0000A01F0A6F926B10BF06D
:100A00000B030B2B08BF0024FFF78EFE56E7494867
:100A10000421CDE7002EA5D00BF00B030B2BA1D1A9
:100A20000220FFF779FE074600289BD001203E4EAA
:100A300001F002F80220307001F0F2F84FF00008E7
:100A40005FFA88F9484601F007F8044690B1484635
:100A500001F012F808F101080028F1D1B846044667
:100A600041F21213022105A8ADF814303E4600F001
:100A7000B3FF23E701230220337001F0C3F82546BA
:100A8000244B9B68AB4207D9284600F0D7FF0130C2
:100A900040F068810435F3E7234B00251D70214B9E
:100AA000B8465D603E46A7E7002E3FF45BAF0BF013
:100AB0000B030B2B7FF456AF1B4B0220187001F079
:100AC000AFF8322000F06AFFB0F10009FFF64AAF3C
:100AD00019F003077FF446AF0E4A926809EB05034D
:100AE00093423FF63FAFB9F5807F3FF73BAF124BE4
:100AF0000193B94522DD4FF47A7000F04FFF039067
:100B0000039A002AFFF62EAF019B039A03F8012BEC
:100B10000137EDE700230020C8240020B023002087
:100B200041070008CC240020C42300200423002017
:100B3000082300200C230020C8230020C820FFF732
:100B4000EBFD074600283FF40DAF1F2D11D8C5F16E
:100B500020024A450AAB25F0030028BF4A468349D4
:100B60000192184401F07EF8019A8048FF2101F0BB
:100B70009FF84FEAA9037D490193C9F387022846EC
:100B800001F09EF8064600283FF46AAF019B05EB92
:100B9000830531E70220FFF7BFFD00283FF4E2AEF6
:100BA00000F094FF00283FF4DDAE0027B946704BFB
:100BB0009B68BB4218D91F2F11D80A9B01330ED056
:100BC00027F0030312AA134453F8203C0593484628
:100BD000042205A902F054F804378146E7E73846B5
:100BE00000F02CFF0590F2E7CDF81490042105A841
:100BF00000F0F2FE00E70023642104A8049300F053
:100C0000E1FE00287FF4AEAE0220FFF785FD00284C
:100C10003FF4A8AE049800F041FF0590E6E70023FA
:100C2000642104A8049300F0CDFE00287FF49AAE5E
:100C30000220FFF771FD00283FF494AE049800F005
:100C40003DFFEAE70220FFF767FD00283FF48AAE88
:100C500000F04CFFE1E70220FFF75EFD00283FF4C3
:100C600081AE05A9142000F047FF04210746049037
:100C700004A800F0B1FE3946B9E7322000F08EFE3C
:100C8000071EFFF66FAEBB077FF46CAE384A926862
:100C900007EB0A0393423FF665AE0220FFF73CFDE7
:100CA00000283FF45FAE27F003075744BA453FF4EE
:100CB000A3AE504600F0C2FE0421059005A800F046
:100CC0008BFE0AF1040AF1E74FF47A70FFF724FD76
:100CD00000283FF447AE00F0F9FE002844D00A9BFC
:100CE00001330BD008220AA9002000F0E9FF0028F8
:100CF0003AD02022FF210AA800F0DAFFFFF714FD06
:100D00001C4803F0CFFF13B0BDE8F08F002E3FF476
:100D100029AE0BF00B030B2B7FF424AE00236421D0
:100D200005A8059300F04EFE074600287FF41AAE92
:100D30000220FFF7F1FC814600283FF413AEFFF7D5
:100D4000F3FC41F2883003F0ADFF059801F03AF86A
:100D50004E4600F0F9FF3C46B0E506464CE64FF043
:100D6000000AFFE5B8467BE6374679E6C82300204F
:100D700000230020A0860100094A136849F2690097
:100D800099B21B0C00FB01331360064B186844F248
:100D9000506182B2000C01FB0200186080B2704703
:100DA000182300201423002010B50021102204462F
:100DB00000F07EFF034B03CB206061601868A060E9
:100DC00010BD00BF107AFF1F2DE9F043224DBBB0CC
:100DD00001F050FFAB6840F2ED22C31A934232D9C2
:100DE00006AFA8602B4628220021384602F052FCAC
:100DF00005F10E0000F054FF002604465FFA80F96A
:100E000005F10E08F3B2F100994501F1280107D967
:100E100008EB06030822384602F03CFC0136F1E7F5
:100E200008230122CDE9023205340C4B0193A4B210
:100E300030230093CDE9047405A3D3E90023297B73
:100E4000074802F03FFA3BB0BDE8F083AFF3008003
:100E500078F6339F93CACD8DE8450020F5450020F4
:100E6000EC34002070B50D4614461E4602F0C0F961
:100E700050B9022E10D1012C0ED112A3D3E90023B8
:100E8000C5E90023012007E0282C10D005D8012C4B
:100E900009D0052C0FD0002070BD302CFBD10BA346
:100EA000D3E90023ECE70BA3D3E90023E8E70BA386
:100EB000D3E90023E4E70BA3D3E90023E0E700BF75
:100EC000AFF30080401DA12026812A0B78F6339FC6
:100ED00093CACD8D9E6AC421818A46EE26417272E4
:100EE000DF25D7B7F017304A39059E5613B50446AB
:100EF0002346084620220021019002F0CBFB2279F4
:100F00000198032A234628BF032203F8042F202137
:100F1000022202F0BFFB62790198072A234628BF0C
:100F2000072203F8052F2221032202F0B3FBA27946
:100F30000198072A234628BF072203F8062F2521F8
:100F4000032202F0A7FB019804F1080310222821D4
:100F500002F0A0FB382002B010BD00002DE9F04FD8
:100F6000ADF5017D21AD0EAE40F2751280460F4603
:100F700022A80021296000F09BFE48220021304673
:100F800000F096FE01F076FE564B4FF47A72B0FBFD
:100F9000F2F0186093E80700012386E807000DF1DE
:100FA0005A003382FFF700FF47F60523338406AB70
:100FB00018464D4905F08AFD1D2230642946304609
:100FC00086F83C20FFF792FF12AB04460146082248
:100FD000284602F05FFB0822A1180DF149032846BC
:100FE00002F058FB0DF14A03082204F110012846D3
:100FF00002F050FB13AB202204F11801284602F046
:1010000049FB14AB402204F13801284602F042FBB0
:1010100016AB082204F17801284602F03BFB0DF1E3
:101020005903082204F18001284602F033FB04F141
:10103000880A0DF15A0904F5847B4B465146082273
:1010400028460AF1080A02F025FBD34509F10109F7
:10105000F3D11BAB08225946284602F01BFB04F5CE
:1010600088744FF0000996F834304B450AD9B36BB9
:1010700021464B440822284602F00CFB083409F1B3
:101080000109F0E74FF0000996F83C304B4504EBBE
:10109000C90108D9336C08224B44284602F0FAFAF9
:1010A00009F10109F0E700230393BB7E02930731A6
:1010B00007F119030193C1F3CF010123CDE90451D5
:1010C0000093F97E05A3D3E90023404602F0FAF825
:1010D0000DF5017DBDE8F08FAFF300809E6AC4215D
:1010E000818A46EED4240020FC6A000810B50A4B21
:1010F0000A4A1A6003F5805393F860203AB9DC6D10
:101100002CB1204601F034FC204605F071FBBDE80F
:101110001040034801F02CBC18350020586C000822
:1011200060450020014B1870704700BFE02400208C
:10113000F0B5334B1C7B85B034B1324B0E221A8193
:101140000024204605B0F0BD2F4A1068516802AB5C
:1011500003C308232D492E480DEB030205F09AFB2B
:10116000054630B9274B2B480A221A8101F07EFB35
:10117000E6E70169B1F5F81F06D9224B26480B2294
:101180001A8101F073FBDCE7438B40F27A52934201
:1011900007D01C490C2008811946204801F066FB45
:1011A000CFE71F4A024402F11003994204D2154BC3
:1011B0001C4810221A81E4E710398E1A204614497F
:1011C00001F05EFD3246074605F11801204601F0A8
:1011D00057FDAB689F4202D1EB6898420AD0094B99
:1011E0000D221A810090D5E902123B460E4801F00B
:1011F0003DFBA5E70D4801F039FB0124A1E700BF45
:10120000E8450020D4240020AD6B0008DCFF1E0060
:10121000000001081C6B0008286B00083A6B0008EE
:101220000800FFF7586B0008756B00089E6B0008FC
:101230002DE9F04FADB006AF80460C4601F0D8FF67
:10124000054600285AD1237E022B1BD1E38A012BAD
:1012500018D101F00FFD0646FFF78EFD03464FF44F
:10126000C870DFF8D092B3FBF0F206F5167602FBF9
:10127000103316FA83F3C9F80030E37E33B9A84B74
:1012800000221A709C37BD46BDE8F08FA38AEEB2EB
:10129000013BB34205F101050BD93B1D1E44E9009A
:1012A00000960023082201F0F801204602F0B6F86B
:1012B000ECE707F11400FFF777FD324607F1140160
:1012C000381D05F0D7FA0028D9D10F2E08D8944B35
:1012D0001E70D9F80030A3F51673C9F80030D1E7B5
:1012E000FB1CF8700146009307220346204602F0DB
:1012F00095F8F978404601F073FFC3E7E38A282B9D
:1013000026D010D8012B1ED0052BBBD1BFF34F8F99
:101310008449854BCA6802F4E0621343CB60BFF393
:101320004F8F00BFFDE7302BACD1637E7F4D013383
:101330006A7BDBB29342E94603D1E27E2B7B9A4281
:1013400065D0CD469EE721464046FFF707FE99E768
:10135000A38A013B9BB2C92B94D8744D2E7B26BB2C
:1013600005F10C030093082233463146204602F073
:1013700055F8731CF2B2D9001E46A38A013B9A426B
:1013800005DA0E322A44009200230822EEE70023F9
:101390000022C5E900230023AB6085F8D730C5F8EB
:1013A000D8302B7B0BB9E37E2B73002507F1140992
:1013B0003B1D082229464846C7E90155FD6002F059
:1013C00069F93B7A05F1010AAB424FEACA0608D92E
:1013D000FB6808222B443146484602F05BF955462B
:1013E000EFE7C6F3CF06E17ECDE904960023039331
:1013F000A37E0293193428230093019446A3D3E9D2
:101400000023404601F05EFFFFF7DEFC3AE74FF0B5
:10141000000807F11403A7F8148010220093414636
:101420000123204601F0FAFFA68A023EB6B2F31C61
:101430009B109B000733DB08A9EBC3039D460DF10E
:10144000180A1FFA88F34FEAC801B34201F11001EC
:101450000AD20AEB0803009308220023204601F079
:10146000DDFF08F10108ECE795F8D70000F0F4FA89
:10147000D5F8D83004461BB995F8D70000F0FCFA2F
:10148000D5F8D83033449C4204D295F8D7000130C7
:1014900000F0F2FA4FEA960B4FF000081FFA88F1BD
:1014A0008B45D5E9003209D90AEB880103EB8800A6
:1014B000012200F005FC08F10108EFE7F31842F102
:1014C0000002C5E90032D5F8D83095F8D70006EB10
:1014D0000308C5F8D88000F0BFFA804509D395F815
:1014E000D730D5F8D8000133001B85F8D730C5F8C0
:1014F000D800FF2E08D800232B7300F0E7FAFFF77F
:1015000017FE08B1FFF74EF92B68094A9B0A013311
:1015100013810023AB6014E726417272DF25D7B731
:10152000E534002000ED00E00400FA05E845002065
:10153000D4240020E834002030B54FF00054244B70
:1015400022689A4285B007D004F034F80446A8B95E
:101550000024204605B030BD1E4B627D1A701E4827
:10156000237D03731D49C9220E3000F07BFB20460A
:10157000E022002100F09CFB0124EAE7184A194D03
:10158000136C43F000731364AA6D174B9A42DFD1BA
:101590002B6E013B7E2BDBD8144A07CA01AB83E8D4
:1015A00007001846032101F081FB6B6D83424FF069
:1015B0000003CDD12A6D8A4201BFAB65054B2A6E6F
:1015C0001A7003BF0A4BEA6D1A601C46C1E700BFE0
:1015D0009AAD44C5E0240020E84500201600002014
:1015E00000380240006600405041A0B058660040FC
:1015F0001023002037B5194D194802236B71194B80
:101600000122196801F000F800230193164B1749D5
:1016100000931748174B4FF4805201F0BBFD164B57
:10162000197811B1124801F0DBFD01F023FB0446EB
:10163000FFF7A2FB4FF4C873B0FBF3F202FB1303F6
:1016400004F5167010FA83F00C4B186003F0A8FF35
:1016500008B10F232B8103B030BD00BFD42400207C
:101660001835002010230020650E0008E424002017
:10167000EC34002031120008E0240020E83400207F
:101680002DE9F04F2DED028B0FF26429D9E9008985
:101690008D4C93B08D4E8E4F204601F077FE034661
:1016A00060B30025CDE90F550E95ADF84450027B8F
:1016B0008DF8442099684068DFF83CA20FAA03C265
:1016C0001B6843F000430E9301F0D6FA821941F1F2
:1016D000000300950EA9384600F0C4FBA84205DDC2
:1016E000204601F057FE8AF80050D5E79AF80030FE
:1016F000072B00F2B68001338AF800300BAE9FED65
:101700006E8B0023724FDFF8F4A10A93ADF83430EA
:101710000B9373604FF0000B5B468DED008B012542
:101720000DF11D0207A938468DF81C508DF81DB02B
:1017300000F01AFF9DF81C30002B40F096802046E8
:1017400001F056FD0646002845D1624F01F092FA9D
:101750003B6898423FD301F08DFA8246FFF70CFBBD
:101760004FF4C8730AF5167AB0FBF3F202FB1303C9
:101770001AFA83F33B60584F97F800B0CBF1100A88
:10178000BBF1000F14BF33462B465FFA8AFA0EA84E
:101790008DF82830FFF708FBBAF1060F28BF4FF08D
:1017A000060A0EAB03EB0B0152460DF1290000F0C7
:1017B00059FA0AAB0393182302930AF10102474B2B
:1017C000D2B2CDE90053049220463DA3D3E90023D1
:1017D00001F010FD3E7001F04DFA414A414D136891
:1017E000C31AB3F57A7F2FD3106001F045FA024691
:1017F0000B46204601F0D8FD204601F0F9FC18B355
:101800002B7B394E002B14BF03230223737101F08D
:1018100031FA0EAF4FF47A733946B0FBF3F0306013
:101820003046FFF763FB1823073002932F4B0193D9
:10183000C0F3CF0040F25513CDE903700093424648
:101840004B46204601F0D6FC2B7B2BB1FFF7BCFAB0
:101850002B7B002B7FF41EAF13B0BDEC028BBDE8D9
:10186000F08F204601F096FD48E7DAF8143083F057
:101870000203CAF81430594610220EA800F018FAD4
:101880000DF11E0308AA0AA9384600F0E9FB96E804
:1018900003000FAB83E803009DF834308DF844302B
:1018A0000A9B0E930EA9DDE90823204601F03AFFBA
:1018B00030E700BFAFF30080000000000000000030
:1018C000401DA12026812A0BEC34002040420F004D
:1018D00018350020E8340020E5340020E4340020EE
:1018E000C8460020E8450020D4240020CC46002033
:1018F000F1C6A7C1D068080FCD4600200004024001
:1019000008B5054800F046FCBDE80840034A044914
:10191000002004F067BF00BF183500201C470020DE
:10192000ED100008F7B5194E0C464FF47A7102FB22
:1019300001F396F900200546501C0BD11448019381
:1019400002682946176A2246B8478442019B03D1A0
:10195000002310E0002AF1D096F90020511C01D09C
:10196000012A0DD10B4802682946166A2246B04763
:10197000844205D10123084A0120137003B0F0BD51
:101980004FF4FA7003F08EF90020F7E71C230020D3
:10199000404B0020204700201047002007B50023BF
:1019A000024601210DF107008DF80730FFF7BAFF5D
:1019B00020B19DF8070003B05DF804FB4FF0FF3045
:1019C000F9E700000A4608B50421FFF7ABFF80F0F5
:1019D0000100C0B2404208BD30B4074B0A46197836
:1019E000064B53F821402368DD69054B0146AC46A0
:1019F000204630BC604700BF10470020286C00081C
:101A0000A086010070B503F005FC094E094D308039
:101A1000002428683388834208D903F0F5FB2B683B
:101A200004440133B4F5803F2B60F2D370BD00BF96
:101A300012470020D046002003F0B4BC00F1006043
:101A400000F580300068704700F10060920000F5FA
:101A5000803003F033BC0000054B1A68054B1B882F
:101A60009B1A834202D9104403F0CEBB002070477A
:101A7000D04600201247002038B5074D044628689C
:101A8000204403F0C9FB28B928682044BDE8384049
:101A900003F0DABB38BD00BFD046002010F00303CE
:101AA0000AD1B0F5047F05D200F10050A0F5104036
:101AB000D0F80038184670470023FBE700F10050CB
:101AC000A0F51040D0F8100A70470000064991F8C0
:101AD000243033B10023086A81F824300822FFF74C
:101AE000B3BF0120704700BFD4460020014B1868E7
:101AF000704700BF002004E070B52A4B1B68C3F399
:101B00000B0204461B0C62B140F21340824230D0FB
:101B100040F2194082422ED040F2214082422CD124
:101B20000322214D0C2000FB0252556842F20102B3
:101B3000934224D0B3F5805F23D041F20102934257
:101B400021D041F2030293421FD041F20702934297
:101B500014BF3F233123013C0C44013D0A46A242FD
:101B600015D215F9016F501C9EB100F8016C0246A8
:101B7000F5E70122D5E70222D3E70C4DD6E7332360
:101B8000E9E74123E7E75A23E5E75923E3E710466E
:101B900005E02C258442157001D9901C5370401A21
:101BA00070BD00BF002004E0F86B0008B86B0008AF
:101BB000124B5A8842F201018A42134614D0B2F500
:101BC000805F13D041F20102934211D041F203022F
:101BD00093420FD041F2070293420DD10423084AE9
:101BE00002EB8303D87870470023F8E70123F6E778
:101BF0000223F4E70323F2E700207047002004E00B
:101C0000E46B0008022802D1044B98617047012858
:101C100002BF024B08229A61704700BF00040240D5
:101C2000022804D1054B4FF400329A617047012815
:101C3000FCD1024B4FF40022F7E700BF0004024042
:101C4000022805D1064A536983F0020353617047A5
:101C50000128FCD1024A536983F00803F6E700BF6C
:101C60000004024010B50023934203D0CC5CC4545E
:101C70000133F9E710BD000010B5013810F9013F3C
:101C80003BB191F900409C4203D11AB10131013AB4
:101C9000F4E71AB191F90020981A10BD1046FCE73C
:101CA00003460246D01A12F9011B0029FAD17047E7
:101CB00002440346934202D003F8011BFAE770473F
:101CC0002DE9F8431F4D144695F824200746884611
:101CD00052BBDFF870909CB395F824302BB92022CA
:101CE000FF2148462F62FFF7E3FF95F82400C0F17B
:101CF0000802A24228BF2246D6B24146920005EB16
:101D00008000FFF7AFFF95F82430A41B1E44F6B205
:101D1000082E17449044E4B285F82460DBD1FFF725
:101D2000D5FE0028D7D108E02B6A03EB820383425B
:101D3000CFD0FFF7CBFE0028CBD10020BDE8F88341
:101D40000120FBE7D4460020024B1A78024B1A70A0
:101D5000704700BF104700201C23002038B5134CEB
:101D6000134D204602F0A8FA2946204602F0D0FA88
:101D70002D6810486A6D936B23F40023936302F07F
:101D800091FF0D49284602F0C9FB6A6D0B48936B21
:101D90000B4943F400239363A0424FF4E1330B60FB
:101DA00003D0BDE8384002F0E7B938BD404B002011
:101DB0009C6D000840420F00A46D000820470020E1
:101DC000FC46002038B50B4B1A780B4B53F82250C9
:101DD0000A4B9D4204460CD0094B002118461422A0
:101DE000FFF766FF046001462846BDE8384002F070
:101DF000C3B938BD10470020286C0008404B0020B4
:101E0000FC460020202383F3118862B6704700004F
:101E1000002383F3118862B67047000010B4026893
:101E200054681A4623465DF8044B18470120704752
:101E30000020704700207047704700007047000086
:101E4000002070470E20704700F5805090F8C800C1
:101E5000C0F340007047000000F5805090F9C900C1
:101E6000704700002DE9F0410C68BDF8187014F0BF
:101E700000541E466FD10B7B082B6CD8FFF7C2FFB6
:101E80004569AB685B010CD4AB681B0108D4AC6836
:101E900014F080545DD1FFF7BBFF2046BDE8F08110
:101EA00001240B6804F1180C002BB8BFDB004FEACB
:101EB0000C1CB4BF43F004035B0545F80C300B6801
:101EC0000FFA84FC13F0804F18BF05EB0C1E05EBD6
:101ED0000C1C1EBFDEF8803143F00203CEF88031C7
:101EE0000B7BCCF8843105EB04158B68C5F88C317D
:101EF0004B68C5F88831DCF8803143F00103CCF839
:101F0000803100EB441541F268031D4403EB441398
:101F10000344C5E9002608330D4601F10C0C55F8C1
:101F200004EB43F804EB6545F9D184342D881D801A
:101F300000EB441407F00303257925F00B052B4330
:101F40002371FFF765FF06973346BDE8F04100F0C7
:101F5000AFBC0224A5E74FF0FF309FE713B500F5B3
:101F600080540191E06D00F039FD1F280AD90199D4
:101F7000E06D202200F0A8FDA0F120035842584156
:101F800002B010BD0020FBE708B500F58050FFF758
:101F900039FFC06D00F0F6FCBDE80840FFF738BF20
:101FA00000220260828142608260704710B5002288
:101FB0000023C0E900230023044603810C30FFF70F
:101FC000EFFF204610BD0000F0B5054600F580503B
:101FD0000C4690F8C83013F0040FC3F3800108BF1B
:101FE000114661F3820304F1840680F8C83005EBE2
:101FF000461389B01B79D8072ED57AB319072DD48B
:102000006846FFF7D3FF05EB441303F5835303F151
:10201000180703AA103318685968144603C4083314
:10202000BB422246F7D1186820609B88A380DDE977
:102030000E23CDE900230123ADF808302B68694653
:102040001B6C2846984705EB46152B791A075CBF91
:1020500043F008032B7101E0002AF4D109B0F0BD70
:102060002DE9F047074688B007F5805468469A4640
:102070008846FFF7C7FE9146FFF798FFE06D00F036
:1020800093FC1F2829D9E06D2022694600F09EFDAF
:10209000202822D103AD444605AB2E4603CE9E42F6
:1020A00020606160354604F10804F6D13068206094
:1020B000B388A380DDE90023C9E90023BDF8083017
:1020C000AAF80030FFF7A4FE4A4653464146384678
:1020D00008B0BDE8F04700F0D9BBFFF799FE00203B
:1020E00008B0BDE8F08700002DE9F84F0023C0E9F3
:1020F0000133254B044640F8183B0F46FFF750FFCD
:1021000004F12800FFF752FF04F1480804F5825556
:102110004646083530462036FFF748FFAE42F9D133
:1021200004F580554FF480534FF00009C5E9133989
:10213000C5F848800123EE6504F5875804F58456F8
:10214000C5F8549085F8583085F86030083608F1A5
:1021500008084FF0000A4FF0000B46E908ABA6F163
:102160001800FFF71DFF203646F8289C4645F4D19D
:1021700085F8C97017B1054800F076FD044B63611E
:102180002046BDE8F88F00BF586C0008306C00088E
:102190000064004010B5044B197804464A1C1A70BC
:1021A000FFF7A2FF204610BD184700202DE9F04799
:1021B000002950D0294B2A4FB7FBF1F599428CBF2B
:1021C0000A231123581EB5FBF3FC03FB1C53C4B2B6
:1021D0002BB102280346F5D80020BDE8F0870CF1AA
:1021E000FF36B6F5806FF7D2C4EBC40E0EF10303D1
:1021F0004FEAE309C3F3C703A4EB030809F1010A9B
:102200004FF47A755FFA88F009FB05555AFA88F899
:10221000B5FBF8F5B5F5617FC1BF0EF1FF33C3F330
:10222000C703E01AC0B25C1C50FA84F40CFB04F43F
:10223000B7FBF4F4A142CFD1013BDBB20F2BCBD8DB
:102240000138C0B20728C7D80021107116809170DC
:10225000D3700120C1E70846BFE700BF3F420F002F
:1022600080DE800270B505460E464FF47A746B69C5
:102270005B6803F00103B34207D04FF47A7002F0B9
:1022800011FD013CF3D1204670BD0120FCE70000A8
:1022900030B54269936913F0700F16D000230B4CD0
:1022A000936103F1840200EB421211794D0709D5C5
:1022B000890707D5416954F823508D60117941F0A1
:1022C000040111710133032BEBD130BD446C0008C4
:1022D00073B51D46436916469A68D207044609D568
:1022E0009A6801219960C2F34002CDE9006500219E
:1022F000FFF76AFE63699A68D1050BD59A684FF4B7
:1023000080719960C2F34022CDE900650121204629
:10231000FFF75AFE63699A68D2030BD59A684FF4A7
:1023200080319960C2F34042CDE900650221204628
:10233000FFF74AFE204602B0BDE87040FFF7A8BF95
:10234000F8B50446466900296CD106F10C073868D7
:1023500080076AD006EB01153868D5F8B00110F097
:10236000040FD5F8B0011ABFC00840F00040400D7E
:10237000A061D5F8B0C11CF0020F1CBF40F0804036
:10238000A061D5F8B40106EB011100F00F0084F84C
:102390002400D1F8B8012077D1F8B801000A60779D
:1023A000D1F8B801000CA077D1F8B801000EE077A1
:1023B000D1F8BC0184F82000D1F8BC01000A84F8EF
:1023C0002100D1F8BC01000C84F82200D1F8BC1126
:1023D000090E84F823103821396004F1340004F127
:1023E000180104F1240551F8046B40F8046BA9426C
:1023F000F9D109880180C4E90A23214600232386F4
:1024000051F8283B20461B6C984704F58052204623
:1024100092F8C83043F0040382F8C830BDE8F840B1
:10242000FFF736BF06F1100791E7F8BD10B5044677
:1024300000F022FC02460B4652EA030102D0013AA8
:1024400063F100030449086820B12146BDE810404B
:10245000FFF776BF10BD00BF14470020F8B500F5A8
:1024600083511E46FFF7CEFCDFF844C0083100243C
:1024700004F1840500EB45152B795F070ED4DB06CC
:102480000CD5D1E900739742B34107D243695CF898
:1024900024709F602B7943F004032B710134032CCB
:1024A00001F12001E4D1BDE8F840FFF7B1BC00BF65
:1024B000446C000808B5FFF7A5FCFFF7E9FEBDE88E
:1024C0000840FFF7A5BC0000F8B5436905469868C9
:1024D00000F0E050B0F1E05F0F461FD0E8B1FFF729
:1024E00091FC05F583541034002606F1840305EBB6
:1024F00043131B791A0706D50136032E04F1200475
:10250000F3D1012007E05B07F6D42146384600F0FE
:1025100009FA0028F0D1FFF77BFCF8BD0120FCE7A9
:1025200000F5805008B5FFF76DFCC06D00F03CFA77
:10253000FFF76EFC43090CBF0120002008BD00001E
:10254000F8B51D46002313700F4606461446FFF7E4
:10255000E7FF80F00100387025B129463046FFF7CB
:10256000B3FF2070F8BD00002DE9B8410C461546B8
:102570001F46804600F080FB0B462178024609B9D1
:10258000287850B14046FFF769FFFFF793FF3B46BD
:102590002A462146FFF7D4FF0120BDE8B88100009C
:1025A00010B5FFF72FFC174B1A6C42F000721A643B
:1025B0001A6A42F000721A621A6A00F5805422F018
:1025C00000721A62FFF724FC94F8C830DB0718D4B5
:1025D000B9B102211320FFF715FC01F005FC02211F
:1025E000142001F001FC0221152001F0FDFB94F8FC
:1025F000C83043F0010384F8C830BDE81040FFF74D
:1026000007BC10BD003802402DE9F04700F58055A9
:1026100088B095F8C930012B04468846164600F26A
:10262000FB807E4F57F823200AB947F82300D7F8DC
:1026300000A0C4F80C802674BAF1000F09D141F251
:10264000D00004F0D7F851468146FFF74DFDC7F89A
:10265000009095F8C930012B5DD001212046FFF78D
:102660009FFFFFF7CFFB6269136823F0020313603B
:102670006269136843F001031360636900275F61B7
:1026800001212046FFF7C4FBFFF7ECFD002800F016
:102690008480E86D00F076F904F58359BA4609F1B3
:1026A0000809202200216846FFF702FB02A8FFF775
:1026B00077FCCDF818A06A4609EB07030DF1180E58
:1026C0009446BCE80300F44518605960624603F183
:1026D0000803F5D1DCF80000186020379CF80420CE
:1026E0001A71602FDDD195F8C8306FF3820300278F
:1026F00085F8C8306A4641462046ADF80070ADF80E
:1027000002708DF80470FFF751FD6369C0B94FF492
:1027100000421A6011E0386803685B6B9847014615
:1027200000289AD13868FFF73BFF386803683246C3
:102730005B684146984700288FD108B0BDE8F08714
:1027400061221A609DF802309DF803201B061204D6
:1027500002F4702203F040731343BDF80020C2F36B
:10276000090213439DF804201205022E02F4E00230
:102770000CBF4FF000410021134362690B43D3614A
:10278000636913225A616269136823F001031360BD
:1027900039462046FFF766FD08B96369B7E795F843
:1027A000C93093BB6169D1F8002242F00102C1F83F
:1027B00000226169D1F8002222F47C5222F00E023C
:1027C000C1F800226169D1F8002242F46062C1F8C8
:1027D00000226269C2F814326269C2F80432626986
:1027E00041F6FF71C2F80C126269C2F840326269A8
:1027F000C2F8443263690122C3F81C226269D2F82C
:10280000003223F00103C2F8003295F8C83043F0DB
:10281000020385F8C83090E700208EE714470020B7
:1028200008B500F029FA50EA0103024602D0421E20
:1028300061F10001044B186810B10B46FFF748FD29
:10284000BDE8084001F09EB91447002008B50020FB
:10285000FFF7ECFDBDE8084001F094B908B5012090
:10286000FFF7E4FDBDE8084001F08CB90FB400208B
:1028700004B0704713B56C4684E80600031D94E865
:10288000030083E80500012002B010BD73B5856820
:10289000019155B11B885B0707D4D0E90036DB6B8B
:1028A0009847019AC1B23046A847012002B070BDD6
:1028B000F0B5866889B005460C465EB1BDF8383083
:1028C0005B070AD4D0E90037DB6B98472246C1B2D8
:1028D0003846B047012009B0F0BD00220023CDE901
:1028E00000230023ADF808300A4603AB01F10806C7
:1028F000106851681C4603C40832B2422346F7D11F
:10290000106820609288A28000F0B8F90423ADF826
:1029100008302B68CDE900011B6C694628469847B2
:10292000D8E7000030B503680968DD0FB5EBD17F4B
:1029300023F0604421F060424FEAD1700BD0002BAD
:10294000B8BFA40C0029B8BF920C944202D034BF87
:102950000120002030BD944205D1C1F38070C3F343
:1029600080738342F6D194422CBF00200120F1E70E
:1029700010B5037C044613B9006803F073FF2046CA
:1029800010BD00000023BFF35B8FC360BFF35B8FFC
:10299000BFF35B8F8360BFF35B8F7047BFF35B8FC9
:1029A0000068BFF35B8F704770B505460C30FFF7CA
:1029B000F5FF05F1080604463046FFF7EFFFA04299
:1029C00006D930466D68FFF7E9FF2544281A70BD27
:1029D0003046FFF7E3FF201AF9E7000070B505461F
:1029E000406898B105F10800FFF7D8FF05F10C0623
:1029F00004463046FFF7D2FF8442304694BF6D68EC
:102A00000025FFF7CBFF013C2C44201A70BD0000CD
:102A100038B50C460546FFF7C7FFA04210D305F1B5
:102A20000800FFF7BBFF04446868B4FBF0F100FB4B
:102A30001144BFF35B8F0120AC60BFF35B8F38BDE7
:102A40000020FCE72DE9F041144607460D46FFF74C
:102A5000C5FF844228BF0446D4B1B84658F80C6B71
:102A60004046FFF79BFF3044286040467E68FFF7F2
:102A700095FF331A9C4203D86C600120BDE8F081B9
:102A80006B60A41B3B68AB602044E8600220F5E764
:102A90002046F3E738B50C460546FFF79FFFA042F6
:102AA00010D305F10C00FFF779FF04446868B4FB0C
:102AB000F0F100FB1144BFF35B8F0120EC60BFF32A
:102AC0005B8F38BD0020FCE72DE9FF418846694651
:102AD0000746FFF7B7FF6C4606B204EBC6060025B3
:102AE000B44209D06268206808EB0501FFF7BAF824
:102AF000636808341D44F3E729463846FFF7CAFFE8
:102B0000284604B0BDE8F081F8B505460C300F4604
:102B1000FFF744FF05F1080604463046FFF73EFF85
:102B2000A042304688BF6C68FFF738FF201A386033
:102B300020B130462C68FFF731FF2044F8BD00007B
:102B400073B5144606460D46FFF72EFF844228BF94
:102B500004460190DCB101A93046FFF7D5FF019B87
:102B600033B93268C5E90233C5E9002401200CE01D
:102B70009C4238BF01942860019868608442F5D96E
:102B80003368AB60241AEC60022002B070BD2046AE
:102B9000FBE700002DE9FF410F466946FFF7D0FF34
:102BA0006C4600B204EBC0050026AC4209D0D4F854
:102BB000048054F8081BB8194246FFF753F84644FE
:102BC000F3E7304604B0BDE8F081000038B50546B3
:102BD000FFF7E0FF044601462846FFF719FF2046AD
:102BE00038BD000000B59BB0EFF30981682268464C
:102BF000FFF738F8EFF30583044B9A6BDA6A9A6AA9
:102C00009A6A9A6A9A6A9A6A9B6AFEE700ED00E0FD
:102C100000B59BB0EFF3098168226846FFF722F800
:102C2000EFF30583044B9A6B9A6A9A6A9A6A9A6AD6
:102C30009A6A9B6AFEE700BF00ED00E000B59BB01A
:102C4000EFF3098168226846FFF70CF8EFF305837C
:102C5000034B5A6B9A6A9A6A9A6A9A6A9B6AFEE767
:102C600000ED00E0FEE700000FB408B5029801F0A7
:102C7000A9FFFEE702F0E0BB02F0B8BB02F0B6BB72
:102C800030B5094D0A4491420DD011F8013B58402E
:102C9000082340F30004013B2C4013F0FF0384EAB7
:102CA0005000F6D1EFE730BD2083B8EDF7B54FF017
:102CB000FF33DFF854C0DFF854E000EB81011A461F
:102CC00088421CD050F8044B019401AF042417F83B
:102CD000015B82EA05620825DB18164605F1FF351F
:102CE0005241002EBCBF83EA0C0382EA0E0215F0AB
:102CF000FF05F1D1013C14F0FF04E8D1E0E7D8432F
:102D0000D14303B0F0BD00BF9336EAA9EBE1F04236
:102D10002DE9F041C56915B9C161BDE8F0814B6885
:102D200023F06047C3F38A464FEAD37EC3F380782B
:102D300016EA230638BF3E46AC462B465A68BEEB21
:102D4000D27F22F060440AD0002A18DAA40CB442E0
:102D500017D19D420FD10D60DEE71346EEE7A74283
:102D600007D102F08044C2F3807242450BD054B1C7
:102D7000EFE708D2EDE7CCF800100B60CDE7B442E6
:102D800001D0B442E5D81A689C46002AE5D1196002
:102D9000C3E700002DE9F047089D01F007044FEA62
:102DA000D508224405F0070500EBD1004FF47F4918
:102DB000944201D1BDE8F08704F0070705F0070A47
:102DC00057453E4638BF5646C6F10806111B8E428F
:102DD00028BF0E46E10808EBD50E415C13F80EC083
:102DE000B94029FA06F721FA0AF1FFB28CEA01018B
:102DF00047FA0AF739408CEA010C03F80EC0344454
:102E00003544D5E780EA0120082341F2210201B2CE
:102E10004000002980B203F1FF33B8BF504013F0E7
:102E2000FF03F4D17047000038B50C468D18A54259
:102E300000D138BD14F8011BFFF7E4FFF7E70000ED
:102E400002684AB113680360C388018901339BB2E9
:102E50009942C38038BF03811046704770B588B06F
:102E6000202204460D4668460021FEF721FF204639
:102E70000495FFF7E5FF024658B16B46054608AEDC
:102E80001C4603CCB44228606960234605F108055E
:102E9000F6D1104608B070BD082817D909280CD003
:102EA0000A280CD00B280CD00C280CD00D280CD0E4
:102EB0000E2814BF4020302070470C20704710208F
:102EC000704714207047182070472020704700007A
:102ED000082817D90C280CD910280CD914280CD97B
:102EE00018280CD920280CD930288CBF0F200E2090
:102EF0007047092070470A2070470B2070470C204C
:102F000070470D207047000010B54B6823B9CA8A7E
:102F100063F30902CA8210BDC4681A681C60C360EA
:102F2000438A013B43824A60EFE700002DE9F84FF6
:102F30001D46CB8A0F46C3F30901062981469246F6
:102F40000B4630D00020AAB207F119049EB2052E1C
:102F50001FFA80F80FD8904503F1010306D3FB8ACE
:102F60000A4462F30903FB8201201AE01AF80060A8
:102F7000E6540130EAE79045F1D2A1F1060B1C239B
:102F80007C68BBFBF3F203FB12BB1FFA8BF6002C31
:102F900045D14846FFF754FF044638B978606FF0D2
:102FA0000200BDE8F88F4FF00008E6E70026066053
:102FB0007860ADB24FF0000B454510D90AEB08031D
:102FC000221D13F8011B9155B1B208F101081B290C
:102FD0001FFA88F82BD0454506F10106F1D8FB8A87
:102FE000C3F30902154465F30903BCE7013292B249
:102FF0001C462368002BF9D1AB1F0B441C21B3FBEB
:10300000F1F301339BB29A42D3D2BBF1000FD0D17E
:103010004846FFF715FF20B9C4F800B0BFE701220A
:10302000E7E7C0F800B05E4620600446C1E74545CA
:10303000D5D94846FFF704FF08B92060AFE7C0F8CC
:1030400000B0002620600446B6E700002DE9F04FEE
:103050002DED028B83B0CDE90013BDF83C5007463F
:103060009146002A00F092802DB10E9B002B00F0BB
:103070008D80072D32D807F10C00FFF7E1FE0446E2
:1030800038B96FF00204204603B0BDEC028BBDE8F6
:10309000F08F14220021FEF70BFE0E992A4604F150
:1030A0000800FEF7DFFD681CC0B2FFF711FFFFF755
:1030B000F3FE207499F80030013814FA80F003F020
:1030C0001F0363F03F030372009B43F00041616004
:1030D00038462146FFF71CFE0124D4E700F10C031B
:1030E0004FF0000808EE103A4FF0800A464644467A
:1030F00018EE100AFFF7A4FE83460028C1D0142260
:103100000021FEF7D5FDC6BB019BABF808300220BD
:103110000E9B00F1080299195BFA82F20130C0B2ED
:10312000082801D0AE422AD3FFF7D2FEFFF7B4FE43
:1031300099F80020009B411E02F01F0242EA48124B
:10314000AE4208BF4FF0400A5BFA81F14AEA020A38
:1031500043F0004281F808A08BF81000CBF804205F
:1031600059463846FFF7D4FD0134AE4224B288F008
:1031700001084FF0000ABBD185E70020C8E711F82D
:1031800001CB02F801CB0136B6B2C7E76FF00104FC
:1031900079E70000F8B515460E46282200210446BE
:1031A0001F46FEF785FD069B6360B5F5001F079B74
:1031B000A76034BF6A094FF6FF72236204F10C0066
:1031C00097B200239A4205D80023036027826382C6
:1031D000A382F8BD0660013330462036F2E70000D6
:1031E00003781BB94BB2002BC8BF017070470000B9
:1031F000007870472DE9F74FDDF83C90BDF830506E
:103200000D9E9DF83840BDF84070804692469B4622
:10321000B9F1000F01D1002F51D11F2C4FD898F8D0
:103220000000B0B9072F47D835F0030347D13A461D
:1032300049464FF6FF70FFF7F7FD20F001002D0221
:10324000400445EA0464400C44EA40244FF6FF730E
:1032500021E040EA0520072F40EA0464F6D9002562
:103260004FF6FF73C5F12000A5F120022AFA05F1FF
:103270000BFA00F001432BFA02F211431846C9B2CF
:10328000FFF7C0FD0835402D0346EBD13A464946CD
:10329000FFF7CAFD0346CDE9009732462146404676
:1032A000FFF7D4FE33780133DBB21F2B88BF002336
:1032B000337003B0BDE8F08F6FF00300F9E76FF0F3
:1032C0000100F6E72DE9F04F85B09246DDF8488021
:1032D0000F9D9DF840209DF84490BDF84C70064627
:1032E0009B46B8F1000F01D1002F48D11F2A46D8C4
:1032F0003378002B46D00C0244EA02649DF8381063
:1033000044EAC93444EA01441C43072F44F08004D2
:1033100032D900234FF6FF72C3F1200CA3F1200035
:103320002AFA03F10BFA0CFC41EA0C012BFA00F02B
:103330000143C9B210460393FFF764FD039B0833B2
:10334000402B0246E8D13A464146FFF76DFD034661
:10335000CDE900872A4621463046FFF777FEB9F1CE
:10336000010F06D12B780133DBB21F2B88BF00235E
:103370002B7005B0BDE8F08F4FF6FF73E8E76FF0F4
:103380000100F6E76FF00300F3E70000C06900B149
:1033900004307047C3691A68C261C2681A60C360AA
:1033A000438A013B438270472DE9F041D0F81880F1
:1033B000194E14461D464146002709B9BDE8F08163
:1033C000D1E90223A21A65EB0303964277EB0303CC
:1033D0001ED283698B420DD1FFF796FD83691B686E
:1033E0008361C3680B60438AC1608169013B43828A
:1033F0008846E2E7FFF788FD0B68C8F80030C3682D
:103400000B60438AC160013B4382D8F80010D4E7C7
:1034100088460968D1E700BF80841E002DE9F04F7F
:103420008BB00D46DDF8509014469B468046002830
:1034300000F01981B9F1000F00F01581531E3F2BE8
:1034400000F21181012A03D1BBF1000F40F00B8182
:103450000023CDE90833B8F81430B5EBC30F4FEAB9
:10346000C30703D300200BB0BDE8F08F2B199F4298
:10347000D8F80C303ABF7F1BFFB227461BB9D8F8EB
:103480001030002B7AD02F2D4ED8C5F13006B74220
:103490004FF000032CBFF6B23E4600932946D8F801
:1034A000080008AB3246FFF775FCA7EB060A354467
:1034B0005FFA8AFAB8F8143003F10053063BDB00D8
:1034C0000493D8F80C3003933021039B13B1BAF165
:1034D000000F2CD1D8F8100040B1BAF1000F05D080
:1034E000009608AB5246691AFFF754FC38B2002F19
:1034F000B8D066070AD00AAB03EBD401624211F8D8
:10350000083C02F00702134101F8083C082C3CD9A2
:10351000102C40F2B580202C40F2B780BBF1000F98
:1035200000F09C80082334E0BA460026C2E7049BE2
:10353000E02B28BFE02306930B44AB42059314D93C
:103540005A1B03980096924534BF5246D2B2691A6C
:1035500008AB04300792FFF71DFC079A1644AAEB4C
:10356000020A1544F6B25FFA8AFA049B069A059994
:103570009B1A0493039B1B680393A6E70093D8F858
:10358000080008AB3A462946AEE7BBF1000F13D05E
:103590000123B4EBC30F6CD0082C12D89DF8203057
:1035A000621E23FA02F2D50706D54FF0FF3202FA67
:1035B00004F423438DF820309DF8203089F8003042
:1035C00051E7102C12D8BDF82030621E23FA02F207
:1035D000D10706D54FF0FF3202FA04F42343ADF8C9
:1035E0002030BDF82030A9F800303CE7202C0FD85F
:1035F0000899631E21FA03F3DA0705D54FF0FF326D
:1036000002FA04F40C430894089BC9F800302AE736
:10361000402C2BD0DDE90865611EC4F12102A4F124
:10362000210326FA01F105FA02F225FA03F3114308
:103630001943CB0712D50122A4F12003C4F12001C4
:1036400002FA03F322FA01F1A240524243EA0103D3
:1036500063EB430332432B43CDE90823DDE9082321
:10366000C9E90023FFE66FF00100FCE66FF00800F7
:10367000F9E6082CA0D9102CB3D9202CEED8C3E73A
:10368000BBF1000FADD0022383E7BBF1000FBBD02D
:1036900004237EE730B5012A144638BF0124402CAC
:1036A00085B028BF40240025012ACDE9025518D84D
:1036B0001B788DF8083063070AD004AB03EBD40500
:1036C000624215F8083C02F00702934005F8083CF6
:1036D000009103462246002102A8FFF75BFB05B0DC
:1036E00030BD082AE4D9102A03D81B88ADF8083069
:1036F000E1E7202A8DBFD3E900231B680293CDE9BF
:103700000223D8E710B5CB681BB98B600B618B82A5
:1037100010BDC4681A681C60C360438A013B4382C1
:10372000CA60F0E72DE9F04FD1F8008093B018F0AF
:10373000800FCDE90323C8F3C01219BFC8F3C03B03
:10374000C8F306264FF0020B1646B8F1000F0446E8
:103750000D4680F2D18118F0C043059340F0CC8132
:103760000B7B002B00F0C881BBF1020F03D0017866
:10377000B14240F0C48108F07F0106916AB3C8F3FA
:10378000074A2B44069A93F80390760646EA0B46BE
:1037900046EA82465FEAD91346EA0A06079300F032
:1037A000908000220023CDE90A23069B00936768DE
:1037B0005B4652460AA92046B84700287ED0A76932
:1037C0009FB9314604F10C00FFF748FB0746E0B90A
:1037D0006FF0020013B0BDE8F08FC8F30F2A18F0A5
:1037E0007F0F08BF0AF0030ACBE73B699E420DD06A
:1037F0003F68002FF9D1314604F10C00FFF72EFB92
:1038000007460028E4D0A3693B60A761DDE90A23ED
:1038100000264FF6FF70C6F1200E22FA06F103FAD9
:103820000EFEA6F1200C23FA0CFC41EA0E0141EA3F
:103830000C01C9B2083609920893FFF7E3FA402E4B
:10384000DDE90832E7D1B882FB7D09F01F06C3F33A
:1038500084039B1BD7E9022198B2002BBCBF00F167
:1038600020031BB252EA0100C8F304680FD003988A
:10387000821A049860EB0101A74890424FF00002C1
:103880008A4104D3079A002A5BD0012B23DDFA7DFD
:103890004FEA890302F0030203F07C031343FB7534
:1038A00039462046FFF730FB079BA3B9FB7DC3F3E6
:1038B0008402013262F38603FB7504E06FF00B00B3
:1038C00088E7A76917B96FF00C0083E73B699E4250
:1038D000BAD03F68F6E719F0400F32D0039BBB60C7
:1038E000049BFB60142200210DA8FEF7E1F9039B65
:1038F0000A93049B0B932B1D0C932B7BADF83EA0DE
:10390000013BDBB2ADF83C30069B8DF8433094F8B8
:1039100024308DF840B083F001038DF844308DF8E9
:103920004160A3688DF842800AA920469847FB7D34
:10393000C3F38403013303F01F039B02FB820020C7
:1039400048E7FB7DC9F34012B2EBD31F40F0DA80A9
:10395000C3F38403B34240F0D88007992B7B4FEA2E
:103960009912002934D0D20741D4032B40F2D080E1
:10397000039BBB60049BFB602B7BAE1D033BDBB258
:103980003246394604F10C00FFF7D0FA00280DDA70
:1039900020463946FFF7B8FAFB7DC3F384030133B1
:1039A00003F01F039B02FB82032013E7AB883B83DA
:1039B0002A7B033AB88AD2B23146FFF735FAFB7D4B
:1039C000B882DA43C2F3C01262F3C713FB75B6E7DD
:1039D0006AB92E1D013BDBB23246394604F10C00B8
:1039E000FFF7A4FA0028D3DB2A7B013AE2E7F98A41
:1039F000C1F30901013B0529DAB259D8281D00237A
:103A000007F11A0C9A4208D910F801EB0CF801E002
:103A1000013101330629DBB2F4D103990A910499EB
:103A20000B91934207F11A010C9138BF0433796866
:103A30000D9134BF55FA83F300230E93FB8AADF842
:103A40003EA0C3F309031A44069B8DF8433094F853
:103A50002430ADF83C2083F001038DF8443000237E
:103A60008DF840B08DF841608DF842807B602A7BF4
:103A7000B88A013A291DFFF7D7F93B8BB8828342F8
:103A800003D1A3680AA92046984720460AA9FFF750
:103A900039FEFB7DB88AC3F38403013303F01F03AF
:103AA0009B02FB823B8B984214BF1120002091E6C1
:103AB0007B68002BB1D0062001E01C306346D3F8B0
:103AC00000C0BCF1000FF8D1091A081D05F1040C63
:103AD00000EB030905989DF8143001EB000EBEF1D0
:103AE0001B0F9AD89A4298D91CF8013B09F8013B60
:103AF000059B01330593EDE76FF009006AE66FF06F
:103B00000A0067E66FF00D0064E66FF00E0061E6F4
:103B10006FF00F005EE600BF80841E00EFF30983A4
:103B200005494A6B22F001024A63683383F309882E
:103B3000002383F31188704700EF00E0202080F31A
:103B4000118862B60C4B0D4AD96821F4E061090472
:103B5000090C0A43DA60D3F8FC20094942F080726C
:103B6000C3F8FC200A6842F001020A601022DA77EA
:103B700083F82200704700BF00ED00E00003FA0563
:103B8000001000E010B5202383F311880E4B5B6812
:103B900013F4006314D0F1EE103AEFF30984683C9B
:103BA0004FF08073E361094BDB6B236684F3098874
:103BB00000F0BAFF10B1064BA36110BD054BFBE747
:103BC00083F31188F9E700BF00ED00E000EF00E0AB
:103BD0004B0600084E060008024AD36843F0C003B3
:103BE000D360704700440040044B5A6810439A6801
:103BF00058600AB1181D1047704700BF20470020C9
:103C00002DE9F0413C4ED6F85C52EF682B68DA059E
:103C10009CB20CD5202383F311884FF40070FFF77A
:103C2000E3FF6FF480732B60002383F3118820235C
:103C300083F31188DFF8C08014F02F0339D183F3A8
:103C40001188380613D5210611D5202383F3118856
:103C50002A4800F0EFF900284CDA0820FFF7C4FFEB
:103C60004FF67F733B40EB60002383F311887A06A5
:103C700015D5630613D5202383F31188D6E91323C2
:103C80009A4209D1336C3BB127F040073F04102022
:103C90003F0CFFF7A9FFEF60002383F31188D6F8EC
:103CA0006422D3680BB110699847BDE8F041FFF773
:103CB00069BF230712D014F0080F0CBF002080202A
:103CC000E10748BF40F02000A20748BF40F0400095
:103CD000630748BF40F48070FFF786FFA4066B6857
:103CE00005D596F860124046194000F053FA2C684A
:103CF000A4B2A1E76860B7E720470020584700203A
:103D000010B5054C054A0021204600F013FA044B7B
:103D1000C4F85C3210BD00BF20470020D93B00082A
:103D20000044004038B52A4C037C002918BF0C46DB
:103D3000012B0546C0F8644210D1264B98420DD1A4
:103D4000254B1A6C42F400321A641A6E42F40032A7
:103D50001A660B2126201B6E00F046F8D5F85C226F
:103D60001E4923688A424FEA530003D001F580615F
:103D70008A422AD11A490144B4F90400B1FBF3F391
:103D80000028BEBF23F0070003F0070343EA400307
:103D9000A1889360E38843F040031361238943F0D3
:103DA0000103536141F4045343F02C03D36001F445
:103DB000A05100231360B1F5806F136853680CBFE6
:103DC0007F23FF2385F8603238BD0649D3E700BF63
:103DD0009C6C000820470020003802400010014081
:103DE00000BD010580DE800200F1604303F5614300
:103DF0000901C9B283F80013012200F01F039A40A1
:103E000043099B0003F1604303F56143C3F880213C
:103E10001A607047F8B5154682680669AA420B46D3
:103E2000816938BF8568761AB54204460BD21846B8
:103E30002A46FDF717FFA3692B44A361A3685B1B08
:103E4000A3602846F8BD0CD918463246FDF70AFF94
:103E5000AF1BE1683A463044FDF704FFE3683B449A
:103E6000EBE718462A46FDF7FDFEE368E5E70000AC
:103E700083689342F7B51546044638BF8568D0E994
:103E80000460361AB5420BD22A46FDF7EBFE636991
:103E90002B446361A36828465B1BA36003B0F0BD9D
:103EA0000DD932460191FDF7DDFE0199E068AF1BA7
:103EB0003A463144FDF7D6FEE3683B44E9E72A463B
:103EC000FDF7D0FEE368E4E710B50A440024C361BF
:103ED000029B8460C0E90000C0E90511C160026175
:103EE000036210BD08B5D0E90532934201D1826862
:103EF00082B98268013282605A1C42611970D0E92D
:103F000004329A4224BFC3684361002100F0E6FEF8
:103F1000002008BD4FF0FF30FBE7000070B5202304
:103F200004460E4683F31188A568A5B1A368A2696B
:103F3000013BA360531CA36115782269934224BFFF
:103F4000E368A361E3690BB120469847002383F33C
:103F50001188284607E03146204600F0AFFE0028D1
:103F6000E2DA85F3118870BD2DE9F74F04460E465D
:103F700017469846D0F81C904FF0200A8AF3118813
:103F80004FF0000B154665B12A4631462046FFF733
:103F900041FF034660B94146204600F08FFE0028ED
:103FA000F1D0002383F31188781B03B0BDE8F08FB4
:103FB000B9F1000F03D001902046C847019B8BF355
:103FC0001188ED1A1E448AF31188DCE7C0E9051157
:103FD000C160C3611144009B8260C0E900000161BF
:103FE00003627047F8B504460D461646202383F356
:103FF0001188A768A7B1A368013BA36063695A1C35
:1040000062611D70D4E904329A4224BFE36863619F
:10401000E3690BB120469847002080F3118807E040
:104020003146204600F04AFE0028E2DA87F3118884
:10403000F8BD0000D0E905239A4210B501D182688D
:104040007AB98268013282605A1C82611C780369E5
:104050009A4224BFC3688361002100F03FFE2046DE
:1040600010BD4FF0FF30FBE72DE9F74F04460E4639
:1040700017469846D0F81C904FF0200A8AF3118812
:104080004FF0000B154665B12A4631462046FFF732
:10409000EFFE034660B94146204600F00FFE0028BF
:1040A000F1D0002383F31188781B03B0BDE8F08FB3
:1040B000B9F1000F03D001902046C847019B8BF354
:1040C0001188ED1A1E448AF31188DCE70268436800
:1040D0001143016003B11847704700001430FFF727
:1040E00043BF00004FF0FF331430FFF73DBF000027
:1040F0003830FFF7B9BF00004FF0FF333830FFF71B
:10410000B3BF00001430FFF709BF00004FF0FF31CC
:104110001430FFF703BF00003830FFF763BF000023
:104120004FF0FF323830FFF75DBF000000207047CE
:10413000FFF7E6BD37B515460E4A02600022426021
:10414000C0E902220122044602740B46009000F1ED
:104150005C014FF480721430FFF7B6FE00942B46DA
:104160004FF4807204F5AE7104F13800FFF72EFFB2
:1041700003B030BDB06C000810B52023044683F3B3
:104180001188FFF7CFFD02232374002383F31188E6
:1041900010BD000038B5C36904460D461BB90421A3
:1041A0000844FFF793FF294604F11400FFF79AFE35
:1041B000002806DA201D4FF48061BDE83840FFF783
:1041C00085BF38BD026843681143016003B11847D9
:1041D0007047000013B5446BD4F894341A68117812
:1041E000042915D1217C022912D1197912890123C0
:1041F0008B4013420CD101A904F14C0001F078FF6F
:10420000D4F89444019B21790246206800F0CEF94D
:1042100002B010BD143001F0FBBE00004FF0FF33C0
:10422000143001F0F5BE00004C3001F0CDBF0000AD
:104230004FF0FF334C3001F0C7BF0000143001F0E5
:10424000C9BE00004FF0FF31143001F0C3BE0000C2
:104250004C3001F099BF00004FF0FF324C3001F0BC
:1042600093BF00000020704710B5D0F894341A684E
:1042700011780429044617D1017C022914D15979F7
:10428000528901238B4013420ED1143001F05CFEA1
:10429000024648B1D4F894444FF4807361792068A1
:1042A000BDE8104000F070B910BD0000406BFFF792
:1042B000DBBF0000704700007FB5124B0360002396
:1042C0004360C0E90233012502260F4B0574044602
:1042D0000290019300F18402294600964FF4807306
:1042E000143001F00DFE094B0294CDE9006304F592
:1042F00023724FF48073294604F14C0001F0D4FE80
:1043000004B070BDD86C0008AD420008D54100086B
:104310000B68202282F311880A7903EB82029061F4
:104320004A79093243F822008A7912B103EB8203F9
:10433000986102230374C0F89414002383F3118856
:104340007047000038B5037F044613B190F854302D
:10435000ABB9201D01250221FFF734FF04F1140041
:1043600025776FF0010100F0C5FC84F8545004F18A
:104370004C006FF00101BDE8384000F0BBBC38BD17
:1043800010B5012104460430FFF71CFF00232377FA
:1043900084F8543010BD000038B5044600251430B0
:1043A00001F0C6FD04F14C00257701F095FE201DBB
:1043B00084F854500121FFF705FF2046BDE838403E
:1043C000FFF752BF90F8443003F06003202B07D171
:1043D00090F84520212A4FF0000303D81F2A06D861
:1043E00000207047222AFBD1C0E90E3303E0034AC4
:1043F00082630722C2630364012070471D230020EB
:1044000037B5D0F894341A681178042904461AD1C3
:10441000017C022917D11979128901238B4013429B
:1044200011D100F14C05284601F016FF58B101A941
:10443000284601F05DFED4F89444019B21790246A0
:10444000206800F0B3F803B030BD0000F0B500EB19
:10445000810385B09E6904460D46FEB1202383F397
:10446000118804EB8507301D0821FFF7ABFEFB68C0
:104470005B691B6806F14C001BB1019001F046FE20
:10448000019803A901F034FE024648B1039B294676
:10449000204600F08BF8002383F3118805B0F0BDAF
:1044A000FB685A691268002AF5D01B8A013B134049
:1044B000F1D104F14402EAE7093138B550F821405E
:1044C000DCB1202383F31188D4F894241368527943
:1044D00003EB8203DB689B695D6845B104216018CA
:1044E000FFF770FE294604F1140001F037FD204665
:1044F000FFF7BAFE002383F3118838BD7047000030
:1045000001F0FAB8012303700023C0E90133C3614D
:1045100083620362C36243620363704738B5044633
:10452000202383F311880025C0E90355C0E9055510
:10453000416001F0F1F80223237085F3118838BD42
:1045400070B500EB810305465069DA600E461446EB
:1045500018B110220021FDF7ABFBA06918B11022A1
:104560000021FDF7A5FB31462846BDE8704001F06B
:104570009DB90000826802F0011282600022C0E949
:104580000422826101F01EBAF0B400EB8104478975
:10459000E4680125A4698D403D43458123600023E3
:1045A000A2606360F0BC01F039BA0000F0B400EB27
:1045B00081040789E468012564698D403D430581D4
:1045C00023600023A2606360F0BC01F0B3BA000076
:1045D00070B50223002504460370C0E90255C0E906
:1045E0000455C564856180F8345001F0FBF86368B8
:1045F0001B6823B129462046BDE87040184770BDAE
:10460000037880F850300523037043681B6810B5A9
:1046100004460BB1042198470023A36010BD00009D
:1046200090F85020436802701B680BB105211847B1
:104630007047000070B590F83430044613B1002381
:1046400080F8343004F14402204601F0DDF963685B
:104650009B68B3B994F8443013F0600535D000215D
:10466000204601F02FFC0021204601F021FC636868
:104670001B6813B1062120469847062384F834307E
:1046800070BD204698470028E4D0B4F84A30E26B69
:104690009A4288BFE36394F94430E56B002B4FF0F6
:1046A000200380F20381002D00F0F280092284F8BB
:1046B000342083F311880021D4E90E232046FFF72C
:1046C00075FF002383F31188DAE794F8452003F09F
:1046D0007F0343EA022340F20232934200F0C58096
:1046E00021D8B3F5807F48D00DD8012B3FD0022BC5
:1046F00000F09380002BB2D104F14C02A26302229D
:10470000E2632364C1E7B3F5817F00F09B80B3F5DA
:10471000407FA4D194F84630012BA0D1B4F84C309E
:1047200043F0020332E0B3F5006F4DD017D8B3F574
:10473000A06F31D0A3F5C063012B90D8636894F8C3
:1047400046205E6894F84710B4F848302046B047D9
:10475000002884D04368A3630368E3631AE0B3F5D9
:10476000106F36D040F6024293427FF478AF5C4B34
:10477000A3630223E3630023C3E794F84630012BCD
:104780007FF46DAFB4F84C3023F00203C4E90E554A
:10479000A4F84C30256478E7B4F84430B3F5A06F42
:1047A0000ED194F8463084F84E30204601F072F86D
:1047B00063681B6813B101212046984703232370C7
:1047C0000023C4E90E339CE704F14F03A3630123E4
:1047D000C3E72378042B10D1202383F311882046CC
:1047E000FFF7C8FE85F311880321636884F84F50F2
:1047F00021701B680BB12046984794F84630002B77
:10480000DED084F84F300423237063681B68002BCC
:10481000D6D0022120469847D2E794F848301D06AA
:1048200003F00F0120460AD501F0E0F8012804D07A
:1048300002287FF414AF2B4B9AE72B4B98E701F03B
:10484000C7F8F3E794F84630002B7FF408AF94F8EC
:10485000483013F00F01B3D01A06204602D501F0FC
:1048600045FBADE701F038FBAAE794F84630002B92
:104870007FF4F5AE94F8483013F00F01A0D01B067A
:10488000204602D501F01EFB9AE701F011FB97E7E5
:10489000142284F8342083F311882B462A462946B3
:1048A0002046FFF771FE85F31188E9E65DB1152218
:1048B00084F8342083F311880021D4E90E232046A4
:1048C000FFF762FEFDE60B2284F8342083F31188A3
:1048D0002B462A4629462046FFF768FEE3E700BF3D
:1048E000086D0008006D0008046D000838B590F8E8
:1048F00034300446002B3ED0063BDAB20F2A34D8BF
:104900000F2B32D8DFE803F0373131082232313152
:104910003131313131313737C56BB0F84A309D42D2
:1049200014D2C3681B8AB5FBF3F203FB12556DB9B1
:10493000202383F311882B462A462946FFF736FEAB
:1049400085F311880A2384F834300EE0142384F8A8
:104950003430202383F3118800231A461946204659
:10496000FFF712FE002383F3118838BD036C03B1F7
:1049700098470023E7E70021204601F0A3FA002131
:10498000204601F095FA63681B6813B106212046A2
:1049900098470623D7E7000010B590F83430142B61
:1049A000044629D017D8062B05D001D81BB110BD5D
:1049B000093B022BFBD80021204601F083FA00219D
:1049C000204601F075FA63681B6813B10621204682
:1049D0009847062319E0152BE9D10B2380F83430D2
:1049E000202383F3118800231A461946FFF7DEFDC2
:1049F000002383F31188DAE7C3689B695B68002BA7
:104A0000D5D1036C03B19847002384F83430CEE746
:104A1000024B0022C3E900339A60704788490020A6
:104A2000002303748268054B1B6899689142FBD28E
:104A30005A680360426010605860704788490020DF
:104A400008B5202383F31188037C032B05D0042BA6
:104A50000DD02BB983F3118808BD436900221A6079
:104A60004FF0FF334361FFF7DBFF0023F2E7D0E9AC
:104A7000003213605A60F3E7002303748268054B29
:104A80001B6899689142FBD85A68036042601060C5
:104A90005860704788490020054B196908741868E8
:104AA00002681A605360186101230374FBF7B8BDF4
:104AB0008849002030B54B1C0B4D87B0044610D000
:104AC0002B690A4A01A800F031F92046FFF7E4FFFC
:104AD000049B13B101A800F065F92B69586907B070
:104AE00030BDFFF7D9FFF8E788490020414A0008A8
:104AF00038B50C4D41612B6981689A689142044632
:104B000003D8BDE83840FFF78BBF1846FFF7B4FF66
:104B100001232C61014623742046BDE83840FBF791
:104B20007FBD00BF88490020044B1A681B6990684C
:104B30009B68984294BF002001207047884900205C
:104B400010B5084C236820691A682260546001225D
:104B500023611A74FFF790FF01462069BDE81040F9
:104B6000FBF75EBD8849002008B5FFF7DDFF18B1EF
:104B7000BDE80840FFF7E4BF08BD0000FFF7E0BF55
:104B8000FEE7000010B50C4CFFF742FF00F0C0F844
:104B90000A498022204600F047F8012344F8180C07
:104BA0000374FEF7CBFF002383F3118862B6044839
:104BB000BDE8104000F058B8B04900200C6D000866
:104BC0001C6D000808B572B6034B586200F0FEFB7E
:104BD00000F0B0FCFEE700BF8849002000F01CB9DF
:104BE000EFF3118020B9EFF30583202282F31188BF
:104BF0007047000010B530B9EFF30584C4F3080422
:104C000014B180F3118810BDFFF7AEFF84F3118853
:104C1000F9E70000034A516853685B1A9842FBD8D1
:104C2000704700BF001000E08260022202827047DD
:104C30008368A3F17C0243F80C2C026943F83C2CF6
:104C4000426943F8382C074A43F81C2CC26843F8E1
:104C5000102C022203F8082C002203F8072CA3F1E1
:104C6000180070473906000810B5202383F3118817
:104C7000FFF7DEFF00210446FFF73AFF002383F32E
:104C80001188204610BD0000024B1B6958610F209F
:104C9000FFF702BF88490020202383F31188FFF724
:104CA000F3BF000008B50146202383F311880820D4
:104CB000FFF700FF002383F3118808BD49B1064BBD
:104CC00042681B6918605A60136043600420FFF754
:104CD000F1BE4FF0FF3070478849002003689842CA
:104CE00006D01A680260506059611846FFF798BEF6
:104CF0007047000038B504460D462068844200D154
:104D000038BD036823605C604561FFF789FEF4E706
:104D1000054B03F11402C3E905224FF0FF310022D5
:104D2000C3E90712704700BF8849002070B51C4EC8
:104D3000C0E9032305460C4601F0C0FA334653F898
:104D4000142F9A420DD13062C5E901242A600A2C41
:104D50002CBF00190A30C6E90555BDE8704001F0C6
:104D60009BBA316A431AE31838BF1C469368A342C2
:104D700002D9081901F09EFA73699A6894420CD816
:104D80005A68AC602B606A6015609A685D60121B9F
:104D90009A604FF0FF33F36170BD1B68A41AECE713
:104DA0008849002038B51B4C636998420DD0D0E982
:104DB000003213605A6000228168C2609A680A4417
:104DC0009A604FF0FF33E36138BD2246036842F832
:104DD000143F002193425A60C16003D1BDE83840BE
:104DE00001F062BA9A688168256A0A449A6001F003
:104DF00065FA63699A68411B8A42E5D9AB181D1AA6
:104E0000092D206A98BF01F10A02BDE8384010441C
:104E100001F050BA884900202DE9F041184C0027D4
:104E200004F11406656901F049FA236AAA68C11AF7
:104E30008A4215D813442362D5E9003213605A60C0
:104E40006369D5F80C80EF60B34201D101F02CFA10
:104E500087F311882869C047202383F31188E1E78D
:104E60006169B14209D013441B1ABDE8F0410A2B15
:104E70002CBFC0180A3001F01DBABDE8F08100BF98
:104E8000884900200C2303604FF0FF30704700007A
:104E900000207047FEE70000704700004FF0FF3031
:104EA0007047000002290CD0032904D001290748CB
:104EB00018BF00207047032A05D8054800EBC20040
:104EC0007047044870470020704700BF006E00081C
:104ED0002C230020B46D000870B59AB00546084632
:104EE00001A9144600F0C2F801A8FCF7D9FE431C42
:104EF0005B00C5E900340022237003236370C6B24F
:104F000001AB02341046D1B28E4204F1020401D842
:104F10001AB070BD13F8011B04F8021C04F8010C50
:104F20000132F0E708B5202383F311880348FFF727
:104F300067FA002383F3118808BD00BF404B0020AF
:104F400090F8443003F01F02012A07D190F8452061
:104F50000B2A03D10023C0E90E3315E003F06003F0
:104F6000202B08D1B0F848302BB990F84520212AE1
:104F700003D81F2A04D8FFF725BA222AEBD0FAE774
:104F8000034A82630722C26303640120704700BFA3
:104F90002423002007B5052917D8DFE801F01916EA
:104FA00003191920202383F31188104A019001214D
:104FB000FFF7C6FA01980E4A0221FFF7C1FA0D4821
:104FC000FFF7EAF9002383F3118803B05DF804FBCF
:104FD000202383F311880748FFF7B4F9F2E7202371
:104FE00083F311880348FFF7CBF9EBE7546D000812
:104FF000786D0008404B002038B50C4D0C4C0D4925
:105000002A4604F10800FFF767FF05F1CA0204F120
:1050100010000949FFF760FF05F5CA7204F1180096
:105020000649BDE83840FFF757BF00BF08500020D1
:105030002C230020346D00083E6D0008496D0008E7
:1050400070B5044608460D46FCF72AFEC6B2204657
:10505000013403780BB9184670BD32462946FCF777
:105060000BFE0028F3D10120F6E700002DE9F04700
:1050700005460C46FCF714FE2C49C6B22846FFF73D
:10508000DFFF08B10836F6B229492846FFF7D8FFF6
:1050900008B11036F6B2632E0BD8DFF89080DFF837
:1050A0009090244FDFF898A02E7846B92670BDE87E
:1050B000F08729462046BDE8F04701F007BD252EC0
:1050C00030D1072241462846FCF7D6FD80B91A4B5D
:1050D000224603F10C0153F8040B42F8040B8B42F7
:1050E000F9D119889B781180937007350F34DBE76D
:1050F000082249462846FCF7BFFD98B90F4BA21C71
:10510000197809090232C95D02F8041C13F8011B61
:1051100001F00F015345C95D02F8031CF0D11834AA
:105120000835C1E704F8016B0135BDE7206E0008C2
:10513000496D0008286E00080A6B0008107AFF1FEE
:105140001C7AFF1FBFF34F8F024AD368DB03FCD4E6
:10515000704700BF003C024008B5094B1B7873B98B
:10516000FFF7F0FF074B1A69002ABFBF064A5A60D3
:1051700002F188325A601A6822F480621A6008BD0F
:1051800066520020003C02402301674508B50B4BE6
:105190001B7893B9FFF7D6FF094B1A6942F000421A
:1051A0001A611A6842F480521A601A6822F4805216
:1051B0001A601A6842F480621A6008BD66520020C4
:1051C000003C02401728F0B516D80C4C0C49237847
:1051D0007BB90C4D0E4618234FF0006255F8047B46
:1051E00046F8042B013B13F0FF033A44F6D10123A8
:1051F000237051F82000F0BD0020FCE7C8520020C9
:10520000685200203C6E0008014B53F820007047A4
:105210003C6E000818207047172810B5044601D9C5
:10522000002010BDFFF7CEFF064B53F82430184482
:10523000C21A0BB90120F4E712680132F0D1043B25
:10524000F6E700BF3C6E0008172870B504462FD85B
:10525000FFF7C6FC1749FFF775FFFFF77DFFF32344
:10526000CB600C23B4FBF3F203FB1245D30143EAFA
:10527000C503DBB243F4007343F002030B610B6917
:1052800043F480330B6106462046FFF75BFFFFF7D0
:1052900099FF094B53F8241000F048F93046FFF706
:1052A00075FFFFF7A7FC2046BDE87040FFF7B4BFCD
:1052B000002070BD003C02403C6E000812F001036B
:1052C0002DE9F04105460E4614464BD18218B2F145
:1052D000026F61D8314B1B6813F001035CD0304F73
:1052E000FFF77EFCFFF738FFF323FB60FFF72AFF91
:1052F000314640F20128032C18D824F00104284E2E
:105300000C446D1A40F20118A142336905EB010704
:105310002AD123F001033361FFF738FFFFF76AFC5E
:105320000120BDE8F081043C0435E4E7AB07E4D19B
:105330003B6923F440733B613B6943EA08033B61EB
:1053400051F8046B2E60BFF34F8FFFF7FBFE2B6805
:105350009E42E8D03B6923F001033B61FFF716FF53
:10536000FFF748FC0020DCE723F440733361336926
:1053700043EA080333610B883B80BFF34F8FFFF78D
:10538000E1FE3F8831F8023BBFB2BB42BCD033697B
:1053900023F001033361E1E71846C2E70038024019
:1053A000003C0240084908B50B7828B11BB9FFF74B
:1053B000D3FE01230B7008BD002BFCD0BDE80840D4
:1053C0000870FFF7E3BE00BF6652002008B54FF437
:1053D00040314FF0005000F0ABF8BDE808404FF40A
:1053E00080314FF0805000F0A3B8000070B582B05B
:1053F000FFF7F6FB0E4E054600F060FF3268904264
:1054000037BF0C4A0B49516814682EBFD1E90041DF
:10541000013151600419034641F100012846019110
:105420003360FFF7E7FB0199204602B070BD00BF73
:10543000CC520020D052002070B582B0FFF7D0FBD4
:10544000104E054600F03AFF3268904237BF0E4AD0
:105450000D49516814682EBFD1E9004101315160F6
:10546000041941F100010346284601913360FFF71A
:10547000C1FB01994FF47A7200232046FAF7B8FE77
:1054800002B070BDCC520020D052002010B50244B2
:10549000064BD2B2904200D110BD441C00B253F86A
:1054A000200041F8040BE0B2F4E700BF50280040B0
:1054B0000F4B30B51C6F240407D41C6F44F40074E8
:1054C0001C671C6F44F400441C670A4C236843F4B7
:1054D000807323600244084BD2B2904200D130BDA9
:1054E000441C00B251F8045B43F82050E0B2F4E7EA
:1054F00000380240007000405028004007B50122EB
:1055000001A90020FFF7C2FF019803B05DF804FB7A
:1055100013B50446FFF7F2FFA04205D0012201A90E
:1055200000200194FFF7C4FF02B010BD70470000D7
:105530007047000070470000074B45F255521A6053
:1055400002225A6040F6FF729A604CF6CC421A6012
:10555000024B01221A70704700300040DC520020DC
:10556000034B1B781BB1034B4AF6AA221A60704703
:10557000DC52002000300040034B1A681AB9034A7D
:10558000D2F874281A607047D852002000300240C8
:10559000024B4FF08072C3F874287047003002400D
:1055A00008B5FFF7E9FF024B1868C0F3407008BD6B
:1055B000D852002008B5FFF7DFFF024B1868C0F390
:1055C000007008BDD852002070470000FEE70000C0
:1055D0000A4B0B480B4A90420BD30B4BDA1C121AA6
:1055E000C11E22F003028B4238BF00220021FCF7CB
:1055F0005FBB53F8041B40F8041BECE78070000805
:10560000EC530020EC530020EC53002070470000C6
:1056100070B5D0E915439E6800224FF0FF3504EBCA
:1056200042135101D3F800090028BEBFD3F8000986
:1056300040F08040C3F80009D3F8000B0028BEBF3B
:10564000D3F8000B40F08040C3F8000B0132631820
:105650009642C3F80859C3F8085BE0D24FF0011333
:10566000C4F81C3870BD00001D4B03EB80022DE90F
:10567000F043D2F80CC05D6DDCF81420461CD2F863
:1056800000E005EB063605EB4018516871450AD37A
:10569000D5F83438012202FA00F023EA0000C5F8F8
:1056A0003408BDE8F083BCF81040AEEB0103A34220
:1056B00028BF2346D8F81849A4B2B3EB840FF0D81A
:1056C0009468A4F1040959F8047F3760A4EB090732
:1056D0001F44042FF7D81C440B4494605360D4E754
:1056E000E0520020890141F02001016103699B061D
:1056F000FCD41220FFF78EBA10B5054C2046FEF7F9
:1057000001FF4FF0A0436365024BA36510BD00BFCE
:10571000E0520020C06E000870B50378012B0546EA
:1057200050D12A4B446D98421BD1294B5A6B42F001
:1057300080025A635A6D42F080025A655A6D5A6966
:1057400042F080025A615A6922F080025A610E21A9
:1057500043205B69FEF748FB1E4BE3601E4BC4F819
:1057600000380023C4F8003EC02323606E6D4FF460
:105770005023A3633369002BFCDA012333610C202F
:10578000FFF748FA3369DB07FCD41220FFF742FA2F
:105790003369002BFCDA0026A6602846FFF738FFA5
:1057A0006B68C4F81068DB68C4F81468C4F81C6837
:1057B0004BB90A4BA3614FF0FF336361A36843F019
:1057C0000103A36070BD064BF4E700BFE052002068
:1057D000003802404014004003002002003C30C06A
:1057E000083C30C0F8B5446D054600212046FFF75F
:1057F00079FFA96D00234FF001128F68C4F8343887
:105800004FF00066C4F81C284FF0FF3004EB431241
:1058100001339F42C2F80069C2F8006BC2F8080960
:10582000C2F8080BF2D20B686A6DEB656362102355
:105830001361166916F01006FBD11220FFF7EAF982
:10584000D4F8003823F4FE63C4F80038A36943F4A5
:10585000402343F01003A3610923C4F81038C4F8AF
:1058600014380A4BEB604FF0C043C4F8103B084BB0
:10587000C4F8003BC4F81069C4F80039EB6D03F1BB
:10588000100243F48013EA65A362F8BD9C6E000821
:1058900040800010426D90F84E10D2F8003823F48A
:1058A000FE6343EA0113C2F8003870472DE9F8435C
:1058B00000EB8103456DDA68166806F00306731E77
:1058C000022B05EB41130C4680460FFA81F94FEA93
:1058D00041104FF00001C3F8101B4FF0010104F11B
:1058E000100398BFB60401FA03F391698EBF334EDB
:1058F00006F1805606F5004600293AD0578A04F191
:105900005801490137436F50D5F81C180B43C5F8AF
:105910001C382B180021C3F8101953690127611E88
:10592000A7409BB3138A928B9B08012A88BF5343DD
:10593000D8F85C20981842EA034301F1400205EBD5
:105940008202C8F85C00214653602846FFF7CAFE71
:1059500008EB8900C3681B8A43EA84534834640116
:105960001E432E51D5F81C381F43C5F81C78BDE8DE
:10597000F88305EB4917D7F8001B21F40041C7F85D
:10598000001BD5F81C1821EA0303C0E704F13F030C
:1059900005EB83030A4A5A6028462146FFF7A2FE18
:1059A00005EB4910D0F8003923F40043C0F8003962
:1059B000D5F81C3823EA0707D7E700BF008000109E
:1059C00000040002826D1268C265FFF721BE00006C
:1059D0005831436D49015B5813F4004004D013F46F
:1059E000001F0CBF02200120704700004831436DAA
:1059F00049015B5813F4004004D013F4001F0CBF9E
:105A0000022001207047000000EB8101CB68196A79
:105A10000B6813604B6853607047000000EB810314
:105A200030B5DD68AA691368D36019B9402B84BF0B
:105A3000402313606B8A1468426D1C44013CB4FB24
:105A4000F3F46343033323F0030302EB411043EA0F
:105A5000C44343F0C043C0F8103B2B6803F003037A
:105A6000012B09B20ED1D2F8083802EB411013F421
:105A7000807FD0F8003B14BF43F0805343F00053C5
:105A8000C0F8003B02EB4112D2F8003B43F0044364
:105A9000C2F8003B30BD00002DE9F041244D6E6D91
:105AA00006EB40130446D3F8087BC3F8087B38079D
:105AB0000AD5D6F81438190706D505EB8403214614
:105AC000DB6828465B689847FA071FD5D6F8143874
:105AD000DB071BD505EB8403D968CCB98B69488AF1
:105AE0005A68B2FBF0F600FB16228AB91868DA6829
:105AF00090420DD2121AC3E90024202383F31188A7
:105B00000B482146FFF78AFF84F31188BDE8F08136
:105B1000012303FA04F26B8923EA02036B81CB6849
:105B2000002BF3D021460248BDE8F041184700BFE2
:105B3000E052002000EB810370B5DD68436D6C69B5
:105B40002668E6604A0156BB1A444FF40020C2F8AA
:105B500010092A6802F00302012A0AB20ED1D3F812
:105B6000080803EB421410F4807FD4F8000914BF36
:105B700040F0805040F00050C4F8000903EB42129E
:105B8000D2F8000940F00440C2F80009D3F8340804
:105B9000012202FA01F10143C3F8341870BD19B9AA
:105BA000402E84BF4020206020682E8A8419013C4A
:105BB000B4FBF6F440EAC44040F000501A44C6E793
:105BC000F8B504461E48456D05EB4413D3F8086943
:105BD000C3F80869F10717D5D5F81038DA0713D5D7
:105BE00000EB8403D9684B691F68DA68974218D2C2
:105BF000D21B00271A605F60202383F3118821469F
:105C0000FFF798FF87F31188330617D5D5F83428A6
:105C10000123A340134211D02046BDE8F840FFF70E
:105C200023BD012303FA04F2038923EA020303815B
:105C30008B68002BE8D021469847E5E7F8BD00BF08
:105C4000E05200202DE9F74F984C666D7569B369F5
:105C50001D4015F48058756107D02046FEF7B8FC4A
:105C600003B0BDE8F04FFDF78DBF002D12DAD6F876
:105C7000003E8E489F071EBFD6F8003E23F0030368
:105C8000C6F8003ED6F8043823F00103C6F80438FD
:105C9000FEF7C6FC280505D58448FFF7B9FC834804
:105CA000FEF7AEFCA9040CD5D6F8083813F0060FA1
:105CB000F36823F470530CBF43F4105343F4A05320
:105CC000F3602A0704D56368DB680BB1774898470F
:105CD000EB0274D4AF0227D5D4F85490DFF8CCB1DE
:105CE00000274FF0010A09EB4712D2F8003B03F4FA
:105CF0004023B3F5802F11D1D2F8003B002B0DDAF1
:105D000062890AFA07F322EA0303638104EB87033B
:105D1000DB68DB6813B1394658469847A36D0137F5
:105D20009B68FFB29F42DED9E80617D5676D3A6AD5
:105D3000C2F30A1002F00F0302F4F012B2F5802F42
:105D400000F08880B2F5402F08D104EB83030022D5
:105D5000DB681B6A07F5805790426DD12903D6F89E
:105D6000184813D5E20302D50020FFF795FEA303E0
:105D700002D50120FFF790FE670302D50220FFF74E
:105D80008BFE260302D50320FFF786FE6D037FF509
:105D900067AFE00702D50020FFF712FFA10702D589
:105DA0000120FFF70DFF620702D50220FFF708FF71
:105DB00023077FF555AF0320FFF702FF50E7636D20
:105DC000DFF8E8B0019300274FF0010AA36D9B684C
:105DD0005FFA87F999453FF67DAF019B03EB4913C5
:105DE000D3F8002902F44022B2F5802F22D1D3F853
:105DF0000029002A1EDAD3F8002942F09042C3F8A5
:105E00000029D3F80029002AFBDB606D4946FFF723
:105E100069FC22890AFA09F322EA0303238104EBCD
:105E20008903DB689B6813B1494658469847484642
:105E3000FFF71AFC0137C9E7910708BFD7F80080C0
:105E4000072A98BF03F8018B02F1010298BF4FEABD
:105E5000182881E7023304EB830207F58057526864
:105E6000D2F818C0DCF80820DCE9001CA1EB0C0C0F
:105E7000002188420AD104EB830463689B699A6815
:105E800002449A605A6802445A6067E711F0030FAF
:105E900008BFD7F800808C4588BF02F8018B01F15C
:105EA000010188BF4FEA1828E3E700BFE052002055
:105EB000436D03EB4111D1F8003B43F40013C1F8EB
:105EC000003B7047436D03EB4111D1F8003943F4B7
:105ED0000013C1F800397047436D03EB4111D1F84D
:105EE000003B23F40013C1F8003B7047436D03EB04
:105EF0004111D1F8003923F40013C1F8003970477B
:105F000030B5039C0172043304FB0325C0E906533A
:105F1000049B03630021059BC160C0E90000C0E948
:105F20000422C0E90842C0E90A11436330BD000001
:105F3000416A0022C0E90411C0E90A22C2606FF080
:105F40000101FEF7D7BE0000D0E90432934201D12F
:105F5000C2680AB9181D70470020704703691960AC
:105F6000C2680132C260C26913448269036193420C
:105F700024BF436A03610021FEF7B0BE38B5044672
:105F80000D46E3683BB16269131D1268A3621344B6
:105F9000E362002007E0237A33B929462046FEF762
:105FA0008DFE0028EDDA38BD6FF00100FBE7000040
:105FB000C368C269013BC36043691344826943619A
:105FC000934224BF436A436100238362036B03B19E
:105FD0001847704770B52023044683F31188866AFA
:105FE0003EB9FFF7CBFF054618B186F31188284666
:105FF00070BDA36AE26A13F8015BA362934202D305
:106000002046FFF7D5FF002383F31188EFE7000058
:106010002DE9F84F04460E46174698464FF02009E2
:1060200089F311880025AA46D4F828B0BBF1000FE7
:1060300009D141462046FFF7A1FF20B18BF311881B
:106040002846BDE8F88FD4E90A12A7EB050B521ACF
:10605000934528BF9346BBF1400F1BD9334601F14E
:10606000400251F8040B43F8040B9142F9D1A36AA2
:1060700040334036A3624035D4E90A239A4202D322
:106080002046FFF795FF8AF31188BD42D8D289F3E5
:106090001188C9E730465A46FBF7E4FDA36A5B4422
:1060A0005E44A3625D44E7E710B5029C01720433CD
:1060B00004FB0321C0E906130023C0E90A33039B54
:1060C0000363049BC460C0E90000C0E90422C0E986
:1060D0000842436310BD0000026AC260426AC0E920
:1060E00004220022C0E90A226FF00101FEF702BE7D
:1060F000D0E904239A4201D1C26822B9184650F867
:10610000043B0B607047002070470000C368C26901
:106110000133C3604369134482694361934224BFDE
:10612000436A43610021FEF7D9BD000038B504463B
:106130000D46E3683BB123691A1DA262E26913446C
:10614000E362002007E0237A33B929462046FEF7B0
:10615000B5FD0028EDDA38BD6FF00100FBE7000067
:1061600003691960C268013AC260C2691344826956
:106170000361934224BF436A036100238362036B7C
:1061800003B118477047000070B520230D46044640
:10619000114683F31188866A2EB9FFF7C7FF10B145
:1061A00086F3118870BDA36A1D70A36AE26A013389
:1061B0009342A36204D3E16920460439FFF7D0FF7C
:1061C000002080F31188EDE72DE9F84F04460D46D5
:1061D000904699464FF0200A8AF311880026B3466C
:1061E000A76A4FB949462046FFF7A0FF20B187F3C1
:1061F00011883046BDE8F88FD4E90A073A1AA8EBAF
:106200000607974228BF1746402F1BD905F14003C8
:1062100055F8042B40F8042B9D42F9D1A36A403372
:10622000A3624036D4E90A239A4204D3E1692046A6
:106230000439FFF795FF8BF311884645D9D28AF3CD
:106240001188CDE729463A46FBF70CFDA36A3B448B
:106250003D44A3623E44E5E7D0E904239A4217D1C6
:10626000C3689BB1836A8BB1043B9B1A0ED0136049
:10627000C368013BC360C3691A44836902619A42DF
:1062800024BF436A036100238362012318467047D9
:106290000023FBE700F088B84FF0804300225863EA
:1062A0001A610222DA6070474FF080430022DA6000
:1062B000704700004FF08043586370474FF08043B1
:1062C000586A70474B6843608B688360CB68C360D3
:1062D0000B6943614B6903628B6943620B6803601E
:1062E0007047000008B5264B26481A6940F2FF1196
:1062F0000A431A611A6922F4FF7222F001021A613C
:106300001A691A6B0A431A631A6D0A431A651E4A00
:106310001B6D1146FFF7D6FF02F11C0100F58060EE
:10632000FFF7D0FF02F1380100F58060FFF7CAFFE8
:1063300002F1540100F58060FFF7C4FF02F1700123
:1063400000F58060FFF7BEFF02F18C0100F5806070
:10635000FFF7B8FF02F1A80100F58060FFF7B2FF78
:1063600002F1C40100F58060FFF7ACFF02F1E0012B
:1063700000F58060FFF7A6FFBDE8084000F09AB87E
:106380000038024000000240CC6E000808B500F062
:1063900009FAFEF7F7FBFFF7EFF8BDE80840FEF754
:1063A0002BBE000070470000104B1A6C42F0010237
:1063B0001A641A6E42F001021A660D4A1B6E936847
:1063C00043F0010393604FF0804353229A624FF0F1
:1063D000FF32DA6200229A615A63DA605A6001225F
:1063E0005A6108211A601C20FDF7FEBC00380240EB
:1063F000002004E04FF0804208B51169D3680B40DB
:10640000D9B2C9439B07116107D5202383F31188B3
:10641000FEF7E4FB002383F3118808BD08B5FFF7FE
:10642000E9FFBDE80840FDF7ADBB00001F4B1A694E
:106430006FEAC2526FEAD2521A611A69C2F30802B5
:106440001A614FF0FF301A695A69586100215A6980
:1064500059615A691A6A62F080521A621A6A02F025
:1064600080521A621A6A5A6A58625A6A59625A6A99
:106470001A6C42F080521A641A6E42F080521A6608
:106480001A6E0B4A106840F480701060186F00F4A8
:106490004070B0F5007F1EBF4FF480301867196759
:1064A000536823F40073536000F05CB90038024075
:1064B00000700040344B4FF080521A64334A4FF45E
:1064C000404111601A6842F001021A601A6891078F
:1064D000FCD59A6822F003029A602B4B9A6812F05E
:1064E0000C02FBD1196801F0F90119609A601A6871
:1064F00042F480321A601A689203FCD55A6F42F057
:1065000001025A67204B5A6F9007FCD5204A5A6007
:106510001A6842F080721A601C4A53685904FCD50C
:10652000194B1A689201FCD51A4A9A600322C3F8E3
:106530008C20194B1A68194B9A42194B21D1194AD0
:106540001168194A91421CD140F205121A60144A8E
:10655000136803F00F03052BFAD10B4B9A6842F036
:1065600002029A609A6802F00C02082AFAD15A6C68
:1065700042F480425A645A6E42F480425A665B6E1C
:10658000704740F20572E1E70038024000700040B9
:106590001854400700948838002004E0116400205B
:1065A000003C024000ED00E041C20F41084A08B53E
:1065B000516913680B4003F00103536123B1054A8D
:1065C00013680BB150689847BDE80840FDF7DABA88
:1065D000003C014058530020084A08B5516913682F
:1065E0000B4003F00203536123B1054A93680BB1DA
:1065F000D0689847BDE80840FDF7C4BA003C0140A8
:1066000058530020084A08B5516913680B4003F03D
:106610000403536123B1054A13690BB150699847CC
:10662000BDE80840FDF7AEBA003C014058530020D9
:10663000084A08B5516913680B4003F00803536119
:1066400023B1054A93690BB1D0699847BDE808406A
:10665000FDF798BA003C014058530020084A08B59D
:10666000516913680B4003F01003536123B1054ACD
:10667000136A0BB1506A9847BDE80840FDF782BA2B
:10668000003C014058530020174B10B55A691C6854
:10669000144004F478725A61A30604D5134A936A2D
:1066A0000BB1D06A9847600604D5104A136B0BB142
:1066B000506B9847210604D50C4A936B0BB1D06BF5
:1066C0009847E20504D5094A136C0BB1506C984702
:1066D000A30504D5054A936C0BB1D06C9847BDE86F
:1066E0001040FDF74FBA00BF003C01405853002056
:1066F0001A4B10B55A691C68144004F47C425A6164
:10670000620504D5164A136D0BB1506D98472305E9
:1067100004D5134A936D0BB1D06D9847E00404D5AE
:106720000F4A136E0BB1506E9847A10404D50C4A62
:10673000936E0BB1D06E9847620404D5084A136F6C
:106740000BB1506F9847230404D5054A936F0BB1E2
:10675000D06F9847BDE81040FDF714BA003C0140E7
:1067600058530020062108B50846FDF73DFB0621D9
:106770000720FDF739FB06210820FDF735FB062130
:106780000920FDF731FB06210A20FDF72DFB06212C
:106790001720FDF729FBBDE8084006212820FDF75A
:1067A00023BB000008B5FFF741FE00F00DF8FDF730
:1067B000BFFCFDF7A5FEFDF77DFDFFF7F3FDBDE88E
:1067C0000840FFF767BD00000023054A1946013362
:1067D000102BC2E9001102F10802F8D1704700BF86
:1067E000585300200B460146184600F025B800001B
:1067F00000F038B8012838BF012010B50446204603
:1068000000F028F830B900F007F808B900F00CF8EB
:106810008047F4E710BD0000024B1868BFF35B8FA0
:10682000704700BFD853002008B5062000F032F9A9
:106830000120FEF72FFB000010B5054C13462CB1CC
:106840000A4601460220AFF3008010BD2046FCE757
:1068500000000000024B0146186800F089B800BF34
:106860004C230020024B0146186800F035B800BFE9
:106870004C23002010B501390244904201D1002080
:1068800005E0037811F8014FA34201D0181B10BD99
:106890000130F2E72DE9F041A3B1C91A177801449C
:1068A000044603F1FF3C8C42204601D9002009E058
:1068B0000578BD4204F10104F5D10CEB0405D618AE
:1068C000A54201D1BDE8F08115F8018D16F801ED62
:1068D000F045F5D0E7E7000037B5002944D051F87E
:1068E000043C0190002BA1F10404B8BFE41800F0AF
:1068F000F5F81E4A0198136833B96360146003B059
:10690000BDE8304000F0F0B8A34208D9256861190D
:106910008B4201BF19685B6849192160EDE71A468F
:106920005B680BB1A342FAD911685518A5420BD187
:10693000246821445418A3421160E0D11C685B68AC
:10694000536021441160DAE702D90C230360D6E7D3
:10695000256861198B4204BF19685B68636004BFD6
:10696000491921605460CAE703B030BDDC530020F0
:10697000F8B5CD1C25F0030508350C2D38BF0C25C6
:10698000002D064601DBA94203D90C233360002009
:10699000F8BD00F0A3F821490A6814469CB9204FBD
:1069A0003B6823B92146304600F03CF83860294660
:1069B000304600F037F8431C23D10C2333603046B7
:1069C00000F092F8E3E723685B1B17D40B2B03D985
:1069D00023601C44256004E06368A2420CBF0B6086
:1069E0005360304600F080F804F10B00231D20F0C6
:1069F0000700C21ACCD01B1AA350C9E7224664680C
:106A0000CCE7C41C24F00304A042E3D0211A304692
:106A100000F008F80130DDD1CFE700BFDC530020E3
:106A2000E053002038B5064D0023044608462B608D
:106A3000FEF728FA431C02D12B6803B1236038BD4E
:106A4000E45300201F2938B504460D4604D9162307
:106A500003604FF0FF3038BD426C12B152F8213064
:106A60004BB9204600F030F82A4601462046BDE8E2
:106A7000384000F017B8012B0AD0591C03D1162357
:106A800003600120E7E7002442F8254028469847A4
:106A90000020E0E7024B01461868FFF7D3BF00BFB4
:106AA0004C23002038B5074D002304460846114604
:106AB0002B60FEF7F3F9431C02D12B6803B123606E
:106AC00038BD00BFE4530020FEF7E2B9034611F8D9
:106AD000012B03F8012B002AF9D17047014800F07F
:106AE00009B800BFE8530020014800F005B800BF16
:106AF000E853002070470000704700006F72672E57
:106B00006172647570696C6F742E5069787261631C
:106B100065722D7065726970680000004E6F2061AB
:106B20007070207369670A00426164206677206C88
:106B3000656E6774682025750A0042616420626F83
:106B40006172645F69642025752073686F756C6479
:106B50002062652025750A00426164206677206402
:106B6000657363726970746F72206C656E677468A8
:106B70002025750A004261642061707020435243F1
:106B8000203078253038783A307825303878203001
:106B900078253038783A3078253038780A00476FD1
:106BA0006F64206669726D776172650A0040A2E4C5
:106BB000F16468910600000053544D3332463F3F64
:106BC0003F00000053544D33324634307800535464
:106BD0004D3332463432780053544D3332463434D8
:106BE00036585800012033000010410101105A01AD
:106BF000031059010710310100000000B86B0008B4
:106C00003F00000013040000C46B00083F000000B8
:106C100019040000CE6B00083F00000021040000B2
:106C2000D86B00083F000000404B002020470020A8
:106C30004261642043414E496661636520696E6428
:106C400065782E00800000000080000000008000B9
:106C500000000000000000001D1E000809260008BA
:106C6000692500082D1E0008651E00086120000827
:106C7000311E0008451E0008351E0008391E000898
:106C8000411E00083D1E0008891F0008491E00081B
:106C900075280008591E00085D1F000800960000B6
:106CA00000000000000000000000000000000000E4
:106CB00000000000F9400008E540000821410008FC
:106CC0000D4100081941000805410008F140000885
:106CD000DD4000082D41000800000000314200089E
:106CE0001D42000859420008454200085142000870
:106CF0003D4200082942000815420008654200088C
:106D00000000000001000000000000006D61696EDD
:106D10000000000069646C6500000000146D00084C
:106D2000C8490020404B002001000000814B0008B2
:106D3000000000004172647550696C6F7400254258
:106D40004F415244252D424C002553455249414C58
:106D50002500000002000000000000004D44000873
:106D6000B944000840004000D84F0020E84F002000
:106D7000020000000000000003000000000000000E
:106D8000FD4400080000000010000000F84F002043
:106D9000000000000100000000000000E0520020A0
:106DA00001010200954F0008A54E0008414F000860
:106DB000254F000843000000BC6D00080902430095
:106DC000020100C032090400000102020100052492
:106DD000001001052401000104240202052406001C
:106DE00001070582030800FF09040100020A0000F0
:106DF0000007050102400000070581024000000075
:106E000012000000086E000812011001020000408C
:106E100009124157000201020301000004030904A2
:106E200025424F4152442500303132333435363714
:106E3000383941424344454600000000004000000C
:106E40000040000000400000004000000000010081
:106E5000000002000000020000000200000002002A
:106E600000000200000002000000020000400000DC
:106E70000040000000400000004000000000010051
:106E800000000200000002000000020000000200FA
:106E900000000200000002000000020000000000EC
:106EA00035460008ED4800089949000840004000B8
:106EB00040530020405300200100000050530020A8
:106EC0008000000040010000030000000000802A54
:106ED00000000000AAAAAAAA00000024FFFF0000E8
:106EE0000000000000A00A004400000000000000B4
:106EF000AAAAAAAA00000000FFFF000000000000EC
:106F0000000000001000004000000000AAAAAAAA89
:106F100010000040FFFF0000000000000000000023
:106F20000A68100000000000AAAAAAAA00541000D3
:106F3000FFFF000099007007000000000000004003
:106F400000000000AAAAAAAA00000040FFFF00005B
:106F50000000000000000000000000000000000031
:106F6000AAAAAAAA00000000FFFF0000000000007B
:106F7000000000000000000000000000AAAAAAAA69
:106F800000000000FFFF0000000000000000000003
:106F900000000000000000000A00000000000000E7
:106FA00003000000000000000000000000000000DE
:106FB00000000000000000000000000000000000D1
:106FC00000000000000000005892FF7F0100000058
:106FD0007A0500000000000000001F000000000013
:106FE00040420F00FE2A0100D2040000FF0096007C
:106FF00000000008009600000000080004000000E7
:107000001C6E0008000000000000000000000000EE
:1070100000000000000000000000000050230020DD
:107020000000000000000000000000000000000060
:107030000000000000000000000000000000000050
:107040000000000000000000000000000000000040
:107050000000000000000000000000000000000030
:107060000000000000000000000000000000000020
:107070000000000000000000000000000000000010
:00000001FF
