:020000040800F2
:1000000000060020B5050008F91900087519000858
:10001000CD19000875190008A1190008B7050008D6
:10002000B7050008B7050008B705000855460008E1
:10003000B7050008B7050008B7050008B7050008B0
:10004000B7050008B7050008B7050008B7050008A0
:10005000B7050008B7050008B95C0008E55C0008B2
:10006000115D00083D5D0008695D0008B7050008E6
:10007000B7050008B7050008B7050008B705000870
:10008000B7050008B7050008B7050008B705000860
:10009000B7050008B7050008B7050008955D00081A
:1000A000B7050008B7050008B7050008B705000840
:1000B000B7050008B7050008B7050008B705000830
:1000C000B7050008B7050008B7050008B705000820
:1000D000B7050008815E0008B7050008B7050008ED
:1000E000F95D0008B7050008B7050008B705000866
:1000F000B7050008B7050008B7050008B7050008F0
:10010000B7050008B7050008955E0008B7050008A8
:10011000B7050008B7050008B7050008B7050008CF
:10012000B7050008B7050008B7050008B7050008BF
:10013000B7050008B7050008B7050008B7050008AF
:10014000B7050008B7050008B7050008B70500089F
:10015000B7050008B7050008B7050008B70500088F
:10016000B7050008B7050008B7050008B70500087F
:10017000B705000875530008B7050008B705000863
:10018000B7050008B7050008B7050008B70500085F
:10019000B7050008B7050008B7050008B70500084F
:1001A000B7050008B7050008B7050008B70500083F
:1001B0006D5E0008B7050008B7050008B705000820
:1001C000B7050008B7050008B7050008B70500081F
:1001D000B705000861530008B7050008B705000817
:1001E000B7050008B7050008B7050008B7050008FF
:1001F000B7050008B7050008B7050008B7050008EF
:10020000B7050008B7050008B7050008B7050008DE
:10021000B7050008B7050008B7050008B7050008CE
:10022000B7050008B7050008E5470008B70500084E
:10023000B7050008B7050008B7050008B7050008AE
:10024000B7050008B7050008B7050008B70500089E
:10025000B7050008B7050008B7050008B70500088E
:10026000B7050008B7050008B7050008B70500087E
:10027000B7050008B7050008B7050008B70500086E
:10028000B7050008B7050008B7050008B70500085E
:10029000B7050008B7050008B7050008B70500084E
:1002A0009D0700084D1900085D24000800000000AB
:1002B00053B94AB9002908BF00281CBF4FF0FF31CD
:1002C0004FF0FF3000F074B9ADF1080C6DE904CEC9
:1002D00000F006F8DDF804E0DDE9022304B0704721
:1002E0002DE9F047089D04468E46002B4DD18A42E9
:1002F000944669D9B2FA82F252B101FA02F3C2F11C
:10030000200120FA01F10CFA02FC41EA030E9440AC
:100310004FEA1C48210CBEFBF8F61FFA8CF708FBCD
:1003200016E341EA034306FB07F199420AD91CEBA5
:10033000030306F1FF3080F01F81994240F21C81D7
:10034000023E63445B1AA4B2B3FBF8F008FB10331F
:1003500044EA034400FB07F7A7420AD91CEB040454
:1003600000F1FF3380F00A81A74240F20781644424
:10037000023840EA0640E41B00261DB1D4400023A9
:10038000C5E900433146BDE8F0878B4209D9002D0D
:1003900000F0EF800026C5E9000130463146BDE897
:1003A000F087B3FA83F6002E4AD18B4202D3824201
:1003B00000F2F980841A61EB030301209E46002DB0
:1003C000E0D0C5E9004EDDE702B9FFDEB2FA82F205
:1003D000002A40F09280A1EB0C014FEA1C471FFA63
:1003E0008CFE0126200CB1FBF7F307FB131140EA4A
:1003F00001410EFB03F0884208D91CEB010103F117
:10040000FF3802D2884200F2CB804346091AA4B2D8
:10041000B1FBF7F007FB101144EA01440EFB00FEAC
:10042000A64508D91CEB040400F1FF3102D2A64511
:1004300000F2BB800846A4EB0E0440EA03409CE7B0
:10044000C6F12007B34022FA07FC4CEA030C20FA5D
:1004500007F401FA06F31C43F9404FEA1C4900FA7D
:1004600006F3B1FBF9F8200C1FFA8CFE09FB1811FA
:1004700040EA014108FB0EF0884202FA06F20BD96D
:100480001CEB010108F1FF3A80F08880884240F2BD
:100490008580A8F102086144091AA4B2B1FBF9F001
:1004A00009FB101144EA014100FB0EFE8E4508D9FC
:1004B0001CEB010100F1FF346CD28E456AD9023881
:1004C000614440EA0840A0FB0294A1EB0E01A14266
:1004D000C846A64656D353D05DB1B3EB080261EBD4
:1004E0000E0101FA07F722FA06F3F1401F43C5E9AE
:1004F000007100263146BDE8F087C2F12003D840E4
:100500000CFA02FC21FA03F3914001434FEA1C4725
:100510001FFA8CFEB3FBF7F007FB10360B0C43EA17
:10052000064300FB0EF69E4204FA02F408D91CEBC7
:10053000030300F1FF382FD29E422DD902386344C5
:100540009B1B89B2B3FBF7F607FB163341EA034165
:1005500006FB0EF38B4208D91CEB010106F1FF38B4
:1005600016D28B4214D9023E6144C91A46EA0046AB
:1005700038E72E46284605E70646E3E61846F8E63D
:100580004B45A9D2B9EB020864EB0C0E0138A3E786
:100590004646EAE7204694E74046D1E7D0467BE767
:1005A000023B614432E7304609E76444023842E7DF
:1005B000704700BF02E000F000F8FEE772B63A486C
:1005C00080F30888394880F3098839484EF6085185
:1005D000CEF20001086040F20000CCF200004EF6BE
:1005E0003471CEF200010860BFF34F8FBFF36F8FFD
:1005F00040F20000C0F2F0004EF68851CEF2000149
:100600000860BFF34F8FBFF36F8F4FF00000E1EE34
:10061000100A4EF63C71CEF200010860062080F30D
:100620001488BFF36F8F04F0D3F804F075F805F069
:1006300011F94FF055301F491B4A91423CBF41F818
:10064000040BFAE71C49194A91423CBF41F8040BDC
:10065000FAE71A491A4A1B4B9A423EBF51F8040B5B
:1006600042F8040BF8E700201749184A91423CBFB2
:1006700041F8040BFAE704F08DF805F055F9144C35
:10068000144DAC4203DA54F8041B8847F9E700F034
:100690004FF8114C114DAC4203DA54F8041B884753
:1006A000F9E704F075B800000006002000220020E1
:1006B000000000080000002000060020A0660008DE
:1006C00000220020C0220020C0220020D0490020AB
:1006D000A0020008AC020008AC020008AC0200084E
:1006E0002DE9F04F2DED108AC1F80CD0D0F80CD0C8
:1006F000BDEC108ABDE8F08F002383F311882846F3
:10070000A047002003F0ECF9FEE703F01BF900DF3F
:10071000FEE70000054B10B504460360806810B189
:1007200003685B689847204610BD00BF84620008DC
:1007300038B503F0B5FE054603F082FF0446F0B974
:10074000144B9D421DD001339D4241F2883512BFAA
:10075000044600250124002003F0ACFE0CB100F09B
:100760007FF80D4C00F000FF00F09CFD204601F0EA
:10077000B1FC40B94FF47A7003F0B8F9F6E7002500
:10078000E9E70546E7E7284600F02AF900F068F8AF
:10079000F9E700BF010007B0C02200200448054B64
:1007A000054A036000230549836005F0CDBB00BF07
:1007B000C022002084620008D02400201507000811
:1007C00008B500F03BFDA0F120035842584108BD98
:1007D00007B5042101900DEB010000F04DFD03B0C1
:1007E0005DF804FB07B541F21203022101A8ADF840
:1007F000043000F041FD03B05DF804FB202310B588
:1008000083F311881248C3680BB103F007FA002381
:10081000104A4FF47A710E4803F0C4F9002383F3B1
:1008200011880D4C236813B12368013B2360636872
:1008300013B16368013B6360084B1B7833B963688D
:1008400023B9022000F0FAFD3223636010BD00BF1F
:1008500050230020FD0700086C24002064230020A2
:10086000F7B5574801A901F0ADFD002800F0A580BB
:10087000544B554A1C461968013100F09B800433E3
:100880009342F8D16268514B9A4240F29380504BA8
:10089000DB6803F1104303F580139A4280F08A80ED
:1008A000002000F019FD02204A4B187000F0BEFD38
:1008B000494B0021D3F8E820C3F8E810D3F8102101
:1008C000C3F81011D3F81021D3F8EC20C3F8EC10C2
:1008D000D3F81421C3F81411D3F81421D3F8F0205D
:1008E000C3F8F010D3F81821C3F81811D3F8182161
:1008F000D3F8802042F00062C3F88020D3F8802033
:1009000022F00062C3F88020D3F88020D3F8802042
:1009100042F00072C3F88020D3F8802022F00072E9
:10092000C3F88020D3F8803072B64FF0E023C3F8CC
:10093000084DD4E90004BFF34F8FBFF36F8F274AF0
:10094000C2F88410BFF34F8F536923F4803353618F
:10095000BFF34F8FD2F8803043F6E076C3F3C9057A
:10096000C3F34E335B0103EA060C29464CEA817758
:100970000139C2F87472F9D2203B13F1200FF2D181
:10098000BFF34F8FBFF36F8FBFF34F8FBFF36F8FE7
:10099000536923F4003353610023C2F85032BFF38C
:1009A0004F8FBFF36F8F202383F31188854680F329
:1009B00008882047024801F065F803B0F0BD00BF89
:1009C000C02200200000109020001090FFFF0F9028
:1009D00000220020642300200044025800ED00E0C3
:1009E0002DE9F04FA84B9FB02022FF21089016A8B8
:1009F0009E68DB68079300F061FDA44A1378A3B9F1
:100A00000121A3481170C360202383F31188C368B8
:100A10000BB103F003F900239E4A4FF47A719C480E
:100A200003F0C0F8002383F31188089B9A4A03B1AE
:100A3000136000239949089D98469B46984F0B7078
:100A40005360CDE90533012000F0F0FC25B1924B55
:100A50001B68002B00F07D83002000F0EFFB0E9060
:100A60000E9B002BF2DB012000F0D6FC0E9B213BFD
:100A7000162BE8D801A252F823F000BFD90A0008CB
:100A8000010B00089B0B0008470A0008470A0008F2
:100A9000470A0008910E0008951000082B0F000867
:100AA00013100008391000085F100008470A0008FA
:100AB00071100008470A0008DD100008790B0008D3
:100AC000470A0008591100083D0C0008770D00087E
:100AD000470A0008890F00080220FFF771FE00286E
:100AE00040F06383089B0221069A11A8002A08BFE0
:100AF0001D4641F21233ADF8443000F0BDFBA2E7D1
:100B00004FF47A7000F09AFB041EEBDB0220FFF733
:100B100057FE0028E6D0013C052C00F24883DFE8B0
:100B200004F0030A0D1013390523042111A81193B1
:100B300000F0A2FB17E004215348F9E704215948CB
:100B4000F6E704215848F3E74FF01C09484609F13D
:100B5000040900F0C3FB0421119011A800F08CFBE4
:100B6000B9F12C0FF2D10120059B4FF0000B00FAD8
:100B700004F41C43E3B2059300F0ECFCB8F1000F61
:100B800005D0059B03F00B030B2B08BF0025FFF7D7
:100B900029FE58E704214548CAE7B8F1000FA1D063
:100BA000059B03F00B030B2B9CD10220FFF708FEE3
:100BB0000446002896D00120DFF8E08000F08CFB8E
:100BC0004FF00009022088F8000000F02FFC5FFAC7
:100BD00089FA504600F090FB054690B1504609F165
:100BE000010900F099FB0028F1D10546069441F275
:100BF0001213022111A8A046ADF8443000F03CFBCE
:100C000021E701232E46DFF88090022088F800308B
:100C100000F002FCD9F80830B34207D9304600F0A2
:100C20005DFB013040F0C6820436F3E700261A4B24
:100C3000069488F80060A0465E609DE7B8F1000F5A
:100C40003FF450AF059B03F00B030B2B7FF44AAF2F
:100C500064210FA800F006FB814600287FF442AF14
:100C60000220FFF7ADFD044600283FF43BAF3A6A8F
:100C70007B6A0F9953438DF837908B421AD20C48F8
:100C800000F0E6FB2EE700BF0022002068240020D1
:100C900050230020FD0700086C240020642300205E
:100CA000C022002004220020082200200C22002064
:100CB0008C6000084FF4801AAE48C846BAFBF2FABE
:100CC00000F0C6FBFFF78EFD01210DF1370000F0AB
:100CD000D3FA0F9B434542D9002310AA5146384608
:100CE000CDE9103311AB00F0D1FE00283FF47FAF07
:100CF00000F08AFE109B00EB030901210DF1370083
:100D000000F0BAFA00F080FE484520D9384601F0DC
:100D1000F3F880B964210F9B97480AF1010A01FB9F
:100D200008F1B1FBF3F18DF83710C9B200F090FB78
:100D30003B6A9844CDE700F067FE119B1844484594
:100D40003FF655AF00F060FE109B00EB0309109BCF
:100D50004FF47A70A3FB000302F0C8FECDE76423D2
:100D600001210DF13700A0468DF8373000F084FAEC
:100D70000023079300E7B8F1000F3FF4B3AE059BE3
:100D800003F00B030B2B7FF4ADAE02207B4B1870EE
:100D900000F04CFB322000F051FAB0F1000AFFF6EF
:100DA000A1AE079BD14653440993754B099ADB6862
:100DB0009A423FF697AEBAF5807F3FF793AE714AFD
:100DC0000024A2450A920EDD4FF47A7000F036FA44
:100DD0000E900E9B002BFFF685AE0E9B01340A9AF7
:100DE00002F8013BEDE7C820FFF7EAFC04460028C3
:100DF0003FF478AE079B1F2B11D8C3F1200223F0DC
:100E0000030016AB5F495245184428BF52460A9268
:100E100000F022FB0A9AFF215A4800F04FFB002302
:100E20009846CDE91033079B03F580130B93B9F176
:100E3000000F02D1A046099B9BE711AB514A0B99C9
:100E40003846029310AB4244414401930FAB0093E8
:100E50004B4601F023FA00283FF4C9AE00F0D6FD5E
:100E60000F9B82460A919844A9EB030900F0CEFD3E
:100E7000109B0A9A13EB0A0342F10002834272EBC1
:100E80000103F3D2384601F037F80028EED1CEE75F
:100E9000B8F1000F3FF426AE059B03F00B030B2BBC
:100EA0007FF420AE0220354B187000F0BFFA3220DC
:100EB00000F0C4F9B0F1000AFFF614AE1AF0030412
:100EC0007FF410AE2E4A0AEB0603926893423FF677
:100ED00009AEBAF5807F3FF705AEDFF8A890A245CE
:100EE0000DDD4FF47A7000F0A9F90E900E9B002BE7
:100EF000FFF6F8AD0E9B013409F8013BEFE7C8207F
:100F0000FFF75EFC044600283FF4ECADCAF387020D
:100F10001C4930464FEAAA0900F0D8FA804600285A
:100F20003FF465AE06EB890626E60220FFF748FC93
:100F300000283FF4D7AD00F00BFA00283FF4D2AD03
:100F40004FF00009DFF838A04C46DAF808304B457E
:100F50000CD9484609F1040900F0C0F904221190A7
:100F600011A9204601F0A0FA0446EEE72046FFF75B
:100F70002FFC01E6B1600008C9600008642300206E
:100F80000022002068230020642110A800F06AF9E4
:100F9000044600287FF4A6AD0220FFF711FC0028CC
:100FA0003FF4A0AD109BA14603F0030A1099A1EBFA
:100FB0000A01A1421BD91F2C11D8169B01330ED058
:100FC00024F003031EAA134453F8203C119348460F
:100FD000042211A9043401F067FA8146E6E70423EC
:100FE00011AA04F58011384601F0A4F9EFE7BAF12F
:100FF000000F0CD0534611AA01F58011384601F0BC
:1010000099F94846524611A901F04EFA81464846E0
:10101000ADE70023642111A8119300F023F9002803
:101020007FF460AD0220FFF7CBFB00283FF45AAD00
:10103000119800F083F99AE70023642111A8119315
:1010400000F010F900287FF44DAD0220FFF7B8FB47
:1010500000283FF447AD119800F072F987E70220AD
:10106000FFF7AEFB00283FF43DAD00F081F97EE7CD
:101070000220FFF7A5FB00283FF434AD11A914208E
:1010800000F07CF90990FFF7A3FB099911A800F083
:10109000F3F871E5322000F0D1F8041EFFF622AD1E
:1010A000A3077FF41FAD444A04EB0B0392689342FD
:1010B0003FF618AD0220FFF783FB00283FF412AD86
:1010C00024F003045C44A3453FF456AD58460BF1AD
:1010D000040B00F003F9FFF77BFBF4E74FF47A70A1
:1010E000FFF76EFB00283FF4FDAC00F031F980B152
:1010F000169B013328D011AB16AA4FF48011384645
:10110000029310AB01930FAB0093202301F0C6F8BC
:1011100008B944466BE500F079FC284E04460D46BC
:1011200000F074FC109B1B1945F10002834272EB26
:101130000103F5D2304600F0DFFE0028F0D1202276
:10114000FF2116A800F0BAF9FFF74CFB1C4802F08B
:10115000CDFC1FB0BDE8F08FB8F1000F3FF4C2AC7A
:10116000059B03F00B030B2B7FF4BCAC0023642125
:1011700011A8119300F076F8044600287FF4B2AC71
:101180000220FFF71DFB814600283FF4ABACFFF7C0
:1011900029FB41F2883002F0A9FC119800F01EFAF8
:1011A000C846254600F0D6F94DE48046E4E44FF009
:1011B000000B97E406941AE500220020C0220020CC
:1011C000A0860100F7B50C46184E4FF47A7105461B
:1011D00002FB01F396F90020501C0BD1144829465C
:1011E00001930268176A2246B8478442019B03D1E3
:1011F000002310E0002AF1D096F90020511C01D004
:10120000012A0DD10B4829460268166A2246B047CA
:10121000844205D10123084A0120137003B0F0BDB8
:101220004FF4FA7002F062FC0020F7E71022002071
:10123000382B0020FC240020B8240020002307B510
:10124000024601210DF107008DF80730FFF7BAFFC4
:1012500020B19DF8070003B05DF804FB4FF0FF30AC
:10126000F9E700000A46042108B5FFF7ABFF80F05C
:101270000100C0B2404208BD074B0A4630B419789D
:10128000064B53F82140014623682046DD69044B94
:10129000AC4630BC604700BFB8240020F4600008B2
:1012A000A086010070B50A4E00240A4D02F0ECFE43
:1012B000308028683388834208D902F0E1FE2B6829
:1012C00004440133B4F5003F2B60F2D370BD00BF7E
:1012D000BA2400207424002002F07CBF00F10060DA
:1012E00000F500300068704700F10060920000F5E2
:1012F000003002F0FBBE0000054B1A68054B1B884E
:101300009B1A834202D9104402F0BABE00207047F3
:1013100074240020BA24002038B5074D04462868FC
:10132000204402F0B3FE28B928682044BDE83840C4
:1013300002F0B2BE38BD00BF742400200020704708
:1013400000F1FF5000F58F10D0F800087047000042
:10135000064991F8243033B100230822086A81F845
:101360002430FFF7C1BF0120704700BF7824002060
:10137000014B1868704700BF0010005C244BF0B5AB
:101380001A680446234BC2F30B06120C1F885868D8
:10139000BE4293F9085028D09F89BE4206D1012051
:1013A0000C2505FB0033586893F9085041F20103FE
:1013B0009A421CD041F203039A421AD042F201032E
:1013C0009A4218D042F203039A4208BF5625621E81
:1013D0000B46441E0A4493420FD214F9016F581C65
:1013E0006EB1034600F8016CF5E70020D8E75A25F6
:1013F000EDE75925EBE75825E9E7184605E02C24E9
:1014000082421C7001D9981C5D70401AF0BD00BF6B
:101410000010005C14220020022803D1024B4FF47C
:1014200000229A61704700BF00100258022802D1C2
:10143000014B08229A61704700100258022804D11B
:10144000024A536983F00803536170470010025841
:101450000FB404B070470000002310B5934203D0CE
:10146000CC5CC4540133F9E710BD0000013810B55D
:1014700010F9013F3BB191F900409C4203D11AB1F0
:101480000131013AF4E71AB191F90020981A10BD20
:101490001046FCE70138013910F9013F11F9012F1D
:1014A0000BB19342F8D0981A7047000003460246E9
:1014B000D01A12F9011B0029FAD1704702440346E1
:1014C000934202D003F8011BFAE770472DE9F84375
:1014D0001F4D14460746884695F8242052BBDFF876
:1014E00070909CB395F824302BB92022FF214846F8
:1014F0002F62FFF7E3FF95F824004146C0F1080290
:1015000005EB8000A24228BF2246D6B29200FFF728
:10151000A3FF95F82430A41B17441E449044E4B262
:10152000F6B2082E85F82460DBD1FFF711FF002802
:10153000D7D108E02B6A03EB82038342CFD0FFF7B9
:1015400007FF0028CBD10020BDE8F8830120FBE78E
:1015500078240020024B1A78024B1A70704700BFA3
:10156000B82400201022002038B5164C164D204615
:1015700001F018FC2946204601F040FC2D68134874
:10158000D5F89020D2F8043843F00203C2F80438AA
:1015900002F0ACFA0E49284601F03EFDD5F8902045
:1015A0000C48D2F804380C49A04223F00203C2F8D8
:1015B00004384FF4E1330B6003D0BDE8384001F04C
:1015C0004FBB38BD382B0020F863000840420F00A5
:1015D00000640008FC240020A024002038B50B4B38
:1015E00004461A780A4B53F822500A4B9D420CD0FD
:1015F000094B002118221846FFF760FF04600146DE
:101600002846BDE8384001F02BBB38BDB824002087
:10161000F4600008382B0020A024002038B5084BC7
:1016200004461546017543600A21243002F076FF16
:1016300004F128002A460A2102F070FF204638BD36
:10164000CC620008F8B51E461B6805460C461746D6
:101650001BB9236863B9012408E0BDF8182031469E
:10166000806A02F073FF0028F3D100242046F8BD01
:1016700021463A46686A02F09FFF04460028EAD1F4
:101680003368002BF1D0A86A02F0CAFFEEE7000031
:1016900038B50D46114604461A4611B1806A02F06B
:1016A0007DFF2DB12946606ABDE8384002F0B0BF29
:1016B00038BD0000704700007047000000207047F0
:1016C000002070470020704713B56C4600F10C03F2
:1016D00084E8060094E8030083E8050002B010BD2A
:1016E0000023C0E90333704782B002AB03E9060070
:1016F00002B070477047000000207047704700003C
:1017000000207047002070470120704782B0002001
:1017100002A901E90C0002B07047000000207047E8
:10172000002070470B6803634B68C3628B68436398
:10173000CB6883630B69C3637047000038B5836A65
:101740000446154D1B7955F8330001F061FFD4E9CB
:1017500009231B7955F8331002F130034968994287
:1017600018D000231363626A5363D4E90912537CCF
:10177000581E137C92681B0443EA002313438B63B7
:10178000D4E909131B79303155F83300BDE83840EE
:1017900001F0D2BE38BD00BF58610008F8B51A4F3D
:1017A00005460E4611463868FFF774FE40BB746864
:1017B0003B792CB194F82C209A420FD02468F8E79A
:1017C000402004F0CBFB0122B5210446FFF726FFA1
:1017D000736823603B79746084F82C30402004F0F7
:1017E000BDFB002328600371C0E90333037A43F093
:1017F00007030372054BC0E9094703602846F8BD9B
:1018000000232B60FAE700BFBC24002068610008B9
:10181000044B10B504460360C06908B104F09CFB9A
:10182000204610BD1061000810B50446FFF7F0FF18
:10183000204604F08FFB204610BD000008B519B10A
:10184000FFF77CFF012008BD836A1A79024B53F829
:10185000320001F0E1FEF5E7586100082DE9FF4193
:10186000DDF828800546174603911FFA88F6029393
:10187000FFF764FF02ABBAB203A9686A0096FFF7EC
:10188000E1FE044638B900212846FFF7D7FF20467D
:1018900004B0BDE8F081AFB9AB6A05F12C011A794B
:1018A000134B53F83200B8F1000F19D101F052FE7A
:1018B00080F00104E4B23346686ADDE90221FFF7F3
:1018C000E7FEE0E7029B83B9AB6A3A46084805F1B8
:1018D0002C011C79039B50F8340001F051FEE7E71E
:1018E000029B424601F062FEE2E70024E3E700BF0C
:1018F0005861000813B504460191FFF71FFF019AD4
:10190000A36A04F12C011879054B53F8300001F05B
:1019100063FE00212046FFF791FF012002B010BDB9
:101920005861000810B50446FFF708FFA36A1A794A
:10193000054B53F8320001F05DFE00212046FFF711
:101940007DFF012010BD00BF58610008064B01213A
:10195000064A1A6000221A71054AC3E902124FF4BE
:1019600006721A82704700BFBC240020FC60000889
:10197000000E270700B59BB0EFF309816822684687
:10198000FFF76AFDEFF30583044B9A6BDA6A9A6AF4
:101990009A6A9A6A9A6A9A6A9B6AFEE700ED00E080
:1019A00000B59BB0EFF3098168226846FFF754FD4C
:1019B000EFF30583044B9A6B9A6A9A6A9A6A9A6A59
:1019C0009A6A9B6AFEE700BF00ED00E000B59BB09D
:1019D000EFF3098168226846FFF73EFDEFF30583C8
:1019E000034B5A6B9A6A9A6A9A6A9A6A9B6AFEE7EA
:1019F00000ED00E0FEE70000FEE700000FB408B5D0
:101A0000029802F003F8FEE702F0EABC02F0C2BC62
:101A100080697047C0697047006A7047406A7047C4
:101A2000806A7047F0B5ADF2044D0E4605460021C0
:101A30004FF47F7201A80091FFF740FD2C6A7443B8
:101A400001362B6A7343A34216D92B686A46214696
:101A500028465F684FF48063B84770B16A464FF418
:101A6000806312F8011BFF290AD1013B9BB2002BB6
:101A7000F7D104F58064E4E701200DF2044DF0BDD8
:101A80000020FAE780680368DB69184730B5456ACB
:101A900085B004468D420FD30568CDE90023026A64
:101AA00003ABAD6A5143A84720B1206A039BC31A18
:101AB0005842584105B030BD0020FBE7F0B5C5697C
:101AC00087B004468D4212D30C9F86690568714326
:101AD000CDE9013705AB00936D69036AA84720B1D2
:101AE000A069059BC31A5842584107B0F0BD0020B9
:101AF000FBE70000F0B5662389B0002405464FF4EB
:101B000080768068079403A9CDE90336CDE90544C2
:101B100003685B699847A8682246214603680094D9
:101B20001F692346B847A8689923079403A9CDE9FC
:101B30000336CDE9054403685B699847A8682246E7
:101B40002146036800941D692346A84709B0F0BDEB
:101B5000254B2DE9F04F1B789FB0002504468DF8EA
:101B600028304FF09F0E80684FF00123ADF82950C8
:101B700005A90995CDE905E3CDE9075503685B693A
:101B80009847A06803222946036800922A461E69E6
:101B90000AABB04728B394F88C20144B9DF828105A
:101BA00003EBC2031A7991421BD19DF829205B797E
:101BB0009A4216D1A0684FF05A0C0D4B082605A981
:101BC0000996CDE905C3CDE9075503685B699847D8
:101BD000A0682A462946036800961F690AABB847E1
:101BE00040B9002048E100BF74600008646200084A
:101BF000002500010422B1490AA804F0DFF90546D6
:101C00000028EED1BDF82C306FF48277A3813B44DD
:101C1000012BE6D8079605A9CDE90A00A06803685C
:101C20005B699847A0682A462946036800961E69A2
:101C30000AABB0470028D4D0DDE90A361A0202F414
:101C4000706242EA1662FF2ACBD11B0E26F07F4655
:101C500050222946142B26610AA828BF1423A373F7
:101C6000FFF72CFCA068079605A903685B699847F5
:101C7000A068A37B294602689B0000930AAB166903
:101C80002A46B0470028ACD00B990029A9DBC90827
:101C90006FF07E43149D4FF0010E994228BF194604
:101CA000C5F303130EFA03F221FA03F30391616102
:101CB000A261E361002B94D02646A44600274FF092
:101CC00002081EAAC7F3460302EB830353F834ACA1
:101CD00007F001031B01DA1D0EFA03F908FA02F2FC
:101CE000A2EB090202EA0A02DA401AD003F108095B
:101CF0000F330EFA02F2216A08FA03F30EFA09FB17
:101D0000CCF830208A42A3EB0B0B0BEA0A0A2AFA22
:101D100009F98CF82C90A36A88BF2262934288BF8D
:101D2000A26201370CF1100C042FCAD1236A4FF0C4
:101D3000020C039A4FF0010E139F9A4224BFB2FB8C
:101D4000F3F1616207F00F0138BF01234FF0090280
:101D500001F1010138BF63624900336B33B3531C97
:101D60000EFA02F8A2F105090CFA03F30EFA09FAC9
:101D7000A3EB080302F1FF380CFA08F83B40A8EB8C
:101D80000A08D34008EA070828FA09F877D0012B97
:101D900077D0022B77D0032B08BF4FF47A735FFA0A
:101DA00088F808FB033373634B43B3630732103681
:101DB000252AD2D115F0C04FC5F3417365D0012B50
:101DC00065D0022B0CBF4FF47A634FF47A43C5F30E
:101DD000046202FB0333E3664B432367199B9E07B0
:101DE00058D0062384F8743015F4005F05F00F0313
:101DF000C5F3042514BF40220822013305FB022548
:101E00005B00A5675D430A9B9F02E5677FF5E9AE2E
:101E10000C9B1A0A84F88020C3F3421203F01F03BC
:101E200084F8882084F88130189BC3F3025213F49D
:101E3000401F84F883207FF4D4AEDE0602D5042A46
:101E40007FF4CFAE03F40072002A14BF01220022F7
:101E500084F8872004D0DD0324D5002384F889305A
:101E6000179B1A0722D5002384F88630702384F844
:101E70008530012384F88D301FB0BDE8F08F012339
:101E80008DE710238BE7802389E710239FE74FF42A
:101E900080739CE7590701D55023A3E713F0780F0F
:101EA000A2D09EE69903DBD50123D7E75B07E0D5F7
:101EB000012384F886300523D9E700BFC4610008F8
:101EC00030B58BB000240546806803924FF00122A4
:101ED000059105A9CDE90624CDE9084402685269B7
:101EE0009047A8680121039B02680091214615696B
:101EF0002246A8470BB030BD13B504460DF10702CA
:101F000090F88510FFF7DCFF94F886309DF8070005
:101F10001BB100F0010002B010BDC043C0F3C010FF
:101F2000F9E7000030B54FF001238BB000240546DF
:101F300080688DF80F20059105A9CDE90634CDE91B
:101F4000084403685B699847A86801220DF10F01F6
:101F5000036800941D692346A8470BB030BD0000FC
:101F6000F7B517460DF1070206461D46FFF7A8FF15
:101F700068B19DF8074039469DF82020304624EA94
:101F800005042A4022438DF80720FFF7CBFF03B05A
:101F9000F0BD000030B54FF4807389B000240546D1
:101FA0008068039103A9CDE90434CDE906440368B0
:101FB0005B699847A86822462146036800941D691A
:101FC0002346A84709B030BD10B504462368204613
:101FD000DB6A98470028F9D110BD000010B590F8D1
:101FE000743004465BB1FFF7EFFF012394F87410DF
:101FF000204684F88E30BDE81040FFF7CBBF0120AB
:1020000010BD000010B590F87430044653B1FFF7CE
:10201000DBFF01232046042184F88E30BDE8104008
:10202000FFF7B8BF012010BD70B590F883308AB0BB
:102030000446042B48D10DF10E020521FFF740FFA5
:1020400000282FD00DF10F0235212046FFF738FF71
:1020500040B320461E4EFFF7C1FF2046FFF7B4FFF6
:1020600005AD0FCE0FC5336805A99DF80E202B6076
:102070009DF80F30A06843F002038DF810208DF812
:102080000F308DF8113003685B699847A068002312
:1020900004A90268009315690222A84728B92046BE
:1020A000FFF7B0FF00200AB070BD2046FFF7AAFF7F
:1020B0000DF10F0235212046FFF702FF0028F1D075
:1020C0009DF80F309B07EDD501202071EBE700BF95
:1020D000786000082DE9F341002304468068A3607E
:1020E00010B103685B6898470025244E244F56F8CA
:1020F000352001A839465FFA85F8FFF74FFB019BB1
:10210000A0680022A360019210B103685B68984741
:10211000019810B103685B689847A368DBB141F28E
:10212000883084F88C8001F0E1FC2046FFF7E2FC67
:102130001E2001F0DBFC2046FFF70AFD054680B9B2
:1021400094F88C300F4856F83310FFF781F9284681
:1021500002B0BDE8F0810135032DC8D10A48FFF770
:102160004DFC2046FFF760FF94F88C30054656F88A
:10217000331008B90548E8E70548E6E76462000857
:10218000D4240020CC61000842620008F6610008F7
:10219000206200082DE9F041044688B00F4616463B
:1021A000FFF71CFF2046FFF70FFF0025C722A0689E
:1021B0004FF48073079503A9CDE90323CDE90555B5
:1021C00003685B699847A0682A462946036800951A
:1021D000D3F810802B46C047054630B92046FFF79C
:1021E00011FF284608B0BDE8F081E36E3B60236F25
:1021F0003360F3E72DE9F041002588B01F4604461F
:102200000E460E9B00F1400CA8463D60016B81B16B
:10221000A9420ED391420CD8B6FBF1FE01FB1E6120
:1022200039B9416B90F82C800F9D1960816B296042
:10223000154610306045E9D16DB3AB196269934220
:1022400029D82046FFF7CAFE2046FFF7BDFE4FF40F
:102250001453A06803A9CDF80C80CDE904360026FC
:10226000CDE9066603685B699847A0683246314647
:1022700003680096D3F810803346C04706462046D0
:102280002EB9FFF7BFFE304608B0BDE8F081FFF77A
:10229000B9FE3D60F7E70026F5E700002DE9F041C3
:1022A0008669054688B00F46B3429046B1FBF6FCFE
:1022B00006FB1C1C28BF3346A6EB0C0C00269C45D5
:1022C000644628BF1C46FFF789FE2846FFF77CFEC0
:1022D0000222A86803A9164B0597CDE90323CDE98F
:1022E000066603685B699847A8682246414603680A
:1022F00000961F693346B847064628462EB9FFF7B1
:1023000081FE304608B0BDE8F081FFF77BFE0E9BF2
:102310001C60AB6FAA696343B3FBF2F30F9A1360BF
:10232000EA6F109B5443AA69B4FBF2F41C60E8E71F
:10233000002500012DE9F04FCE18436989B004460D
:102340009E420F46904634D83D464FF00009DFF8D4
:1023500070A0FFF739FEAE422FD9A6EB050B94F81B
:10236000803094F8882003A9BBF5806F039394F81C
:10237000813028BF4FF4806B012AA06808BF03F1A9
:10238000FF33CDF810A0CDE90559079303685B69C9
:102390009847A068A8EB07030268CDF800B02B446B
:1023A000D2F810B000221146D84718B105F5806563
:1023B000D1E7002009B0BDE8F08F0120FAE700BFA7
:1023C00000ED0003F0B5044689B00E46FFF7FCFDB2
:1023D00094F887502DB194F889302BB1012B1AD085
:1023E0000025284609B0F0BD94F880200392A5226C
:1023F0000692184ACDE9042394F88130A06803A915
:10240000079303685B699847A068314603689B6936
:1024100098470546E5E720460027FFF7DFFD204601
:10242000FFF7D2FD08238122852120460097FFF780
:1024300097FD054618B92046FFF7E4FDD1E794F86B
:10244000803006970393044BCDE9043794F881302C
:10245000013BD3E700ED000300ED0013014B024AFE
:102460001A607047D4240020B86100080368002176
:102470001B68184703790BB1002202711846704798
:1024800003685B681847000003791BB901230371D7
:1024900018467047002070477047000010B504468A
:1024A00003F058FD204610BD30B50A44084D914256
:1024B0000DD011F8013B5840082340F30004013BC4
:1024C0002C4013F0FF0384EA5000F6D1EFE730BD53
:1024D0002083B8ED38B5836904460D465B695A011F
:1024E00018D543681B682BB10522027098472378E2
:1024F000052B01D102232370202383F311880021AF
:1025000004F1080001F00CFB002383F31188E0695B
:1025100002F02CFAEB0704D50248BDE8384001F080
:1025200075BA38BDE462000810B5044C204600F0CE
:10253000FBFF034A0023C4E9062310BDDC2400206E
:102540000050005210B503780446012B17D1104BF0
:10255000984214D102460F49102002F0D3F90E4BD5
:10256000E061D3F8D42042F48042C3F8D420D3F8F9
:10257000FC2042F48042C3F8FC20D3F8FC306268AF
:10258000A36992685A60054A1A601B22DA6010BD7E
:10259000DC240020D5240008004402581500020164
:1025A00083691B2210B5DA60D1E9002012F44C4493
:1025B00006D192011C61D86102F440425A6110BDFB
:1025C0000024104312F4406F1C61CC68DC61586138
:1025D00001D08A689A619A689206FCD4EFE70000FD
:1025E00030B584691B25C069E5600068836104F12A
:1025F0002003C36102234261013A03614623C360A1
:1026000016238362CB682261E361D1E9002313437F
:1026100012F4406F636101D08B68A361C36843F01B
:102620000103C36030BD000030B5D0E9064000684A
:1026300004F120058561C36108234261013A036109
:1026400046230D69C36016238362CB682261E36170
:10265000D1E90023134312F4406F43EA854343F06A
:102660008063636101D08B68A361C36843F0010399
:10267000C36030BD8069036823F0040310B50360B4
:1026800000230361C3618361D1E9004309692343E6
:1026900043EA814343F04063436112B14FF010437A
:1026A000136010BD83691A6842F002021A601A684A
:1026B0009207FCD41A6842F004021A6070470000C6
:1026C00083691B2210B5DA6004465B695B011AD48A
:1026D00043681B682BB10522027098472378052BAD
:1026E00001D102232370202383F31188002104F1F8
:1026F000080001F015FA002383F31188E069BDE8B2
:10270000104002F033B910BD026843681143016004
:1027100003B1184770470000024A136843F0C00332
:10272000136070470010014013B50E4C204600F0B6
:102730008BFA04F1140000234FF400720A4900944C
:1027400000F04CF9094B4FF40072094904F13800CC
:10275000009400F0C5F9074A074BC4E9172302B0FB
:1027600010BD00BFFC2400206825002019270008A8
:10277000682700200010014000E1F505037C30B51A
:10278000244C002918BF0C46012B11D1224B984232
:102790000ED1224BD3F8F02042F01002C3F8F02003
:1027A000D3F8182142F01002C3F81821D3F81831D9
:1027B0002268036EC16D03EB52038466B3FBF2F330
:1027C0006268150442BF23F0070503F0070343EADC
:1027D0004503CB60A36843F040034B60E36843F0DC
:1027E00001038B6042F4967343F001030B604FF0DA
:1027F000FF330B62510505D512F0102205D0B2F15E
:10280000805F04D080F8643030BD7F23FAE73F2337
:10281000F8E700BFF4620008FC24002000440258DE
:102820002DE9F047C66D05463768F4692107346223
:1028300019D014F0080118BF8021E20748BF41F009
:102840002001A3074FF0200348BF41F0400160077B
:1028500048BF41F4807183F31188281DFFF754FFAE
:10286000002383F31188E2050AD5202383F311881E
:102870004FF40071281DFFF747FF002383F31188F1
:102880004FF020094FF0000A14F0200838D13B0621
:1028900016D54FF0200905F1380A200610D589F326
:1028A0001188504600F050F9002836DA0821281D1A
:1028B000FFF72AFF27F080033360002383F311889A
:1028C000790614D5620612D5202383F31188D5E941
:1028D00013239A4208D12B6C33B127F04007102103
:1028E000281DFFF711FF3760002383F31188E306EB
:1028F00018D5AA6E1369ABB15069BDE8F047184707
:1029000089F31188736A284695F86410194000F01D
:10291000B5F98AF31188F469B6E7B06288F31188D3
:10292000F469BAE7BDE8F087F8B515468268044651
:102930000B46AA4200D28568A1692669761AB5427B
:102940000BD218462A46FEF787FDA3692B44A361E4
:102950002846A3685B1BA360F8BD0CD9AF1B1846C3
:102960003246FEF779FD3A46E1683044FEF774FDE1
:10297000E3683B44EBE718462A46FEF76DFDE36843
:10298000E5E7000083689342F7B50446154600D298
:102990008568D4E90460361AB5420BD22A46FEF7A0
:1029A0005BFD63692B4463612846A3685B1BA360DE
:1029B00003B0F0BD0DD93246AF1B0191FEF74CFDBF
:1029C00001993A46E0683144FEF746FDE3683B442E
:1029D000E9E72A46FEF740FDE368E4E710B50A445C
:1029E0000024C361029B8460C16002610362C0E98C
:1029F0000000C0E9051110BD08B5D0E905329342C9
:102A000001D1826882B98268013282605A1C4261B7
:102A100019700021D0E904329A4224BFC36843618F
:102A200001F098F8002008BD4FF0FF30FBE70000F0
:102A300070B5202304460E4683F31188A568A5B11E
:102A4000A368A269013BA360531CA36115782269A6
:102A5000934224BFE368A361E3690BB12046984722
:102A6000002383F31188284607E03146204601F011
:102A700061F80028E2DA85F3118870BD2DE9F74F7F
:102A800004460E4617469846D0F81C904FF0200A90
:102A90008AF311884FF0000B154665B12A4631467E
:102AA0002046FFF741FF034660B94146204601F04A
:102AB00041F80028F1D0002383F31188781B03B07C
:102AC000BDE8F08FB9F1000F03D001902046C84750
:102AD000019B8BF31188ED1A1E448AF31188DCE701
:102AE000C160C361009B82600362C0E905111144AB
:102AF000C0E9000001617047F8B504460D4616466E
:102B0000202383F31188A768A7B1A368013BA360C2
:102B100063695A1C62611D70D4E904329A4224BF71
:102B2000E3686361E3690BB120469847002080F3B6
:102B3000118807E03146204600F0FCFF0028E2DA69
:102B400087F31188F8BD0000D0E9052310B59A423B
:102B500001D182687AB982680021013282605A1CF0
:102B600082611C7803699A4224BFC368836100F0C4
:102B7000F1FF204610BD4FF0FF30FBE72DE9F74F86
:102B800004460E4617469846D0F81C904FF0200A8F
:102B90008AF311884FF0000B154665B12A4631467D
:102BA0002046FFF7EFFE034660B94146204600F09D
:102BB000C1FF0028F1D0002383F31188781B03B0F4
:102BC000BDE8F08FB9F1000F03D001902046C8474F
:102BD000019B8BF31188ED1A1E448AF31188DCE700
:102BE000026843681143016003B118477047000051
:102BF0001430FFF743BF00004FF0FF331430FFF7EE
:102C00003DBF00003830FFF7B9BF00004FF0FF3381
:102C10003830FFF7B3BF00001430FFF709BF0000E2
:102C20004FF0FF311430FFF703BF00003830FFF7DB
:102C300063BF00004FF0FF323830FFF75DBF000088
:102C400000207047FFF770BD044B03600023436012
:102C5000C0E9023301230374704700BF0C6300080E
:102C600010B52023044683F31188FFF787FD022364
:102C70002374002383F3118810BD000038B5C369A5
:102C800004460D461BB904210844FFF7A9FF294655
:102C900004F11400FFF7B0FE002806DA201D4FF4FF
:102CA0008061BDE83840FFF79BBF38BD02684368CC
:102CB0001143016003B118477047000013B5406B22
:102CC00000F58054D4F8A4381A681178042914D176
:102CD000017C022911D11979012312898B401342F9
:102CE0000BD101A94C3002F08DFCD4F8A448024667
:102CF000019B2179206800F0DFF902B010BD0000CF
:102D0000143002F00FBC00004FF0FF33143002F01B
:102D100009BC00004C3002F0E1BC00004FF0FF3372
:102D20004C3002F0DBBC0000143002F0DDBB0000D0
:102D30004FF0FF31143002F0D7BB00004C3002F0EE
:102D4000ADBC00004FF0FF324C3002F0A7BC0000D9
:102D50000020704710B500F58054D4F8A4381A68E4
:102D60001178042917D1017C022914D15979012342
:102D700052898B4013420ED1143002F06FFB024691
:102D800048B1D4F8A4484FF4407361792068BDE895
:102D9000104000F07FB910BD406BFFF7DBBF0000B3
:102DA000704700007FB5124B0125042604460360DE
:102DB0000023057400F1840243602946C0E9023310
:102DC0000C4B0290143001934FF44073009602F0C4
:102DD00021FB094B04F69442294604F14C0002946D
:102DE000CDE900634FF4407302F0E8FB04B070BD1E
:102DF00034630008992D0008BD2C00080A682023C0
:102E000083F311880B790B3342F823004B7913338A
:102E100042F823008B7913B10B3342F8230000F5FD
:102E20008053C3F8A41802230374002383F311888A
:102E30007047000038B5037F044613B190F8543052
:102E4000ABB90125201D0221FFF730FF04F114006A
:102E50006FF00101257700F089FE04F14C0084F841
:102E600054506FF00101BDE8384000F07FBE38BD1E
:102E700010B5012104460430FFF718FF0023237723
:102E800084F8543010BD000038B5044600251430D5
:102E900002F0D8FA04F14C00257702F0A7FB201DC0
:102EA00084F854500121FFF701FF2046BDE8384067
:102EB000FFF750BF90F8803003F06003202B06D15D
:102EC00090F881200023212A03D81F2A06D8002049
:102ED0007047222AFBD1C0E91D3303E0034A426751
:102EE00007228267C3670120704700BF2C220020A1
:102EF00037B500F58055D5F8A4381A68117804293B
:102F00001AD1017C022917D11979012312898B402A
:102F1000134211D100F14C04204602F027FC58B1B5
:102F200001A9204602F06EFBD5F8A4480246019B99
:102F30002179206800F0C0F803B030BD01F10B0327
:102F4000F0B550F8236085B004460D46FEB120234D
:102F500083F3118804EB8507301D0821FFF7A6FED7
:102F6000FB6806F14C005B691B681BB1019002F025
:102F700057FB019803A902F045FB024648B1039BA9
:102F80002946204600F098F8002383F3118805B005
:102F9000F0BDFB685A691268002AF5D01B8A013B14
:102FA0001340F1D104F18002EAE70000133138B593
:102FB00050F82140ECB1202383F3118804F58053AD
:102FC000D3F8A4281368527903EB8203DB689B696A
:102FD0005D6845B104216018FFF768FE294604F1D9
:102FE000140002F045FA2046FFF7B4FE002383F3F5
:102FF000118838BD7047000001F038BD0123402220
:10300000002110B5044600F8303BFEF757FA0023C4
:10301000C4E9013310BD000010B52023044683F33A
:1030200011882422416000210C30FEF747FA204627
:1030300001F03EFD02232370002383F3118810BDAD
:1030400070B500EB8103054650690E461446DA6000
:1030500018B110220021FEF731FAA06918B1102230
:103060000021FEF72BFA31462846BDE8704001F0FA
:1030700031BE000083682022002103F0011310B547
:10308000044683601030FEF719FA2046BDE8104070
:1030900001F0ACBEF0B4012500EB810447898D40FE
:1030A000E4683D43A469458123600023A260636016
:1030B000F0BC01F0C9BE0000F0B4012500EB8104B2
:1030C00007898D40E4683D436469058123600023DE
:1030D000A2606360F0BC01F03FBF000070B5022346
:1030E00000250446242203702946C0F888500C307D
:1030F00040F8045CFEF7E2F9204684F8705001F0D5
:103100007DFD63681B6823B129462046BDE87040F9
:10311000184770BD037880F88C300523037043682E
:103120001B6810B504460BB1042198470023A36027
:1031300010BD000090F88C20436802701B680BB132
:10314000052118477047000070B590F870300446AC
:1031500013B1002380F8703004F18002204601F0A2
:1031600069FE63689B68B3B994F8803013F060051A
:1031700035D00021204602F013F90021204602F04C
:1031800003F963681B6813B106212046984706239C
:1031900084F8703070BD204698470028E4D0B4F819
:1031A0008630A26F9A4288BFA36794F98030A56FDA
:1031B000002B4FF0200380F20381002D00F0F280FD
:1031C000092284F8702083F3118800212046D4E975
:1031D0001D23FFF771FF002383F31188DAE794F8CA
:1031E000812003F07F0343EA022340F2023293423C
:1031F00000F0C58021D8B3F5807F48D00DD8012BD1
:103200003FD0022B00F09380002BB2D104F1880252
:1032100062670222A267E367C1E7B3F5817F00F02E
:103220009B80B3F5407FA4D194F88230012BA0D1CC
:10323000B4F8883043F0020332E0B3F5006F4DD0AC
:1032400017D8B3F5A06F31D0A3F5C063012B90D888
:103250006368204694F882205E6894F88310B4F87E
:103260008430B047002884D0436863670368A3674D
:103270001AE0B3F5106F36D040F6024293427FF465
:1032800078AF5C4B63670223A3670023C3E794F81E
:103290008230012B7FF46DAFB4F8883023F0020345
:1032A000A4F88830C4E91D55E56778E7B4F88030A4
:1032B000B3F5A06F0ED194F88230204684F88A309E
:1032C00001F0FAFC63681B6813B10121204698479E
:1032D000032323700023C4E91D339CE704F18B030F
:1032E00063670123C3E72378042B10D1202383F3E2
:1032F00011882046FFF7BEFE85F31188032163681D
:1033000084F88B5021701B680BB12046984794F8C5
:103310008230002BDED084F88B3004232370636866
:103320001B68002BD6D0022120469847D2E794F89C
:10333000843020461D0603F00F010AD501F06CFD14
:10334000012804D002287FF414AF2B4B9AE72B4BB3
:1033500098E701F053FDF3E794F88230002B7FF4F7
:1033600008AF94F8843013F00F01B3D01A0620464A
:1033700002D502F02DF8ADE702F01EF8AAE794F8A6
:103380008230002B7FF4F5AE94F8843013F00F01F7
:10339000A0D01B06204602D502F002F89AE701F001
:1033A000F3FF97E7142284F8702083F311882B46EB
:1033B0002A4629462046FFF76DFE85F31188E9E687
:1033C0005DB1152284F8702083F311880021204616
:1033D000D4E91D23FFF75EFEFDE60B2284F8702082
:1033E00083F311882B462A4629462046FFF764FEC0
:1033F000E3E700BF646300085C63000860630008E3
:1034000038B590F870300446002B3ED0063BDAB257
:103410000F2A34D80F2B32D8DFE803F037313108C8
:10342000223231313131313131313737856FB0F8B6
:1034300086309D4214D2C3681B8AB5FBF3F203FBAE
:1034400012556DB9202383F311882B462A4629464D
:10345000FFF732FE85F311880A2384F870300EE0FE
:10346000142384F87030202383F31188002320462E
:103470001A461946FFF70EFE002383F3118838BD64
:10348000C36F03B198470023E7E70021204601F00E
:1034900087FF0021204601F077FF63681B6813B1A6
:1034A0000621204698470623D7E7000010B590F87C
:1034B00070300446142B29D017D8062B05D001D81C
:1034C0001BB110BD093B022BFBD80021204601F0A7
:1034D00067FF0021204601F057FF63681B6813B1A6
:1034E000062120469847062319E0152BE9D10B2326
:1034F00080F87030202383F3118800231A46194680
:10350000FFF7DAFD002383F31188DAE7C3689B69CC
:103510005B68002BD5D1C36F03B19847002384F8B3
:103520007030CEE7FFF700B8012100230170C0E939
:1035300001330C3000F008BA10B52023044683F3A1
:1035400011884160FEF7FEFF02232370002383F3FE
:10355000118810BD10B52023044683F3118803237E
:1035600004F8083BFFF71CF84FF0FF31204600F04D
:10357000C9FA002383F31188C01A18BF012010BDB7
:1035800038B50446202585F31188032504F8085B27
:10359000FFF726F84FF0FF31204600F0B3FA002382
:1035A00083F31188C01A18BF012038BD38B504460E
:1035B000202585F31188042504F8085BFFF734F80B
:1035C0004FF0FF31204600F09DFA002383F311886D
:1035D000C01A18BF012038BD10B52023044683F35C
:1035E0001188FFF747F806232370002383F311881F
:1035F00010BD000010B52023044683F31188FFF7A7
:1036000051F802232370002383F3118810BD0000BA
:103610000C3000F0B5B900000C3000F0BBB9000070
:1036200004480121044B03600023C0E901330C303E
:1036300000F08AB96829002021580008CB1D083AFB
:1036400023F00703591A521A012110B4D20800249A
:10365000C0E9004384600C301C605A605DF8044B84
:1036600000F072B92DE9F84F364ECD1D0F460028F7
:1036700018BF0646082A4FEAD50538BF082206F1CA
:103680000C08341D9146404600F07AF909F1070113
:10369000C9F1000E224624686CB9404600F07AF960
:1036A0003368CBB308224946E8009847044698B3EC
:1036B00040E9026730E004EB010CD4F804A00CEA06
:1036C0000E0C0AF10100ACF1080304EBC0009842B3
:1036D000E0D9A0EB0C0CB5EBEC0F4FEAEC0BD9D812
:1036E0009C421CD204F10802AB45A3EB02024FEA54
:1036F000E202626009D9691CED43206803EBC10254
:103700005D44556043F8310022601C465F604046CE
:1037100044F8086B00F03EF92046BDE8F88FAA4552
:10372000216802D111602346EFE7013504EBC503A0
:1037300044F8351003F10801401AC01058601360B6
:10374000F1E700BF68290020F8B550F8043C0446B2
:1037500050F8085CA0F1080607332F1D0C35DB0874
:1037600040F8043C284600F00BF93B46BB421A687F
:1037700001D09E4228D90AB1964225D244F8082C9D
:1037800054F8042C1E60013254F8081C06EBC200E9
:10379000814206D14868024444F8042C0A6844F87F
:1037A000082C5868411C03EBC1018E4207D154F824
:1037B000042C013202445A6054F8082C1A6028463E
:1037C000BDE8F84000F0E6B81346CFE7024B002210
:1037D000C3E900339A607047802900200023826883
:1037E0000374054B1B6899689142FBD25A680360C9
:1037F00042601060586070478029002008B520237F
:1038000083F31188027C0023052A06D8DFE802F042
:103810000B050503120E426913604FF0FF3343613D
:10382000FFF7DCFF002383F3118808BD426993682A
:1038300001339360D0E9003213605A60EDE7000075
:10384000002382680374054B1B6899689142FBD87A
:103850005A680360426010605860704780290020F9
:10386000054B196908741868026853601A6018617A
:1038700001230374FCF734BF802900204B1C30B5B2
:10388000044687B00A4D10D02B6901A8094A00F000
:1038900089F92046FFF7E4FF049B13B101A800F06B
:1038A000BDF92B69586907B030BDFFF7D9FFF8E7BC
:1038B00080290020FD37000838B50C4D04464161D1
:1038C0002B6981689A68914203D8BDE83840FFF7B8
:1038D00085BF1846FFF7B4FF01232C61014623740E
:1038E0002046BDE83840FCF7FBBE00BF8029002021
:1038F000044B1A681B6990689B68984294BF00202B
:10390000012070478029002010B5084C23682069E9
:103910001A6854602260012223611A74FFF790FF35
:1039200001462069BDE81040FCF7DABE802900207E
:1039300008B5FFF7DDFF18B1BDE80840FFF7E4BFA9
:1039400008BD0000FFF7E0BFC0E9000081607047DC
:103950008368013B002B10B583600DDA074C426889
:103960002369586118605A60136043600520FFF7AF
:1039700077FF2369586910BD0020FCE780290020EB
:1039800008B5202383F31188FFF7E2FF002383F3B8
:10399000118808BD08B5202383F31188836801339B
:1039A000002B836007DC036800211A680260506006
:1039B0001846FFF781FF002383F3118808BD00003C
:1039C000FEE7000010B50E4CFFF700FF00F0DCF83A
:1039D00001F008FFFFF724FE80220A49204600F08C
:1039E00047F8012344F8180C037400F043FE002349
:1039F00083F3118862B60448BDE8104000F058B85F
:103A0000A8290020686300087863000808B572B62A
:103A1000034B586200F0B0FC00F07EFDFEE700BFF3
:103A20008029002000F034B9EFF3118020B9EFF3C2
:103A30000583202282F311887047000010B530B949
:103A4000EFF30584C4F3080414B180F3118810BDAA
:103A5000FFF76EFF84F31188F9E70000034A51680D
:103A600053685B1A9842FBD8704700BF001000E013
:103A700082600222028270478368A3F17C0243F8CD
:103A80000C2C026943F83C2C426943F8382C074A55
:103A900043F81C2CC268A3F1180043F8102C022232
:103AA00003F8082C002203F8072C7047F9060008D9
:103AB00010B5202383F31188FFF7DEFF00210446B1
:103AC000FFF7FAFE002383F31188204610BD0000A3
:103AD000024B1B6958610F20FFF7C2BE80290020EE
:103AE000202383F31188FFF7F3BF000008B50146D8
:103AF000202383F311880820FFF7C0FE002383F3FF
:103B0000118808BD054B1B6921B103605861032072
:103B1000FFF7B4BE4FF0FF30704700BF8029002090
:103B200003682BB10022026018465961FFF756BEA8
:103B30007047000049B1064B42681B6918605A6023
:103B4000136043600420FFF799BE4FF0FF307047C9
:103B5000802900200368984206D01A6802605060ED
:103B600018465961FFF73ABE7047000038B5044661
:103B70000D462068844200D138BD036823605C6034
:103B80004561FFF72BFEF4E7054B4FF0FF3103F1E2
:103B90001402C3E905220022C3E90712704700BFDF
:103BA0008029002070B51C4E05460C46C0E9032351
:103BB00001F012FE334653F8142F9A420DD13062B1
:103BC0000A2C2CBF00190A302A60C5E90124C6E975
:103BD0000555BDE8704001F0E9BD316A431AE318AC
:103BE00038BF1C469368A34202D9081901F0EEFDC4
:103BF00073699A6894420CD85A68AC602B606A600A
:103C000015609A685D60121B9A604FF0FF33F36194
:103C100070BDA41A1B68ECE78029002038B51B4C46
:103C2000636998420DD08168D0E9003213605A6010
:103C30000022C2609A680A449A604FF0FF33E36141
:103C400038BD03682246002142F8143F93425A606F
:103C5000C16003D1BDE8384001F0B2BD9A68816807
:103C6000256A0A449A6001F0B7FD6369411B9A68AE
:103C70008A42E5D9AB181D1A206A092D98BF01F1B7
:103C80000A02BDE83840104401F0A0BD80290020A0
:103C90002DE9F041184C002704F11406656901F084
:103CA0009BFD236AAA68C11A8A4215D81344D5F825
:103CB0000C802362D5E9003213605A606369EF60BB
:103CC000B34201D101F07CFD87F311882869C04718
:103CD000202383F31188E1E76169B14209D01344DD
:103CE0001B1ABDE8F0410A2B2CBFC0180A3001F0A6
:103CF0006DBDBDE8F08100BF802900200020704725
:103D0000FEE70000704700004FF0FF3070470000F2
:103D100002290CD0032904D00129074818BF00202C
:103D20007047032A05D8054800EBC20070470448D5
:103D300070470020704700BF5C6400083C220020F0
:103D40001064000870B59AB005460846144601A9EB
:103D500000F0C2F801A8FDF7A9FB431C0022C6B27F
:103D60005B001046C5E9003423700323023404F8D5
:103D7000013C01ABD1B202348E4201D81AB070BD01
:103D800013F8011B013204F8010C04F8021CF1E7DE
:103D900008B5202383F311880348FFF7A9F800230F
:103DA00083F3118808BD00BF382B002090F88030C5
:103DB00003F01F02012A07D190F881200B2A03D1BA
:103DC0000023C0E91D3315E003F06003202B08D168
:103DD000B0F884302BB990F88120212A03D81F2A0B
:103DE00004D8FFF767B8222AEBD0FAE7034A426704
:103DF00007228267C3670120704700BF332200207B
:103E000007B5052917D8DFE801F01916031919209D
:103E1000202383F31188104A01210190FFF710F944
:103E2000019802210D4AFFF70BF90D48FFF72CF816
:103E3000002383F3118803B05DF804FB202383F390
:103E400011880748FEF7F6FFF2E7202383F3118875
:103E50000348FFF70DF8EBE7B0630008D4630008F0
:103E6000382B002038B50C4D0C4C2A460C4904F177
:103E70000800FFF767FF05F1CA0204F110000949C5
:103E8000FFF760FF05F5CA7204F118000649BDE8A6
:103E90003840FFF757BF00BF104400203C220020ED
:103EA000906300089A630008A563000870B5044693
:103EB00008460D46FDF7FAFAC6B2204601340378EB
:103EC0000BB9184670BD32462946FDF7CFFA0028D7
:103ED000F3D10120F6E700002DE9F84F05460C4626
:103EE000FDF7E4FA2C49C6B22846FFF7DFFF08B118
:103EF0000336F6B229492846FFF7D8FF08B1103635
:103F0000F6B2632E0DD8DFF89080DFF89090244F42
:103F1000DFF894A0DFF894B02E7846B92670BDE89B
:103F2000F88F29462046BDE8F84F02F09BB8252EB1
:103F30002ED1072241462846FDF798FA70B9DBF8E2
:103F4000003007350A3444F80A3CDBF8043044F802
:103F5000063CBBF8083024F8023CDDE7082249465D
:103F60002846FDF783FA98B9A21C0E4B1978023245
:103F70000909C95D02F8041C13F8011B01F00F01C7
:103F80005345C95D02F8031CF0D118340835C3E766
:103F9000013504F8016BBFE77C640008A5630008E5
:103FA0008F64000800E8F11F0CE8F11F846400082A
:103FB000BFF34F8F044B1A695107FCD1D3F810217E
:103FC0005207F8D1704700BF0020005208B50D4BD2
:103FD0001B78ABB9FFF7ECFF0B4BDA68D10704D5C0
:103FE0000A4A5A6002F188325A60D3F80C21D2078B
:103FF00006D5064AC3F8042102F18832C3F8042129
:1040000008BD00BF6E460020002000522301674516
:104010004FF00063054A1968013104D1043393421B
:10402000F9D1012070470020704700BF000002084E
:1040300008B5114B1B78F3B9104B1A69510703D51A
:10404000DA6842F04002DA60D3F81021520705D551
:10405000D3F80C2142F04002C3F80C21FFF7A8FF6F
:10406000064BDA6842F00102DA60D3F80C2142F024
:104070000102C3F80C2108BD6E460020002000524A
:104080004FF40030704700000120704708B9FFF777
:10409000BFBF00207047000008B518BB1248FFF7EB
:1040A00087FFFFF793FF4FF0FF334361C0F81431F0
:1040B0000361FFF77DFF2423C360C36843F08003DF
:1040C000C36003695B07FCD4FFF772FF4FF0006029
:1040D0004FF4003100F0FCF9FFF7AAFFBDE80840FB
:1040E000FFF796BF002008BD002000522DE9F84FD1
:1040F00005460C46104645EA0203DB065DD122F078
:1041000003022B462A44934209D120F01F00DFF816
:10411000BCB0DFF8BCA0FFF759FF271844E01968CE
:1041200001314AD10433EEE705F1784324492548AB
:10413000B3F5801F244B38BF184603F1F80339BF8D
:104140008846D9469846D146FFF732FF4FF0FF33F5
:10415000A5EB040C04F11C010360D8F8003043F017
:104160000203C8F80030231FD9F8006016F00506D6
:10417000FAD153F8042F99424CF80320F4D1BFF33D
:104180004F8FFFF715FF4FF0FF33202221460360CA
:104190002846D8F8003023F00203C8F8003001F0B8
:1041A0000DFF40B920352034BC42BDD10120FFF7BE
:1041B0003FFFBDE8F88F3046F9E70020F9E700BF80
:1041C0000C200052142100521420005210200052E2
:1041D0001021005210B5084C237828B11BB9FFF705
:1041E000F5FE0123237010BD002BFCD02070BDE82C
:1041F0001040FFF71DBF00BF6E4600202DE9F74FAE
:104200000E460546002864D011F0050763D139B980
:10421000082229463046FFF725FA0446002848D1EF
:1042200008224FF00109DFF8C08006F00403DFF830
:10423000BCA006EA090BBBF1000F27D0D8F8141078
:10424000C80723D409F1010908F10C08B9F1060FD8
:10425000F1D18FB9224E2946F0190092FFF702FAE8
:10426000044630BB1837009A782FF4D12946FFF75F
:10427000F9F90446E8B9009A29461A48FFF7F2F915
:10428000044608BB204603B0BDE8F08FABB1D8F8B8
:10429000141011F0040FD5D01820294600FB09A0F6
:1042A000CDE90023FFF7DEF90446DDE9002300280D
:1042B000C8D02A460021204608E0B107ECD5D8F83E
:1042C000141011F0020FE6E72A460021FDF7F6F878
:1042D000D8E70446D6E71F35202225F01F05A0E7C2
:1042E000A046002070460020A064000888460020F8
:1042F0000021FFF783BF00000121FFF77FBF00000F
:10430000F8B5144D01241827134E40F2FF32002156
:104310000120FDF7D3F807FB046001342A6955F842
:104320000C1FFFF78BF9062CF5D137254FF4C0543D
:104330002046FFF7E1FF014628B122460748BDE8C5
:10434000F840FFF77BB9C4EBC404013D4FEAD40445
:10435000EED1F8BDA0640008884600207046002019
:104360000421FFF74BBF00004843FFF7C1BF000027
:1043700008B1FFF7E9B9704738B5054D002403349B
:10438000696855F80C0B00F0B5F8122CF7D138BD60
:10439000A064000870B5104E82B0FFF745FB0546DB
:1043A00001F01AFA326803469042336037BF0B4A75
:1043B0000A495168146836BF0131D1E900415160A2
:1043C0000419284641F100010191FFF737FB20460F
:1043D000019902B070BD00BF18470020204700209F
:1043E00070B5124E82B0FFF71FFB054601F0F4F9DD
:1043F000326803469042336037BF0D4A0C4951681A
:10440000146836BF0131D1E90041516004192846D2
:1044100041F100010191FFF711FB4FF47A72002383
:1044200020460199FBF744FF02B070BD18470020F9
:10443000204700200244074BD2B210B5904200D171
:1044400010BD441C00B253F8200041F8040BE0B248
:10445000F4E700BF504000580E4B30B51C6F2404E9
:1044600005D41C6F1C671C6F44F400441C670A4C85
:1044700002442368D2B243F480732360074B904216
:1044800000D130BD441C51F8045B00B243F8205009
:10449000E0B2F4E700440258004802585040005887
:1044A00007B5012201A90020FFF7C4FF019803B05E
:1044B0005DF804FB13B50446FFF7F2FFA04205D0F8
:1044C000012201A900200194FFF7C6FF02B010BD30
:1044D0000144BFF34F8F064B884204D3BFF34F8F85
:1044E000BFF36F8F7047C3F85C022030F4E700BF62
:1044F00000ED00E00144BFF34F8F064B884204D328
:10450000BFF34F8FBFF36F8F7047C3F87002203037
:10451000F4E700BF00ED00E07047000070B505460D
:1045200016460C4601201021FFF71EFF2860467337
:104530003CB1204636B1FFF713FF2B68186000B17D
:104540009C6070BDFFF7D8FEF7E7000070B50E461F
:104550001546044600B30B6843608368934210D24B
:1045600013B10068FFF704FF637B28462BB1FFF708
:10457000F7FE206020B9A06070BDFFF7BDFEF8E730
:10458000A560206805F11F01306021F01F01FFF7D1
:104590009FFF01202073EFE70120EDE710B50446EF
:1045A00040B10068884205D1606808B1FCF754FF4B
:1045B0000023237310BD000070B50E461546044657
:1045C00020B38368934210D213B10068FFF7D0FE86
:1045D000637B28462BB1FFF7C3FE206020B9A060A3
:1045E00070BDFFF789FEF8E7A560316819B12A466A
:1045F0002068FCF731FF206805F11F01306021F0D1
:104600001F01FFF777FF01202073E9E70120E7E7AB
:1046100020B103688B4204BF00230373704700007E
:1046200008B1002303737047034B1A681AB9034A91
:10463000D2F8D0241A607047284700200040025862
:1046400008B5FFF7F1FF024B1868C0F3806008BDA2
:1046500028470020EFF30983054968334A6B22F0AD
:1046600001024A6383F30988002383F311887047AA
:1046700000EF00E0202080F3118862B60D4B0E4A57
:10468000D96821F4E0610904090C0A430B49DA6096
:10469000D3F8FC2042F08072C3F8FC20084AC2F82C
:1046A000B01F116841F0010111601022DA7783F820
:1046B0002200704700ED00E00003FA0555CEACC5BE
:1046C000001000E0202310B583F311880E4B5B68C7
:1046D00013F4006314D0F1EE103AEFF309844FF0B5
:1046E0008073683CE361094BDB6B236684F30988C4
:1046F000FFF7FEF810B1064BA36110BD054BFBE7B9
:1047000083F31188F9E700BF00ED00E000EF00E05F
:104710000B0700080E07000870B5BFF34F8FBFF3FB
:104720006F8F1A4A0021C2F85012BFF34F8FBFF3A8
:104730006F8F536943F400335361BFF34F8FBFF35F
:104740006F8FC2F88410BFF34F8FD2F8803043F6DA
:10475000E074C3F3C900C3F34E335B0103EA0406FC
:10476000014646EA81750139C2F86052F9D2203B10
:1047700013F1200FF2D1BFF34F8F536943F480330D
:104780005361BFF34F8FBFF36F8F70BD00ED00E03B
:10479000FEE700000A4B0B480B4A90420BD30B4B31
:1047A000C11EDA1C121A22F003028B4238BF00220B
:1047B0000021FCF783BE53F8041B40F8041BECE710
:1047C00060670008D0490020D0490020D04900206F
:1047D0007047000003681968596043680BB180682E
:1047E000184770474FF0A44310B51C68E00702D586
:1047F0002848FFF7EFFFA10702D52748FFF7EAFF98
:10480000620702D52548FFF7E5FF230702D52448B4
:10481000FFF7E0FFE00602D52248FFF7DBFFA10625
:1048200002D52148FFF7D6FF620602D51F48FFF7E1
:10483000D1FF230602D51E48FFF7CCFFE00502D5C5
:104840001C48FFF7C7FFA10502D51B48FFF7C2FFB1
:10485000620502D51948FFF7BDFF230502D51848A8
:10486000FFF7B8FFE00402D51648FFF7B3FFA10435
:1048700002D51548FFF7AEFF620402D51348FFF7D3
:10488000A9FF230402D51248FFF7A4FFBDE810409A
:10489000FFF718BF304700203C4700204847002062
:1048A00054470020604700206C47002078470020D4
:1048B00084470020904700209C470020A847002004
:1048C000B4470020C0470020CC470020D847002034
:1048D000E447002030B5094B0021094C1020072582
:1048E000196054F8042B0138C3E90121D16003F1A8
:1048F0000C0311615560F4D130BD00BF2C4700207E
:10490000E86400080F28F0B50AD9102806D10F2353
:104910000020144C01272568984203D900201DE08F
:104920000346F6E707FA00F6354218D10C23354363
:1049300043432560181D2344C3E902120A4B204457
:10494000D3F8D42042F00102C3F8D420D3F8FC20DD
:1049500042F00102C3F8FC20D3F8FC30F0BD013076
:10496000DAE700BF2C470020004402580368D968EA
:10497000DA68C90722F03F02DA6002D51A689207A6
:10498000FCD507225A60704770B5D0E92443002255
:104990004FF0FF359E6804EB42135101D3F8000934
:1049A000002805DAD3F8000940F08040C3F8000978
:1049B000D3F8000B002805DAD3F8000B40F0804054
:1049C000C3F8000B013263189642C3F80859C3F8C4
:1049D000085BE0D24FF00113C4F81C3870BD000032
:1049E00000EB8103D3F80CC02DE9F043DCF8142070
:1049F0004E1CD0F89050D2F800E005EB063605EBDF
:104A00004118506870450AD30122D5F8343802FAAB
:104A100001F123EA0101C5F83418BDE8F083AEEBDB
:104A20000003BCF81040A34228BF2346D8F8184919
:104A3000A4B2B3EB840FF0D89468A4F1040959F838
:104A4000047F3760A4EB09071F44042FF7D81C44E8
:104A5000034494605360D4E7890141F0200101616F
:104A600003699B06FCD41220FEF7F8BF10B50A4C70
:104A70002046FEF7C3FA094BC4F89030084BC4F83F
:104A80009430084C2046FEF7B9FA074BC4F8903032
:104A9000064BC4F8943010BDF047002000000840D9
:104AA0004C6500088C480020000004405865000850
:104AB00070B503780546012B5DD1494BD0F8904085
:104AC000984259D1474B0E216520D3F8D82042F0A7
:104AD0000062C3F8D820D3F8002142F00062C3F886
:104AE0000021D3F80021D3F8802042F00062C3F8FF
:104AF0008020D3F8802022F00062C3F88020D3F811
:104B0000803000F071FC384BE360384BC4F800385B
:104B10000023D5F89060C4F8003EC02323604FF412
:104B20000413A3633369002BFCDA01230C203361E7
:104B3000FEF794FF3369DB07FCD41220FEF78EFFEB
:104B40003369002BFCDA00262846A660FFF71CFF1D
:104B50006B68C4F81068DB68C4F81468C4F81C6893
:104B6000002B3AD1224BA3614FF0FF336361A3685E
:104B700043F00103A36070BD1E4B9842C8D1194B8E
:104B80000E214D20D3F8D82042F00072C3F8D8206F
:104B9000D3F8002142F00072C3F80021D3F80021BD
:104BA000D3F8802042F00072C3F88020D3F8802030
:104BB00022F00072C3F88020D3F88020D3F8D820E8
:104BC00022F08062C3F8D820D3F8002122F080625E
:104BD000C3F80021D3F8003193E7074BC3E700BFC8
:104BE000F047002000440258401400400300200217
:104BF000003C30C08C480020083C30C0F8B5D0F8EC
:104C00009040054600214FF000662046FFF724FF44
:104C1000D5F8941000234FF001128F684FF0FF3049
:104C2000C4F83438C4F81C2804EB431201339F4203
:104C3000C2F80069C2F8006BC2F80809C2F8080B94
:104C4000F2D20B68D5F89020C5F898306362102333
:104C50001361166916F01006FBD11220FEF7FEFE56
:104C6000D4F8003823F4FE63C4F80038A36943F491
:104C7000402343F01003A3610923C4F81038C4F89B
:104C800014380B4BEB604FF0C043C4F8103B094B9A
:104C9000C4F8003BC4F81069C4F80039D5F898305E
:104CA00003F1100243F48013C5F89820A362F8BD05
:104CB0002865000840800010D0F8902090F88A10F5
:104CC000D2F8003823F4FE6343EA0113C2F8003837
:104CD000704700002DE9F84300EB8103D0F89050B5
:104CE0000C468046DA680FFA81F94801166806F02A
:104CF0000306731E022B05EB41134FF0000194BF16
:104D0000B604384EC3F8101B4FF0010104F1100334
:104D100098BF06F1805601FA03F3916998BF06F532
:104D2000004600293AD0578A04F158013743490117
:104D30006F50D5F81C180B430021C5F81C382B18F0
:104D40000127C3F81019A7405369611E9BB3138A4A
:104D5000928B9B08012A88BF5343D8F89820981853
:104D600042EA034301F140022146C8F89800284670
:104D700005EB82025360FFF76FFE08EB8900C36802
:104D80001B8A43EA845348341E4364012E51D5F8EC
:104D90001C381F43C5F81C78BDE8F88305EB49179C
:104DA000D7F8001B21F40041C7F8001BD5F81C18E8
:104DB00021EA0303C0E704F13F030B4A28462146DA
:104DC00005EB83035A60FFF747FE05EB4910D0F867
:104DD000003923F40043C0F80039D5F81C3823EA21
:104DE0000707D7E70080001000040002D0F89420E5
:104DF0001268C0F89820FFF7C7BD00005831D0F8FE
:104E0000903049015B5813F4004004D013F4001FA4
:104E10000CBF0220012070474831D0F89030490182
:104E20005B5813F4004004D013F4001F0CBF0220A1
:104E30000120704700EB8101CB68196A0B68136091
:104E40004B6853607047000000EB810330B5DD68AC
:104E5000AA691368D36019B9402B84BF402313603B
:104E60006B8A1468D0F890201C4402EB4110013C7E
:104E700009B2B4FBF3F46343033323F0030343EABF
:104E8000C44343F0C043C0F8103B2B6803F0030356
:104E9000012B0ED1D2F8083802EB411013F4807FB9
:104EA000D0F8003B14BF43F0805343F00053C0F8E8
:104EB000003B02EB4112D2F8003B43F00443C2F83E
:104EC000003B30BD2DE9F041D0F8906005460C461E
:104ED00006EB4113D3F8087B3A07C3F8087B08D5E3
:104EE000D6F814381B0704D500EB8103DB685B6838
:104EF0009847FA071FD5D6F81438DB071BD505EB02
:104F00008403D968CCB98B69488A5A68B2FBF0F639
:104F100000FB16228AB91868DA6890420DD2121A7C
:104F2000C3E90024202383F3118821462846FFF794
:104F30008BFF84F31188BDE8F081012303FA04F2AA
:104F40006B8923EA02036B81CB68002BF3D02146E7
:104F50002846BDE8F041184700EB81034A0170B5CF
:104F6000DD68D0F890306C692668E66056BB1A445C
:104F70004FF40020C2F810092A6802F00302012A47
:104F80000AB20ED1D3F8080803EB421410F4807F64
:104F9000D4F8000914BF40F0805040F00050C4F82D
:104FA000000903EB4212D2F8000940F00440C2F8B5
:104FB00000090122D3F8340802FA01F10143C3F8D1
:104FC000341870BD19B9402E84BF4020206020687D
:104FD0001A442E8A8419013CB4FBF6F440EAC4401A
:104FE00040F00050C6E700002DE9F041D0F8906095
:104FF00004460D4606EB4113D3F80879C3F8087947
:10500000FB071CD5D6F81038DA0718D500EB81035A
:10501000D3F80CC0DCF81430D3F800E0DA68964519
:105020001BD2A2EB0E024FF000081A60C3F80480F6
:10503000202383F31188FFF78FFF88F311883B0645
:1050400018D50123D6F83428AB40134212D0294694
:105050002046BDE8F041FFF7C3BC012303FA01F28B
:10506000038923EA02030381DCF80830002BE6D031
:105070009847E4E7BDE8F0812DE9F84FD0F890506B
:1050800004466E69AB691E4016F480586E6103D009
:10509000BDE8F84FFEF722B8002E12DAD5F8003E30
:1050A0009F0705D0D5F8003E23F00303C5F8003E66
:1050B000D5F80438204623F00103C5F80438FEF77C
:1050C00039F8300505D52046FFF75EFC2046FEF78F
:1050D00021F8B1040CD5D5F8083813F0060FEB68A9
:1050E00023F470530CBF43F4105343F4A053EB600C
:1050F000320704D56368DB680BB120469847F3029A
:1051000000F1BA80B70226D5D4F8909000274FF06E
:10511000010A09EB4712D2F8003B03F44023B3F530
:10512000802F11D1D2F8003B002B0DDA62890AFAE8
:1051300007F322EA0303638104EB8703DB68DB6880
:1051400013B13946204698470137D4F89430FFB25E
:105150009B689F42DDD9F00619D5D4F89000026A09
:10516000C2F30A1702F00F0302F4F012B2F5802F17
:1051700000F0CC80B2F5402F09D104EB830300226C
:1051800000F58050DB681B6A974240F0B280300324
:10519000D5F8185835D5E90303D500212046FFF787
:1051A00091FEAA0303D501212046FFF78BFE6B0376
:1051B00003D502212046FFF785FE2F0303D50321E7
:1051C0002046FFF77FFEE80203D504212046FFF7C3
:1051D00079FEA90203D505212046FFF773FE6A0276
:1051E00003D506212046FFF76DFE2B0203D50721CC
:1051F0002046FFF767FEEF0103D508212046FFF7A1
:1052000061FE700340F1A980E90703D50021204623
:10521000FFF7EAFEAA0703D501212046FFF7E4FEC7
:105220006B0703D502212046FFF7DEFE2F0703D5CB
:1052300003212046FFF7D8FEEE0603D504212046C1
:10524000FFF7D2FEA80603D505212046FFF7CCFEC6
:10525000690603D506212046FFF7C6FE2A0603D5B8
:1052600007212046FFF7C0FEEB0576D52046082132
:10527000BDE8F84FFFF7B8BED4F8909000274FF084
:10528000010AD4F894305FFA87FB9B689B453FF690
:1052900039AF09EB4B13D3F8002902F44022B2F5E1
:1052A000802F24D1D3F80029002A20DAD3F800294E
:1052B00042F09042C3F80029D3F80029002AFBDB12
:1052C0005946D4F89000FFF7C7FB22890AFA0BF37E
:1052D00022EA0303238104EB8B03DB689B6813B191
:1052E00059462046984759462046FFF779FB013733
:1052F000C7E7910701D1D0F80080072A02F1010227
:105300009CBF03F8018B4FEA18283DE704EB8303A9
:1053100000F58050DA68D2F818C0DCF80820DCE923
:10532000001CA1EB0C0C00218F4208D1DB689B69AB
:105330009A683A449A605A683A445A6027E711F0EA
:10534000030F01D1D0F800808C4501F1010184BF29
:1053500002F8018B4FEA1828E6E7BDE8F88F000055
:1053600008B50348FFF788FEBDE80840FFF7AAB973
:10537000F047002008B50348FFF77EFEBDE808406F
:10538000FFF7A0B98C480020D0F8903003EB411112
:10539000D1F8003B43F40013C1F8003B7047000014
:1053A000D0F8903003EB4111D1F8003943F40013E9
:1053B000C1F8003970470000D0F8903003EB41117C
:1053C000D1F8003B23F40013C1F8003B7047000004
:1053D000D0F8903003EB4111D1F8003923F40013D9
:1053E000C1F8003970470000090100F16043012253
:1053F00003F56143C9B283F8001300F01F039A401C
:1054000043099B0003F1604303F56143C3F8802126
:105410001A60704730B50433039C0172002104FB0D
:105420000325C160C0E90653049B0363059BC0E9E3
:105430000000C0E90422C0E90842C0E90A11436340
:1054400030BD00000022416AC260C0E90411C0E919
:105450000A226FF00101FEF789BB0000D0E9043297
:10546000934201D1C2680AB9181D704700207047E5
:10547000036919600021C2680132C260C269134425
:1054800082699342036124BF436A0361FEF762BBF2
:1054900038B504460D46E3683BB162690020131D30
:1054A0001268A3621344E36207E0237A33B9294602
:1054B0002046FEF73FFB0028EDDA38BD6FF0010013
:1054C000FBE70000C368C269013BC3604369134442
:1054D00082699342436124BF436A4361002383622C
:1054E000036B03B11847704770B52023044683F35C
:1054F0001188866A3EB9FFF7CBFF054618B186F3DF
:105500001188284670BDA36AE26A13F8015B9342D2
:10551000A36202D32046FFF7D5FF002383F311884F
:10552000EFE700002DE9F84F04460E46174698466F
:105530004FF0200989F311880025AA46D4F828B035
:10554000BBF1000F09D141462046FFF7A1FF20B172
:105550008BF311882846BDE8F88FD4E90A12A7EB2F
:10556000050B521A934528BF9346BBF1400F1BD938
:10557000334601F1400251F8040B914243F8040B09
:10558000F9D1A36A403640354033A362D4E90A23F7
:105590009A4202D32046FFF795FF8AF31188BD4255
:1055A000D8D289F31188C9E730465A46FBF754FF31
:1055B000A36A5E445D445B44A362E7E710B5029CC6
:1055C0000433017204FB0321C460C0E90613002305
:1055D000C0E90A33039B0363049BC0E90000C0E9F0
:1055E0000422C0E90842436310BD0000026A6FF064
:1055F0000101C260426AC0E904220022C0E90A2215
:10560000FEF7B4BAD0E904239A4201D1C26822B9A4
:10561000184650F8043B0B607047002070470000AC
:10562000C3680021C2690133C360436913448269BE
:105630009342436124BF436A4361FEF78BBA000083
:1056400038B504460D46E3683BB1236900201A1DB6
:10565000A262E2691344E36207E0237A33B9294680
:105660002046FEF767FA0028EDDA38BD6FF001003A
:10567000FBE7000003691960C268013AC260C269B1
:10568000134482699342036124BF436A0361002388
:105690008362036B03B118477047000070B5202385
:1056A0000D460446114683F31188866A2EB9FFF72A
:1056B000C7FF10B186F3118870BDA36A1D70A36A7D
:1056C000E26A01339342A36204D3E16920460439BC
:1056D000FFF7D0FF002080F31188EDE72DE9F84FA8
:1056E00004460D46904699464FF0200A8AF31188E9
:1056F0000026B346A76A4FB949462046FFF7A0FFE8
:1057000020B187F311883046BDE8F88FD4E90A0745
:105710003A1AA8EB0607974228BF1746402F1BD915
:1057200005F1400355F8042B9D4240F8042BF9D1B4
:10573000A36A40364033A362D4E90A239A4204D3D1
:10574000E16920460439FFF795FF8BF31188464540
:10575000D9D28AF31188CDE729463A46FBF77CFE79
:10576000A36A3D443E443B44A362E5E7D0E90423F9
:105770009A4217D1C3689BB1836A8BB1043B9B1AD1
:105780000ED01360C368013BC360C3691A448369C8
:105790009A42026124BF436A0361002383620123AA
:1057A000184670470023FBE700F0EAB8034B0022DD
:1057B00058631A610222DA60704700BF000C004093
:1057C000014B0022DA607047000C0040014B586327
:1057D000704700BF000C0040014B586A704700BF83
:1057E000000C0040024B034A1A60034A5A6070479B
:1057F00040490020D049002000000220074B4942C8
:1058000010B55C68201A08401968821A914203D8C2
:10581000944201D35A6010BD0020FCE740490020AB
:1058200008B5202383F31188FFF7E8FF002383F3F3
:10583000118808BD4B6843608B688360CB68C36088
:105840000B6943614B6903628B6943620B680360B8
:105850007047000008B52F4B40F2FF70D3F8E010FE
:105860000143C3F8E010D3F8082102432A48C3F8E3
:1058700008212A4AD3F808311146FFF7DBFF00F56B
:10588000806002F11C01FFF7D5FF00F5806002F196
:105890003801FFF7CFFF00F5806002F15401FFF7F8
:1058A000C9FF00F5806002F17001FFF7C3FF00F54A
:1058B000806002F18C01FFF7BDFF00F5806002F10E
:1058C000A801FFF7B7FF00F5806002F1C401FFF700
:1058D000B1FF00F5806002F1E001FFF7ABFF00F5DA
:1058E000806002F1FC01FFF7A5FF02F58C7100F565
:1058F0008060FFF79FFF00F0FBF8094B0522C3F81B
:1059000098204FF06052C3F89C20064AC3F8A020AC
:1059100008BD00BF0044025800000258646500083A
:1059200000ED00E01F00080308B500F0EBFAFEF7F9
:1059300049F8104BD3F8DC2042F04002C3F8DC20D9
:10594000D3F8042122F04002C3F80421D3F8043133
:10595000094B1A6842F008021A601A6842F0040201
:105960001A60FEF761FEFEF7CBFCBDE80840FEF7CB
:1059700079BA00BF0044025800180248704700007E
:10598000114BD3F8E82042F00802C3F8E820D3F81E
:10599000102142F00802C3F810210C4AD3F810314C
:1059A000D36B43F00803D363C722094B9A624FF0CD
:1059B000FF32DA6200229A615A63DA605A60012289
:1059C0005A611A60704700BF004402580010005C22
:1059D000000C0040094A08B51169D3680B40D9B2E0
:1059E0009B076FEA0101116107D5202383F311881A
:1059F000FEF718F8002383F3118808BD000C00405F
:105A000008B54FF0FF31394BD3F88020C3F8801030
:105A1000D3F880200022C3F88020D3F88000D3F888
:105A20008400C3F88410D3F88400C3F88420D3F82A
:105A30008400D86F40F0FF4040F4FF0040F43F5036
:105A400040F03F00D867D86F20F0FF4020F4FF00FF
:105A500020F43F5020F03F00D867D86FD3F888007B
:105A60006FEA40506FEA5050C3F88800D3F88800BE
:105A7000C0F30A00C3F88800D3F88800D3F8900078
:105A8000C3F89010D3F89000C3F89020D3F890009A
:105A9000D3F89400C3F89410D3F89400C3F894207A
:105AA000D3F89400D3F89800C3F89810D3F898006E
:105AB000C3F89820D3F89800D3F88C00C3F88C1062
:105AC000D3F88C00C3F88C20D3F88C00D3F89C005A
:105AD000C3F89C10D3F89C10C3F89C20D3F89C30DA
:105AE000FEF7F8FEBDE8084000F0DCB900440258BB
:105AF000614B0122C3F80821604BD3F8F42042F037
:105B00000202C3F8F420D3F81C2142F00202C3F8C9
:105B10001C210222D3F81C31594BDA605A689104D7
:105B2000FCD5584A1A6001229A60574ADA6000226E
:105B30001A614FF440429A61514B9A699204FCD524
:105B40001A6842F480721A604C4B1A6F12F4407F4C
:105B500004D04FF480321A6700221A671A6842F0A4
:105B600001021A60454B1A685007FCD500221A61E1
:105B70001A6912F03802FBD1012119604FF08041FF
:105B800059605A67414ADA62414A1A611A6842F416
:105B900080321A60394B1A689103FCD51A6842F4B6
:105BA00080521A601A689204FCD53A4A3A499A62BD
:105BB00000225A6319633949DA6399635A64384A8F
:105BC0001A64384ADA621A6842F0A8521A602B4BFB
:105BD0001A6802F02852B2F1285FF9D148229A617E
:105BE0004FF48862DA6140221A622F4ADA644FF079
:105BF00080521A652D4A5A652D4A9A6532232D4ADC
:105C00001360136803F00F03022BFAD11B4B1A69C0
:105C100042F003021A611A6902F03802182AFAD116
:105C2000D3F8DC2042F00052C3F8DC20D3F8042182
:105C300042F00052C3F80421D3F80421D3F8DC2049
:105C400042F08042C3F8DC20D3F8042142F08042C5
:105C5000C3F80421D3F80421D3F8DC2042F0004239
:105C6000C3F8DC20D3F8042142F00042C3F8042139
:105C7000D3F80431704700BF00800051004402583F
:105C80000048025800C000F0020000010000FF01BF
:105C90000088900812102000630209012C02040001
:105CA00047040508FD0BFF01200000200010E00064
:105CB00000010100002000524FF0B04208B5D2F8B8
:105CC000883003F00103C2F8883023B1044A136816
:105CD0000BB150689847BDE80840FEF7F3BC00BF21
:105CE000484900204FF0B04208B5D2F8883003F0A0
:105CF0000203C2F8883023B1044A93680BB1D0681C
:105D00009847BDE80840FEF7DDBC00BF48490020C9
:105D10004FF0B04208B5D2F8883003F00403C2F85F
:105D2000883023B1044A13690BB150699847BDE824
:105D30000840FEF7C7BC00BF484900204FF0B04202
:105D400008B5D2F8883003F00803C2F8883023B1D0
:105D5000044A93690BB1D0699847BDE80840FEF743
:105D6000B1BC00BF484900204FF0B04208B5D2F89E
:105D7000883003F01003C2F8883023B1044A136A54
:105D80000BB1506A9847BDE80840FEF79BBC00BFC6
:105D9000484900204FF0B04310B5D3F8884004F4D0
:105DA0007872C3F88820A30604D5124A936A0BB10F
:105DB000D06A9847600604D50E4A136B0BB1506B3E
:105DC0009847210604D50B4A936B0BB1D06B9847CB
:105DD000E20504D5074A136C0BB1506C9847A30534
:105DE00004D5044A936C0BB1D06C9847BDE81040C1
:105DF000FEF768BC484900204FF0B04310B5D3F817
:105E0000884004F47C42C3F88820620504D5164A11
:105E1000136D0BB1506D9847230504D5124A936D4D
:105E20000BB1D06D9847E00404D50F4A136E0BB147
:105E3000506E9847A10404D50B4A936E0BB1D06EF7
:105E40009847620404D5084A136F0BB1506F984706
:105E5000230404D5044A936F0BB1D06F9847BDE873
:105E60001040FEF72FBC00BF4849002008B503488A
:105E7000FCF726FCBDE80840FEF724BCDC2400202B
:105E800008B50348FCF7CCFCBDE80840FEF71ABC97
:105E9000FC24002008B5FFF79DFDBDE80840FEF793
:105EA00011BC0000062108B50846FFF79DFA06213F
:105EB0000720FFF799FA06210820FFF795FA062137
:105EC0000920FFF791FA06210A20FFF78DFA062133
:105ED0001720FFF789FA06212820FFF785FA092104
:105EE0007A20FFF781FA0A215C20FFF77DFA07216B
:105EF0003220FFF779FA0C212520BDE80840FFF792
:105F000073BA000008B5FFF77BFD00F00FF8FCF74F
:105F100099FEFDF771F8FCF743FFFDF703FBFFF770
:105F20002DFDBDE80840FFF73FBC00000023054AF7
:105F300019460133102BC2E9001102F10802F8D111
:105F4000704700BF484900200B460146184600F044
:105F500027B80000FEF70CBAFFF7FCBF012838BFD6
:105F6000012010B504462046FEF7C2F930B900F012
:105F700007F808B900F00CF88047F4E710BD0000FE
:105F8000024B1868BFF35B8F704700BFC849002001
:105F900008B5062000F04AF80120FDF7B1FE000028
:105FA00010B5054C13462CB10A4601460220AFF34A
:105FB000008010BD2046FCE70000000010B501394C
:105FC0000244904201D1002005E0037811F8014F0E
:105FD000A34201D0181B10BD0130F2E71F2938B5CC
:105FE00004460D4604D9162303604FF0FF3038BD38
:105FF000426C12B152F821304BB9204600F030F813
:106000002A4601462046BDE8384000F017B8012B6B
:106010000AD0591C03D1162303600120E7E70024AE
:1060200042F82540284698470020E0E7024B014609
:106030001868FFF7D3BF00BF5C22002038B5074DBA
:1060400000230446084611462B60FDF75DFE431C05
:1060500002D12B6803B1236038BD00BFCC490020BA
:10606000FDF74CBE034611F8012B03F8012B002A63
:10607000F9D170470000000001000000000100019C
:106080000000000000000000000000005265717573
:10609000657374656420746F206572617365206D2B
:1060A0006F7265207468616E2077652063616E0A87
:1060B00000457261736520436F6D6D616E6420529F
:1060C000656365697665640A0050435420444F4E09
:1060D000453A2025640A000053544D333248373F77
:1060E0003F3F0053544D3332483734332F37353325
:1060F00000000000382B0020FC240020773235718E
:106100002D64747200000000000000000000000018
:106110000000000000000000B5160008F519000896
:10612000F5190008B9160008BD160008C1160008C8
:10613000F5190008F5190008F5190008C51600083A
:10614000C9160008E1160008E9160008F51600084F
:10615000F9160008FD160008DC24002001000000EC
:1061600000000000000000001118000829180008B5
:10617000B5160008091700085D1800082517000863
:10618000F518000825190008211700080D17000848
:106190001D170008C5160008C9160008E1160008FA
:1061A000E9160008F5160008F9160008FD160008A3
:1061B00000000000000000009D1700080117000803
:1061C0000517000853464450000000004A45444566
:1061D000433A204661696C656420746F206465747D
:1061E00065637420666C61736820646576696365B5
:1061F0003A2025730A004A454445433A20466169DE
:106200006C656420746F20636F6E66696720666CCE
:10621000617368206465766963653A2025730A00B6
:106220004A454445433A2044657465637465642077
:10623000466C617368204465766963653A2025730E
:106240000A0045787420466C617368204E6F742094
:10625000466F756E642100006D74323571007732BF
:10626000357100005862000820BA00005E62000824
:10627000EF400000FC600008EF700000000000002C
:1062800000000000D520000835230008111A00087E
:10629000151A0008BD1A00089D220008191A0008E6
:1062A0001D1A0008952100088D1A0008F521000824
:1062B000F91E0008251A0008211A0008C523000845
:1062C000851A00080000000000000000812400087A
:1062D000892400086D24000875240008992400080A
:1062E0009D2400084D444D41206661696C757265BE
:1062F0000000000000960000000000000000000008
:10630000000000000000000000000000000000008D
:106310000D2C0008F92B0008352C0008212C000852
:106320002D2C0008192C0008052C0008F12B000862
:10633000412C0008000000001D2D0008092D000858
:10634000452D0008312D00083D2D0008292D00089D
:10635000152D0008012D0008512D00080000000037
:1063600001000000000000006D61696E0000000087
:1063700069646C650000000070630008C02900209B
:10638000382B002001000000C13900080000000087
:106390004172647550696C6F740025424F415244DC
:1063A000252D424C002553455249414C2500000003
:1063B00002000000000000003D2F0008AD2F000883
:1063C00040004000E0430020F043002002000000B5
:1063D000000000000300000000000000F52F00088E
:1063E0000000000010000000004400200000000039
:1063F0000100000000000000F04700200101020041
:10640000013E0008113D0008AD3D0008913D000827
:10641000430000001864000809024300020100C0A4
:1064200032090400000102020100052400100105E8
:10643000240100010424020205240600010705824C
:10644000030800FF09040100020A0000000705011B
:106450000240000007058102400000001200000019
:106460006464000812011001020000400912415743
:1064700000020102030100000403090425424F4108
:10648000524425005350526163696E6748370030AB
:10649000313233343536373839414243444546008A
:1064A0000000002000000200020000000000003098
:1064B00000000400000000000000002400000800AC
:1064C000040000000004000000FC000002000000C6
:1064D00000000430008000000000000000000038D0
:1064E0000000010001000000400000528000005246
:1064F000C0000052000100524001005280010052D1
:10650000C0010052000200524002005280020052BC
:10651000C0020052000300524003005280030052A8
:10652000C00300520004005200000000493100087E
:1065300001340008AD340008400040002849002024
:106540002849002001000000384900208000000098
:1065500040010000080000000001000000040000ED
:10656000080000000000806A00000000AAAAAAAA91
:1065700000000064FFFF00000000000000A00A000F
:10658000240020A100000000AAAAAAAA000000512D
:10659000FFFF0000000900000009004400000000A7
:1065A00000000000AAAAAAAA00000000FFFF000045
:1065B00000000000000000000000800A0000000051
:1065C000AAAAAAAA00000000FFFF00000000000025
:1065D000009099006000400000000000AAAAAAAA4A
:1065E00000004000F7FF000000090000000000006C
:1065F0000000000000000000AAAAAAAA00000000F3
:10660000FFFF00000000000000000000000000008C
:1066100000000000AAAAAAAA00000000FFFF0000D4
:10662000000000000000000000000000000000006A
:10663000AAAAAAAA00000000FFFF000000000000B4
:10664000000000000000000000000000AAAAAAAAA2
:1066500000000000FFFF000000000000000000003C
:106660000000000000000000AAAAAAAA0000000082
:10667000FFFF00000000000000000000000000001C
:1066800000000000AAAAAAAA00000000FFFF000064
:106690000000000000000000489CFF7F0100000097
:1066A0002404000000000000000000000000E900D9
:1066B000FF00000000000000D86000083F0000005C
:1066C00050040000E36000083F0000000096000056
:1066D0000000080096000000000800000400000010
:1066E00078640008000000000000000000000000C6
:1066F00000000000000000000000000060220020F8
:106700000000000000000000000000000000000089
:106710000000000000000000000000000000000079
:106720000000000000000000000000000000000069
:106730000000000000000000000000000000000059
:106740000000000000000000000000000000000049
:106750000000000000000000000000000000000039
:00000001FF
